S01B00006275696C642F72656C656173652F7A69676265652E73333714
S21400400008100020418C000021D600002167030024
S2140040102167030029D6000031D60000216703007F
S214004020216703002167030021670300216703005F
S21400403035D60000C4B204002167030021670300E0
S21400404021670300216703002167030059870000EA
S214004050216703002167030021670300216703002F
S214004060216703002167030035DB0000DF5D0300E6
S214004070216703002167030021670300216703000F
S21400408021670300216703002167030021670300FF
S21400409021670300216703002167030021670300EF
S2140040A02167030009900000ED8F000021670300E0
S2140040B0216703002167030021670300852A0200A9
S2140040C03DC4030039C40300E921020053C40300C1
S2140040D041C40300452A020045C40300790E0200CD
S2140040E0C52A020021670300216703002167030039
S2140040F0216703002167030021670300216703008F
S214004100216703002167030021670300216703007E
S214004110216703002167030021670300216703006E
S214004120216703002167030021670300216703005E
S20800413021670300FB
S214004134F0B5114A114C124E00F00105E3695F0711
S21400414413D40DB9334213D103EA00078F4207D1C3
S2140041540B4A1A40002A14BF6FF001000020F0BD7D
S214004164013AEBD16FF00200F9E74FF0FF30F6E7C3
S2140041746FF00100F3E700BF80969800000003503C
S214004184020001000B4B70B5D96911F480310DD1D2
S21400419401244FF48072084E084DF46020462C64C7
S2140041A41A61FFF7C5FF3464EC6070BD6FF0010060
S2140041B4FBE700BF0000035000100350002003502C
S2140041C438B541F6713301220C4C0021E569E363EE
S2140041D40B4B05F48035DA600223606121202361ED
S2140041E4FFF7A6FF10B92120FFF7A2FF0122054B17
S2140041F4DA600DB10023E36338BD00BF000003504E
S214004204001003500020035070B5134C6061E3693E
S2140042145B071ED40E4656F8043B8D18A361AE42C7
S2140042240BD10423002121202361FFF781FF58B915
S214004234BDE870402120FFF77BBF08210846FFF742
S21400424477FF10B10423236170BD56F8043BA361C5
S214004254E5E74FF0FF30F7E7000003502DE9F84399
S214004264154641F67132164B8946DF69DA63012238
S214004274064603F58053DFF8508007F48037DA608B
S21400428455B9284601220F4BDA601FB10022A3F568
S2140042940053DA63BDE8F88306F5005404EA08041C
S2140042A4A41BAC4228BF2C46494622463046FFF79C
S2140042B4ABFF0028E6D12644A1442D1BE0E700BF4F
S2100042C4000003500020035000E0FFFF45
S2140042D02DE9F04F4FF0FD0BC9B09A460DF11B09C2
S2140042E09DF8503108AFCDF80C90CDF808B0019786
S2140042F0059303890446009383790E4690464188C9
S2140043008288407813F0DCF8054650B10090A38808
S214004310002062883A4913F017FC284649B0BDE8E9
S214004320F08F99F8000035F0A7FB38B12846A3882F
S2140043306288344913F008FC8D25EEE75A46394664
S21400434099F8000035F040FB8346002851D0529B78
S2140043501BB1BDF84C3198424BD8002399F8009019
S2140043600793A9F14102012A5FFA8BF123D8384658
S2140043700139254ADFF898C05FFA81FE734513DBE2
S214004380059B04210792C3B907AF18221F489FED6B
S2140043901A7B02FB060420460A460830394684ED9E
S2140043A0027B18F027F911E010F8011F0133514085
S2140043B00CFB01F2E2E7059B33B123464A4638463A
S2140043C0009610F0A5FFA8E70829DED9B8F1000F7F
S2140043D001D088F80090BAF1000F01D0AAF800B01A
S2140043E0529B002B99D05A46184608A918F002F995
S2140043F093E7012591E700BF0000000000000000E1
S214004400A05B0400D55B0400C59D1C81181100202C
S21400441093010001000000002DE9F04F93B0CDE9B4
S2140044200A32DDE91C530E9353EC102BCDE908013C
S214004430104619468DED060B1E9E17F065FB80B1E3
S214004440DDE906014FF0FF32C54B17F085FB40B99A
S214004450DDE906014FF0FF326FF4801317F05EFBC4
S21400446070B1DDE908019DED060B0E9B1E96CDE9A9
S2140044701C53DDE90A3213B0BDE8F04F00F088B9EE
S2140044800022DDE90601002317F048FB002800F0B3
S2140044903381DDE906A303F1004BCBF30A5016F493
S2140044A08063A0F2FF3008BF06250F9317F05AF876
S2140044B09BA3D3E9002317F0BFF89BA3D3E90023FF
S2140044C016F004FFCBF31304894644F07F51804670
S2140044D00022A44B504641F4401116F0F5FE94A37A
S2140044E0D3E9002317F0A8F802460B464046494693
S2140044F016F0ECFE17F03AFB044617F033F88EA3DE
S214004500D3E900238046894617F096F80022964B9A
S21400451016F0DCFE17F02AFB89A3D3E90023074632
S2140045204946404617F088F880463846894617F0D0
S21400453019F885A3D3E9002317F07EF802460B4648
S2140045404046494616F0C0FE02460B46CDE90C230F
S21400455017F072F8DDE90C238046894610461946A6
S21400456016F0B4FE0022CDE91001804B40464946C5
S21400457017F08CF900227E4B16F0A8FE02460B467A
S2140045804046494617F082F900227A4B16F09EFE06
S21400459002460B464046494617F078F9DDE90C23FB
S2140045A08046894600204FF0804116F08DFE024678
S2140045B00B464046494616F089FE02460B46DDE9A4
S2140045C0100117F063F907F2FF3700226A4B16F066
S2140045D07DFE00223B0517F02FF852465B468046CC
S2140045E0894617F0B9FA002840F08980CDE90C8991
S2140045F004F16303C62B8CBF0527042731051BD5A2
S21400460053A3D3E900235046594617F09BFA0028D7
S2140046107FD051A3D3E900235046594617F07EFABF
S214004620002876D00027A542C6BF2C1B04F1FF3514
S21400463000253C4646F480660E9B9F422CBF4FF0FA
S2140046400008A3EB070816F0020903D0002F18BFD6
S2140046504FF000083CB1DDE90C235046594617F0F0
S21400466015F982468B46DDE906010022002317F085
S21400467055FA10B10BF100439B46DDE9080126F41C
S2140046800063CDE90183DDE90A324BEC10AB0095FF
S21400469000F07EF802465FB3DDE9091316F0200F3E
S2140046A000F10105089E0CBF65204520B047DDE9F6
S2140046B008010523002205930A23002CCDE90232C7
S2140046C007F1FF374FEAD473B8BF64422A46019316
S2140046D004970A9B009437F029F80246B9F1000FB8
S2140046E006D00B9BC41A0B9B1A190E9BA34245D8E7
S2140046F0104613B0BDE8F08FDDE906ABCDE600222C
S214004700404649461A4B17F0C1F8013CCDE90C016A
S2140047106EE7002D90D00F9B002B8DD0013D8BE7D0
S214004720FB799F501344D33FB3C8608B288AC63F9B
S21400473061436F63A787D23F71A379094F930A40FD
S2140047401655B5BBB16B0240EF39FAFE422EE63F76
S2140047502D431CEBE2361A3F0000000080842E41F9
S214004760FFFFEF7F0000F83F0000E03F00002C4016
S21400477000002440000018400000F03F2020DDE943
S2140047800913089DA8470134ADE700BF00000000EC
S2140047902DE9F04F5BEC10AB97B0CDE90501DDE9F4
S2140047A02058CDE90723504652465B465946229F7D
S2140047B017F0AAF970B90323CDE902870193AA4B33
S2140047C00093DDE90501DDE9072336F0E1FE17B0C9
S2140047D0BDE8F08F4FF0FF326FF480135046594615
S2140047E017F09CF928B10423CDE9028701939F4B6B
S2140047F0E6E74FF0FF32504659469D4B17F0ACF9AE
S21400480068B19C4A07F00403002B08BF03229A4BAA
S2140048101CBF13460422CDE902870192D0E750461A
S2140048208DA3D3E90023594617F096F938B98CA31F
S214004830D3E900235046594617F070F968B1DDE910
S2140048400723DDE905014BEC10ABCDE92187209568
S21400485017B0BDE8F04FFFF7DFBD0022002350463B
S214004860594617F05BF9002800F091805B465246E7
S2140048700020002116F028FD012382468B4609936E
S21400488017F4806400F08580092D40F285800024AE
S21400489030210EABA5F109020134202C03F8011BD0
S2140048A0A5EB040901D09442F6D15946504617F0BC
S2140048B05DF9724B054603EBC90393ED007B8DED66
S2140048C00A7B16F04FFE02460B465046594616F037
S2140048D0FBFCDDE90A2316F0AFFE02460B46CDE9E7
S2140048E00C2317F06BF9064616F02CFE02460B4614
S2140048F0DDE90C0116F0E8FC02460B46CDE90C2378
S21400490000225F4B17F028F9002848D001363046C1
S21400491016F018FE02460B46DDE90A0117F008F904
S21400492008B100260135B9F1000F45D1284616F02A
S21400493019FE02460B465046594616F0C5FC0022A4
S2140049404F4B17F0EBF810B9E90700D501350A21EF
S2140049500EAB1A19202C0AD095FBF1F001FB10556E
S214004960303502F8015B013405460028F2D107F025
S2140049700302012A55D1B8F1000F52D0099A12B994
S21400498017F00C0F01D008F1FF38302240E00990F4
S21400499076E74FF0060988E7A946002485E7002257
S2140049A0DDE90C01364B17F0B9F80028BBD10EB183
S2140049B0F007B8D50136B6E70A210EAB1A19202C37
S2140049C00DD0B6FBF1F001FB1063092E03F13003A6
S2140049D009F1FF3904F1010402F8013B11D8302136
S2140049E0A1440EAA202CB2D04C4504F101030AD1F2
S2140049F004F158020DEB02042E2204F8202C1C466B
S214004A00A5E70646DBE7A1541C46EBE71A5501343A
S214004A10444506D2202CF9D1CDE9028701940EAB8D
S214004A20CEE6202CF8D0099B3BB12D2204F158038A
S214004A306B4403F8202C0134EEE77A0704D504F122
S214004A4058032B226B44F4E73B07E5D504F15803E3
S214004A5020226B44EDE700BF0000000065CDCD418D
S214004A600000000065CDCDC1FF790400037A040084
S214004A70FFFFEF7FF6790400FB79040000C2040014
S214004A800000E03F0000000070B58EB02C22002130
S214004A9003A817F01FFC64234FF002320893CDE9F9
S214004AA005230B2301218DF834305B4B8DF8101055
S214004AB01D880D4040F0A98008463BF0F5F80A2214
S214004AC0564B574C1A704FF42873ADF812304FF00F
S214004AD0FF332360534B54491B8820460B82534BAD
S214004AE0534A1B68CD828B61524B0D621B884B82EA
S214004AF0514B1B68CB611EF05BF820B14FF41B7165
S214004B004E483CF012FA0521206836F0F8FF20B136
S214004B1040F27D2149483CF008FA206816F090FBE8
S214004B20474B2068196837F0ADF80C253BF024FD9C
S214004B30684309903BF020FD68430DEB05010790A4
S214004B40206818F089FA20B140F295213B483CF0E5
S214004B50ECF9256820F0D6FB00220146284637F0FF
S214004B6009F920B140F2972134483CF0DEF940F2D2
S214004B700353344D344E2B80052396F90000AB705A
S214004B807F2801D11EF00AF93378EB703BF0F4FC75
S214004B9000EB80008000A8803BF0EEFC0023C00005
S214004BA04FF0FF31E880AB604FF0FF3018A3D3E939
S214004BB000233BF0CBF92549206837F094F82068AD
S214004BC002A937F0B0FC20B14FF434711B483CF01A
S214004BD0ACF9042220680DEB020137F028F804280F
S214004BE004D040F2D72115483CF09FF901A90120D6
S214004BF036F033FC08F058FD01201EF061FD32F05F
S214004C001CFC1EF087FD1EF061F80EB070BD00BFE4
S214004C100A0020FF420300000462002060690020B2
S214004C20305A002032DB04003470002038DB0400E9
S214004C30D1FC030030DB040034DB04002EB104009A
S214004C40846D0020245A00206873002045FD030070
S214004C500348044B834202D0034B03B11847704706
S214004C609C7300209C73002000000000064B074940
S214004C70C91A891048BF0131491003D0044B0BB143
S214004C8001481847704700BF9C7300209C730020A3
S214004C900000000010B5064C237843B9FFF7D8FF94
S214004CA0044B13B10448AFF300800123237010BDFA
S214004CB00017002000000000D8FE040008B5044BD2
S214004CC01BB104490448AFF30080BDE80840CDE7B7
S214004CD00000000004170020D8FE0400A3F5803A68
S214004CE0704700BF154B002B08BF114B9D46FFF7C2
S214004CF0F5FF00218B460F461148124A121A17F08C
S214004D00E9FA0C4B002B00D098470B4B002B00D039
S214004D1098470020002104000D000B4817F020FEE5
S214004D2017F0B0FA2000290031F0DAF817F006FE86
S214004D30000008000000000000000000081000202E
S214004D4008100020C4690020C9C9010007B5012168
S214004D5020200DF1070201F019FC50B1012120209E
S214004D600DF107028DF8071001F020FC03B05DF886
S214004D7004FB9DF807100129F8D00122084816F018
S214004D8097F901210DF1070220208DF8071001F098
S214004D900DFC31F00AF84FF4FA6001F041FAE5E74D
S214004DA06813040038B501F0B9F901F0EBFE0128EC
S214004DB005D001F0E7FE022801D001F009FF0A4DF8
S214004DC02B783BB901F0DEFE0128044602D131F013
S214004DD07EF82C7001F0D6FE012803D1BDE83840DD
S214004DE001F082B938BD00BFF062002010B504465D
S214004DF0008830F0A6FFA37884F84400834202BF00
S214004E000123E3702371074B04F11C00C4E9073447
S214004E1001F0C8FC224620880349BDE8104001F096
S214004E204FBB00BFC35503008D55030070B5C37854
S214004E3004460D461646002B34D1D1B1214816F053
S214004E4037F90123E370E36CA6600BB1E06D984779
S214004E50E368F61A63699E4221D2217E1A48013120
S214004E60C9B2217616F024F9A36D13B1217EE06D48
S214004E709847E57030F0ACFF15B3237903BBA26802
S214004E80238A801A83421BD801231048237116F008
S214004E900FF9236DA3B1E06DBDE8704018470123FC
S214004EA02376E6E70029E4D1094816F001F9636D98
S214004EB0E660E5702571002BDBD0E06D9847D8E7FB
S214004EC070BD00BF90130400A1130400CF130400AC
S214004ED0BC13040013B5C8B1C2B1012910D0022911
S214004EE011D099B9C369283083B11404B4FBF3F424
S214004EF004600848009416F0DBF8002002B010BDED
S214004F00036A2C30F0E7436A3030EDE74FF0FF30AD
S214004F10F4E700BFE51304000A46044903460868A0
S214004F2010B1194630F0A9BB704700BF1C1700200F
S214004F3070B5044694F89D2094F89E30D21A4032FC
S214004F40514201F03F0102F03F0258BF4A42D2B23E
S214004F50162A00D870BD03F03F02224492F85D2066
S214004F60552A05D0013303F03F0384F89E30E1E76D
S214004F7000205822191801F03F01214491F85D10D5
S214004F8001300A441628D2B2F4D1D24303F11601F6
S214004F9001F03F01214491F85D10D2B28A42E1D17E
S214004FA00121204630F02EFB04210546204630F035
S214004FB029FB0A210646204630F024FBA26AC4E9F3
S214004FC007655643E26A030248BF434202FB05F503
S214004FD0226B48BF23F07F4002FB00F303F500433B
S214004FE01B0C360C2D0C23816062A680E58030F009
S214004FF0EFFE237E33B90123237694F89E3060615A
S2140050001733B0E742F210726369C31A9342F2D8BC
S2140050102269B4F9081003FB01222261064A2369BB
S2140050209342E8D3A3F55B13A3F53A532361E368F1
S2140050300133E360F3E700BF80EE360010B50446A8
S21400504001F056FC2046FFF773FF0221054801F0E9
S2140050503BFC04F134004FF47A71BDE8104030F0A8
S214005060AEBE00BF33B204002DE9F8430D46164627
S2140050709846044610B3A8220021043017F02AF9F7
S21400508040F29D1240F20513C4E90A236923DFF8B3
S214005090889023634246314628461A4B2580668010
S2140050A0C9F8004001F0ACFB074660B10023324669
S2140050B029461548C9F8003015F0FAFF4FF0FF37BB
S2140050C03846BDE8F88330F083FE012384F85C3070
S2140050D00E4B6061C4E92834032384F8A8300C4BD7
S2140050E0C4E90D343434204601F05CFB20464FF40E
S2140050F07A7130F064FE434632462946054815F07C
S214005100D7FFDDE7194F00001E14040038B2040074
S2140051103D5000004B1404001C17002058B101B18C
S214005120816202B1C26203B10363816AD0E90B23D4
S214005130014815F0BDBF70477C1404002DE9F84304
S2140051400E4617461D460446002846D092220021E9
S214005150063017F0BFF8224A224B3046C4E9152322
S21400516043F273630022E365114626806780A580BC
S21400517030F009FE0022A0711146384630F003FEDA
S21400518000224FF001081146E071284630F0A6FDD7
S214005190284630F0C2FD84F83C8030F019FE124BF1
S2140051A004F16009C4E91834206284F8898048460E
S2140051B001F0F8FA0D4B3A463146C4E923340C4860
S2140051C02B4684F8948015F073FF484641F28831E8
S2140051D030F0F5FD0020BDE8F8834FF0FF30FAE729
S2140051E0305C020076CF01009757030054B20400EB
S2140051F0A114040058B101B1416502B1826503B142
S214005200C365416DD0E91623014815F051BF7047BC
S214005210D514040013B5C8B1C2B1012910D00229B3
S21400522011D099B9836C543083B11404B4FBF3F4F1
S21400523004600848009415F03BFF002002B010BD43
S214005240C36C5830F0E7036D5C30EDE74FF0FF308D
S214005250F4E700BFFB14040070B5044600F13C06FA
S21400526080F83B1030460D4630F0AEFD238F1BB164
S21400527094F83A30AB4205D129462046BDE8704046
S21400528030F000BB054B3046C4E90F3401F08AFA13
S2140052903046BDE87040142130F091BDAD58030093
S2140052A070B51E46838804460D46C18002810BB148
S2140052B0868070BD3C3030F087FD94F83430BBB14A
S2140052C094F83610002908BFFF21204630F0DAFA9D
S2140052D00123E370074BA680C4E903340C34204650
S2140052E001F060FA29462046BDE8704030F067BD00
S2140052F0FF21EAE71B59030058B1064B064A074947
S214005300C0E90023064BC0E902130023C0E90433BA
S214005310836170471E009065C409102708523C0040
S214005320600E803E10B501790446B1FA81F100881E
S214005330490930F04FFC21796088B1FA81F14909BA
S21400534030F048FC034B1A68A24204BF00221A60E1
S21400535010BD00BF2017002070B543790446A3B1E6
S21400536000880E4E04F10805336813B10C4B1B7809
S2140053706BB1217930F02EFC64210A4B3460A360B7
S2140053802846BDE8704030F01ABD4088E9E7064878
S21400539015F08EFE054B3221A360F1E720170020A2
S2140053A0F26200202553000038150400595300000F
S2140053B010B50446E0B10F4815F07AFE012363717C
S2140053C0A37953B92179208830F004FC236B7BB194
S2140053D0606B0121BDE8104018472046FFF7A2FF8A
S2140053E004F1080030F0F0FC2046FFF7B5FFEDE7CB
S2140053F010BD00BF6E15040010B50446F8B1104885
S21400540015F056FE00236371A3796BB921792088C5
S214005410B1FA81F1490930F0DDFB236B7BB1606B9B
S2140054200021BDE8104018472046FFF77BFF04F137
S214005430080030F0C9FC2046FFF78EFFEDE710BDF0
S2140054407915040010B5044668B1074815F030FE1B
S214005450637920461BB1BDE81040FFF7CDBFBDE81D
S2140054601040FFF7A5BF10BD8515040010B50E4C03
S2140054700E48214615F01CFE82210D4815F018FE38
S21400548082210220A21E01F091F8014630B134F8C4
S214005490022C0848BDE8104015F00ABE0648BDE8D4
S2140054A0104015F005BE00BF825B00209415040076
S2140054B0AF150400BA150400FE15040038B5114CEB
S2140054C082212246022001F061F8A51C014688B11F
S2140054D022880D4815F0ECFD2A460C4B03F12401FA
S2140054E053F8040B8B4242F8040BF9D11B78137067
S2140054F02423238035F8021C054A0648BDE83840B8
S21400550015F0D6BD805B002009160400891604003D
S214005510825B002067160400034B1B781BB18B428E
S21400552001D830F042BC7047F372002010B5044634
S21400553001460E4815F0BCFD012C11D10C4B0D4850
S2140055401A884FF6FF739A421EBF0022094B5A7400
S21400555030F075FA02F018FDBDE8104002F0BCBB52
S2140055600448BDE8104030F06CBA00BFAE16040028
S214005570A4720020106D002070B500241A4D1B4E3A
S2140055803378A3421BDC0024194D1A4E3378A3420D
S2140055901BDC0024184D194E3378A3421BDC01F0A7
S2140055A0F1FA012816481CD130F049FA02F0ECFC5A
S2140055B002F092FBBDE87040124801F003BB28469B
S2140055C0FFF714FC01346035DAE7284630F0F4F9CA
S2140055D001346435DAE7284630F001FB013438350B
S2140055E0DAE730F02EFAE5E760260020F8620020C1
S2140055F0802A0020F962002030240020F762002074
S214005600106D00202D5500002DE9F04F89B0FFF7F2
S21400561055FFA24B07A8079330F01FFB054616F070
S21400562055FD9F4CC2B21F2A627004D99D4815F0E2
S2140056303FFD00F0E9FD2946A01C16F0DBFF07A899
S21400564030F00BFB054616F041FDC2B21F2A84F867
S214005650212001D99448EAE7294604F1220016F0F1
S214005660C9FF07A830F0F9FA3225824600269AF8D4
S2140056700040002C40F0D6808C4DFFF77DFF2B7845
S214005680DFF870A2DFF87082894E00939AF8003037
S21400569098F800203178874815F00AFD327898F897
S2140056A000109AF8000053180344834F28782546C4
S2140056B003443846DBB2A24200F37784012B38BF9E
S2140056C00123DFF8FC9103934A4600234D464FF42E
S2140056D082714FF6FF740398013383421370518032
S2140056E0948002F10C02F6DB744B75496C48AB6093
S2140056F001F06AFBE879AB6800EB400003EB800042
S21400570000F08EFFEB790133EB716E4B1B88A342E2
S21400571003D06B496C4801F0A7FC4FF0000B674CB8
S21400572033785B4500F34B84684B1B785BB1684B62
S2140057301B78012B07D16249664801F067FF604974
S214005740654802F0DBF900274FF00C0B634BDFF8DF
S214005750709198F80010B94200F368845B4F3B786C
S21400576023B119B15D495B4830F08CFD0C214FF038
S214005770000B337898F80020134401FB03919AF845
S2140057800000574A584500F371844FF00C0B98F808
S214005790003036784FF000081E4406440BFB069B8C
S2140057A04FF07009DFF854A1404B1B78434500F3D7
S2140057B07684464B464C1B7883B1217801290DD957
S2140057C00C26013906FB0151424801F01FFF2178E3
S2140057D04148013906FB015102F090F90399384817
S2140057E001F010F940F2055240F6043120783E7878
S2140057F001F0EAF80022054640F20271207801F036
S214005800E3F829460246304601F04CFA079B234946
S2140058101A468B4240F05B84324809B0BDE8F04F30
S21400582015F046BC532C11D19AF801304C2B40F0A1
S21400583045819AF80230502B40F0408101222A4BD5
S2140058401A7007A830F009FA824610E7442C15D1E2
S2140058509AF80130303B092BF3D80AF1010030F0FA
S21400586009FA224B224A1978002385B2994202F19E
S2140058706002E6DD22F8465C0133F7E7422C3FD1B2
S2140058809AF80130542B75D10AF1020000F066FE3A
S2140058900C4B188018462FF056FED2E7825B00208D
S2140058A00C6C0020CD160400E4160400F362002001
S2140058B0F6620020A317040084210020E81A0020C6
S2140058C0701A0020A472002024170020F162002025
S2140058D0F27200207417002008100020741F0020A9
S2140058E0B81D0020F3170400F2620020F8620020C2
S2140058F060260020F4620020F5620020681C00206C
S214005900582C1ED8412C9CD9A4F14303152B00F229
S2140059101683DFE813F0D10114031C0214031403EA
S2140059201403780014031403500021001403140316
S214005930140314031701D3001403140314031403ED
S2140059405B01692C7FF47DAF0AF1010030F092F91B
S21400595080B230F026FA74E7C84B0120197800238D
S214005960C74A994202F1A8027FF76BAF02F8A60C6D
S2140059700133F6E70AF1010000F0F0FD04460AF1F3
S214005980030030F0EFF901210246204630F0A6F978
S2140059906021BC48BC4F037859437A187C524FF4B8
S2140059A0FA6111824FF448715161B8490133558349
S2140059B01165037045E70AF1010000F0CFFD0022F3
S2140059C04FF064088146B24F114630F087F9B14C6B
S2140059D03E780AF1030108FB06F306FB084630464C
S2140059E024F8039030F01FF9304601262FF0E4FF2C
S2140059F000213B78A84A03FB0844334414605160F6
S214005A0016743B701DE70AF1010000F0A7FD0022A6
S214005A104FF0640881469E4C114630F05FF99D4F6A
S214005A2023780AF1030108FB03F203FB08784046DB
S214005A3027F8029030F0F7F840462FF0BDFF974B5E
S214005A40974A93F800C0104600239C450ADD116D66
S214005A50583239BB582202FB03006423227802FB2B
S214005A6003730365864A00231046D2F8A410D9B9FA
S214005A70A82202FB03006423227802FB0373C0F80B
S214005A80A4305EB9844A3346114652F8040B88B9EE
S214005A906422207800FB027241F823202378013329
S214005AA02370CEE60133D0E70133042B02F1A802BF
S214005AB0DBD1E6E70133042BE7D1EFE70AF101007B
S214005AC000F04CFD07460AF1030030F04BF90121C7
S214005AD00246384630F002F960216A486A4C02787D
S214005AE0DFF898C15143631867524FF44871198222
S214005AF059616C495D8399659AF80310A827642953
S214005B0004BF012199709CF80030DFF874E15F4310
S214005B100EEB07010EF807304FF400774F8003278F
S214005B200F718F7102EB420704EB47148C6032242E
S214005B300133DBB201324B7181F8A04002708CF861
S214005B4000307EE60AF1010000F008FD00224FF06A
S214005B50380B80464FF00109534F114630F0BEF81F
S214005B603B78524C0BFB03F3E21824F8038082F8D0
S214005B7004909AF80330692B15D10023137158222C
S214005B80464947480B785A4300EB020C8354387852
S214005B900133C0EBC00204EBC204421CCCF84C40FC
S214005BA03A700B704DE6002BE9D00AF1030000F0C6
S214005BB0D5FC00228046114630F090F83B780BFB6F
S214005BC00343A3F8028083F80690D8E70AF10100A1
S214005BD000F0C4FC07460AF1030000F0BFFC0446D0
S214005BE00AF1050030F0BEF880460246012138462C
S214005BF030F074F842462046012130F06FF86020FD
S214005C00DFF880E0204A9EF80030DFF8988000FB3E
S214005C1003FC02EB0C0122F80C704FF4487C4D8319
S214005C20A1F810C0C1F814C0C1F85880591CC9B2F8
S214005C304843145294241718A7F810C0C7F814C085
S214005C407D83C7F858801A4F981C8EF80000387865
S214005C50DFF860C0444303EB430301EB41010CEB68
S214005C60040E02EB431302EB41120CF80400CEF8CC
S214005C700430CEF8082001303870E2E5F6620020E5
S214005C8084210020F862002060260020115C0300BA
S214005C90F9620020802A0020106D0020F5620020A6
S214005CA0741F002019550000F762002030240020E1
S214005CB0F4620020B81D00200AF1010000F04EFC3E
S214005CC080460AF1030000F049FC00220746114610
S214005CD0404630F003F800223824114638462FF0AC
S214005CE0FDFFC248C24A03784FF0000E04FB03FCD7
S214005CF022F80C804FF0010802EB0C0181F806E058
S214005D0081F8048003EB0801C9B24C4302EB040C93
S214005D1017539C1C04707024B64F8CF806E0387835
S214005D208CF804804443DFF800C3C3EBC303C1EB25
S214005D30C1010CEB040E02EBC30302EBC1020CF82C
S214005D400400CEF80430CEF80820404494E79AF8D1
S214005D500130502B75D15146A74815F0A9F90AF124
S214005D60020000F0FBFB07460AF1040000F0F6FB19
S214005D7080460AF1060000F0F1FB4FF6FF739F42E3
S214005D8081463FF45EAD98453FF45BAD98423FF4E4
S214005D9058AD0346424639469848FFF7CFF90446C1
S214005DA000287FF44EAD0AF1080A562150462FF01F
S214005DB031FF4121039050462FF02CFF5721834698
S214005DC050462FF027FF039B82461A78562A03D1A7
S214005DD0581C2FF04FFF04469BF80030412B2BD168
S214005DE00BF101002FF046FF83469AF80030572B40
S214005DF025D10AF101002FF03DFF03465A46214601
S214005E007E48FFF7F7F97D482FF033FD7C4C0146BE
S214005E1020607C4801F0B0FB21687B4830F0A6FA91
S214005E2001237A4A39461370794A7A4813704B46EA
S214005E30424615F03DF904E54FF0000BD5E7002388
S214005E40DCE7422B7FF4FDAC51466B4815F030F989
S214005E500AF1020000F082FB07460AF1040000F097
S214005E607DFB4FF6FF739F4280463FF4EAAC9842B4
S214005E703FF4E7AC0AF1060A532150462FF0CAFE5B
S214005E8003788B4253D101302FF0F4FE034642468E
S214005E9039466148FFF7E8F8044600287FF4D1AC9D
S214005EA0562150462FF0B6FE4121834650462FF02D
S214005EB0B1FE5721814650462FF0ACFE9BF80030CD
S214005EC08246562B04D10BF101002FF0D3FE044678
S214005ED099F80030412B2DD109F101002FF0CAFEB0
S214005EE081469AF80030572B27D10AF101002FF08F
S214005EF0C1FE03464A4621464748FFF70FF9464883
S214005F002FF0D5FB3E4C014620603E4801F034FBA6
S214005F1021683D4830F02AFA01233C4A394613707E
S214005F203B4A3E481370424615F0C2F889E44FF4E7
S214005F309653ACE74FF00009D3E70023DAE74F2C7F
S214005F407FF47FAC9AF801304C2B7FF47AAC2F4B61
S214005F501B78002B3FF475AC0AF1020A4321504629
S214005F602FF058FE0446502150462FF053FE23785B
S214005F700746432B15D1601C2FF07CFE84B23B787D
S214005F80502B10D1781C2FF075FE82B22146244883
S214005F902FF06FFD1B4B2348B3F86620B3F85A105A
S214005FA0C2E70024EBE70022F0E790F805C00134D2
S214005FB08C4584BF05714571A830FFF77CBBBBF1EB
S214005FC0000F07D019F8053C03EB430304EB8304EA
S214005FD0C9F808404946384602F0B4F90BF1010BFF
S214005FE0A83709F10C09FFF79BBB00BFF76200203A
S214005FF030240020F3620020F4160400D819002094
S214006000281900207417002008100020F1620020D4
S214006010F2720020221704002C19002051170400E9
S214006020CC17002075170400681C00203178C919A9
S2140060300AD0481E0BFB0090C07900EB400004EB32
S21400604080040BFB0190846018460BFB01510493FF
S21400605001F0FEFE3178234839440BFB015101F074
S2140060600FFD049B01375833FFF773BB1BEB030F81
S214006070CDE904134FF094031FBF11F8050C00EB95
S214006080400004EB80048C6003FB0B2001F0B0F9A9
S2140060900499059B0BF1010B0C31FFF770BB18EB55
S2140060A0060F18BF1BF8053C59461CBF03EB4303FD
S2140060B004EB830409FB08A018BFCBF8084001F0E6
S2140060C06DF808F101080BF10C0BFFF76DBB13F828
S2140060D0011D00297FF49BAB3B2102F8011CFFF752
S2140060E096BB00BF2424002008B5094B1B786BB173
S2140060F0084830F0CAF8074830F037F9064801F08B
S21400610089FDBDE80840044830F042B908BD00BF2C
S214006110F1620020741700200810002008B5064B16
S2140061201B783BB105482FF0ACFBBDE8084004489F
S21400613030F0ABB808BD00BFF1620020D8190020CF
S2140061407417002007B5012121200DF1070200F089
S2140061501DFA18B99DF80720024B1A7003B05DF8B7
S21400616004FB00BFF372002007B5064B8DF807004E
S214006170187001210DF10702212000F017FA03B074
S2140061805DF804FBF372002007B5022101200DF133
S214006190060200F0FBF938B9044814F089FFBDF890
S2140061A0060003B05DF804FB0020FAE710180400B0
S2140061B007B50221ADF806000DF10602012000F039
S2140061C0F5F9014610B1034814F072FF03B05DF80C
S2140061D004FB00BF3118040010B5FFF7D5FF0446D6
S2140061E00146074814F064FF0121064814F060FFDA
S2140061F024B9BDE810400120FFF7DABF10BD00BF8C
S214006200611804007318040008B5044814F050FF21
S21400621000F0DCF92FF0C9FD2FF0C4FD891804004A
S21400622038B50446084D094B28462B6000F0BAFAEC
S214006230002C18BF21462846BDE8384008BF4FF45A
S21400624096712FF0BCBD00BF742C0020935C030039
S2140062502DE9F043384D91B008AC07468946904684
S2140062600FCD0FC495E80F00002684E80F00012527
S2140062700323324C3248CDE90366CDE905668DF836
S2140062800E30079602953AF0F9FD2E483AF0F6FDE4
S21400629032462D4920468DF8176005F07BF93346C7
S2140062A032462A498DF81900009020468DF8239032
S2140062B0CDF82C808DF8216005F086F90A902046EE
S2140062C08DF8097005F0E8F8204608AA05A905F03B
S2140062D0A1F902AA204603A930F076FF4FF4007217
S2140062E01B4B5A62194BE560626A920510D46BB973
S2140062F04FF40072164B11485A6205F0CDF811485B
S2140063003AF0BFFD002011B0BDE8F083013BEBE79B
S214006310002BEDD0094908A830F089FF4FF4007231
S2140063200B4B06485A6205F0B7F806483AF0A9FD46
S214006330BDF82000E7E700BF70B204000040005A36
S21400634024B5040020B5040080841E0040420F00DF
S2140063500060005A0122034B1870034B1980034B50
S2140063601A707047FB620020AC720020FA620020B0
S214006370F8B5454B1B780BB90020F8BD434B1B788E
S214006380012B03D1BDE8F8402FF086BC404B1C889B
S2140063904FF6FF739C42EFD03E483AF06FFD002365
S2140063A0260AE4B21A462146304605F035F8012E94
S2140063B0354604F0010335D015D9B51E012DDBD8BE
S2140063C0002B0BBF4FF480754FF080754FF4706153
S2140063D04FF070610BBF01274FF480370F204FF44A
S2140063E070202D4B11E0002B0BBF4FF480754FF043
S2140063F080754FF470614FF070610BBF01274FF44A
S21400640080370F204FF47020244B1A6802401CD0AF
S214006410BA421AD01A680A4032D11A6822EA010231
S2140064202A4316E0002B0BBF4FF480754FF08075A3
S2140064304FF470614FF070610BBF01274FF4803747
S2140064400F204FF47020164BDFE71A6822EA00028E
S2140064503A431A602FF020FC054600288CD00836F8
S21400646044EA06102A460321C0B2FFF7F1FE40F6C2
S214006470FF73684300F2FF70B0FBF3F080B27CE776
S21400648095427FF479AFC8E7FA620020FB620020ED
S214006490AC72002024B5040028C3035020C3035068
S2140064A024C3035010B5044C237823B903483AF0AC
S2140064B0E5FC0123237010BDFD62002024B5040016
S2140064C02DE9F0431F4C85B0074688469146FFF7F6
S2140064D0E9FF23781BB902F04FFC012323707BBA37
S2140064E0ADF80C3030220023174E02FB03F4315D6A
S2140064F0A51901BB012333554FF0FF3304F11000FB
S21400650012493044AB606F80C5F80480C5F80C9023
S21400651009F0EAFF04F10801042231440C4B00950F
S21400652003A802F0FFFCA96802460A4814F0C0FD62
S21400653005B0BDE8F0830133102BD6D1064814F021
S214006540B7FDF5E7FC6200209C2C0020BD5C030034
S214006550CF5C030096180400C418040080B10278CB
S214006560A2F14103032B0BD840783038C0B208287C
S21400657006D8054B134413F8413C40EA0320704705
S2140065804FF6FF70704700BF90B2040008B50B4688
S21400659042B101460448006803F008FEBDE8084022
S2140065A02FF0F9BB022008BD7C6D002008B50B4615
S2140065B042B101460448006803F080FFBDE8084089
S2140065C02FF0E9BB022008BD7C6D0020F0B5002648
S2140065D0124F8DB0FF2300930A223346386802A973
S2140065E030F0AFFBC0B102AB1D4603EB800404E005
S2140065F055F8043BB34228BF5E1CAC423868E9D964
S214006600296804F0E1F80028F2D02D28F0D00DB06B
S214006610BDE8F0402FF0BFBB0DB0F0BD7C6D002094
S21400662028B1034B0360034B43600023836070472D
S21400663019000003246D00202DE9F04F00230746C3
S214006640DFF828818B4698F80020424985B022FA68
S21400665003F0C00708D531F81300B84204D15DB284
S214006660284605B0BDE8F08F0133032BEFD112F0BA
S214006670010667D1384C75B294F80090B9F1000F56
S21400668021D10F2249460DF1010015F023FE3F23CC
S2140066908DF80090DFF8C89069464846ADF802309D
S2140066A030F004FE1E2004F027FC4FF47A43B0FBC3
S2140066B0F3F02A4B1860D9F830300123C9F81C00D3
S2140066C0C9F80C3023700D220021684615F002FE32
S2140066D0BBF1000B18BF4FF0010B0323204C6A469A
S2140066E0314620468DF806308DF80AB030F01BFE95
S2140066F0236B00234FF0010A04EB461083664FEA33
S2140067001729184BF9B249EA014032B243F8220081
S214006710154A0AFA06FAD2F84C35484643EA0A03FE
S214006720C2F84C355B46042204F076FE98F800303A
S21400673043EA0A0388F80030064B23F816708FE702
S214006740022697E7910795D55307F9D54FF0FF3501
S21400675086E700BF025C0020FF6200209C2F00201E
S21400676000C0045050C5035000C00350FE62002015
S214006770022810D8084B1B78C340DB070BD5074B05
S2140067801B6803FB0111FF23B1FBF3F1044B1A6BEB
S21400679003EB401319677047FE6200209C2F002011
S2140067A000C00450FF2307B50021044A00930830B8
S2140067B009F01EFE03B05DF804FB00BFB95D0300E0
S2140067C07FB50D4E0D4C33686A4600211046A5690C
S2140067D02D0606D411F0FF0101D003B1984704B08E
S2140067E070BD656A0131102902F8015BEFD1002BFC
S2140067F0EAD09847E7E700BFA02F002000800550AA
S2140068002DE9F0478A46914688B0002A4DD04FF6CB
S214006810FF72904249D0914247D0254A5FFA80F8ED
S214006820070A38460E0A13604146012304225FFA1F
S2140068308AFA204D04F0F0FD01AC30460123022216
S214006840514604F0E9FD0FCD0FC495E8070084E833
S2140068500700002401A91848CDF80C908DF80440D4
S21400686005F0A6F91022154B47EA084746EA0A46FD
S214006870C3F8C475C3F8BC65C3F8AC250423104A36
S2140068800B209364A2F58052D36406F0B9FC0B206B
S21400689006F09AFC0848052130F082FD01222046C9
S2140068A0084B1A7008B0BDE8F0874FF0FF30F9E7E4
S2140068B0A02F002094B204000080055000C00350B2
S2140068C000A005500063002070B5074B04461B78F7
S2140068D04BB141B1054E451814F8011B304630F057
S2140068E06EFDAC42F8D170BD0063002000800550FC
S2140068F010B5074B1B784BB13AF022FA0446FFF767
S2140069005FFF2046BDE810403AF015BA10BD00BF44
S214006910006300200B4604490246086803490978CC
S21400692008B12FF05EBA7047B02F00200263002037
S214006930F7B50C4618B12F2119483AF0F6FA246834
S21400694023685E795F8830463946FFF7E3FFF0B18B
S2140069508568E5B1A089227D3946904291BF002026
S214006960801AA36880B294BF03469B18E27C00900E
S2140069703046A8470138032803D8DFE800F0080FA0
S2140069800B0D0024204633F0E1FD204600E0812078
S21400699003B0F0BD8024F5E79324F3E78724F1E7FE
S2140069A0EC18040007B50B46009205490246054858
S2140069B0097800682FF037FA03B05DF804FB00BFD3
S2140069C002630020B02F002007B50B460092064950
S2140069D002460648097800682FF025FA003818BFE6
S2140069E0012003B05DF804FB02630020B02F0020F6
S2140069F008B5034B1B6803B19847002008BD00BFCD
S214006A00AC2F00202DE9F74F04460D460026454BD7
S214006A10454F1860454B197033010021F85C01366C
S214006A2010F03CFB0C2EF7D10C2D28BF0C254FF098
S214006A30000901953C4EDFF800A13D4DDFF8FC80D3
S214006A40019B4B4502DC03B0BDE8F08F23784FF086
S214006A50000B337063887380A388B380A379C6F86D
S214006A600880B371E379C8F8005088F804304FF016
S214006A700003A768A8F80630E3795B450ADC012125
S214006A8016F8100B10F00AFB08F1080809F10109C6
S214006A900C34D5E74FF0000338886B812880FB78EC
S214006AA04FF0000C2B81BA78C5F804A0002A00929B
S214006AB00CBF802240222A7379680AF10C026345D3
S214006AC013DC03EB43030AEB830ABB6843B1009A6B
S214006AD04FF6FF71B2FA82F2164B520933F0C6FC3B
S214006AE014350BF1010B0C37C6E7B1F800E00CF1DA
S214006AF0010C22F80CEC91F802E00C3202F816ECCD
S214006B0091F804E00C3102F815EC11F809ECBEF12E
S214006B10010F14BF4FF0100E4FF0110E02F814ECD8
S214006B20CDE700BFB02F002084460020026300207F
S214006B30B435002031690000B42F0020343800201E
S214006B40014B1860704700BFA82F002070B5128850
S214006B5005460E46FFF726FF044670B102790499F3
S214006B60806815F009FC064B1B680BB9002070BD49
S214006B703146284622889847F8E78620F7E700BF80
S214006B80A82F002008B50FF025FB022806D0012804
S214006B9006D0044B18784000C0B208BD0120FCE7C0
S214006BA00220FAE701630020054B10B51C682CB1E3
S214006BB0FFF7E8FF2346BDE81040184710BD00BFAA
S214006BC0A42F0020014B1860704700BFA42F0020A0
S214006BD0034B1A781AB901221A700BF001BB7047E2
S214006BE0016300200022024B1A70FFF7DDBF00BFD2
S214006BF00163002037B50446002832D00FF0EAFAC9
S214006C00022830D1608934F01EF8E079237A003803
S214006C1018BF0120012B637A08BF40F008000BB1B3
S214006C2040F0100063890BB140F00400257CA18879
S214006C30A2790DB1E36873B90C4B10F00BFE217806
S214006C40084610F083FE33F00AFB002814BF03202A
S214006C50002003B030BDCDE90035054B10F0FAFD3D
S214006C60EDE70220F5E70120F3E700BFB96804006E
S214006C706837040008B50DF011FC014630B1044831
S214006C8014F016FABDE808400DF0ACBF08BD00BF12
S214006C907A190400024B187C00B11868704700BFD0
S214006CA0106D002030B5C0B100290CBF3020312057
S214006CB0002A0CBF3024312414220023084911F87E
S214006CC0015F3F2D06D1002B14BF25460546013334
S214006CD00D70DBB2013AF2D130BD2D200446EBE751
S214006CE0F4720020034B044A5B7C012103201370DE
S214006CF0FFF75CBC106D00200363002037B5044628
S214006D00FFF7F0FFB4F57F4F27D10025204B1A88F8
S214006D1013449D70FEF7AAFB2846FFF781FA1D4D27
S214006D202A68C2B1FFF7B6FFA8B14FF605739C42BA
S214006D3024D192F841102EF05EFE2B680421B3F8A1
S214006D40422093F841303220ADF8062001AA8DF893
S214006D500430FFF72BFC03B030BD4FF601739C42A6
S214006D6003D10D482EF053FED9E74FF602739C422E
S214006D70D5D10A4B1878FFF7F7F9D0E74FF6067328
S214006D809C42E8D1B2F842102EF03FFED5E700BF95
S214006D90805B002094380020106D0020F3720020E5
S214006DA010B5074C012122460320FFF7EFFB28B958
S214006DB02378044A003B18BF0123537410BD00BF5C
S214006DC003630020106D00207A4BF7B51A884FF643
S214006DD0FF739A4218BF03234FF008020D46764908
S214006DE0044618BF0B70754B36201A7030229A7006
S214006DF05A7137229A714FF4001218717048626403
S214006E00E0647048012220656F483227A0656F480D
S214006E10A618E0656E48E66760666E486E4EA06629
S214006E206E485F7020676E48DF706067202084F8C9
S214006E30780084F8840004F12100C4F888006948CA
S214006E40DF711F72C4F8806084F8482084F85420EC
S214006E5084F8602084F86C20C4F88C0084F89020B5
S214006E60C4F89410C4F8B8305F4B6049C4F8BC301E
S214006E700223C4F898105E4984F8C030C4F8A41001
S214006E8015215C4B84F8A810C4F8C4305A4B5B49F3
S214006E90C4F8C8308223C4F8AC10594984F8CC3002
S214006EA0C4F8B0100921574B574EC4F8D030574B92
S214006EB084F89C20C4F8D430554BC4F8A040C4F8DD
S214006EC0DC30337C84F8B41084F8D820002B6AD0E9
S214006ED0504B84F8E420C4F8E03006F11103C4F8FF
S214006EE0E830FFF7D7FE90F83430002B5DD090F8EE
S214006EF03630042184F84130FFF7CCFE038F01AA18
S214006F003846A4F84230FFF741FB38B99DF8043004
S214006F1084F84130BDF80630A4F84230FFF7BAFED8
S214006F2094F841102EF067FDFFF7B4FEB4F8421057
S214006F302EF06BFD384B10211C60384BC4F8EC303B
S214006F40012384F8F03004F14103C4F8F430344BE4
S214006F50C4F8F830022384F8FC3004F14203C4F885
S214006F6000314FF0000CEA79A86802EB42039F005C
S214006F7000EB830320F807C0D970012144349970D0
S214006F805C605318EB71FFF7DDF8FFF709FFFFF7BA
S214006F90F9FD01280BD1337C4BB11B4803B0BDE88B
S214006FA0F0402EF034BD0D21DBE70E21D9E703B00B
S214006FB0F0BD00BFA4720020097300200463002007
S214006FC0B5B2040001002000B4B2040002002000A4
S214006FD0B3B204000300200005004200B2B2040071
S214006FE00400420007003000FDFF210012001001DF
S214006FF000404200B0B2040000FF4401F4720020DA
S21400700006004200805B0020106D002002FF200179
S214007010F372002001FF10019438002005FF2001C4
S21400702006FF210113B504460D482EF097FA642298
S214007030C0F30F43637083B2B3FBF2F3A078237000
S214007040202201212EF00AFFA078212201212EF015
S21400705005FF0449201D02B0BDE810402EF0AFBE6B
S214007060A4720020E09304000B7870B583704CF691
S2140070701E0303804FF02013C362012380F83030D4
S21400708080F83C30C3180364124B04464364022362
S214007090114A80F84830114B8263C3644063CA7952
S2140070A08D6802EB420305EB830004F12C06466074
S2140070B00B4E45F8236000238360531CCB71094BAD
S2140070C0201DC4E90134FFF76DFB2046BDE8704083
S2140070D0FFF7A8BFFDFF210021002000B6B2040084
S2140070E00100010325700000437B044A0121137050
S2140070F000781130C0B2FFF759BA00BF0E63002007
S21400710038B504460078054D11302A460121C0B234
S214007110FFF73CFA08B92B78637338BD0E6300207E
S214007120024B53F820002EF060BF00BF98380020B6
S214007130012908B506D0022907D049B92EF04CFF20
S214007140002008BD2EF04BFFFAE72EF04BFFF7E7C6
S214007150024813F0ADFF0120F3E700BFA7190400B3
S21400716010B4054C114654F820001A46BDF80430F9
S2140071705DF8044BFFF7DCBF98380020002310B5FD
S214007180044683810364A0F844304830FFF70AFBC6
S214007190014BC4E9123410BDD15F030038B5044674
S2140071A00B781A4A43700D4642F82300FFF7E6FFB5
S2140071B02046FFF7A5FF4FF4401323610123144A2E
S2140071C02375A261134A84F82030E261124A84F8DB
S2140071D02C306262114A84F83830A26204F10C0244
S2140071E022630F4A04F10D036263E363EA79A86839
S2140071F002EB420300EB830110344C60094C40F86C
S2140072002340094B8B60531CEB7138BD9838002027
S2140072100D630020080020000A73002000FF3000E5
S21400722001FF1001020101046171000010B4702416
S214007230427B0D48013A012904FB020006D00229D0
S21400724008D059B95DF8044B2EF0C6BE5DF8044B65
S2140072502EF0C5BE5DF8044B2EF0C4BE03485DF8A4
S214007260044B13F025BF00BF681C0020C3190400A0
S214007270B0F85C302DE9F0418B4204460E4638D01B
S214007280437B077C8BB31C4A12789A422DD3702519
S2140072901A4A013B05FB032390F80F801B7B4246EE
S2140072A02EF0B1FEB845054601D1FF281FD13A465B
S2140072B03146204694F890302EF0A5FE2F4605461F
S2140072C0552212216078A4F85C602EF0C7FDFF2FCF
S2140072D003D039462046FFF7A9FFFF2D09D02946DF
S2140072E02046BDE8F0412EF0CEBEFF25DFE707467C
S2140072F0E6E7BDE8F08100BFF3620020681C0020CE
S21400730041688268C978D27849B112B10321FFF783
S214007310AFBF837B002B0CBF01210221F7E72AB108
S214007320837B002B0CBF02210121F0E7014813F0FC
S214007330BFBE00BFD4190400037BD3B14368DA781C
S21400734012B18268D278A2B91B7933B1837B002B45
S2140073500CBF04210521FFF78BBF83681B792BB177
S214007360837B002B0CBF05210421F4E7014813F0B2
S2140073709FBE7047061A0400084A437B0521137017
S214007380837B5370C37B9370037CD370037B137132
S21400739000780E30C0B2FFF709B900BF0F630020B7
S2140073A038B5044600780C4D0E302A460521C0B28A
S2140073B0FFF7ECF820B1BDE83840084813F078BE77
S2140073C02B7863736B78A373AB78E373EB782374D3
S2140073D02B79237338BD00BF0F630020421A0400C8
S2140073E0024B53F820002EF098BE00BFC038002095
S2140073F0F8B504460B78424A43700D4642F823001F
S214007400404E2EF0A8FEFFF7CBFF6268A3683E480A
S2140074103E49D6641165D4655065C3E91410DE6430
S214007420DC654FF0987302266361012304F10C01BA
S214007430E16137491032216204F10D01A16235493C
S2140074402376E16204F10E016163334984F8243047
S214007450A16304F10F012164304984F8303061647F
S21400746004F11001E1642E4984F83C3084F8483079
S214007470216584F85460A265E879A96800EB4002AB
S21400748001EB820704F1140CC7F804C04FF4817CAA
S214007490244F41F82270C218D2B202EB420241F8E1
S2140074A022C001EB820700227A601F4A84F87030FF
S2140074B022661E4A84F88830A2661D4A1D4BE26684
S2140074C01D4AC4F88C3062671C4A8319A26704F10F
S2140074D05C02C4F88020DBB2194A03EB4303C4F80D
S2140074E0842084F8646084F87C6001EB8302603456
S2140074F05460144A033041F82320E871F8BD00BFF9
S214007500C038002001730000DD60030039730000FE
S21400751001002001020010010300300104003001C8
S2140075200500210101FC01064A002100B8B2040052
S21400753051001000BAB20400BBB20400550021008E
S2140075406F0018001200010400B589B001A92EF0E2
S2140075501CFE084B10210493019B04AA0593029B72
S2140075602C200693039B0793FFF720F809B05DF8DD
S21400757004FB00BF43574C4838B50D460446F8B1E7
S214007580F1B14FF4DA72002114F0A4FE0923A360CF
S21400759001230C4A6382626102F56172A38365600F
S2140075A0A26104F15800FDF7A7FEA36DA367E36D83
S2140075B0E367236EC4F8803094F8683084F884302B
S2140075C038BD00BF640001001FB50446B8B143686B
S2140075D0ABB16A4610212C20FEF7D8FF78B9094BCC
S2140075E0009A9A420BD1DDE90223019960682EF0D9
S2140075F0D4FDDDE902230199034813F059FD04B0D8
S21400760010BD00BF43574C48711A0400F0B504463D
S21400761085B0002800F01481002900F011814FF495
S214007620D813C0F8883000F10803C0F89030854BB6
S2140076300422C0F89430022300F10C05C0F89C50D8
S214007640814D80F88C20C0F8A05000F10E05C0F8DF
S214007650A8507E4D80F89830C0F8AC5000F1100568
S214007660C0F8B4507A4D80F8A430C0F8B85000F195
S2140076701205C0F8C050774D80F8B030C0F8C4503E
S21400768000F11405C0F8CC50734D80F8BC30C0F83B
S214007690D05000F11605C0F8D850704D80F8C830AC
S2140076A0C0F8DC5000F11805C0F8E4506C4D80F8C6
S2140076B0D430C0F8E85000F11A05C0F8F050694D13
S2140076C080F8E030C0F8F45000F11C05C0F8FC501B
S2140076D0654D80F8EC30C0F8005100F1200580F8C8
S2140076E0F83080F80421C0F80851604D80F8102169
S2140076F0C0F80C5100F12805C0F820515C4D00F18F
S2140077002402C0F8245100F12A05C0F82C51594D26
S214007710C0F81421C0F8305100F12C05C0F83851DB
S214007720554D564AC0F83C5100F12E05C0F844515C
S214007730534DC0F81821C0F848512525012280F87D
S2140077404C5100F13005C0F850514E4D80F81C21C8
S214007750C0F8545100F17805C0F85C514A4D80F8E5
S2140077602831C0F8605100F17A05C0F86851474DDD
S21400777080F83431C0F86C5100F17C05C0F87451C3
S214007780434D80F84031C0F8785100F17E05C0F8CE
S2140077908051404D80F85831C0F8845100F1800582
S2140077A080F8643180F8703180F87C3180F8883158
S2140077B0C0F88C5180F8943100F18203C0F89831FB
S2140077C0354B364DC0F89C3100F18403C0F890511B
S2140077D080F8A021C0F8A431CA798D6802EB420374
S2140077E005EB830600F1880777602D4E45F8236089
S2140077F06E46531CCB710B7804F158050370294B69
S2140078001860FFF7E1FE20462EF0FCFC3246102101
S2140078103320676EFEF7BAFE18B996E80F0085E8C3
S2140078200F00284667662EF015FDA36DA367E36D6F
S214007830E367236EC4F8803094F8683084F88430A8
S21400784005B0F0BD05052100080521000B0529003F
S2140078500006210001062100020621000306210081
S214007860040621000506210000FF230001FF230077
S21400787010FF210111FF210112FF210102FF20004C
S21400788020FF420130FF210131FF210132FF21019B
S21400789033FF210134FF210136FF300035FF21017F
S2140078A0040B0118E83800202DE9FF414B4B1C68FB
S2140078B08CB1237883420ED1606860B14FF61273A4
S2140078C099423FD00AD84FF6107399422AD04FF605
S2140078D0117399422FD004B0BDE8F0814FF62073A3
S2140078E0994236D0D03189B20529F4D8A36F04F175
S2140078F05800A365E36FE365D4F8803023662EF066
S214007900A9FC024610213320FEF750FEA36DA367A4
S214007910E36DE367236EC4F8803094F8683084F82B
S2140079208430D8E70021628D2EF025FC0023638585
S2140079300028D0D121E00121A28D2EF01CFC0023CE
S214007940A385F5E70221E28D2EF015FC0023E385E2
S214007950EEE7002394F830504FF00A0C232D28BF92
S2140079602325CDE9013304F1310703939D420DD859
S214007970DDE9022301992EF010FC6068FFF7E4FDB4
S214007980204604B0BDE8F0412EF03CBCFA5C562A16
S21400799014D0572A14D0412A0DD1012100220133D8
S2140079A0DEB2F3B29D420DD804AE013B06EB810178
S2140079B0DBB241F80C2C0133DBB2D7E70021EDE750
S2140079C00221EBE717F806E00136AEF13008B8F111
S2140079D0090FE9D80CFB02E2303AE2E7E83800206B
S2140079E070B50D460646144613460A46014620481C
S2140079F013F05EFB25B92046BDE87040FFF77EB960
S214007A00072D05D121463046BDE8704000F05EBC2B
S214007A104FF601439D4205D121463046BDE87040F1
S214007A20FFF7DEBC062D05D121463046BDE8704086
S214007A3000F0C8B9B5F5817F05D121463046BDE8CE
S214007A407040FFF76DBB40F202739D4205D12146A0
S214007A503046BDE8704000F02FB940F604339D4232
S214007A6005D121463046BDE87040FFF71DBF70BD0A
S214007A70A11A04000148FFF763B800BFE1790000CF
S214007A804FF4C01330B5036001230371074B8C68B5
S214007A908360CA7902EB420304EB830568600448FE
S214007AA044F82300531CCB7130BD00BFBCB20400A9
S214007AB00400010113B5044680B100786A462730F9
S214007AC00821C0B2FEF762FD50B9DDE9002309487F
S214007AD0C4E90223C4E9242313F0EAFA02B010BD75
S214007AE0002200230448C4E90223C4E9242313F037
S214007AF0DFFAF3E7D41A0400FF1A040070B50D4647
S214007B000446002858D0002956D00B7804F12006E9
S214007B1003702A4B1860FFF7CDFF4FF4141323624F
S214007B20082304F110026263254A84F82430A26315
S214007B3004F111022264234AE31862640422A36259
S214007B40214B84F84820E362012384F8542004F192
S214007B501802A2651D4A04F11401E26504F11C0234
S214007B6062661B4AE164A26604F11D022267194997
S214007B70194A84F8303084F83C3084F8603084F851
S214007B806C3084F8783004F11E0321656267E36781
S214007B90EA79A96802EB420301EB830046600F48CE
S214007BA041F82300531CEB712978D4E902230C48D2
S214007BB0BDE8704013F07CBA70BD00BFEC38002002
S214007BC0000330000103220000021800030318001F
S214007BD0060318000203220000F020010207010835
S214007BE02D1B040013B5044678B1D0E902230078B3
S214007BF0CDE9002327306A460821C0B2FEF7D6FC3E
S214007C00D4E90223024813F053FA02B010BD00BFB5
S214007C105E1B040030B5044689B040B3436833B3F6
S214007C201A6822B1126812B1586801A990479DF8E7
S214007C301030E3B10399D4F880208A4207D8D4E9FB
S214007C4002308A1A9B1840F10000C4E90230C4F8DA
S214007C5080102EF0BDF8D4F88430064AC31A93423A
S214007C60054604D92046FFF7BDFFC4F8845009B086
S214007C7030BD00BFDF93040010B50446C0B100233A
S214007C8000220021C0E90223C0E924234368C0F88B
S214007C9080102BB11A681AB152680AB1586890471A
S214007CA02046FFF79FFFBDE81040024813F000BAD9
S214007CB010BD00BF861B0400B1F5704F034607D108
S214007CC0044A106820B102789A4201D1FFF7D4BF67
S214007CD0704700BFEC38002038B50024044D55F836
S214007CE0040B08B12EF055FB01340A2CF7D138BD31
S214007CF0F0380020042908B50AD172B16BB11378A8
S214007D001BB92EF071FB002008BD2EF063FBFAE7CE
S214007D10034813F0CDF90120F6E70320F4E700BF8F
S214007D20A71B040010B4054C114654F820001A4650
S214007D30BDF804305DF8044BFFF7DCBFF0380020D8
S214007D400229024608B50ED004D839B910462EF0DE
S214007D504BFB06E04029F9D0412907D110462EF00A
S214007D6039FB002008BD2EF049FBFAE7024813F065
S214007D709FF90120F6E700BFC71B040010B4054CAE
S214007D80114654F820001A46BDF804305DF8044B3E
S214007D90FFF7D6BFF0380020C26C094B52791A7034
S214007DA082785A70C2789A70026D12B190F8542098
S214007DB0DA70007804210930014AC0B2FEF7F6BB3B
S214007DC014630020024B53F820002EF05ABB00BF6D
S214007DD0F038002038B504460078084D09302A46A9
S214007DE00421C0B2FEF7D2FB30B96B78A370AB7833
S214007DF0E370EB7884F8543038BD00BF146300207D
S214007E0038B504460078114D09302A460421C0B220
S214007E10FEF7BCFBC8B9A3782A78022B0CD004D88E
S214007E2063B920462EF0E0FA01E0FF2B0AD0204688
S214007E30BDE838402EF0ADBA002AF2D120462EF02A
S214007E40C9FAF4E7002AF9D1EBE738BD146300203D
S214007E50F8B504460B783D4A0D4642F823004370B9
S214007E60FFF7B8FFE36C3A4A5C631A632046FFF7F5
S214007E70C7FF20462EF08DFA4FF48013012663606C
S214007E80E36C26720533E360324B26752361A31C30
S214007E90A361236D002B54D02F4A84F82060E26142
S214007EA0E21C62622D4A84F82C60A26204F154023D
S214007EB0226393F83420002A45D093F836202046D3
S214007EC084F855201B8FA4F856302EF0A1FA94F8AB
S214007ED05510206D2DF08FFDB4F85610206D2DF046
S214007EE094FD1F4B84F83860636304F15503E36325
S214007EF01C4B06262364022384F8443004F1560300
S214007F00A3640627EA79A96802EB420321F82370E6
S214007F1001EB830001238370134B04348360531CEE
S214007F204460DBB2114C03EB4303C67041F82340B8
S214007F3001EB8300002343600D4B02328360EA713D
S214007F40F8BD0226DDE70426DBE700BFF038002098
S214007F505F6403000340300101FF300102FF10019F
S214007F6003FF200104FF21017D7D000008000100C1
S214007F70257D000028B1034B1B78834234BF0020C8
S214007F8001207047F562002070B500250A4C0B4EA4
S214007F903378AB4200DC70BDD4F8A42042B123791C
S214007FA01BB16079FFF7E6FF10B910462DF0F4FC20
S214007FB00135A834ECE700BF84210020F6620020DB
S214007FC008B5427901461046FFF7D4FFB0B1CB782A
S214007FD058210B48013A042B01FB02000ED8012B56
S214007FE008D81BB9BDE808402EF0F4B9BDE8084033
S214007FF02EF0FAB9BDE808402EF000BA08BD00BF62
S214008000741F002008B5427901461046FFF7B2FFFC
S214008010B0B1CB7858210B48013A042B01FB020083
S2140080200ED8012B08D81BB9BDE808402EF0DCB9E5
S214008030BDE808402EF0CEB9BDE808402EF0DEB907
S21400804008BD00BF741F002010B586B00446FEF7BA
S21400805099FD012831D1E17804292ED8DFE801F016
S21400806014333503030062791046FFF783FF60B3CD
S2140080705820174B013A00FB0233DB6C0329587972
S2140080801DD1003818BF012063784FF480728DF838
S21400809004304FF48273ADF806300623ADF808308E
S2140080A001238DF80B3000238DF80A0001A8CDE9D6
S2140080B003238DF81430FEF79DFD06B010BDB0FA10
S2140080C080F04009E0E70020DEE70220DCE700BFA2
S2140080D0741F002010B586B00446FEF753FD012835
S2140080E031D1E278042A2ED8DFE802F014143303E4
S2140080F0030061790846FFF73DFF50B35820164B42
S214008100013900FB0133DB6C032A5B791DD11A1E93
S21400811018BF012263788DF80A208DF804304FF4DA
S2140081208273ADF806300623ADF8083001234FF40D
S21400813080728DF80B30002301A8CDE903238DF85B
S2140081401430FEF757FD06B010BDB3FA83F252099D
S214008150E0E70222DEE700BF741F002010B586B0FD
S2140081600446FEF70FFD012812D16378094A8DF800
S21400817004304FF48273ADF806304FF48073CDE9C7
S2140081800223002301A804938DF81430FEF732FD75
S21400819006B010BD0800070110B586B00446FEF70D
S2140081A0F1FC012820D16278104B8DF804204FF4A2
S2140081B0827294F8A01094F8A10059701870ADF867
S2140081C0062004934FF480720223094901A88DF813
S2140081D01430CDE90212FEF70DFD94F8A130013BF4
S2140081E018BF012384F8A13006B010BD1863002024
S2140081F00800050110B5837804460BB30379022BFB
S2140082000BD142791046FFF7B5FE30B158200D4B22
S214008210013A00FB02302EF0F1F8A379022B02D1CE
S2140082202046FFF711FF2046FFF7B6FF02236078CF
S214008230A4F86C305522BDE8104012212DF00EBE79
S21400824010BD00BF741F00204388094A0821138010
S2140082508388538083681B8A938090F8A03093713C
S2140082608379D37100780430C0B2FEF79FB900BF9F
S214008270085C002038B50D4604460178114812F017
S21400828017FF4FF602739D420ED10F4B1B782BB98A
S21400829063712046BDE83840FFF7D6BF62790AB161
S2140082A09342F6D20123F3E7B5F57F4FF1D120468E
S2140082B02EF07EF9A378022B0CBF01220022A368C1
S2140082C09A70E6E7E31B0400F5620020024B53F8C1
S2140082D02000FFF7CFBF00BF1839002038B504468E
S2140082E00078144D04302A460821C0B2FEF74EF935
S2140082F020B1BDE83840104812F0DABE2B88638003
S2140083006B88E978A380AA88A3681A82AB7984F878
S214008310A030EB79A371094B1B780BB9637138BD9C
S21400832009B19942FBD9064812F0C2FE2378013300
S214008330F4E700BF085C0020FD1B0400F562002087
S214008340261C0400F8B504460B78474A0D4642F84A
S21400835023004370FFF7C2FFA268444BD465D36482
S214008360434B02265365434BA11C13654FF4401341
S214008370E36001236161E1623F49103221632265B7
S214008380211D3E4AA1633E483E49626504F1A002B3
S214008390A061E163E265E01C611D3B4A2062616406
S2140083A03A483B492266A21D2374237784F8283076
S2140083B084F8343084F84030A16484F84C6084F843
S2140083C0583084F864306062A266E879AA6800EBE8
S2140083D0400102EB810704F10C0CC7F804C04FF013
S2140083E0060C2C4F42F82170C118C9B201EB4101AE
S2140083F042F821C002EB810700217960264F84F8FD
S21400840080302767254F84F89830A767244F254B80
S214008410E767254F84F8746084F88C60C4F89C3055
S21400842004F16C06831CC4F88470C4F890601F4F77
S2140084301F4EDBB203EB4303C4F89460C4F88870A5
S21400844002EB83067034746008261A4C42F8234008
S214008450C31CDBB203EB430302EB8304043042F895
S21400846023606160E871F8BD1839002007650300D5
S21400847051650300F581000001FF300104FF200173
S2140084801000300102FF200105FF300100FF30011F
S21400849003FF2101070001084A002100BEB20400C4
S2140084A051001000C0B20400C1B204005500210003
S2140084B06F0018001200010400239B6AB3F5804F7A
S2140084C003D21968064A914203D0002303708360E2
S2140084D07047012202709A689B694260F7E700BF06
S2140084E007B0CD5E024B034A1A602FF01ABD00BFDC
S2140084F00000002002020FF073B53F4B04461A78C6
S2140085001AB102221A7002B070BDCDE9002200280E
S214008510F9D001261E7038F013FC384D384B186021
S21400852017F0A8FB2B785BB902F0F2F940B9354892
S2140085300823354A3549006801F038FE00B92E7028
S214008540334B5A68E260334A9A601A6E22605A6E5B
S2140085506260D3F87021A2601B6E5C042CD52E4A94
S214008560D368D807FCD42D4B1A68531C29D04FF477
S214008570801393402A4A13660423294C4FF0804206
S21400858023664FF480632366102323664FF400535C
S2140085906846236601A9226663662EF021F8009BD2
S2140085A02366019B63662B78002BACD0164B1A68AB
S2140085B022665B686366A6E71A4AD368D907FCD4C6
S2140085C0D1E7194B1B78002BD6D1184B5A68144BA1
S2140085D012B94FF480121A66154A526812B94FF44F
S2140085E000121A66134B5B68002BC5D14FF480024D
S2140085F00B4B1A66C0E700BF1B6300201C630020FD
S214008600503900207C6D002054390020007108008D
S2140086100080004455CEAC0000000440486D0020A9
S21400862000900044000004501A63002000800550AB
S21400863000C005500000065038B5224D04462B7881
S214008640012B02D001232B7038BD0028FCD02DF062
S214008650ECFF013009D02DF0E8FF40F201139842FC
S21400866003D0194AD368DB07FCD42268174B1A6676
S21400867062685A66A268C3F87021E268D40744BFED
S21400868000229A60124B1A68013213D1114A1278EE
S21400869082B911494968C80748BF1A600F4A52682C
S2140086A0D10744BF01221A600D4A5268D20744BF60
S2140086B002221A6017F0E6FA0A4B186838F03BFBFD
S2140086C00023C0E71B630020000004400080004435
S2140086D0486D00201A6300200080055000C0055039
S2140086E0000006505039002070B50024A36AB3F588
S2140086F0804F23D21A68134B9A421FD1124E3378FA
S21400870013F0FD0518D14FF480341048FFF7F4FE3F
S214008710032004F075FD0E4B0320DC6004F054FDCE
S2140087200C4B1C61AB6ADB69984704460748FFF7A9
S21400873083FF0CB901233370204670BD4FF481745B
S214008740FAE700BF07B0CD5E1A630020403900206C
S21400875000A000440090004413B5204B1B7803B9DA
S214008760FEE700231E4CCDE900336A4608231D4968
S214008770206801F01BFDF8B91B4AD2F84031D2F848
S21400878040211F2B4FF0010311D9203A9340019A44
S2140087901A43019208236A461249206801F08EFEA9
S2140087A0124B134A1A602FF0BCFB02B010BD934068
S2140087B0009A1A430092EDE72D28F1D10A4AD2F822
S2140087C04031D2F840211F2B4FF0010385BF203ADD
S2140087D093409340019398BF0093DBE71B63002010
S2140087E07C6D00200071080000800044000000201E
S2140087F00B020FF038B50025AB6A0446B3F5804F80
S21400880010D21B6BB3F5804F0CD20748FFF774FEEF
S214008810AB6A20461B6B5B689847BDE83840024849
S214008820FFF70ABF38BD00BF5C39002013B500242F
S214008830A36A0190B3F5804F13D21B6BB3F5804F3C
S2140088400FD20948FFF758FEA36A01211B6B01A847
S2140088509B69984704460448FFF7EEFE204602B0A0
S21400886010BD4FF48174F9E75C39002070B500261E
S214008870B36A0446B3F5804F0D4612D21B6BB3F5B0
S214008880804F0ED20848FFF737FEB36A20461B6BB0
S21400889029469B69984704460348FFF7CDFE2046C5
S2140088A070BD4FF48174FAE75C39002070B500267D
S2140088B0B36A0446B3F5804F0D4612D21B6BB3F570
S2140088C0804F0ED20848FFF717FEB36A20461B6B90
S2140088D02946DB69984704460348FFF7ADFE204665
S2140088E070BD4FF48174FAE75C390020F8B50027B4
S2140088F0BB6A0446B3F5804F0D46164611D21B6B75
S2140089007BB10948FFF7F8FDBB6A20461B6B324671
S21400891029465B6A984704460348FFF78DFE2046C3
S214008920F8BD4FF40174FAE75C39002070B50026F4
S214008930B36A0446B3F5804F0D4612D21B6BB3F5EF
S214008940804F0ED20848FFF7D7FDB36A20461B6B50
S21400895029469B6A984704460348FFF76DFE204663
S21400896070BD4FF40174FAE75C390020F0B50027BB
S214008970BB6A0446B3F5804F0D461646ADF5337D0B
S21400898020D21B6BB3F5804F1CD21048FFF7B4FD06
S214008990BB6A20461B6B40F2C1225B6A01A998475E
S2140089A0044630B10948FFF747FE20460DF5337DF3
S2140089B0F0BD836A32461B6B2946DB6A01A89847DE
S2140089C00446EFE74FF40174EFE700BF5C39002080
S2140089D010B50024A36AB3F5804F10D21B6BB3F515
S2140089E0804F0CD20748FFF787FDA36A1B6B1B6BF3
S2140089F0984704460348FFF71FFE204610BD012493
S214008A00FBE700BF5C390020F0B58FB0044601A834
S214008A100E461546FFF7EEFE9DF80C30012B12D1E0
S214008A20B5F5402F27D8B4F5402F24D86319B3F5F1
S214008A30402F20D821462A46304613F0DBFD00247E
S214008A4020460FB0F0BD0027BB6AB3F5804F15D2A5
S214008A501B6BB3F5804F11D20A48FFF74DFDBB6A7A
S214008A602A461B6B314620465B6B984704460548F2
S214008A70FFF7E2FDE4E740F20244E1E740F20114CA
S214008A80DEE700BF5C390020F0B58FB0044601A8D1
S214008A900E461546FFF7AEFE9DF80C30012B1FD193
S214008AA0B5F5402F06D8B4F5402F03D86319B3F5B3
S214008AB0402F13D940F2024420460FB0F0BDE258D2
S214008AC0013225D104339D42F9D82A463146204644
S214008AD02DF0DBFD0028EDD00024EDE70023F2E7C3
S214008AE00027BB6AB3F5804F15D21B6BB3F5804FDA
S214008AF011D20A48FFF700FDBB6A2A461B6B3146B7
S214008B0020469B6B984704460448FFF795FDD3E73D
S214008B1040F20344D0E740F20114CDE75C39002070
S214008B2070B58EB0044601A80D46FFF763FE9DF8AB
S214008B300C30012B22D144EA0503C3F30C03002BAF
S214008B4033D1B5F5402F04D940F2024420460EB08A
S214008B5070BDB4F5402FF7D82544B5F5402FF3D8AF
S214008B60204604F500542DF089FDAC4202D00028C2
S214008B70F6D1E9E70028E7D00024E7E70026B36A45
S214008B80B3F5804F14D21B6BB3F5804F10D20A4852
S214008B90FFF7B2FCB36A29461B6B2046DB6B98478F
S214008BA004460548FFF748FDD0E740F20444CDE709
S214008BB040F20114CAE700BF5C390020BFF34F8FB4
S214008BC00549064BCA6802F4E0621343CB60BFF364
S214008BD04F8F00BFFDE700BF00ED00E00400FA0580
S214008BE070B5D0B1C9B10E4E431E013913F8014F0E
S214008BF02046325D02F00302012A11F8012F08BF59
S214008C0004F12000B55C05F00305012D08BF2032F5
S214008C10801A01D1002CE9D170BD0120FCE700BF0D
S214008C2021DA04000348044A0449121A92102DF06F
S214008C3078BD00BF34410000D0420000606A0020CA
S214008C4008B5154B83F30A8800F030F8FFF7EAFF03
S214008C50124B13498B4212D30020124B12498B42FF
S214008C6018D3FCF73FF8186850F82240586840F8C8
S214008C702240013298688242F5D30C33EAE700229C
S214008C80F8E71C6844F8220001325C68A242F8D378
S214008C900833E4E70022F8E708000020E0FE0400BE
S214008CA0ECFE0400ECFE0400ECFE0400124B134A3B
S214008CB070B59A60D3F88820114D42F47002C3F85C
S214008CC088206FF0010205F50054226641F2FF721B
S214008CD062660222C3F8D020BFF34F8FBFF36F8FB8
S214008CE04FF44036032004F08BFA0320E66004F0CD
S214008CF06BFA2E6170BD00BF00ED00E00040000082
S214008D0000800044014B1860704700BF506D002083
S214008D10054B1860054B1B6F03F00703032B01D1AF
S214008D2036F0C0B8704700BF586D00200080005075
S214008D302DE9F04104464FF001080C250D4E0CB904
S214008D40BDE8F08194FAA4F0B0FA80F00F2808FA93
S214008D5000F2C8BF103824EA0204CABF05FB00624E
S214008D6005FB0062B4325768002FE8D09168C0B2A5
S214008D70B847E4E76C39002008B50C4838F07EF8B0
S214008D80192004F02FFA28B1192004F039FA192016
S214008D9004F01AFA1A2004F025FA28B11A2004F072
S214008DA02FFA1A2004F010FA002008BD24B504009B
S214008DB02DE9F0410E461746054618B30F2923D86D
S214008DC00378DBB1013BDBB2022B19D8104AD35C27
S214008DD06A78D340DB0717D50E4BD3F81043ACB9EF
S214008DE037F0AEFF80463A462846314602F068FF26
S214008DF0404637F0A0FF2046BDE8F0817F23E7E736
S214008E000023E5E72224F6E72124F4E70224F2E72C
S214008E1014B3040000C0035010B5044610B3037822
S214008E20E3B1013BDBB2022B1AD8104AD35C62785E
S214008E30D340DB0718D537F083FF0122617823780B
S214008E408A4030214B4341F2100103F1A04303F561
S214008E5070335A5037F06FFF002010BD7F23E6E7CF
S214008E600023E4E72220F8E72120F6E714B3040005
S214008E7010B5044610B30378E3B1013BDBB2022B16
S214008E801AD8104AD35C6278D340DB0718D537F07F
S214008E9057FF0122617823788A4030214B4342F203
S214008EA0100103F1A04303F570335A5037F043FF27
S214008EB0002010BD7F23E6E70023E4E72220F8E742
S214008EC02120F6E714B3040038B50D46044618B35F
S214008ED011B30378E3B1013BDBB2022B1AD8104A78
S214008EE0D35C6278D340DB0718D537F029FF3022F1
S214008EF02378534303F1A04303F570335B6962782C
S214008F00D34003F001032B7037F015FF002038BD67
S214008F107F23E6E70023E4E72220F8E72120F6E7B0
S214008F2014B304002DE9F0410D4616469846044653
S214008F3000284FD000294DD00178002940D04B1E84
S214008F40DBB2022B3ED8254AD25C6378DA40D207E1
S214008F5001D4FF2940D1022E01D9042E3CD137F08E
S214008F60EFFE23780746FF2B05D0324620462968B9
S214008F7002F0ECFE28602B68013309D12378FF2B22
S214008F8006D1174B6078D3F824142EF03AFA2860EE
S214008F9029684B1C18D00C23124A03FB0122069B9F
S214008FA0C2F8048093602378FF2B04D001230E4A76
S214008FB08B40C2F82434384637F0BDFE002007E068
S214008FC07F22C2E70022C0E7384637F0B4FE2D20E5
S214008FD0BDE8F0812220FBE72120F9E714B3040066
S214008FE000C003506C39002000D0035008B502F0D2
S214008FF05DFE044B00F05530C3F82004BDE8084081
S214009000FFF796BE00E0035008B502F04FFE044B93
S21400901000F0AA30C3F82004BDE80840FFF788BE79
S21400902000E003502DE9F04F144605460E469B46D9
S214009030C36B87B001225B6902A960689847EB6B37
S21400904001225B6903A93046984702A82DF068FF05
S214009050074648B10023A37563754FF0FF33A3603E
S214009060002007B0BDE8F08F03A82DF066FF0123AF
S214009070A375237E04EBC303DE611F846368B342DB
S2140090800ED1206003A82DF07AFF4FF0FF33207535
S214009090A360237D043B022B26D80023A375DFE7BD
S2140090A023681A1A53425341A37503A82DF067FF8D
S2140090B0237D834218BFA77503A82DF042FF0746FD
S2140090C002A82DF03EFF874218BF002303A818BF52
S2140090D0A3752DF03EFF074602A82DF03AFF874203
S2140090E01CBF0023A375D4E703A82DF02AFF80B188
S2140090F0EB6B022230465B6904A9984704A82DF062
S2140091002FFF0346207D032839D8DFE800F03838E3
S214009110040903A8F3E7CC22237E04EBC3031A84D6
S21400912001F06EFC109B187003A8277E2DF0FDFE44
S21400913004EBC70787F82200237E03A804EBC303CB
S214009140B3F8209093F822702DF0FBFE804603A81B
S2140091502DF0FFFE8246B8F1000F15D0EB6B022211
S21400916030465B6904A9984704A82DF0BEFE6075DA
S214009170637D6BB90023A3754FF0000838E0227EAC
S21400918004EBC2021384CBE703A82DF099FEEEE7AA
S21400919094F81680B8F1000FEED0B9F1000F09D19F
S2140091A0DFB10123E375637E002B4FD1012F42D13F
S2140091B0677614E06B6C06EB0A015A4286EA0100F9
S2140091C010421CBF0022A2755A1E0A409B1A9945DF
S2140091D0D0D8A37D002BE3D1CEE7E37D43B94FF093
S2140091E000084B465246314628462DF0E4FBA06068
S2140091F0A27D12B123694B4423611A49237E097864
S21400920099422AD901332376BBF1000F27D032B317
S214009210E37D23B3B8F1000F21D1032F1FD0A1683F
S2140092204B1C1CD0109B2246009328460123FFF7B8
S214009230F9FEA07513E095F8343063B9EB6A013394
S214009240CFD1032FCDD10123A376C8E7012FCFD0EE
S214009250032FC4D1F7E79846C3E70023A375A07D84
S214009260FFE600BF38B304002DE9F04F0E469846DF
S21400927000238BB004464FF0FF31104617468DF89A
S214009280133001F0A7FBB6F5801F20D2314605AAA1
S21400929004F108002DF096FD451C014603D1237C01
S2140092A0BBB92D2010E0384601F094FB0122394668
S2140092B020460DF113032DF0D0FB0028EFD09DF8CB
S2140092C0133088F8003000200BB0BDE8F08FB01CDB
S2140092D0E5D1E56A691C36D12046616A2DF0B1FAFF
S2140092E00546B31C18BF0123DFF8CC900193636AD0
S2140092F0626C0293236805A902FB053AE36B05221C
S2140093005B695046984705A82DF0A5FE2DF0C8FECF
S21400931050462DF0D0FE4FF0000B824601464B1C07
S21400932005D0636C81EA0A025B42134211D02946DB
S21400933020462DF086FA029BAB422CD0BBF1000FE4
S2140093402CD10546D3E72368ED1A636CB5FBF3F51D
S214009350C7E7484601F03EFB0DF113034946204699
S214009360019A2DF07AFB034690B1B21C03D0D9F8CF
S2140093700020B2420CD19DF8132003930D4B88F8C1
S214009380002049461A68384613F034F9039B9B467A
S214009390D9F80810C3E7BBF1000F82D0B6F5801FDE
S2140093A091D2314698F800307A6804F1080001F04E
S2140093B03FFA88E734B30400484100202DE9F34122
S2140093C00446174698460E46184D816AE36A8B4255
S2140093D001D04B1C02D102B0BDE8F081284601F056
S2140093E0F9FA0122294620460DF107032DF035FB38
S2140093F038B14346294620469DF80720B84700283E
S214009400E9D0A9684A1C04D1696820462DF0A6FA5E
S2140094100146012EDAD16B6881EA0302636C5B4277
S2140094201A4218BF4FF0FF31D0E700BF1C410020A2
S2140094302DE9F04F4FF0FF334FF6FF72002504463C
S21400944000F10806C0E909238BB0C3620562056314
S214009450304688462DF087FC20462DF0C2F960BBCA
S214009460204641462DF03DFA20462DF0BAF960BB65
S2140094705E200BB0BDE8F08F2368E26B606C576926
S21400948000FB0530052205A9B84705A82DF0E3FD29
S214009490012807460CD1294620462DF0F3F9012F66
S2140094A0024600D10132294620462DF0B9F903E0E4
S2140094B02DF0FBFD0028EED10135E3699D42DBD39C
S2140094C020462DF08EF90028CAD000254FF0FF392F
S2140094D04FF6FF73CA46A846C4E90853E3699845A1
S2140094E00AD3A5EB0905012D2CD84FF6FF72636A47
S2140094F093423CD16720BCE72368E26B606C5769F7
S21400950000FB0830052205A9B84705A82DF0A3FDE5
S214009510834605A82DF076FD074658462DF0C0FD7B
S21400952068B1574538BFC4F82480B94528BFB94646
S214009530BD4238BF3D46BA46236A0133236208F16E
S2140095400108CBE74FF6FF7300256362E3699D428F
S214009550CBD2676C2068E36B052207FB05005B69CE
S21400956005A9984705A82DF04DFD0135EEE7E26BFD
S214009570676C2068694607FB030055690522A84703
S21400958068462DF03FFD626A2368606C4B4D00FB19
S21400959002302DF090FD4FF0FF33A062E3622A46C2
S2140095A06FF00101204605ABFFF75EFE002846D1AE
S2140095B0AD6829462046E5622DF0EFF8206320B915
S2140095C02046E16A2DF0CAF9E062294620462DF0D1
S2140095D0C5F90546A36A9D4233D120462DF0B0F862
S2140095E000278046B946E36999453CD3B84559D922
S2140095F02046616A2DF025F90026054604F1400A4A
S214009600B74212D8626C2368694602FB0539E36BE1
S21400961005225B694846984768462DF0F3FC53469A
S21400962002464946E06B2DF048FD294620462DF0BF
S21400963008F90136B0450546E2D1642019E7A56A67
S214009640B7E7294620462DF0A8F8236B29460344A1
S2140096500746236320462DF081F90546002FB9D131
S214009660C4E90B07B6E7636C2568052203FB0955BA
S214009670E36B05A95B692846984705A82DF0EBFC27
S2140096802DF00EFD58B128462DF015FD014620465A
S2140096902DF083F8636C143B984208BF013709F13C
S2140096A00109A0E730462DF05EFB00232046194650
S2140096B0034AFFF783FE0020DBE600BF744100206C
S2140096C0496A03002DE9F041036B9046826B0768F8
S2140096D09A4288BF8363426C436A90B002FB03776A
S2140096E0C36B0E46052201A95B69044638469847B7
S2140096F001A82DF0B0FC01280146307057D0656CEB
S214009700E26B2368606AD2F814C005FB00300522BD
S21400971006A9E04706A82DF09EFC01284FF000059C
S21400972023D0D4E90A3201219342CDE90B458DF8C6
S21400973034800E958DF83C102AD1194620462DF01F
S2140097400DF9236B626C14339B1AE06223630C9B47
S21400975053B99DF83C303BB1626A616C2368E06B9C
S21400976001FB02312DF02FFC0C9DE36B05225B699B
S21400977001A93846984701A82DF06DFC30702846A0
S214009780236BA26B9A4288BFA36310B0BDE8F0813A
S214009790237C33B91C490BAA04F1080001F096F8A3
S2140097A0D5E72046194A0BABFFF708FECFE7237C28
S2140097B023BB2246164904F1080001F087F8616AC7
S2140097C020462DF05FF8616A421C20462DF028F8EE
S2140097D0054620B9236B626C1344143B2363204672
S2140097E0A16A2DF0BBF82368A062C01A636CB0FBB8
S2140097F0F3F0606220462DF0F4F8B6E7002320462A
S214009800044AFFF7DBFDDAE7699F0000E59E0000EB
S214009810E36A03007F6A030073B50D46D11E4A4211
S2140098201C461B7E4A419A4226D1296823689942E3
S21400983022D3636899421FD8114E0DF107033246B2
S214009840FFF712FDC0B972686B689A4214D19DF892
S2140098500730DA1E53425341227E93420CD163698D
S21400986001336361D4E90323934205D22968A268D1
S21400987042F8231001332361012002B070BD00BFFF
S214009880744100202DE9F04F9B4689B09DF8483082
S2140098909046514A0193136907465B450D46C0F052
S2140098A09580D94653680093B9F1000F7BD0FB6BC7
S2140098B001225B6905A90098984705A82DF03DFB95
