S01B00006275696C642F72656C656173652F7A69676265652E73333714
S21400400008100020BD9900009DE300000131030068
S21400401001310300A5E30000ADE300000131030019
S21400402001310300013103000131030001310300B7
S214004030B1E300009C7B0400013103000131030062
S214004040013103000131030001310300D594000063
S2140040500131030001310300013103000131030087
S2140040600131030001310300B1E800007D240300A4
S2140040700131030001310300013103000131030067
S2140040800131030001310300013103000131030057
S2140040900131030001310300013103000131030047
S2140040A001310300859D0000699D00000131030079
S2140040B0013103000131030001310300993C020085
S2140040C03D8D0300398D0300FD330200538D030040
S2140040D0418D0300593C0200458D03008D200200EF
S2140040E0D93C020001310300013103000131030015
S2140040F001310300013103000131030001310300E7
S21400410001310300013103000131030001310300D6
S21400411001310300013103000131030001310300C6
S21400412001310300013103000131030001310300B6
S2080041300131030051
S214004134F0B5114A114C124E00F00105E3695F0711
S21400414413D40DB9334213D103EA00078F4207D1C3
S2140041540B4A1A40002A14BF6FF001000020F0BD7D
S214004164013AEBD16FF00200F9E74FF0FF30F6E7C3
S2140041746FF00100F3E700BF80969800000003503C
S214004184020001000B4B70B5D96911F480310DD1D2
S21400419401244FF48072084E084DF46020462C64C7
S2140041A41A61FFF7C5FF3464EC6070BD6FF0010060
S2140041B4FBE700BF0000035000100350002003502C
S2140041C438B541F6713301220C4C0021E569E363EE
S2140041D40B4B05F48035DA600223606121202361ED
S2140041E4FFF7A6FF10B92120FFF7A2FF0122054B17
S2140041F4DA600DB10023E36338BD00BF000003504E
S214004204001003500020035070B5134C6061E3693E
S2140042145B071ED40E4656F8043B8D18A361AE42C7
S2140042240BD10423002121202361FFF781FF58B915
S214004234BDE870402120FFF77BBF08210846FFF742
S21400424477FF10B10423236170BD56F8043BA361C5
S214004254E5E74FF0FF30F7E7000003502DE9F84399
S214004264154641F67132164B8946DF69DA63012238
S214004274064603F58053DFF8508007F48037DA608B
S21400428455B9284601220F4BDA601FB10022A3F568
S2140042940053DA63BDE8F88306F5005404EA08041C
S2140042A4A41BAC4228BF2C46494622463046FFF79C
S2140042B4ABFF0028E6D12644A1442D1BE0E700BF4F
S2100042C4000003500020035000E0FFFF45
S2140042D02DE9F04F4FF0FD0BC9B09A460DF11B09C2
S2140042E09DF8503108AFCDF80C90CDF808B0019786
S2140042F0059303890446009383790E4690464188C9
S2140043008288407814F014FA054650B10090A388CD
S214004310002062883A4914F04FFD284649B0BDE8AF
S214004320F08F99F8000032F05BF838B12846A38881
S2140043306288344914F040FD8D25EEE75A4639462A
S21400434099F8000031F0F4FF8346002851D0529BC4
S2140043501BB1BDF84C3198424BD8002399F8009019
S2140043600793A9F14102012A5FFA8BF123D8384658
S2140043700139254ADFF898C05FFA81FE734513DBE2
S214004380059B04210792C3B907AF18221F489FED6B
S2140043901A7B02FB060420460A460830394684ED9E
S2140043A0027B19F031FA11E010F8011F0133514079
S2140043B00CFB01F2E2E7059B33B123464A4638463A
S2140043C0009612F037F9A8E70829DED9B8F1000FF1
S2140043D001D088F80090BAF1000F01D0AAF800B01A
S2140043E0529B002B99D05A46184608A919F00CFA89
S2140043F093E7012591E700BF0000000000000000E1
S214004400BB230400F0230400C59D1C811811002066
S21400441093010001000000002DE9F04F93B0CDE9B4
S2140044200A32DDE91C530E9353EC102BCDE908013C
S214004430104619468DED060B1E9E18F06FFC80B1D7
S214004440DDE906014FF0FF32C54B18F08FFC40B98E
S214004450DDE906014FF0FF326FF4801318F068FCB8
S21400446070B1DDE908019DED060B0E9B1E96CDE9A9
S2140044701C53DDE90A3213B0BDE8F04F00F088B9EE
S2140044800022DDE90601002318F052FC002800F0A7
S2140044903381DDE906A303F1004BCBF30A5016F493
S2140044A08063A0F2FF3008BF06250F9318F064F96A
S2140044B09BA3D3E9002318F0C9F99BA3D3E90023F3
S2140044C018F00EF8CBF31304894644F07F5180466B
S2140044D00022A44B504641F4401117F0FFFF94A36E
S2140044E0D3E9002318F0B2F902460B464046494687
S2140044F017F0F6FF18F044FC044618F03DF98EA3BA
S214004500D3E900238046894618F0A0F90022964B8E
S21400451017F0E6FF18F034FC89A3D3E9002307461A
S2140045204946404618F092F980463846894618F0C3
S21400453023F985A3D3E9002318F088F902460B4631
S2140045404046494617F0CAFF02460B46CDE90C2303
S21400455018F07CF9DDE90C2380468946104619469A
S21400456017F0BEFF0022CDE91001804B40464946B9
S21400457018F096FA00227E4B17F0B2FF02460B4662
S2140045804046494618F08CFA00227A4B17F0A8FFEE
S21400459002460B464046494618F082FADDE90C23EF
S2140045A08046894600204FF0804117F097FF02466C
S2140045B00B464046494617F093FF02460B46DDE998
S2140045C0100118F06DFA07F2FF3700226A4B17F059
S2140045D087FF00223B0518F039F952465B468046B5
S2140045E0894618F0C3FB002840F08980CDE90C8985
S2140045F004F16303C62B8CBF0527042731051BD5A2
S21400460053A3D3E900235046594618F0A5FB0028CB
S2140046107FD051A3D3E900235046594618F088FBB3
S214004620002876D00027A542C6BF2C1B04F1FF3514
S21400463000253C4646F480660E9B9F422CBF4FF0FA
S2140046400008A3EB070816F0020903D0002F18BFD6
S2140046504FF000083CB1DDE90C235046594618F0EF
S2140046601FFA82468B46DDE906010022002318F079
S2140046705FFB10B10BF100439B46DDE9080126F411
S2140046800063CDE90183DDE90A324BEC10AB0095FF
S21400469000F07EF802465FB3DDE9091316F0200F3E
S2140046A000F10105089E0CBF65204520B047DDE9F6
S2140046B008010523002205930A23002CCDE90232C7
S2140046C007F1FF374FEAD473B8BF64422A46019316
S2140046D004970A9B009433F09FFC0246B9F1000F42
S2140046E006D00B9BC41A0B9B1A190E9BA34245D8E7
S2140046F0104613B0BDE8F08FDDE906ABCDE600222C
S214004700404649461A4B18F0CBF9013CCDE90C015E
S2140047106EE7002D90D00F9B002B8DD0013D8BE7D0
S214004720FB799F501344D33FB3C8608B288AC63F9B
S21400473061436F63A787D23F71A379094F930A40FD
S2140047401655B5BBB16B0240EF39FAFE422EE63F76
S2140047502D431CEBE2361A3F0000000080842E41F9
S214004760FFFFEF7F0000F83F0000E03F00002C4016
S21400477000002440000018400000F03F2020DDE943
S2140047800913089DA8470134ADE700BF00000000EC
S2140047902DE9F04F5BEC10AB97B0CDE90501DDE9F4
S2140047A02058CDE90723504652465B465946229F7D
S2140047B018F0B4FA70B90323CDE902870193AA4B27
S2140047C00093DDE90501DDE9072333F057FB17B059
S2140047D0BDE8F08F4FF0FF326FF480135046594615
S2140047E018F0A6FA28B10423CDE9028701939F4B5F
S2140047F0E6E74FF0FF32504659469D4B18F0B6FAA2
S21400480068B19C4A07F00403002B08BF03229A4BAA
S2140048101CBF13460422CDE902870192D0E750461A
S2140048208DA3D3E90023594618F0A0FA38B98CA313
S214004830D3E900235046594618F07AFA68B1DDE904
S2140048400723DDE905014BEC10ABCDE92187209568
S21400485017B0BDE8F04FFFF7DFBD0022002350463B
S214004860594618F065FA002800F091805B465246DB
S2140048700020002117F032FE012382468B46099362
S21400488017F4806400F08580092D40F285800024AE
S21400489030210EABA5F109020134202C03F8011BD0
S2140048A0A5EB040901D09442F6D15946504618F0BB
S2140048B067FA724B054603EBC90393ED007B8DED5B
S2140048C00A7B17F059FF02460B465046594617F02A
S2140048D005FEDDE90A2317F0B9FF02460B46CDE9CF
S2140048E00C2318F075FA064617F036FF02460B46FC
S2140048F0DDE90C0117F0F2FD02460B46CDE90C236C
S21400490000225F4B18F032FA002848D001363046B5
S21400491017F022FF02460B46DDE90A0118F012FAEC
S21400492008B100260135B9F1000F45D1284617F029
S21400493023FF02460B465046594617F0CFFD00228D
S2140049404F4B18F0F5F910B9E90700D501350A21E3
S2140049500EAB1A19202C0AD095FBF1F001FB10556E
S214004960303502F8015B013405460028F2D107F025
S2140049700302012A55D1B8F1000F52D0099A12B994
S21400498017F00C0F01D008F1FF38302240E00990F4
S21400499076E74FF0060988E7A946002485E7002257
S2140049A0DDE90C01364B18F0C3F90028BBD10EB177
S2140049B0F007B8D50136B6E70A210EAB1A19202C37
S2140049C00DD0B6FBF1F001FB1063092E03F13003A6
S2140049D009F1FF3904F1010402F8013B11D8302136
S2140049E0A1440EAA202CB2D04C4504F101030AD1F2
S2140049F004F158020DEB02042E2204F8202C1C466B
S214004A00A5E70646DBE7A1541C46EBE71A5501343A
S214004A10444506D2202CF9D1CDE9028701940EAB8D
S214004A20CEE6202CF8D0099B3BB12D2204F158038A
S214004A306B4403F8202C0134EEE77A0704D504F122
S214004A4058032B226B44F4E73B07E5D504F15803E3
S214004A5020226B44EDE700BF0000000065CDCD418D
S214004A600000000065CDCDC14E4104005241040057
S214004A70FFFFEF7F454104004A410400D08A04004E
S214004A800000E03F0000000070B58EB02C22002130
S214004A9003A818F029FD64234FF002320893CDE9ED
S214004AA005230B2301218DF834305B4B8DF8101055
S214004AB01D880D4040F0A980084637F009FB0A2201
S214004AC0564B574C1A704FF42873ADF812304FF00F
S214004AD0FF332360534B54491B8820460B82534BAD
S214004AE0534A1B68CD828B61524B0D621B884B82EA
S214004AF0514B1B68CB611FF065F920B14FF41B7159
S214004B004E4838F080FB0521206833F078FC20B151
S214004B1040F27D21494838F076FB206817F09AFC71
S214004B20474B2068196833F02DFD0C2537F038FF09
S214004B306843099037F034FF68430DEB0501079092
S214004B40206819F093FB20B140F295213B4838F0DD
S214004B505AFB256821F06EFB00220146284633F0FA
S214004B6089FD20B140F29721344838F04CFB40F2E2
S214004B700353344D344E2B80052396F90000AB705A
S214004B807F2801D11FF014FA3378EB7037F008FF56
S214004B9000EB80008000A88037F002FF0023C000F2
S214004BA04FF0FF31E880AB604FF0FF3018A3D3E939
S214004BB0002337F0DFFB2549206833F014FD20681A
S214004BC002A934F030F920B14FF434711B4838F0A4
S214004BD01AFB042220680DEB020133F0A8FC04281F
S214004BE004D040F2D721154838F00DFB01A901206A
S214004BF033F0A9F809F016FC01201FF05DFE2FF037
S214004C000CF91FF083FE1FF06BF90EB070BD00BFED
S214004C100A0020FF42030000D06800200570002034
S214004C20F06200207EA40400D476002084A4040051
S214004C30F9C003007CA4040080A40400177A0400D2
S214004C401C740020E4620020C27900206DC10300BD
S214004C500348044B834202D0034B03B11847704706
S214004C60F0790020F079002000000000064B07498C
S214004C70C91A891048BF0131491003D0044B0BB143
S214004C8001481847704700BFF0790020F0790020EF
S214004C900000000010B5064C237843B9FFF7D8FF94
S214004CA0044B13B10448AFF300800123237010BDFA
S214004CB0481600200000000004C8040008B5044B95
S214004CC01BB104490448AFF30080BDE80840CDE7B7
S214004CD0000000004C16002004C80400A3F5803A2B
S214004CE0704700BF154B002B08BF114B9D46FFF7C2
S214004CF0F5FF00218B460F461148124A121A18F08B
S214004D00F3FB0C4B002B00D098470B4B002B00D02E
S214004D1098470020002104000D000B4818F02AFFD9
S214004D2018F0BAFB200029002DF051FC18F010FFF7
S214004D30000008000000000000000000081000202E
S214004D40081000205C700020DDDB010007B50121A3
S214004D5020200DF1070201F055FE58B10223012173
S214004D6020200DF107028DF8073001F05BFE03B03E
S214004D705DF804FB9DF807100229F8D002220948C6
S214004D8017F0A0FA022301210DF1070220208DF86A
S214004D90073001F047FE2DF057FB4FF4FA6001F0A4
S214004DA07BFCE4E728D6030038B501F0F3FB03F0FC
S214004DB037FE02F029F9012805D002F025F902286D
S214004DC001D002F047F9124D2B783BB902F01CF9DE
S214004DD00128044602D12DF0DDFB2C7002F014F9F8
S214004DE00128044609D101F0BBFB2DF040FB094A1F
S214004DF0094B117811B91470186038BD1A68074944
S214004E00821A8A42F9D91860BDE8384003F034BEE9
S214004E10AF690020AE69002064160020DF9304000E
S214004E2010B5044600882DF0DBFAA37884F8440019
S214004E30834202BF0123E3702371074B04F11C0079
S214004E40C4E9073401F0EAFE224620880349BDE89B
S214004E50104001F071BD00BF331C0300FD1B0300B2
S214004E6070B5C37804460D461646002B34D1D1B132
S214004E70214817F027FA0123E370E36CA6600BB114
S214004E80E06D9847E368F61A63699E4221D2217E58
S214004E901A480131C9B2217617F014FAA36D13B17E
S214004EA0217EE06D9847E5702DF0E1FA15B3237981
S214004EB003BBA268238A801A83421BD801231048AA
S214004EC0237117F0FFF9236DA3B1E06DBDE87040C4
S214004ED0184701232376E6E70029E4D1094817F0AE
S214004EE0F1F9636DE660E5702571002BDBD0E06DAF
S214004EF09847D8E770BD00BF50D6030061D60300C0
S214004F008FD603007CD6030013B5C8B1C2B1012901
S214004F1010D0022911D099B9C369283083B114047E
S214004F20B4FBF3F404600848009417F0CBF90020B3
S214004F3002B010BD036A2C30F0E7436A3030EDE76C
S214004F404FF0FF30F4E700BFA5D603000A46044939
S214004F500346086810B119462CF0C7BE704700BF5C
S214004F606816002070B5044694F89D2094F89E308C
S214004F70D21A4032514201F03F0102F03F0258BFC0
S214004F804A42D2B2162A00D870BD03F03F0222442D
S214004F9092F85D20552A05D0013303F03F0384F8CC
S214004FA09E30E1E700205822191801F03F01214405
S214004FB091F85D1001300A441628D2B2F4D1D243DB
S214004FC003F1160101F03F01214491F85D10D2B2C1
S214004FD08A42E1D1012120462CF04CFE04210546F0
S214004FE020462CF047FE0A21064620462CF042FEBC
S214004FF0A26AC4E907655643E26A030248BF434211
S21400500002FB05F5226B48BF23F07F4002FB00F34E
S21400501003F500431B0C360C2D0C23816062A68022
S214005020E5802DF024FA237E33B90123237694F805
S2140050309E3060611733B0E742F210726369C31A9C
S2140050409342F2D82269B4F9081003FB01222261C8
S214005050064A23699342E8D3A3F55B13A3F53A53B4
S2140050602361E3680133E360F3E700BF80EE3600B8
S21400507010B5044601F078FE2046FFF773FF0221C4
S214005080054801F05DFE04F134004FF47A71BDE886
S21400509010402DF0E3B900BF0E7B04002DE9F84365
S2140050A00D4616469846044610B3A8220021043042
S2140050B018F01AFA40F29D1240F20513C4E90A23CA
S2140050C06923DFF8889023634246314628461A4B08
S2140050D025806680C9F8004001F0CEFD074660B125
S2140050E00023324629461548C9F8003017F0EAF87A
S2140050F04FF0FF373846BDE8F8832DF0B8F90123A6
S21400510084F85C300E4B6061C4E92834032384F8CD
S214005110A8300C4BC4E90D343434204601F07EFD33
S21400512020464FF47A712DF099F9434632462946C7
S214005130054817F0C7F8DDE74D4F0000DED6030040
S214005140107B0400715000000BD703006816002087
S21400515058B101B1816202B1C26203B10363816AD0
S214005160D0E90B23014817F0ADB870473CD70300D1
S2140051702DE9F8430E4617461D460446002846D03D
S21400518092220021063018F0AFF9224A224B304610
S214005190C4E9152343F273630022E36511462680B3
S2140051A06780A5802DF03EF90022A0711146384692
S2140051B02DF038F900224FF001081146E07128461C
S2140051C02DF0DBF828462DF0F7F884F83C802DF01B
S2140051D04EF9124B04F16009C4E91834206284F8D1
S2140051E08980484601F01AFD0D4B3A463146C4E91F
S2140051F023340C482B4684F8948017F063F848460E
S21400520041F288312DF02AF90020BDE8F8834FF0EE
S214005210FF30FAE7305C020076CF0100071E03007D
S2140052202C7B040061D7030060B1002914BF012362
S214005230002380F88A30044B0449054818BF1946F5
S21400524017F040B8704700BF95D70300A7D70300F4
S214005250B8D7030058B101B1416502B1826503B108
S214005260C365416DD0E91623014817F02BB8704787
S214005270D3D7030013B5C8B1C2B1012910D0022993
S21400528011D099B9836C543083B11404B4FBF3F491
S21400529004600848009417F015F8002002B010BD0E
S2140052A0C36C5830F0E7036D5C30EDE74FF0FF302D
S2140052B0F4E700BFF9D7030070B5044600F13C06DA
S2140052C080F83B1030460D462DF0CDF8238F1BB1ED
S2140052D094F83A30AB4205D129462046BDE87040E6
S2140052E02CF00EBE054B3046C4E90F3401F096FC98
S2140052F03046BDE8704014212DF0B0B8291F0300D9
S21400530070B51E46838804460D46C18002810BB1E7
S214005310868070BD3C302DF0A6F894F83430BBB1D2
S21400532094F83610002908BFFF2120462CF0E8FD2F
S2140053300123E370074BA680C4E903340C342046EF
S21400534001F06CFC29462046BDE870402DF086B87A
S214005350FF21EAE7971F030058B1064B064A0749A4
S214005360C0E90023064BC0E902130023C0E904335A
S214005370836170471E009065C409102708523C00E0
S214005380600E803E10B501790446B1FA81F10088BE
S21400539049092CF06EFF21796088B1FA81F149093C
S2140053A02CF067FF034B1A68A24204BF00221A6063
S2140053B010BD00BF6C16002070B543790446A3B13B
S2140053C000880E4E04F10805336813B10C4B1B78A9
S2140053D06BB121792CF04DFF64210A4B3460A36039
S2140053E02846BDE870402DF039B84088E9E7064801
S2140053F016F068FF054B3221A360F1E76C1600201B
S214005400B26900208553000036D80300B953000067
S21400541010B50446E0B10F4816F054FF012363713F
S214005420A37953B9217920882CF023FF236B7BB115
S214005430606B0121BDE8104018472046FFF7A2FF29
S21400544004F108002DF00FF82046FFF7B5FFEDE752
S21400545010BD00BF6CD8030010B50446F8B1104864
S21400546016F030FF00236371A3796BB92179208889
S214005470B1FA81F149092CF0FCFE236B7BB1606B1D
S2140054800021BDE8104018472046FFF77BFF04F1D7
S21400549008002CF0E8FF2046FFF78EFFEDE710BD72
S2140054A077D8030010B5044668B1074816F00AFF1F
S2140054B0637920461BB1BDE81040FFF7CDBFBDE8BD
S2140054C01040FFF7A5BF10BD83D8030010B50E4CE3
S2140054D00E48214616F0F6FE82210D4816F0F2FE22
S2140054E082210220A21E01F09DFA014630B134F856
S2140054F0022C0848BDE8104016F0E4BE0648BDE899
S214005500104016F0DFBE00BF3664002092D80300BD
S214005510ADD80300B8D80300FCD8030038B5104C4B
S21400552082212246022001F06DFAA51C014678B1C0
S21400553022880C4816F0C6FE2A460B4B03F13401AF
S21400554053F8040B8B4242F8040BF9D13323238023
S21400555035F8021C054A0648BDE8384016F0B2BECB
S2140055603464002007D9030087D90300366400207E
S21400557065D90300034B1B781BB18B4201D82CF076
S21400558063BF704757790020884208B504D30348A4
S21400559016F098FE01F074F808BD00BFBBD90300F2
S2140055A010B5044601460E4816F08CFE012C11D1AB
S2140055B00C4B0D481A884FF6FF739A421EBF002206
S2140055C0094B5A742CF080FD03F04CFCBDE81040EB
S2140055D003F06CBA0448BDE810402CF077BD00BF5D
S2140055E0F0D9030004790020A87300202DE9F047C5
S2140055F004460D46164600274FF06409DFF82C8057
S214005600DFF82CA098F80030BB4206DC324629466C
S2140056102046BDE8F04702F0C3BD09FB07A03346AD
S2140056202A462146FFF76CFE0137EBE7BB690020F0
S214005630E432002008B501F0E7FC0128064807D14F
S2140056402CF042FD03F032FABDE8084002F0D0BD6F
S2140056502CF03CFDF6E700BFA873002070B50024D0
S2140056601A4D1B4E3378A3421BDC0024194D1A4EEC
S2140056703378A3421BDC0024184D194E3378A3421E
S2140056801BDC01F0C1FC012816481CD12CF01CFDC7
S21400569003F0E8FB03F00AFABDE87040124801F098
S2140056A0D3BC2846FFF7BCFB01346035DAE7284652
S2140056B02CF0C0FC01346435DAE728462CF0DEFD19
S2140056C001343835DAE72CF001FDE5E7C42E00207A
S2140056D0BA690020E4320020BB690020942C002028
S2140056E0B9690020A8730020A15500002DE9F04FED
S2140056F089B0FFF713FF984B07A807932CF0FCFD23
S214005700054617F0EDFD954CC2B21F2A627004D90B
S214005710934816F0D7FD00F0B3FF2946A01C18F0FA
S21400572073F807A82CF0E8FD054617F0D9FDC2B2BD
S2140057301F2A84F8212001D98A48EAE7294604F17D
S214005740220018F061F807A82CF0D6FD3226044691
S2140057504FF000082578002D2FD1834CFFF77EFFF1
S2140057602378824F0093824E824B3A781B783178AA
S214005770814816F0A7FD814B81489A68002A00F000
S214005780F58490F800C0BCF1000F00F0ED842A46C6
S2140057907C4991F802E00132754538BF754694455C
S2140057A001F1B801F5DC023D032D00F20186DFE8C9
S2140057B015F0FD05FB05F905F705532D0FD16378A8
S2140057C04C2B40F05681A378502B40F052816E4B04
S2140057D001221A7007A82CF08FFD0446BAE7322D76
S2140057E007D16378452BF5D1A378502BF2D1674BC0
S2140057F0EEE7442D13D16378303B092BEAD8601CC2
S2140058002CF087FD624B634A1978002386B29942D2
S21400581002F16002DEDD22F8466C0133F7E7422D26
S2140058200BD16378542B40D1A01C01F0D3F85A4B0F
S214005830188018462CF0BFF9CCE7592D1FD8412DFB
S214005840C8D9A5F14303162B00F24584DFE813F010
S214005850C30243041903430443044304B20043044D
S2140058604304510020004304430443044304590105
S21400587011016802430443046802A5010202692D6F
S214005880A8D1601C2CF045FD80B22CF0D9FDA1E714
S214005890374B012019780023404A994202F1AC02A6
S2140058A098DD02F8AA0C0133F7E7394F0B213C4A82
S2140058B03878FFF769FE601C01F08CF80546E01C9E
S2140058C02CF09FFD0121024628462CF056FD602153
S2140058D03B7830485943421845524FF4FA611182DA
S2140058E04FF4487151612F495683116501333B705F
S2140058F070E7DFF8BC8005212B4A98F80000FFF718
S21400590043FE601C01F066F800224FF064098246F0
S21400591011462CF032FD254D98F80070E11C09FB6D
S21400592007F307FB0957384625F803A02CF0CAFCF6
S21400593038462CF07FFB0021104A98F80030516062
S214005940012103FB09550B441560117488F80030DB
S2140059504FF001083EE700BF36640020A472002026
S2140059600FDA030026DA0300B5690020B7690020C5
S214005970B8690020B669002025DB0300A873002064
S214005980B469002024210020B2690020B1690020FB
S214005990BA690020C42E002004790020D8290020EF
S2140059A036DA0300AF2203003EDA0300E4320020BA
S2140059B0BB690020C74D0521C74A2878FFF7E4FDDC
S2140059C0601C01F007F800224FF064098246114679
S2140059D02CF0D3FCC14F2B78E11C09FB03F203FB30
S2140059E00979484627F802A02CF06CFC48462CF0B3
S2140059F021FBBB4BBB491C78084600239C420ADDB2
S214005A000A6D58314ABB582202FB030064232A78E9
S214005A1002FB03730365B44900230846D1F8A420AB
S214005A20EAB9AC2202FB030064232A7802FB037364
S214005A30C0F8A430B8F1000F0BD1AC4A434611466B
S214005A4052F8040B88B96422287800FB027241F8E9
S214005A5023202B7801332B70BCE60133CEE70133CD
S214005A60042B01F1AC01D9D1E4E70133042BE7D1D3
S214005A70EFE7DFF8A4929E4F99F800000B219D4AAD
S214005A80FFF782FD04219C4A3878FFF77DFD601CF5
S214005A9000F0A0FF0546E01C2CF0B3FC01210246F6
S214005AA028462CF06AFC602099F800209349504361
S214005AB00B180D524FF448701882586190485E8358
S214005AC09865E078AC24642804BF012098703B7881
S214005AD0854D5C4328192B554FF4007444800324ED
S214005AE00471847102EB420401EB4411816032219F
S214005AF00133DBB20132437180F8A01089F8002030
S214005B00F5E6804DDFF8D89128780A217E4AFFF71F
S214005B103BFD06217C4A99F80000FFF735FD601C26
S214005B2000F058FF00224FF0380B824611462CF04A
S214005B3024FC2B78754F0BFB03F327F803A04FF0DC
S214005B40010AFA1882F804A0E378692B14D100231E
S214005B501371582299F8003062485A4381188354CA
S214005B6028780133C0EBC00207EBC207421CCF64A3
S214005B702A7089F800302DE6002BEAD0E01C00F0F1
S214005B8029FF0022044611462CF0F7FB2B780BFB6E
S214005B9003735C8083F806A0DBE7DFF87CA1DFF800
S214005BA07C919AF800000B210130524AC0B2FFF7F0
S214005BB0EBFC0321564A99F80000FFF7E5FC601C51
S214005BC000F008FF0746E01C00F004FF0546601DD5
S214005BD02CF017FC04460246012138462CF0CDFB7B
S214005BE02246284601212CF0C8FB60209AF8003097
S214005BF0424A00FB03F4111917534FF44874404F00
S214005C000C824C618F654E83591CC9B2484302EB27
S214005C10000CACF81040CCF8144094241552981C94
S214005C208AF8000099F800003A4D444303EB43031A
S214005C3001EB410102EB4313CCF8587002EB411222
S214005C402F1928550130ACF81A607B60BA6089F8C5
S214005C500000BFE54FF0000A1E4F052138781E4AA7
S214005C600230C0B2DFF884B0DFF87080FFF78CFC3B
S214005C70651CE31D2846049300F0ACFE0022114686
S214005C8081462CF07AFB64233878023503FB00F15A
S214005C9008EB010228F8019091461046E11D039298
S214005CA02CF010FB039A484682F834A02CF0C2F978
S214005CB064233A7802FB0381049B01329D424BF831
S214005CC0041B3A70D6D10122084BC3F80CA01A74F4
S214005CD03EE600BFBB6900203EDA0300E432002047
S214005CE0B7690020C8270020D8290020A873002004
S214005CF0B869002036DA030050DA0300C42E00200C
S214005D0075550000B969002043DA0300942C002082
S214005D104ADA03000C260020BA690020B669002083
S214005D20542D14BF01270227984BDFF8A4A293F83E
S214005D30009005214846964AFFF726FC9AF8000090
S214005D400A2101383844934AC0B2FFF71DFCB82236
S214005D5002FB09F3904D4FF0640BE91805F8039029
S214005D6002238F7003FB074113FB074309FB025511
S214005D700131DFF86092039104939AF80020601CCA
S214005D80531C02FB0B978AF80030059200F022FEA7
S214005D90059A02340BFB02F209EB020329F8020013
S214005DA00022114605932CF0E8FA4FF00102059BFD
S214005DB03846039983F834202CF084FA38462CF0C1
S214005DC039F9049B45F8047F9C42D6D16F4A137874
S214005DD001331370FEE4DFF80092704F99F800006C
S214005DE00A2101306E4AC0B2FFF7CEFB03216D4A8E
S214005DF03878FFF7C9FB601C00F0ECFD0546E01C98
S214005E0000F0E8FD00220446114628462CF0B5FABC
S214005E100022204611462CF0B0FA382099F80030BF
S214005E20614A00FB03FC02EB0C0122F80C504FF019
S214005E30010C002581F804C08D7103EB0C01C9B27A
S214005E4048431452702402EB000E981C89F8000098
S214005E5038788EF806504443544DC3EBC303C1EB69
S214005E60C10102EBC3038EF804C002EBC10205EBCE
S214005E70040C28550130CCF80430CCF808203870D3
S214005E80A8E46378502B40F0A9802146484816F0D5
S214005E9019FAA01C00F09EFD0546201D00F09AFD94
S214005EA00746A01D00F096FD4FF6FF739D42814603
S214005EB03FF490AC9F423FF48DAC98423FF48AACDE
S214005EC003463A4629463B48FFF752F900287FF436
S214005ED081AC08345621049020462CF0EAF9412182
S214005EE0039020462CF0E5F95721834620462CF0F7
S214005EF0E0F94921824620462CF0DBF901782D484E
S214005F00A1F1490359425941FFF78EF9039A049BC0
S214005F101178562933D1501C2CF0FBF904469BF817
S214005F200030412B2DD10BF101002CF0F2F9834605
S214005F309AF80030572B27D10AF101002CF0E9F926
S214005F4003465A4621461B48FFF784F919482BF0AA
S214005F50CEFF194C01462060184801F0C1FD2168AB
S214005F6017482CF03CFE0123164A29461370164AA1
S214005F70164813704B463A4616F0A4F92AE41C4617
S214005F80CDE74FF0000BD3E70023DAE7B469002033
S214005F9059DA030060DA030024210020B5690020E6
S214005FA043DA03006FDA0300942C0020BC240020A0
S214005FB076DA0300D41900202419002048170020A0
S214005FC008100020B069002056790020A4DA0300EB
S214005FD0B36900203C1D0020B9690020422B7FF4E5
S214005FE0F9AB2146564816F06DF9A01C00F0F2FCFD
S214005FF00546201D00F0EEFC4FF6FF739D42074657
S2140060003FF4E8AB98423FF4E5AB04F106095321B0
S21400601048462CF04EF903788B4254D101302CF0D0
S21400602078F903463A4629464648FFF737F80446C5
S21400603000287FF4CFAB562148462CF03AF9412190
S214006040834648462CF035F95721824648462CF0C0
S21400605030F99BF800308146562B04D10BF1010035
S2140060602CF057F904469AF80030412B2ED10AF14D
S21400607001002CF04EF9824699F80030572B28D1B3
S21400608009F101002CF045F90346524621462D48F9
S214006090FFF75EF82B482BF042FE2B4C01462060A3
S2140060A02A4801F01DFD216829482CF098FD01239F
S2140060B0284A29461370284A284813703A4616F08C
S2140060C001F9FFF787BB4FF49653ABE74FF0000A92
S2140060D0D2E70023D9E74F2D7FF47CAB63784C2BB7
S2140060E07FF478AB1B4B1B78002B3FF473AB02346A
S2140060F0432120462CF0DDF80746502120462CF0A0
S214006100D8F83B780546432B15D1781C2CF001F9BE
S21400611084B22B78502B10D1681C2CF0FAF882B27F
S21400612021460F482BF0F4FF084B0E48B3F86A20C0
S214006130B3F85E10C3E70024EBE70022F0E700BFE9
S21400614076DA0300281900202419002048170020BA
S21400615008100020B069002056790020D3DA03002A
S214006160A4170020F7DA03000F229A74B34BB44D3D
S21400617093F800903378B9F1000F18BF99463A7833
S2140061802D782478D11800782944214401444944C4
S214006190C9B20C2900F20E8100242546A9480390B6
S2140061A0A34200F30D81012938BF0121A64D0491B9
S2140061B02A4600232C464FF482714FF6FF78049847
S2140061C00133984213705180A2F8048002F10C0249
S2140061D0F5DC9E4B9C499E48A36001F05FF8E07991
S2140061E0A36800EB400003EB800000F055FCE37969
S2140061F095490133E371974C974801F0ABFF23882C
S214006200434503D09049954801F098F94FF6FF733F
S21400621022888D49D21A18BF0122914802F06CFBE1
S2140062204FF00008DFF81CA2884C3378434500F393
S214006230D0808C4B1B785BB18B4B1B78012B07D126
S21400624081498A4801F096FC7F49894802F06AF93C
S2140062504FF000084FF00C0BDFF818A27A4D3A7892
S214006260424500F3CA807F4B1B7823B11AB181499F
S2140062707E482CF07EFB0C214FF000084FF0940B6C
S2140062803B7896F800A09A4401FB0A516C4B1878AC
S214006290794A404500F302810C214FF0000A4FF086
S2140062A0700B3B7896F800809844804401FB0851B8
S2140062B0724B1878724A504500F306810C214FF055
S2140062C0000B3B7896F80080DFF8CCA198445C4B36
S2140062D01B789844804401FB08519AF80020694BCB
S2140062E05A4500F307815F4B1B78ABB1DFF878B1F6
S2140062F09BF8001001290FD94FF00C08013908FB54
S21400630001515A4801F036FC9BF8001058480139F4
S21400631008FB015102F006F933783A780621134457
S214006320474A012612781344544A127813449AF8BE
S214006330002013440C2202FB035500231846039A40
S214006340994502F1AC0205F10C05039200F3E880D2
S21400635004993D48444D00F091FD01F049FF414B42
S21400636040F2055240F6043128781E7800F068FDA9
S2140063700022044640F20271287800F061FD2146B2
S2140063800246304600F006FF079B3F491A468B42FE
S21400639040F0D9803D4809B0BDE8F04F15F092BFF7
S2140063A00722E2E60322E0E60422DEE60222DCE63C
S2140063B00122DAE60C22364815F084FFFFF7ABB967
S2140063C090F805C00134944584BF05714571AC3022
S2140063D0E6E6B8F1000F06D015F8053C03EB4303DC
S2140063E004EB8304AC602946504602F069FE08F1CF
S2140063F001080AF1AC0A0C3517E7317811EB0801F1
S2140064000AD04A1E0BFB0252D27902EB420204EB80
S21400641082040BFB0152946050460BFB015102F0C4
S21400642003FC31781B4841440BFB015101F016FE7A
S21400643008F101080AF1580A11E700BFB169002007
S214006440B6690020D82900206C1A0020FC1A00200B
S214006450A47200200479002038170020E8160020D7
S21400646070160020B06900205679002048170020DA
S21400647008100020C82700200C260020B569002040
S214006480BC2400202421002036640020B2DB030058
S21400649075DB0300882C0020B469002018EB0A0F77
S2140064A018BF11F8050C05911EBF00EB400004EB69
S2140064B080048C600BFB082001F004FA0599264B3B
S2140064C008F101080C31E2E61AEB080F18BF11F8C4
S2140064D0050C05911EBF00EB400004EB80048C60A9
S2140064E00BFB0A2001F0C4F805991C4B0AF1010ABF
S2140064F00C31DEE6B8201BEB080F18BF11F8052C90
S21400650000FB0B301EBF02EB420204EB82048C60E1
S214006510059101F0D9FE05990BF1010B0C31DCE673
S21400652015F8112C039F02EB420204EB820415F8C7
S2140065300C2CC4E9001045F8044C05F8056C07F867
S214006540042C0133FBE613F8011D00297FF41DAF70
S2140065503B2102F8011C18E7B6690020B569002047
S21400656008B5094B1B786BB108482CF005FA0748AC
S2140065702CF080FA064802F061F8BDE808400448AE
S2140065802CF03FBB08BD00BFB069002048170020B4
S2140065900810002008B5064B1B783BB105482BF0C9
S2140065A0AEFCBDE8084004482CF0E6B908BD00BFC4
S2140065B0B0690020D41900204817002007B5012133
S2140065C021200DF1070200F01DFA18B99DF80720EA
S2140065D0024B1A7003B05DF804FB00BF5779002029
S2140065E007B5064B8DF80700187001210DF107025C
S2140065F0212000F017FA03B05DF804FB577900205D
S21400660007B5022101200DF1060200F0FBF938B9AA
S214006610044815F057FEBDF8060003B05DF804FB0D
S2140066200020FAE7CFDB030007B50221ADF806002D
S2140066300DF10602012000F0F5F9014610B10348FD
S21400664015F040FE03B05DF804FB00BFF0DB03006E
S21400665010B5FFF7D5FF04460146074815F032FE91
S2140066600121064815F02EFE24B9BDE81040012091
S214006670FFF7DABF10BD00BF20DC030032DC0300EA
S21400668008B5044815F01EFE00F0DCF92BF0DCFE21
S2140066902BF0D7FE48DC030038B50446084D094BFE
S2140066A028462B6000F0BAFA002C18BF2146284670
S2140066B0BDE8384008BF4FF496712BF0CFBE00BF40
S2140066C0D8340020312303002DE9F043384D91B033
S2140066D008AC0746894690460FCD0FC495E80F00D4
S2140066E0002684E80F0001250323324C3248CDE90A
S2140066F00366CDE905668DF80E300796029536F0EE
S2140067002BFD2E4836F028FD32462D4920468DF8C2
S214006710176005F0FDFD334632462A498DF819000C
S214006720009020468DF82390CDF82C808DF82160BF
S21400673005F008FE0A9020468DF8097005F06AFDFF
S214006740204608AA05A905F023FE02AA204603A9AA
S2140067502DF02AFA4FF400721B4B5A62194BE56073
S214006760626A920510D46BB94FF40072164B11484A
S2140067705A6205F04FFD114836F0F1FC002011B0CA
S214006780BDE8F083013BEBE7002BEDD0094908A8F4
S2140067902DF03DFA4FF400720B4B06485A6205F096
S2140067A039FD064836F0DBFCBDF82000E7E700BF01
S2140067B0487B04000040005AFC7D0400F87D04007D
S2140067C080841E0040420F000060005A0122034BE6
S2140067D01870034B1980034B1A707047BD69002070
S2140067E00C790020BC690020F8B5454B1B780BB926
S2140067F00020F8BD434B1B78012B03D1BDE8F840C1
S2140068002BF099BD404B1C884FF6FF739C42EFD08F
S2140068103E4836F0A1FC0023260AE4B21A4621467A
S214006820304605F0B7FC012E354604F0010335D09E
S21400683015D9B51E012DDBD8002B0BBF4FF4807584
S2140068404FF080754FF470614FF070610BBF0127F9
S2140068504FF480370F204FF470202D4B11E0002BA3
S2140068600BBF4FF480754FF080754FF470614FF09A
S21400687070610BBF01274FF480370F204FF4702054
S214006880244B1A6802401CD0BA421AD01A680A4032
S21400689032D11A6822EA01022A4316E0002B0BBF07
S2140068A04FF480754FF080754FF470614FF0706153
S2140068B00BBF01274FF480370F204FF47020164B84
S2140068C0DFE71A6822EA00023A431A602BF033FD2B
S2140068D0054600288CD0083644EA06102A460321CE
S2140068E0C0B2FFF7F1FE40F6FF73684300F2FF7098
S2140068F0B0FBF3F080B27CE795427FF479AFC8E74F
S214006900BC690020BD6900200C790020FC7D0400D5
S21400691028C3035020C3035024C3035010B5044CAF
S214006920237823B9034836F017FC0123237010BDE3
S214006930BF690020FC7D04002DE9F0431F4C85B0A4
S214006940074688469146FFF7E9FF23781BB903F010
S214006950D1F8012323707BBAADF80C303022002327
S214006960174E02FB03F4315DA51901BB0123335515
S2140069704FF0FF3304F1100012493044AB606F80D3
S214006980C5F80480C5F80C900AF06CFC04F1080108
S214006990042231440C4B009503A803F081F9A96842
S2140069A002460A4815F08EFC05B0BDE8F0830133B8
S2140069B0102BD6D1064815F085FCF5E7BE690020F9
S2140069C0003500205B2303006D23030055DC030025
S2140069D083DC030080B10278A2F14103032B0BD8BD
S2140069E040783038C0B2082806D8054B134413F850
S2140069F0413C40EA032070474FF6FF70704700BFE7
S214006A00687B040008B50B4642B10146044800689E
S214006A1004F08AFABDE808402BF00CBD022008BD41
S214006A201474002008B50B4642B1014604480068BD
S214006A3004F002FCBDE808402BF0FCBC022008BDB8
S214006A4014740020F0B50026124F8DB0FF2300937B
S214006A500A223346386802A92CF063FEC0B102ABA6
S214006A601D4603EB800404E055F8043BB34228BF00
S214006A705E1CAC423868E9D9296804F063FD00283A
S214006A80F2D02D28F0D00DB0BDE8F0402BF0D2BCEF
S214006A900DB0F0BD1474002028B1034B0360034B07
S214006AA0436000238360704719000003BC73002016
S214006AB02DE9F04F00230746DFF828818B4698F82B
S214006AC00020424985B022FA03F0C00708D531F805
S214006AD01300B84204D15DB2284605B0BDE8F08F79
S214006AE00133032BEFD112F0010667D1384C75B293
S214006AF094F80090B9F1000F21D10F2249460DF10C
S214006B00010016F0F1FC3F238DF80090DFF8C890E6
S214006B1069464846ADF802302DF0B8F81E2005F05C
S214006B20A9F84FF47A43B0FBF3F02A4B1860D9F873
S214006B3030300123C9F81C00C9F80C3023700D2230
S214006B400021684616F0D0FCBBF1000B18BF4FF0D2
S214006B50010B0323204C6A46314620468DF806304A
S214006B608DF80AB02DF0CFF8236B00234FF0010A02
S214006B7004EB461083664FEA1729184BF9B249EA28
S214006B80014032B243F82200154A0AFA06FAD2F851
S214006B904C35484643EA0A03C2F84C355B460422A5
S214006BA005F0F8FA98F8003043EA0A0388F800304F
S214006BB0064B23F816708FE7022697E7910795D5C0
S214006BC05307F9D54FF0FF3586E700BFB6640020BF
S214006BD0C16900200038002000C0045050C5035092
S214006BE000C00350C0690020022810D8084B1B784C
S214006BF0C340DB070BD5074B1B6803FB0111FF23C4
S214006C00B1FBF3F1044B1A6B03EB401319677047A3
S214006C10C06900200038002000C00450FF2307B5DC
S214006C200021044A009308300AF0A0FA03B05DF889
S214006C3004FB00BF572403007FB50D4E0D4C336890
S214006C406A4600211046A5692D0606D411F0FF01FC
S214006C5001D003B1984704B070BD656A01311029B0
S214006C6002F8015BEFD1002BEAD09847E7E700BFB8
S214006C7004380020008005502DE9F0478A469146EA
S214006C8088B0002A4DD04FF6FF72904249D091420C
S214006C9047D0254A5FFA80F8070A38460E0A13607E
S214006CA04146012304225FFA8AFA204D05F072FA63
S214006CB001AC304601230222514605F06BFA0FCD97
S214006CC00FC495E8070084E80700002401A91848C7
S214006CD0CDF80C908DF8044005F028FE1022154BD8
S214006CE047EA084746EA0A46C3F8C475C3F8BC65CF
S214006CF0C3F8AC250423104A0B209364A2F58052F7
S214006D00D36407F03BF90B2007F01CF9084805216F
S214006D102DF036F801222046084B1A7008B0BDE860
S214006D20F0874FF0FF30F9E7043800206C7B040052
S214006D300080055000C0035000A00550C269002026
S214006D4070B5074B04461B784BB141B1054E45184C
S214006D5014F8011B30462DF022F8AC42F8D170BD75
S214006D60C26900200080055010B5074B1B784BB158
S214006D7036F054F90446FFF75FFF2046BDE81040A2
S214006D8036F047B910BD00BFC26900200B46044963
S214006D90024608680349097808B12BF085BB70479E
S214006DA014380020C4690020F7B50C4618B12F210E
S214006DB0194836F028FA246823685E795F883046DA
S214006DC03946FFF7E3FFF0B18568E5B1A089227D7B
S214006DD03946904291BF0020801AA36880B294BFC3
S214006DE003469B18E27C00903046A84701380328EB
S214006DF003D8DFE800F0080F0B0D0024204630F023
S214006E0057F8204600E0812003B0F0BD8024F5E767
S214006E109324F3E78724F1E7ABDC030007B50B46C2
S214006E200092054902460548097800682BF05EFB8B
S214006E3003B05DF804FB00BFC469002014380020CE
S214006E4007B50B46009206490246064809780068D0
S214006E502BF04CFB003818BF012003B05DF804FB94
S214006E60C46900201438002008B5034B1B6803B122
S214006E709847002008BD00BF103800202DE9F74FC6
S214006E8004460D460026454B454F1860454B197085
S214006E9033010021F85C013611F038FA0C2EF7D1D8
S214006EA00C2D28BF0C254FF0000901953C4EDFF84D
S214006EB000A13D4DDFF8FC80019B4B4502DC03B092
S214006EC0BDE8F08F23784FF0000B33706388738033
S214006ED0A388B380A379C6F80880B371E379C8F8AD
S214006EE0005088F804304FF00003A768A8F8063072
S214006EF0E3795B450ADC012116F8100B11F006FA5F
S214006F0008F1080809F101090C34D5E74FF0000331
S214006F1038886B812880FB784FF0000C2B81BA787C
S214006F20C5F804A0002A00920CBF802240222A73D3
S214006F3079680AF10C02634513DC03EB43030AEBA2
S214006F40830ABB6843B1009A4FF6FF71B2FA82F229
S214006F50164B52092FF03CFF14350BF1010B0C3782
S214006F60C6E7B1F800E00CF1010C22F80CEC91F841
S214006F7002E00C3202F816EC91F804E00C3102F84C
S214006F8015EC11F809ECBEF1010F14BF4FF0100E0E
S214006F904FF0110E02F814ECCDE700BF14380020B5
S214006FA0D44F0020C4690020183E0020A96D0000C0
S214006FB01838002098400020014B1860704700BF2A
S214006FC00C380020014B1860704700BF10380020B6
S214006FD070B5128805460E46FFF720FF044670B1CE
S214006FE002790499806816F0D1FA064B1B680BB933
S214006FF0002070BD3146284622889847F8E786204C
S214007000F7E700BF0C38002008B510F01BFA02287E
S21400701006D0012806D0044B18784000C0B208BD40
S2140070200120FCE70220FAE7C3690020054B10B5F3
S2140070301C682CB1FFF7E8FF2346BDE81040184750
S21400704010BD00BF08380020014B1860704700BF15
S21400705008380020034B1A781AB901221A700CF06F
S21400706051BA7047C36900200022024B1A70FFF71E
S214007070DDBF00BFC369002037B50446002832D004
S21400708010F0E0F9022830D1608930F073FAE07928
S214007090237A003818BF0120012B637A08BF40F01E
S2140070A008000BB140F0100063890BB140F00400FB
S2140070B0257CA188A2790DB1E36873B90C4B11F059
S2140070C001FD2178084611F079FD2FF07CFD00289F
S2140070D014BF0320002003B030BDCDE90035054BBA
S2140070E011F0F0FCEDE70220F5E70120F3E700BF22
S2140070F0083004007DFF03002DE9F04186B0054608
S2140071000E4690461F469DF8344010F09BF9022824
S21400711024D1082C16D8ADF80C808DF80E702CB142
S21400712022460C990DF10F0016F06EFB03AB0334EC
S21400713000930A2231460820094B019411F0C2FC44
S21400714018B1032006B0BDE8F0812946284611F0A4
S21400715035FD2FF038FD0028F4D0F2E70120F1E7E6
S2140071607DFF030008B50EF02BFB014630B1044846
S21400717015F0A8F8BDE808400EF0C6BE08BD00BF72
S21400718039DD0300024B187C00B11868704700BF59
S214007190A873002050B100290CBF30213121002AED
S2140071A00CBF30223122034815F08CB82D210A4638
S2140071B0F9E700BF66DD0300034B044A5B7C012150
S2140071C003201370FFF72EBCA8730020C5690020AB
S2140071D037B50446FFF7F0FFB4F57F4F27D10025FB
S2140071E0204B1A8813449D70FEF770F92846FFF767
S2140071F053FA1D4D2A68C2B1FFF7C4FFA8B14FF677
S21400720005739C4224D192F841102AF032FF2B6875
S2140072100421B3F8422093F841303220ADF806201E
S21400722001AA8DF80430FFF7FDFB03B030BD4FF622
S21400723001739C4203D10D482AF027FFD9E74FF689
S21400724002739C42D5D10A4B1878FFF7C9F9D0E7EC
S2140072504FF606739C42E8D1B2F842102AF013FFAC
S214007260D5E700BF34640020F8400020A873002053
S2140072705779002010B5074C012122460320FFF75E
S214007280C1FB28B92378044A003B18BF0123537476
S21400729010BD00BFC5690020A87300207A4BF7B563
S2140072A01A884FF6FF739A4218BF03234FF008025E
S2140072B00D467649044618BF0B70754B36201A707B
S2140072C030229A705A71DA713922187138201A727F
S2140072D04FF4001298716F486264E0646E480122B1
S2140072E020656E483227A0656D48A618E0656D4893
S2140072F0E66760666C486D4EA0666D485F702067F6
S2140073006C48DF706067202084F8780084F884007A
S21400731004F12100C4F888006748C4F8806084F847
S214007320482084F8542084F8602084F86C20C4F840
S2140073308C0084F89020C4F89410C4F8B8305F4BE2
S2140073405F49C4F8BC300223C4F898105D4984F83D
S214007350C030C4F8A41010215B4B84F8A810C4F801
S214007360C4305A4B5A49C4F8C8308223C4F8AC100B
S214007370584984F8CC30C4F8B0100921564B574E03
S214007380C4F8D030564B84F89C20C4F8D430554B03
S214007390C4F8A040C4F8DC30337C84F8B41084F819
S2140073A0D820002B6AD0504B84F8E420C4F8E03094
S2140073B006F11103C4F8E830FFF7E4FE90F8343025
S2140073C0002B5DD090F83630042184F84130FFF76A
S2140073D0D9FE038F01AA3846A4F84230FFF712FB05
S2140073E038B99DF8043084F84130BDF80630A4F86A
S2140073F04230FFF7C7FE94F841102AF03AFEFFF736
S214007400C1FEB4F842102AF03EFE384B10211C6034
S214007410374BC4F8EC30012384F8F03004F1410314
S214007420C4F8F430334BC4F8F830022384F8FC3048
S21400743004F14203C4F800314FF0000CEA79A86862
S21400744002EB42039F0000EB830320F807C0D970CD
S2140074500121443499705C605318EB71FFF7AEF865
S214007460FFF708FFFFF7D0FD01280BD1337C4BB1A7
S2140074701A4803B0BDE8F0402AF007BE0D21DBE74E
S2140074800E21D9E703B0F0BD04790020687900200A
S214007490C66900208D7B0400010020008C7B040060
S2140074A0020020008B7B0400030020000500420041
S2140074B08A7B04000400420007003000FDFF210024
S2140074C01200100100404200887B040000FF4401C7
S2140074D0587900200600420034640020A87300207B
S2140074E002FF20015779002001FF1001F84000201C
S2140074F005FF200106FF210113B504460D482AF0BA
S21400750065FB6422C0F30F43637083B2B3FBF2F3F0
S214007510A0782370202201212BF003F8A0782122E6
S21400752001212AF0FEFF0449201D02B0BDE81040EC
S2140075302AF094BF04790020E09304000B7870B51D
S21400754083704CF61E0303804FF02013C3620123A2
S21400755080F8303080F83C30C3180364124B044681
S21400756043640223114A80F84830114B8263C36497
S2140075704063CA798D6802EB420305EB830004F191
S2140075802C0646600B4E45F8236000238360531C90
S214007590CB71094B201DC4E90134FFF73FFB2046A1
S2140075A0BDE87040FFF7A8BFFDFF210021002000C6
S2140075B08E7B040001000103F9740000437B044A3B
S2140075C00121137000781130C0B2FFF72BBA00BF4C
S2140075D0D069002038B504460078054D11302A469B
S2140075E00121C0B2FFF70EFA08B92B78637338BDD5
S2140075F0D0690020024B53F820002BF06DB800BF76
S214007600FC400020012908B506D0022907D049B958
S2140076102BF059F8002008BD2BF058F8FAE72BF0AD
S21400762058F8F7E7024814F04DFE0120F3E700BFD4
S2140076307DDD030010B4054C114654F820001A46B0
S214007640BDF804305DF8044BFFF7DCBFFC400020BB
S214007650002310B5044683810364A0F84430483004
S214007660FFF7DCFA014BC4E9123410BDBF26030055
S21400767038B504460B781A4A43700D4642F8230084
S214007680FFF7E6FF2046FFF7A5FF4FF44013236100
S2140076900123144A2375A261134A84F82030E2615C
S2140076A0124A84F82C306262114A84F83830A2629A
S2140076B004F10C0222630F4A04F10D036263E363D4
S2140076C0EA79A86802EB420300EB830110344C60B1
S2140076D0094C40F82340094B8B60531CEB7138BDB6
S2140076E0FC400020CF6900200800200069790020B7
S2140076F000FF300001FF1001020101043576000092
S21400770010B47024427B0D48013A012904FB0200A4
S21400771006D0022908D059B95DF8044B2AF0D3BF29
S2140077205DF8044B2AF0D2BF5DF8044B2AF0D1BFB7
S21400773003485DF8044B14F0C5BD00BFBC24002010
S21400774099DD0300B0F85C302DE9F0418B42044629
S2140077500E4638D0437B077C8BB31C4A12789A427D
S2140077602DD370251A4A013B05FB032390F80F80A2
S2140077701B7B42462AF0BEFFB845054601D1FF28CE
S2140077801FD13A463146204694F890302AF0B2FF90
S2140077902F460546552212216078A4F85C602AF030
S2140077A0C0FEFF2F03D039462046FFF7A9FFFF2D66
S2140077B009D029462046BDE8F0412AF0DBBFFF2568
S2140077C0DFE70746E6E7BDE8F08100BFB5690020C1
S2140077D0BC24002041688268C978D27849B112B1C9
S2140077E00321FFF7AFBF837B002B0CBF01210221D3
S2140077F0F7E72AB1837B002B0CBF02210121F0E7BB
S214007800014814F05FBD00BFAADD0300037BD3B1BF
S2140078104368DA7812B18268D278A2B91B7933B19C
S214007820837B002B0CBF04210521FFF78BBF8368E9
S2140078301B792BB1837B002B0CBF05210421F4E7B9
S214007840014814F03FBD7047DCDD0300084A437B67
S21400785005211370837B5370C37B9370037CD370B6
S214007860037B137100780E30C0B2FFF7DBB800BFA1
S214007870D169002038B5044600780C4D0E302A46F3
S2140078800521C0B2FFF7BEF820B1BDE83840084871
S21400789014F018BD2B7863736B78A373AB78E3731F
S2140078A0EB7823742B79237338BD00BFD169002091
S2140078B018DE0300024B53F820002AF0A5BF00BFD5
S2140078C02C410020F8B504460B78424A43700D461A
S2140078D042F82300404E2AF0B5FFFFF7CBFF626860
S2140078E0A3683E483E49D6641165D4655065C3E931
S2140078F01410DE64DC654FF0987302266361012382
S21400790004F10C01E16137491032216204F10D01E6
S214007910A16235492376E16204F10E0161633349C1
S21400792084F82430A16304F10F012164304984F8FF
S2140079303030616404F11001E1642E4984F83C3073
S21400794084F84830216584F85460A265E879A9680F
S21400795000EB400201EB820704F1140CC7F804C0E8
S2140079604FF4817C244F41F82270C218D2B202EB49
S214007970420241F822C001EB820700227A601F4AC9
S21400798084F8703022661E4A84F88830A2661D4A43
S2140079901D4BE2661D4AC4F88C3062671C4A831988
S2140079A0A26704F15C02C4F88020DBB2194A03EB3C
S2140079B04303C4F8842084F8646084F87C6001EB98
S2140079C0830260345460144A033041F82320E8717F
S2140079D0F8BD00BF2C410020D5770000CB27030060
S2140079E00D780000010020010200100103003001A4
S2140079F0040030010500210101FC01064A002100B7
S214007A00907B040051001000927B0400937B0400DE
S214007A10550021006F0018001200010400B589B05F
S214007A2001A92AF029FF084B10210493019B04AA00
S214007A300593029B2C200693039B0793FEF7F2FF09
S214007A4009B05DF804FB00BF43574C48F0B5484307
S214007A50DDE90576204C214D82EAE271A1EBE27168
S214007A60A042B0FBF5F589B225D9642012FB00F2DE
S214007A706FF0630092FBF5F28242B8BF0246642ABA
S214007A80A8BF642252B205FB05F44943A14221D2A5
S214007A904FF08040641A84420FD3002178B947F62D
S214007AA0FF70814228BF014603B11D8007B13980AF
S214007AB006B13270F0BD0022E5E78008EBE701EB87
S214007AC0000CA4454FEA51019CBF0918A4EB0C0416
S214007AD08008E3E70021E7E79F860100A086010013
S214007AE038B50D46044600B3F9B14FF4EE720021E6
S214007AF015F0FAFC0F23A3600C4B6560A36103F13D
S214007B006173E3614FF0011304F15C002362FDF73B
S214007B1023FCE36DE367236EC4F88030636EC4F81D
S214007B20843094F86C3084F8883038BD01006400E6
S214007B301FB50446B8B14368ABB16A4610212C2085
S214007B40FEF760FF78B9094B009A9A420BD1DDE93F
S214007B500223019960682AF097FEDDE90223019965
S214007B60034814F0AFFB04B010BD00BF43574C48A9
S214007B7047DE0300F0B5044685B0002800F03081EB
S214007B80002900F02D814FF4D813C0F88C3000F196
S214007B900803C0F89430934B0422C0F898300223B0
S214007BA000F10C05C0F8A0508F4D80F89020C0F86A
S214007BB0A45000F10E05C0F8AC508C4D80F89C30F7
S214007BC0C0F8B05000F11005C0F8B850884D80F8E5
S214007BD0A830C0F8BC5000F11805C0F8C450854D58
S214007BE080F8B430C0F8C85000F11A05C0F8D0507C
S214007BF0814D80F8C030C0F8D45000F11C05C0F8A4
S214007C00DC507E4D80F8CC30C0F8E05000F11E0508
S214007C10C0F8E8507A4D80F8D830C0F8EC5000F143
S214007C202005C0F8F450774D80F8E430C0F8F850DE
S214007C3000F12205C0F80051734D80F8F030C0F80E
S214007C40045100F1240580F8FC3080F80821C0F8C3
S214007C500C516E4D80F81421C0F8105100F12C051F
S214007C60C0F824516A4D00F12802C0F8285100F1EE
S214007C702E05C0F83051674DC0F81821C0F83451B1
S214007C8000F13005C0F83C51634D644AC0F84051DD
S214007C9000F13205C0F84851614DC0F81C21C0F80B
S214007CA04C512525012280F8505100F13405C0F8CA
S214007CB054515C4D80F82021C0F8585100F17C05E5
S214007CC0C0F86051584D80F82C31C0F8645100F16E
S214007CD07E05C0F86C51554D80F83831C0F87051AB
S214007CE000F18005C0F87851514D80F84431C0F855
S214007CF07C5100F18205C0F884514E4D80F85C310D
S214007D00C0F8885100F1840580F8683180F8743135
S214007D1080F8803180F88C31C0F89051464D80F85C
S214007D209831C0F8945100F18605C0F89C51434D37
S214007D3080F8B031C0F8A05100F18805C0F8A8510D
S214007D403F4D80F8BC3100F11403C0F8AC51C0F8C8
S214007D50C03100F112053B4BC0F8B4513A4DC0F8A3
S214007D60C43100F1160380F8A421C0F8B85180F899
S214007D70C821C0F8CC31CA798D6802EB420305EB06
S214007D80830600F18C077760304E45F823606E4618
S214007D90531CCB710B7804F15C0503702C4B1860F8
S214007DA0FFF7C6FE20462AF0A4FD324610213320F7
S214007DB0A76EFEF727FE18B996E80F0085E80F00B5
S214007DC02846A7662AF0BDFDE36DE367236EC4F878
S214007DD08030636EC4F8843094F86C3084F8883051
S214007DE005B0F0BD05052100080521000B0529009A
S214007DF000062100010621000206210003062100DC
S214007E00040621000506210000FF230001FF2300D1
S214007E1010FF210111FF210112FF210102FF2000A6
S214007E2020FF420130FF210131FF210132FF2101F5
S214007E3033FF210134FF210135FF210136FF3000D9
S214007E400F052100100528000E052900040B011B54
S214007E505C4100202DE9FF414C4B1C688CB1237817
S214007E6083420ED1606860B14FF61273994241D0DA
S214007E700AD84FF6107399422CD04FF611739942D8
S214007E8031D004B0BDE8F0814FF62073994238D067
S214007E90D03189B20529F4D8E36F04F15C00E365BC
S214007EA0D4F880302366D4F8843063662AF049FD1F
S214007EB0024610213320FEF7B5FDE36DE367236E1F
S214007EC0C4F88030636EC4F8843094F86C3084F85C
S214007ED08830D6E70021E28D2AF0C4FC0023E38533
S214007EE00028CED121E00121228E2AF0BBFC0023FF
S214007EF02386F5E70221628E2AF0B4FC002363860F
S214007F00EEE7002394F834504FF00A0C232D28BFD8
S214007F102325CDE9013304F1350703939D420DD89F
S214007F20DDE9022301992AF0AFFC6068FFF776FDD1
S214007F30204604B0BDE8F0412AF0DBBCFA5C562AC5
S214007F4014D0572A14D0412A0DD101210022013322
S214007F50DEB2F3B29D420DD804AE013B06EB8101C2
S214007F60DBB241F80C2C0133DBB2D7E70021EDE79A
S214007F700221EBE717F806E00136AEF13008B8F15B
S214007F80090FE9D80CFB02E2303AE2E75C41002038
S214007F9070B50D461346064614460A4601462B485B
S214007FA014F090F9B5F5817F3FD00DD8082D08D88C
S214007FB0082D08D8DFE805F02407070707072F294C
S214007FC03300202D3DD070BD40F604339D4232D0A4
S214007FD00CD8B5F5407F22D040F202739D42F2D114
S214007FE021463046BDE8704000F07ABB4FF60143AC
S214007FF09D42E8D121463046BDE87040FFF75ABCA6
S2140080002046BDE87040FFF7E3B821463046BDE89D
S214008010704001F017B82146304600F0BDFD2146FD
S2140080203046BDE8704000F045B921463046BDE810
S2140080307040FFF7DFBA21463046BDE87040FFF7D4
S21400804009BF2046BDE8704000F022BC77DE030082
S2140080500148FEF7B1BF00BF917F00004FF4C01388
S21400806030B5036001230371074B8C688360CA79BF
S21400807002EB420304EB83056860044844F82300DF
S214008080531CCB7130BD00BF947B0400040001017B
S21400809038B500250446458005482AF0E4F9FDF782
S2140080A0C9FA2A4620780321BDE838402AF039BAB2
S2140080B06041002043880BB9FFF7EABF013B9BB243
S2140080C04380002BF8D04FF47A7101482AF0C6B9E5
S2140080D06041002038B5114B0446186019B9BDE858
S2140080E03840FFF7D5BF41804FF4FA714FF6FF7264
S2140080F008460B4DFDF77AFA0A4B2846C5E90034C8
S214008100FEF78CFD28464FF47A712AF0A7F92078FE
S2140081100022BDE8384003212AF003BA8841002037
S21400812060410020B580000010B51446084A10686B
S21400813050B14CB953B1BDF80820012A06D91988A8
S214008140FFF7C8FF204610BD0124FBE70324F9E72C
S214008150884100200B7830B503700D4B1860002363
S21400816043800C4B436002230372C318C360CA7972
S2140081708D6802EB420305EB83040430606006481A
S21400818045F82300054BA360531CCB7130BD00BFE0
S2140081908841002000002101030001012981000020
S2140081A02DE9F84F06460F469346104C04F1300A68
S2140081B054F8049BB9F1000F14D15445F8D1BDE82A
S2140081C0F88F09EB85055B463A4631466868FDF749
S2140081D097F808F1010899F802305FFA88F5AB4283
S2140081E0EFD8EAE74FF00008F5E700BF8C41002023
S2140081F038B50024044D55F8040B08B12AF03BFCB2
S21400820001340C2CF7D138BD8C41002038B511F064
S214008210FB050C460CD182B17BB1042C117803D13E
S2140082200B1E18BF012303732AF0BEFC284638BD78
S214008230034814F047F80125F8E70325F6E700BFE2
S214008240AADE030070B58678012E0DD90A2908D15A
S21400825062B1012B0AD91388C3812AF064FC00207E
S21400826070BD034814F02EF80120F9E70320F7E765
S214008270CCDE030030B40E4D0C4655F820001146F7
S2140082801A46BDF8083078B1082C07D0B4F5407F00
S21400829007D0062C08D130BC2AF08FBC30BCFFF7C4
S2140082A0B5BF30BCFFF7CEBF012030BC704700BF63
S2140082B08C410020034B53F8200008B12AF033BC51
S2140082C0704700BF8C410020F0B5724A0B78044618
S2140082D042F823004370437B0D4685B00BB9FE235E
S2140082E04373E3890BB9FA23E3814FF6FF73E38206
S2140082F0012320780A213430237601AAC0B2FEF783
S21400830081FB70B9BDF80630BDF80420A382BDF825
S214008310083062822382BDF80A30E3829DF80C3072
S21400832023764FF6FD71E28A531E9BB28B4208D825
S214008330E281A37C012B02D0022B07D000232373FB
S2140083400CE0A38A002BF4D0E381F2E7E37C002B59
S21400835014BF01220022227300D0637320462AF045
S2140083608AFB4FF480130126E36104F10C03636279
S214008370494B84F82060A36204F1120384F82C6051
S2140083802363E879AA6800EB400302EB830104F15B
S2140083901C074F60414F04F1400E42F823704FF423
S2140083A000133F4F8F600221236404F10D03A36482
S2140083B03C4B84F84460E36404F11003636583195E
S2140083C0DBB203EB430302EB830C84F85010CCF8CB
S2140083D004E0DFF8DCE042F823E04318DBB2CCF838
S2140083E00870EB7194F802C0B44550D9DFF8C4C0E9
S2140083F084F86810C4F864C004F10E0CC4F86CC0AD
S214008400DFF8B4C084F88010C4F870C0DFF8ACC0E1
S21400841084F88C10C4F878C0DFF8A4C084F89810EC
S214008420C4F87CC0DFF89CC084F8A410C4F884C0EC
S214008430DFF894C004F11601C4F888C0DFF88CC0D9
S214008440C4F8A810C4F890C0DFF884C01649C4F871
S21400845094C0DFF880C0C4F8AC10C4F89CC0DFF845
S21400846078C004F1180103EB4303C4F8B41084F891
S2140084707460C4F8A0C084F8B06002EB8301643472
S2140084804C600A4C033042F823408F60E87105B018
S214008490F0BD00BF8C410020034030010600010201
S2140084A07582000000FF21010F001801000301077C
S2140084B00800010207002100080030006A79002049
S2140084C00B402100127900200C402100107900207A
S2140084D00A4019000E7900201040210113B5044609
S2140084E080B100786A4627300821C0B2FEF78AFAC3
S2140084F050B9DDE900230948C4E90223C4E924236E
S21400850013F0E0FE02B010BD002200230448C4E9C8
S2140085100223C4E9242313F0D5FEF3E7EEDE0300BE
S21400852019DF030070B50D460446002858D0002910
S21400853056D00B7804F1200603702A4B1860FFF71C
S214008540CDFF4FF414132362082304F11002626374
S214008550254A84F82430A26304F111022264234AD7
S214008560E31862640422A362214B84F84820E36285
S214008570012384F8542004F11802A2651D4A04F170
S2140085801401E26504F11C0262661B4AE164A266FD
S21400859004F11D0222671949194A84F8303084F81C
S2140085A03C3084F8603084F86C3084F8783004F11D
S2140085B01E0321656267E367EA79A96802EB420356
S2140085C001EB830046600F4841F82300531CEB7113
S2140085D02978D4E902230C48BDE8704013F072BE37
S2140085E070BD00BFBC410020000330000103220024
S2140085F000021800030318000603180002032200F6
S21400860000F020010207010847DF030013B5044607
S21400861078B1D0E902230078CDE9002327306A46F6
S2140086200821C0B2FEF7FEF9D4E90223024813F08F
S21400863049FE02B010BD00BF78DF030030B5044627
S21400864089B040B3436833B31A6822B1126812B1D6
S214008650586801A990479DF81030E3B10399D4F803
S21400866080208A4207D8D4E902308A1A9B1840F143
S2140086700000C4E90230C4F8801029F0F8FED4F8EF
S2140086808430064AC31A9342054604D92046FFF7AB
S214008690BDFFC4F8845009B030BD00BFDF930400AE
S2140086A010B50446C0B1002300220021C0E9022311
S2140086B0C0E924234368C0F880102BB11A681AB1A9
S2140086C052680AB1586890472046FFF79FFFBDE8FA
S2140086D01040024813F0F6BD10BD00BFA0DF030037
S2140086E0B1F5704F034607D1044A106820B10278EE
S2140086F09A4201D1FFF7D4BF704700BFBC410020AB
S2140087000368064A0C21136043685360038913818B
S214008710438922205381FEF785B900BFC04100205F
S21400872010B50368044686B0FBB1114813F0CAFDC5
S214008730A37B104A8DF804304FF48273ADF80630F0
S2140087400123CDE90223002301A804938DF81430F9
S214008750FEF792FC204661892AF054FA2046FA2158
S21400876050F8143B594329F079FE06B010BD00BFFF
S214008770C1DF03002000000110B5064C236843B19A
S214008780054813F09FFD2068BDE8104041892AF097
S21400879039BA10BDCC410020E2DF030070B536497F
S2140087A010460C68BDF81020002C5ED003285CD85C
S2140087B0DFE800F0021E2745002B5AD0022A58D9BF
S2140087C01D78B3F80160291E18BF012132462B48D8
S2140087D013F078FD2DB1314620462AF013FA00201A
S2140087E070BDE573FA206368584329F0DBFEF6E7B0
S2140087F0234813F067FDE37B002B38D00023E37398
S214008800F0E7002B35D0032A33D91D681D482946CA
S21400881013F058FD1C4B2A1F9A4201D90220DFE7AD
S21400882023680BB19D42F9D823899D42F6D3E37B9A
S2140088306560B3B9FA20684329F0B4FE11E0002B56
S214008840CED0012ACCD91D881048294613F03AFD0F
S214008850002DE3D063689D42E0D8E37B2581002BA2
S214008860E8D12046FFF74CFFB9E70120B8E704201F
S214008870B6E70320B4E700BFCC41002005E00300C4
S2140088803CE003005BE00300FCFF6D0086E00300B5
S21400889038B5154B1C6834B3F0B92168134813F08B
S2140088A011FD23683BB16268934204D2104813F06E
S2140088B009FD6368236004F11405284629F0D3FDFA
S2140088C0236823B1FA212846594329F0C7FD2046DC
S2140088D0BDE83840FFF714BF032804D16189054876
S2140088E013F0F0FCF3E738BDCC410020B1E0030004
S2140088F0DFE0030014E1030070B53E4B0D4604466E
S21400890009781860002A6FD101231A46A173002146
S214008910E1730121A1814FF46151C4E900132823BA
S214008920354E22810C21324622206381FEF76AF8FA
S21400893060B9D6E900230AB19A4207D33189994231
S2140089409FBFC4E900237389218163812B4B2C4A86
S214008950E363042384F8403084F84C30E31823653E
S214008960284BA2646365022304F10802E265264AE6
S21400897084F85830226604F10A02A266234A84F874
S214008980643084F8703004F10C03E2666367646454
S214008990EA79A86802EB420300EB830104F13C0687
S2140089A04E601B4E40F82360FA261A4B1A488B601E
S2140089B0531CEB71FEF706FB208904F11405704387
S2140089C029F0F0FD618920462AF01CF9134B284651
S2140089D0C4E90534FEF722F9216849B128467143F7
S2140089E0BDE8704029F03ABD4FF4F07302228DE7DF
S2140089F070BD00BFCC410020C04100200000230114
S214008A00010023000200210003002101FDFF2100D8
S214008A10200001059D87000079870000218700005F
S214008A20134B10B51C680CB3E37BEBB129F01FFDAC
S214008A302369C01A002809DB0E4813F043FC002304
S214008A40FA20E3736368584329F0ACFDE37B5BB11F
S214008A502489FA235C4329F0B0FDA04206D02046C4
S214008A60BDE8104029F09EBD6468F2E710BD00BF67
S214008A70CC41002041E1030073B5002401260A4DD5
S214008A8055F8042B52B1D36C43B105335078062108
S214008A900093002210230196FEF72EFB01340C2CC7
S214008AA0EED102B070BD00BFD041002038B5002422
S214008AB0044D55F8040B08B12AF0B7F801340C2C15
S214008AC0F7D138BDD0410020042908B50AD172B1CB
S214008AD06BB113781BB92AF0D3F8002008BD2AF032
S214008AE0C5F8FAE7034813F0EDFB0120F6E703208C
S214008AF0F4E700BF7BE1030010B4054C114654F8C0
S214008B0020001A46BDF804305DF8044BFFF7DCBFC2
S214008B10D04100200229024608B50ED004D839B943
S214008B2010462AF0ADF806E04029F9D0412907D1D1
S214008B3010462AF09BF8002008BD2AF0ABF8FAE7AA
S214008B40024813F0BFFB0120F6E700BF9BE10300DD
S214008B5010B4054C114654F820001A46BDF80430EF
S214008B605DF8044BFFF7D6BFD0410020C26C094B1E
S214008B7052791A7082785A70C2789A70026D12B161
S214008B8090F85420DA70007804210930014AC0B207
S214008B90FDF748BFD6690020034B53F8200008B104
S214008BA02AF0BBB8704700BFD041002038B5044655
S214008BB00078084D09302A460421C0B2FDF722FF8E
S214008BC030B96B78A370AB78E370EB7884F85430E8
S214008BD038BD00BFD669002038B504460078114D70
S214008BE009302A460421C0B2FDF70CFFC8B9A378A5
S214008BF02A78022B0CD004D863B920462AF040F815
S214008C0001E0FF2B0AD02046BDE838402AF00DB818
S214008C10002AF2D120462AF029F8F4E7002AF9D1F2
S214008C20EBE738BDD6690020F8B504460B783D4A18
S214008C300D4642F823004370FFF7B8FFE36C3A4A4C
S214008C405C631A632046FFF7C7FF204629F0EDFF56
S214008C504FF4801301266360E36C26720533E360ED
S214008C60324B26752361A31CA361236D002B54D0C1
S214008C702F4A84F82060E261E21C62622D4A84F882
S214008C802C60A26204F15402226393F83420002A76
S214008C9045D093F83620204684F855201B8FA4F83C
S214008CA056302AF001F894F85510206D29F0E1F9B5
S214008CB0B4F85610206D29F0E6F91F4B84F838609A
S214008CC0636304F15503E3631C4B06262364022307
S214008CD084F8443004F15603A3640627EA79A968A9
S214008CE002EB420321F8237001EB8300012383701B
S214008CF0134B04348360531C4460DBB2114C03EB0B
S214008D004303C67041F8234001EB83000023436011
S214008D100D4B02328360EA71F8BD0226DDE70426B9
S214008D20DBE700BFD0410020F72C030003403001F2
S214008D3001FF300102FF100103FF200104FF2101A3
S214008D40518B000008000100F98A0000FF2805D1B9
S214008D50034B1878003818BF012070470020704772
S214008D60B7690020F8B542790D461046FFF7EEFFCA
S214008D700F4C28B100260F4F3B78B3420DDCF8BDF0
S214008D805823013A03FB024019B1BDE8F84029F028
S214008D906DBFBDE8F84029F073BF204625B129F025
S214008DA065FF01365834E7E729F06AFFF9E700BFA8
S214008DB0C8270020B769002010B542791046FFF793
S214008DC0C5FF0D4B68B10D4A117800228A4201DBBF
S214008DD0002010BDDC6C58336479002CF9D10132C8
S214008DE0F4E75821013A01FB0233DB6C587900386E
S214008DF018BF0120EDE700BFC8270020B769002094
S214008E0010B5427904461046FFF7A0FF40B9BDE80A
S214008E1010405820084B013A00FB023029F03ABFB8
S214008E202046FFF7C9FF80F00101C9B22046BDE821
S214008E301040FFF797BF00BFC827002008B542794B
S214008E401046FFF783FF38B942B1054B1B789342B3
S214008E5034BF0020012008BD0120FCE71046FAE7D9
S214008E60B769002070B500250A4C0B4E3378AB422C
S214008E7000DC70BDD4F8A41041B123791BB12046A4
S214008E80FFF7DCFF10B9084629F0C4F80135AC340A
S214008E90ECE700BFD8290020B869002010B586B0DE
S214008EA00446FEF7B1F8012812D16378094A8DF816
S214008EB004304FF48273ADF806304FF48073CDE97A
S214008EC00223002301A804938DF81430FEF7D4F88B
S214008ED006B010BD0800070110B586B00446FEF7C0
S214008EE093F8012820D16278104B8DF804204FF4B7
S214008EF0827294F8A01094F8A10059701870ADF81A
S214008F00062004934FF480720223094901A88DF8C5
S214008F101430CDE90212FEF7AFF894F8A130013B09
S214008F2018BF012384F8A13006B010BDDA6900200E
S214008F300800050110B58378044686B0BBB30379F4
S214008F40022B05D1FFF77AFF10B12046FFF758FF36
S214008F50A379022B02D1204629F052FF94F8A830BC
S214008F60BBB1FEF751F8012813D194F8A830114A86
S214008F708DF804304FF48273ADF806304FF48073EA
S214008F80CDE90223002301A804938DF81430FEF7E0
S214008F9073F82046FFF7A0FF0223552212216078BF
S214008FA0A4F86C3006B0BDE8104029F0BABA06B096
S214008FB010BD00BF060002014388094A082113803D
S214008FC08388538083681B8A938090F8A0309371BF
S214008FD08379D37100780430C0B2FDF723BD00BF9B
S214008FE0BC64002038B50D4604460178134813F0DB
S214008FF069F94FF602739D4211D1114B1A782AB9BE
S21400900062712046BDE83840FFF7D6BF6379FF2B74
S214009010F7D00BB19A42F4D201236371F1E7B5F5AC
S2140090207F4FEED1204629F0B3FFA378022B0CBF6A
S21400903001220022A3689A70E3E700BFB7E10300AD
S214009040B7690020024B53F82000FFF7CBBF00BFE4
S2140090500042002038B504460078154D04302A46F4
S2140090600821C0B2FDF7CEFC20B1BDE8384011485B
S21400907013F028B92B8863806B88E978A380AA88C8
S214009080A3681A82AB7984F8A030EB79A3710A4BF7
S2140090901B780BB9637138BDFF29FCD009B1994222
S2140090A0F9D9064813F00EF923780133F2E700BF2A
S2140090B0BC640020D1E10300B7690020FAE1030098
S2140090C0F8B504460B78474A0D4642F8230043702D
S2140090D0FFF7C0FFA268444BD465D364434B022617
S2140090E05365434BA11C13654FF44013E360012303
S2140090F06161E1623F49103221632265211D3E4ACB
S214009100A1633E483E49626504F1A002A061E163A6
S214009110E265E01C611D3B4A206261643A483B49B7
S2140091202266A21D2374237784F8283084F834300E
S21400913084F84030A16484F84C6084F8583084F891
S21400914064306062A266E879AA6800EB400102EB30
S214009150810704F10C0CC7F804C04FF0060C2C4F26
S21400916042F82170C118C9B201EB410142F821C092
S21400917002EB810700217960264F84F8803027674C
S214009180254F84F89830A767244F254BE767254F6F
S21400919084F8746084F88C60C4F89C3004F16C0623
S2140091A0831CC4F88470C4F890601F4F1F4EDBB257
S2140091B003EB4303C4F89460C4F8887002EB83069C
S2140091C07034746008261A4C42F82340C31CDBB285
S2140091D003EB430302EB8304043042F82360616030
S2140091E0E871F8BD00420020752E0300312F030001
S2140091F0358F000001FF300104FF20011000300110
S21400920002FF200105FF300100FF300103FF2101AE
S214009210070001084A002100967B04005100100058
S214009220987B0400997B0400550021006F0018000D
S2140092301200010400239B6AB3F5804F03D219681D
S214009240064A914203D000230370836070470122D0
S21400925002709A689B694260F7E700BF07B0CD5E70
S214009260024B034A1A602BF04CBB00BF00000020E4
S21400927002020FF073B53F4B04461A781AB1022269
S2140092801A7002B070BDCDE900220028F9D0012680
S2140092901E7033F0C3FE384D384B186017F0F4FDDF
S2140092A02B785BB902F0F2F940B935480823354A05
S2140092B03549006801F038FE00B92E70334B5A6805
S2140092C0E260334A9A601A6E22605A6E6260D3F881
S2140092D07021A2601B6E5C042CD52E4AD368D8077A
S2140092E0FCD42D4B1A68531C29D04FF4801393409E
S2140092F02A4A13660423294C4FF0804223664FF413
S21400930080632366102323664FF400536846236663
S21400931001A92266636629F053FE009B2366019B23
S21400932063662B78002BACD0164B1A6822665B68F7
S2140093306366A6E71A4AD368D907FCD4D1E7194B67
S2140093401B78002BD6D1184B5A68144B12B94FF421
S21400935080121A66154A526812B94FF400121A663D
S214009360134B5B68002BC5D14FF480020B4B1A667B
S214009370C0E700BFDD690020DE6900204042002013
S214009380147400204442002000710800008000444D
S21400939055CEAC0000000440E0730020009000446E
S2140093A000000450DC6900200080055000C0055015
S2140093B00000065038B5224D04462B78012B02D00B
S2140093C001232B7038BD0028FCD029F01EFE01308A
S2140093D009D029F01AFE40F20113984203D0194A28
S2140093E0D368DB07FCD42268174B1A6662685A6695
S2140093F0A268C3F87021E268D40744BF00229A60CE
S214009400124B1A68013213D1114A127882B91149E7
S2140094104968C80748BF1A600F4A5268D10744BF58
S21400942001221A600D4A5268D20744BF02221A600F
S21400943017F032FD0A4B186833F0EBFD0023C0E747
S214009440DD6900200000044000800044E073002036
S214009450DC6900200080055000C005500000065062
S2140094604042002070B50024A36AB3F5804F23D293
S2140094701A68134B9A421FD1124E337813F0FD052B
S21400948018D14FF480341048FFF7F4FE032004F0A0
S21400949075FD0E4B0320DC6004F054FD0C4B1C6184
S2140094A0AB6ADB69984704460748FFF783FF0CB9A9
S2140094B001233370204670BD4FF48174FAE700BF75
S2140094C007B0CD5EDC6900203042002000A00044DA
S2140094D00090004413B5204B1B7803B9FEE7002329
S2140094E01E4CCDE900336A4608231D49206801F06A
S2140094F01BFDF8B91B4AD2F84031D2F840211F2B89
S2140095004FF0010311D9203A9340019A1A43019271
S21400951008236A461249206801F08EFE124B134A51
S2140095201A602BF0EEF902B010BD9340009A1A4371
S2140095300092EDE72D28F1D10A4AD2F84031D2F850
S21400954040211F2B4FF0010385BF203A93409340E4
S214009550019398BF0093DBE7DD69002014740020B8
S2140095600071080000800044000000200B020FF08D
S21400957038B50025AB6A0446B3F5804F10D21B6B96
S214009580B3F5804F0CD20748FFF774FEAB6A20464F
S2140095901B6B5B689847BDE838400248FFF70ABF78
S2140095A038BD00BF4C42002013B50024A36A0190CA
S2140095B0B3F5804F13D21B6BB3F5804F0FD209481B
S2140095C0FFF758FEA36A01211B6B01A89B69984709
S2140095D004460448FFF7EEFE204602B010BD4FF4E6
S2140095E08174F9E74C42002070B50026B36A044641
S2140095F0B3F5804F0D4612D21B6BB3F5804F0ED2DB
S2140096000848FFF737FEB36A20461B6B29469B695E
S214009610984704460348FFF7CDFE204670BD4FF43A
S2140096208174FAE74C42002070B50026B36A0446FF
S214009630B3F5804F0D4612D21B6BB3F5804F0ED29A
S2140096400848FFF717FEB36A20461B6B2946DB69FE
S214009650984704460348FFF7ADFE204670BD4FF41A
S2140096608174FAE74C420020F8B50027BB6A04462E
S214009670B3F5804F0D46164611D21B6B7BB10948D9
S214009680FFF7F8FDBB6A20461B6B324629465B6A2D
S214009690984704460348FFF78DFE2046F8BD4FF472
S2140096A00174FAE74C42002070B50026B36A0446FF
S2140096B0B3F5804F0D4612D21B6BB3F5804F0ED21A
S2140096C00848FFF7D7FDB36A20461B6B29469B6AFE
S2140096D0984704460348FFF76DFE204670BD4FF4DA
S2140096E00174FAE74C420020F0B50027BB6A044636
S2140096F0B3F5804F0D461646ADF5337D20D21B6B75
S214009700B3F5804F1CD21048FFF7B4FDBB6A204665
S2140097101B6B40F2C1225B6A01A99847044630B130
S2140097200948FFF747FE20460DF5337DF0BD836AF6
S21400973032461B6B2946DB6A01A898470446EFE7CA
S2140097404FF40174EFE700BF4C42002010B5002430
S214009750A36AB3F5804F10D21B6BB3F5804F0CD2C3
S2140097600748FFF787FDA36A1B6B1B6B98470446E9
S2140097700348FFF71FFE204610BD0124FBE700BF8D
S2140097804C420020F0B58FB0044601A80E461546A0
S214009790FFF7EEFE9DF80C30012B12D1B5F5402FE9
S2140097A027D8B4F5402F24D86319B3F5402F20D816
S2140097B021462A46304614F027F8002420460FB0EB
S2140097C0F0BD0027BB6AB3F5804F15D21B6BB3F50F
S2140097D0804F11D20A48FFF74DFDBB6A2A461B6B25
S2140097E0314620465B6B984704460548FFF7E2FD86
S2140097F0E4E740F20244E1E740F20114DEE700BF8E
S2140098004C420020F0B58FB0044601A80E4615461F
S214009810FFF7AEFE9DF80C30012B1FD1B5F5402F9B
S21400982006D8B4F5402F03D86319B3F5402F13D9E3
S21400983040F2024420460FB0F0BDE258013225D176
S21400984004339D42F9D82A463146204629F00DFCBD
S2140098500028EDD00024EDE70023F2E70027BB6ADE
S214009860B3F5804F15D21B6BB3F5804F11D20A4863
S214009870FFF700FDBB6A2A461B6B314620469B6BF2
S214009880984704460448FFF795FDD3E740F20344A3
S214009890D0E740F20114CDE74C42002070B58EB000
S2140098A0044601A80D46FFF763FE9DF80C30012B19
S2140098B022D144EA0503C3F30C03002B33D1B5F5DC
