S01B00006275696C642F72656C656173652F7A69676265652E73333714
S2140040000810002035850000C9CC0000731103009D
S21400401073110300D1CC0000D9CC0000731103004B
S214004020731103007311030073110300731103006F
S214004030DDCC000068580400731103007311030000
S2140040407311030073110300731103004D80000009
S214004050731103007311030073110300731103003F
S2140040607311030073110300DDD100007311030008
S214004070731103007311030073110300731103001F
S214004080731103007311030073110300731103000F
S21400409073110300731103007311030073110300FF
S2140040A073110300FD880000E1880000731103000F
S2140040B0731103007311030073110300C52502007A
S2140040C0856C0300816C0300291D02009B6C0300B5
S2140040D0896C0300852502008D6C0300B909020077
S2140040E00526020073110300731103007311030009
S2140040F0731103007311030073110300731103009F
S214004100731103007311030073110300731103008E
S214004110731103007311030073110300731103007E
S214004120731103007311030073110300731103006E
S20800413073110300FF
S214004134F0B5114A114C124E00F00105E3695F0711
S21400414413D40DB9334213D103EA00078F4207D1C3
S2140041540B4A1A40002A14BF6FF001000020F0BD7D
S214004164013AEBD16FF00200F9E74FF0FF30F6E7C3
S2140041746FF00100F3E700BF80969800000003503C
S214004184020001000B4B70B5D96911F480310DD1D2
S21400419401244FF48072084E084DF46020462C64C7
S2140041A41A61FFF7C5FF3464EC6070BD6FF0010060
S2140041B4FBE700BF0000035000100350002003502C
S2140041C438B541F6713301220C4C0021E569E363EE
S2140041D40B4B05F48035DA600223606121202361ED
S2140041E4FFF7A6FF10B92120FFF7A2FF0122054B17
S2140041F4DA600DB10023E36338BD00BF000003504E
S214004204001003500020035070B5134C6061E3693E
S2140042145B071ED40E4656F8043B8D18A361AE42C7
S2140042240BD10423002121202361FFF781FF58B915
S214004234BDE870402120FFF77BBF08210846FFF742
S21400424477FF10B10423236170BD56F8043BA361C5
S214004254E5E74FF0FF30F7E7000003502DE9F84399
S214004264154641F67132164B8946DF69DA63012238
S214004274064603F58053DFF8508007F48037DA608B
S21400428455B9284601220F4BDA601FB10022A3F568
S2140042940053DA63BDE8F88306F5005404EA08041C
S2140042A4A41BAC4228BF2C46494622463046FFF79C
S2140042B4ABFF0028E6D12644A1442D1BE0E700BF4F
S2100042C4000003500020035000E0FFFF45
S2140042D02DE9F04F4FF0FD0BC9B09A460DF11B09C2
S2140042E09DF8503108AFCDF80C90CDF808B0019786
S2140042F0059303890446009383790E4690464188C9
S2140043008288407812F0AAFE054650B10090A38835
S214004310002062883A4913F0E5F9284649B0BDE81E
S214004320F08F99F800002FF0FFFF38B12846A388D9
S2140043306288344913F0D6F98D25EEE75A46394699
S21400434099F800002FF098FF8346002851D0529B22
S2140043501BB1BDF84C3198424BD8002399F8009019
S2140043600793A9F14102012A5FFA8BF123D8384658
S2140043700139254ADFF898C05FFA81FE734513DBE2
S214004380059B04210792C3B907AF18221F489FED6B
S2140043901A7B02FB060420460A460830394684ED9E
S2140043A0027B17F0C7FE11E010F8011F01335140E1
S2140043B00CFB01F2E2E7059B33B123464A4638463A
S2140043C0009610F0CDFDA8E70829DED9B8F1000F59
S2140043D001D088F80090BAF1000F01D0AAF800B01A
S2140043E0529B002B99D05A46184608A917F0A2FEF1
S2140043F093E7012591E700BF0000000000000000E1
S214004400C2000400F7000400C59D1C81181100209E
S21400441093010001000000002DE9F04F93B0CDE9B4
S2140044200A32DDE91C530E9353EC102BCDE908013C
S214004430104619468DED060B1E9E17F005F980B145
S214004440DDE906014FF0FF32C54B17F025F940B9FC
S214004450DDE906014FF0FF326FF4801317F0FEF827
S21400446070B1DDE908019DED060B0E9B1E96CDE9A9
S2140044701C53DDE90A3213B0BDE8F04F00F088B9EE
S2140044800022DDE90601002317F0E8F8002800F016
S2140044903381DDE906A303F1004BCBF30A5016F493
S2140044A08063A0F2FF3008BF06250F9316F0FAFDD2
S2140044B09BA3D3E9002316F05FFE9BA3D3E900235A
S2140044C016F0A4FCCBF31304894644F07F518046D3
S2140044D00022A44B504641F4401116F095FC94A3DC
S2140044E0D3E9002316F048FE02460B4640464946EE
S2140044F016F08CFC17F0DAF8044616F0D3FD8EA3FF
S214004500D3E900238046894616F036FE0022964BF5
S21400451016F07CFC17F0CAF889A3D3E900230746F7
S2140045204946404616F028FE80463846894616F02C
S214004530B9FD85A3D3E9002316F01EFE02460B46FE
S2140045404046494616F060FC02460B46CDE90C2371
S21400455016F012FEDDE90C23804689461046194601
S21400456016F054FC0022CDE91001804B4046494627
S21400457016F02CFF00227E4B16F048FC02460B4637
S2140045804046494616F022FF00227A4B16F03EFCC3
S21400459002460B464046494616F018FFDDE90C2356
S2140045A08046894600204FF0804116F02DFC0246DA
S2140045B00B464046494616F029FC02460B46DDE906
S2140045C0100116F003FF07F2FF3700226A4B16F0C1
S2140045D01DFC00223B0516F0CFFD52465B4680468A
S2140045E0894617F059F8002840F08980CDE90C89F3
S2140045F004F16303C62B8CBF0527042731051BD5A2
S21400460053A3D3E900235046594617F03BF8002839
S2140046107FD051A3D3E900235046594617F01EF821
S214004620002876D00027A542C6BF2C1B04F1FF3514
S21400463000253C4646F480660E9B9F422CBF4FF0FA
S2140046400008A3EB070816F0020903D0002F18BFD6
S2140046504FF000083CB1DDE90C235046594616F0F1
S214004660B5FE82468B46DDE906010022002316F0E1
S214004670F5FF10B10BF100439B46DDE9080126F477
S2140046800063CDE90183DDE90A324BEC10AB0095FF
S21400469000F07EF802465FB3DDE9091316F0200F3E
S2140046A000F10105089E0CBF65204520B047DDE9F6
S2140046B008010523002205930A23002CCDE90232C7
S2140046C007F1FF374FEAD473B8BF64422A46019316
S2140046D004970A9B009431F043FC0246B9F1000FA0
S2140046E006D00B9BC41A0B9B1A190E9BA34245D8E7
S2140046F0104613B0BDE8F08FDDE906ABCDE600222C
S214004700404649461A4B16F061FE013CCDE90C01C5
S2140047106EE7002D90D00F9B002B8DD0013D8BE7D0
S214004720FB799F501344D33FB3C8608B288AC63F9B
S21400473061436F63A787D23F71A379094F930A40FD
S2140047401655B5BBB16B0240EF39FAFE422EE63F76
S2140047502D431CEBE2361A3F0000000080842E41F9
S214004760FFFFEF7F0000F83F0000E03F00002C4016
S21400477000002440000018400000F03F2020DDE943
S2140047800913089DA8470134ADE700BF00000000EC
S2140047902DE9F04F5BEC10AB97B0CDE90501DDE9F4
S2140047A02058CDE90723504652465B465946229F7D
S2140047B016F04AFF70B90323CDE902870193AA4B8E
S2140047C00093DDE90501DDE9072331F0FBFA17B0B8
S2140047D0BDE8F08F4FF0FF326FF480135046594615
S2140047E016F03CFF28B10423CDE9028701939F4BC6
S2140047F0E6E74FF0FF32504659469D4B16F04CFF09
S21400480068B19C4A07F00403002B08BF03229A4BAA
S2140048101CBF13460422CDE902870192D0E750461A
S2140048208DA3D3E90023594616F036FF38B98CA37A
S214004830D3E900235046594616F010FF68B1DDE96B
S2140048400723DDE905014BEC10ABCDE92187209568
S21400485017B0BDE8F04FFFF7DFBD0022002350463B
S214004860594616F0FBFE002800F091805B46524643
S2140048700020002116F0C8FA012382468B460993D1
S21400488017F4806400F08580092D40F285800024AE
S21400489030210EABA5F109020134202C03F8011BD0
S2140048A0A5EB040901D09442F6D15946504616F0BD
S2140048B0FDFE724B054603EBC90393ED007B8DEDC1
S2140048C00A7B16F0EFFB02460B465046594616F09A
S2140048D09BFADDE90A2316F04FFC02460B46CDE9AB
S2140048E00C2316F00BFF064616F0CCFB02460B46D2
S2140048F0DDE90C0116F088FA02460B46CDE90C23DA
S21400490000225F4B16F0C8FE002848D0013630461D
S21400491016F0B8FB02460B46DDE90A0116F0A8FEC3
S21400492008B100260135B9F1000F45D1284616F02A
S214004930B9FB02460B465046594616F065FA002269
S2140049404F4B16F08BFE10B9E90700D501350A214A
S2140049500EAB1A19202C0AD095FBF1F001FB10556E
S214004960303502F8015B013405460028F2D107F025
S2140049700302012A55D1B8F1000F52D0099A12B994
S21400498017F00C0F01D008F1FF38302240E00990F4
S21400499076E74FF0060988E7A946002485E7002257
S2140049A0DDE90C01364B16F059FE0028BBD10EB1DE
S2140049B0F007B8D50136B6E70A210EAB1A19202C37
S2140049C00DD0B6FBF1F001FB1063092E03F13003A6
S2140049D009F1FF3904F1010402F8013B11D8302136
S2140049E0A1440EAA202CB2D04C4504F101030AD1F2
S2140049F004F158020DEB02042E2204F8202C1C466B
S214004A00A5E70646DBE7A1541C46EBE71A5501343A
S214004A10444506D2202CF9D1CDE9028701940EAB8D
S214004A20CEE6202CF8D0099B3BB12D2204F158038A
S214004A306B4403F8202C0134EEE77A0704D504F122
S214004A4058032B226B44F4E73B07E5D504F15803E3
S214004A5020226B44EDE700BF0000000065CDCD418D
S214004A600000000065CDCDC1551E0400591E04008F
S214004A70FFFFEF7F4C1E0400511E0400A0670400D9
S214004A800000E03F0000000070B58EB02C22002130
S214004A9003A817F0BFF964234FF002320893CDE95C
S214004AA005230B2301218DF834305B4B8DF8101055
S214004AB01D880D4040F0A980084635F0ADFA0A2260
S214004AC0564B574C1A704FF42873ADF812304FF00F
S214004AD0FF332360534B54491B8820460B82534BAD
S214004AE0534A1B68CD828B61524B0D621B884B82EA
S214004AF0514B1B68CB611DF0FBFD20B14FF41B71C1
S214004B004E4836F024FB0521206831F01CFC20B10D
S214004B1040F27D21494836F01AFB206816F030F93D
S214004B20474B2068196831F0D1FC0C2535F0DCFEC7
S214004B306843099035F0D8FE68430DEB05010790F1
S214004B40206818F029F820B140F295213B4836F04D
S214004B50FEFA256820F004F800220146284631F0C7
S214004B602DFD20B140F29721344836F0F0FA40F29D
S214004B700353344D344E2B80052396F90000AB705A
S214004B807F2801D11DF0AAFE3378EB7035F0ACFE1D
S214004B9000EB80008000A88035F0A6FE0023C00051
S214004BA04FF0FF31E880AB604FF0FF3018A3D3E939
S214004BB0002335F083FB2549206831F0B8FC2068D7
S214004BC002A932F0D4F820B14FF434711B4836F005
S214004BD0BEFA042220680DEB020131F04CFC0428DA
S214004BE004D040F2D721154836F0B1FA01A90120C9
S214004BF031F04DF808F0ACF801201EF0F3FA2DF075
S214004C00B0F81EF019FB1DF001FE0EB070BD00BF1F
S214004C100A0020FF42030000365C00206463002088
S214004C205C5600204E810400146A00205481040063
S214004C3041A003004C810400508104001E5704006C
S214004C405C67002050560020006D0020B5A00300D1
S214004C500348044B834202D0034B03B11847704706
S214004C602C6D00202C6D002000000000064B07492C
S214004C70C91A891048BF0131491003D0044B0BB143
S214004C8001481847704700BF2C6D00202C6D00208F
S214004C900000000010B5064C237843B9FFF7D8FF94
S214004CA0044B13B10448AFF300800123237010BDFA
S214004CB04816002000000000D4A4040008B5044BE9
S214004CC01BB104490448AFF30080BDE80840CDE7B7
S214004CD0000000004C160020D4A40400A3F5803A7F
S214004CE0704700BF154B002B08BF114B9D46FFF7C2
S214004CF0F5FF00218B460F461148124A121A17F08C
S214004D0089F80C4B002B00D098470B4B002B00D09B
S214004D1098470020002104000D000B4817F0C0FB48
S214004D2017F050F8200029002BF002FF17F0A6FB22
S214004D30000008000000000000000000081000202E
S214004D4008100020B863002009C5010007B501213E
S214004D5020200DF1070201F0DBF958B102230121F2
S214004D6020200DF107028DF8073001F0E1F903B0BD
S214004D705DF804FB9DF807100229F8D002220948C6
S214004D8015F036FF022301210DF1070220208DF8D1
S214004D90073001F0CDF92BF00AFE4FF4FA6001F06F
S214004DA001F8E4E788B5030038B500F081FF02F0AB
S214004DB019FC01F04FFB012805D001F04BFB02283F
S214004DC001D001F06DFB0A4D2B783BB901F042FB98
S214004DD00128044602D12BF08EFE2C7001F03AFB1F
S214004DE0012803D1BDE8384000F048BF38BD00BFF9
S214004DF0145D002010B5044600882BF0A4FDA378AF
S214004E0084F84400834202BF0123E3702371074BFA
S214004E1004F11C00C4E9073401F0D0F922462088CA
S214004E200349BDE8104001F00DB900BF5F0503005F
S214004E302905030070B5C37804460D461646002BB8
S214004E4034D1D1B1214815F0D3FE0123E370E36CD1
S214004E50A6600BB1E06D9847E368F61A63699E4258
S214004E6021D2217E1A480131C9B2217615F0C0FE42
S214004E70A36D13B1217EE06D9847E5702BF0AAFD77
S214004E8015B3237903BBA268238A801A83421BD8F2
S214004E9001231048237115F0ABFE236DA3B1E06D1E
S214004EA0BDE87040184701232376E6E70029E4D1E1
S214004EB0094815F09DFE636DE660E5702571002BD0
S214004EC0DBD0E06D9847D8E770BD00BFB0B50300F3
S214004ED0C1B50300EFB50300DCB503002DE9F843C8
S214004EE00E4617461D460446002846D0922200214C
S214004EF0063016F08FFF224A224B3046C4E91523AF
S214004F0043F273630022E365114626806780A5801E
S214004F102BF03BFD0022A071114638462BF035FDE4
S214004F2000224FF001081146E07128462BF0D8FC0D
S214004F3028462BF0F4FC84F83C802BF04BFD124BFB
S214004F4004F16009C4E91834206284F88980484670
S214004F5001F034F90D4B3A463146C4E923340C4887
S214004F602B4684F8948015F043FE484641F288317B
S214004F702BF027FD0020BDE8F8834FF0FF30FAE75E
S214004F80305C020076CF0100350603001858040096
S214004F9005B6030058B101B1416502B1826503B19F
S214004FA0C365416DD0E91623014815F021BE704750
S214004FB039B6030013B5C8B1C2B1012910D0022911
S214004FC011D099B9836C543083B11404B4FBF3F454
S214004FD004600848009415F00BFE002002B010BDD7
S214004FE0C36C5830F0E7036D5C30EDE74FF0FF30F0
S214004FF0F4E700BF5FB6030070B51E46838804461C
S2140050000D46C18002810BB1868070BD8178008814
S2140050102BF085FB0123E370064BA680C4E903341E
S2140050200C34204601F0CAF829462046BDE87040F8
S2140050302BF0C7BC2907030010B501790446B1FA66
S21400504081F1008849092BF0E1FB21796088B1FAEB
S21400505081F149092BF0DAFB034B1A68A24204BF20
S21400506000221A6010BD00BF6416002070B5437998
S2140050700446A3B100880E4E04F10805336813B148
S2140050800C4B1B786BB121792BF0C0FB64210A4BCB
S2140050903460A3602846BDE870402BF092BC408880
S2140050A0E9E7064815F0A4FD054B3221A360F1E7B9
S2140050B064160020165D0020395000009CB60300E0
S2140050C06D50000010B50446E0B10F4815F090FD95
S2140050D001236371A37953B9217920882BF096FBBD
S2140050E0236B7BB1606B0121BDE81040184720465A
S2140050F0FFF7A2FF04F108002BF068FC2046FFF73C
S214005100B5FFEDE710BD00BFD2B6030010B50446EC
S214005110F8B1104815F06CFD00236371A3796BB9E4
S21400512021792088B1FA81F149092BF06FFB236BB6
S2140051307BB1606B0021BDE8104018472046FFF7A2
S2140051407BFF04F108002BF041FC2046FFF78EFFA2
S214005150EDE710BDDDB6030010B5044668B107489C
S21400516015F046FD637920461BB1BDE81040FFF7F9
S214005170CDBFBDE81040FFF7A5BF10BDE9B60300E0
S21400518010B50E4C0E48214615F032FD82210D4812
S21400519015F02EFD82210220A21E00F0C9FF014656
S2140051A030B134F8022C0848BDE8104015F020BD98
S2140051B00648BDE8104015F01BBD00BFA2570020F2
S2140051C0F8B6030013B703001EB7030062B7030068
S2140051D038B5104C82212246022000F099FFA51C0B
S2140051E0014678B122880C4815F002FD2A460B4B82
S2140051F003F1340153F8040B8B4242F8040BF9D147
S2140052003323238035F8021C054A0648BDE838409B
S21400521015F0EEBCA05700206DB70300EDB70300F5
S214005220A2570020CBB70300034B1B781BB18B4261
S21400523001D82BF0BCBB7047916C002010B504461B
S21400524001460E4815F0D4FC012C11D10C4B0D482C
S2140052501A884FF6FF739A421EBF0022094B5A74F3
S2140052602BF0BAFA02F014FBBDE8104002F0E6B9E3
S2140052700448BDE810402BF0B1BA00BF21B80300C7
S214005280446C0020E866002070B500241A4D1B4EC2
S2140052903378A3421BDC0024194D1A4E3378A34200
S2140052A01BDC0024184D194E3378A3421BDC01F09A
S2140052B0D1F8012816481CD12BF08EFA02F0E8FA35
S2140052C002F0BCF9BDE87040124801F0E3B8284689
S2140052D0FFF790FD01346035DAE728462BF062FAD6
S2140052E001343435DAE728462BF095FA01343835A0
S2140052F0DAE72BF073FAE5E7A82300201C5D002010
S214005300C82700201D5D0020782100201B5D00209E
S214005310E86600203D5200002DE9F04F87B0FFF709
S21400532057FFA44B05A805932BF099FA054616F0EF
S2140053306DFCA14CC2B21F2A627004D99F4815F0BA
S21400534057FC00F023FD2946A01C16F0F3FE05A826
S2140053502BF085FA054616F059FCC2B21F2A84F8CF
S214005360212001D99648EAE7294604F1220016F0E2
S214005370E1FE05A82BF073FA3225824600269AF83D
S2140053800040002C40F0D9808E4DFFF77DFF2B7833
S214005390DFF878B2DFF878A28B4E00939BF80030E7
S2140053A09AF800203178894815F022FC32789AF86D
S2140053B000109BF8000053180344DFF85882287842
S2140053C0254603444046DBB2A24200F3D183012BBC
S2140053D038BF01237E4F02933A4600233D464FF4E2
S2140053E082714FF6FF740298013398421370518011
S2140053F0948002F10C02F6DC764B75496E48AB6081
S21400540001F01EF9E879AB6800EB400003EB800082
S21400541000F0C8FEEB79DFF8F0910133EB71B9F8D4
S2140054200030A34203D06A496B4801F00BFA4FF6EE
S214005430FF73B9F800206649D21A18BF01226748E0
S21400544002F03CF84FF00009624C33784B4500F30D
S2140054509783634B1B785BB1624B1B78012B07D19C
S2140054605B49614801F09CFC5949604801F03CFEEC
S21400547000274FF00C085E4BDFF854919AF8002096
S2140054803178BA4200F3908302EB01080C21002722
S21400549001FB08919BF800009423B842554A00F39C
S2140054A0A18337780C269AF800304FF000081F4486
S2140054B0074406FB07964FF07009DFF85CA1414BE6
S2140054C01B78434500F3A283454E464C337883B1A0
S2140054D0217801290DD90C27013907FB01514248D3
S2140054E001F05EFC21784148013907FB015101F0CB
S2140054F0FBFD0299364800F0E7FE40F2055240F602
S21400550004312078367800F0C1FE0022054640F2CD
S2140055100271207800F0BAFE29460246304601F0B5
S21400552021F8059B23491A468B4240F08483324873
S21400553007B0BDE8F04F15F05BBB532C11D19AF8BD
S21400554001304C2B40F058819AF80230502B40F036
S21400555053810122294B1A7005A82BF080F9824648
S2140055600DE7442C15D19AF80130303B092BF3D8BF
S2140055700AF101002BF080F9214B224A197800230A
S21400558085B2994202F16002E6DD22F8465C0133FC
S214005590F7E7422C42D19AF80130542B40F08D8028
S2140055A00AF1020000F09CFD174B188018462AF0FE
S2140055B098FFD1E7A2570020FC65002040B8030002
S2140055C057B80300175D00201A5D0020C4B803001A
S2140055D0C818002040190020E01600206816002099
S2140055E0155D0020906C0020301700200810002069
S2140055F0CC1D0020101C002014B90300165D0020EE
S2140056001C5D0020A8230020446C0020185D0020AC
S214005610195D0020CC1E0020C01A0020582C33D85C
S214005620412C99D9433C152C96D801A353F824F065
S214005630E5590000595500007B5A000059550000F6
S21400564059550000595500004B57000059550000A9
S21400565059550000FD5600009F56000059550000A1
S2140056605955000059550000595500008158000052
S214005670F9570000595500005955000059550000CB
S21400568059550000F7580000692C7FF465AF0AF101
S21400569001002BF0F1F880B22BF085F95CE7C24BE5
S2140056A0012019780023C14A994202F1A8027FF727
S2140056B053AF02F8A60C0133F6E70AF1010000F03A
S2140056C00FFD04460AF103002BF04EF901210246B5
S2140056D020462BF005F96021B548B64F03785943AC
S2140056E07A187C524FF4FA6111824FF44871516176
S2140056F0B14955831165013303702DE70AF10100A6
S21400570000F0EEFC002234268046AC4F11462BF00B
S214005710E7F83878AA4C06FB00F324F80380E21872
S2140057209AF803301046693B18BF012393702BF09C
S21400573039F83B78002103FB06440126A14A33448E
S2140057401460516016743B7006E70AF1010000F021
S214005750C7FC0022114680462BF0C2F83422974C34
S214005760974F207802FB00F327F80380F9189AF881
S21400577003300846693B18BF01238B702BF012F8E4
S214005780914A00231046916B31BB00EB8310342303
S214005790227802FB03738363844A00231046D2F800
S2140057A0A410F9B9A82202FB03003423227802FBD6
S2140057B00373C0F8A4305EB9824A3346114652F8E5
S2140057C0040BA8B93422207800FB027241F823208B
S2140057D0237801332370BFE60133042B02F1400225
S2140057E0D1D1D9E70133042B02F1A802D7D1E2E7E1
S2140057F00133042BE3D1EBE70AF1010000F070FC63
S21400580007460AF103002BF0AFF80121024638469E
S2140058102BF066F860216648664C0278DFF888C18F
S2140058205143631867524FF44871198259616749AA
S2140058305D8399659AF80310A827642904BF01219F
S21400584099709CF80030DFF864E15F430EEB0701C7
S2140058500EF807304FF400774F8003270F718F71D3
S21400586002EB420704EB47148C6032240133DBB2B0
S21400587001324B7181F8A04002708CF800306BE664
S2140058800AF1010000F02CFC00224FF0380B804695
S2140058904FF001094E4F11462BF022F83B784D4C45
S2140058A00BFB03F3E21824F8038082F804909AF8BE
S2140058B003307BB10AF1030000F012FC00228046A0
S2140058C011462BF00DF83B780BFB0343A3F8028040
S2140058D083F8069040483C4A037899015354397837
S2140058E002EB831CC1EBC10204EBC2044A1CCCF8D9
S2140058F034403A70FFE60AF1010000F0F1FB07467B
S2140059000AF1030000F0ECFB04460AF105002BF058
S2140059102BF880460246012138462AF0E1FF42462F
S214005920204601212AF0DCFF6020DFF884E0214ACF
S2140059309EF80030DFF8948000FB03FC02EB0C01BD
S21400594022F80C704FF4487C4D83A1F810C0C1F8C3
S21400595014C0C1F85880591CC9B248431452942444
S2140059601718A7F810C0C7F814C07D83C7F858806A
S2140059701A4F981C8EF800003878DFF864C044434D
S21400598003EB430301EB41010CEB040E02EB431364
S21400599002EB41120CF80400CEF80430CEF80820D2
S2140059A001303870D8E500BF1A5D0020CC1E0020FC
S2140059B01C5D0020A8230020490803001D5D002070
S2140059C0C8270020E8660020CC1D002029520000D1
S2140059D01B5D002078210020195D0020185D002046
S2140059E0101C00200AF1010000F07AFB80460AF144
S2140059F0030000F075FB00220746114640462AF0D9
S214005A006FFF00223824114638462AF069FF8E4878
S214005A108E4A03784FF0000E04FB03FC22F80C803D
S214005A204FF0010802EB0C0181F806E081F80480D3
S214005A3003EB0801C9B24C4302EB040C17539C1C41
S214005A4004707024824F8CF806E038788CF8048056
S214005A504443DFF824C2C3EBC303C1EBC1010CEB24
S214005A60040E02EBC30302EBC1020CF80400CEF8EE
S214005A700430CEF80820404493E79AF80130502BC3
S214005A807FF46AAD5146734815F0B2F80AF1020089
S214005A9000F026FB07460AF1040000F021FB8046D2
S214005AA00AF1060000F01CFB4FF6FF739F4281468A
S214005AB03FF452AD98453FF44FAD98423FF44CAD9D
S214005AC00346424639466448FFF708FA044600286B
S214005AD07FF442AD0AF1080A562150462AF0B6FE77
S214005AE04121029050462AF0B1FE57218346504687
S214005AF02AF0ACFE029B82461A78562A03D1581C1E
S214005B002AF0BAFE04469BF80030412B2BD10BF14D
S214005B1001002AF0B1FE83469AF80030572B25D1B3
S214005B200AF101002AF0A8FE03465A4621464A48D2
S214005B30FFF730FA48482AF0E9FD484C0146206055
S214005B40474801F0EFF8216846482BF066F9012334
S214005B50454A39461370454A454813704B464246F7
S214005B6015F046F8F8E44FF0000BD5E70023DCE725
S214005B70477901348F4284BF05714571A83023E40C
S214005B80B9F1000F06D017F8053C03EB430304EB0E
S214005B908304BC603946404602F04EF809F101091C
S214005BA008F1A8080C3750E479180AD04A1E08FBFA
S214005BB00292D27902EB420204EB820408FB0192C5
S214005BC09460184608FB0151039301F0F3FD317809
S214005BD02848394408FB015101F048FA039B013775
S214005BE040334BE417EB080F18BF11F8050C039170
S214005BF01EBF00EB400004EB80048C6003FB072014
S214005C0000F0E4FF039901370C3143E418EB070F6B
S214005C1018BF16F8053C31461CBF03EB430304EBE4
S214005C20830409FB08A018BFB46000F0A5FE08F1C5
S214005C3001080C3643E413F8011D00297FF472AC0A
S214005C403B2102F8011C6DE41B5D0020782100203A
S214005C50175D002067B80300301800202C180020BD
S214005C603017002008100020155D0020906C0020E2
S214005C7095B803006C210020C01A002008B5094B17
S214005C801B786BB108482BF0A8F807482BF0C4F82F
S214005C90064801F0B5FABDE8084004482BF0CFB836
S214005CA008BD00BF155D002030170020081000203A
S214005CB0034B1B7813B103482AF030BD704700BF72
S214005CC0155D00203018002007B5012121200DF1B8
S214005CD0070200F01DFA18B99DF80720024B1A704B
S214005CE003B05DF804FB00BF916C002007B5064BBF
S214005CF08DF80700187001210DF10702212000F031
S214005D0017FA03B05DF804FB916C002007B502217A
S214005D1001200DF1060200F0FBF938B9044814F032
S214005D2067FFBDF8060003B05DF804FB0020FAE745
S214005D3031B9030007B50221ADF806000DF10602E1
S214005D40012000F0F5F9014610B1034814F050FFA9
S214005D5003B05DF804FB00BF52B9030010B5FFF7AF
S214005D60D5FF04460146074814F042FF01210648C5
S214005D7014F03EFF24B9BDE810400120FFF7DABF5B
S214005D8010BD00BF82B9030094B9030008B50448EB
S214005D9014F02EFF00F0DCF92AF009FE2AF004FECB
S214005DA0AAB9030038B50446084D094B28462B60AF
S214005DB000F004FA002C18BF21462846BDE83840FB
S214005DC008BF4FF496712AF0FCBD00BFCC28002017
S214005DD0970803002DE9F043384D91B008AC07460C
S214005DE0894690460FCD0FC495E80F00002684E83C
S214005DF00F0001250323324C3248CDE90366CDE976
S214005E0005668DF80E300796029535F049F92E484E
S214005E1035F046F932462D4920468DF8176005F0D4
S214005E2033F8334632462A498DF81900009020464A
S214005E308DF82390CDF82C808DF8216005F03EF883
S214005E400A9020468DF8097004F0A0FF204608AAA4
S214005E5005A905F059F802AA204603A92BF0DDFE95
S214005E604FF400721B4B5A62194BE560626A92054A
S214005E7010D46BB94FF40072164B11485A6204F0F6
S214005E8085FF114835F00FF9002011B0BDE8F0830A
S214005E90013BEBE7002BEDD0094908A82BF0F0FEFC
S214005EA04FF400720B4B06485A6204F06FFF064828
S214005EB035F0F9F8BDF82000E7E700BF30580400D9
S214005EC00040005AC85A0400C45A040080841E00C9
S214005ED040420F000060005A0122034B1870034B2B
S214005EE01980034B1A7070471F5D00204C6C002011
S214005EF01E5D0020F8B5454B1B780BB90020F8BD99
S214005F00434B1B78012B03D1BDE8F8402AF0C6BCF2
S214005F10404B1C884FF6FF739C42EFD03E4835F04E
S214005F20BFF80023260AE4B21A462146304604F09B
S214005F30EDFE012E354604F0010335D015D9B51E09
S214005F40012DDBD8002B0BBF4FF480754FF080750A
S214005F504FF470614FF070610BBF01274FF480372C
S214005F600F204FF470202D4B11E0002B0BBF4FF489
S214005F7080754FF080754FF470614FF070610BBF05
S214005F8001274FF480370F204FF47020244B1A68F7
S214005F9002401CD0BA421AD01A680A4032D11A6897
S214005FA022EA01022A4316E0002B0BBF4FF480754D
S214005FB04FF080754FF470614FF070610BBF012792
S214005FC04FF480370F204FF47020164BDFE71A6827
S214005FD022EA00023A431A602AF060FC05460028CE
S214005FE08CD0083644EA06102A460321C0B2FFF7D2
S214005FF0F1FE40F6FF73684300F2FF70B0FBF3F06B
S21400600080B27CE795427FF479AFC8E71E5D00203A
S2140060101F5D00204C6C0020C85A040028C30350A3
S21400602020C3035024C3035010B5044C237823B96F
S214006030034835F035F80123237010BD215D00209C
S214006040C85A04002DE9F0431F4C85B00746884621
S2140060509146FFF7E9FF23781BB902F007FB0123FF
S21400606023707BBAADF80C3030220023174E02FBAB
S21400607003F4315DA51901BB012333554FF0FF33FF
S21400608004F1100012493044AB606F80C5F80480FC
S214006090C5F80C9009F07CFD04F108010422314497
S2140060A00C4B009503A802F0B7FBA96802460A4805
S2140060B014F09EFD05B0BDE8F0830133102BD6D159
S2140060C0064814F095FDF5E7205D0020F428002032
S2140060D0C1080300D3080300B7B90300E5B90300FD
S2140060E080B10278A2F14103032B0BD840783038F8
S2140060F0C0B2082806D8054B134413F8413C40EAC2
S214006100032070474FF6FF70704700BF50580400DA
S21400611008B50B4642B101460448006803F0C0FCCF
S214006120BDE808402AF039BC022008BD54670020AC
S21400613008B50B4642B101460448006803F038FE35
S214006140BDE808402AF029BC022008BD546700209C
S214006150F0B50026124F8DB0FF2300930A22334677
S214006160386802A92BF016FBC0B102AB1D4603EB44
S214006170800404E055F8043BB34228BF5E1CAC42E2
S2140061803868E9D9296803F099FF0028F2D02D284D
S214006190F0D00DB0BDE8F0402AF0FFBB0DB0F0BD6A
S2140061A05467002028B1034B0360034B4360002371
S2140061B08360704719000003FC660020FF2307B5C4
S2140061C00021044A0093083009F066FC03B05DF82D
S2140061D004FB00BFBD0903000B46044902460868DD
S2140061E00349097808B12AF010BC7047002C00203B
S2140061F0235D0020F7B50C4618B12F21194834F05E
S214006200A6FF246823685E795F8830463946FFF724
S214006210E3FFF0B18568E5B1A089227D394690425A
S21400622091BF0020801AA36880B294BF03469B18D3
S214006230E27C00903046A8470138032803D8DFE800
S21400624000F0080F0B0D002420462EF0D5FD20464A
S21400625000E0812003B0F0BD8024F5E79324F3E747
S2140062608724F1E70DBA030007B50B4600920549EF
S21400627002460548097800682AF0E9FB03B05DF895
S21400628004FB00BF235D0020002C002007B50B4652
S2140062900092064902460648097800682AF0D7FBAD
S2140062A0003818BF012003B05DF804FB235D002012
S2140062B0002C002008B5034B1B6803B1984700204C
S2140062C008BD00BFFC2B00202DE9F74F04460D4605
S2140062D00026454B454F1860454B19703301002189
S2140062E0F85C013610F0A8FC0C2EF7D10C2D28BF58
S2140062F00C254FF0000901953C4EDFF800A13D4DFE
S214006300DFF8FC80019B4B4502DC03B0BDE8F08F54
S21400631023784FF0000B337063887380A388B380B4
S214006320A379C6F80880B371E379C8F8005088F8F6
S21400633004304FF00003A768A8F80630E3795B4501
S2140063400ADC012116F8100B10F076FC08F108089C
S21400635009F101090C34D5E74FF0000338886B814A
S2140063602880FB784FF0000C2B81BA78C5F804A083
S214006370002A00920CBF802240222A7379680AF114
S2140063800C02634513DC03EB43030AEB830ABB688A
S21400639043B1009A4FF6FF71B2FA82F2164B5209D9
S2140063A02EF0BAFC14350BF1010B0C37C6E7B1F82A
S2140063B000E00CF1010C22F80CEC91F802E00C3233
S2140063C002F816EC91F804E00C3102F815EC11F81E
S2140063D009ECBEF1010F14BF4FF0100E4FF0110E76
S2140063E002F814ECCDE700BF002C0020404300204C
S2140063F0235D002004320020F5610000042C0020FC
S21400640084340020014B1860704700BFF82B002032
S214006410014B1860704700BFFC2B002070B5128837
S21400642005460E46FFF720FF044670B10279049930
S214006430806815F041FD064B1B680BB9002070BD47
S2140064403146284622889847F8E78620F7E700BFB7
S214006450F82B002008B50FF08BFC022806D0012888
S21400646006D0044B18784000C0B208BD0120FCE7F7
S2140064700220FAE7225D0020054B10B51C682CB1FF
S214006480FFF7E8FF2346BDE81040184710BD00BFE1
S214006490F42B0020014B1860704700BFF42B00203F
S2140064A0034B1A781AB901221A700BF0C1BC704758
S2140064B0225D00200022024B1A70FFF7DDBF00BFEE
S2140064C0225D002037B50446002832D00FF050FC7D
S2140064D0022830D160892EF0F1FFE079237A003867
S2140064E018BF0120012B637A08BF40F008000BB1EB
S2140064F040F0100063890BB140F00400257CA188B1
S214006500A2790DB1E36873B90C4B10F071FF2178D6
S214006510084610F0E9FF2EF0FAFA002814BF032010
S214006520002003B030BDCDE90035054B10F060FF0C
S214006530EDE70220F5E70120F3E700BF0F0D0400AA
S21400654084DC030008B50DF0D1FD014630B10448E7
S21400655014F04EFBBDE808400EF06CB908BD00BF55
S2140065609BBA030030B5C0B100290CBF30203120E3
S214006570002A0CBF3024312414220023084911F8C5
S214006580015F3F2D06D1002B14BF2546054601337B
S2140065900D70DBB2013AF2D130BD2D200446EBE798
S2140065A0926C0020034B044A5B7C0121032013708D
S2140065B0FFF7BEBDE8660020245D002010B5044647
S2140065C0FFF7F0FFB4F57F4F0BD100240F4B1A886E
S2140065D013449C70FEF7D4FD2046BDE81040FFF73C
S2140065E0E1BB4FF601739C4204D1BDE81040084859
S2140065F02AF0DAB84FF602739C4205D1BDE8104087
S214006600044B1878FFF772BB10BD00BFA0570020E0
S214006610E8660020916C002010B5074C0121224648
S2140066200320FFF775FD28B92378044A003B18BFFE
S2140066300123537410BD00BF245D0020E8660020CF
S214006640F8B5564B32251A884FF6FF739A4218BF94
S21400665003234FF00802524C18BF2370514B1A7098
S21400666030225D70DD7036259A705A71DA713122EB
S2140066701D7137251A724FF400129D714A4D4264FF
S214006680C5644A4D01220565494D86188565494D04
S214006690C667C565484D494E4566494D80F8482051
S2140066A08566484D80F854200567474D80F8602081
S2140066B04567202580F8785080F8845000F1210541
S2140066C0C0F88850414D80F86C20C0F88C50C0F857
S2140066D0806080F89020C0F89440C0F8B8303C4BFA
S2140066E03C4CC0F8BC300223C0F898403A4C80F8C6
S2140066F0C030C0F8A4401524384B80F8A840C0F835
S214006700C430374B374CC0F8C8308223C0F8AC4092
S214006710354C80F8CC30C0F8B0400924334B344DAB
S214006720C0F8D030334B80F8B440C0F8D4302C7C5E
S214006730314B80F89C20C0F8A00080F8D820C0F824
S214006740DC3044B12D4B80F8E420C0F8E03005F191
S2140067501103C0F8E8304FF0000CCA798E6802EBDF
S21400676042039F00443006EB830326F807C05860B8
S21400677001200D349870DC701318CB71FFF7A4FA63
S214006780FFF74AFFFFF766FE012806D12B7C23B1F0
S214006790BDE8F84016482AF007B8F8BD446C00205B
S2140067A0A76C0020255D0020595804000100200039
S2140067B05858040002002000575804000500420004
S2140067C00300200056580400040042000700300072
S2140067D0FDFF210012001001004042005458040042
S2140067E000FF4401926C002006004200A0570020E3
S2140067F0E866002002FF2001916C002001FF1001D6
S21400680013B504460D4829F077FE6422C0F30F4303
S214006810637083B2B3FBF2F3A078237020220121C9
S2140068202AF030F9A078212201212AF02BF9044918
S214006830201D02B0BDE810402AF0C3B8446C00200A
S214006840E09304000B7870B583704CF61E0303804B
S2140068504FF02013C362012380F8303080F83C30BC
S214006860C3180364124B044643640223114A80F89B
S2140068704830114B8263C3644063CA798D6802EB6B
S214006880420305EB830004F12C0646600B4E45F8E8
S214006890236000238360531CCB71094B201DC4E981
S2140068A00134FFF78BFC2046BDE87040FFF7A8BF19
S2140068B0FDFF2100210020005A58040001000103BA
S2140068C001680000437B044A0121137000781130F0
S2140068D0C0B2FFF72DBC00BF2F5D002038B50446C0
S2140068E00078054D11302A460121C0B2FFF710FC92
S2140068F008B92B78637338BD2F5D0020024B53F820
S21400690020002AF09AB900BFE4340020012908B517
S21400691006D0022907D049B92AF086F9002008BD1A
S2140069202AF085F9FAE72AF085F9F7E7024814F025
S2140069305FF90120F3E700BFC8BA030010B4054CA6
S214006940114654F820001A46BDF804305DF8044B92
S214006950FFF7DCBFE4340020002310B50446838133
S2140069600364A0F844304830FFF728FC014BC4E924
S214006970123410BD210C030038B504460B781A4AB1
S21400698043700D4642F82300FFF7E6FF2046FFF768
S214006990A5FF4FF4401323610123144A2375A26117
S2140069A0134A84F82030E261124A84F82C3062627E
S2140069B0114A84F83830A26204F10C0222630F4AAE
S2140069C004F10D036263E363EA79A86802EB42030D
S2140069D000EB830110344C60094C40F82340094B0F
S2140069E08B60531CEB7138BDE43400202E5D002014
S2140069F008002000A86C002000FF300001FF1001F6
S214006A00020101043D69000010B47024427B0D4869
S214006A10013A012904FB020006D0022908D059B920
S214006A205DF8044B2AF000B95DF8044B2AF0FFB875
S214006A305DF8044B2AF0FEB803485DF8044B14F0EA
S214006A40D7B800BFC01A0020E4BA0300B0F85C3024
S214006A502DE9F0418B4204460E4638D0437B077C36
S214006A608BB31C4A12789A422DD370251A4A013BE2
S214006A7005FB032390F80F801B7B42462AF0EBF8B9
S214006A80B845054601D1FF281FD13A463146204673
S214006A9094F890302AF0DFF82F460546552212214A
S214006AA06078A4F85C6029F0EDFFFF2F03D039462C
S214006AB02046FFF7A9FFFF2D09D029462046BDE84E
S214006AC0F0412AF008B9FF25DFE70746E6E7BDE80C
S214006AD0F08100BF175D0020C01A00204168826860
S214006AE0C978D27849B112B10321FFF7AFBF837BD3
S214006AF0002B0CBF01210221F7E72AB1837B002B74
S214006B000CBF02210121F0E7014814F071B800BF64
S214006B10F5BA0300037BD3B14368DA7812B1826812
S214006B20D278A2B91B7933B1837B002B0CBF04212A
S214006B300521FFF78BBF83681B792BB1837B002B66
S214006B400CBF05210421F4E7014814F051B8704742
S214006B5027BB0300084A437B05211370837B5370D1
S214006B60C37B9370037CD370037B137100780E3065
S214006B70C0B2FFF7DDBA00BF305D002038B504466E
S214006B8000780C4D0E302A460521C0B2FFF7C0FA39
S214006B9020B1BDE83840084814F02AB82B78637353
S214006BA06B78A373AB78E373EB7823742B7923733A
S214006BB038BD00BF305D002063BB0300024B53F8B6
S214006BC020002AF0D2B800BF0C350020F8B50446E5
S214006BD00B78424A43700D4642F82300404E2AF096
S214006BE0E2F8FFF7CBFF6268A3683E483E49D664EA
S214006BF01165D4655065C3E91410DE64DC654FF09A
S214006C00987302266361012304F10C01E1613749A0
S214006C101032216204F10D01A16235492376E1624A
S214006C2004F10E016163334984F82430A16304F152
S214006C300F012164304984F83030616404F110019A
S214006C40E1642E4984F83C3084F84830216584F8A5
S214006C505460A265E879A96800EB400201EB820760
S214006C6004F1140CC7F804C04FF4817C244F41F89B
S214006C702270C218D2B202EB420241F822C001EBE7
S214006C80820700227A601F4A84F8703022661E4A05
S214006C9084F88830A2661D4A1D4BE2661D4AC4F879
S214006CA08C3062671C4A8319A26704F15C02C4F840
S214006CB08020DBB2194A03EB4303C4F8842084F82F
S214006CC0646084F87C6001EB830260345460144A8C
S214006CD0033041F82320E871F8BD00BF0C350020D2
S214006CE0DD6A00002D0D0300156B00000100200179
S214006CF002001001030030010400300105002101EC
S214006D0001FC01064A0021005C58040051001000F6
S214006D105E5804005F580400550021006F001800FC
S214006D201200010438B50D46044678B171B1FC2254
S214006D30002115F06FF80923A3600123044A65605B
S214006D40626102F561726382A261A38338BD00BFEF
S214006D50640001001FB50446E0B14368D3B16A463B
S214006D6010212C20FFF7D4F9A0B90B4B009A9A42B9
S214006D7010D1606840B1036833B15C6924B1DDE9C5
S214006D80022301994068A047DDE9022301990348E0
S214006D9013F02EFF04B010BD43574C4892BB0300BF
S214006DA0F0B4002800F09F80002900F09C804FF48B
S214006DB0D812026300F1080282634C4A0424C263BC
S214006DC0022200F10C054564494D80F83440856484
S214006DD000F10E050565474D80F84020456500F139
S214006DE01005C565444D80F84C20056600F1120577
S214006DF08566424D80F85820C56600F11405456743
S214006E003F4D80F86420856700F11605C0F8805075
S214006E103C4D80F87020C0F8845000F11805C0F88A
S214006E208C50394D80F87C20C0F8905000F11A053F
S214006E30C0F89850354D80F88820C0F89C5000F176
S214006E401C05C0F8A450324D80F89420C0F8A85015
S214006E5000F1200580F8A02080F8AC40C0F8B050C3
S214006E6080F8B84000F12404C0F8BC40294C2A4DF4
S214006E70C0F8C040012480F8C44000F12804C0F8DF
S214006E80C840264C80F8D020C0F8CC4000F12A0438
S214006E90C0F8D440224C80F8DC20C0F8D84000F17E
S214006EA02C04C0F8E0401F4C80F8E82000F12E02C9
S214006EB0C0F8B450C0F8E440C0F8EC20CC798D6837
S214006EC004EB440205EB820600F130077760164EAD
S214006ED045F82260621CCA710A78F0BC0270134A38
S214006EE01060FFF737BFF0BC704700BF05052100F4
S214006EF0080521000B0529000006210001062100D7
S214006F0002062100030621000406210005062100D2
S214006F1000FF230002FF200001FF230010FF2101D5
S214006F2011FF210112FF2101040B0110343500204E
S214006F3030B5204B89B01C68002C2FD023788342B4
S214006F402CD1606850B34FF61173994228D04FF693
S214006F501273994229D04FF6107399421ED1002120
S214006F60628D04F12A0529F02EFF00232B80A8B994
S214006F70636833B11A6822B1126912B1586801A960
S214006F8090470D4B10210493019B2C200593029BE8
S214006F9004AA0693039B0793FFF7CAF809B030BD0F
S214006FA00121A28D04F12C05DDE70221E28D04F11A
S214006FB02E05D8E73435002043574C4870B50D46AB
S214006FC00646144613460A460146244813F010FEA9
S214006FD025B92046BDE87040FFF7F0BA072D05D169
S214006FE021463046BDE8704000F0EABD4FF601434A
S214006FF09D4205D121463046BDE87040FFF7DEBD14
S214007000062D05D121463046BDE8704000F08CBB09
S214007010B5F5817F05D121463046BDE87040FFF7C3
S2140070206DBC40F202739D4205D121463046BDE854
S214007030704000F037B940F604339D4205D1214632
S2140070403046BDE87040FFF773BF202D04D12046C0
S214007050BDE8704000F0FEB970BD00BFC2BB0300C3
S2140070600148FFF7CFB900BFBD6F00004FF4C01353
S21400707030B5036001230371074B8C688360CA79BF
S21400708002EB420304EB83056860044844F82300DF
S214007090531CCB7130BD00BF6058040004000101D2
S2140070A013B5044680B100786A4627300821C0B27E
S2140070B0FFF72EF850B9DDE900230948C4E902239A
S2140070C0C4E9242313F094FD02B010BD002200236F
S2140070D00448C4E90223C4E9242313F089FDF3E736
S2140070E0F5BB030020BC030070B50D46044600281F
S2140070F058D0002956D00B7804F1200603702A4B8E
S2140071001860FFF7CDFF4FF414132362082304F131
S21400711010026263254A84F82430A26304F1110247
S2140071202264234AE31862640422A362214B84F893
S2140071304820E362012384F8542004F11802A26573
S2140071401D4A04F11401E26504F11C0262661B4A42
S214007150E164A26604F11D0222671949194A84F8FF
S214007160303084F83C3084F8603084F86C3084F832
S214007170783004F11E0321656267E367EA79A9683F
S21400718002EB420301EB830046600F4841F8230000
S214007190531CEB712978D4E902230C48BDE87040F3
S2140071A013F026BD70BD00BF383500200003300048
S2140071B0010322000002180003031800060318004B
S2140071C00203220000F02001020701084EBC030063
S2140071D013B5044678B1D0E902230078CDE9002340
S2140071E027306A460821C0B2FEF7A2FFD4E9022380
S2140071F0024813F0FDFC02B010BD00BF7FBC0300C8
S21400720030B5044689B040B3436833B31A6822B138
S214007210126812B1586801A990479DF81030E3B182
S2140072200399D4F880208A4207D8D4E902308A1A13
S2140072309B1840F10000C4E90230C4F8801029F021
S214007240C9FBD4F88430064AC31A9342054604D9CB
S2140072502046FFF7BDFFC4F8845009B030BD00BF1C
S214007260DF93040010B50446C0B1002300220021BD
S214007270C0E90223C0E924234368C0F880102BB17C
S2140072801A681AB152680AB1586890472046FFF744
S2140072909FFFBDE81040024813F0AABC10BD00BF17
S2140072A0A7BC0300B1F5704F034607D1044A106827
S2140072B020B102789A4201D1FFF7D4BF704700BFD1
S2140072C0383500200368064A0C2113604368536073
S2140072D003891381438922205381FEF729BF00BF0B
S2140072E03C35002010B50368044686B0FBB1114853
S2140072F013F07EFCA37B104A8DF804304FF48273A3
S214007300ADF806300123CDE90223002301A804933B
S2140073108DF81430FFF7D6F82046618929F090FDE5
S2140073202046FA2150F8143B594329F04AFB06B090
S21400733010BD00BFC8BC03002000000110B5064CFD
S214007340236843B1054813F053FC2068BDE810409D
S214007350418929F075BD10BD48350020E9BC030001
S21400736070B5364910460C68BDF81020002C5ED06B
S21400737003285CD8DFE800F0021E2745002B5AD011
S214007380022A58D91D78B3F80160291E18BF0121BA
S21400739032462B4813F02CFC2DB13146204629F0FE
S2140073A04FFD002070BDE573FA206368584329F04E
S2140073B0AAFBF6E7234813F01BFCE37B002B38D030
S2140073C00023E373F0E7002B35D0032A33D91D687A
S2140073D01D48294613F00CFC1C4B2A1F9A4201D963
S2140073E00220DFE723680BB19D42F9D823899D422E
S2140073F0F6D3E37B6560B3B9FA20684329F083FBD4
S21400740011E0002BCED0012ACCD91D881048294681
S21400741013F0EEFB002DE3D063689D42E0D8E37BDB
S2140074202581002BE8D12046FFF74CFFB9E7012065
S214007430B8E70420B6E70320B4E700BF48350020CD
S2140074400CBD030043BD030062BD0300FCFF6D00DE
S2140074508DBD030038B5154B1C6834B3F0B92168F0
S214007460134813F0C5FB23683BB16268934204D20D
S214007470104813F0BDFB6368236004F1140528462A
S21400748029F0A4FA236823B1FA212846594329F0A3
S21400749098FA2046BDE83840FFF714BF032804D109
S2140074A06189054813F0A4FBF3E738BD4835002092
S2140074B0B8BD0300E6BD03001BBE030070B53E4B1F
S2140074C00D46044609781860002A6FD101231A4633
S2140074D0A1730021E1730121A1814FF46151C4E938
S2140074E000132823354E22810C2132462220638148
S2140074F0FEF70EFE60B9D6E900230AB19A4207D31A
S214007500318999429FBFC4E9002373892181638131
S2140075102B4B2C4AE363042384F8403084F84C3029
S214007520E3182365284BA2646365022304F108026E
S214007530E265264A84F85830226604F10A02A266FA
S214007540234A84F8643084F8703004F10C03E26651
S21400755063676464EA79A86802EB420300EB830180
S21400756004F13C064E601B4E40F82360FA261A4B88
S2140075701A488B60531CEB71FEF74AFF208904F112
S2140075801405704329F0BFFA6189204629F058FC9B
S214007590134B2846C4E90534FEF710FE216849B1AE
S2140075A028467143BDE8704029F00BBA4FF4F073DB
S2140075B002228DE770BD00BF483500203C35002014
S2140075C00000230101002300020021000300210126
S2140075D0FDFF210020000105617300003D730000DF
S2140075E0E5720000134B10B51C680CB3E37BEBB1DF
S2140075F029F0F0F92369C01A002809DB0E4813F0B9
S214007600F7FA0023FA20E3736368584329F07BFAFD
S214007610E37B5BB12489FA235C4329F07FFAA0421E
S21400762006D02046BDE8104029F06DBA6468F2E73F
S21400763010BD00BF4835002048BE030038B5002402
S214007640044D55F8040B08B129F00DFC01340A2C42
S214007650F7D138BD4C350020042908B50AD172B1DF
S2140076606BB113781BB929F029FC002008BD29F05E
S2140076701BFCFAE7034813F0BBFA0120F6E70320E9
S214007680F4E700BF82BE030010B4054C114654F860
S21400769020001A46BDF804305DF8044BFFF7DCBF47
S2140076A04C3500200229024608B50ED004D839B958
S2140076B0104629F003FC06E04029F9D0412907D1FD
S2140076C0104629F0F1FB002008BD29F001FCFAE77E
S2140076D0024813F08DFA0120F6E700BFA2BE0300B1
S2140076E010B4054C114654F820001A46BDF8043074
S2140076F05DF8044BFFF7D6BF4C350020426B094BB4
S21400770052791A7082785A70C2789A70826B12B167
S21400771090F83C20DA70007804210930014AC0B2A3
S214007720FEF706BD355D0020024B53F8200029F019
S214007730EBBB00BF4C35002038B504460078084D3A
S21400774009302A460421C0B2FEF7E2FC30B96B7855
S214007750A370AB78E370EB7884F83C3038BD00BF9C
S214007760355D002038B504460078114D09302A46AC
S2140077700421C0B2FEF7CCFCC8B9A3782A78022B45
S2140077800CD004D863B9204629F098FB01E0FF2B03
S2140077900AD02046BDE8384029F065BB002AF2D161
S2140077A0204629F081FBF4E7002AF9D1EBE738BD43
S2140077B0355D0020F8B504460B78284A0D4642F899
S2140077C023004370FFF7B8FF636B254A5C631A63B8
S2140077D02046FFF7C7FF204629F045FB4FF48013ED
S2140077E063600123626BA66B0532E2601D4A23725A
S2140077F02261A21C2375A26166B11B4A84F8203060
S214007800E261E21C6262194A84F82C3004F13C03FF
S214007810A26223630627EA79A96802EB4203002ED8
S21400782021F8237001EB83000CBF02230423C370EE
S214007830012383700E4B04348360531C4460DBB218
S2140078400C4C03EB430341F8234001EB8300002379
S2140078504360094B02328360EA71F8BD4C35002064
S214007860E50E03000340300101FF300102FF100166
S214007870E1760000080001008976000028B1034B7D
S2140078801B78834234BF002001207047195D00201A
S21400789070B500250A4C0B4E3378AB4200DC70BD49
S2140078A0D4F8A42042B123791BB16079FFF7E6FF34
S2140078B010B9104628F069FF0135A834ECE700BF80
S2140078C0CC1E00201A5D002008B5427901461046FD
S2140078D0FFF7D4FFA8B1CB780A48013A042B00EB97
S2140078E082100ED8012B08D81BB9BDE8084029F035
S2140078F0DBBABDE8084029F0E1BABDE8084029F047
S214007900E7BA08BDCC1D002008B5427901461046EE
S214007910FFF7B4FFA8B1CB780A48013A042B00EB76
S21400792082100ED8012B08D81BB9BDE8084029F0F4
S214007930C5BABDE8084029F0B7BABDE8084029F046
S214007940C7BA08BDCC1D002010B586B00446FEF7A9
S21400795081FD012830D1E278042A2DD8DFE802F034
S21400796013323403030061790846FFF787FF58B3E4
S2140079701648032A00EB811050F80C3C58791DD1AC
S214007980003818BF012063784FF480728DF80430F9
S2140079904FF48273ADF806300623ADF808300123A5
S2140079A08DF80B3000238DF80A0001A8CDE90323DB
S2140079B08DF81430FEF786FD06B010BDB0FA80F0E4
S2140079C04009E0E70020DEE70220DCE7CC1D0020CF
S2140079D010B586B00446FEF73DFD012830D1E278AA
S2140079E0042A2DD8DFE802F013133203030061796E
S2140079F00846FFF743FF48B31548032A00EB8110FB
S214007A0050F80C3C5B791DD11A1E18BF0122637812
S214007A108DF80A208DF804304FF48273ADF80630E6
S214007A200623ADF8083001234FF480728DF80B3032
S214007A30002301A8CDE903238DF81430FEF742FD9C
S214007A4006B010BDB3FA83F25209E0E70222DEE781
S214007A50CC1D002010B586B00446FEF7FBFC0128BE
S214007A6012D16378094A8DF804304FF48273ADF86A
S214007A7006304FF48073CDE90223002301A8049357
S214007A808DF81430FEF71EFD06B010BD0800070185
S214007A9010B586B00446FEF7DDFC012820D16278DA
S214007AA0104B8DF804204FF4827294F8A01094F8CE
S214007AB0A10059701870ADF8062004934FF4807238
S214007AC00223094901A88DF81430CDE90212FEF709
S214007AD0F9FC94F8A130013B18BF012384F8A130CB
S214007AE006B010BD395D00200800050110B583788A
S214007AF0044603B30379022B0AD142791046FFF7F6
S214007B00BDFE28B10C48013A00EB821029F0E0F9DE
S214007B10A379022B02D12046FFF716FF2046FFF777
S214007B20B7FF02236078A4F86C305522BDE81040F9
S214007B30122128F0A7BF10BDCC1D00204388094A9B
S214007B40082113808388538083681B8A938090F86B
S214007B50A03093718379D37100780430C0B2FEF7F9
S214007B60E7BA00BF2258002038B50D460446017813
S214007B70114813F03DF84FF602739D420ED10F4B9D
S214007B801B782BB963712046BDE83840FFF7D6BF97
S214007B9062790AB19342F6D20123F3E7B5F57F4F37
S214007BA0F1D1204629F02DFAA378022B0CBF012232
S214007BB00022A3689A70E6E7BEBE0300195D0020A7
S214007BC0024B53F82000FFF7CFBF00BF74350020EC
S214007BD038B504460078144D04302A460821C0B251
S214007BE0FEF796FA20B1BDE83840104813F000B80A
S214007BF02B8863806B88E978A380AA88A3681A829A
S214007C00AB7984F8A030EB79A371094B1B780BB9DC
S214007C10637138BD09B19942FBD9064812F0E8FFF6
S214007C2023780133F4E700BF22580020D8BE0300B3
S214007C30195D002001BF0300F8B504460B78474ADB
S214007C400D4642F823004370FFF7C2FFA268444B7C
S214007C50D465D364434B02265365434BA11C13657E
S214007C604FF44013E36001236161E1623F49103243
S214007C7021632265211D3E4AA1633E483E49626556
S214007C8004F1A002A061E163E265E01C611D3B4ACD
S214007C90206261643A483B492266A21D237423771A
S214007CA084F8283084F8343084F84030A16484F8AE
S214007CB04C6084F8583084F864306062A266E879D4
S214007CC0AA6800EB400102EB810704F10C0CC7F830
S214007CD004C04FF0060C2C4F42F82170C118C9B2F0
S214007CE001EB410142F821C002EB810700217960D7
S214007CF0264F84F880302767254F84F89830A7678A
S214007D00244F254BE767254F84F8746084F88C6011
S214007D10C4F89C3004F16C06831CC4F88470C4F864
S214007D2090601F4F1F4EDBB203EB4303C4F8946012
S214007D30C4F8887002EB83067034746008261A4C08
S214007D4042F82340C31CDBB203EB430302EB83047D
S214007D50043042F823606160E871F8BD7435002095
S214007D60590F0300A30F0300ED7A000001FF300156
S214007D7004FF20011000300102FF200105FF300142
S214007D8000FF300103FF2101070001084A0021001F
S214007D90625804005100100064580400655804003E
S214007DA0550021006F0018001200010400239B6A92
S214007DB0B3F5804F03D21968064A914203D00023D8
S214007DC0037083607047012202709A689B69426064
S214007DD0F7E700BF07B0CD5E024B034A1A602AF0F1
S214007DE034BD00BF0000002002020FF073B53F4B09
S214007DF004461A781AB102221A7002B070BDCDE994
S214007E0000220028F9D001261E7033F0ABF8384D5A
S214007E10384B186017F0CEFC2B785BB902F0F2F9FD
S214007E2040B935480823354A3549006801F038FE20
S214007E3000B92E70334B5A68E260334A9A601A6E65
S214007E4022605A6E6260D3F87021A2601B6E5C04DA
S214007E502CD52E4AD368D807FCD42D4B1A68531C51
S214007E6029D04FF4801393402A4A13660423294CE2
S214007E704FF0804223664FF4806323661023236608
S214007E804FF400536846236601A92266636629F00C
S214007E90D0F8009B2366019B63662B78002BACD042
S214007EA0164B1A6822665B686366A6E71A4AD368AA
S214007EB0D907FCD4D1E7194B1B78002BD6D1184B29
S214007EC05A68144B12B94FF480121A66154A526853
S214007ED012B94FF400121A66134B5B68002BC5D11B
S214007EE04FF480020B4B1A66C0E700BF3C5D0020D3
S214007EF03D5D0020AC35002054670020B0350020E2
S214007F00007108000080004455CEAC00000004401C
S214007F102067002000900044000004503B5D0020D5
S214007F200080055000C005500000065038B5224DB0
S214007F3004462B78012B02D001232B7038BD002875
S214007F40FCD029F09BF8013009D029F097F840F2D0
S214007F500113984203D0194AD368DB07FCD4226881
S214007F60174B1A6662685A66A268C3F87021E26800
S214007F70D40744BF00229A60124B1A68013213D10C
S214007F80114A127882B911494968C80748BF1A6071
S214007F900F4A5268D10744BF01221A600D4A526840
S214007FA0D20744BF02221A6017F00CFC0A4B18686E
S214007FB032F0D3FF0023C0E73C5D00200000044001
S214007FC000800044206700203B5D002000800550B4
S214007FD000C0055000000650AC35002070B50024E7
S214007FE0A36AB3F5804F23D21A68134B9A421FD167
S214007FF0124E337813F0FD0518D14FF48034104834
S214008000FFF7F4FE032004F04FFC0E4B0320DC6069
S21400801004F02EFC0C4B1C61AB6ADB6998470446E7
S2140080200748FFF783FF0CB901233370204670BD65
S2140080304FF48174FAE700BF07B0CD5E3B5D0020C9
S2140080409C35002000A000440090004413B5204B4F
S2140080501B7803B9FEE700231E4CCDE900336A46C1
S21400806008231D49206801F01BFDF8B91B4AD2F809
S2140080704031D2F840211F2B4FF0010311D9203A8E
S2140080809340019A1A43019208236A4612492068CF
S21400809001F08EFE124B134A1A602AF0D6FB02B08D
S2140080A010BD9340009A1A430092EDE72D28F1D1B7
S2140080B00A4AD2F84031D2F840211F2B4FF0010374
S2140080C085BF203A93409340019398BF0093DBE727
S2140080D03C5D0020546700200071080000800044CA
S2140080E0000000200B020FF038B50025AB6A0446EE
S2140080F0B3F5804F10D21B6BB3F5804F0CD20748F8
S214008100FFF774FEAB6A20461B6B5B689847BDE8BA
S21400811038400248FFF70ABF38BD00BFB835002018
S21400812013B50024A36A0190B3F5804F13D21B6BDE
S214008130B3F5804F0FD20948FFF758FEA36A012116
S2140081401B6B01A89B69984704460448FFF7EEFEA0
S214008150204602B010BD4FF48174F9E7B835002010
S21400816070B50026B36A0446B3F5804F0D4612D2AA
S2140081701B6BB3F5804F0ED20848FFF737FEB36A85
S21400818020461B6B29469B69984704460348FFF721
S214008190CDFE204670BD4FF48174FAE7B835002056
S2140081A070B50026B36A0446B3F5804F0D4612D26A
S2140081B01B6BB3F5804F0ED20848FFF717FEB36A65
S2140081C020461B6B2946DB69984704460348FFF7A1
S2140081D0ADFE204670BD4FF48174FAE7B835002036
S2140081E0F8B50027BB6A0446B3F5804F0D46164621
S2140081F011D21B6B7BB10948FFF7F8FDBB6A20461E
S2140082001B6B324629465B6A984704460348FFF7CD
S2140082108DFE2046F8BD4FF40174FAE7B83500200D
S21400822070B50026B36A0446B3F5804F0D4612D2E9
S2140082301B6BB3F5804F0ED20848FFF7D7FDB36A25
S21400824020461B6B29469B6A984704460348FFF75F
S2140082506DFE204670BD4FF40174FAE7B835002075
S214008260F0B50027BB6A0446B3F5804F0D461646A8
S214008270ADF5337D20D21B6BB3F5804F1CD2104872
S214008280FFF7B4FDBB6A20461B6B40F2C1225B6A57
S21400829001A99847044630B10948FFF747FE204633
S2140082A00DF5337DF0BD836A32461B6B2946DB6ACB
S2140082B001A898470446EFE74FF40174EFE700BFC4
S2140082C0B835002010B50024A36AB3F5804F10D24D
S2140082D01B6BB3F5804F0CD20748FFF787FDA36AE8
S2140082E01B6B1B6B984704460348FFF71FFE204690
S2140082F010BD0124FBE700BFB8350020F0B58FB0F5
S214008300044601A80E461546FFF7EEFE9DF80C3013
S214008310012B12D1B5F5402F27D8B4F5402F24D81D
S2140083206319B3F5402F20D821462A46304613F06D
S21400833001FF002420460FB0F0BD0027BB6AB3F54E
S214008340804F15D21B6BB3F5804F11D20A48FFF74A
S2140083504DFDBB6A2A461B6B314620465B6B984731
S21400836004460548FFF7E2FDE4E740F20244E1E791
S21400837040F20114DEE700BFB8350020F0B58FB03C
S214008380044601A80E461546FFF7AEFE9DF80C30D3
S214008390012B1FD1B5F5402F06D8B4F5402F03D8D2
S2140083A06319B3F5402F13D940F2024420460FB0AC
S2140083B0F0BDE258013225D104339D42F9D82A4651
S2140083C03146204628F08AFE0028EDD00024EDE74E
S2140083D00023F2E70027BB6AB3F5804F15D21B6B6C
S2140083E0B3F5804F11D20A48FFF700FDBB6A2A4654
S2140083F01B6B314620469B6B984704460448FFF7A4
S21400840095FDD3E740F20344D0E740F20114CDE7F0
S214008410B835002070B58EB0044601A80D46FFF7AB
S21400842063FE9DF80C30012B22D144EA0503C3F30A
S2140084300C03002B33D1B5F5402F04D940F202448B
S21400844020460EB070BDB4F5402FF7D82544B5F5DC
S214008450402FF3D8204604F5005428F038FEAC42EE
S21400846002D00028F6D1E9E70028E7D00024E7E7A5
S2140084700026B36AB3F5804F14D21B6BB3F5804F5A
S21400848010D20A48FFF7B2FCB36A29461B6B204697
S214008490DB6B984704460548FFF748FDD0E740F2F7
S2140084A00444CDE740F20114CAE700BFB835002007
S2140084B0BFF34F8F0549064BCA6802F4E0621343C8
S2140084C0CB60BFF34F8F00BFFDE700BF00ED00E0BD
S2140084D00400FA0570B5D0B1C9B10E4E431E01397D
S2140084E013F8014F2046325D02F00302012A11F80C
S2140084F0012F08BF04F12000B55C05F00305012D2F
S21400850008BF2032801A01D1002CE9D170BD0120AD
S214008510FCE700BF3D8004000348044A0449121AE1
S214008520921028F027BE00BF34410000D042000061
S2140085305464002008B5154B83F30A8800F030F821
S214008540FFF7EAFF124B13498B4212D30020124B5F
S21400855012498B4218D3FCF7C5FB186850F8224026
S214008560586840F82240013298688242F5D30C33AE
S214008570EAE70022F8E71C6844F8220001325C684B
S214008580A242F8D30833E4E70022F8E70800002008
S214008590DCA40400E8A40400E8A40400E8A40400A2
S2140085A0124B134A70B59A60D3F88820114D42F4E6
S2140085B07002C3F888206FF0010205F500542266A9
S2140085C041F2FF7262660222C3F8D020BFF34F8FDB
S2140085D0BFF36F8F4FF44036032004F065F9032095
S2140085E0E66004F045F92E6170BD00BF00ED00E0C6
S2140085F00040000000800044014B1860704700BF38
S21400860028670020054B1860054B1B6F03F0070317
S214008610032B01D130F0FEBD704700BF306700204D
S214008620008000502DE9F04104464FF001080C256B
S2140086300D4E0CB9BDE8F08194FAA4F0B0FA80F0C3
S2140086400F2808FA00F2C8BF103824EA0204CABF8E
S21400865005FB006205FB0062B4325768002FE8D0C5
S2140086609168C0B2B847E4E7C835002008B50C48A2
S21400867032F016FD192004F009F928B1192004F08B
S21400868013F9192004F0F4F81A2004F0FFF828B1C2
S2140086901A2004F009F91A2004F0EAF8002008BDB0
S2140086A0C85A04002DE9F0410E461746054618B391
S2140086B00F2923D80378DBB1013BDBB2022B19D894
S2140086C0104AD35C6A78D340DB0717D50E4BD3F835
S2140086D01043ACB932F046FC80463A46284631464E
S2140086E002F042FE404632F038FC2046BDE8F081FB
S2140086F07F23E7E70023E5E72224F6E72124F4E7D3
S2140087000224F2E7B858040000C0035010B504462F
S21400871010B30378E3B1013BDBB2022B1AD8104A40
S214008720D35C6278D340DB0718D532F01BFC0122FD
S214008730617823788A4030214B4341F2100103F1DF
S214008740A04303F570335A5032F007FC002010BDEA
S2140087507F23E6E70023E4E72220F8E72120F6E778
S214008760B858040010B5044610B30378E3B1013BD3
S214008770DBB2022B1AD8104AD35C6278D340DB07F0
S21400878018D532F0EFFB0122617823788A40302139
S2140087904B4342F2100103F1A04303F570335A50E5
S2140087A032F0DBFB002010BD7F23E6E70023E4E782
S2140087B02220F8E72120F6E7B858040038B50D4621
S2140087C0044618B311B30378E3B1013BDBB2022BC6
S2140087D01AD8104AD35C6278D340DB0718D532F03B
S2140087E0C1FB30222378534303F1A04303F57033D3
S2140087F05B696278D34003F001032B7032F0ADFB67
S214008800002038BD7F23E6E70023E4E72220F8E7D0
S2140088102120F6E7B85804002DE9F0410D4616462B
S2140088209846044600284FD000294DD001780029EC
S21400883040D04B1EDBB2022B3ED8254AD25C637872
S214008840DA40D20701D4FF2940D1022E01D9042EE6
S2140088503CD132F087FB23780746FF2B05D0324603
S2140088602046296802F0C6FD28602B68013309D12E
S2140088702378FF2B06D1174B6078D3F8241429F001
S21400888054FA286029684B1C18D00C23124A03FBA4
S2140088900122069BC2F8048093602378FF2B04D045
S2140088A001230E4A8B40C2F82434384632F055FB7A
S2140088B0002007E07F22C2E70022C0E7384632F0F9
S2140088C04CFB2D20BDE8F0812220FBE72120F9E7B4
S2140088D0B858040000C00350C835002000D003502C
S2140088E008B502F037FD044B00F05530C3F82004FD
S2140088F0BDE80840FFF796BE00E0035008B502F05A
S21400890029FD044B00F0AA30C3F82004BDE8084057
S214008910FFF788BE00E003502DE9F04F14460546E9
S2140089200E469B46C36B87B001225B6902A960684E
S2140089309847EB6B01225B6903A93046984702A86B
S21400894029F017F8074648B10023A37563754FF062
S214008950FF33A360002007B0BDE8F08F03A829F01E
S21400896015F80123A375237E04EBC303DE611F8481
S2140089706368B3420ED1206003A829F029F84FF0AF
S214008980FF332075A360237D043B022B26D80023EB
S214008990A375DFE723681A1A53425341A37503A849
S2140089A029F016F8237D834218BFA77503A828F080
S2140089B0F1FF074602A828F0EDFF874218BF002304
S2140089C003A818BFA37528F0EDFF074602A828F0F5
S2140089D0E9FF87421CBF0023A375D4E703A828F04D
S2140089E0D9FF80B1EB6B022230465B6904A9984739
S2140089F004A828F0DEFF0346207D032839D8DFE8E8
S214008A0000F03838040903A8F3E7CC22237E04EBF1
S214008A10C3031A8401F06EFC109B187003A8277E0F
S214008A2028F0ACFF04EBC70787F82200237E03A8D4
S214008A3004EBC303B3F8209093F8227028F0AAFF43
S214008A40804603A828F0AEFF8246B8F1000F15D086
S214008A50EB6B022230465B6904A9984704A828F00D
S214008A606DFF6075637D6BB90023A3754FF000083A
S214008A7038E0227E04EBC2021384CBE703A828F07A
S214008A8048FFEEE794F81680B8F1000FEED0B9F183
S214008A90000F09D1DFB10123E375637E002B4FD1B0
S214008AA0012F42D1677614E06B6C06EB0A015A423E
S214008AB086EA010010421CBF0022A2755A1E0A4018
S214008AC09B1A9945D0D8A37D002BE3D1CEE7E37D52
S214008AD043B94FF000084B4652463146284628F028
S214008AE093FCA060A27D12B123694B4423611A490E
S214008AF0237E097899422AD901332376BBF1000FE9
S214008B0027D032B3E37D23B3B8F1000F21D1032F72
S214008B101FD0A1684B1C1CD0109B224600932846F1
S214008B200123FFF7F9FEA07513E095F8343063B91A
S214008B30EB6A0133CFD1032FCDD10123A376C8E74B
S214008B40012FCFD0032FC4D1F7E79846C3E7002301
S214008B50A375A07DFFE600BFDC5804002DE9F04FAA
S214008B600E46984600238BB004464FF0FF31104661
S214008B7017468DF8133001F0A7FBB6F5801F20D2FC
S214008B80314605AA04F1080028F045FE451C0146BA
S214008B9003D1237CBBB92D2010E0384601F094FBAE
S214008BA00122394620460DF1130328F07FFC0028E9
S214008BB0EFD09DF8133088F8003000200BB0BDE8E9
S214008BC0F08FB01CE5D1E56A691C36D12046616A93
S214008BD028F060FB0546B31C18BF0123DFF8CC90D5
S214008BE00193636A626C0293236805A902FB053A47
S214008BF0E36B05225B695046984705A828F054FFAA
S214008C0028F077FF504628F07FFF4FF0000B824693
S214008C1001464B1C05D0636C81EA0A025B42134294
S214008C2011D02946204628F035FB029BAB422CD0BB
S214008C30BBF1000F2CD10546D3E72368ED1A636C11
S214008C40B5FBF3F5C7E7484601F03EFB0DF113030D
S214008C5049462046019A28F029FC034690B1B21CEA
S214008C6003D0D9F80020B2420CD19DF8132003930C
S214008C700D4B88F8002049461A68384613F05AFA11
S214008C80039B9B46D9F80810C3E7BBF1000F82D0C0
S214008C90B6F5801F91D2314698F800307A6804F114
S214008CA0080001F03FFA88E7D8580400A43D0020E9
S214008CB02DE9F3410446174698460E46184D816A3C
S214008CC0E36A8B4201D04B1C02D102B0BDE8F081B2
S214008CD0284601F0F9FA0122294620460DF107033D
S214008CE028F0E4FB38B14346294620469DF8072085
S214008CF0B8470028E9D0A9684A1C04D1696820460C
S214008D0028F055FB0146012EDAD16B6881EA030292
S214008D10636C5B421A4218BF4FF0FF31D0E700BFCA
S214008D20783D00202DE9F04F4FF0FF334FF6FF72ED
S214008D300025044600F10806C0E909238BB0C3628B
S214008D40056205633046884628F036FD204628F042
S214008D5071FA60BB2046414628F0ECFA204628F01F
S214008D6069FA60BB5E200BB0BDE8F08F2368E26B4B
S214008D70606C576900FB0530052205A9B84705A8B1
S214008D8028F092FE012807460CD12946204628F0F6
S214008D90A2FA012F024600D101322946204628F0C9
S214008DA068FA03E028F0AAFE0028EED10135E36950
S214008DB09D42DBD3204628F03DFA0028CAD0002585
S214008DC04FF0FF394FF6FF73CA46A846C4E908536A
S214008DD0E36998450AD3A5EB0905012D2CD84FF673
S214008DE0FF72636A93423CD16720BCE72368E26B5C
S214008DF0606C576900FB0830052205A9B84705A82E
S214008E0028F052FE834605A828F025FE0746584659
S214008E1028F06FFE68B1574538BFC4F82480B945BE
S214008E2028BFB946BD4238BF3D46BA46236A01331D
S214008E30236208F10108CBE74FF6FF730025636253
S214008E40E3699D42CBD2676C2068E36B052207FB83
S214008E5005005B6905A9984705A828F0FCFD0135C3
S214008E60EEE7E26B676C2068694607FB030055690E
S214008E700522A847684628F0EEFD626A2368606C03
S214008E804B4D00FB023028F03FFE4FF0FF33A06250
S214008E90E3622A466FF00101204605ABFFF75EFE4F
S214008EA0002846D1AD6829462046E56228F09EF99E
S214008EB0206320B92046E16A28F079FAE062294664
S214008EC0204628F074FA0546A36A9D4233D1204610
S214008ED028F05FF900278046B946E36999453CD3F8
S214008EE0B84559D92046616A28F0D4F900260546C7
S214008EF004F1400AB74212D8626C2368694602FB46
S214008F000539E36B05225B6948469847684628F0B2
S214008F10A2FD534602464946E06B28F0F7FD294677
S214008F20204628F0B7F90136B0450546E2D1642060
S214008F3019E7A56AB7E72946204628F057F9236BB4
S214008F402946034407462363204628F030FA0546A0
S214008F50002FB9D1C4E90B07B6E7636C2568052274
S214008F6003FB0955E36B05A95B692846984705A8E6
S214008F7028F09AFD28F0BDFD58B1284628F0C4FD1B
S214008F800146204628F032F9636C143B984208BF2D
S214008F90013709F10109A0E7304628F00DFC00234F
S214008FA020461946034AFFF783FE0020DBE600BF93
S214008FB0D03D00209B1403002DE9F041036B904642
S214008FC0826B07689A4288BF8363426C436A90B09C
S214008FD002FB0377C36B0E46052201A95B690446B4
S214008FE03846984701A828F05FFD012801463070F2
S214008FF057D0656CE26B2368606AD2F814C005FB34
S2140090000030052206A9E04706A828F04DFD0128F5
S2140090104FF0000523D0D4E90A3201219342CDE96E
S2140090200B458DF834800E958DF83C102AD11946E4
S214009030204628F0BCF9236B626C14339B1AE0625E
S21400904023630C9B53B99DF83C303BB1626A616C5C
S2140090502368E06B01FB023128F0DEFC0C9DE36B1D
S21400906005225B6901A93846984701A828F01CFD2F
S21400907030702846236BA26B9A4288BFA36310B059
S214009080BDE8F081237C33B91C490BAA04F1080023
S21400909001F096F8D5E72046194A0BABFFF708FE15
S2140090A0CFE7237C23BB2246164904F1080001F0D3
S2140090B087F8616A204628F00EF9616A421C20464D
S2140090C028F0D7F8054620B9236B626C1344143B8E
S2140090D023632046A16A28F06AF92368A062C01AB2
S2140090E0636CB0FBF3F06062204628F0A3F9B6E7A5
S2140090F000232046044AFFF7DBFDDAE75D98000010
S214009100D997000035150300D114030073B50D463A
S214009110D11E4A421C461B7E4A419A4226D12968E5
S2140091202368994222D3636899421FD8114E0DF1E5
S21400913007033246FFF712FDC0B972686B689A42A1
S21400914014D19DF80730DA1E53425341227E9342D3
S2140091500CD1636901336361D4E90323934205D2DA
S2140091602968A26842F8231001332361012002B067
S21400917070BD00BFD03D00202DE9F04F9B4689B062
S2140091809DF848309046514A0193136907465B455F
S2140091900D46C0F09580D94653680093B9F1000F8C
S2140091A07BD0FB6B01225B6905A90098984705A850
S2140091B028F0ECFB454B1B68984240F0848005A8DD
S2140091C028F0F0FB0428064615D105A828F0F1FB88
S2140091D0009B04461E44019B002B3ED1804512D9BD
S2140091E01C46A8EB00083846009928F0E0F8A9EBE2
S2140091F004090090D2E7FB6B02225B69009806A97F
S214009200984706A8E2E7A0EB08045C4528BF5C4642
S214009210032C4644ABEB040B1DD9FB6B29463046AA
S2140092205B69A208984724F0030304F0030A1E446F
S2140092301D44DDF80480BAF1000FD4D0FB6B012288
S21400924006A930465B6998475246284606A912F09A
S21400925071FF5544C7E7A246EBE7824600F00303DA
S21400926002932B1803930644039BA6EB0A00A3EB7A
S2140092700A05029B9A4514D1BAF1000FB3D0FB6BD6
S214009280012206A95B6998475246284606A913F0AC
S2140092900DF90028DDD04FF03609484609B0BDE884
S2140092A0F08FFB6B012206A95B69984704222846CB
S2140092B006A913F0FBF80028EDD1AAF1040AD3E7BB
S2140092C04FF06309E9E74FF06F09E6E7FC3D002041
S2140092D02DE9F0410F4616469846044688B060B31E
S2140092E090F83450FDB1012127F099FF00210E9B24
S2140092F0CDE90511CDE902379DF83C30CDF8048064
S2140093008DF81C30237C04968BB90D4901AA04F114
S214009310080000F055FFDDE90553E06B002E08BF9E
S2140093201D4628F015F9284608B0BDE8F08120460D
S214009330044A01ABFFF7BCFCEDE70546F3E700BFC8
S214009340FF1403000D9100007FB590F842600446BC
S21400935001920DF10B030A463046114928F000F938
S214009360012E0546E36B17D132465B6903A9984781
S2140093709DF80B10039B019A59B19BB243EA024336
S214009380012228460393E36B03A99B69984704B020
S21400939070BD62F30F03F3E701229B6901A9F5E7AD
S2140093A0FC3D00202DE9F04F99B00E460D920A695B
S2140093B0416C0B931439D31DB3FBF1F3013302EB6D
S2140093C0C302036B04469342C0F001820023DFF819
S2140093D004940893E36A48461946059300F074FF20
S2140093E0D6E9033707930B9B022B4DD1CC2F40F0C9
S2140093F0D7810D9B3BB13146204628F007F9656CB6
S2140094001490012044E00120079B656C1B681493B0
S21400941000F0010000280CBF04230823782F0E93C9
S21400942049D8059A6B1E1340ED1A3B1D9D423CD24F
S214009430002F3DD0082D3ED80023042506934FF07C
S214009440040A336806990B98C9F80030C9F81070FA
S21400945028F0C2FA4FEA9A030F93059B89F8140086
S2140094600393002309930C9304930A93616C039B64
S2140094704A1E1A408B1A27B35544AB4223D8236B97
S2140094805B1A134423632FE1782F656CB9D8F07DFF
S2140094900D9B002BBCD0E36B01225B69706816A99C
S2140094A0984716A828F076FAB4E700250695C6E78A
S2140094B004250697C3E7012300254FF0080A069304
S2140094C0BFE75345DBD3A3EB0A029742039BB8469C
S2140094D028BF90469742534428D90122D9F8101045
S2140094E089F817208F4226D10399C9F804100492F0
S2140094F099F817200AB399F818100398CA1C09EBB4
S214009500C202506004980131A2F80880907289F86F
S2140095101810B8F1000F07D00B9A022A40F081808D
S214009520099A72B1012209929B46ABE0049A002A7E
S21400953018BF0322DBE70222D9E7039AC9F8042002
S214009540E7E70C9A4244032AEED9E26B184695697F
S21400955014A901220993A847099B05460028E1D0D3
S2140095603D2D40F01E8104F1080303932368059AFD
S214009570606CA2EB030ABAFBF0FA00FB0A3028F094
S214009580C3FAE16A8046204627F011FFA26A8242AB
S21400959000F00F81626CD9F80830511E0B40216B29
S2140095A02768891A0B442363089BE062DF1BB7FB1E
S2140095B0F2F7BA4540F0FA80059BB3EB080A12D0E2
S2140095C0E36B4FEA9A0241469B6998478346E36AF3
S2140095D0059A5344E362236B03989B1A4344236320
S2140095E028F0EAF8DA462368616CE06B01FB073185
S2140095F028F0FFF9204627F01DFE204627F01AFF28
S2140096002063BAF1000F00F0D4803269616CD31D7C
S2140096101439B3FBF1F3013302EBC3029042A5D237
S214009620BFE00D9A002A77D1B8F1030F4FEA9802EF
S2140096306ED9E16B18468D6907991093A847109B61
S2140096400546C0B918F0030515D0079A28F0030B95
S21400965002EB0B019B444FF0FF3215A815922A46E9
S214009660109312F067FDE26B5846956915A9012222
S214009670A8470546109B9B46079A42440792002D32
S21400968040F08B80049B16A80193069B009399F8E4
S21400969014204346316800F0CDFDE36B0F9A9B69BA
S2140096A0039816A99847039A051E089B18BF1346E9
S2140096B00893434652462046039927F0A5FE236B9F
S2140096C008F10302A3EB0A0322F003029B1AC9F86F
S2140096D008002363002D7FF443AF0C9BA7EB08071D
S2140096E043440C93CDF80CB02046039927F05FFE58
S2140096F000250390002F7FF4B9AE364A3168936890
S21400970004F10800E36252680B9B00F00BFD49E091
S2140097109B46454607999EE79B4606F12002109217
S214009720F27D7068A2B1002296F818C00A99D5B2E8
S214009730AC4511D9109D02F1010E35F832508D421C
S21400974028D90E9806EBC2020144D069084403E00B
S2140097500E9A0A990A441044E26B15A9556901222B
S2140097601193A847159A0A9B1392E26B04339569E6
S2140097705846012213A90A93A847119B054603EBF6
S2140097800802A2EB0B02042A7FF679AF28B90BF188
S214009790040BC5E77246491BC9E7CDF820B088E739
S2140097A070252F46384619B0BDE8F08F4FF0000AF6
S2140097B019E73269616CD31D1439B3FBF1F3013339
S2140097C002EBC302236B9342BFF404AEE9E71C2707
S2140097D0E8E700BFA43D0020032A2DE9F341064632
S2140097E00D4617461C4606D1237A012B23D00120AE
S2140097F002B0BDE8F081DFF86080096842460DF1EE
S2140098000703FFF7ABF960600028EDD19DF807204D
S214009810237A032AE8D0D8F804106A689142E3D184
S214009820012B2969D4F80CC007D172690CEB01032F
S214009830934202D92074207CDAE708316144E16063
S2140098403B46012229463046FFF7ACFD6060002803
S214009850CAD00020CCE700BFD03D00202DE9F34160
S214009860089C032A1746266806D1237A012B24D0A3
S214009870012002B0BDE8F081DFF890803046424615
S2140098800DF10703FFF76AF960600028EDD125683F
S214009890D8F80400A96AD5F844C04840CCF10003C3
S2140098A01840227AE1D1012A09D1E268D8F81030AE
S2140098B013447269934202D92074207CD9E7286841
