S01B00006275696C642F72656C656173652F7A69676265652E73333714
S21400400008100020C1990000A1E3000091310300D0
S21400401091310300A9E30000B1E3000091310300F1
S2140040209131030091310300913103009131030077
S214004030B5E30000507C0400913103009131030089
S214004040913103009131030091310300D9940000AF
S2140040509131030091310300913103009131030047
S2140040609131030091310300B5E800006524030098
S2140040709131030091310300913103009131030027
S2140040809131030091310300913103009131030017
S2140040909131030091310300913103009131030007
S2140040A091310300899D00006D9D00009131030051
S2140040B09131030091310300913103009D3C0200D1
S2140040C0CD8D0300C98D030001340200E38D03008B
S2140040D0D18D03005D3C0200D58D030091200200C7
S2140040E0DD3C020091310300913103009131030061
S2140040F091310300913103009131030091310300A7
S2140041009131030091310300913103009131030096
S2140041109131030091310300913103009131030086
S2140041209131030091310300913103009131030076
S20800413091310300C1
S214004134F0B5114A114C124E00F00105E3695F0711
S21400414413D40DB9334213D103EA00078F4207D1C3
S2140041540B4A1A40002A14BF6FF001000020F0BD7D
S214004164013AEBD16FF00200F9E74FF0FF30F6E7C3
S2140041746FF00100F3E700BF80969800000003503C
S214004184020001000B4B70B5D96911F480310DD1D2
S21400419401244FF48072084E084DF46020462C64C7
S2140041A41A61FFF7C5FF3464EC6070BD6FF0010060
S2140041B4FBE700BF0000035000100350002003502C
S2140041C438B541F6713301220C4C0021E569E363EE
S2140041D40B4B05F48035DA600223606121202361ED
S2140041E4FFF7A6FF10B92120FFF7A2FF0122054B17
S2140041F4DA600DB10023E36338BD00BF000003504E
S214004204001003500020035070B5134C6061E3693E
S2140042145B071ED40E4656F8043B8D18A361AE42C7
S2140042240BD10423002121202361FFF781FF58B915
S214004234BDE870402120FFF77BBF08210846FFF742
S21400424477FF10B10423236170BD56F8043BA361C5
S214004254E5E74FF0FF30F7E7000003502DE9F84399
S214004264154641F67132164B8946DF69DA63012238
S214004274064603F58053DFF8508007F48037DA608B
S21400428455B9284601220F4BDA601FB10022A3F568
S2140042940053DA63BDE8F88306F5005404EA08041C
S2140042A4A41BAC4228BF2C46494622463046FFF79C
S2140042B4ABFF0028E6D12644A1442D1BE0E700BF4F
S2100042C4000003500020035000E0FFFF45
S2140042D02DE9F04F4FF0FD0BC9B09A460DF11B09C2
S2140042E09DF8503108AFCDF80C90CDF808B0019786
S2140042F0059303890446009383790E4690464188C9
S2140043008288407814F016FA054650B10090A388CB
S214004310002062883A4914F051FD284649B0BDE8AD
S214004320F08F99F8000032F0A3F838B12846A38839
S2140043306288344914F042FD8D25EEE75A46394628
S21400434099F8000032F03CF88346002851D0529B82
S2140043501BB1BDF84C3198424BD8002399F8009019
S2140043600793A9F14102012A5FFA8BF123D8384658
S2140043700139254ADFF898C05FFA81FE734513DBE2
S214004380059B04210792C3B907AF18221F489FED6B
S2140043901A7B02FB060420460A460830394684ED9E
S2140043A0027B19F033FA11E010F8011F0133514077
S2140043B00CFB01F2E2E7059B33B123464A4638463A
S2140043C0009612F039F9A8E70829DED9B8F1000FEF
S2140043D001D088F80090BAF1000F01D0AAF800B01A
S2140043E0529B002B99D05A46184608A919F00EFA87
S2140043F093E7012591E700BF0000000000000000E1
S2140044006E240400A3240400C59D1C8118110020FE
S21400441093010001000000002DE9F04F93B0CDE9B4
S2140044200A32DDE91C530E9353EC102BCDE908013C
S214004430104619468DED060B1E9E18F071FC80B1D5
S214004440DDE906014FF0FF32C54B18F091FC40B98C
S214004450DDE906014FF0FF326FF4801318F06AFCB6
S21400446070B1DDE908019DED060B0E9B1E96CDE9A9
S2140044701C53DDE90A3213B0BDE8F04F00F088B9EE
S2140044800022DDE90601002318F054FC002800F0A5
S2140044903381DDE906A303F1004BCBF30A5016F493
S2140044A08063A0F2FF3008BF06250F9318F066F968
S2140044B09BA3D3E9002318F0CBF99BA3D3E90023F1
S2140044C018F010F8CBF31304894644F07F51804669
S2140044D00022A44B504641F4401118F001F894A372
S2140044E0D3E9002318F0B4F902460B464046494685
S2140044F017F0F8FF18F046FC044618F03FF98EA3B4
S214004500D3E900238046894618F0A2F90022964B8C
S21400451017F0E8FF18F036FC89A3D3E90023074616
S2140045204946404618F094F980463846894618F0C1
S21400453025F985A3D3E9002318F08AF902460B462D
S2140045404046494617F0CCFF02460B46CDE90C2301
S21400455018F07EF9DDE90C23804689461046194698
S21400456017F0C0FF0022CDE91001804B40464946B7
S21400457018F098FA00227E4B17F0B4FF02460B465E
S2140045804046494618F08EFA00227A4B17F0AAFFEA
S21400459002460B464046494618F084FADDE90C23ED
S2140045A08046894600204FF0804117F099FF02466A
S2140045B00B464046494617F095FF02460B46DDE996
S2140045C0100118F06FFA07F2FF3700226A4B17F057
S2140045D089FF00223B0518F03BF952465B468046B1
S2140045E0894618F0C5FB002840F08980CDE90C8983
S2140045F004F16303C62B8CBF0527042731051BD5A2
S21400460053A3D3E900235046594618F0A7FB0028C9
S2140046107FD051A3D3E900235046594618F08AFBB1
S214004620002876D00027A542C6BF2C1B04F1FF3514
S21400463000253C4646F480660E9B9F422CBF4FF0FA
S2140046400008A3EB070816F0020903D0002F18BFD6
S2140046504FF000083CB1DDE90C235046594618F0EF
S21400466021FA82468B46DDE906010022002318F077
S21400467061FB10B10BF100439B46DDE9080126F40F
S2140046800063CDE90183DDE90A324BEC10AB0095FF
S21400469000F07EF802465FB3DDE9091316F0200F3E
S2140046A000F10105089E0CBF65204520B047DDE9F6
S2140046B008010523002205930A23002CCDE90232C7
S2140046C007F1FF374FEAD473B8BF64422A46019316
S2140046D004970A9B009433F0E7FC0246B9F1000FFA
S2140046E006D00B9BC41A0B9B1A190E9BA34245D8E7
S2140046F0104613B0BDE8F08FDDE906ABCDE600222C
S214004700404649461A4B18F0CDF9013CCDE90C015C
S2140047106EE7002D90D00F9B002B8DD0013D8BE7D0
S214004720FB799F501344D33FB3C8608B288AC63F9B
S21400473061436F63A787D23F71A379094F930A40FD
S2140047401655B5BBB16B0240EF39FAFE422EE63F76
S2140047502D431CEBE2361A3F0000000080842E41F9
S214004760FFFFEF7F0000F83F0000E03F00002C4016
S21400477000002440000018400000F03F2020DDE943
S2140047800913089DA8470134ADE700BF00000000EC
S2140047902DE9F04F5BEC10AB97B0CDE90501DDE9F4
S2140047A02058CDE90723504652465B465946229F7D
S2140047B018F0B6FA70B90323CDE902870193AA4B25
S2140047C00093DDE90501DDE9072333F09FFB17B011
S2140047D0BDE8F08F4FF0FF326FF480135046594615
S2140047E018F0A8FA28B10423CDE9028701939F4B5D
S2140047F0E6E74FF0FF32504659469D4B18F0B8FAA0
S21400480068B19C4A07F00403002B08BF03229A4BAA
S2140048101CBF13460422CDE902870192D0E750461A
S2140048208DA3D3E90023594618F0A2FA38B98CA311
S214004830D3E900235046594618F07CFA68B1DDE902
S2140048400723DDE905014BEC10ABCDE92187209568
S21400485017B0BDE8F04FFFF7DFBD0022002350463B
S214004860594618F067FA002800F091805B465246D9
S2140048700020002117F034FE012382468B46099360
S21400488017F4806400F08580092D40F285800024AE
S21400489030210EABA5F109020134202C03F8011BD0
S2140048A0A5EB040901D09442F6D15946504618F0BB
S2140048B069FA724B054603EBC90393ED007B8DED59
S2140048C00A7B17F05BFF02460B465046594617F028
S2140048D007FEDDE90A2317F0BBFF02460B46CDE9CB
S2140048E00C2318F077FA064617F038FF02460B46F8
S2140048F0DDE90C0117F0F4FD02460B46CDE90C236A
S21400490000225F4B18F034FA002848D001363046B3
S21400491017F024FF02460B46DDE90A0118F014FAE8
S21400492008B100260135B9F1000F45D1284617F029
S21400493025FF02460B465046594617F0D1FD002289
S2140049404F4B18F0F7F910B9E90700D501350A21E1
S2140049500EAB1A19202C0AD095FBF1F001FB10556E
S214004960303502F8015B013405460028F2D107F025
S2140049700302012A55D1B8F1000F52D0099A12B994
S21400498017F00C0F01D008F1FF38302240E00990F4
S21400499076E74FF0060988E7A946002485E7002257
S2140049A0DDE90C01364B18F0C5F90028BBD10EB175
S2140049B0F007B8D50136B6E70A210EAB1A19202C37
S2140049C00DD0B6FBF1F001FB1063092E03F13003A6
S2140049D009F1FF3904F1010402F8013B11D8302136
S2140049E0A1440EAA202CB2D04C4504F101030AD1F2
S2140049F004F158020DEB02042E2204F8202C1C466B
S214004A00A5E70646DBE7A1541C46EBE71A5501343A
S214004A10444506D2202CF9D1CDE9028701940EAB8D
S214004A20CEE6202CF8D0099B3BB12D2204F158038A
S214004A306B4403F8202C0134EEE77A0704D504F122
S214004A4058032B226B44F4E73B07E5D504F15803E3
S214004A5020226B44EDE700BF0000000065CDCD418D
S214004A600000000065CDCDC10142040005420400EF
S214004A70FFFFEF7FF8410400FD410400888B04002F
S214004A800000E03F0000000070B58EB02C22002130
S214004A9003A818F02BFD64234FF002320893CDE9EB
S214004AA005230B2301218DF834305B4B8DF8101055
S214004AB01D880D4040F0A980084637F051FB0A22B9
S214004AC0564B574C1A704FF42873ADF812304FF00F
S214004AD0FF332360534B54491B8820460B82534BAD
S214004AE0534A1B68CD828B61524B0D621B884B82EA
S214004AF0514B1B68CB611FF067F920B14FF41B7157
S214004B004E4838F0C8FB0521206833F0C0FC20B1C1
S214004B1040F27D21494838F0BEFB206817F09CFC27
S214004B20474B2068196833F075FD0C2537F080FF79
S214004B306843099037F07CFF68430DEB050107904A
S214004B40206819F095FB20B140F295213B4838F0DB
S214004B50A2FB256821F070FB00220146284633F0B0
S214004B60D1FD20B140F29721344838F094FB40F252
S214004B700353344D344E2B80052396F90000AB705A
S214004B807F2801D11FF016FA3378EB7037F050FF0C
S214004B9000EB80008000A88037F04AFF0023C000AA
S214004BA04FF0FF31E880AB604FF0FF3018A3D3E939
S214004BB0002337F027FC2549206833F05CFD206889
S214004BC002A934F078F920B14FF434711B4838F05C
S214004BD062FB042220680DEB020133F0F0FC04288F
S214004BE004D040F2D721154838F055FB01A9012022
S214004BF033F0F1F809F018FC01201FF05FFE2FF0EB
S214004C0054F91FF085FE1FF06DF90EB070BD00BFA1
S214004C100A0020FF42030000486900207D70002043
S214004C206863002036A504004C7700203CA50400ED
S214004C3089C1030034A5040038A50400CA7A04001C
S214004C40947400205C6300203A7A0020FDC10300C3
S214004C500348044B834202D0034B03B11847704706
S214004C60687A0020687A002000000000064B07499A
S214004C70C91A891048BF0131491003D0044B0BB143
S214004C8001481847704700BF687A0020687A0020FD
S214004C900000000010B5064C237843B9FFF7D8FF94
S214004CA0044B13B10448AFF300800123237010BDFA
S214004CB04816002000000000BCC8040008B5044BDD
S214004CC01BB104490448AFF30080BDE80840CDE7B7
S214004CD0000000004C160020BCC80400A3F5803A73
S214004CE0704700BF154B002B08BF114B9D46FFF7C2
S214004CF0F5FF00218B460F461148124A121A18F08B
S214004D00F5FB0C4B002B00D098470B4B002B00D02C
S214004D1098470020002104000D000B4818F02CFFD7
S214004D2018F0BCFB200029002DF045FC18F012FFFF
S214004D30000008000000000000000000081000202E
S214004D4008100020D4700020E1DB010007B5012127
S214004D5020200DF1070201F061FE58B10223012167
S214004D6020200DF107028DF8073001F067FE03B032
S214004D705DF804FB9DF807100229F8D002220948C6
S214004D8017F0A2FA022301210DF1070220208DF868
S214004D90073001F053FE2DF04BFB4FF4FA6001F0A4
S214004DA087FCE4E7C8D6030038B501F0FFFB03F044
S214004DB04FFE02F035F9012805D002F031F902283D
S214004DC001D002F053F9124D2B783BB902F028F9C6
S214004DD00128044602D12DF0D1FB2C7002F020F9F8
S214004DE00128044609D101F0C7FB2DF034FB094A1F
S214004DF0094B117811B91470186038BD1A68074944
S214004E00821A8A42F9D91860BDE8384003F04CBED1
S214004E10276A0020266A002064160020DF9304001C
S214004E2010B5044600882DF0CFFAA37884F8440025
S214004E30834202BF0123E3702371074B04F11C0079
S214004E40C4E9073401F0F6FE224620880349BDE88F
S214004E50104001F07DBD00BF371C0300011C03009D
S214004E6070B5C37804460D461646002B34D1D1B132
S214004E70214817F029FA0123E370E36CA6600BB112
S214004E80E06D9847E368F61A63699E4221D2217E58
S214004E901A480131C9B2217617F016FAA36D13B17C
S214004EA0217EE06D9847E5702DF0D5FA15B323798D
S214004EB003BBA268238A801A83421BD801231048AA
S214004EC0237117F001FA236DA3B1E06DBDE87040C1
S214004ED0184701232376E6E70029E4D1094817F0AE
S214004EE0F3F9636DE660E5702571002BDBD0E06DAD
S214004EF09847D8E770BD00BFF0D6030001D703007F
S214004F002FD703001CD7030013B5C8B1C2B10129BF
S214004F1010D0022911D099B9C369283083B114047E
S214004F20B4FBF3F404600848009417F0CDF90020B1
S214004F3002B010BD036A2C30F0E7436A3030EDE76C
S214004F404FF0FF30F4E700BF45D703000A46044998
S214004F500346086810B119462CF0C9BE704700BF5A
S214004F606816002070B5044694F89D2094F89E308C
S214004F70D21A4032514201F03F0102F03F0258BFC0
S214004F804A42D2B2162A00D870BD03F03F0222442D
S214004F9092F85D20552A05D0013303F03F0384F8CC
S214004FA09E30E1E700205822191801F03F01214405
S214004FB091F85D1001300A441628D2B2F4D1D243DB
S214004FC003F1160101F03F01214491F85D10D2B2C1
S214004FD08A42E1D1012120462CF04EFE04210546EE
S214004FE020462CF049FE0A21064620462CF044FEB8
S214004FF0A26AC4E907655643E26A030248BF434211
S21400500002FB05F5226B48BF23F07F4002FB00F34E
S21400501003F500431B0C360C2D0C23816062A68022
S214005020E5802DF018FA237E33B90123237694F811
S2140050309E3060611733B0E742F210726369C31A9C
S2140050409342F2D82269B4F9081003FB01222261C8
S214005050064A23699342E8D3A3F55B13A3F53A53B4
S2140050602361E3680133E360F3E700BF80EE3600B8
S21400507010B5044601F084FE2046FFF773FF0221B8
S214005080054801F069FE04F134004FF47A71BDE87A
S21400509010402DF0D7B900BFC17B04002DE9F843BE
S2140050A00D4616469846044610B3A8220021043042
S2140050B018F01CFA40F29D1240F20513C4E90A23C8
S2140050C06923DFF8889023634246314628461A4B08
S2140050D025806680C9F8004001F0DAFD074660B119
S2140050E00023324629461548C9F8003017F0ECF878
S2140050F04FF0FF373846BDE8F8832DF0ACF90123B2
S21400510084F85C300E4B6061C4E92834032384F8CD
S214005110A8300C4BC4E90D343434204601F08AFD27
S21400512020464FF47A712DF08DF9434632462946D3
S214005130054817F0C9F8DDE74D4F00007ED703009D
S214005140C47B040071500000ABD703006816002033
S21400515058B101B1816202B1C26203B10363816AD0
S214005160D0E90B23014817F0AFB87047DCD703002F
S2140051702DE9F8430E4617461D460446002846D03D
S21400518092220021063018F0B1F9224A224B30460E
S214005190C4E9152343F273630022E36511462680B3
S2140051A06780A5802DF032F90022A071114638469E
S2140051B02DF02CF900224FF001081146E071284628
S2140051C02DF0CFF828462DF0EBF884F83C802DF033
S2140051D042F9124B04F16009C4E91834206284F8DD
S2140051E08980484601F026FD0D4B3A463146C4E913
S2140051F023340C482B4684F8948017F065F848460C
S21400520041F288312DF01EF90020BDE8F8834FF0FA
S214005210FF30FAE7305C020076CF01000B1E030079
S214005220E07B040001D8030060B1002914BF01230D
S214005230002380F88A30044B0449054818BF1946F5
S21400524017F042B8704700BF35D8030047D80300B0
S21400525058D8030058B101B1416502B1826503B167
S214005260C365416DD0E91623014817F02DB8704785
S21400527073D8030013B5C8B1C2B1012910D00229F2
S21400528011D099B9836C543083B11404B4FBF3F491
S21400529004600848009417F017F8002002B010BD0C
S2140052A0C36C5830F0E7036D5C30EDE74FF0FF302D
S2140052B0F4E700BF99D8030070B5044600F1440631
S2140052C080F83B1030460D462DF0C1F8238F1BB1F9
S2140052D094F83A30AB4205D129462046BDE87040E6
S2140052E02CF010BE84F83C302DF0B5F8064B206448
S2140052F0C4E91134304601F09DFC3046BDE87040EC
S21400530014212DF09FB800BF2D1F030070B51E4658
S214005310838804460D46C18002810BB1868070BD2D
S21400532044302DF094F894F83430BBB194F836102D
S214005330002908BFFF2120462CF0E4FD0123E3707E
S214005340074BA680C4E903340C34204601F072FCF7
S21400535029462046BDE870402DF074B8FF21EAE7E4
S2140053607F1F030058B1064B064A0749C0E90023D1
S214005370064BC0E902130023C0E90433836170477B
S2140053801E009065C409102708523C00600E803E3F
S21400539010B501790446B1FA81F1008849092CF06C
S2140053A05CFF21796088B1FA81F149092CF055FF3C
S2140053B0034B1A68A24204BF00221A6010BD00BF49
S2140053C06C16002070B543790446A3B100880E4ED3
S2140053D004F10805336813B10C4B1B786BB12179C7
S2140053E02CF03BFF64210A4B3460A3602846BDE8DE
S2140053F070402DF027B84088E9E7064816F064FFAD
S214005400054B3221A360F1E76C1600202A6A0020C3
S21400541091530000D6D80300C553000010B50446CB
S214005420E0B10F4816F050FF01236371A37953B91A
S214005430217920882CF011FF236B7BB1606B012152
S214005440BDE8104018472046FFF7A2FF04F1080009
S2140054502CF0FDFF2046FFF7B5FFEDE710BD00BFBF
S2140054600CD9030010B50446F8B1104816F02CFF0E
S21400547000236371A3796BB921792088B1FA81F191
S21400548049092CF0EAFE236B7BB1606B0021BDE876
S214005490104018472046FFF77BFF04F108002CF069
S2140054A0D6FF2046FFF78EFFEDE710BD17D90300A5
S2140054B010B5044668B1074816F006FF6379204623
S2140054C01BB1BDE81040FFF7CDBFBDE81040FFF7A9
S2140054D0A5BF10BD23D9030010B50E4C0E482146BB
S2140054E016F0F2FE82210D4816F0EEFE8221022012
S2140054F0A21E01F0A3FA014630B134F8022C084887
S214005500BDE8104016F0E0BE0648BDE8104016F0B4
S214005510DBBE00BFAE64002032D903004DD90300C5
S21400552058D903009CD9030038B50E4C8221224678
S214005530022001F073FAA51C014650B122880A48E1
S21400554016F0C2FE47222846084918F05FF946239F
S214005550238035F8021C064A0648BDE8384016F097
S214005560B3BE00BFAC640020A7D9030027DA03004F
S214005570AE64002005DA0300034B1B781BB18B4298
S21400558001D82CF055BF7047CF790020884208B567
S21400559004D3034816F098FE01F07EF808BD00BF5D
S2140055A06EDA030010B5044601460E4816F08CFE6F
S2140055B0012C11D10C4B0D481A884FF6FF739A42F6
S2140055C01EBF0022094B5A742CF072FD03F050FCEB
S2140055D0BDE8104003F082BA0448BDE810402CF045
S2140055E069BD00BFA3DA03007C7900202074002088
S2140055F02DE9F04704460D46164600274FF06C0985
S214005600DFF82C80DFF82CA098F80030BB4206DCD0
S214005610324629462046BDE8F04702F0CFBD09FBDA
S21400562007A033462A462146FFF770FE0137EBE710
S214005630336A00203433002008B501F0F1FC01285D
S214005640064807D12CF034FD03F048FABDE80840C0
S21400565002F0DCBD2CF02EFDF6E700BF2074002023
S21400566070B500241A4D1B4E3378A3421BDC002471
S214005670194D1A4E3378A3421BDC0024184D194EE0
S2140056803378A3421BDC01F0CBFC012816481CD162
S2140056902CF00EFD03F0ECFB03F020FABDE87040A2
S2140056A0124801F0DDBC2846FFF7BAFB013460352E
S2140056B0DAE728462CF0B2FC01346C35DAE72846E7
S2140056C02CF0D0FD01343835DAE72CF0F3FCE5E7B2
S2140056D0142F0020326A002034330020336A002062
S2140056E0E42C0020316A002020740020A55500001C
S2140056F02DE9F04F89B0FFF717FF984B07A80793DF
S2140057002CF0EEFD054617F0EDFD954CC2B21F2AB3
S214005710627004D9934816F0D7FD00F0BDFF294605
S214005720A01C18F073F807A82CF0DAFD054617F051
S214005730D9FDC2B21F2A84F8212001D98A48EAE797
S214005740294604F1220018F061F807A82CF0C8FDDD
S214005750322604464FF000082578002D2FD1834CC2
S214005760FFF77EFF2378824F0093824E824B3A7873
S2140057701B783178814816F0A7FD814B81489A68DE
S214005780002A00F0F58490F800C0BCF1000F00F08D
S214005790ED842A467C4991F802E00132754538BF0F
S2140057A07546944501F1B801F5DC023D032D00F283
S2140057B0FE85DFE815F0FA05F805F605F405532D25
S2140057C00FD163784C2B40F05681A378502B40F0D5
S2140057D052816E4B01221A7007A82CF081FD0446F8
S2140057E0BAE7322D07D16378452BF5D1A378502B35
S2140057F0F2D1674BEEE7442D13D16378303B092B8B
S214005800EAD8601C2CF079FD624B634A19780023B5
S21400581086B2994202F16002DEDD22F8466C013360
S214005820F7E7422D0BD16378542B40D1A01C01F032
S214005830DDF85A4B188018462CF0BFF9CCE7592DE6
S2140058401FD8412DC8D9A5F14303162B00F2458475
S214005850DFE813F0C302430419034304430443047C
S214005860B2004304430451002000430443044304AD
S2140058704304590111016802430443046802A50168
S2140058800202692DA8D1601C2CF037FD80B22CF0E6
S214005890CBFDA1E7374B012019780023404A9942F7
S2140058A002F1AC0298DD02F8AA0C0133F7E7394F93
S2140058B00B213C4A3878FFF769FE601C01F096F829
S2140058C00546E01C2CF091FD0121024628462CF0EE
S2140058D048FD60213B7830485943421845524FF402
S2140058E0FA6111824FF4487151612F495683116550
S2140058F001333B7070E7DFF8BC8005212B4A98F82F
S2140059000000FFF743FE601C01F070F800224FF025
S2140059106C09824611462CF024FD254D98F800703F
S214005920E11C09FB07F307FB0957384625F803A0D7
S2140059302CF0BCFC38462CF071FB0021104A98F87D
S21400594000305160012103FB09550B4415601174AA
S21400595088F800304FF001083EE700BFAE64002034
S2140059601C730020C2DA0300D9DA03002D6A002077
S2140059702F6A0020306A00202E6A0020D8DB030041
S214005980207400202C6A0020742100202A6A00203F
S214005990296A0020326A0020142F00207C7900201B
S2140059A0282A0020E9DA030097220300F1DA030030
S2140059B034330020336A0020C74D0521C74A2878B3
S2140059C0FFF7E4FD601C01F011F800224FF06C09AF
S2140059D0824611462CF0C5FCC14F2B78E11C09FB12
S2140059E003F203FB0979484627F802A02CF05EFC78
S2140059F048462CF013FBBB4BBB491C7808460023DB
S214005A009C420ADD0A6D58314ABB582202FB03004D
S214005A106C232A7802FB03730365B4490023084607
S214005A20D1F8A420EAB9AC2202FB03006C232A7842
S214005A3002FB0373C0F8A430B8F1000F0BD1AC4AD8
S214005A404346114652F8040B88B96C22287800FBAE
S214005A50027241F823202B7801332B70BCE6013309
S214005A60CEE70133042B01F1AC01D9D1E4E70133D1
S214005A70042BE7D1EFE7DFF8A4929E4F99F80000D9
S214005A800B219D4AFFF782FD04219C4A3878FFF7D8
S214005A907DFD601C00F0AAFF0546E01C2CF0A5FC6E
S214005AA00121024628462CF05CFC602099F8002074
S214005AB0934950430B180D524FF4487018825861A2
S214005AC090485E839865E078AC24642804BF012083
S214005AD098703B78854D5C4328192B554FF400741D
S214005AE0448003240471847102EB420401EB4411E8
S214005AF0816032210133DBB20132437180F8A0109D
S214005B0089F80020F5E6804DDFF8D89128780A213C
S214005B107E4AFFF73BFD06217C4A99F80000FFF716
S214005B2035FD601C00F062FF00224FF0380B824605
S214005B3011462CF016FC2B78754F0BFB03F327F859
S214005B4003A04FF0010AFA1882F804A0E378692B44
S214005B5014D100231371582299F8003062485A4332
S214005B608118835428780133C0EBC00207EBC207C4
S214005B70421CCF642A7089F800302DE6002BEAD04C
S214005B80E01C00F033FF0022044611462CF0E9FB2F
S214005B902B780BFB03735C8083F806A0DBE7DFF84B
S214005BA07CA1DFF87C919AF800000B210130524A64
S214005BB0C0B2FFF7EBFC0321564A99F80000FFF746
S214005BC0E5FC601C00F012FF0746E01C00F00EFF2C
S214005BD00546601D2CF009FC0446024601213846A5
S214005BE02CF0BFFB2246284601212CF0BAFB602091
S214005BF09AF80030424A00FB03F4111917534FF489
S214005C004874404F0C824C618F654E83591CC9B254
S214005C10484302EB000CACF81040CCF81440942437
S214005C201552981C8AF8000099F800003A4D444333
S214005C3003EB430301EB410102EB4313CCF858702E
S214005C4002EB41122F1928550130ACF81A607B6020
S214005C50BA6089F80000BFE54FF0000A1E4F052124
S214005C6038781E4A0230C0B2DFF884B0DFF87080A1
S214005C70FFF78CFC651CE31D2846049300F0B6FE77
S214005C800022114681462CF06CFB6C2338780235D6
S214005C9003FB00F108EB010228F80190914610463C
S214005CA0E11D03922CF002FB039A484682F834A0CA
S214005CB02CF0B4F96C233A7802FB0381049B013282
S214005CC09D424BF8041B3A70D6D10122084BC3F80C
S214005CD00CA01A743EE600BF336A0020F1DA030017
S214005CE0343300202F6A002018280020282A00209D
S214005CF020740020306A0020E9DA030003DB03008A
S214005D00142F002079550000316A0020F6DA0300CF
S214005D10E42C0020FDDA03005C260020326A002016
S214005D202E6A0020542D14BF01270227984BDFF857
S214005D30A4A293F8009005214846964AFFF726FC51
S214005D409AF800000A2101383844934AC0B2FFF797
S214005D501DFCB82202FB09F3904D4FF06C0BE918BE
S214005D6005F8039002238F7003FB074113FB0743DC
S214005D7009FB02550131DFF86092039104939AF80B
S214005D800020601C531C02FB0B978AF8003005921B
S214005D9000F02CFE059A02340BFB02F209EB02031C
S214005DA029F802000022114605932CF0DAFA4FF08B
S214005DB00102059B3846039983F834202CF076FAC6
S214005DC038462CF02BF9049B45F8047F9C42D6D12C
S214005DD06F4A137801331370FEE4DFF80092704FB9
S214005DE099F800000A2101306E4AC0B2FFF7CEFBD8
S214005DF003216D4A3878FFF7C9FB601C00F0F6FDFA
S214005E000546E01C00F0F2FD002204461146284636
S214005E102CF0A7FA0022204611462CF0A2FA3820D1
S214005E2099F80030614A00FB03FC02EB0C0122F8F3
S214005E300C504FF0010C002581F804C08D7103EB67
S214005E400C01C9B248431452702402EB000E981C91
S214005E5089F8000038788EF806504443544DC3EB5A
S214005E60C303C1EBC10102EBC3038EF804C002EB0F
S214005E70C10205EB040C28550130CCF80430CCF8F0
S214005E8008203870A8E46378502B40F0A98021469B
S214005E90484816F019FAA01C00F0A8FD0546201D7B
S214005EA000F0A4FD0746A01D00F0A0FD4FF6FF730E
S214005EB09D4281463FF490AC9F423FF48DAC9842A1
S214005EC03FF48AAC03463A4629463B48FFF750F96A
S214005ED000287FF481AC08345621049020462CF02C
S214005EE0DCF94121039020462CF0D7F95721834650
S214005EF020462CF0D2F94921824620462CF0CDF9D6
S214005F0001782D48A1F1490359425941FFF78CF910
S214005F10039A049B1178562933D1501C2CF0EDF9C6
S214005F2004469BF80030412B2DD10BF101002CF0DC
S214005F30E4F983469AF80030572B27D10AF101007E
S214005F402CF0DBF903465A4621461B48FFF782F938
S214005F5019482BF0CEFF194C01462060184801F076
S214005F60CDFD216817482CF031FE0123164A29463C
S214005F701370164A164813704B463A4616F0A4F9A4
S214005F802AE41C46CDE74FF0000BD3E70023DAE700
S214005F902C6A00200CDB030013DB030074210020B6
S214005FA02D6A0020F6DA030022DB0300E42C002032
S214005FB00C25002029DB0300D4190020241900201A
S214005FC04817002008100020286A0020CE790020FC
S214005FD057DB03002B6A00203C1D0020316A00209E
S214005FE0422B7FF4F9AB2146564816F06DF9A01CFB
S214005FF000F0FCFC0546201D00F0F8FC4FF6FF7391
S2140060009D4207463FF4E8AB98423FF4E5AB04F107
S2140060100609532148462CF040F903788B4254D1A8
S21400602001302CF06AF903463A4629464648FFF7FF
S21400603035F8044600287FF4CFAB562148462CF0AE
S2140060402CF94121834648462CF027F957218246F1
S21400605048462CF022F99BF800308146562B04D196
S2140060600BF101002CF049F904469AF80030412B58
S2140060702ED10AF101002CF040F9824699F8003042
S214006080572B28D109F101002CF037F90346524668
S21400609021462D48FFF75CF82B482BF042FE2B4C90
S2140060A0014620602A4801F029FD216829482CF085
S2140060B08DFD0123284A29461370284A2848137064
S2140060C03A4616F001F9FFF787BB4FF49653ABE755
S2140060D04FF0000AD2E70023D9E74F2D7FF47CABC0
S2140060E063784C2B7FF478AB1B4B1B78002B3FF46C
S2140060F073AB0234432120462CF0CFF807465021DC
S21400610020462CF0CAF83B780546432B15D1781C60
S2140061102CF0F3F884B22B78502B10D1681C2CF09E
S214006120ECF882B221460F482BF0E6FF084B0E48EB
S214006130B3F86A20B3F85E10C3E70024EBE700224A
S214006140F0E700BF29DB03002819002024190020EF
S2140061504817002008100020286A0020CE7900206A
S21400616086DB0300A4170020AADB03000F229A7424
S214006170B14B327893F80090B04DB9F1000F18BFCC
S21400618091463B782D782478991800782944214444
S21400619001444944C9B20C2900F20B81002503448E
S2140061A02846A74C0394AA4200F30981012938BF68
S2140061B00121A44D04912A4600232C464FF48271F7
S2140061C04FF6FF7804980133984213705180A2F876
S2140061D0048002F10C02F5DC9B4B9A499B48A360B5
S2140061E001F068F8E079A36800EB400003EB80005C
S2140061F000F05EFCE37993490133E371944C9548D3
S21400620001F0B6FF2388434503D08E49924801F03B
S214006210A3F94FF6FF7322888A49D21A18BF0122C3
S2140062208E4802F081FB4FF00008DFF814A2864C7F
S2140062303378434500F3CC80894B1B785BB1894BA0
S2140062401B78012B07D17F49874801F0A1FC7D49C7
S214006250864802F07FF94FF000084FF00C0BDFF88D
S21400626010A2784D3A78424500F3C6807C4B1B78E6
S21400627023B11AB17E497C482CF06FFB0C214FF0FD
S21400628000084FF0940B3B7896F800A09A4401FB68
S2140062900A516A4B1878774A404500F3FD800C2176
S2140062A04FF0000A96F800803B789844804401FB43
S2140062B0085B714B714A1878504500F303810C2136
S2140062C04FF0000B3B7896F8008098445B4B1B78A9
S2140062D09844804401FB085A694A6A4B12785A452A
S2140062E000F30D815E4B1B78ABB1DFF878B19BF8FD
S2140062F0001001290FD94FF00C08013908FB015195
S214006300594801F045FC9BF800105848013908FB35
S214006310015102F01FF933783A7806211344474AB0
S214006320012612781344544A12781344544A1278B9
S21400633013440C2202FB035500231846039A994582
S21400634002F1AC0205F10C05039200F3F480049907
S2140063503C48444D00F09EFD01F058FF404B40F293
S214006360055240F6043128781E7800F075FD0022AC
S214006370044640F20271287800F06EFD214602467F
S214006380304600F013FF079B3F491A468B4240F009
S214006390E5803E4809B0BDE8F04F15F095BF0722EE
S2140063A0E5E60322E3E60422E1E60222DFE6012236
S2140063B0DDE60C22364815F087FFFFF7AEB994F8F5
S2140063C005C001359C45C4BF20716071AC34EAE657
S2140063D0B8F1000F06D015F8053C03EB430304EBB9
S2140063E08304AC602946504602F06CFE08F10108B2
S2140063F00AF1AC0A0C351BE7317811EB08010AD01C
S2140064004A1E0BFB0252D27902EB420204EB8204D4
S2140064100BFB0152946050460BFB015102F01CFC32
S21400642031781C4841440BFB015101F025FE08F170
S21400643001080AF1580A15E7296A00202E6A00208A
S214006440282A00206C1A0020FC1A00201C7300204A
S2140064507C79002038170020E816002070160020EF
S214006460286A0020CE790020481700200810002057
S214006470182800205C2600202D6A00200C2500200D
S2140064802C6A002074210020AE64002065DC030026
S21400649028DC0300D82C002018EB0A0F18BF11F8D0
S2140064A0050C05911EBF00EB400004EB80048C60D9
S2140064B00BFB082001F014FA05992D4B08F1010892
S2140064C00C31E7E61AEB080F18BF1BF8050C594607
S2140064D01CBF00EB400004EB80044FF0700018BFB8
S2140064E0CBF8084000FB0A2001F0D0F859462148B6
S2140064F001F0C2FD0AF1010A0BF10C0BD9E6B82037
S2140065001BEB080F18BF1AF8052C00FB0B301CBF3E
S21400651002EB420204EB8204514618BFCAF8084058
S21400652001F0E0FE5146134801F0A6FD0BF1010B09
S2140065300AF10C0AD0E615F8112C039F02EB420272
S21400654004EB820415F80C2CC4E9001045F8044C42
S21400655005F8056C07F8042C0133EFE613F8011D67
S21400656000297FF411AF3B2102F8011C0CE700BFA5
S2140065702E6A0020D82C002008B5094B1B786BB17A
S21400658008482CF0EDF907482CF068FA064802F0A7
S2140065906DF8BDE8084004482CF02ABB08BD00BFD3
S2140065A0286A0020481700200810002008B5064B6F
S2140065B01B783BB105482BF0A4FCBDE80840044816
S2140065C02CF0CEB908BD00BF286A0020D4190020E0
S2140065D04817002007B5012121200DF1070200F021
S2140065E01DFA18B99DF80720024B1A7003B05DF823
S2140065F004FB00BFCF79002007B5064B8DF80700D7
S214006600187001210DF10702212000F017FA03B0DF
S2140066105DF804FBCF79002007B5022101200DF1BB
S214006620060200F0FBF938B9044815F04DFEBDF837
S214006630060003B05DF804FB0020FAE782DC0300E6
S21400664007B50221ADF806000DF10602012000F0A4
S214006650F5F9014610B1034815F036FE03B05DF8B3
S21400666004FB00BFA3DC030010B5FFF7D5FF04460C
S2140066700146074815F028FE0121064815F024FEBD
S21400668024B9BDE810400120FFF7DABF10BD00BFF7
S214006690D3DC0300E5DC030008B5044815F014FE5F
S2140066A000F0DCF92BF0C4FE2BF0BFFEFBDC030091
S2140066B038B50446084D094B28462B6000F0BAFA58
S2140066C0002C18BF21462846BDE8384008BF4FF4C6
S2140066D096712BF0B7BE00BF50350020192303007B
S2140066E02DE9F043384D91B008AC074689469046F0
S2140066F00FCD0FC495E80F00002684E80F00012593
S2140067000323324C3248CDE90366CDE905668DF8A1
S2140067100E300796029536F067FD2E4836F064FD7B
S21400672032462D4920468DF8176005F0F3FD3346B6
S21400673032462A498DF81900009020468DF823909D
S214006740CDF82C808DF8216005F0FEFD0A902046DD
S2140067508DF8097005F060FD204608AA05A905F029
S21400676019FE02AA204603A92DF066FA4FF400721D
S2140067701B4B5A62194BE560626A920510D46BB9DE
S2140067804FF40072164B11485A6205F045FD114849
S21400679036F02DFD002011B0BDE8F083013BEBE79D
S2140067A0002BEDD0094908A82DF079FA4FF40072B5
S2140067B00B4B06485A6205F02FFD064836F017FDCB
S2140067C0BDF82000E7E700BFFC7B04000040005A4D
S2140067D0B07E0400AC7E040080841E0040420F00A1
S2140067E00060005A0122034B1870034B1980034BBC
S2140067F01A707047356A002084790020346A0020B9
S214006800F8B5454B1B780BB90020F8BD434B1B78F9
S214006810012B03D1BDE8F8402BF081BD404B1C880E
S2140068204FF6FF739C42EFD03E4836F0DDFC002367
S214006830260AE4B21A462146304605F0ADFC012E83
S214006840354604F0010335D015D9B51E012DDBD829
S214006850002B0BBF4FF480754FF080754FF47061BE
S2140068604FF070610BBF01274FF480370F204FF4B5
S21400687070202D4B11E0002B0BBF4FF480754FF0AE
S21400688080754FF470614FF070610BBF01274FF4B5
S21400689080370F204FF47020244B1A6802401CD01B
S2140068A0BA421AD01A680A4032D11A6822EA01029D
S2140068B02A4316E0002B0BBF4FF480754FF080750F
S2140068C04FF470614FF070610BBF01274FF48037B3
S2140068D00F204FF47020164BDFE71A6822EA0002FA
S2140068E03A431A602BF01BFD054600288CD008366C
S2140068F044EA06102A460321C0B2FFF7F1FE40F62E
S214006900FF73684300F2FF70B0FBF3F080B27CE7E1
S21400691095427FF479AFC8E7346A0020356A0020D4
S21400692084790020B07E040028C3035020C303509F
S21400693024C3035010B5044C237823B9034836F01B
S21400694053FC0123237010BD376A0020B07E04007C
S2140069502DE9F0431F4C85B0074688469146FFF761
S214006960E9FF23781BB903F0C7F8012323707BBA2D
S214006970ADF80C3030220023174E02FB03F4315DD5
S214006980A51901BB012333554FF0FF3304F1100066
S21400699012493044AB606F80C5F80480C5F80C908F
S2140069A00AF062FC04F10801042231440C4B009505
S2140069B003A803F077F9A96802460A4815F084FC94
S2140069C005B0BDE8F0830133102BD6D1064815F08C
S2140069D07BFCF5E7366A0020783500204323030069
S2140069E05523030008DD030036DD030080B102787E
S2140069F0A2F14103032B0BD840783038C0B20828E8
S214006A0006D8054B134413F8413C40EA0320704770
S214006A104FF6FF70704700BF1C7C040008B50B469D
S214006A2042B101460448006804F080FABDE8084018
S214006A302BF0F4BC022008BD8C74002008B50B4671
S214006A4042B101460448006804F0F8FBBDE808407F
S214006A502BF0E4BC022008BD8C740020F0B50026A4
S214006A60124F8DB0FF2300930A223346386802A9DE
S214006A702CF09FFEC0B102AB1D4603EB800404E081
S214006A8055F8043BB34228BF5E1CAC423868E9D9CF
S214006A90296804F059FD0028F2D02D28F0D00DB05A
S214006AA0BDE8F0402BF0BABC0DB0F0BD8C740020F1
S214006AB028B1034B0360034B436000238360704799
S214006AC019000003347400202DE9F04F0023074618
S214006AD0DFF828818B4698F80020424985B022FAD4
S214006AE003F0C00708D531F81300B84204D15DB2F0
S214006AF0284605B0BDE8F08F0133032BEFD112F026
S214006B00010667D1384C75B294F80090B9F1000FC1
S214006B1021D10F2249460DF1010016F0E7FC3F2374
S214006B208DF80090DFF8C89069464846ADF8023008
S214006B302DF0F4F81E2005F09FF84FF47A43B0FBD2
S214006B40F3F02A4B1860D9F830300123C9F81C003E
S214006B50C9F80C3023700D220021684616F0C6FCDA
S214006B60BBF1000B18BF4FF0010B0323204C6A4605
S214006B70314620468DF806308DF80AB02DF00BF918
S214006B80236B00234FF0010A04EB461083664FEA9E
S214006B901729184BF9B249EA014032B243F82200ED
S214006BA0154A0AFA06FAD2F84C35484643EA0A036A
S214006BB0C2F84C355B46042205F0EEFA98F8003031
S214006BC043EA0A0388F80030064B23F816708FE76E
S214006BD0022697E7910795D55307F9D54FF0FF356D
S214006BE086E700BF2E650020396A0020783800202E
S214006BF000C0045050C5035000C00350386A00203F
S214006C00022810D8084B1B78C340DB070BD5074B70
S214006C101B6803FB0111FF23B1FBF3F1044B1A6B56
S214006C2003EB401319677047386A00207838002055
S214006C3000C00450FF2307B50021044A0093083023
S214006C400AF096FA03B05DF804FB00BF3F24030089
S214006C507FB50D4E0D4C33686A4600211046A56977
S214006C602D0606D411F0FF0101D003B1984704B0F9
S214006C7070BD656A0131102902F8015BEFD1002B67
S214006C80EAD09847E7E700BF7C3800200080055030
S214006C902DE9F0478A46914688B0002A4DD04FF637
S214006CA0FF72904249D0914247D0254A5FFA80F859
S214006CB0070A38460E0A13604146012304225FFA8B
S214006CC08AFA204D05F068FA01AC3046012302220C
S214006CD0514605F061FA0FCD0FC495E8070084E829
S214006CE00700002401A91848CDF80C908DF8044040
S214006CF005F01EFE1022154B47EA084746EA0A46EC
S214006D00C3F8C475C3F8BC65C3F8AC250423104AA1
S214006D100B209364A2F58052D36407F031F90B2060
S214006D2007F012F9084805212DF072F801222046D6
S214006D30084B1A7008B0BDE8F0874FF0FF30F9E74F
S214006D407C380020207C04000080055000C00350E2
S214006D5000A005503A6A002070B5074B04461B7821
S214006D604BB141B1054E451814F8011B30462DF0C5
S214006D705EF8AC42F8D170BD3A6A0020008005503B
S214006D8010B5074B1B784BB136F090F90446FFF769
S214006D905FFF2046BDE8104036F083B910BD00BF47
S214006DA03A6A00200B4604490246086803490978F7
S214006DB008B12BF06DBB70478C3800203C6A002071
S214006DC0F7B50C4618B12F21194836F064FA246836
S214006DD023685E795F8830463946FFF7E3FFF0B1F7
S214006DE08568E5B1A089227D3946904291BF002092
S214006DF0801AA36880B294BF03469B18E27C00907A
S214006E003046A8470138032803D8DFE800F0080F0B
S214006E100B0D0024204630F093F8204600E0812039
S214006E2003B0F0BD8024F5E79324F3E78724F1E769
S214006E305EDD030007B50B4600920549024605488D
S214006E40097800682BF046FB03B05DF804FB00BF32
S214006E503C6A00208C38002007B50B460092064995
S214006E6002460648097800682BF034FB003818BF45
S214006E70012003B05DF804FB3C6A00208C3800203B
S214006E8008B5034B1B6803B19847002008BD00BF38
S214006E90883800202DE9F74F04460D460026454B5E
S214006EA0454F1860454B197033010021F85C0136D8
S214006EB011F02EFA0C2EF7D10C2D28BF0C254FF012
S214006EC0000901953C4EDFF800A13D4DDFF8FC803F
S214006ED0019B4B4502DC03B0BDE8F08F23784FF0F2
S214006EE0000B337063887380A388B380A379C6F8D9
S214006EF00880B371E379C8F8005088F804304FF082
S214006F000003A768A8F80630E3795B450ADC012190
S214006F1016F8100B11F0FCF908F1080809F1010940
S214006F200C34D5E74FF0000338886B812880FB7857
S214006F304FF0000C2B81BA78C5F804A0002A009206
S214006F400CBF802240222A7379680AF10C0263453E
S214006F5013DC03EB43030AEB830ABB6843B1009AD6
S214006F604FF6FF71B2FA82F2164B52092FF078FFF5
S214006F7014350BF1010B0C37C6E7B1F800E00CF145
S214006F80010C22F80CEC91F802E00C3202F816EC38
S214006F9091F804E00C3102F815EC11F809ECBEF19A
S214006FA0010F14BF4FF0100E4FF0110E02F814EC44
S214006FB0CDE700BF8C3800204C5000203C6A0020F3
S214006FC0903E0020C16D0000903800201041002047
S214006FD0014B1860704700BF84380020014B1860D2
S214006FE0704700BF8838002070B5128805460E46E8
S214006FF0FFF720FF044670B102790499806816F006
S214007000C7FA064B1B680BB9002070BD31462846F0
S21400701022889847F8E78620F7E700BF84380020E4
S21400702008B510F011FA022806D0012806D0044B45
S21400703018784000C0B208BD0120FCE70220FAE73D
S2140070403B6A0020054B10B51C682CB1FFF7E8FF23
S2140070502346BDE81040184710BD00BF803800200A
S214007060014B1860704700BF80380020034B1A7829
S2140070701AB901221A700CF047BA70473B6A002012
S2140070800022024B1A70FFF7DDBF00BF3B6A0020EC
S21400709037B50446002832D010F0D6F9022830D191
S2140070A0608930F0AFFAE079237A003818BF012003
S2140070B0012B637A08BF40F008000BB140F01000C7
S2140070C063890BB140F00400257CA188A2790DB13C
S2140070D0E36873B90C4B11F0F7FC2178084611F001
S2140070E06FFD2FF0B8FD002814BF0320002003B06A
S2140070F030BDCDE90035054B11F0E6FCEDE702208A
S214007100F5E70120F3E700BFBB30040030000400C1
S2140071102DE9F04186B005460E4690461F469DF87E
S214007120344010F091F9022824D1082C16D8ADF876
S2140071300C808DF80E702CB122460C990DF10F00C4
S21400714016F064FB03AB033400930A223146082092
S214007150094B019411F0B8FC18B1032006B0BDE845
S214007160F0812946284611F02BFD2FF074FD0028EB
S214007170F4D0F2E70120F1E73000040008B50EF085
S21400718021FB014630B1044815F09EF8BDE80840E2
S2140071900EF0BCBE08BD00BFECDD0300024B187C41
S2140071A000B11868704700BF2074002050B1002955
S2140071B00CBF30213121002A0CBF30223122034877
S2140071C015F082B82D210A46F9E700BF19DE030044
S2140071D0034B044A5B7C012103201370FFF72EBC8F
S2140071E0207400203D6A002037B50446FFF7F0FF04
S2140071F0B4F57F4F27D10025204B1A8813449D7085
S214007200FEF76AF92846FFF753FA1D4D2A68C2B101
S214007210FFF7C4FFA8B14FF605739C4224D192F83D
S21400722041102AF01AFF2B680421B3F8422093F885
S21400723041303220ADF8062001AA8DF80430FFF761
S214007240FDFB03B030BD4FF601739C4203D10D48E1
S2140072502AF00FFFD9E74FF602739C42D5D10A4BAE
S2140072601878FFF7C9F9D0E74FF606739C42E8D1C5
S214007270B2F842102AF0FBFED5E700BFAC6400204F
S2140072807041002020740020CF79002010B5074CF4
S214007290012122460320FFF7C1FB28B92378044AC0
S2140072A0003B18BF0123537410BD00BF3D6A002089
S2140072B0207400207B4BF7B51A884FF6FF739A426E
S2140072C018BF032304464FF036004FF008020D4661
S2140072D075494FF0320718BF0B70744B1871382081
S2140072E01A703022987131209A705A711A724FF4BF
S2140072F00012D8716E486264E0646E480122206510
S2140073006D48A618A0656D48E667E0656C486D4E4A
S21400731060666D485F70A0666C48DF7020676C48DA
S214007320C4F880606067202084F8780084F88400C1
S21400733004F12100C4F88800664884F8482084F8E0
S214007340542084F8602084F86C20C4F88C0084F8FC
S2140073509020C4F89410C4F8B8305F4B5F49C4F866
S214007360BC300223C4F898105D4984F8C030C4F8D5
S214007370A41010215B4B84F8A810C4F8C4305A4BF4
S2140073805A49C4F8C8308223C4F8AC10584984F867
S214007390CC30C4F8B0100921564B574EC4F8D03044
S2140073A0564B84F89C20C4F8D430554BC4F8A04003
S2140073B0C4F8DC30337C84F8B41084F8D820002B72
S2140073C06AD0504B84F8E420C4F8E03006F111038C
S2140073D0C4F8E830FFF7E2FE90F83430002B5DD0BA
S2140073E090F83630042184F84130FFF7D7FE038F3B
S2140073F001AA3846A4F84230FFF710FB38B99DF8CA
S214007400043084F84130BDF80630A4F84230FFF767
S214007410C5FE94F841102AF020FEFFF7BFFEB4F830
S21400742042102AF024FE384B10211C60374BC4F85B
S214007430EC30012384F8F03004F14103C4F8F43052
S214007440334BC4F8F830022384F8FC3004F14203CE
S214007450C4F800314FF0000CEA79A86802EB42034A
S2140074609F0000EB830320F807C0D9700121443445
S21400747099705C605318EB71FFF7ACF8FFF706FFE6
S214007480FFF7CEFD01280BD1337C4BB11A4803B071
S214007490BDE8F0402AF0EDBD0D21DBE70E21D9E76F
S2140074A003B0F0BD7C790020E07900203E6A002021
S2140074B0417C040001002000407C04000200200003
S2140074C03F7C040005004200030020003E7C0400D0
S2140074D00400420007003000FDFF210012001001EA
S2140074E0004042003C7C040000FF4401D0790020AC
S2140074F006004200AC6400202074002002FF200139
S214007500CF79002001FF10017041002005FF200107
S21400751006FF210113B504460D482AF059FB6422E4
S214007520C0F30F43637083B2B3FBF2F3A07823700B
S214007530202201212AF0E9FFA078212201212AF049
S214007540E4FF0449201D02B0BDE810402AF07ABFCF
S2140075507C790020E09304000B7870B583704CF6BD
S2140075601E0303804FF02013C362012380F83030DF
S21400757080F83C30C3180364124B0446436402236D
S214007580114A80F84830114B8263C3644063CA795D
S2140075908D6802EB420305EB830004F12C0646607F
S2140075A00B4E45F8236000238360531CCB71094BB8
S2140075B0201DC4E90134FFF73DFB2046BDE87040BE
S2140075C0FFF7A8BFFDFF210021002000427C040039
S2140075D00100010315750000437B044A0121137066
S2140075E000781130C0B2FFF729BA00BF486A002001
S2140075F038B504460078054D11302A460121C0B240
S214007600FFF70CFA08B92B78637338BD486A002078
S214007610024B53F820002BF053B800BF74410020F3
S214007620012908B506D0022907D049B92BF03FF842
S214007630002008BD2BF03EF8FAE72BF03EF8F7E7FF
S214007640024814F041FE0120F3E700BF30DE0300DD
S21400765010B4054C114654F820001A46BDF8043004
S2140076605DF8044BFFF7DCBF74410020002310B523
S214007670044683810364A0F844304830FFF7DAFA02
S214007680014BC4E9123410BDA726030038B50446E2
S2140076900B781A4A43700D4642F82300FFF7E6FFC0
S2140076A02046FFF7A5FF4FF4401323610123144A39
S2140076B02375A261134A84F82030E261124A84F8E6
S2140076C02C306262114A84F83830A26204F10C024F
S2140076D022630F4A04F10D036263E363EA79A86844
S2140076E002EB420300EB830110344C60094C40F877
S2140076F02340094B8B60531CEB7138BD744100204E
S214007700476A002008002000E179002000FF3000D2
S21400771001FF1001020101045176000010B470242C
S214007720427B0D48013A012904FB020006D00229DB
S21400773008D059B95DF8044B2AF0B9BF5DF8044B80
S2140077402AF0B8BF5DF8044B2AF0B7BF03485DF8CF
S214007750044B14F0B9BD00BF0C2500204CDE03001E
S214007760B0F85C302DE9F0418B4204460E4638D026
S214007770437B077C8BB31C4A12789A422DD3702524
S2140077801A4A013B05FB032390F80F801B7B4246F9
S2140077902AF0A4FFB845054601D1FF281FD13A4676
S2140077A03146204694F890302AF098FF2F4605463A
S2140077B0552212216078A4F85C602AF0A6FEFF2FFE
S2140077C003D039462046FFF7A9FFFF2D09D02946EA
S2140077D02046BDE8F0412AF0C1BFFF25DFE7074697
S2140077E0E6E7BDE8F08100BF2D6A00200C250020EA
S2140077F041688268C978D27849B112B10321FFF78F
S214007800AFBF837B002B0CBF01210221F7E72AB113
S214007810837B002B0CBF02210121F0E7014814F006
S21400782053BD00BF5DDE0300037BD3B14368DA7847
S21400783012B18268D278A2B91B7933B1837B002B50
S2140078400CBF04210521FFF78BBF83681B792BB182
S214007850837B002B0CBF05210421F4E7014814F0BC
S21400786033BD70478FDE0300084A437B0521137043
S214007870837B5370C37B9370037CD370037B13713D
S21400788000780E30C0B2FFF7D9B800BF496A0020B2
S21400789038B5044600780C4D0E302A460521C0B295
S2140078A0FFF7BCF820B1BDE83840084814F00CBD1E
S2140078B02B7863736B78A373AB78E373EB782374DE
S2140078C02B79237338BD00BF496A0020CBDE030046
S2140078D0024B53F820002AF08BBF00BFA4410020C3
S2140078E0F8B504460B78424A43700D4642F823002A
S2140078F0404E2AF09BFFFFF7CBFF6268A3683E4826
S2140079003E49D6641165D4655065C3E91410DE643B
S214007910DC654FF0987302266361012304F10C01C5
S214007920E16137491032216204F10D01A162354947
S2140079302376E16204F10E016163334984F8243052
S214007940A16304F10F012164304984F8303061648A
S21400795004F11001E1642E4984F83C3084F8483084
S214007960216584F85460A265E879A96800EB4002B6
S21400797001EB820704F1140CC7F804C04FF4817CB5
S214007980244F41F82270C218D2B202EB420241F8EC
S21400799022C001EB820700227A601F4A84F870300A
S2140079A022661E4A84F88830A2661D4A1D4BE2668F
S2140079B01D4AC4F88C3062671C4A8319A26704F11A
S2140079C05C02C4F88020DBB2194A03EB4303C4F818
S2140079D0842084F8646084F87C6001EB8302603461
S2140079E05460144A033041F82320E871F8BD00BF04
S2140079F0A4410020F1770000B32703002978000097
S214007A0001002001020010010300300104003001D3
S214007A100500210101FC01064A002100447C040007
S214007A2051001000467C0400477C040055002100ED
S214007A306F0018001200010400B589B001A92AF0F1
S214007A400FFF084B10210493019B04AA0593029B89
S214007A502C200693039B0793FEF7F0FF09B05DF812
S214007A6004FB00BF43574C48F0B54843DDE90576B4
S214007A70204C214D82EAE271A1EBE271A042B0FBFC
S214007A80F5F589B225D9642012FB00F26FF0630089
S214007A9092FBF5F28242B8BF0246642AA8BF64226F
S214007AA052B205FB05F44943A14221D24FF0804073
S214007AB0641A84420FD3002178B947F6FF708142DA
S214007AC028BF014603B11D8007B1398006B1327068
S214007AD0F0BD0022E5E78008EBE701EB000CA445CB
S214007AE04FEA51019CBF0918A4EB0C048008E3E799
S214007AF00021E7E79F860100A086010038B50D4605
S214007B00044600B3F9B14FF4EE72002115F0EEFC16
S214007B100F23A3600C4B6560A36103F16173E361FF
S214007B204FF0011304F15C002362FDF71BFCE36DCC
S214007B30E367236EC4F88030636EC4F8843094F82C
S214007B406C3084F8883038BD010064001FB50446E8
S214007B50B8B14368ABB16A4610212C20FEF75EFF31
S214007B6078B9094B009A9A420BD1DDE902230199B4
S214007B7060682AF07DFEDDE902230199034814F0CF
S214007B80A3FB04B010BD00BF43574C48FADE030009
S214007B90F0B5044685B0002800F03081002900F0DA
S214007BA02D814FF4D813C0F88C3000F10803C0F8CC
S214007BB09430934B0422C0F89830022300F10C0551
S214007BC0C0F8A0508F4D80F89020C0F8A45000F167
S214007BD00E05C0F8AC508C4D80F89C30C0F8B05004
S214007BE000F11005C0F8B850884D80F8A830C0F8ED
S214007BF0BC5000F11805C0F8C450854D80F8B4306C
S214007C00C0F8C85000F11A05C0F8D050814D80F871
S214007C10C030C0F8D45000F11C05C0F8DC507E4DD2
S214007C2080F8CC30C0F8E05000F11E05C0F8E850EF
S214007C307A4D80F8D830C0F8EC5000F12005C0F836
S214007C40F450774D80F8E430C0F8F85000F1220583
S214007C50C0F80051734D80F8F030C0F8045100F1C0
S214007C60240580F8FC3080F80821C0F80C516E4DD1
S214007C7080F81421C0F8105100F12C05C0F82451EA
S214007C806A4D00F12802C0F8285100F12E05C0F810
S214007C903051674DC0F81821C0F8345100F1300556
S214007CA0C0F83C51634D644AC0F8405100F13205BB
S214007CB0C0F84851614DC0F81C21C0F84C5125252C
S214007CC0012280F8505100F13405C0F854515C4D43
S214007CD080F82021C0F8585100F17C05C0F86051AA
S214007CE0584D80F82C31C0F8645100F17E05C0F87C
S214007CF06C51554D80F83831C0F8705100F1800550
S214007D00C0F87851514D80F84431C0F87C5100F1EC
S214007D108205C0F884514E4D80F85C31C0F8885119
S214007D2000F1840580F8683180F8743180F880317D
S214007D3080F88C31C0F89051464D80F89831C0F8E4
S214007D40945100F18605C0F89C51434D80F8B0313F
S214007D50C0F8A05100F18805C0F8A8513F4D80F842
S214007D60BC3100F11403C0F8AC51C0F8C03100F1CA
S214007D7012053B4BC0F8B4513A4DC0F8C43100F17F
S214007D80160380F8A421C0F8B85180F8C821C0F8BE
S214007D90CC31CA798D6802EB420305EB830600F10D
S214007DA08C077760304E45F823606E46531CCB71C7
S214007DB00B7804F15C0503702C4B1860FFF7C6FEC9
S214007DC020462AF08AFD324610213320A76EFEF7A1
S214007DD025FE18B996E80F0085E80F002846A76626
S214007DE02AF0A3FDE36DE367236EC4F88030636E6C
S214007DF0C4F8843094F86C3084F8883005B0F0BD50
S214007E0005052100080521000B05290000062100B4
S214007E1001062100020621000306210004062100B7
S214007E200506210000FF230001FF230010FF2101AB
S214007E3011FF210112FF210102FF200020FF420155
S214007E4030FF210131FF210132FF210133FF2101E3
S214007E5034FF210135FF210136FF30000F052100D8
S214007E60100528000E052900040B011BD441002034
S214007E702DE9FF414C4B1C688CB1237883420ED110
S214007E80606860B14FF61273994241D00AD84FF637
S214007E90107399422CD04FF61173994231D004B02A
S214007EA0BDE8F0814FF62073994238D0D03189B2C0
S214007EB00529F4D8E36F04F15C00E365D4F880305C
S214007EC02366D4F8843063662AF02FFD024610211C
S214007ED03320FEF7B3FDE36DE367236EC4F880300E
S214007EE0636EC4F8843094F86C3084F88830D6E733
S214007EF00021E28D2AF0AAFC0023E3850028CED1DB
S214007F0021E00121228E2AF0A1FC00232386F5E73A
S214007F100221628E2AF09AFC00236386EEE7002395
S214007F2094F834504FF00A0C232D28BF2325CDE9B2
S214007F30013304F1350703939D420DD8DDE9022392
S214007F4001992AF095FC6068FFF776FD204604B09C
S214007F50BDE8F0412AF0C1BCFA5C562A14D0572A74
S214007F6014D0412A0DD1012100220133DEB2F3B232
S214007F709D420DD804AE013B06EB8101DBB241F811
S214007F800C2C0133DBB2D7E70021EDE70221EBE74B
S214007F9017F806E00136AEF13008B8F1090FE9D857
S214007FA00CFB02E2303AE2E7D441002070B50D4601
S214007FB01346064614460A4601462B4814F084F932
S214007FC0B5F5817F3FD00DD8082D08D8082D08D8E4
S214007FD0DFE805F02407070707072F293300202DC1
S214007FE03DD070BD40F604339D4232D00CD8B5F576
S214007FF0407F22D040F202739D42F2D121463046A5
S214008000BDE8704000F084BB4FF601439D42E8D1C6
S21400801021463046BDE87040FFF75ABC2046BDE812
S2140080207040FFF7E1B821463046BDE8704001F0E9
S2140080300DB82146304600F0C7FD21463046BDE863
S214008040704000F045B921463046BDE87040FFF765
S214008050DFBA21463046BDE87040FFF709BF20462C
S214008060BDE8704000F02CBC2ADF03000148FEF794
S214008070AFBF00BFAD7F00004FF4C01330B5036044
S21400808001230371074B8C688360CA7902EB4203B5
S21400809004EB83056860044844F82300531CCB7146
S2140080A030BD00BF487C04000400010138B500253F
S2140080B00446458005482AF0CAF9FDF7BDFA2A4667
S2140080C020780321BDE838402AF01FBAD8410020A6
S2140080D043880BB9FFF7EABF013B9BB24380002BF6
S2140080E0F8D04FF47A7101482AF0ACB9D841002094
S2140080F038B5114B0446186019B9BDE83840FFF78B
S214008100D5BF41804FF4FA714FF6FF7208460B4D0B
S214008110FDF76EFA0A4B2846C5E90034FEF78AFDDD
S21400812028464FF47A712AF08DF920780022BDE8AF
S214008130384003212AF0E9B900420020D841002047
S214008140D180000010B51446084A106850B14CB9EA
S21400815053B1BDF80820012A06D91988FFF7C8FFD1
S214008160204610BD0124FBE70324F9E70042002067
S2140081700B7830B503700D4B1860002343800C4B12
S214008180436002230372C318C360CA798D6802EB8A
S214008190420305EB830404306060064845F823007C
S2140081A0054BA360531CCB7130BD00BF00420020BE
S2140081B00000210103000101458100002DE9F84F70
S2140081C006460F469346104C04F1300A54F8049BBA
S2140081D0B9F1000F14D15445F8D1BDE8F88F09EB7A
S2140081E085055B463A4631466868FDF78FF808F124
S2140081F0010899F802305FFA88F5AB42EFD8EAE753
S2140082004FF00008F5E700BF0442002038B5002410
S214008210044D55F8040B08B12AF021FC01340C2C4F
S214008220F7D138BD0442002038B511F0FB050C46E6
S2140082300CD182B17BB1042C117803D10B1E18BF70
S214008240012303732AF0A7FC284638BD034814F020
S2140082503BF80125F8E70325F6E700BF5DDF0300DE
S21400826070B58678012E0DD90A2908D162B1012B86
S2140082700AD91388C3812AF04AFC002070BD03483F
S21400828014F022F80120F9E70320F7E77FDF030068
S21400829030B40E4D0C4655F8200011461A46BDF86F
S2140082A0083078B1082C07D0B4F5407F07D0062CEC
S2140082B008D130BC2AF078BC30BCFFF7B5BF30BC64
S2140082C0FFF7CEBF012030BC704700BF044200203D
S2140082D0034B53F8200008B12AF019BC704700BFC2
S2140082E004420020F0B5774A0B78044642F8230093
S2140082F04370437B0D4685B00BB9FE234373E38979
S2140083000BB9FA23E3814FF6FF732383012320780A
S2140083100C213430A37601AAC0B2FEF77FFB88B9E1
S2140083209DF80630BDF804202375BDF8083062823B
S214008330E382BDF80A302382BDF80C3023839DF813
S2140083400E30A3764FF6FD71228B531E9BB28B42E6
S21400835000F2AA80E281A37C022B00F0AB80FF2B08
S21400836000F0AD805A1E534253412373237D03B160
S214008370637320462AF073FB4FF480130126E361F3
S21400838004F10C036362504B84F82060A36204F18E
S214008390120384F82C602363E879AA6800EB400394
S2140083A002EB830104F11C074F60484F04F1400EB6
S2140083B042F823704FF40013454F8F600221236468
S2140083C004F10D03A364434B84F84460E36404F1B2
S2140083D0100363658319DBB203EB430302EB830CE4
S2140083E084F85010CCF804E0DFF8F4E042F823E01C
S2140083F04318DBB2CCF80870EB7194F802C0B445B1
S21400840050D9DFF8E0C084F86810C4F864C004F1FE
S2140084100E0CC4F86CC0DFF8D0C084F88010C4F826
S21400842070C0DFF8C8C084F88C10C4F878C0DFF8D5
S214008430C0C084F89810C4F87CC0DFF8B8C084F8D0
S214008440A410C4F884C0DFF8B0C004F11801C4F862
S21400845088C0DFF8A8C0C4F8A810C4F890C0DFF839
S214008460A0C01D49C4F894C0DFF898C0C4F8AC108A
S214008470C4F89CC0DFF890C004F11A0103EB430374
S214008480C4F8B41084F87460C4F8A0C084F8B0606F
S21400849002EB830164344C60104C033042F82340F6
S2140084A08F60E87105B0F0BDE38A002B3FF453AF50
S2140084B0E38150E7E37CB3FA83F35B0955E7E37C9B
S2140084C053E700BF044200200340300106000102CB
S2140084D09182000000FF21010F0018010003010730
S2140084E0080001020700210008003000E2790020A1
S2140084F00B4021008A7900200C402100887900205A
S2140085000A401900867900201040210113B5044660
S21400851080B100786A4627300821C0B2FEF77EFA9E
S21400852050B9DDE900230948C4E90223C4E924233D
S21400853013F0CAFE02B010BD002200230448C4E9AE
S2140085400223C4E9242313F0BFFEF3E7A1DF0300F0
S214008550CCDF030070B50D460446002858D000292D
S21400856056D00B7804F1200603702A4B1860FFF7EC
S214008570CDFF4FF414132362082304F11002626344
S214008580254A84F82430A26304F111022264234AA7
S214008590E31862640422A362214B84F84820E36255
S2140085A0012384F8542004F11802A2651D4A04F140
S2140085B01401E26504F11C0262661B4AE164A266CD
S2140085C004F11D0222671949194A84F8303084F8EC
S2140085D03C3084F8603084F86C3084F8783004F1ED
S2140085E01E0321656267E367EA79A96802EB420326
S2140085F001EB830046600F4841F82300531CEB71E3
S2140086002978D4E902230C48BDE8704013F05CBE1C
S21400861070BD00BF3442002000033000010322007A
S21400862000021800030318000603180002032200C5
S21400863000F0200102070108FADF030013B5044624
S21400864078B1D0E902230078CDE9002327306A46C6
S2140086500821C0B2FEF7F2F9D4E90223024813F06B
S21400866033FE02B010BD00BF2BE0030030B5044659
S21400867089B040B3436833B31A6822B1126812B1A6
S214008680586801A990479DF81030E3B10399D4F8D3
S21400869080208A4207D8D4E902308A1A9B1840F113
S2140086A00000C4E90230C4F8801029F0D4FED4F8E3
S2140086B08430064AC31A9342054604D92046FFF77B
S2140086C0BDFFC4F8845009B030BD00BFDF9304007E
S2140086D010B50446C0B1002300220021C0E90223E1
S2140086E0C0E924234368C0F880102BB11A681AB179
S2140086F052680AB1586890472046FFF79FFFBDE8CA
S2140087001040024813F0E0BD10BD00BF53E0030068
S214008710B1F5704F034607D1044A106820B10278BD
S2140087209A4201D1FFF7D4BF704700BF3442002001
S2140087300368064A0C21136043685360038913815B
S214008740438922205381FEF779B900BF38420020C2
S21400875010B50368044686B0FBB1114813F0B4FDAB
S214008760A37B104A8DF804304FF48273ADF80630C0
S2140087700123CDE90223002301A804938DF81430C9
S214008780FEF786FC204661892AF033FA2046FA2155
S21400879050F8143B594329F055FE06B010BD00BFF3
S2140087A074E003002000000110B5064C236843B1B6
S2140087B0054813F089FD2068BDE8104041892AF07D
S2140087C018BA10BD4442002095E0030070B5364943
S2140087D010460C68BDF81020002C5ED003285CD82C
S2140087E0DFE800F0021E2745002B5AD0022A58D98F
S2140087F01D78B3F80160291E18BF012132462B48A8
S21400880013F062FD2DB1314620462AF0F2F9002021
S21400881070BDE573FA206368584329F0B7FEF6E7A3
S214008820234813F051FDE37B002B38D00023E3737D
S214008830F0E7002B35D0032A33D91D681D4829469A
S21400884013F042FD1C4B2A1F9A4201D90220DFE793
S21400885023680BB19D42F9D823899D42F6D3E37B6A
S2140088606560B3B9FA20684329F090FE11E0002B4A
S214008870CED0012ACCD91D881048294613F024FDF5
S214008880002DE3D063689D42E0D8E37B2581002B72
S214008890E8D12046FFF74CFFB9E70120B8E70420EF
S2140088A0B6E70320B4E700BF44420020B8E0030068
S2140088B0EFE003000EE10300FCFF6D0039E103006A
S2140088C038B5154B1C6834B3F0B92168134813F05B
S2140088D0FBFC23683BB16268934204D2104813F055
S2140088E0F3FC6368236004F11405284629F0AFFD05
S2140088F0236823B1FA212846594329F0A3FD2046D0
S214008900BDE83840FFF714BF032804D16189054845
S21400891013F0DAFCF3E738BD4442002064E10300BC
S21400892092E10300C7E1030070B53E4B0D460446D6
S21400893009781860002A6FD101231A46A173002116
S214008940E1730121A1814FF46151C4E9001328238A
S214008950354E22810C21324622206381FEF75EF8D6
S21400896060B9D6E900230AB19A4207D33189994201
S2140089709FBFC4E900237389218163812B4B2C4A56
S214008980E363042384F8403084F84C30E31823650E
S214008990284BA2646365022304F10802E265264AB6
S2140089A084F85830226604F10A02A266234A84F844
S2140089B0643084F8703004F10C03E2666367646424
S2140089C0EA79A86802EB420300EB830104F13C0657
S2140089D04E601B4E40F82360FA261A4B1A488B60EE
S2140089E0531CEB71FEF7FAFA208904F11405704364
S2140089F029F0CCFD618920462AF0FBF8134B284667
S214008A00C4E90534FEF716F9216849B128467143D2
S214008A10BDE8704029F016BD4FF4F07302228DE7D2
S214008A2070BD00BF444200203842002000002301F1
S214008A30010023000200210003002101FDFF2100A8
S214008A4020000105CD870000A9870000518700009F
S214008A50134B10B51C680CB3E37BEBB129F0FBFCA1
S214008A602369C01A002809DB0E4813F02DFC0023EA
S214008A70FA20E3736368584329F088FDE37B5BB113
S214008A802489FA235C4329F08CFDA04206D02046B8
S214008A90BDE8104029F07ABD6468F2E710BD00BF5B
S214008AA044420020F4E1030073B5002401260A4D79
S214008AB055F8042B52B1D36C43B1053350780621D8
S214008AC00093002210230196FEF722FB01340C2CA3
S214008AD0EED102B070BD00BF4842002038B5002479
S214008AE0044D55F8040B08B12AF096F801340C2C06
S214008AF0F7D138BD48420020042908B50AD172B122
S214008B006BB113781BB92AF0B2F8002008BD2AF022
S214008B10A4F8FAE7034813F0D7FB0120F6E7032092
S214008B20F4E700BF2EE2030010B4054C114654F8DB
S214008B3020001A46BDF804305DF8044BFFF7DCBF92
S214008B40484200200229024608B50ED004D839B99A
S214008B5010462AF08CF806E04029F9D0412907D1C2
S214008B6010462AF07AF8002008BD2AF08AF8FAE7BC
S214008B70024813F0A9FB0120F6E700BF4EE203000F
S214008B8010B4054C114654F820001A46BDF80430BF
S214008B905DF8044BFFF7D6BF48420020C26C094B75
S214008BA052791A7082785A70C2789A70026D12B131
S214008BB090F85420DA70007804210930014AC0B2D7
S214008BC0FDF73CBF4E6A0020034B53F8200008B167
S214008BD02AF09AB8704700BF4842002038B50446CD
S214008BE00078084D09302A460421C0B2FDF716FF6A
S214008BF030B96B78A370AB78E370EB7884F85430B8
S214008C0038BD00BF4E6A002038B504460078114DC6
S214008C1009302A460421C0B2FDF700FFC8B9A37880
S214008C202A78022B0CD004D863B920462AF01FF805
S214008C3001E0FF2B0AD02046BDE8384029F0ECBF03
S214008C40002AF2D120462AF008F8F4E7002AF9D1E3
S214008C50EBE738BD4E6A0020F8B504460B783D4A6F
S214008C600D4642F823004370FFF7B8FFE36C3A4A1C
S214008C705C631A632046FFF7C7FF204629F0CCFF47
S214008C804FF4801301266360E36C26720533E360BD
S214008C90324B26752361A31CA361236D002B54D091
S214008CA02F4A84F82060E261E21C62622D4A84F852
S214008CB02C60A26204F15402226393F83420002A46
S214008CC045D093F83620204684F855201B8FA4F80C
S214008CD0563029F0E0FF94F85510206D29F0BDF9C4
S214008CE0B4F85610206D29F0C2F91F4B84F838608E
S214008CF0636304F15503E3631C4B062623640223D7
S214008D0084F8443004F15603A3640627EA79A96878
S214008D1002EB420321F8237001EB830001238370EA
S214008D20134B04348360531C4460DBB2114C03EBDA
S214008D304303C67041F8234001EB830000234360E1
S214008D400D4B02328360EA71F8BD0226DDE7042689
S214008D50DBE700BF48420020E52C0300034030015B
S214008D6001FF300102FF100103FF200104FF210173
S214008D70818B000008000100298B00000B4B1B783C
S214008D8083420AD358220A4B013802FB0033DB6CBD
S214008D905879003818BF01207047B822C01A054B12
S214008DA0013802FB0033187BF3E700BF2F6A002070
S214008DB018280020742100200C4B1B78834209D30E
S214008DC058220B4B013802FB003009B129F045BF91
S214008DD029F04DBFB822C01A431E064802FB030006
S214008DE009B129F0C9BE29F0CBBE00BF2F6A00200A
S214008DF01828002074210020034B1878034B1B789A
S214008E001844C0B2704700BF2F6A00202C6A0020AA
S214008E1010B542790446104629F0A3FFB0B9114BAD
S214008E201B789A4208D8BDE8104058200E4B013AED
S214008E3000FB023029F025BFB820BDE81040D21A4A
S214008E400A4B013A00FB023029F09EBE204629F06C
S214008E5093FF80F00101C9B22046BDE8104029F01A
S214008E60A6BF00BF2F6A002018280020742100200B
S214008E7070B500250A4C0B4E3378AB4200DC70BD53
S214008E80D4F8A41041B123791BB1204629F0A8FFDD
S214008E9010B9084629F0B2F80135AC34ECE700BF4B
S214008EA0282A0020306A002010B586B00446FEF757
S214008EB0B7F8012812D16378094A8DF804304FF4C8
S214008EC08273ADF806304FF48073CDE90223002399
S214008ED001A804938DF81430FEF7DAF806B010BD3A
S214008EE00800070110B586B00446FEF799F8012879
S214008EF020D16278104B8DF804204FF4827294F8DB
S214008F00A01094F8A10059701870ADF806200493CC
S214008F104FF480720223094901A88DF81430CDE978
S214008F200212FEF7B5F894F8A130013B18BF0123F2
S214008F3084F8A13006B010BD526A00200800050172
S214008F4010B58378044686B0BBB30379022B05D1EF
S214008F5029F046FF10B12046FFF75AFFA379022BEF
S214008F6002D1204629F094FF94F8A830BBB1FEF752
S214008F7057F8012813D194F8A830114A8DF8043018
S214008F804FF48273ADF806304FF48073CDE90223B8
S214008F90002301A804938DF81430FEF779F82046D4
S214008FA0FFF7A0FF0223552212216078A4F86C3048
S214008FB006B0BDE8104029F0A8BA06B010BD00BF44
S214008FC0060002014388094A0821138083885380DB
S214008FD083681B8A938090F8A03093718379D3714D
S214008FE000780430C0B2FDF729BD00BF346500200C
S214008FF038B50D4604460178134813F065F94FF668
S21400900002739D4211D1FFF7F7FE28B96071204622
S214009010BDE83840FFF7D6BF6379FF2BF7D00BB11A
S2140090209842F4D201236371F1E7B5F57F4FEED194
S214009030204629F0F5FFA378022B0CBF0122002260
S214009040A3689A70E3E700BF6AE20300024B53F896
S2140090502000FFF7CDBF00BF7842002038B5044699
S2140090600078154D04302A460821C0B2FDF7D6FC1C
S21400907020B1BDE83840114813F026B92B8863802C
S2140090806B88E978A380AA88A3681A82AB7984F8EB
S214009090A030EB79A371FFF7AFFE08B9607138BD59
S2140090A0FF29FCD009B18142F9D9054813F00CF923
S2140090B0237801336371F2E73465002084E203000D
S2140090C0ADE20300F8B504460B78474A0D4642F871
S2140090D023004370FFF7C2FFA268444BD465D364F5
S2140090E0434B02265365434BA11C13654FF44013B4
S2140090F0E36001236161E1623F491032216322652A
S214009100211D3E4AA1633E483E49626504F1A00225
S214009110A061E163E265E01C611D3B4A2062616478
S2140091203A483B492266A21D2374237784F82830E8
S21400913084F8343084F84030A16484F84C6084F8B5
S214009140583084F864306062A266E879AA6800EB5A
S214009150400102EB810704F10C0CC7F804C04FF085
S214009160060C2C4F42F82170C118C9B201EB410120
S21400917042F821C002EB810700217960264F84F86F
S21400918080302767254F84F89830A767244F254BF3
S214009190E767254F84F8746084F88C60C4F89C30C8
S2140091A004F16C06831CC4F88470C4F890601F4FEA
S2140091B01F4EDBB203EB4303C4F89460C4F8887018
S2140091C002EB83067034746008261A4C42F823407B
S2140091D0C31CDBB203EB430302EB8304043042F808
S2140091E023606160E871F8BD78420020052F030017
S2140091F0C12F0300418F000001FF300104FF200152
S2140092001000300102FF200105FF300100FF300191
S21400921003FF2101070001084A0021004A7C0400E0
S214009220510010004C7C04004D7C040055002100C9
S2140092306F0018001200010400239B6AB3F5804FEC
S21400924003D21968064A914203D000230370836054
S2140092507047012202709A689B694260F7E700BF78
S21400926007B0CD5E024B034A1A602BF092BB00BFDC
S2140092700000002002020FF073B53F4B04461A7838
S2140092801AB102221A7002B070BDCDE90022002881
S214009290F9D001261E7033F009FF384D384B1860A0
S2140092A017F0F4FD2B785BB902F0F2F940B93548B7
S2140092B00823354A3549006801F038FE00B92E709B
S2140092C0334B5A68E260334A9A601A6E22605A6ECE
S2140092D06260D3F87021A2601B6E5C042CD52E4A07
S2140092E0D368D807FCD42D4B1A68531C29D04FF4EA
S2140092F0801393402A4A13660423294C4FF0804279
S21400930023664FF480632366102323664FF40053CE
S2140093106846236601A92266636629F099FE009BCB
S2140093202366019B63662B78002BACD0164B1A681D
S21400933022665B686366A6E71A4AD368D907FCD438
S214009340D1E7194B1B78002BD6D1184B5A68144B13
S21400935012B94FF480121A66154A526812B94FF4C1
S21400936000121A66134B5B68002BC5D14FF48002BF
S2140093700B4B1A66C0E700BF556A0020566A0020ED
S214009380B84200208C740020BC4200200071080007
S2140093900080004455CEAC00000004405874002005
S2140093A00090004400000450546A002000800550DD
S2140093B000C005500000065038B5224D04462B78F4
S2140093C0012B02D001232B7038BD0028FCD029F0D9
S2140093D064FE013009D029F060FE40F20113984285
S2140093E003D0194AD368DB07FCD42268174B1A66E9
S2140093F062685A66A268C3F87021E268D40744BF60
S21400940000229A60124B1A68013213D1114A127860
S21400941082B911494968C80748BF1A600F4A52689E
S214009420D10744BF01221A600D4A5268D20744BFD2
S21400943002221A6017F032FD0A4B186833F031FE2C
S2140094400023C0E7556A0020000004400080004466
S21400945058740020546A00200080055000C0055053
S21400946000000650B842002070B50024A36AB3F589
S214009470804F23D21A68134B9A421FD1124E33786C
S21400948013F0FD0518D14FF480341048FFF7F4FEB2
S214009490032004F075FD0E4B0320DC6004F054FD41
S2140094A00C4B1C61AB6ADB69984704460748FFF71C
S2140094B083FF0CB901233370204670BD4FF48174CE
S2140094C0FAE700BF07B0CD5E546A0020A84200202D
S2140094D000A000440090004413B5204B1B7803B94D
S2140094E0FEE700231E4CCDE900336A4608231D49DB
S2140094F0206801F01BFDF8B91B4AD2F84031D2F8BB
S21400950040211F2B4FF0010311D9203A9340019AB6
S2140095101A43019208236A461249206801F08EFE1B
S214009520124B134A1A602BF034FA02B010BD934067
S214009530009A1A430092EDE72D28F1D10A4AD2F894
S2140095404031D2F840211F2B4FF0010385BF203A4F
S21400955093409340019398BF0093DBE7556A002041
S2140095608C74002000710800008000440000002079
S2140095700B020FF038B50025AB6A0446B3F5804FF2
S21400958010D21B6BB3F5804F0CD20748FFF774FE62
S214009590AB6A20461B6B5B689847BDE838400248BC
S2140095A0FFF70ABF38BD00BFC442002013B5002431
S2140095B0A36A0190B3F5804F13D21B6BB3F5804FAF
S2140095C00FD20948FFF758FEA36A01211B6B01A8BA
S2140095D09B69984704460448FFF7EEFE204602B013
S2140095E010BD4FF48174F9E7C442002070B5002620
S2140095F0B36A0446B3F5804F0D4612D21B6BB3F523
S214009600804F0ED20848FFF737FEB36A20461B6B22
S21400961029469B69984704460348FFF7CDFE204637
S21400962070BD4FF48174FAE7C442002070B500267E
S214009630B36A0446B3F5804F0D4612D21B6BB3F5E2
S214009640804F0ED20848FFF717FEB36A20461B6B02
S2140096502946DB69984704460348FFF7ADFE2046D7
S21400966070BD4FF48174FAE7C4420020F8B50027B5
S214009670BB6A0446B3F5804F0D46164611D21B6BE7
S2140096807BB10948FFF7F8FDBB6A20461B6B3246E4
S21400969029465B6A984704460348FFF78DFE204636
S2140096A0F8BD4FF40174FAE7C442002070B50026F6
S2140096B0B36A0446B3F5804F0D4612D21B6BB3F562
S2140096C0804F0ED20848FFF7D7FDB36A20461B6BC3
S2140096D029469B6A984704460348FFF76DFE2046D6
S2140096E070BD4FF40174FAE7C4420020F0B50027BD
S2140096F0BB6A0446B3F5804F0D461646ADF5337D7E
S21400970020D21B6BB3F5804F1CD21048FFF7B4FD78
S214009710BB6A20461B6B40F2C1225B6A01A99847D0
S214009720044630B10948FFF747FE20460DF5337D65
S214009730F0BD836A32461B6B2946DB6A01A8984750
S2140097400446EFE74FF40174EFE700BFC442002081
S21400975010B50024A36AB3F5804F10D21B6BB3F587
S214009760804F0CD20748FFF787FDA36A1B6B1B6B65
S214009770984704460348FFF71FFE204610BD012405
S214009780FBE700BFC4420020F0B58FB0044601A836
S2140097900E461546FFF7EEFE9DF80C30012B12D153
S2140097A0B5F5402F27D8B4F5402F24D86319B3F564
S2140097B0402F20D821462A46304614F027F80024A9
S2140097C020460FB0F0BD0027BB6AB3F5804F15D218
S2140097D01B6BB3F5804F11D20A48FFF74DFDBB6AED
S2140097E02A461B6B314620465B6B98470446054865
S2140097F0FFF7E2FDE4E740F20244E1E740F201143D
S214009800DEE700BFC4420020F0B58FB0044601A8D2
S2140098100E461546FFF7AEFE9DF80C30012B1FD105
S214009820B5F5402F06D8B4F5402F03D86319B3F525
S214009830402F13D940F2024420460FB0F0BDE25844
S214009840013225D104339D42F9D82A4631462046B6
S21400985029F053FC0028EDD00024EDE70023F2E7C2
S2140098600027BB6AB3F5804F15D21B6BB3F5804F4C
S21400987011D20A48FFF700FDBB6A2A461B6B314629
S21400988020469B6B984704460448FFF795FDD3E7B0
S21400989040F20344D0E740F20114CDE7C442002072
S2140098A070B58EB0044601A80D46FFF763FE9DF81E
S2140098B00C30012B22D144EA0503C3F30C03002B22
