S01B00006275696C642F72656C656173652F7A69676265652E73333714
S214004000081000208185000015CD0000DB1003009D
S214004010DB1003001DCD000025CD0000DB100300E3
S214004020DB100300DB100300DB100300DB100300D3
S21400403029CD00002C570400DB100300DB10030022
S214004040DB100300DB100300DB1003009980000088
S214004050DB100300DB100300DB100300DB100300A3
S214004060DB100300DB10030029D20000DB10030086
S214004070DB100300DB100300DB100300DB10030083
S214004080DB100300DB100300DB100300DB10030073
S214004090DB100300DB100300DB100300DB10030063
S2140040A0DB100300498900002D890000DB100300A7
S2140040B0DB100300DB100300DB10030011260200F8
S2140040C0ED6B0300E96B0300751D0200036C030033
S2140040D0F16B0300D1250200F56B0300050A020010
S2140040E051260200DB100300DB100300DB10030088
S2140040F0DB100300DB100300DB100300DB10030003
S214004100DB100300DB100300DB100300DB100300F2
S214004110DB100300DB100300DB100300DB100300E2
S214004120DB100300DB100300DB100300DB100300D2
S208004130DB10030098
S214004134F0B5114A114C124E00F00105E3695F0711
S21400414413D40DB9334213D103EA00078F4207D1C3
S2140041540B4A1A40002A14BF6FF001000020F0BD7D
S214004164013AEBD16FF00200F9E74FF0FF30F6E7C3
S2140041746FF00100F3E700BF80969800000003503C
S214004184020001000B4B70B5D96911F480310DD1D2
S21400419401244FF48072084E084DF46020462C64C7
S2140041A41A61FFF7C5FF3464EC6070BD6FF0010060
S2140041B4FBE700BF0000035000100350002003502C
S2140041C438B541F6713301220C4C0021E569E363EE
S2140041D40B4B05F48035DA600223606121202361ED
S2140041E4FFF7A6FF10B92120FFF7A2FF0122054B17
S2140041F4DA600DB10023E36338BD00BF000003504E
S214004204001003500020035070B5134C6061E3693E
S2140042145B071ED40E4656F8043B8D18A361AE42C7
S2140042240BD10423002121202361FFF781FF58B915
S214004234BDE870402120FFF77BBF08210846FFF742
S21400424477FF10B10423236170BD56F8043BA361C5
S214004254E5E74FF0FF30F7E7000003502DE9F84399
S214004264154641F67132164B8946DF69DA63012238
S214004274064603F58053DFF8508007F48037DA608B
S21400428455B9284601220F4BDA601FB10022A3F568
S2140042940053DA63BDE8F88306F5005404EA08041C
S2140042A4A41BAC4228BF2C46494622463046FFF79C
S2140042B4ABFF0028E6D12644A1442D1BE0E700BF4F
S2100042C4000003500020035000E0FFFF45
S2140042D02DE9F04F4FF0FD0BC9B09A460DF11B09C2
S2140042E09DF8503108AFCDF80C90CDF808B0019786
S2140042F0059303890446009383790E4690464188C9
S2140043008288407812F0D0FE054650B10090A3880F
S214004310002062883A4913F00BFA284649B0BDE8F7
S214004320F08F99F800002FF0B3FF38B12846A38825
S2140043306288344913F0FCF98D25EEE75A46394673
S21400434099F800002FF04CFF8346002851D0529B6E
S2140043501BB1BDF84C3198424BD8002399F8009019
S2140043600793A9F14102012A5FFA8BF123D8384658
S2140043700139254ADFF898C05FFA81FE734513DBE2
S214004380059B04210792C3B907AF18221F489FED6B
S2140043901A7B02FB060420460A460830394684ED9E
S2140043A0027B17F0EDFE11E010F8011F01335140BB
S2140043B00CFB01F2E2E7059B33B123464A4638463A
S2140043C0009610F0F3FDA8E70829DED9B8F1000F33
S2140043D001D088F80090BAF1000F01D0AAF800B01A
S2140043E0529B002B99D05A46184608A917F0C8FECB
S2140043F093E7012591E700BF0000000000000000E1
S21400440094FF0300C9FF0300C59D1C8118110020FE
S21400441093010001000000002DE9F04F93B0CDE9B4
S2140044200A32DDE91C530E9353EC102BCDE908013C
S214004430104619468DED060B1E9E17F02BF980B11F
S214004440DDE906014FF0FF32C54B17F04BF940B9D6
S214004450DDE906014FF0FF326FF4801317F024F900
S21400446070B1DDE908019DED060B0E9B1E96CDE9A9
S2140044701C53DDE90A3213B0BDE8F04F00F088B9EE
S2140044800022DDE90601002317F00EF9002800F0EF
S2140044903381DDE906A303F1004BCBF30A5016F493
S2140044A08063A0F2FF3008BF06250F9316F020FEAB
S2140044B09BA3D3E9002316F085FE9BA3D3E9002334
S2140044C016F0CAFCCBF31304894644F07F518046AD
S2140044D00022A44B504641F4401116F0BBFC94A3B6
S2140044E0D3E9002316F06EFE02460B4640464946C8
S2140044F016F0B2FC17F000F9044616F0F9FD8EA38C
S214004500D3E900238046894616F05CFE0022964BCF
S21400451016F0A2FC17F0F0F889A3D3E900230746AB
S2140045204946404616F04EFE80463846894616F006
S214004530DFFD85A3D3E9002316F044FE02460B46B2
S2140045404046494616F086FC02460B46CDE90C234B
S21400455016F038FEDDE90C238046894610461946DB
S21400456016F07AFC0022CDE91001804B4046494601
S21400457016F052FF00227E4B16F06EFC02460B46EB
S2140045804046494616F048FF00227A4B16F064FC77
S21400459002460B464046494616F03EFFDDE90C2330
S2140045A08046894600204FF0804116F053FC0246B4
S2140045B00B464046494616F04FFC02460B46DDE9E0
S2140045C0100116F029FF07F2FF3700226A4B16F09B
S2140045D043FC00223B0516F0F5FD52465B4680463E
S2140045E0894617F07FF8002840F08980CDE90C89CD
S2140045F004F16303C62B8CBF0527042731051BD5A2
S21400460053A3D3E900235046594617F061F8002813
S2140046107FD051A3D3E900235046594617F044F8FB
S214004620002876D00027A542C6BF2C1B04F1FF3514
S21400463000253C4646F480660E9B9F422CBF4FF0FA
S2140046400008A3EB070816F0020903D0002F18BFD6
S2140046504FF000083CB1DDE90C235046594616F0F1
S214004660DBFE82468B46DDE906010022002317F0BA
S2140046701BF810B10BF100439B46DDE9080126F458
S2140046800063CDE90183DDE90A324BEC10AB0095FF
S21400469000F07EF802465FB3DDE9091316F0200F3E
S2140046A000F10105089E0CBF65204520B047DDE9F6
S2140046B008010523002205930A23002CCDE90232C7
S2140046C007F1FF374FEAD473B8BF64422A46019316
S2140046D004970A9B009431F0F7FB0246B9F1000FED
S2140046E006D00B9BC41A0B9B1A190E9BA34245D8E7
S2140046F0104613B0BDE8F08FDDE906ABCDE600222C
S214004700404649461A4B16F087FE013CCDE90C019F
S2140047106EE7002D90D00F9B002B8DD0013D8BE7D0
S214004720FB799F501344D33FB3C8608B288AC63F9B
S21400473061436F63A787D23F71A379094F930A40FD
S2140047401655B5BBB16B0240EF39FAFE422EE63F76
S2140047502D431CEBE2361A3F0000000080842E41F9
S214004760FFFFEF7F0000F83F0000E03F00002C4016
S21400477000002440000018400000F03F2020DDE943
S2140047800913089DA8470134ADE700BF00000000EC
S2140047902DE9F04F5BEC10AB97B0CDE90501DDE9F4
S2140047A02058CDE90723504652465B465946229F7D
S2140047B016F070FF70B90323CDE902870193AA4B68
S2140047C00093DDE90501DDE9072331F0AFFA17B004
S2140047D0BDE8F08F4FF0FF326FF480135046594615
S2140047E016F062FF28B10423CDE9028701939F4BA0
S2140047F0E6E74FF0FF32504659469D4B16F072FFE3
S21400480068B19C4A07F00403002B08BF03229A4BAA
S2140048101CBF13460422CDE902870192D0E750461A
S2140048208DA3D3E90023594616F05CFF38B98CA354
S214004830D3E900235046594616F036FF68B1DDE945
S2140048400723DDE905014BEC10ABCDE92187209568
S21400485017B0BDE8F04FFFF7DFBD0022002350463B
S214004860594616F021FF002800F091805B4652461C
S2140048700020002116F0EEFA012382468B460993AB
S21400488017F4806400F08580092D40F285800024AE
S21400489030210EABA5F109020134202C03F8011BD0
S2140048A0A5EB040901D09442F6D15946504616F0BD
S2140048B023FF724B054603EBC90393ED007B8DED9A
S2140048C00A7B16F015FC02460B465046594616F073
S2140048D0C1FADDE90A2316F075FC02460B46CDE95F
S2140048E00C2316F031FF064616F0F2FB02460B4686
S2140048F0DDE90C0116F0AEFA02460B46CDE90C23B4
S21400490000225F4B16F0EEFE002848D001363046F7
S21400491016F0DEFB02460B46DDE90A0116F0CEFE77
S21400492008B100260135B9F1000F45D1284616F02A
S214004930DFFB02460B465046594616F08BFA00221D
S2140049404F4B16F0B1FE10B9E90700D501350A2124
S2140049500EAB1A19202C0AD095FBF1F001FB10556E
S214004960303502F8015B013405460028F2D107F025
S2140049700302012A55D1B8F1000F52D0099A12B994
S21400498017F00C0F01D008F1FF38302240E00990F4
S21400499076E74FF0060988E7A946002485E7002257
S2140049A0DDE90C01364B16F07FFE0028BBD10EB1B8
S2140049B0F007B8D50136B6E70A210EAB1A19202C37
S2140049C00DD0B6FBF1F001FB1063092E03F13003A6
S2140049D009F1FF3904F1010402F8013B11D8302136
S2140049E0A1440EAA202CB2D04C4504F101030AD1F2
S2140049F004F158020DEB02042E2204F8202C1C466B
S214004A00A5E70646DBE7A1541C46EBE71A5501343A
S214004A10444506D2202CF9D1CDE9028701940EAB8D
S214004A20CEE6202CF8D0099B3BB12D2204F158038A
S214004A306B4403F8202C0134EEE77A0704D504F122
S214004A4058032B226B44F4E73B07E5D504F15803E3
S214004A5020226B44EDE700BF0000000065CDCD418D
S214004A600000000065CDCDC1271D04002B1D0400ED
S214004A70FFFFEF7F1E1D0400231D04006066040078
S214004A800000E03F0000000070B58EB02C22002130
S214004A9003A817F0E5F964234FF002320893CDE936
S214004AA005230B2301218DF834305B4B8DF8101055
S214004AB01D880D4040F0A980084635F061FA0A22AC
S214004AC0564B574C1A704FF42873ADF812304FF00F
S214004AD0FF332360534B54491B8820460B82534BAD
S214004AE0534A1B68CD828B61524B0D621B884B82EA
S214004AF0514B1B68CB611DF021FE20B14FF41B719A
S214004B004E4836F0D8FA0521206831F0D0FB20B1A7
S214004B1040F27D21494836F0CEFA206816F056F964
S214004B20474B2068196831F085FC0C2535F090FE5F
S214004B306843099035F08CFE68430DEB050107903D
S214004B40206818F04FF820B140F295213B4836F027
S214004B50B2FA256820F02AF800220146284631F0ED
S214004B60E1FC20B140F29721344836F0A4FA40F236
S214004B700353344D344E2B80052396F90000AB705A
S214004B807F2801D11DF0D0FE3378EB7035F060FE43
S214004B9000EB80008000A88035F05AFE0023C0009D
S214004BA04FF0FF31E880AB604FF0FF3018A3D3E939
S214004BB0002335F037FB2549206831F06CFC20686F
S214004BC002A932F088F820B14FF434711B4836F051
S214004BD072FA042220680DEB020131F000FC042872
S214004BE004D040F2D721154836F065FA01A9012015
S214004BF031F001F808F0D2F801201EF019FB2DF074
S214004C0064F81EF03FFB1DF027FE0EB070BD00BF1F
S214004C100A0020FF42030000165C002044630020C8
S214004C203C5600200E800400F46900201480040026
S214004C30A99F03000C80040010800400F0550400B7
S214004C403C67002030560020E06C00201DA00300CA
S214004C500348044B834202D0034B03B11847704706
S214004C600C6D00200C6D002000000000064B07496C
S214004C70C91A891048BF0131491003D0044B0BB143
S214004C8001481847704700BF0C6D00200C6D0020CF
S214004C900000000010B5064C237843B9FFF7D8FF94
S214004CA0044B13B10448AFF300800123237010BDFA
S214004CB0481600200000000094A3040008B5044B2A
S214004CC01BB104490448AFF30080BDE80840CDE7B7
S214004CD0000000004C16002094A30400A3F5803AC0
S214004CE0704700BF154B002B08BF114B9D46FFF7C2
S214004CF0F5FF00218B460F461148124A121A17F08C
S214004D00AFF80C4B002B00D098470B4B002B00D075
S214004D1098470020002104000D000B4817F0E6FB22
S214004D2017F076F8200029002BF0C2FE17F0CCFB17
S214004D30000008000000000000000000081000202E
S214004D40081000209863002055C5010007B5012112
S214004D5020200DF1070201F0B5F958B10223012118
S214004D6020200DF107028DF8073001F0BBF903B0E3
S214004D705DF804FB9DF807100229F8D002220948C6
S214004D8015F05CFF022301210DF1070220208DF8AB
S214004D90073001F0A7F92BF0CAFD4FF4FA6000F0D7
S214004DA0DBFFE4E7E8B4030038B500F05BFF02F091
S214004DB03FFC01F029FB012805D001F025FB022865
S214004DC001D001F047FB0A4D2B783BB901F01CFBE4
S214004DD00128044602D12BF04EFE2C7001F014FB85
S214004DE0012803D1BDE8384000F022BF38BD00BF1F
S214004DF0F45C002010B5044600882BF064FDA37810
S214004E0084F84400834202BF0123E3702371074BFA
S214004E1004F11C00C4E9073401F0AAF922462088F0
S214004E200349BDE8104001F0E7B800BFAB0503003A
S214004E307505030070B5C37804460D461646002B6C
S214004E4034D1D1B1214815F0F9FE0123E370E36CAB
S214004E50A6600BB1E06D9847E368F61A63699E4258
S214004E6021D2217E1A480131C9B2217615F0E6FE1C
S214004E70A36D13B1217EE06D9847E5702BF06AFDB7
S214004E8015B3237903BBA268238A801A83421BD8F2
S214004E9001231048237115F0D1FE236DA3B1E06DF8
S214004EA0BDE87040184701232376E6E70029E4D1E1
S214004EB0094815F0C3FE636DE660E5702571002BAA
S214004EC0DBD0E06D9847D8E770BD00BF10B5030093
S214004ED021B503004FB503003CB503002DE9F843A8
S214004EE00E4617461D46044600283FD07A2200216B
S214004EF0063016F0B5FF0022304611462680678041
S214004F00A5802BF002FD0022A071114638462BF03A
S214004F10FCFC00224FF001081146E07128462BF0F9
S214004F209FFC28462BF0BBFC84F83C802BF012FD3F
S214004F30104B04F14809C4E91234206284F87180E9
S214004F40484601F015F90C4B3A463146C4E91D3483
S214004F500A482B4684F87C8015F070FE484641F2DD
S214004F6088312BF0EEFC0020BDE8F8834FF0FF30D0
S214004F70FAE700BF814F0000E856040065B503005D
S214004F8070B50446002852D090F87130002B4ED0F1
S214004F902BF0E0FC064694F906002BF027FB0546AE
S214004FA094F907002BF022FB47F23052954288BF57
S214004FB00025904294BF03460023C82202FB05F159
S214004FC05A43626445F61D6255432A0C6286A26BFC
S214004FD021642A44A263A26BB2F1347F1BD294F8F8
S214004FE0701031B194F83C20E2B1114A53431B0CC7
S214004FF0E38501231944204684F8701084F83D3078
S21400500026622BF019FB04F1480041F28831BDE816
S21400501070402BF096BCA2F13472A263626B013230
S2140050206263D8E7034A53431B0C2386E1E770BD4F
S2140050301B6A020062E7010070B51E4683880446BC
S2140050400D46C18002810BB1868070BD81780088D4
S2140050502BF025FB0123E370064BA680C4E903343E
S2140050600C34204601F084F829462046BDE87040FE
S2140050702BF067BCA906030010B501790446B1FA07
S21400508081F1008849092BF081FB21796088B1FA0B
S21400509081F149092BF07AFB034B1A68A24204BF40
S2140050A000221A6010BD00BF6416002070B5437958
S2140050B00446A3B100880E4E04F10805336813B108
S2140050C00C4B1B786BB121792BF060FB64210A4BEB
S2140050D03460A3602846BDE870402BF032BC4088A0
S2140050E0E9E7064815F0AAFD054B3221A360F1E773
S2140050F064160020F65C00207950000099B5030085
S214005100AD50000010B50446E0B10F4815F096FD0E
S21400511001236371A37953B9217920882BF036FBDC
S214005120236B7BB1606B0121BDE810401847204619
S214005130FFF7A2FF04F108002BF008FC2046FFF75B
S214005140B5FFEDE710BD00BFCFB5030010B50446B0
S214005150F8B1104815F072FD00236371A3796BB99E
S21400516021792088B1FA81F149092BF00FFB236BD6
S2140051707BB1606B0021BDE8104018472046FFF762
S2140051807BFF04F108002BF0E1FB2046FFF78EFFC3
S214005190EDE710BDDAB5030010B5044668B1074860
S2140051A015F04CFD637920461BB1BDE81040FFF7B3
S2140051B0CDBFBDE81040FFF7A5BF10BDE6B50300A4
S2140051C010B50E4C0E48214615F038FD82210D48CC
S2140051D015F034FD82210220A21E00F083FF014656
S2140051E030B134F8022C0848BDE8104015F026BD52
S2140051F00648BDE8104015F021BD00BF82570020CC
S214005200F5B5030010B603001BB603005FB6030037
S21400521038B5114C82212246022000F053FFA51C0F
S214005220014688B122880D4815F008FD2A460C4B29
S21400523003F1380153F8040B8B4242F8040BF9D102
S2140052401B7813703823238035F8021C054A06485D
S214005250BDE8384015F0F2BC805700206AB603005F
S214005260EAB6030082570020C8B60300034B1B783B
S2140052701BB18B4201D82BF05ABB7047716C0020D3
S21400528010B5044601460E4815F0D8FC012C11D185
S2140052900C4B0D481A884FF6FF739A421EBF002229
S2140052A0094B5A742BF058FA02F018FBBDE8104070
S2140052B002F0EAB90448BDE810402BF04FBA00BF30
S2140052C023B70300246C0020C866002070B50024B5
S2140052D01A4D1B4E3378A3421BDC0024194D1A4E80
S2140052E03378A3421BDC0024184D194E3378A342B2
S2140052F01BDC01F089F8012816481CD12BF02CFA8B
S21400530002F0ECFA02F0C0F9BDE87040124801F075
S2140053109BB82846FFF76EFD01346035DAE728466D
S2140053202BF000FA01343435DAE728462BF033FA4E
S21400533001343835DAE72BF011FAE5E78C23002044
S214005340FC5C0020AC270020FD5C00205C210020D7
S214005350FB5C0020C8660020815200002DE9F04F5B
S21400536087B0FFF755FFA14B05A805932BF037FA3A
S214005370054616F071FC9E4CC2B21F2A627004D914
S2140053809C4815F05BFC00F0DBFC2946A01C16F0E0
S214005390F7FE05A82BF023FA054616F05DFCC2B210
S2140053A01F2A84F8212001D99348EAE7294604F108
S2140053B0220016F0E5FE05A82BF011FA3226044668
S2140053C000272578002D40F0D9808C4CFFF77EFF13
S2140053D02378DFF870B2DFF870A2894E00939BF84E
S2140053E000309AF800203178864815F027FC32788D
S2140053F09AF800109BF8000053180344DFF84C821C
S21400540020782C4603444046DBB2AA4200F3898348
S214005410012B38BF01237C4F02933A4600233D46BA
S2140054204FF482714FF6FF7402980133984213705E
S2140054305180948002F10C02F6DC744B72496C4881
S214005440AB6001F00DF9E879AB6800EB400003EBC8
S214005450800000F081FEEB79DFF8E4910133EB7118
S214005460B9F80030A34203D06749694801F0FAF959
S2140054704FF6FF73B9F800206349D21A18BF01220D
S214005480644802F041F84FF00009604C33784B4511
S21400549000F34F83604B1B785BB1604B1B78012B8E
S2140054A007D159495E4801F065FC57495D4801F04F
S2140054B041FE00274FF00C085B4BDFF84C919AF842
S2140054C000203178BA4200F3488302EB01080C2131
S2140054D0002701FB08919BF800009423B842534A2A
S2140054E000F3598337780C269AF800304FF00008FE
S2140054F01F44074406FB07964FF07009DFF850A1DB
S2140055003E4B1B78434500F35A83434E434C337857
S21400551083B1217801290DD90C27013907FB0151E8
S2140055203F4801F027FC21783E48013907FB01512E
S21400553001F000FE0299344800F0A0FE40F2055249
S21400554040F604312078367800F07AFE00220546D0
S21400555040F20271207800F073FE2946024630467B
S21400556001F010F8059B21491A468B4240F03C8317
S2140055702F4807B0BDE8F04F15F060BB532D0FD194
S21400558063784C2B40F05181A378502B40F04D812E
S2140055900122284B1A7005A82BF021F9044610E7C3
S2140055A0442D13D16378303B092BF4D8601C2BF0C4
S2140055B023F9214B214A1978002386B2994202F139
S2140055C06002E8DD22F8466C0133F7E7422D41D150
S2140055D06378542B40F08C80A01C00F05BFD184BC9
S2140055E0188018462AF0A3FFD5E700BF8257002090
S2140055F0DC65002042B7030059B70300F75C0020C3
S214005600FA5C0020C6B70300AC180020241900205E
S214005610E016002068160020F55C0020706C002064
S2140056203017002008100020B01D0020F41B0020BA
S21400563016B80300F65C0020FC5C00208C230020DB
S214005640246C0020F85C0020F95C0020B01E0020CE
S214005650A41A0020582D33D8412D9CD9433D152D32
S21400566099D801A353F825F0095A00009755000071
S2140056709B5A00009755000097550000975500006C
S2140056807D57000097550000975500002F570000E3
S214005690D556000097550000975500009755000016
S2140056A097550000AF5800002B5800009755000093
S2140056B097550000975500009755000025590000A3
S2140056C0692D7FF468AF601C2BF096F880B22BF043
S2140056D02AF960E7BD4B012019780023BC4A99429D
S2140056E002F1A8027FF757AF02F8A60C0133F6E7DF
S2140056F0601C00F0CFFC0546E01C2BF0F5F80121FD
S214005700024628462BF0ACF86021B248B24C03782B
S2140057105943621865524FF4FA6111824FF448718A
S2140057205161AE49568311650133037033E7601C3F
S21400573000F0B0FC00224FF034088146A84F114616
S2140057402BF08EF83878A74D08FB00F325F8039069
S214005750EA18E3781046693B18BF012393702AF0D5
S214005760E1FF0021A04A3B785160012103FB085568
S2140057700B443B7015600F4611740CE7601C00F07C
S21400578089FC0022114681462BF06AF83422944D9B
S214005790DFF85082287802FB00F328F8039008EB25
S2140057A00301E3780846693B18BF01238B702AF093
S2140057B0B9FF8E4A00231046916B31BB00EB831075
S2140057C034232A7802FB03838363814A002310462E
S2140057D0D2F8A410F9B9A82202FB030034232A78D1
S2140057E002FB0383C0F8A4305FB97F4A3B461146EC
S2140057F052F8040BA8B93422287800FB028241F83C
S21400580023202B7801332B70C5E60133042B02F1DD
S2140058104002D1D1D9E70133042B02F1A802D7D137
S214005820E2E70133042BE3D1EBE7601C00F032FC27
S2140058308046E01C2BF058F80121024640462BF02B
S2140058400FF860216348644D0278DFF880C1514349
S2140058506B1825F801804FF4487119825961644924
S2140058605E839965E178A824642904BF01219970B4
S2140058709CF80030DFF858E15C430EEB04010EF8AC
S21400588004304FF400744C8003240C718C7102EBCE
S214005890420405EB441532240133DBB201324B716E
S2140058A08D6081F8A04002708CF8003073E6601CB2
S2140058B000F0F0FB00224FF0380A8146DFF8408106
S2140058C011462AF0CDFF98F800304A4D0AFB03F344
S2140058D025F803904FF00109EA1882F80490E3785F
S2140058E073B1E01C00F0D6FB0022044611462AF0F5
S2140058F0B7FF98F800300AFB03535C8083F80690E5
S2140059003D483A4A03789901535498F8001002EB40
S2140059108314C1EBC10205EBC2054A1C656388F817
S214005920002001E7601C00F0B5FB8046E01C00F09C
S214005930B1FB0546601D2AF0D7FF0446024601214A
S21400594040462AF08DFF2246284601212AF088FF8D
S21400595060204FF4487CDFF87CE01F4A9EF8003059
S21400596000FB03F422F80480DFF884801119A1F804
S21400597010C0C1F814C04E83C1F85880591CC9B273
S21400598048431418A4F810C0C4F814C06683C4F8BA
S214005990588094241552194D981C8EF800002878CB
S2140059A0DFF860C0444303EB430301EB41010CEB1B
S2140059B0040E02EB431302EB41120CF80400CEF87F
S2140059C00430CEF8082001302870E4E5FA5C0020A8
S2140059D0B01E0020FC5C00208C230020C9070300BA
S2140059E0FD5C0020AC270020C8660020B01D00200B
S2140059F06D5200005C210020F95C0020F85C00205D
S214005A00FB5C0020F41B0020601C00F043FB80467B
S214005A10E01C00F03FFB00220546114640462AF0F7
S214005A201FFF00223824114628462AF019FF734823
S214005A30734A03784FF0000E04FB03FC22F80C8038
S214005A404FF0010802EB0C0181F806E081F80480B3
S214005A5003EB0801C9B24C4302EB040C15539C1C23
S214005A6004707024674D8CF806E028788CF8048063
S214005A704443DFF8B4C1C3EBC303C1EBC1010CEB75
S214005A80040E02EBC30302EBC1020CF80400CEF8CE
S214005A900430CEF80820404496E76378502B7FF415
S214005AA07AAD2146584815F0C9F8A01C00F0F2FA65
S214005AB00546201D00F0EEFA8046A01D00F0EAFA2A
S214005AC04FF6FF739D4204463FF465AD98453FF49C
S214005AD062AD98423FF45FAD0346424629464B48C6
S214005AE0FFF7FCF900287FF456AD48482AF0CEFDB3
S214005AF0DFF838910146C9F80000454801F022F960
S214005B00D9F8001043482BF03DF90123424A2946B4
S214005B101370424A424813702346424615F08EF8E8
S214005B2039E5477901358F4284BF04714471A83046
S214005B306BE4B9F1000F06D017F8053C03EB4303FE
S214005B4004EB8304BC603946404602F09BF809F13A
S214005B50010908F1A8080C3798E479180AD04A1EFB
S214005B6008FB0292D27902EB420204EB820408FBA5
S214005B7001929460184608FB0151039301F040FE21
S214005B8031782848394408FB015101F057FA039B45
S214005B900137403393E417EB080F18BF11F8050CD4
S214005BA003911EBF00EB400004EB80048C6003FBF7
S214005BB0072001F01BF8039901370C318BE418EB32
S214005BC0070F18BF16F8053C31461CBF03EB43030E
S214005BD004EB830409FB08A018BFB46000F0DCFEE9
S214005BE008F101080C368BE413F8011D00297FF438
S214005BF0BAAC3B2102F8011CB5E400BFFB5C0020F8
S214005C005C210020F75C002069B703002C180020F8
S214005C103017002008100020F55C0020706C002073
S214005C2097B7030050210020A41A0020281800204F
S214005C3008B5094B1B786BB108482BF084F8074869
S214005C4001F034F9064801F001FBBDE808400448BD
S214005C5001F00EBA08BD00BFF55C0020301700202A
S214005C6008100020034B1B7813B103482AF016BD1A
S214005C70704700BFF55C00202C18002007B50121F6
S214005C8021200DF1070200F01DFA18B99DF8072033
S214005C90024B1A7003B05DF804FB00BF716C002065
S214005CA007B5064B8DF80700187001210DF10702A5
S214005CB0212000F017FA03B05DF804FB716C002099
S214005CC007B5022101200DF1060200F0FBF938B9F4
S214005CD0044814F0B3FFBDF8060003B05DF804FBFB
S214005CE00020FAE733B8030007B50221ADF8060036
S214005CF00DF10602012000F0F5F9014610B1034847
S214005D0014F09CFF03B05DF804FB00BF54B803001A
S214005D1010B5FFF7D5FF04460146074814F08EFF7E
S214005D200121064814F08AFF24B9BDE8104001207E
S214005D30FFF7DABF10BD00BF84B8030096B80300B3
S214005D4008B5044814F07AFF00F0DCF92AF0EFFDFD
S214005D502AF0EAFDACB8030038B50446084D094BF6
S214005D6028462B6000F004FA002C18BF214628466F
S214005D70BDE8384008BF4FF496712AF0E2BD00BF78
S214005D80B0280020170803002DE9F043384D91B0E5
S214005D9008AC0746894690460FCD0FC495E80F001D
S214005DA0002684E80F0001250323324C3248CDE953
S214005DB00366CDE905668DF80E300796029535F038
S214005DC023F92E4835F020F932462D4920468DF825
S214005DD0176005F07FF8334632462A498DF81900D9
S214005DE0009020468DF82390CDF82C808DF8216009
S214005DF005F08AF80A9020468DF8097004F0ECFF4A
S214005E00204608AA05A905F0A5F802AA204603A977
S214005E102BF0B7FE4FF400721B4B5A62194BE5602D
S214005E20626A920510D46BB94FF40072164B114893
S214005E305A6204F0D1FF114835F0E9F8002011B09D
S214005E40BDE8F083013BEBE7002BEDD0094908A83D
S214005E502BF0CAFE4FF400720B4B06485A6204F051
S214005E60BBFF064835F0D3F8BDF82000E7E700BFD3
S214005E70F45604000040005A8C5904008859040067
S214005E8080841E0040420F000060005A0122034B2F
S214005E901870034B1980034B1A707047FF5C002084
S214005EA02C6C0020FE5C0020F8B5454B1B780BB927
S214005EB00020F8BD434B1B78012B03D1BDE8F8400A
S214005EC02AF0ACBC404B1C884FF6FF739C42EFD0C8
S214005ED03E4835F099F80023260AE4B21A462146D1
S214005EE0304604F039FF012E354604F0010335D064
S214005EF015D9B51E012DDBD8002B0BBF4FF48075CE
S214005F004FF080754FF470614FF070610BBF012742
S214005F104FF480370F204FF470202D4B11E0002BEC
S214005F200BBF4FF480754FF080754FF470614FF0E3
S214005F3070610BBF01274FF480370F204FF470209D
S214005F40244B1A6802401CD0BA421AD01A680A407B
S214005F5032D11A6822EA01022A4316E0002B0BBF50
S214005F604FF480754FF080754FF470614FF070619C
S214005F700BBF01274FF480370F204FF47020164BCD
S214005F80DFE71A6822EA00023A431A602AF046FC63
S214005F90054600288CD0083644EA06102A46032117
S214005FA0C0B2FFF7F1FE40F6FF73684300F2FF70E1
S214005FB0B0FBF3F080B27CE795427FF479AFC8E798
S214005FC0FE5C0020FF5C00202C6C00208C59040036
S214005FD028C3035020C3035024C3035010B5044CF9
S214005FE0237823B9034835F00FF80123237010BD3A
S214005FF0015D00208C5904002DE9F0431F4C85B04C
S214006000074688469146FFF7E9FF23781BB902F05A
S21400601053FB012323707BBAADF80C3030220023EB
S214006020174E02FB03F4315DA51901BB012333555E
S2140060304FF0FF3304F1100012493044AB606F801C
S214006040C5F80480C5F80C9009F0C8FD04F10801F5
S214006050042231440C4B009503A802F003FCA96807
S21400606002460A4814F0EAFD05B0BDE8F0830133A5
S214006070102BD6D1064814F0E1FDF5E7005D0020B0
S214006080D82800204108030053080300B9B80300CD
S214006090E7B8030080B10278A2F14103032B0BD8C6
S2140060A040783038C0B2082806D8054B134413F899
S2140060B0413C40EA032070474FF6FF70704700BF30
S2140060C01457040008B50B4642B101460448006860
S2140060D003F00CFDBDE808402AF01FBC022008BDF6
S2140060E03467002008B50B4642B1014604480068F4
S2140060F003F084FEBDE808402AF00FBC022008BD6D
S21400610034670020F0B50026124F8DB0FF230093B1
S2140061100A223346386802A92BF0F0FAC0B102AB67
S2140061201D4603EB800404E055F8043BB34228BF49
S2140061305E1CAC423868E9D9296803F0E5FF002800
S214006140F2D02D28F0D00DB0BDE8F0402AF0E5BB27
S2140061500DB0F0BD3467002028B1034B0360034B3D
S214006160436000238360704719000003DC6600204C
S214006170FF2307B50021044A0093083009F0B2FC5B
S21400618003B05DF804FB00BF3D0903000B4604495D
S214006190024608680349097808B12AF0F6BB70473A
S2140061A0E42B0020035D0020F7B50C4618B12F2124
S2140061B0194834F080FF246823685E795F8830468B
S2140061C03946FFF7E3FFF0B18568E5B1A089227D87
S2140061D03946904291BF0020801AA36880B294BFCF
S2140061E003469B18E27C00903046A84701380328F7
S2140061F003D8DFE800F0080F0B0D002420462EF031
S214006200AFFD204600E0812003B0F0BD8024F5E716
S2140062109324F3E78724F1E70FB9030007B50B468D
S2140062200092054902460548097800682AF0CFFB27
S21400623003B05DF804FB00BF035D0020E42B0020E4
S21400624007B50B46009206490246064809780068DC
S2140062502AF0BDFB003818BF012003B05DF804FB30
S214006260035D0020E42B002008B5034B1B6803B138
S2140062709847002008BD00BFE02B00202DE9F74F0F
S21400628004460D460026454B454F1860454B197091
S21400629033010021F85C013610F0F4FC0C2EF7D127
S2140062A00C2D28BF0C254FF0000901953C4EDFF859
S2140062B000A13D4DDFF8FC80019B4B4502DC03B09E
S2140062C0BDE8F08F23784FF0000B3370638873803F
S2140062D0A388B380A379C6F80880B371E379C8F8B9
S2140062E0005088F804304FF00003A768A8F806307E
S2140062F0E3795B450ADC012116F8100B10F0C2FCAE
S21400630008F1080809F101090C34D5E74FF000033D
S21400631038886B812880FB784FF0000C2B81BA7888
S214006320C5F804A0002A00920CBF802240222A73DF
S21400633079680AF10C02634513DC03EB43030AEBAE
S214006340830ABB6843B1009A4FF6FF71B2FA82F235
S214006350164B52092EF094FC14350BF1010B0C373A
S214006360C6E7B1F800E00CF1010C22F80CEC91F84D
S21400637002E00C3202F816EC91F804E00C3102F858
S21400638015EC11F809ECBEF1010F14BF4FF0100E1A
S2140063904FF0110E02F814ECCDE700BFE42B0020FE
S2140063A020430020035D0020E8310020A9610000A2
S2140063B0E82B002068340020014B1860704700BFAF
S2140063C0DC2B0020014B1860704700BFE02B00203C
S2140063D070B5128805460E46FFF720FF044670B1DA
S2140063E002790499806815F08DFD064B1B680BB981
S2140063F0002070BD3146284622889847F8E7862058
S214006400F7E700BFDC2B002008B50FF0D7FC02280A
S21400641006D0012806D0044B18784000C0B208BD4C
S2140064200120FCE70220FAE7025D0020054B10B5CC
S2140064301C682CB1FFF7E8FF2346BDE8104018475C
S21400644010BD00BFD82B0020014B1860704700BF5E
S214006450D82B0020034B1A781AB901221A700BF0B9
S2140064600DBD7047025D00200022024B1A70FFF738
S214006470DDBF00BF025D002037B50446002832D0DD
S2140064800FF09CFC022830D160892EF0CBFFE0791B
S214006490237A003818BF0120012B637A08BF40F02A
S2140064A008000BB140F0100063890BB140F0040007
S2140064B0257CA188A2790DB1E36873B90C4B10F066
S2140064C0BDFF2178084611F035F82EF0D4FA0028E2
S2140064D014BF0320002003B030BDCDE90035054BC6
S2140064E010F0ACFFEDE70220F5E70120F3E700BF70
S2140064F0E10B040056DB03002DE9F04186B00546AB
S2140065000E4690461F469DF834400FF057FC022872
S21400651024D1082C16D8ADF80C808DF80E702CB14E
S21400652022460C990DF10F0015F02AFE03AB03343A
S21400653000930A2231460820094B019410F07EFF92
S21400654018B1032006B0BDE8F0812946284610F0B1
S214006550F1FF2EF090FA0028F4D0F2E70120F1E7E0
S21400656056DB030008B50DF0E7FD014630B10448E0
S21400657014F064FBBDE808400EF082B908BD00BF09
S2140065809DB9030030B5C0B100290CBF30203120C2
S214006590002A0CBF3024312414220023084911F8A5
S2140065A0015F3F2D06D1002B14BF2546054601335B
S2140065B00D70DBB2013AF2D130BD2D200446EBE778
S2140065C0726C0020034B044A5B7C0121032013708D
S2140065D0FFF788BDC8660020045D002010B504469D
S2140065E0FFF7F0FFB4F57F4F0BD100240F4B1A884E
S2140065F013449C70FEF7E4FD2046BDE81040FFF70C
S214006600ABBB4FF601739C4204D1BDE8104008486E
S2140066102AF08AB84FF602739C4205D1BDE81040B6
S214006620044B1878FFF73CBB10BD00BF8057002016
S214006630C8660020716C002010B5074C0121224668
S2140066400320FFF73FFD28B92378044A003B18BF14
S2140066500123537410BD00BF045D0020C8660020EF
S214006660F8B5564B564C1A884FF6FF739A4218BF29
S21400667003234FF0080218BF2370524B36251A70BA
S21400668032225A70DA70DA7138221A724FF4001217
S2140066901D719D714C4D3026C5644C4D4264056598
S2140066A04B4D012285654B4D9E70C5654A4D5E710A
S2140066B045664A4D86188566494DC6670567494D45
S2140066C0494E4567202580F8785080F8845000F1C0
S2140066D02105C0F88850454D80F84820C0F88C50F9
S2140066E080F8542080F8602080F86C20C0F8806025
S2140066F080F89020C0F89440C0F8B8303C4B3D4C31
S214006700C0F8BC300223C0F898403B4C80F8C0303C
S214006710C0F8A4401524394B80F8A840C0F8C4300F
S214006720374B384CC0F8C8308223C0F8AC40364CE3
S21400673080F8CC30C0F8B0400924344B344DC0F853
S214006740D030344B80F8B440C0F8D4302C7C324B78
S21400675080F89C20C0F8A00080F8D820C0F8DC3074
S21400676044B12E4B80F8E420C0F8E03005F1110368
S214006770C0F8E8304FF0000CCA798E6802EB42038E
S2140067809F00443006EB830326F807C058600120BC
S2140067900D349870DC701318CB71FFF76FFAFFF7A3
S2140067A04BFFFFF731FE012806D12B7C23B1BDE855
S2140067B0F840174829F0B8BFF8BD00BF246C002089
S2140067C0876C0020055D00201D5704000100200096
S2140067D01C570400020020001B5704000300200082
S2140067E01A5704000400420005004200070030006B
S2140067F0FDFF21001200100100404200185704005F
S21400680000FF4401726C0020060042008057002002
S214006810C866002002FF2001716C002001FF1001F5
S21400682013B504460D4829F08DFE6422C0F30F43CD
S214006830637083B2B3FBF2F3A078237020220121A9
S2140068402AF0E0F8A078212201212AF0DBF804499A
S214006850201D02B0BDE810402AF073B8246C00205A
S214006860E09304000B7870B583704CF61E0303802B
S2140068704FF02013C362012380F8303080F83C309C
S214006880C3180364124B044643640223114A80F87B
S2140068904830114B8263C3644063CA798D6802EB4B
S2140068A0420305EB830004F12C0646600B4E45F8C8
S2140068B0236000238360531CCB71094B201DC4E961
S2140068C00134FFF755FC2046BDE87040FFF7A8BF2F
S2140068D0FDFF2100210020001E57040001000103D7
S2140068E021680000437B044A0121137000781130B0
S2140068F0C0B2FFF7F7BB00BF0F5D002038B50446F7
S2140069000078054D11302A460121C0B2FFF7DAFBA8
S21400691008B92B78637338BD0F5D0020024B53F81F
S21400692020002AF04AB900BFC8340020012908B563
S21400693006D0022907D049B92AF036F9002008BD4A
S2140069402AF035F9FAE72AF035F9F7E7024814F0A5
S21400695075F90120F3E700BFCAB9030010B4054C6F
S214006960114654F820001A46BDF804305DF8044B72
S214006970FFF7DCBFC8340020002310B5044683812F
S2140069800364A0F844304830FFF7F2FB014BC4E93B
S214006990123410BDA10B030038B504460B781A4A12
S2140069A043700D4642F82300FFF7E6FF2046FFF748
S2140069B0A5FF4FF4401323610123144A2375A261F7
S2140069C0134A84F82030E261124A84F82C3062625E
S2140069D0114A84F83830A26204F10C0222630F4A8E
S2140069E004F10D036263E363EA79A86802EB4203ED
S2140069F000EB830110344C60094C40F82340094BEF
S214006A008B60531CEB7138BDC83400200E5D00202F
S214006A1008002000886C002000FF300001FF1001F5
S214006A20020101045D69000010B47024427B0D4829
S214006A30013A012904FB020006D0022908D059B900
S214006A405DF8044B2AF0B0B85DF8044B2AF0AFB8F6
S214006A505DF8044B2AF0AEB803485DF8044B14F01A
S214006A60EDB800BFA41A0020E6B90300B0F85C3009
S214006A702DE9F0418B4204460E4638D0437B077C16
S214006A808BB31C4A12789A422DD370251A4A013BC2
S214006A9005FB032390F80F801B7B42462AF09BF8E9
S214006AA0B845054601D1FF281FD13A463146204653
S214006AB094F890302AF08FF82F460546552212217A
S214006AC06078A4F85C6029F09DFFFF2F03D039465C
S214006AD02046FFF7A9FFFF2D09D029462046BDE82E
S214006AE0F0412AF0B8B8FF25DFE70746E6E7BDE83D
S214006AF0F08100BFF75C0020A41A0020416882687D
S214006B00C978D27849B112B10321FFF7AFBF837BB2
S214006B10002B0CBF01210221F7E72AB1837B002B53
S214006B200CBF02210121F0E7014814F087B800BF2E
S214006B30F7B90300037BD3B14368DA7812B18268F1
S214006B40D278A2B91B7933B1837B002B0CBF04210A
S214006B500521FFF78BBF83681B792BB1837B002B46
S214006B600CBF05210421F4E7014814F067B870470C
S214006B7029BA0300084A437B05211370837B5370B0
S214006B80C37B9370037CD370037B137100780E3045
S214006B90C0B2FFF7A7BA00BF105D002038B50446A4
S214006BA000780C4D0E302A460521C0B2FFF78AFA4F
S214006BB020B1BDE83840084814F040B82B7863731D
S214006BC06B78A373AB78E373EB7823742B7923731A
S214006BD038BD00BF105D002065BA0300024B53F8B5
S214006BE020002AF082B800BFF0340020F8B5044632
S214006BF00B78424A43700D4642F82300404E2AF076
S214006C0092F8FFF7CBFF6268A3683E483E49D66419
S214006C101165D4655065C3E91410DE64DC654FF079
S214006C20987302266361012304F10C01E161374980
S214006C301032216204F10D01A16235492376E1622A
S214006C4004F10E016163334984F82430A16304F132
S214006C500F012164304984F83030616404F110017A
S214006C60E1642E4984F83C3084F84830216584F885
S214006C705460A265E879A96800EB400201EB820740
S214006C8004F1140CC7F804C04FF4817C244F41F87B
S214006C902270C218D2B202EB420241F822C001EBC7
S214006CA0820700227A601F4A84F8703022661E4AE5
S214006CB084F88830A2661D4A1D4BE2661D4AC4F859
S214006CC08C3062671C4A8319A26704F15C02C4F820
S214006CD08020DBB2194A03EB4303C4F8842084F80F
S214006CE0646084F87C6001EB830260345460144A6C
S214006CF0033041F82320E871F8BD00BFF0340020CF
S214006D00FD6A0000AD0C0300356B00000100200199
S214006D1002001001030030010400300105002101CB
S214006D2001FC01064A002100205704005100100013
S214006D302257040023570400550021006F00180056
S214006D401200010438B50D46044678B171B1F82238
S214006D50002115F085F80923A3600123044A656025
S214006D60626102F561726382A261A38338BD00BFCF
S214006D706400010070B500287CD000297AD04FF45A
S214006D80D813C36200F1080343633B4B04228363BA
S214006D90022300F10C040464384C80F83C30446450
S214006DA000F10E04C464364C80F84830046500F1E7
S214006DB010048465334C80F85430C46500F1120426
S214006DC04466314C80F86030846600F11404046731
S214006DD02E4C80F86C30446700F11604C4672C4CC7
S214006DE080F87830C0F8804000F11804C0F8884079
S214006DF0284C80F8843080F8903080F89C3000F181
S214006E001C03C0F88C40C0F8A03000F11A04224BD6
S214006E10C0F89440214CC0F8A43000F1200380F85C
S214006E203020C0F8984080F8A820C0F8AC301C4B42
S214006E3080F8B420C0F8B03000F12403C0F8B830B1
S214006E40184B00F12C06C0F8BC30012380F8C03087
S214006E5000F12803C0F8C430CA798C6802EB4203FC
S214006E6004EB83056E60104D44F82350531CCB7121
S214006E700B78037070BD00BF0505210008052100D2
S214006E800B0529000006210001062100020621004C
S214006E90030621000406210000FF2300050621004A
S214006EA001FF230002FF2000040B010D2DE9F7432C
S214006EB00446002838D029F04DFDD4F8EC50804622
S214006EC0451BB5F57A7F2FD3B4F8F000B4F80C90D4
S214006ED0B4F8F210B4F80EE0A9EB00031BB2B4F855
S214006EE0F420002BB4F810C0AEEB01073FB2B8BFD9
S214006EF0A0EB0900ACEB0206B8BF03B2002F36B217
S214006F00BCBFA1EB0E010FB2002EBCBFA2EB0C0261
S214006F1016B2224A95420AD8042B08DC312F19DC17
S214006F20042E2ADCC4F8EC8003B0BDE8F0832346C8
S214006F30022213F80C0B40F60431CDE9003221236F
S214006F4040F20552FFF7D8FAA389A4F8F030134BA5
S214006F509D42E3D92346022213F80E0B40F6043175
S214006F60CDE9003221234FF4A162FFF7C5FAE38989
S214006F70A4F8F230094B9D42D2D92346022213F8D8
S214006F80100B40F60431CDE90032292340F20B52B3
S214006F90FFF7B2FA238AA4F8F430C3E7DF930400BD
S214006FA070B50D460646144613460A4601461F4867
S214006FB013F044FE25B92046BDE87040FFF70EBB2F
S214006FC0072D05D121463046BDE8704000F01EBEB4
S214006FD04FF601439D4205D121463046BDE870403C
S214006FE0FFF7FCBD062D05D121463046BDE87040B2
S214006FF000F0C0BBB5F5817F05D121463046BDE81F
S2140070007040FFF78BBC40F202739D4205D12146CB
S2140070103046BDE8704000F06BB9202D04D1204604
S214007020BDE8704000F03CBA70BD00BF94BA0300E3
S2140070300148FFF7C1B900BFA16F00004FF4C013AD
S21400704030B5036001230371074B8C688360CA79EF
S21400705002EB420304EB83056860044844F823000F
S214007060531CCB7130BD00BF24570400040001013F
S214007070F0B5044685B090B329F06CFC42F20F736D
S214007080D4F888200546821A9A4228D9D4E90263A1
S214007090D4E92401864273EB0107134F21D3BA4289
S2140070A006D8301A63EB01010A2871F1000116D3E5
S2140070B08DF80C301B0A8DF80D300623019302ABB9
S2140070C000930022252340F2027120780296FFF7F3
S2140070D013FAD4E90223C4E92423C4F8885005B07F
S2140070E0F0BDBA42FBD9E3E7DF93040013B50446CC
S2140070F080B100786A4627300821C0B2FEF7E2FF6A
S21400710050B9DDE900230948C4E90223C4E9242371
S21400711013F094FD02B010BD002200230448C4E919
S2140071200223C4E9242313F089FDF3E7C7BA03005A
S214007130F2BA030070B50D460446002858D0002960
S21400714056D00B7804F1200603702A4B1860FFF720
S214007150CDFF4FF414132362082304F11002626378
S214007160254A84F82430A26304F111022264234ADB
S214007170E31862640422A362214B84F84820E36289
S214007180012384F8542004F11802A2651D4A04F174
S2140071901401E26504F11C0262661B4AE164A26601
S2140071A004F11D0222671949194A84F8303084F820
S2140071B03C3084F8603084F86C3084F8783004F121
S2140071C01E0321656267E367EA79A96802EB42035A
S2140071D001EB830046600F4841F82300531CEB7117
S2140071E02978D4E902230C48BDE8704013F026BD88
S2140071F070BD00BF183500200003300001032200D8
S21400720000021800030318000603180002032200F9
S21400721000F020010207010820BB030013B5044656
S21400722078B1D0E902230078CDE9002327306A46FA
S2140072300821C0B2FEF756FFD4E90223024813F035
S214007240FDFC02B010BD00BF51BB030030B50446C4
S21400725089B040B3436833B31A6822B1126812B1DA
S214007260586801A990479DF81030E3B10399D4F807
S21400727080208A4207D8D4E902308A1A9B1840F147
S2140072800000C4E90230C4F8801029F063FBD4F88B
S2140072908430064AC31A9342054604D92046FFF7AF
S2140072A0BDFFC4F8845009B030BD00BFDF930400B2
S2140072B010B50446C0B1002300220021C0E9022315
S2140072C0C0E924234368C0F880102BB11A681AB1AD
S2140072D052680AB1586890472046FFF79FFFBDE8FE
S2140072E01040024813F0AABC10BD00BF79BB0300D3
S2140072F0B1F5704F034607D1044A106820B10278F2
S2140073009A4201D1FFF7D4BF704700BF183500205E
S2140073100368064A0C21136043685360038913818F
S214007320438922205381FEF7DDBE00BF1C350020B6
S21400733010B50368044686B0FBB1114813F07EFC16
S214007340A37B104A8DF804304FF48273ADF80630F4
S2140073500123CDE90223002301A804938DF81430FD
S214007360FFF78AF82046618929F01EFD2046FA219B
S21400737050F8143B594329F0E4FA06B010BD00BF9C
S2140073809ABB03002000000110B5064C236843B1E9
S214007390054813F053FC2068BDE81040418929F0E9
S2140073A003BD10BD28350020BBBB030070B53649B1
S2140073B010460C68BDF81020002C5ED003285CD860
S2140073C0DFE800F0021E2745002B5AD0022A58D9C3
S2140073D01D78B3F80160291E18BF012132462B48DC
S2140073E013F02CFC2DB13146204629F0DDFC0020A0
S2140073F070BDE573FA206368584329F044FBF6E74E
S214007400234813F01BFCE37B002B38D00023E373E8
S214007410F0E7002B35D0032A33D91D681D482946CE
S21400742013F00CFC1C4B2A1F9A4201D90220DFE7FE
S21400743023680BB19D42F9D823899D42F6D3E37B9E
S2140074406560B3B9FA20684329F01DFB11E0002BF4
S214007450CED0012ACCD91D881048294613F0EEFB61
S214007460002DE3D063689D42E0D8E37B2581002BA6
S214007470E8D12046FFF74CFFB9E70120B8E7042023
S214007480B6E70320B4E700BF28350020DEBB0300C4
S21400749015BC030034BC0300FCFF6D005FBC03009A
S2140074A038B5154B1C6834B3F0B92168134813F08F
S2140074B0C5FB23683BB16268934204D2104813F0C0
S2140074C0BDFB6368236004F11405284629F03EFAE4
S2140074D0236823B1FA212846594329F032FA204678
S2140074E0BDE83840FFF714BF032804D1618905487A
S2140074F013F0A4FBF3E738BD283500208ABC030050
S214007500B8BC0300EDBC030070B53E4B0D46044608
S21400751009781860002A6FD101231A46A17300214A
S214007520E1730121A1814FF46151C4E900132823BE
S214007530354E22810C21324622206381FEF7C2FDA1
S21400754060B9D6E900230AB19A4207D33189994235
S2140075509FBFC4E900237389218163812B4B2C4A8A
S214007560E363042384F8403084F84C30E318236542
S214007570284BA2646365022304F10802E265264AEA
S21400758084F85830226604F10A02A266234A84F878
S214007590643084F8703004F10C03E2666367646458
S2140075A0EA79A86802EB420300EB830104F13C068B
S2140075B04E601B4E40F82360FA261A4B1A488B6022
S2140075C0531CEB71FEF7FEFE208904F11405704390
S2140075D029F059FA6189204629F0E6FB134B284624
S2140075E0C4E90534FEF7C4FD216849B12846714355
S2140075F0BDE8704029F0A5B94FF4F07302228DE77C
S21400760070BD00BF283500201C3500200000230177
S214007610010023000200210003002101FDFF2100DC
S21400762020000105AD73000089730000317300006F
S214007630134B10B51C680CB3E37BEBB129F08AF949
S2140076402369C01A002809DB0E4813F0F7FA002356
S214007650FA20E3736368584329F015FAE37B5BB1BD
S2140076602489FA235C4329F019FAA04206D0204662
S214007670BDE8104029F007BA6468F2E710BD00BF05
S214007680283500201ABD030038B50024044D55F8EF
S214007690040B08B129F09BFB01340A2CF7D138BD46
S2140076A02C350020042908B50AD172B16BB11378C5
S2140076B01BB929F0B7FB002008BD29F0A9FBFAE7A3
S2140076C0034813F0BBFA0120F6E70320F4E700BFF7
S2140076D054BD030010B4054C114654F820001A4659
S2140076E0BDF804305DF8044BFFF7DCBF2C350020F6
S2140076F00229024608B50ED004D839B9104629F03A
S21400770091FB06E04029F9D0412907D1104629F01F
S2140077107FFB002008BD29F08FFBFAE7024813F034
S2140077208DFA0120F6E700BF74BD030010B4054CC7
S214007730114654F820001A46BDF804305DF8044B94
S214007740FFF7D6BF2C350020426B094B52791A70D2
S21400775082785A70C2789A70826B12B190F83C2088
S214007760DA70007804210930014AC0B2FEF7BABCCC
S214007770155D0020024B53F8200029F079BB00BFAE
S2140077802C35002038B504460078084D09302A46C6
S2140077900421C0B2FEF796FC30B96B78A370AB78C4
S2140077A0E370EB7884F83C3038BD00BF155D0020F0
S2140077B038B504460078114D09302A460421C0B277
S2140077C0FEF780FCC8B9A3782A78022B0CD004D820
S2140077D063B9204629F026FB01E0FF2B0AD020469D
S2140077E0BDE8384029F0F3BA002AF2D1204629F045
S2140077F00FFBF4E7002AF9D1EBE738BD155D002052
S214007800F8B504460B78284A0D4642F82300437024
S214007810FFF7B8FF636B254A5C631A632046FFF7E1
S214007820C7FF204629F0D3FA4FF480136360012384
S214007830626BA66B0532E2601D4A23722261A21CAF
S2140078402375A26166B11B4A84F82030E261E21C0F
S2140078506262194A84F82C3004F13C03A262236366
S2140078600627EA79A96802EB4203002E21F8237066
S21400787001EB83000CBF02230423C3700123837033
S2140078800E4B04348360531C4460DBB20C4C03EB99
S214007890430341F8234001EB830000234360094B78
S2140078A002328360EA71F8BD2C3500204D0E0300CD
S2140078B00340300101FF300102FF10012D77000068
S2140078C008000100D576000028B1034B1B788342E0
S2140078D034BF002001207047F95C002070B50025F9
S2140078E00A4C0B4E3378AB4200DC70BDD4F8A420B3
S2140078F042B123791BB16079FFF7E6FF10B9104655
S21400790028F003FF0135A834ECE700BFB01E0020C6
S214007910FA5C002008B5427901461046FFF7D4FF0E
S214007920A8B1CB780A48013A042B00EB82100ED897
S214007930012B08D81BB9BDE8084029F069BABDE894
S214007940084029F06FBABDE8084029F075BA08BDAE
S214007950B01D002008B5427901461046FFF7B4FF77
S214007960A8B1CB780A48013A042B00EB82100ED857
S214007970012B08D81BB9BDE8084029F053BABDE86A
S214007980084029F045BABDE8084029F055BA08BDB8
S214007990B01D002010B586B00446FEF735FD012860
S2140079A030D1E278042A2DD8DFE802F0133234030F
S2140079B0030061790846FFF787FF58B31648032A85
S2140079C000EB811050F80C3C58791DD1003818BFD8
S2140079D0012063784FF480728DF804304FF4827380
S2140079E0ADF806300623ADF8083001238DF80B30CD
S2140079F000238DF80A0001A8CDE903238DF8143082
S214007A00FEF73AFD06B010BDB0FA80F04009E0E798
S214007A100020DEE70220DCE7B01D002010B586B0AF
S214007A200446FEF7F1FC012830D1E278042A2DD86E
S214007A30DFE802F013133203030061790846FFF70C
S214007A4043FF48B31548032A00EB811050F80C3C5E
S214007A505B791DD11A1E18BF012263788DF80A20A3
S214007A608DF804304FF48273ADF806300623ADF877
S214007A70083001234FF480728DF80B30002301A8E4
S214007A80CDE903238DF81430FEF7F6FC06B010BDE2
S214007A90B3FA83F25209E0E70222DEE7B01D0020C7
S214007AA010B586B00446FEF7AFFC012812D1637805
S214007AB0094A8DF804304FF48273ADF806304FF45F
S214007AC08073CDE90223002301A804938DF81430B7
S214007AD0FEF7D2FC06B010BD0800070110B586B050
S214007AE00446FEF791FC012820D16278104B8DF8F1
S214007AF004204FF4827294F8A01094F8A1005970F4
S214007B001870ADF8062004934FF4807202230949DA
S214007B1001A88DF81430CDE90212FEF7ADFC94F8FA
S214007B20A130013B18BF012384F8A13006B010BD78
S214007B30195D00200800050110B58378044603B3DC
S214007B400379022B0AD142791046FFF7BDFE28B111
S214007B500C48013A00EB821029F06EF9A379022B4B
S214007B6002D12046FFF716FF2046FFF7B7FF022395
S214007B706078A4F86C305522BDE81040122128F039
S214007B8041BF10BDB01D00204388094A082113805C
S214007B908388538083681B8A938090F8A030937103
S214007BA08379D37100780430C0B2FEF79BBA00BF69
S214007BB00258002038B50D4604460178114813F0E7
S214007BC03DF84FF602739D420ED10F4B1B782BB932
S214007BD063712046BDE83840FFF7D6BF62790AB128
S214007BE09342F6D20123F3E7B5F57F4FF1D1204655
S214007BF029F0BBF9A378022B0CBF01220022A36850
S214007C009A70E6E790BD0300F95C0020024B53F83B
S214007C102000FFF7CFBF00BF5435002038B504461C
S214007C200078144D04302A460821C0B2FEF74AFAFE
S214007C3020B1BDE83840104813F000B82B886380A8
S214007C406B88E978A380AA88A3681A82AB7984F83F
S214007C50A030EB79A371094B1B780BB9637138BD63
S214007C6009B19942FBD9064812F0E8FF23780133A0
S214007C70F4E700BF02580020AABD0300F95C00200C
S214007C80D3BD0300F8B504460B78474A0D4642F8C4
S214007C9023004370FFF7C2FFA268444BD465D36449
S214007CA0434B02265365434BA11C13654FF4401308
S214007CB0E36001236161E1623F491032216322657E
S214007CC0211D3E4AA1633E483E49626504F1A0027A
S214007CD0A061E163E265E01C611D3B4A20626164CD
S214007CE03A483B492266A21D2374237784F828303D
S214007CF084F8343084F84030A16484F84C6084F80A
S214007D00583084F864306062A266E879AA6800EBAE
S214007D10400102EB810704F10C0CC7F804C04FF0D9
S214007D20060C2C4F42F82170C118C9B201EB410174
S214007D3042F821C002EB810700217960264F84F8C3
S214007D4080302767254F84F89830A767244F254B47
S214007D50E767254F84F8746084F88C60C4F89C301C
S214007D6004F16C06831CC4F88470C4F890601F4F3E
S214007D701F4EDBB203EB4303C4F89460C4F888706C
S214007D8002EB83067034746008261A4C42F82340CF
S214007D90C31CDBB203EB430302EB8304043042F85C
S214007DA023606160E871F8BD54350020C10E030001
S214007DB00B0F0300397B000001FF300104FF200198
S214007DC01000300102FF200105FF300100FF3001E6
S214007DD003FF2101070001084A002100265704007E
S214007DE051001000285704002957040055002100B0
S214007DF06F0018001200010400239B6AB3F5804F41
S214007E0003D21968064A914203D0002303708360A8
S214007E107047012202709A689B694260F7E700BFCC
S214007E2007B0CD5E024B034A1A602AF0C2BC00BF00
S214007E300000002002020FF073B53F4B04461A788C
S214007E401AB102221A7002B070BDCDE900220028D5
S214007E50F9D001261E7033F039F8384D384B1860CB
S214007E6017F0CEFC2B785BB902F0F2F940B9354832
S214007E700823354A3549006801F038FE00B92E70EF
S214007E80334B5A68E260334A9A601A6E22605A6E22
S214007E906260D3F87021A2601B6E5C042CD52E4A5B
S214007EA0D368D807FCD42D4B1A68531C29D04FF43E
S214007EB0801393402A4A13660423294C4FF08042CD
S214007EC023664FF480632366102323664FF4005323
S214007ED06846236601A92266636629F05EF8009B61
S214007EE02366019B63662B78002BACD0164B1A6872
S214007EF022665B686366A6E71A4AD368D907FCD48D
S214007F00D1E7194B1B78002BD6D1184B5A68144B67
S214007F1012B94FF480121A66154A526812B94FF415
S214007F2000121A66134B5B68002BC5D14FF4800213
S214007F300B4B1A66C0E700BF1C5D00201D5D0020CD
S214007F408C35002034670020903500200071080032
S214007F500080004455CEAC000000044000670020BE
S214007F6000900044000004501B5D00200080055077
S214007F7000C005500000065038B5224D04462B7848
S214007F80012B02D001232B7038BD0028FCD029F02D
S214007F9029F8013009D029F025F840F2011398425B
S214007FA003D0194AD368DB07FCD42268174B1A663D
S214007FB062685A66A268C3F87021E268D40744BFB4
S214007FC000229A60124B1A68013213D1114A1278B5
S214007FD082B911494968C80748BF1A600F4A5268F3
S214007FE0D10744BF01221A600D4A5268D20744BF27
S214007FF002221A6017F00CFC0A4B186832F061FF78
S2140080000023C0E71C5D0020000004400080004400
S214008010006700201B5D00200080055000C0055052
S214008020000006508C35002070B50024A36AB3F516
S214008030804F23D21A68134B9A421FD1124E3378C0
S21400804013F0FD0518D14FF480341048FFF7F4FE06
S214008050032004F04FFC0E4B0320DC6004F02EFCE3
S2140080600C4B1C61AB6ADB69984704460748FFF770
S21400807083FF0CB901233370204670BD4FF4817422
S214008080FAE700BF07B0CD5E1B5D00207C35002000
S21400809000A000440090004413B5204B1B7803B9A1
S2140080A0FEE700231E4CCDE900336A4608231D492F
S2140080B0206801F01BFDF8B91B4AD2F84031D2F80F
S2140080C040211F2B4FF0010311D9203A9340019A0B
S2140080D01A43019208236A461249206801F08EFE70
S2140080E0124B134A1A602AF064FB02B010BD93408C
S2140080F0009A1A430092EDE72D28F1D10A4AD2F8E9
S2140081004031D2F840211F2B4FF0010385BF203AA3
S21400811093409340019398BF0093DBE71C5D0020DB
S2140081203467002000710800008000440000002032
S2140081300B020FF038B50025AB6A0446B3F5804F46
S21400814010D21B6BB3F5804F0CD20748FFF774FEB6
S214008150AB6A20461B6B5B689847BDE83840024810
S214008160FFF70ABF38BD00BF9835002013B50024BE
S214008170A36A0190B3F5804F13D21B6BB3F5804F03
S2140081800FD20948FFF758FEA36A01211B6B01A80E
S2140081909B69984704460448FFF7EEFE204602B067
S2140081A010BD4FF48174F9E79835002070B50026AD
S2140081B0B36A0446B3F5804F0D4612D21B6BB3F577
S2140081C0804F0ED20848FFF737FEB36A20461B6B77
S2140081D029469B69984704460348FFF7CDFE20468C
S2140081E070BD4FF48174FAE79835002070B500260C
S2140081F0B36A0446B3F5804F0D4612D21B6BB3F537
S214008200804F0ED20848FFF717FEB36A20461B6B56
S2140082102946DB69984704460348FFF7ADFE20462B
S21400822070BD4FF48174FAE798350020F8B5002742
S214008230BB6A0446B3F5804F0D46164611D21B6B3B
S2140082407BB10948FFF7F8FDBB6A20461B6B324638
S21400825029465B6A984704460348FFF78DFE20468A
S214008260F8BD4FF40174FAE79835002070B5002683
S214008270B36A0446B3F5804F0D4612D21B6BB3F5B6
S214008280804F0ED20848FFF7D7FDB36A20461B6B17
S21400829029469B6A984704460348FFF76DFE20462A
S2140082A070BD4FF40174FAE798350020F0B500274A
S2140082B0BB6A0446B3F5804F0D461646ADF5337DD2
S2140082C020D21B6BB3F5804F1CD21048FFF7B4FDCD
S2140082D0BB6A20461B6B40F2C1225B6A01A9984725
S2140082E0044630B10948FFF747FE20460DF5337DBA
S2140082F0F0BD836A32461B6B2946DB6A01A89847A5
S2140083000446EFE74FF40174EFE700BF983500200E
S21400831010B50024A36AB3F5804F10D21B6BB3F5DB
S214008320804F0CD20748FFF787FDA36A1B6B1B6BB9
S214008330984704460348FFF71FFE204610BD012459
S214008340FBE700BF98350020F0B58FB0044601A8C3
S2140083500E461546FFF7EEFE9DF80C30012B12D1A7
S214008360B5F5402F27D8B4F5402F24D86319B3F5B8
S214008370402F20D821462A46304613F001FF00241D
S21400838020460FB0F0BD0027BB6AB3F5804F15D26C
S2140083901B6BB3F5804F11D20A48FFF74DFDBB6A41
S2140083A02A461B6B314620465B6B984704460548B9
S2140083B0FFF7E2FDE4E740F20244E1E740F2011491
S2140083C0DEE700BF98350020F0B58FB0044601A860
S2140083D00E461546FFF7AEFE9DF80C30012B1FD15A
S2140083E0B5F5402F06D8B4F5402F03D86319B3F57A
S2140083F0402F13D940F2024420460FB0F0BDE25899
S214008400013225D104339D42F9D82A46314620460A
S21400841028F018FE0028EDD00024EDE70023F2E750
S2140084200027BB6AB3F5804F15D21B6BB3F5804FA0
S21400843011D20A48FFF700FDBB6A2A461B6B31467D
S21400844020469B6B984704460448FFF795FDD3E704
S21400845040F20344D0E740F20114CDE798350020FF
S21400846070B58EB0044601A80D46FFF763FE9DF872
S2140084700C30012B22D144EA0503C3F30C03002B76
S21400848033D1B5F5402F04D940F2024420460EB051
S21400849070BDB4F5402FF7D82544B5F5402FF3D876
S2140084A0204604F5005428F0C6FDAC4202D0002851
S2140084B0F6D1E9E70028E7D00024E7E70026B36A0C
S2140084C0B3F5804F14D21B6BB3F5804F10D20A4819
S2140084D0FFF7B2FCB36A29461B6B2046DB6B984756
S2140084E004460548FFF748FDD0E740F20444CDE7D0
S2140084F040F20114CAE700BF98350020BFF34F8F43
S2140085000549064BCA6802F4E0621343CB60BFF32A
S2140085104F8F00BFFDE700BF00ED00E00400FA0546
S21400852070B5D0B1C9B10E4E431E013913F8014FD4
S2140085302046325D02F00302012A11F8012F08BF1F
S21400854004F12000B55C05F00305012D08BF2032BC
S214008550801A01D1002CE9D170BD0120FCE700BFD4
S214008560FD7E04000348044A0449121A921028F0BB
S214008570B5BD00BF34410000D04200003464002086
S21400858008B5154B83F30A8800F030F8FFF7EAFFCA
S214008590124B13498B4212D30020124B12498B42C6
S2140085A018D3FCF79FFB186850F82240586840F82C
S2140085B02240013298688242F5D30C33EAE7002263
S2140085C0F8E71C6844F8220001325C68A242F8D33F
S2140085D00833E4E70022F8E7080000209CA3040024
S2140085E0A8A30400A8A30400A8A30400124B134ADF
S2140085F070B59A60D3F88820114D42F47002C3F823
S21400860088206FF0010205F50054226641F2FF72E1
S21400861062660222C3F8D020BFF34F8FBFF36F8F7E
S2140086204FF44036032004F065F90320E66004F0BA
S21400863045F92E6170BD00BF00ED00E0004000006F
S21400864000800044014B1860704700BF0867002098
S214008650054B1860054B1B6F03F00703032B01D176
S21400866030F08CBD704700BF1067002000800050BF
S2140086702DE9F04104464FF001080C250D4E0CB9CB
S214008680BDE8F08194FAA4F0B0FA80F00F2808FA5A
S21400869000F2C8BF103824EA0204CABF05FB006215
S2140086A005FB0062B4325768002FE8D09168C0B26C
S2140086B0B847E4E7A835002008B50C4832F0A4FC1B
S2140086C0192004F009F928B1192004F013F919202B
S2140086D004F0F4F81A2004F0FFF828B11A2004F089
S2140086E009F91A2004F0EAF8002008BD8C590400A5
S2140086F02DE9F0410E461746054618B30F2923D834
S2140087000378DBB1013BDBB2022B19D8104AD35CED
S2140087106A78D340DB0717D50E4BD3F81043ACB9B5
S21400872032F0D4FB80463A462846314602F042FEF6
S214008730404632F0C6FB2046BDE8F0817F23E7E7DF
S2140087400023E5E72224F6E72124F4E70224F2E7F3
S2140087507C57040000C0035010B5044610B30378DD
S214008760E3B1013BDBB2022B1AD8104AD35C627825
S214008770D340DB0718D532F0A9FB012261782378B5
S2140087808A4030214B4341F2100103F1A04303F528
S21400879070335A5032F095FB002010BD7F23E6E779
S2140087A00023E4E72220F8E72120F6E77C570400C0
S2140087B010B5044610B30378E3B1013BDBB2022BDD
S2140087C01AD8104AD35C6278D340DB0718D532F04B
S2140087D07DFB0122617823788A4030214B4342F2A8
S2140087E0100103F1A04303F570335A5032F069FBD1
S2140087F0002010BD7F23E6E70023E4E72220F8E709
S2140088002120F6E77C57040038B50D46044618B319
S21400881011B30378E3B1013BDBB2022B1AD8104A3E
S214008820D35C6278D340DB0718D532F04FFB30229A
S2140088302378534303F1A04303F570335B696278F2
S214008840D34003F001032B7032F03BFB002038BD11
S2140088507F23E6E70023E4E72220F8E72120F6E777
S2140088607C5704002DE9F0410D461646984604460E
S21400887000284FD000294DD00178002940D04B1E4B
S214008880DBB2022B3ED8254AD25C6378DA40D207A8
S21400889001D4FF2940D1022E01D9042E3CD132F05A
S2140088A015FB23780746FF2B05D03246204629685D
S2140088B002F0C6FD28602B68013309D12378FF2B10
S2140088C006D1174B6078D3F8241429F0E2F9286013
S2140088D029684B1C18D00C23124A03FB0122069B66
S2140088E0C2F8048093602378FF2B04D001230E4A3D
S2140088F08B40C2F82434384632F0E3FA002007E012
S2140089007F22C2E70022C0E7384632F0DAFA2D208E
S214008910BDE8F0812220FBE72120F9E77C57040020
S21400892000C00350A835002000D0035008B502F060
S21400893037FD044B00F05530C3F82004BDE808406E
S214008940FFF796BE00E0035008B502F029FD044B81
S21400895000F0AA30C3F82004BDE80840FFF788BE40
S21400896000E003502DE9F04F144605460E469B46A0
S214008970C36B87B001225B6902A960689847EB6BFE
S21400898001225B6903A93046984702A828F0A5FF94
S214008990074648B10023A37563754FF0FF33A36005
S2140089A0002007B0BDE8F08F03A828F0A3FF01233E
S2140089B0A375237E04EBC303DE611F846368B342A2
S2140089C00ED1206003A828F0B7FF4FF0FF332075C4
S2140089D0A360237D043B022B26D80023A375DFE784
S2140089E023681A1A53425341A37503A828F0A4FF1C
S2140089F0237D834218BFA77503A828F07FFF07468C
S214008A0002A828F07BFF874218BF002303A818BFE0
S214008A10A37528F07BFF074602A828F077FF874259
S214008A201CBF0023A375D4E703A828F067FF80B116
S214008A30EB6B022230465B6904A9984704A828F02D
S214008A406CFF0346207D032839D8DFE800F038386D
S214008A50040903A8F3E7CC22237E04EBC3031A849D
S214008A6001F06EFC109B187003A8277E28F03AFFD2
S214008A7004EBC70787F82200237E03A804EBC30392
S214008A80B3F8209093F8227028F038FF804603A8A9
S214008A9028F03CFF8246B8F1000F15D0EB6B02229F
S214008AA030465B6904A9984704A828F0FBFE607569
S214008AB0637D6BB90023A3754FF0000838E0227E73
S214008AC004EBC2021384CBE703A828F0D6FEEEE739
S214008AD094F81680B8F1000FEED0B9F1000F09D166
S214008AE0DFB10123E375637E002B4FD1012F42D106
S214008AF0677614E06B6C06EB0A015A4286EA0100C0
S214008B0010421CBF0022A2755A1E0A409B1A9945A5
S214008B10D0D8A37D002BE3D1CEE7E37D43B94FF059
S214008B2000084B4652463146284628F021FCA060F5
S214008B30A27D12B123694B4423611A49237E09782A
S214008B4099422AD901332376BBF1000F27D032B3DE
S214008B50E37D23B3B8F1000F21D1032F1FD0A16806
S214008B604B1C1CD0109B2246009328460123FFF77F
S214008B70F9FEA07513E095F8343063B9EB6A01335B
S214008B80CFD1032FCDD10123A376C8E7012FCFD0B5
S214008B90032FC4D1F7E79846C3E70023A375A07D4B
S214008BA0FFE600BFA05704002DE9F04F0E4698469A
S214008BB000238BB004464FF0FF31104617468DF861
S214008BC0133001F0A7FBB6F5801F20D2314605AA68
S214008BD004F1080028F0D3FD451C014603D1237C90
S214008BE0BBB92D2010E0384601F094FB012239462F
S214008BF020460DF1130328F00DFC0028EFD09DF859
S214008C00133088F8003000200BB0BDE8F08FB01CA1
S214008C10E5D1E56A691C36D12046616A28F0EEFA8D
S214008C200546B31C18BF0123DFF8CC900193636A96
S214008C30626C0293236805A902FB053AE36B0522E2
S214008C405B695046984705A828F0E2FE28F005FF25
S214008C50504628F00DFF4FF0000B824601464B1C95
S214008C6005D0636C81EA0A025B42134211D02946A2
S214008C70204628F0C3FA029BAB422CD0BBF1000F73
S214008C802CD10546D3E72368ED1A636CB5FBF3F5E4
S214008C90C7E7484601F03EFB0DF113034946204660
S214008CA0019A28F0B7FB034690B1B21C03D0D9F85E
S214008CB00020B2420CD19DF8132003930D4B88F888
S214008CC0002049461A68384613F05AFA039B9B461A
S214008CD0D9F80810C3E7BBF1000F82D0B6F5801FA5
S214008CE091D2314698F800307A6804F1080001F015
S214008CF03FFA88E79C570400843D00202DE9F341A5
S214008D000446174698460E46184D816AE36A8B421B
S214008D1001D04B1C02D102B0BDE8F081284601F01C
S214008D20F9FA0122294620460DF1070328F072FBC6
S214008D3038B14346294620469DF80720B847002804
S214008D40E9D0A9684A1C04D16968204628F0E3FAED
S214008D500146012EDAD16B6881EA0302636C5B423E
S214008D601A4218BF4FF0FF31D0E700BF583D002031
S214008D702DE9F04F4FF0FF334FF6FF720025044603
S214008D8000F10806C0E909238BB0C36205620563DB
S214008D903046884628F0C4FC204628F0FFF960BB21
S214008DA02046414628F07AFA204628F0F7F960BBBC
S214008DB05E200BB0BDE8F08F2368E26B606C5769ED
S214008DC000FB0530052205A9B84705A828F020FEB7
S214008DD0012807460CD12946204628F030FA012FF4
S214008DE0024600D101322946204628F0F6F903E073
S214008DF028F038FE0028EED10135E3699D42DBD32A
S214008E00204628F0CBF90028CAD000254FF0FF39BD
S214008E104FF6FF73CA46A846C4E90853E369984567
S214008E200AD3A5EB0905012D2CD84FF6FF72636A0D
S214008E3093423CD16720BCE72368E26B606C5769BD
S214008E4000FB0830052205A9B84705A828F0E0FD74
S214008E50834605A828F0B3FD0746584628F0FDFDD2
S214008E6068B1574538BFC4F82480B94528BFB9460D
S214008E70BD4238BF3D46BA46236A0133236208F135
S214008E800108CBE74FF6FF7300256362E3699D4256
S214008E90CBD2676C2068E36B052207FB05005B6995
S214008EA005A9984705A828F08AFD0135EEE7E26B8C
S214008EB0676C2068694607FB030055690522A847CA
S214008EC0684628F07CFD626A2368606C4B4D00FBA8
S214008ED0023028F0CDFD4FF0FF33A062E3622A4651
S214008EE06FF00101204605ABFFF75EFE002846D175
S214008EF0AD6829462046E56228F02CF9206320B9A3
S214008F002046E16A28F007FAE0622946204628F063
S214008F1002FA0546A36A9D4233D1204628F0EDF8B2
S214008F2000278046B946E36999453CD3B84559D9E8
S214008F302046616A28F062F90026054604F1400AD8
S214008F40B74212D8626C2368694602FB0539E36BA8
S214008F5005225B6948469847684628F030FD534628
S214008F6002464946E06B28F085FD2946204628F053
S214008F7045F90136B0450546E2D1642019E7A56AF1
S214008F80B7E72946204628F0E5F8236B2946034430
S214008F9007462363204628F0BEF90546002FB9D1C0
S214008FA0C4E90B07B6E7636C2568052203FB095581
S214008FB0E36B05A95B692846984705A828F028FDB5
S214008FC028F04BFD58B1284628F052FD01462046B1
S214008FD028F0C0F8636C143B984208BF013709F1CB
S214008FE00109A0E7304628F09BFB002320461946DF
S214008FF0034AFFF783FE0020DBE600BFB03D0020FB
S214009000031403002DE9F041036B9046826B07685A
S2140090109A4288BF8363426C436A90B002FB037730
S214009020C36B0E46052201A95B690446384698477D
S21400903001A828F0EDFC01280146307057D0656C79
S214009040E26B2368606AD2F814C005FB0030052284
S21400905006A9E04706A828F0DBFC01284FF000052B
S21400906023D0D4E90A3201219342CDE90B458DF88D
S21400907034800E958DF83C102AD11946204628F0EB
S2140090804AF9236B626C14339B1AE06223630C9BD1
S21400909053B99DF83C303BB1626A616C2368E06B63
S2140090A001FB023128F06CFC0C9DE36B05225B692A
S2140090B001A93846984701A828F0AAFC307028462F
S2140090C0236BA26B9A4288BFA36310B0BDE8F08101
S2140090D0237C33B91C490BAA04F1080001F096F86A
S2140090E0D5E72046194A0BABFFF708FECFE7237CEF
S2140090F023BB2246164904F1080001F087F8616A8E
S214009100204628F09CF8616A421C204628F065F844
S214009110054620B9236B626C1344143B2363204638
S214009120A16A28F0F8F82368A062C01A636CB0FB46
S214009130F3F06062204628F031F9B6E700232046B7
S214009140044AFFF7DBFDDAE7A9980000259800003F
S2140091509D1403003914030073B50D46D11E4A4210
S2140091601C461B7E4A419A4226D1296823689942AA
S21400917022D3636899421FD8114E0DF10703324679
S214009180FFF712FDC0B972686B689A4214D19DF859
S2140091900730DA1E53425341227E93420CD1636954
S2140091A001336361D4E90323934205D22968A26898
S2140091B042F8231001332361012002B070BD00BFC6
S2140091C0B03D00202DE9F04F9B4689B09DF8483011
S2140091D09046514A0193136907465B450D46C0F019
S2140091E09580D94653680093B9F1000F7BD0FB6B8E
S2140091F001225B6905A90098984705A828F07AFB24
S214009200454B1B68984240F0848005A828F07EFBFA
S2140092100428064615D105A828F07FFB009B0446C7
S2140092201E44019B002B3ED1804512D91C46A8EB5C
S21400923000083846009928F06EF8A9EB040900905B
S214009240D2E7FB6B02225B69009806A9984706A83E
S214009250E2E7A0EB08045C4528BF5C46032C4644C6
S214009260ABEB040B1DD9FB6B294630465B69A208A5
S214009270984724F0030304F0030A1E441D44DDF857
S2140092800480BAF1000FD4D0FB6B012206A9304649
S2140092905B6998475246284606A912F071FF554466
S2140092A0C7E7A246EBE7824600F0030302932B18BB
S2140092B003930644039BA6EB0A00A3EB0A05029B56
S2140092C09A4514D1BAF1000FB3D0FB6B012206A960
S2140092D05B6998475246284606A913F00DF9002800
S2140092E0DDD04FF03609484609B0BDE8F08FFB6B7D
S2140092F0012206A95B6998470422284606A913F0AE
S214009300FBF80028EDD1AAF1040AD3E74FF0630971
S214009310E9E74FF06F09E6E7DC3D00202DE9F04174
S2140093200F4616469846044688B060B390F8345008
S214009330FDB1012127F027FF00210E9BCDE9051185
S214009340CDE902379DF83C30CDF804808DF81C300E
S214009350237C04968BB90D4901AA04F1080000F09D
S21400936055FFDDE90553E06B002E08BF1D4628F0CB
S214009370A3F8284608B0BDE8F0812046044A01ABB1
S214009380FFF7BCFCEDE70546F3E700BF67140300F4
S214009390599100007FB590F84260044601920DF1A5
S2140093A00B030A463046114928F08EF8012E054672
S2140093B0E36B17D132465B6903A998479DF80B10FB
S2140093C0039B019A59B19BB243EA02430122284605
S2140093D00393E36B03A99B69984704B070BD62F3DF
S2140093E00F03F3E701229B6901A9F5E7DC3D0020A6
S2140093F02DE9F04F99B00E460D920A69416C0B9319
S2140094001439D31DB3FBF1F3013302EBC302036B34
S21400941004469342C0F001820023DFF804940893C8
S214009420E36A48461946059300F074FFD6E9033709
S21400943007930B9B022B4DD1CC2F40F0D7810D9B71
S2140094403BB13146204628F095F8656C1490012013
S21400945044E00120079B656C1B68149300F0010034
S21400946000280CBF04230823782F0E9349D8059AAA
S2140094706B1E1340ED1A3B1D9D423CD2002F3DD083
S214009480082D3ED80023042506934FF0040A3368BF
S21400949006990B98C9F80030C9F8107028F050FAF1
S2140094A04FEA9A030F93059B89F814000393002351
S2140094B009930C9304930A93616C039B4A1E1A400B
S2140094C08B1A27B35544AB4223D8236B5B1A13443D
S2140094D023632FE1782F656CB9D8F07D0D9B002BA8
S2140094E0BCD0E36B01225B69706816A9984716A882
S2140094F028F004FAB4E700250695C6E70425069783
S214009500C3E7012300254FF0080A0693BFE753453B
S214009510DBD3A3EB0A029742039BB84628BF9046CC
S2140095209742534428D90122D9F8101089F81720F9
S2140095308F4226D10399C9F80410049299F817208F
S2140095400AB399F818100398CA1C09EBC2025060B7
S21400955004980131A2F80880907289F81810B8F1C2
S214009560000F07D00B9A022A40F08180099A72B148
S214009570012209929B46ABE0049A002A18BF0322F8
S214009580DBE70222D9E7039AC9F80420E7E70C9A3A
S2140095904244032AEED9E26B1846956914A90122C3
S2140095A00993A847099B05460028E1D03D2D40F0C9
S2140095B01E8104F1080303932368059A606CA2EBEE
S2140095C0030ABAFBF0FA00FB0A3028F051FAE16A07
S2140095D08046204627F09FFEA26A824200F00F8156
S2140095E0626CD9F80830511E0B40216B2768891A27
S2140095F00B442363089BE062DF1BB7FBF2F7BA4518
S21400960040F0FA80059BB3EB080A12D0E36B4FEAF2
S2140096109A0241469B6998478346E36A059A5344F3
S214009620E362236B03989B1A4344236328F078F87D
S214009630DA462368616CE06B01FB073128F08DF990
S214009640204627F0ABFD204627F0A8FE2063BAF19F
S214009650000F00F0D4803269616CD31D1439B3FB5F
S214009660F1F3013302EBC3029042A5D2BFE00D9A9C
S214009670002A77D1B8F1030F4FEA98026ED9E16B52
S21400968018468D6907991093A847109B0546C0B9E0
S21400969018F0030515D0079A28F0030B02EB0B0110
S2140096A09B444FF0FF3215A815922A46109312F0ED
S2140096B067FDE26B5846956915A90122A84705463D
S2140096C0109B9B46079A42440792002D40F08B80E1
S2140096D0049B16A80193069B009399F81420434612
S2140096E0316800F0CDFDE36B0F9A9B69039816A9CD
S2140096F09847039A051E089B18BF134608934346CF
S21400970052462046039927F033FE236B08F10302E6
S214009710A3EB0A0322F003029B1AC9F8080023638E
S214009720002D7FF443AF0C9BA7EB080743440C9334
S214009730CDF80CB02046039927F0EDFD00250390E8
S214009740002F7FF4B9AE364A3168936804F10800FA
S214009750E36252680B9B00F00BFD49E09B464546D2
S21400976007999EE79B4606F120021092F27D7068EC
S214009770A2B1002296F818C00A99D5B2AC4511D904
S214009780109D02F1010E35F832508D4228D90E9800
S21400979006EBC2020144D069084403E00E9A0A9917
S2140097A00A441044E26B15A9556901221193A84793
S2140097B0159A0A9B1392E26B043395695846012268
S2140097C013A90A93A847119B054603EB0802A2EBD0
S2140097D00B02042A7FF679AF28B90BF1040BC5E714
S2140097E07246491BC9E7CDF820B088E770252F469A
S2140097F0384619B0BDE8F08F4FF0000A19E7326915
S214009800616CD31D1439B3FBF1F3013302EBC302D1
S214009810236B9342BFF404AEE9E71C27E8E700BFDA
S214009820843D0020032A2DE9F34106460D461746DF
S2140098301C4606D1237A012B23D0012002B0BDE8B6
S214009840F081DFF86080096842460DF10703FFF7F4
S214009850ABF960600028EDD19DF80720237A032A33
S214009860E8D0D8F804106A689142E3D1012B296940
S214009870D4F80CC007D172690CEB0103934202D9ED
S2140098802074207CDAE708316144E1603B4601221F
S21400989029463046FFF7ACFD60600028CAD000209D
S2140098A0CCE700BFB03D00202DE9F341089C032A19
S2140098B01746266806D1237A012B24D0012002B051
