S01B00006275696C642F72656C656173652F7A69676265652E73333714
S21400400008100020A192000081DC000013270300A6
S2140040101327030089DC000091DC0000132703004F
S2140040201327030013270300132703001327030097
S21400403095DC0000D8700400132703001327030044
S214004040132703001327030013270300B98D00006E
S2140040501327030013270300132703001327030067
S214004060132703001327030095E100003F1D0300FC
S2140040701327030013270300132703001327030047
S2140040801327030013270300132703001327030037
S2140040901327030013270300132703001327030027
S2140040A013270300699600004D96000013270300AF
S2140040B01327030013270300132703007D35020090
S2140040C04F8303004B830300E12C0200658303004B
S2140040D0538303003D350200578303007119020025
S2140040E0BD35020013270300132703001327030020
S2140040F013270300132703001327030013270300C7
S21400410013270300132703001327030013270300B6
S21400411013270300132703001327030013270300A6
S2140041201327030013270300132703001327030096
S2080041301327030049
S214004134F0B5114A114C124E00F00105E3695F0711
S21400414413D40DB9334213D103EA00078F4207D1C3
S2140041540B4A1A40002A14BF6FF001000020F0BD7D
S214004164013AEBD16FF00200F9E74FF0FF30F6E7C3
S2140041746FF00100F3E700BF80969800000003503C
S214004184020001000B4B70B5D96911F480310DD1D2
S21400419401244FF48072084E084DF46020462C64C7
S2140041A41A61FFF7C5FF3464EC6070BD6FF0010060
S2140041B4FBE700BF0000035000100350002003502C
S2140041C438B541F6713301220C4C0021E569E363EE
S2140041D40B4B05F48035DA600223606121202361ED
S2140041E4FFF7A6FF10B92120FFF7A2FF0122054B17
S2140041F4DA600DB10023E36338BD00BF000003504E
S214004204001003500020035070B5134C6061E3693E
S2140042145B071ED40E4656F8043B8D18A361AE42C7
S2140042240BD10423002121202361FFF781FF58B915
S214004234BDE870402120FFF77BBF08210846FFF742
S21400424477FF10B10423236170BD56F8043BA361C5
S214004254E5E74FF0FF30F7E7000003502DE9F84399
S214004264154641F67132164B8946DF69DA63012238
S214004274064603F58053DFF8508007F48037DA608B
S21400428455B9284601220F4BDA601FB10022A3F568
S2140042940053DA63BDE8F88306F5005404EA08041C
S2140042A4A41BAC4228BF2C46494622463046FFF79C
S2140042B4ABFF0028E6D12644A1442D1BE0E700BF4F
S2100042C4000003500020035000E0FFFF45
S2140042D02DE9F04F4FF0FD0BC9B09A460DF11B09C2
S2140042E09DF8503108AFCDF80C90CDF808B0019786
S2140042F0059303890446009383790E4690464188C9
S2140043008288407813F086FE054650B10090A38858
S214004310002062883A4914F0C1F9284649B0BDE841
S214004320F08F99F8000031F064FB38B12846A38876
S2140043306288344914F0B2F98D25EEE75A463946BC
S21400434099F8000031F0FDFA8346002851D0529BC0
S2140043501BB1BDF84C3198424BD8002399F8009019
S2140043600793A9F14102012A5FFA8BF123D8384658
S2140043700139254ADFF898C05FFA81FE734513DBE2
S214004380059B04210792C3B907AF18221F489FED6B
S2140043901A7B02FB060420460A460830394684ED9E
S2140043A0027B18F0A3FE11E010F8011F0133514004
S2140043B00CFB01F2E2E7059B33B123464A4638463A
S2140043C0009611F0A9FDA8E70829DED9B8F1000F7C
S2140043D001D088F80090BAF1000F01D0AAF800B01A
S2140043E0529B002B99D05A46184608A918F07EFE14
S2140043F093E7012591E700BF0000000000000000E1
S214004400F51804002A190400C59D1C811811002007
S21400441093010001000000002DE9F04F93B0CDE9B4
S2140044200A32DDE91C530E9353EC102BCDE908013C
S214004430104619468DED060B1E9E18F0E1F880B169
S214004440DDE906014FF0FF32C54B18F001F940B91F
S214004450DDE906014FF0FF326FF4801318F0DAF84A
S21400446070B1DDE908019DED060B0E9B1E96CDE9A9
S2140044701C53DDE90A3213B0BDE8F04F00F088B9EE
S2140044800022DDE90601002318F0C4F8002800F039
S2140044903381DDE906A303F1004BCBF30A5016F493
S2140044A08063A0F2FF3008BF06250F9317F0D6FDF5
S2140044B09BA3D3E9002317F03BFE9BA3D3E900237D
S2140044C017F080FCCBF31304894644F07F518046F6
S2140044D00022A44B504641F4401117F071FC94A3FF
S2140044E0D3E9002317F024FE02460B464046494611
S2140044F017F068FC18F0B6F8044617F0AFFD8EA368
S214004500D3E900238046894617F012FE0022964B18
S21400451017F058FC18F0A6F889A3D3E9002307463D
S2140045204946404617F004FE80463846894617F04E
S21400453095FD85A3D3E9002317F0FAFD02460B4646
S2140045404046494617F03CFC02460B46CDE90C2394
S21400455017F0EEFDDDE90C23804689461046194625
S21400456017F030FC0022CDE91001804B404649464A
S21400457017F008FF00227E4B17F024FC02460B467D
S2140045804046494617F0FEFE00227A4B17F01AFC0A
S21400459002460B464046494617F0F4FEDDE90C237A
S2140045A08046894600204FF0804117F009FC0246FD
S2140045B00B464046494617F005FC02460B46DDE929
S2140045C0100117F0DFFE07F2FF3700226A4B17F0E4
S2140045D0F9FB00223B0517F0ABFD52465B468046D2
S2140045E0894618F035F8002840F08980CDE90C8916
S2140045F004F16303C62B8CBF0527042731051BD5A2
S21400460053A3D3E900235046594618F017F800285C
S2140046107FD051A3D3E900235046594617F0FAFF3E
S214004620002876D00027A542C6BF2C1B04F1FF3514
S21400463000253C4646F480660E9B9F422CBF4FF0FA
S2140046400008A3EB070816F0020903D0002F18BFD6
S2140046504FF000083CB1DDE90C235046594617F0F0
S21400466091FE82468B46DDE906010022002317F004
S214004670D1FF10B10BF100439B46DDE9080126F49B
S2140046800063CDE90183DDE90A324BEC10AB0095FF
S21400469000F07EF802465FB3DDE9091316F0200F3E
S2140046A000F10105089E0CBF65204520B047DDE9F6
S2140046B008010523002205930A23002CCDE90232C7
S2140046C007F1FF374FEAD473B8BF64422A46019316
S2140046D004970A9B009432F0A8FF0246B9F1000F37
S2140046E006D00B9BC41A0B9B1A190E9BA34245D8E7
S2140046F0104613B0BDE8F08FDDE906ABCDE600222C
S214004700404649461A4B17F03DFE013CCDE90C01E8
S2140047106EE7002D90D00F9B002B8DD0013D8BE7D0
S214004720FB799F501344D33FB3C8608B288AC63F9B
S21400473061436F63A787D23F71A379094F930A40FD
S2140047401655B5BBB16B0240EF39FAFE422EE63F76
S2140047502D431CEBE2361A3F0000000080842E41F9
S214004760FFFFEF7F0000F83F0000E03F00002C4016
S21400477000002440000018400000F03F2020DDE943
S2140047800913089DA8470134ADE700BF00000000EC
S2140047902DE9F04F5BEC10AB97B0CDE90501DDE9F4
S2140047A02058CDE90723504652465B465946229F7D
S2140047B017F026FF70B90323CDE902870193AA4BB1
S2140047C00093DDE90501DDE9072332F060FE17B04E
S2140047D0BDE8F08F4FF0FF326FF480135046594615
S2140047E017F018FF28B10423CDE9028701939F4BE9
S2140047F0E6E74FF0FF32504659469D4B17F028FF2C
S21400480068B19C4A07F00403002B08BF03229A4BAA
S2140048101CBF13460422CDE902870192D0E750461A
S2140048208DA3D3E90023594617F012FF38B98CA39D
S214004830D3E900235046594617F0ECFE68B1DDE98F
S2140048400723DDE905014BEC10ABCDE92187209568
S21400485017B0BDE8F04FFFF7DFBD0022002350463B
S214004860594617F0D7FE002800F091805B46524666
S2140048700020002117F0A4FA012382468B460993F4
S21400488017F4806400F08580092D40F285800024AE
S21400489030210EABA5F109020134202C03F8011BD0
S2140048A0A5EB040901D09442F6D15946504617F0BC
S2140048B0D9FE724B054603EBC90393ED007B8DEDE5
S2140048C00A7B17F0CBFB02460B465046594617F0BC
S2140048D077FADDE90A2317F02BFC02460B46CDE9F2
S2140048E00C2317F0E7FE064617F0A8FB02460B4619
S2140048F0DDE90C0117F064FA02460B46CDE90C23FD
S21400490000225F4B17F0A4FE002848D00136304640
S21400491017F094FB02460B46DDE90A0117F084FE09
S21400492008B100260135B9F1000F45D1284617F029
S21400493095FB02460B465046594617F041FA0022B0
S2140049404F4B17F067FE10B9E90700D501350A216D
S2140049500EAB1A19202C0AD095FBF1F001FB10556E
S214004960303502F8015B013405460028F2D107F025
S2140049700302012A55D1B8F1000F52D0099A12B994
S21400498017F00C0F01D008F1FF38302240E00990F4
S21400499076E74FF0060988E7A946002485E7002257
S2140049A0DDE90C01364B17F035FE0028BBD10EB101
S2140049B0F007B8D50136B6E70A210EAB1A19202C37
S2140049C00DD0B6FBF1F001FB1063092E03F13003A6
S2140049D009F1FF3904F1010402F8013B11D8302136
S2140049E0A1440EAA202CB2D04C4504F101030AD1F2
S2140049F004F158020DEB02042E2204F8202C1C466B
S214004A00A5E70646DBE7A1541C46EBE71A5501343A
S214004A10444506D2202CF9D1CDE9028701940EAB8D
S214004A20CEE6202CF8D0099B3BB12D2204F158038A
S214004A306B4403F8202C0134EEE77A0704D504F122
S214004A4058032B226B44F4E73B07E5D504F15803E3
S214004A5020226B44EDE700BF0000000065CDCD418D
S214004A600000000065CDCDC1883604008C360400F9
S214004A70FFFFEF7F7F3604008436040010800400BA
S214004A800000E03F0000000070B58EB02C22002130
S214004A9003A818F09BF964234FF002320893CDE97F
S214004AA005230B2301218DF834305B4B8DF8101055
S214004AB01D880D4040F0A980084636F011FE0A22F7
S214004AC0564B574C1A704FF42873ADF812304FF00F
S214004AD0FF332360534B54491B8820460B82534BAD
S214004AE0534A1B68CD828B61524B0D621B884B82EA
S214004AF0514B1B68CB611EF0D7FD20B14FF41B71E4
S214004B004E4837F088FE0521206832F081FF20B13C
S214004B1040F27D21494837F07EFE206817F00CF9F8
S214004B20474B2068196833F036F80C2537F040FA02
S214004B306843099037F03CFA68430DEB050107908F
S214004B40206819F005F820B140F295213B4837F06F
S214004B5062FE256820F0E0FF00220146284633F07A
S214004B6092F820B140F29721344837F054FE40F2D4
S214004B700353344D344E2B80052396F90000AB705A
S214004B807F2801D11EF086FE3378EB7037F010FADE
S214004B9000EB80008000A88037F00AFA0023C000EF
S214004BA04FF0FF31E880AB604FF0FF3018A3D3E939
S214004BB0002336F0E7FE2549206833F01DF820680C
S214004BC002A933F039FC20B14FF434711B4837F09A
S214004BD022FE042220680DEB020132F0B1FF042809
S214004BE004D040F2D721154837F015FE01A9012060
S214004BF032F0B2FB09F088F801201FF0CFFA2EF051
S214004C0015FC1FF0F5FA1EF0DDFD0EB070BD00BFFE
S214004C100A0020FF4203000084600020B7670020DF
S214004C20A45A0020BE990400846E0020C499040093
S214004C3009B70300BC990400C0990400516F040032
S214004C40CC6B0020985A00206B7100207DB70300C3
S214004C500348044B834202D0034B03B11847704706
S214004C60987100209871002000000000064B07494C
S214004C70C91A891048BF0131491003D0044B0BB143
S214004C8001481847704700BF9871002098710020AF
S214004C900000000010B5064C237843B9FFF7D8FF94
S214004CA0044B13B10448AFF300800123237010BDFA
S214004CB0481600200000000044BD040008B5044B60
S214004CC01BB104490448AFF30080BDE80840CDE7B7
S214004CD0000000004C16002044BD0400A3F5803AF6
S214004CE0704700BF154B002B08BF114B9D46FFF7C2
S214004CF0F5FF00218B460F461148124A121A18F08B
S214004D0065F80C4B002B00D098470B4B002B00D0BF
S214004D1098470020002104000D000B4818F09CFB6B
S214004D2018F02CF8200029002DF0B2F818F082FBBD
S214004D30000008000000000000000000081000202E
S214004D40081000200C680020C1D4010007B501211E
S214004D5020200DF1070201F0ADFC58B1022301211D
S214004D6020200DF107028DF8073001F0B3FC03B0E8
S214004D705DF804FB9DF807100229F8D002220948C6
S214004D8016F012FF022301210DF1070220208DF8F4
S214004D90073001F09FFC2CF0B8FF4FF4FA6001F0EA
S214004DA0D3FAE4E748CC030038B501F04BFA03F039
S214004DB05DFA01F081FF012805D001F07DFF022891
S214004DC001D001F09FFF124D2B783BB901F074FF24
S214004DD00128044602D12DF03EF82C7001F06CFF3D
S214004DE00128044609D101F013FA2CF0A1FF094A64
S214004DF0094B117811B91470186038BD1A68074944
S214004E00821A8A42F9D91860BDE8384003F05ABAC7
S214004E10636100206261002064160020DF930400B6
S214004E2010B5044600882CF03CFFA37884F84400B4
S214004E30834202BF0123E3702371074B04F11C0079
S214004E40C4E9073401F042FD224620880349BDE844
S214004E50104001F0C9BB00BF17150300E1140300A2
S214004E6070B5C37804460D461646002B34D1D1B132
S214004E70214816F099FE0123E370E36CA6600BB19F
S214004E80E06D9847E368F61A63699E4221D2217E58
S214004E901A480131C9B2217616F086FEA36D13B109
S214004EA0217EE06D9847E5702CF042FF15B323791C
S214004EB003BBA268238A801A83421BD801231048AA
S214004EC0237116F071FE236DA3B1E06DBDE870404E
S214004ED0184701232376E6E70029E4D1094816F0AF
S214004EE063FE636DE660E5702571002BDBD0E06D38
S214004EF09847D8E770BD00BF70CC030081CC030094
S214004F00AFCC03009CCC030013B5C8B1C2B10129D5
S214004F1010D0022911D099B9C369283083B114047E
S214004F20B4FBF3F404600848009416F03DFE00203D
S214004F3002B010BD036A2C30F0E7436A3030EDE76C
S214004F404FF0FF30F4E700BFC5CC03000A46044923
S214004F500346086810B119462CF039BB704700BFED
S214004F606816002070B5044694F89D2094F89E308C
S214004F70D21A4032514201F03F0102F03F0258BFC0
S214004F804A42D2B2162A00D870BD03F03F0222442D
S214004F9092F85D20552A05D0013303F03F0384F8CC
S214004FA09E30E1E700205822191801F03F01214405
S214004FB091F85D1001300A441628D2B2F4D1D243DB
S214004FC003F1160101F03F01214491F85D10D2B2C1
S214004FD08A42E1D1012120462CF0BEFA0421054682
S214004FE020462CF0B9FA0A21064620462CF0B4FAE0
S214004FF0A26AC4E907655643E26A030248BF434211
S21400500002FB05F5226B48BF23F07F4002FB00F34E
S21400501003F500431B0C360C2D0C23816062A68022
S214005020E5802CF085FE237E33B90123237694F8A1
S2140050309E3060611733B0E742F210726369C31A9C
S2140050409342F2D82269B4F9081003FB01222261C8
S214005050064A23699342E8D3A3F55B13A3F53A53B4
S2140050602361E3680133E360F3E700BF80EE3600B8
S21400507010B5044601F0D0FC2046FFF773FF02216E
S214005080054801F0B5FC04F134004FF47A71BDE830
S21400509010402CF044BE00BF487004002DE9F843D1
S2140050A00D4616469846044610B3A8220021043042
S2140050B017F08CFE40F29D1240F20513C4E90A2355
S2140050C06923DFF8889023634246314628461A4B08
S2140050D025806680C9F8004001F026FC074660B1CE
S2140050E00023324629461548C9F8003016F05CFD04
S2140050F04FF0FF373846BDE8F8832CF019FE012341
S21400510084F85C300E4B6061C4E92834032384F8CD
S214005110A8300C4BC4E90D343434204601F0D6FBDD
S21400512020464FF47A712CF0FAFD43463246294663
S214005130054816F039FDDDE74D4F0000FECC0300B4
S2140051404C700400715000002BCD03006816002040
S21400515058B101B1816202B1C26203B10363816AD0
S214005160D0E90B23014816F01FBD70475CCD030045
S2140051702DE9F8430E4617461D460446002846D03D
S21400518092220021063017F021FE224A224B30469A
S214005190C4E9152343F273630022E36511462680B3
S2140051A06780A5802CF09FFD0022A071114638462E
S2140051B02CF099FD00224FF001081146E0712846B8
S2140051C02CF03CFD28462CF058FD84F83C802CF052
S2140051D0AFFD124B04F16009C4E91834206284F86C
S2140051E08980484601F072FB0D4B3A463146C4E9C9
S2140051F023340C482B4684F8948016F0D5FC484699
S21400520041F288312CF08BFD0020BDE8F8834FF08A
S214005210FF30FAE7305C020076CF0100EB160300A1
S2140052206870040081CD030060B1002914BF01231B
S214005230002380F88A30044B0449054818BF1946F5
S21400524016F0B2BC704700BFB5CD0300C7CD030053
S214005250D8CD030058B101B1416502B1826503B1F2
S214005260C365416DD0E91623014816F09DBC704712
S214005270F3CD030013B5C8B1C2B1012910D002297D
S21400528011D099B9836C543083B11404B4FBF3F491
S21400529004600848009416F087FC002002B010BD99
S2140052A0C36C5830F0E7036D5C30EDE74FF0FF302D
S2140052B0F4E700BF19CE030070B5044600F13C06C3
S2140052C080F83B1030460D462CF02EFD238F1BB188
S2140052D094F83A30AB4205D129462046BDE87040E6
S2140052E02CF080BA054B3046C4E90F3401F0EEFAD4
S2140052F03046BDE8704014212CF011BD0D18030097
S21400530070B51E46838804460D46C18002810BB1E7
S214005310868070BD3C302CF007FD94F83430BBB16D
S21400532094F83610002908BFFF2120462CF05AFAC0
S2140053300123E370074BA680C4E903340C342046EF
S21400534001F0C4FA29462046BDE870402CF0E7BCC0
S214005350FF21EAE77B18030058B1064B064A0749C7
S214005360C0E90023064BC0E902130023C0E904335A
S214005370836170471E009065C409102708523C00E0
S214005380600E803E10B501790446B1FA81F10088BE
S21400539049092CF0CFFB21796088B1FA81F14909DF
S2140053A02CF0C8FB034B1A68A24204BF00221A6006
S2140053B010BD00BF6C16002070B543790446A3B13B
S2140053C000880E4E04F10805336813B10C4B1B78A9
S2140053D06BB121792CF0AEFB64210A4B3460A360DC
S2140053E02846BDE870402CF09ABC4088E9E706489D
S2140053F016F0DAFB054B3221A360F1E76C160020AD
S214005400666100208553000056CE0300B9530000A5
S21400541010B50446E0B10F4816F0C6FB01236371D1
S214005420A37953B9217920882CF084FB236B7BB1B8
S214005430606B0121BDE8104018472046FFF7A2FF29
S21400544004F108002CF070FC2046FFF7B5FFEDE7EE
S21400545010BD00BF8CCE030010B50446F8B110484E
S21400546016F0A2FB00236371A3796BB9217920881B
S214005470B1FA81F149092CF05DFB236B7BB1606BBF
S2140054800021BDE8104018472046FFF77BFF04F1D7
S21400549008002CF049FC2046FFF78EFFEDE710BD14
S2140054A097CE030010B5044668B1074816F07CFB9B
S2140054B0637920461BB1BDE81040FFF7CDBFBDE8BD
S2140054C01040FFF7A5BF10BDA3CE030010B50E4CCD
S2140054D00E48214616F068FB82210D4816F064FB44
S2140054E082210220A21E01F0F5F8014630B134F800
S2140054F0022C0848BDE8104016F056BB0648BDE82A
S214005500104016F051BB00BFEA5B0020B2CE03008D
S214005510CDCE0300D8CE03001CCF030038B50E4C0A
S21400552082212246022001F0C5F8A51C014650B192
S21400553022880A4816F038FB44222846084917F005
S214005540D5FD4323238035F8021C064A0648BDE8ED
S214005550384016F029BB00BFE85B002027CF0300C9
S214005560A7CF0300EA5B002085CF0300034B1B7820
S2140055701BB18B4201D82CF0C8BB704701710020CC
S21400558010B5044601460E4816F00EFB012C11D14C
S2140055900C4B0D481A884FF6FF739A421EBF002226
S2140055A0094B5A742CF0FBF902F0FEFFBDE81040E0
S2140055B002F0A2BE0448BDE810402CF0F2B900BFCD
S2140055C0EBCF0300B4700020586B002070B50024A9
S2140055D01A4D1B4E3378A3421BDC0024194D1A4E7D
S2140055E03378A3421BDC0024184D194E3378A342AF
S2140055F01BDC01F061FB012816481CD12CF0CFF90A
S21400560002F0D2FF02F078FEBDE87040124801F0CA
S21400561073BB2846FFF704FC01346035DAE72846FA
S2140056202CF07AF901346435DAE728462CF087FA4C
S21400563001343835DAE72CF0B4F9E5E7D426002053
S2140056406C610020F42A00206D610020A424002054
S2140056506B610020586B0020815500002DE9F04F4B
S21400566089B0FFF75BFFAB4B07A807932CF0A5FAB2
S214005670054617F0A7FAA84CC2B21F2A627004D9D2
S214005680A64816F091FA00F053FE2946A01C17F023
S2140056902DFD07A82CF091FA054617F093FAC2B232
S2140056A01F2A84F8212001D99D48EAE7294604F1FB
S2140056B0220017F01BFD07A82CF07FFA3225824641
S2140056C000269AF80030002B40F00481954CFFF736
S2140056D07DFF2378944F0093944E954B3A781B7831
S2140056E03178944816F060FA934B1B7803930BB10D
S2140056F0337803938E483278397800785318034409
S214005700207800240344DFF86C920398254603446F
S2140057104846DBB2A24200F3E384012B38BF0123E4
S214005720864D04932A4600232C464FF482714FF68A
S214005730FF7804980133984213705180A2F80480D1
S21400574002F10C02F5DC7E4B7C497348A36001F045
S214005750FDFBE079A36800EB400003EB800000F05F
S214005760F3FFE3790133E371764C2388434503D096
S2140057707249754801F03CFD4FF6FF7322886F4969
S214005780D21A18BF0122714802F0DCFC4FF0000864
S214005790DFF8E0A16A4C3378434500F3AB846C4BEA
S2140057A01B785BB16B4B1B78012B07D163496A48AA
S2140057B002F03AF86149694802F0DAFA4FF0000858
S2140057C04FF00C0BDFF898A15C4D3A78424500F399
S2140057D0A6845F4B1B7823B11AB161495E482CF052
S2140057E029FD0C214FF000084FF0940B3B7896F8FB
S2140057F000A09A4401FB0A514D4B1878594A40457F
S21400580000F3AE840C214FF0000B96F800803B7836
S214005810DFF810A19844804401FB08519AF8002054
S214005820514B5A4500F3B384494B1B78ABB1DFF8B4
S21400583024B19BF8001001290FD94FF00C0801394C
S21400584008FB0151444801F0EFFF9BF80010434865
S214005850013908FB015102F08BFA33783A780621B9
S2140058601344334A0126127813449AF8002013444E
S2140058700C2202FB035500231846039A0C359A4265
S21400588009F1AC0900F39A8404992C48314D01F0D3
S2140058904DF92F4B40F2055240F6043128781E7819
S2140058A001F026F90022044640F20271287801F041
S2140058B01FF921460246304601F0C4FA079B1549F7
S2140058C01A468B4240F08D84284809B0BDE8F04F58
S2140058D016F06AB9532B11D19AF801304C2B40F0D0
S2140058E051819AF80230502B40F04C81204B012217
S2140058F01A7007A82CF061F98246E2E6322B3BD1FB
S2140059009AF80130452BF4D19AF80230502BF0D19A
S214005910094BECE7EA5B0020546A00200AD003003B
S21400592021D0030067610020696100206A610020C1
S21400593068610020E0D00300656100205C1A00204A
S214005940EC1A0020B4700020E81600207016002024
S2140059506461002000710020381700200810002025
S214005960D81F00201C1E0020CC1C002030D10300B5
S21400597066610020E8210020442B15D19AF80130FA
S214005980303B092BB5D80AF101002CF023F9B84BAF
S214005990B84A1978002385B2994202F16002A8DD60
S2140059A022F8465C0133F7E7422B0DD19AF8013016
S2140059B0542B43D10AF1020000F064FEAE4B18806F
S2140059C018462BF06AFD94E7582B1ED8412B90D929
S2140059D0A3F14302152A00F24B83DFE812F0D00150
S2140059E049031B0249034903490378004903490355
S2140059F05000210049034903490349031701D30016
S214005A0049034903490349037801692B7FF471AFC1
S214005A100AF101002CF0DEF880B22CF072F968E78B
S214005A20964B012019780023954A994202F1AC0260
S214005A307FF75FAF02F8AA0C0133F6E70AF1010020
S214005A4000F020FE04460AF103002CF03BF9012189
S214005A50024620462CF0F2F860218548854F0378F0
S214005A6059437A187C524FF4FA6111824FF4487108
S214005A7051618449013355831165037039E70AF192
S214005A80010000F0FFFD00224FF0640881467E4FC3
S214005A9011462CF0D3F87D4C3E780AF1030108FB42
S214005AA006F306FB0846304624F803902CF06BF805
S214005AB0304601262BF030FF00213B78744A03FB6A
S214005AC0084433441460516016743B7011E70AF1C1
S214005AD0010000F0D7FD00224FF0640881466A4CB2
S214005AE011462CF0ABF8694F23780AF1030108FB46
S214005AF003F203FB0878404627F802902CF043F8A0
S214005B0040462BF009FF634B634A93F800C01046EB
S214005B1000239C450ADD116D583239BB582202FB22
S214005B2003006423227802FB03730365544A0023B0
S214005B301046D2F8A410D9B9AC2202FB03006423A5
S214005B40227802FB0373C0F8A4305EB9504A33468D
S214005B50114652F8040B88B96422207800FB0272C2
S214005B6041F82320237801332370C2E60133D0E7BF
S214005B700133042B02F1AC02DBD1E6E70133042B40
S214005B80E7D1EFE70AF1010000F07CFD07460AF1D5
S214005B9003002CF097F80121024638462CF04EF808
S214005BA060213348334C0278DFF8D0C05143631885
S214005BB067524FF448711982596138495D83996577
S214005BC09AF80310AC27642904BF012199709CF849
S214005BD00030DFF8ACE05F430EEB07010EF807304D
S214005BE04FF400774F8003270F718F7102EB420747
S214005BF004EB47148C6032240133DBB201324B7164
S214005C0081F8A04002708CF8003072E60AF10100BC
S214005C1000F038FD00224FF0380B80464FF00109A7
S214005C201F4F11462CF00AF83B781E4C0BFB03F373
S214005C30E21824F8038082F804909AF80330692B5F
S214005C4032D1002313715822124913480B785A4355
S214005C5000EB020C835438780133C0EBC00204EB2F
S214005C60C204421CCCF84C403A700B7041E600BFB0
S214005C706C610020D4260020B47000206A610020E9
S214005C80E8210020711B03006D610020F42A00202B
S214005C90586B002069610020D81F00206D55000059
S214005CA06B610020A4240020002BCCD00AF1030056
S214005CB000F0E8FC0022804611462BF0BFFF3B7840
S214005CC00BFB0343A3F8028083F80690BBE70AF1B8
S214005CD0010000F0D7FC07460AF1030000F0D2FCF2
S214005CE004460AF105002BF0EDFF8046024601212E
S214005CF038462BF0A3FF4246204601212BF09EFF9C
S214005D006020DFF85CE3C74A9EF80030DFF8548373
S214005D1000FB03FC02EB0C0122F80C704FF4487CED
S214005D204D83A1F810C0C1F814C0C1F85880591CA2
S214005D30C9B24843145294241718A7F810C0C7F8DD
S214005D4014C07D83C7F85880B74F981C8EF80000A3
S214005D503878DFF814C3444303EB430301EB4101F7
S214005D600CEB040E02EB431302EB41120CF804009A
S214005D70CEF80430CEF8082001303870B9E50AF1C4
S214005D80010000F07FFC80460AF1030000F07AFC78
S214005D9000220746114640462BF050FF00223824CA
S214005DA0114638462BF04AFFA048A14A03784FF028
S214005DB0000E04FB03FC22F80C804FF0010802EBF7
S214005DC00C0181F806E081F8048003EB0801C9B2F3
S214005DD04C4302EB040C17539C1C04707024954F24
S214005DE08CF806E038788CF804804443DFF87CC2F0
S214005DF0C3EBC303C1EBC1010CEB040E02EBC30300
S214005E0002EBC1020CF80400CEF80430CEF80820ED
S214005E104044B2E79AF80130502B40F08580514656
S214005E20854815F0C1FE0AF1020000F02BFC07467B
S214005E300AF1040000F026FC80460AF1060000F095
S214005E4021FC4FF6FF739F4281463FF452AD9845C2
S214005E503FF44FAD98423FF44CAD034642463946B8
S214005E607648FFF785F900287FF443AD0AF1080469
S214005E705621049020462BF07DFE412103902046BB
S214005E802BF078FE5721834620462BF073FE4921DF
S214005E90824620462BF06EFE01786848A1F1490341
S214005EA059425941FFF7C0F9039A049B11785629C5
S214005EB033D1501C2BF08EFE04469BF80030412B4D
S214005EC02DD10BF101002BF085FE83469AF80030A9
S214005ED0572B27D10AF101002BF07CFE03465A46C9
S214005EE021465648FFF7B6F954482BF072FC544C3E
S214005EF001462060534801F04DFC216852482CF0C2
S214005F001BFA0123514A39461370514A51481370FF
S214005F104B46424615F048FEEBE41C46CDE74FF0F4
S214005F20000BD3E70023DAE7422B7FF4E2AC5146BE
S214005F30414815F039FE0AF1020000F0A3FB0746BF
S214005F400AF1040000F09EFB4FF6FF739F42804666
S214005F503FF4CFAC98423FF4CCAC0AF1060A53218A
S214005F6050462BF007FE03788B4253D101302BF0BE
S214005F7031FE0346424639463748FFF78FF8044657
S214005F8000287FF4B6AC562150462BF0F3FD412195
S214005F90834650462BF0EEFD5721814650462BF0A7
S214005FA0E9FD9BF800308246562B04D10BF1010028
S214005FB02BF010FE044699F80030412B2DD109F144
S214005FC001002BF007FE81469AF80030572B27D1A8
S214005FD00AF101002BF0FEFD03464A4621461E4804
S214005FE0FFF7B6F81C482BF00CFB154C014620605A
S214005FF0144801F0CFFB216813482CF09DF90123CB
S214006000124A39461370124A14481370424615F065
S214006010CBFD6EE44FF49653ACE74FF00009D3E7A0
S2140060200023DAE7D4260020686100206B61002098
S214006030A42400206761002031D00300C41900208A
S2140060401419002038170020081000206461002072
S214006050007100205FD00300181900208ED00300C6
S2140060606C6100206D5500001C1E0020CC1C00201A
S2140060704F2B7FF43EAC9AF801304C2B7FF439ACB2
S2140060805D4B1B78002B3FF434AC0AF1020A432127
S21400609050462BF06FFD8046502150462BF06AFD8F
S2140060A098F800300746432B16D108F101002BF074
S2140060B091FD84B23B78502B10D1781C2BF08AFDD2
S2140060C082B221464D482BF084FC4D4B4D48B3F828
S2140060D06A20B3F85E109AE70024EBE70022F0E7A8
S2140060E090F805C001348C4584BF05714571AC300D
S2140060F0FFF710BBB8F1000F06D015F8053C03EB10
S214006100430304EB8304AC602946504602F04AFC85
S21400611008F101080AF1AC0A0C35FFF73CBB3178F0
S21400612011EB08010AD04A1E0BFB0252D27902EB91
S214006130420204EB82040BFB0152946050460BFBB8
S214006140015102F095F931782F4841440BFB01517B
S21400615001F0D0FD08F101080AF1580AFFF735BB37
S21400616018EB0A0F18BF11F8050C05911EBF00EBBF
S214006170400004EB80048C600BFB082001F0FCF967
S2140061800599224B08F101080C31FFF736BB702049
S2140061901BEB080F18BF11F8052C00FB0B301EBFB9
S2140061A002EB420204EB82048C60059101F0BAF81F
S2140061B005990BF1010B0C31FFF730BB15F8112CCC
S2140061C005F8056C02EB420204EB820415F80C2C71
S2140061D0C4E9001045F8044C09F8042C0133FFF715
S2140061E04CBB13F8011D00297FF469AB3B2102F874
S2140061F0011CFFF764BB00BF6461002094170020F9
S21400620038170020B2D003009824002068610020D0
S21400621008B5094B1B786BB108482CF00EF80748F8
S2140062202CF089F8064801F02FFEBDE80840044827
S2140062302CF094B808BD00BF646100203817002019
S2140062400810002008B5064B1B783BB105482BF01C
S214006250C8FABDE8084004482BF0EFBF08BD00BFF1
S21400626064610020C41900203817002007B50121FA
S21400627021200DF1070200F01DFA18B99DF807203D
S214006280024B1A7003B05DF804FB00BF01710020DA
S21400629007B5064B8DF80700187001210DF10702AF
S2140062A0212000F017FA03B05DF804FB017100200E
S2140062B007B5022101200DF1060200F0FBF938B9FE
S2140062C0044815F071FCBDF8060003B05DF804FB49
S2140062D00020FAE74DD1030007B50221ADF806000D
S2140062E00DF10602012000F0F5F9014610B1034851
S2140062F015F05AFC03B05DF804FB00BF6ED1030036
S21400630010B5FFF7D5FF04460146074815F04CFCCC
S2140063100121064815F048FC24B9BDE810400120CC
S214006320FFF7DABF10BD00BF9ED10300B0D1030057
S21400633008B5044815F038FC00F0DCF92BF0E5FC55
S2140063402BF0E0FCC6D1030038B50446084D094BD7
S21400635028462B6000F0BAFA002C18BF21462846C3
S214006360BDE8384008BF4FF496712BF0D8BC00BF8C
S214006370E82C0020F31B03002DE9F043384D91B0C4
S21400638008AC0746894690460FCD0FC495E80F0027
S214006390002684E80F0001250323324C3248CDE95D
S2140063A00366CDE905668DF80E300796029536F041
S2140063B0DBF92E4836F0D8F932462D4920468DF8BE
S2140063C0176005F017FC334632462A498DF8190047
S2140063D0009020468DF82390CDF82C808DF8216013
S2140063E005F022FC0A9020468DF8097005F084FB23
S2140063F0204608AA05A905F03DFC02AA204603A9E6
S2140064002CF0DBFE4FF400721B4B5A62194BE56012
S214006410626A920510D46BB94FF40072164B11489D
S2140064205A6205F069FB114836F0A1F9002011B058
S214006430BDE8F083013BEBE7002BEDD0094908A847
S2140064402CF0EEFE4FF400720B4B06485A6205F035
S21400645053FB064836F08BF9BDF82000E7E700BF8F
S214006460847004000040005A38730400347304003B
S21400647080841E0040420F000060005A0122034B39
S2140064801870034B1980034B1A7070476F61002019
S214006490BC7000206E610020F8B5454B1B780BB928
S2140064A00020F8BD434B1B78012B03D1BDE8F84014
S2140064B02BF0A2BB404B1C884FF6FF739C42EFD0DC
S2140064C03E4836F051F90023260AE4B21A46214621
S2140064D0304605F0D1FA012E354604F0010335D0DA
S2140064E015D9B51E012DDBD8002B0BBF4FF48075D8
S2140064F04FF080754FF470614FF070610BBF01274D
S2140065004FF480370F204FF470202D4B11E0002BF6
S2140065100BBF4FF480754FF080754FF470614FF0ED
S21400652070610BBF01274FF480370F204FF47020A7
S214006530244B1A6802401CD0BA421AD01A680A4085
S21400654032D11A6822EA01022A4316E0002B0BBF5A
S2140065504FF480754FF080754FF470614FF07061A6
S2140065600BBF01274FF480370F204FF47020164BD7
S214006570DFE71A6822EA00023A431A602BF03CFB77
S214006580054600288CD0083644EA06102A46032121
S214006590C0B2FFF7F1FE40F6FF73684300F2FF70EB
S2140065A0B0FBF3F080B27CE795427FF479AFC8E7A2
S2140065B06E6100206F610020BC70002038730400FC
S2140065C028C3035020C3035024C3035010B5044C03
S2140065D0237823B9034836F0C7F80123237010BD8B
S2140065E071610020387304002DE9F0431F4C85B01C
S2140065F0074688469146FFF7E9FF23781BB902F065
S214006600EBFE012323707BBAADF80C30302200235A
S214006610174E02FB03F4315DA51901BB0123335568
S2140066204FF0FF3304F1100012493044AB606F8026
S214006630C5F80480C5F80C900AF086FA04F1080143
S214006640042231440C4B009503A802F09BFFA96876
S21400665002460A4815F0A8FA05B0BDE8F0830133F3
S214006660102BD6D1064815F09FFAF5E7706100208A
S214006670102D00201D1C03002F1C0300D3D1030087
S21400668001D2030080B10278A2F14103032B0BD89C
S21400669040783038C0B2082806D8054B134413F8A3
S2140066A0413C40EA032070474FF6FF70704700BF3A
S2140066B0A470040008B50B4642B1014604480068C1
S2140066C004F0A4F8BDE808402BF015BB022008BD76
S2140066D0C46B002008B50B4642B10146044800686A
S2140066E004F01CFABDE808402BF005BB022008BDEC
S2140066F0C46B0020F0B50026124F8DB0FF23009328
S2140067000A223346386802A92CF014FBC0B102AB4B
S2140067101D4603EB800404E055F8043BB34228BF53
S2140067205E1CAC423868E9D9296804F07DFB002875
S214006730F2D02D28F0D00DB0BDE8F0402BF0DBBA3B
S2140067400DB0F0BDC46B002028B1034B0360034BB3
S2140067504360002383607047190000036C6B0020C1
S2140067602DE9F04F00230746DFF828818B4698F87E
S2140067700020424985B022FA03F0C00708D531F858
S2140067801300B84204D15DB2284605B0BDE8F08FCC
S2140067900133032BEFD112F0010667D1384C75B2E6
S2140067A094F80090B9F1000F21D10F2249460DF15F
S2140067B0010016F00BFB3F238DF80090DFF8C89021
S2140067C069464846ADF802302CF069FD1E2004F0FC
S2140067D0C3FE4FF47A43B0FBF3F02A4B1860D9F8A7
S2140067E030300123C9F81C00C9F80C3023700D2284
S2140067F00021684616F0EAFABBF1000B18BF4FF00E
S214006800010B0323204C6A46314620468DF806309D
S2140068108DF80AB02CF080FD236B00234FF0010AA0
S21400682004EB461083664FEA1729184BF9B249EA7B
S214006830014032B243F82200154A0AFA06FAD2F8A4
S2140068404C35484643EA0A03C2F84C355B460422F8
S21400685005F012F998F8003043EA0A0388F8003089
S214006860064B23F816708FE7022697E7910795D513
S2140068705307F9D54FF0FF3586E700BF6A5C002066
S214006880736100201030002000C0045050C5035033
S21400689000C0035072610020022810D8084B1B78F5
S2140068A0C340DB070BD5074B1B6803FB0111FF2317
S2140068B0B1FBF3F1044B1A6B03EB401319677047F7
S2140068C0726100201030002000C00450FF2307B57E
S2140068D00021044A009308300AF0BAF803B05DF8C5
S2140068E004FB00BF191D03007FB50D4E0D4C336829
S2140068F06A4600211046A5692D0606D411F0FF0150
S21400690001D003B1984704B070BD656A0131102903
S21400691002F8015BEFD1002BEAD09847E7E700BF0B
S21400692014300020008005502DE9F0478A46914635
S21400693088B0002A4DD04FF6FF72904249D091425F
S21400694047D0254A5FFA80F8070A38460E0A1360D1
S2140069504146012304225FFA8AFA204D05F08CF89E
S21400696001AC304601230222514605F085F80FCDD2
S2140069700FC495E8070084E80700002401A918481A
S214006980CDF80C908DF8044005F042FC1022154B13
S21400699047EA084746EA0A46C3F8C475C3F8BC6522
S2140069A0C3F8AC250423104A0B209364A2F580524A
S2140069B0D36406F055FF0B2006F036FF0848052185
S2140069C02CF0E7FC01222046084B1A7008B0BDE800
S2140069D0F0874FF0FF30F9E714300020A87004006D
S2140069E00080055000C0035000A0055074610020D0
S2140069F070B5074B04461B784BB141B1054E4518A0
S214006A0014F8011B30462CF0D3FCAC42F8D170BD14
S214006A10746100200080055010B5074B1B784BB101
S214006A2035F004FE0446FFF75FFF2046BDE8104041
S214006A3035F0F7BD10BD00BF746100200B46044959
S214006A40024608680349097808B12BF08EB97047EA
S214006A502430002076610020F7B50C4618B12F21AF
S214006A60194835F0D8FE246823685E795F8830467A
S214006A703946FFF7E3FFF0B18568E5B1A089227DCE
S214006A803946904291BF0020801AA36880B294BF16
S214006A9003469B18E27C00903046A847013803283E
S214006AA003D8DFE800F0080F0B0D002420462FF077
S214006AB008FD204600E0812003B0F0BD8024F5E705
S214006AC09324F3E78724F1E729D2030007B50B46A2
S214006AD00092054902460548097800682BF067F9D8
S214006AE003B05DF804FB00BF766100202430002070
S214006AF007B50B4600920649024606480978006824
S214006B002BF055F9003818BF012003B05DF804FBE0
S214006B10766100202430002008B5034B1B6803B1C3
S214006B209847002008BD00BF203000202DE9F74F11
S214006B3004460D460026454B454F1860454B1970D8
S214006B4033010021F85C013611F052F80C2EF7D113
S214006B500C2D28BF0C254FF0000901953C4EDFF8A0
S214006B6000A13D4DDFF8FC80019B4B4502DC03B0E5
S214006B70BDE8F08F23784FF0000B33706388738086
S214006B80A388B380A379C6F80880B371E379C8F800
S214006B90005088F804304FF00003A768A8F80630C5
S214006BA0E3795B450ADC012116F8100B11F020F89A
S214006BB008F1080809F101090C34D5E74FF0000385
S214006BC038886B812880FB784FF0000C2B81BA78D0
S214006BD0C5F804A0002A00920CBF802240222A7327
S214006BE079680AF10C02634513DC03EB43030AEBF6
S214006BF0830ABB6843B1009A4FF6FF71B2FA82F27D
S214006C00164B52092FF0EDFB14350BF1010B0C3728
S214006C10C6E7B1F800E00CF1010C22F80CEC91F894
S214006C2002E00C3202F816EC91F804E00C3102F89F
S214006C3015EC11F809ECBEF1010F14BF4FF0100E61
S214006C404FF0110E02F814ECCDE700BF2430002000
S214006C50884700207661002028360020596A000008
S214006C6028300020A8380020014B1860704700BF6D
S214006C701C300020014B1860704700BF20300020F9
S214006C8070B5128805460E46FFF720FF044670B121
S214006C9002790499806816F0EBF8064B1B680BB96E
S214006CA0002070BD3146284622889847F8E786209F
S214006CB0F7E700BF1C30002008B510F035F80228B2
S214006CC006D0012806D0044B18784000C0B208BD94
S214006CD00120FCE70220FAE775610020054B10B59D
S214006CE01C682CB1FFF7E8FF2346BDE810401847A4
S214006CF010BD00BF18300020014B1860704700BF61
S214006D0018300020034B1A781AB901221A700CF0BA
S214006D106BB87047756100200022024B1A70FFF7AF
S214006D20DDBF00BF7561002037B50446002832D0AD
S214006D300FF0FAFF022830D160892FF024FFE079A7
S214006D40237A003818BF0120012B637A08BF40F071
S214006D5008000BB140F0100063890BB140F004004E
S214006D60257CA188A2790DB1E36873B90C4B11F0AC
S214006D701BFB2178084611F093FB2FF02DFA002814
S214006D8014BF0320002003B030BDCDE90035054B0D
S214006D9011F00AFBEDE70220F5E70120F3E700BF5C
S214006DA042250400B7F403002DE9F04186B00546FD
S214006DB00E4690461F469DF834400FF0B5FF022859
S214006DC024D1082C16D8ADF80C808DF80E702CB196
S214006DD022460C990DF10F0016F088F903AB033428
S214006DE000930A2231460820094B019411F0DCFA80
S214006DF018B1032006B0BDE8F0812946284611F0F8
S214006E004FFB2FF0E9F90028F4D0F2E70120F1E774
S214006E10B7F4030008B50EF045F9014630B1044852
S214006E2014F0C2FEBDE808400EF0E0BC08BD00BF8E
S214006E30B7D20300024B187C00B11868704700BF39
S214006E40586B002050B100290CBF30213121002A98
S214006E500CBF30223122034814F0A6BE2D210A466C
S214006E60F9E700BFE4D20300034B044A5B7C012130
S214006E7003201370FFF72EBC586B002077610020AC
S214006E8037B50446FFF7F0FFB4F57F4F27D100254E
S214006E90204B1A8813449D70FEF718FB2846FFF710
S214006EA053FA1D4D2A68C2B1FFF7C4FFA8B14FF6CA
S214006EB005739C4224D192F841102AF04CFD2B68B1
S214006EC00421B3F8422093F841303220ADF8062072
S214006ED001AA8DF80430FFF7FDFB03B030BD4FF676
S214006EE001739C4203D10D482AF041FDD9E74FF6C5
S214006EF002739C42D5D10A4B1878FFF7C9F9D0E740
S214006F004FF606739C42E8D1B2F842102AF02DFDE7
S214006F10D5E700BFE85B002008390020586B00204A
S214006F200171002010B5074C012122460320FFF70F
S214006F30C1FB28B92378044A003B18BF01235374C9
S214006F4010BD00BF77610020586B00207B4BF7B563
S214006F501A884FF6FF739A4218BF03234FF00802B1
S214006F6004464FF030000D4675494FF0320718BF03
S214006F700B70744B1A7036229870587137201A713D
S214006F801A724FF4001298716F486264E0646F489A
S214006F90012220656E48A618A0656E48E667E06583
S214006FA06D486E4E60666E485F70A0666D48DF7016
S214006FB020676D48DF716067202084F8780084F8C9
S214006FC0840004F12100C4F888006848C4F8806092
S214006FD084F8482084F8542084F8602084F86C20D4
S214006FE0C4F88C0084F89020C4F89410C4F8B83024
S214006FF05F4B6049C4F8BC300223C4F898105E4961
S21400700084F8C030C4F8A41010215C4B84F8A81093
S214007010C4F8C4305A4B5B49C4F8C8308223C4F85D
S214007020AC10594984F8CC30C4F8B0100921574B3D
S214007030574EC4F8D030574B84F89C20C4F8D43050
S214007040554BC4F8A040C4F8DC30337C84F8B41048
S21400705084F8D820002B6AD0504B84F8E420C4F87B
S214007060E03006F11103C4F8E830FFF7E3FE90F8CD
S2140070703430002B5DD090F83630042184F841304F
S214007080FFF7D8FE038F01AA3846A4F84230FFF770
S21400709011FB38B99DF8043084F84130BDF806304D
S2140070A0A4F84230FFF7C6FE94F841102AF053FCCD
S2140070B0FFF7C0FEB4F842102AF057FC384B1021F8
S2140070C01C60384BC4F8EC30012384F8F03004F12F
S2140070D04103C4F8F430344BC4F8F830022384F883
S2140070E0FC3004F14203C4F800314FF0000CEA799A
S2140070F0A86802EB42039F0000EB830320F807C05A
S214007100D9700121443499705C605318EB71FFF715
S214007110ADF8FFF707FFFFF7CFFD01280BD1337C53
S2140071204BB11B4803B0BDE8F0402AF020BC0D214F
S214007130DBE70E21D9E703B0F0BD00BFB470002036
S2140071401271002078610020C97004000100200040
S214007150C870040002002000C7700400050042004A
S21400716003002000C6700400040042000700300040
S214007170FDFF21001200100100404200C470040010
S21400718000FF44010271002006004200E85B002078
S214007190586B002002FF20010171002001FF100142
S2140071A00839002005FF200106FF210113B504461B
S2140071B00D482AF07DF96422C0F30F43637083B252
S2140071C0B3FBF2F3A0782370202201212AF00AFEF6
S2140071D0A078212201212AF005FE0449201D02B0D4
S2140071E0BDE810402AF09BBDB4700020E093040078
S2140071F00B7870B583704CF61E0303804FF0201397
S214007200C362012380F8303080F83C30C318036432
S214007210124B044643640223114A80F84830114B4F
S2140072208263C3644063CA798D6802EB420305EB50
S214007230830004F12C0646600B4E45F823600023BD
S2140072408360531CCB71094B201DC4E90134FFF742
S2140072503DFB2046BDE87040FFF7A8BFFDFF2100BC
S21400726021002000CA70040001000103AD71000077
S214007270437B044A0121137000781130C0B2FFF737
S21400728029BA00BF8261002038B504460078054D53
S21400729011302A460121C0B2FFF70CFA08B92B7844
S2140072A0637338BD82610020024B53F820002AF039
S2140072B074BE00BF0C390020012908B506D002298B
S2140072C007D049B92AF060FE002008BD2AF05FFE0C
S2140072D0FAE72AF05FFEF7E7024814F065FC0120A3
S2140072E0F3E700BFFBD2030010B4054C114654F878
S2140072F020001A46BDF804305DF8044BFFF7DCBFEB
S2140073000C390020002310B5044683810364A0F8DE
S21400731044304830FFF7DAFA014BC4E9123410BDA6
S214007320811F030038B504460B781A4A43700D4691
S21400733042F82300FFF7E6FF2046FFF7A5FF4FF4CD
S214007340401323610123144A2375A261134A84F86B
S2140073502030E261124A84F82C306262114A84F8C6
S2140073603830A26204F10C0222630F4A04F10D03C6
S2140073706263E363EA79A86802EB420300EB8301E9
S21400738010344C60094C40F82340094B8B60531C6A
S214007390EB7138BD0C390020816100200800200008
S2140073A01371002000FF300001FF100102010104EC
S2140073B0E972000010B47024427B0D48013A01299E
S2140073C004FB020006D0022908D059B95DF8044B28
S2140073D02AF0DABD5DF8044B2AF0D9BD5DF8044BFF
S2140073E02AF0D8BD03485DF8044B14F0DDBB00BF9F
S2140073F0CC1C002017D30300B0F85C302DE9F04118
S2140074008B4204460E4638D0437B077C8BB31C4A1F
S21400741012789A422DD370251A4A013B05FB0323A6
S21400742090F80F801B7B42462AF0C5FDB8450546FE
S21400743001D1FF281FD13A463146204694F89030B5
S2140074402AF0B9FD2F460546552212216078A4F889
S2140074505C602AF0C7FCFF2F03D039462046FFF7B2
S214007460A9FFFF2D09D029462046BDE8F0412AF0A5
S214007470E2BDFF25DFE70746E6E7BDE8F08100BF8F
S21400748067610020CC1C002041688268C978D278E9
S21400749049B112B10321FFF7AFBF837B002B0CBFAE
S2140074A001210221F7E72AB1837B002B0CBF0221C2
S2140074B00121F0E7014814F077BB00BF28D3030092
S2140074C0037BD3B14368DA7812B18268D278A2B966
S2140074D01B7933B1837B002B0CBF04210521FFF7FA
S2140074E08BBF83681B792BB1837B002B0CBF0521D8
S2140074F00421F4E7014814F057BB70475AD3030041
S214007500084A437B05211370837B5370C37B9370BB
S214007510037CD370037B137100780E30C0B2FFF784
S214007520D9B800BF8361002038B5044600780C4DFA
S2140075300E302A460521C0B2FFF7BCF820B1BDE8E0
S2140075403840084814F030BB2B7863736B78A3730D
S214007550AB78E373EB7823742B79237338BD00BFC5
S2140075608361002096D30300024B53F820002AF0D4
S214007570ACBD00BF3C390020F8B504460B78424A43
S21400758043700D4642F82300404E2AF0BCFDFFF73C
S214007590CBFF6268A3683E483E49D6641165D46551
S2140075A05065C3E91410DE64DC654FF0987302265C
S2140075B06361012304F10C01E16137491032216255
S2140075C004F10D01A16235492376E16204F10E0152
S2140075D06163334984F82430A16304F10F01216408
S2140075E0304984F83030616404F11001E1642E49BA
S2140075F084F83C3084F84830216584F85460A265ED
S214007600E879A96800EB400201EB820704F1140C4C
S214007610C7F804C04FF4817C244F41F82270C2188A
S214007620D2B202EB420241F822C001EB82070022EE
S2140076307A601F4A84F8703022661E4A84F88830C2
S214007640A2661D4A1D4BE2661D4AC4F88C3062676E
S2140076501C4A8319A26704F15C02C4F88020DBB2DE
S214007660194A03EB4303C4F8842084F8646084F862
S2140076707C6001EB830260345460144A033041F8A6
S2140076802320E871F8BD00BF3C3900208974000053
S2140076908D200300C17400000100200102001001CB
S2140076A003003001040030010500210101FC010641
S2140076B04A002100CC70040051001000CE70040077
S2140076C0CF700400550021006F001800120001045E
S2140076D000B589B001A92AF030FD084B10210493AB
S2140076E0019B04AA0593029B2C200693039B0793F9
S2140076F0FEF7F0FF09B05DF804FB00BF43574C48A7
S214007700F0B54843DDE90576204C214D82EAE2716A
S214007710A1EBE271A042B0FBF5F589B225D9642051
S21400772012FB00F26FF0630092FBF5F28242B8BFE4
S2140077300246642AA8BF642252B205FB05F44943F8
S214007740A14221D24FF08040641A84420FD3002118
S21400775078B947F6FF70814228BF014603B11D8005
S21400776007B1398006B13270F0BD0022E5E7800827
S214007770EBE701EB000CA4454FEA51019CBF09184A
S214007780A4EB0C048008E3E70021E7E79F860100EE
S214007790A086010038B50D46044600B3F9B14FF493
S2140077A0EE72002115F012FB0F23A3600C4B6560F0
S2140077B0A36103F16173E3614FF0011304F15C0010
S2140077C02362FDF7C9FDE36DE367236EC4F88030DE
S2140077D0636EC4F8843094F86C3084F8883038BD12
S2140077E0010064001FB50446B8B14368ABB16A46F1
S2140077F010212C20FEF75EFF78B9094B009A9A42BA
S2140078000BD1DDE90223019960682AF09EFCDDE9D0
S21400781002230199034814F0C7F904B010BD00BF55
S21400782043574C48C5D30300F0B5044685B000283E
S21400783000F03081002900F02D814FF4D813C0F8F5
S2140078408C3000F10803C0F89430934B0422C0F843
S2140078509830022300F10C05C0F8A0508F4D80F838
S2140078609020C0F8A45000F10E05C0F8AC508C4D26
S21400787080F89C30C0F8B05000F11005C0F8B85041
S214007880884D80F8A830C0F8BC5000F11805C0F844
S214007890C450854D80F8B430C0F8C85000F11A05C1
S2140078A0C0F8D050814D80F8C030C0F8D45000F1F8
S2140078B01C05C0F8DC507E4D80F8CC30C0F8E05097
S2140078C000F11E05C0F8E8507A4D80F8D830C0F8B0
S2140078D0EC5000F12005C0F8F450774D80F8E43005
S2140078E0C0F8F85000F12205C0F80051734D80F83A
S2140078F0F030C0F8045100F1240580F8FC3080F820
S2140079000821C0F80C516E4D80F81421C0F81051B3
S21400791000F12C05C0F824516A4D00F12802C0F889
S214007920285100F12E05C0F83051674DC0F81821D7
S214007930C0F8345100F13005C0F83C51634D644A3C
S214007940C0F8405100F13205C0F84851614DC0F80A
S2140079501C21C0F84C512525012280F8505100F119
S2140079603405C0F854515C4D80F82021C0F85851B9
S21400797000F17C05C0F86051584D80F82C31C0F8F5
S214007980645100F17E05C0F86C51554D80F83831D1
S214007990C0F8705100F18005C0F87851514D80F85C
S2140079A04431C0F87C5100F18205C0F884514E4D38
S2140079B080F85C31C0F8885100F1840580F86831A1
S2140079C080F8743180F8803180F88C31C0F890519E
S2140079D0464D80F89831C0F8945100F18605C0F8FD
S2140079E09C51434D80F8B031C0F8A05100F1880595
S2140079F0C0F8A8513F4D80F8BC3100F11403C0F820
S214007A00AC51C0F8C03100F112053B4BC0F8B45180
S214007A103A4DC0F8C43100F1160380F8A421C0F82E
S214007A20B85180F8C821C0F8CC31CA798D6802EB0D
S214007A30420305EB830600F18C077760304E45F86D
S214007A4023606E46531CCB710B7804F15C05037003
S214007A502C4B1860FFF7C6FE20462AF0ABFB3246DA
S214007A6010213320A76EFEF725FE18B996E80F0002
S214007A7085E80F002846A7662AF0C4FBE36DE36797
S214007A80236EC4F88030636EC4F8843094F86C308B
S214007A9084F8883005B0F0BD0505210008052100F2
S214007AA00B05290000062100010621000206210020
S214007AB003062100040621000506210000FF23001E
S214007AC001FF230010FF210111FF210112FF2101F8
S214007AD002FF200020FF420130FF210131FF21017B
S214007AE032FF210133FF210134FF210135FF21013F
S214007AF036FF30000F052100100528000E0529006E
S214007B00040B011B6C3900202DE9FF414C4B1C680F
S214007B108CB1237883420ED1606860B14FF6127341
S214007B20994241D00AD84FF6107399422CD04FF69E
S214007B301173994231D004B0BDE8F0814FF620733E
S214007B40994238D0D03189B20529F4D8E36F04F1D0
S214007B505C00E365D4F880302366D4F8843063662E
S214007B602AF050FB024610213320FEF7B3FDE36DEA
S214007B70E367236EC4F88030636EC4F8843094F8EC
S214007B806C3084F88830D6E70021E28D2AF0CBFAF4
S214007B900023E3850028CED121E00121228E2AF0A1
S214007BA0C2FA00232386F5E70221628E2AF0BBFA8A
S214007BB000236386EEE7002394F834504FF00A0C57
S214007BC0232D28BF2325CDE9013304F13507039380
S214007BD09D420DD8DDE9022301992AF0B6FA6068C5
S214007BE0FFF776FD204604B0BDE8F0412AF0E2BA81
S214007BF0FA5C562A14D0572A14D0412A0DD10121F6
S214007C0000220133DEB2F3B29D420DD804AE013B32
S214007C1006EB8101DBB241F80C2C0133DBB2D7E76F
S214007C200021EDE70221EBE717F806E00136AEF19A
S214007C303008B8F1090FE9D80CFB02E2303AE2E767
S214007C406C39002070B50D460646144613460A46A3
S214007C500146244813F0A8FF25B92046BDE8704029
S214007C60FFF70EB9072D05D121463046BDE8704016
S214007C7000F05CBE4FF601439D4205D121463046DA
S214007C80BDE87040FFF770BC062D05D12146304692
S214007C90BDE8704000F0A6BBB5F5817F05D1214652
S214007CA03046BDE87040FFF7FFBA40F202739D42CF
S214007CB005D121463046BDE8704000F037B940F6A1
S214007CC004339D4205D121463046BDE87040FFF79B
S214007CD01BBF202D04D12046BDE8704000F0FEB941
S214007CE070BD00BFF5D303000148FEF7BDBF00BF5F
S214007CF0457C00004FF4C01330B5036001230371C8
S214007D00074B8C688360CA7902EB420304EB830559
S214007D106860044844F82300531CCB7130BD00BF94
S214007D20D07004000400010113B5044680B1007849
S214007D306A4627300821C0B2FEF7BCFC50B9DDE920
S214007D4000230948C4E90223C4E9242313F02CFFC6
S214007D5002B010BD002200230448C4E90223C4E98F
S214007D60242313F021FFF3E728D4030053D40300A1
S214007D7070B50D460446002858D0002956D00B781A
S214007D8004F1200603702A4B1860FFF7CDFF4FF46E
S214007D9014132362082304F110026263254A84F850
S214007DA02430A26304F111022264234AE3186264B9
S214007DB00422A362214B84F84820E362012384F85E
S214007DC0542004F11802A2651D4A04F11401E2656C
S214007DD004F11C0262661B4AE164A26604F11D02FD
S214007DE022671949194A84F8303084F83C3084F800
S214007DF0603084F86C3084F8783004F11E03216516
S214007E006267E367EA79A96802EB420301EB830045
S214007E1046600F4841F82300531CEB712978D4E9DB
S214007E2002230C48BDE8704013F0BEBE70BD00BF14
S214007E307039002000033000010322000002180001
S214007E4003031800060318000203220000F02001B6
S214007E500207010881D4030013B5044678B1D0E9BF
S214007E6002230078CDE9002327306A460821C0B2F5
S214007E70FEF730FCD4E90223024813F095FE02B068
S214007E8010BD00BFB2D4030030B5044689B040B37D
S214007E90436833B31A6822B1126812B1586801A950
S214007EA090479DF81030E3B10399D4F880208A42B9
S214007EB007D8D4E902308A1A9B1840F10000C4E9BA
S214007EC00230C4F8801029F033FFD4F88430064A14
S214007ED0C31A9342054604D92046FFF7BDFFC4F8EF
S214007EE0845009B030BD00BFDF93040010B50446CF
S214007EF0C0B1002300220021C0E90223C0E92423E8
S214007F004368C0F880102BB11A681AB152680AB1DB
S214007F10586890472046FFF79FFFBDE8104002488C
S214007F2013F042BE10BD00BFDAD40300B1F5704FA7
S214007F30034607D1044A106820B102789A4201D15C
S214007F40FFF7D4BF704700BF703900200368064AA9
S214007F500C211360436853600389138143892220F0
S214007F605381FEF7B7BB00BF7439002010B5036815
S214007F70044686B0FBB1114813F016FEA37B104AE8
S214007F808DF804304FF48273ADF806300123CDE946
S214007F900223002301A804938DF81430FEF7C4FED4
S214007FA0204661892AF0DBF92046FA2150F8143B76
S214007FB0594329F0B4FE06B010BD00BFFBD4030041
S214007FC02000000110B5064C236843B1054813F0A5
S214007FD0EBFD2068BDE8104041892AF0C0B910BD0D
S214007FE0803900201CD5030070B5364910460C6851
S214007FF0BDF81020002C5ED003285CD8DFE800F027
S214008000021E2745002B5AD0022A58D91D78B3F8ED
S2140080100160291E18BF012132462B4813F0C4FD0B
S2140080202DB1314620462AF09AF9002070BDE5733E
S214008030FA206368584329F016FFF6E7234813F042
S214008040B3FDE37B002B38D00023E373F0E7002B6F
S21400805035D0032A33D91D681D48294613F0A4FDE0
S2140080601C4B2A1F9A4201D90220DFE723680BB176
S2140080709D42F9D823899D42F6D3E37B6560B3B968
S214008080FA20684329F0EFFE11E0002BCED0012A3B
S214008090CCD91D881048294613F086FD002DE3D064
S2140080A063689D42E0D8E37B2581002BE8D120461B
S2140080B0FFF74CFFB9E70120B8E70420B6E7032036
S2140080C0B4E700BF803900203FD5030076D5030013
S2140080D095D50300FCFF6D00C0D5030038B5154BE1
S2140080E01C6834B3F0B92168134813F05DFD2368AB
S2140080F03BB16268934204D2104813F055FD6368A2
S214008100236004F11405284629F00EFE236823B1E7
S214008110FA212846594329F002FE2046BDE8384099
S214008120FFF714BF032804D16189054813F03CFD0E
S214008130F3E738BD80390020EBD5030019D60300DD
S2140081404ED6030070B53E4B0D46044609781860BF
S214008150002A6FD101231A46A1730021E173012181
S214008160A1814FF46151C4E900132823354E2281C2
S2140081700C21324622206381FEF79CFA60B9D6E9CC
S21400818000230AB19A4207D3318999429FBFC4E9B6
S21400819000237389218163812B4B2C4AE3630423DC
S2140081A084F8403084F84C30E3182365284BA264EA
S2140081B06365022304F10802E265264A84F8583013
S2140081C0226604F10A02A266234A84F8643084F820
S2140081D0703004F10C03E26663676464EA79A868A9
S2140081E002EB420300EB830104F13C064E601B4E9B
S2140081F040F82360FA261A4B1A488B60531CEB7122
S214008200FEF738FD208904F11405704329F02BFE93
S214008210618920462AF0A3F8134B2846C4E90534A2
S214008220FEF754FB216849B128467143BDE870400B
S21400823029F075BD4FF4F07302228DE770BD00BFC4
S214008240803900207439002000002301010023003B
S2140082500200210003002101FDFF2100200001058E
S214008260E97F0000C57F00006D7F0000134B10B54E
S2140082701C680CB3E37BEBB129F05AFD2369C01AE6
S214008280002809DB0E4813F08FFC0023FA20E37366
S2140082906368584329F0E7FDE37B5BB12489FA2342
S2140082A05C4329F0EBFDA04206D02046BDE8104016
S2140082B029F0D9BD6468F2E710BD00BF8039002000
S2140082C07BD6030073B5002401260A4D55F8042B0F
S2140082D052B1D36C43B10533507806210093002287
S2140082E010230196FEF760FD01340C2CEED102B08F
S2140082F070BD00BF8439002038B50024044D55F801
S214008300040B08B12AF03EF801340C2CF7D138BD26
S21400831084390020042908B50AD172B16BB11378EC
S2140083201BB92AF05AF8002008BD2AF04CF8FAE7E4
S214008330034813F039FC0120F6E70320F4E700BFFA
S214008340B5D6030010B4054C114654F820001A4662
S214008350BDF804305DF8044BFFF7DCBF843900201D
S2140083600229024608B50ED004D839B910462AF0BC
S21400837034F806E04029F9D0412907D110462AF002
S21400838022F8002008BD2AF032F8FAE7024813F077
S2140083900BFC0120F6E700BFD5D6030010B4054C51
S2140083A0114654F820001A46BDF804305DF8044B18
S2140083B0FFF7D6BF84390020C26C094B52791A7079
S2140083C082785A70C2789A70026D12B190F8542072
S2140083D0DA70007804210930014AC0B2FEF77AB993
S2140083E088610020024B53F820002AF043B800BFF3
S2140083F08439002038B504460078084D09302A46EE
S2140084000421C0B2FEF756F930B96B78A370AB788A
S214008410E370EB7884F8543038BD00BF88610020E4
S21400842038B504460078114D09302A460421C0B2FA
S214008430FEF740F9C8B9A3782A78022B0CD004D8E6
S21400844063B9204629F0C9FF01E0FF2B0AD0204679
S214008450BDE8384029F096BF002AF2D1204629F020
S214008460B2FFF4E7002AF9D1EBE738BD88610020B7
S214008470F8B504460B783D4A0D4642F82300437093
S214008480FFF7B8FFE36C3A4A5C631A632046FFF7CF
S214008490C7FF204629F076FF4FF48013012663605D
S2140084A0E36C26720533E360324B26752361A31C0A
S2140084B0A361236D002B54D02F4A84F82060E2611C
S2140084C0E21C62622D4A84F82C60A26204F1540217
S2140084D0226393F83420002A45D093F836202046AD
S2140084E084F855201B8FA4F8563029F08AFF94F89C
S2140084F05510206D29F02FFAB4F85610206D29F08B
S21400850034FA1F4B84F83860636304F15503E36361
S2140085101C4B06262364022384F8443004F15603D9
S214008520A3640627EA79A96802EB420321F82370C0
S21400853001EB830001238370134B04348360531CC8
S2140085404460DBB2114C03EB4303C67041F8234092
S21400855001EB8300002343600D4B02328360EA7117
S214008560F8BD0226DDE70426DBE700BF84390020DD
S214008570512403000340300101FF300102FF1001C7
S21400858003FF200104FF21019D8300000800010075
S2140085904583000028B1034B1B78834234BF00207C
S2140085A0012070476961002070B500250A4C0B4E0B
S2140085B03378AB4200DC70BDD4F8A42042B12379F6
S2140085C01BB16079FFF7E6FF10B9104629F094F961
S2140085D00135AC34ECE700BFE82100206A610020DA
S2140085E008B5427901461046FFF7D4FFB0B1CB7804
S2140085F058210B48013A042B01FB02000ED8012B30
S21400860008D81BB9BDE8084029F0DDBEBDE8084023
S21400861029F0E3BEBDE8084029F0E9BE08BD00BF6A
S214008620D81F002008B5427901461046FFF7B2FF72
S214008630B0B1CB7858210B48013A042B01FB02005D
S2140086400ED8012B08D81BB9BDE8084029F0C5BED6
S214008650BDE8084029F0B7BEBDE8084029F0C7BE0F
S21400866008BD00BFD81F002010B586B00446FEF730
S21400867023FB012831D1E17804292ED8DFE801F068
S21400868014333503030062791046FFF783FF60B3A7
S2140086905820174B013A00FB0233DB6C032958794C
S2140086A01DD1003818BF012063784FF480728DF812
S2140086B004304FF48273ADF806300623ADF8083068
S2140086C001238DF80B3000238DF80A0001A8CDE9B0
S2140086D003238DF81430FEF727FB06B010BDB0FA62
S2140086E080F04009E0E70020DEE70220DCE700BF7C
S2140086F0D81F002010B586B00446FEF7DDFA012824
S21400870031D1E278042A2ED8DFE802F014143303BD
S214008710030061790846FFF73DFF50B35820164B1B
S214008720013900FB0133DB6C032A5B791DD11A1E6D
S21400873018BF012263788DF80A208DF804304FF4B4
S2140087408273ADF806300623ADF8083001234FF4E7
S21400875080728DF80B30002301A8CDE903238DF835
S2140087601430FEF7E1FA06B010BDB3FA83F25209F0
S214008770E0E70222DEE700BFD81F002010B586B073
S2140087800446FEF799FA012812D16378094A8DF853
S21400879004304FF48273ADF806304FF48073CDE9A1
S2140087A00223002301A804938DF81430FEF7BCFAC8
S2140087B006B010BD0800070110B586B00446FEF7E7
S2140087C07BFA012820D16278104B8DF804204FF4F4
S2140087D0827294F8A01094F8A10059701870ADF841
S2140087E0062004934FF480720223094901A88DF8ED
S2140087F01430CDE90212FEF797FA94F8A130013B47
S21400880018BF012384F8A13006B010BD8C6100208B
S2140088100800050110B58378044686B0002B3DD0CD
S2140088200379022B0BD142791046FFF7B3FE30B125
S21400883058201B4B013A00FB023029F0D8FDA379E3
S214008840022B02D12046FFF70FFF94F8A830BBB1E9
S214008850FEF732FA012813D194F8A830114A8DF8A1
S21400886004304FF48273ADF806304FF48073CDE9D0
S2140088700223002301A804938DF81430FEF754FA5F
S2140088802046FFF799FF0223552212216078A4F8AC
S2140088906C3006B0BDE8104029F0A4BA06B010BD92
S2140088A0D81F0020060002014388094A08211380C9
S2140088B08388538083681B8A938090F8A0309371D6
S2140088C08379D37100780430C0B2FDF703BF00BFD0
S2140088D0705C002038B50D4604460178114813F048
S2140088E063F94FF602739D420ED10F4B1B782BB9DE
S2140088F063712046BDE83840FFF7D6BF62790AB1FB
S2140089009342F6D20123F3E7B5F57F4FF1D1204627
S21400891029F047FEA378022B0CBF01220022A36891
S2140089209A70E6E7F1D6030069610020024B53F81F
S2140089302000FFF7CFBF00BFB439002038B504468B
S2140089400078144D04302A460821C0B2FDF7B2FE66
S21400895020B1BDE83840104813F026B92B88638054
S2140089606B88E978A380AA88A3681A82AB7984F812
S214008970A030EB79A371094B1B780BB9637138BD36
S21400898009B19942FBD9064813F00EF92378013352
S214008990F4E700BF705C00200BD70300696100207D
S2140089A034D70300F8B504460B78474A0D4642F81C
S2140089B023004370FFF7C2FFA268444BD465D3641C
S2140089C0434B02265365434BA11C13654FF44013DB
S2140089D0E36001236161E1623F4910322163226551
S2140089E0211D3E4AA1633E483E49626504F1A0024D
S2140089F0A061E163E265E01C611D3B4A20626164A0
S214008A003A483B492266A21D2374237784F828300F
S214008A1084F8343084F84030A16484F84C6084F8DC
S214008A20583084F864306062A266E879AA6800EB81
S214008A30400102EB810704F10C0CC7F804C04FF0AC
S214008A40060C2C4F42F82170C118C9B201EB410147
S214008A5042F821C002EB810700217960264F84F896
S214008A6080302767254F84F89830A767244F254B1A
S214008A70E767254F84F8746084F88C60C4F89C30EF
S214008A8004F16C06831CC4F88470C4F890601F4F11
S214008A901F4EDBB203EB4303C4F89460C4F888703F
S214008AA002EB83067034746008261A4C42F82340A2
S214008AB0C31CDBB203EB430302EB8304043042F82F
S214008AC023606160E871F8BDB4390020F924030022
S214008AD0432503001588000001FF300104FF200134
S214008AE01000300102FF200105FF300100FF3001B9
S214008AF003FF2101070001084A002100D27004008C
S214008B0051001000D4700400D570040055002100F8
S214008B106F0018001200010400239B6AB3F5804F13
S214008B2003D21968064A914203D00023037083607B
S214008B307047012202709A689B694260F7E700BF9F
S214008B4007B0CD5E024B034A1A602BF0E3B900BFB4
S214008B500000002002020FF073B53F4B04461A785F
S214008B601AB102221A7002B070BDCDE900220028A8
S214008B70F9D001261E7033F059FD384D384B186079
S214008B8017F0F4FD2B785BB902F0F2F940B93548DE
S214008B900823354A3549006801F038FE00B92E70C2
S214008BA0334B5A68E260334A9A601A6E22605A6EF5
S214008BB06260D3F87021A2601B6E5C042CD52E4A2E
S214008BC0D368D807FCD42D4B1A68531C29D04FF411
S214008BD0801393402A4A13660423294C4FF08042A0
S214008BE023664FF480632366102323664FF40053F6
S214008BF06846236601A92266636629F0EAFC009BA4
S214008C002366019B63662B78002BACD0164B1A6844
S214008C1022665B686366A6E71A4AD368D907FCD45F
S214008C20D1E7194B1B78002BD6D1184B5A68144B3A
S214008C3012B94FF480121A66154A526812B94FF4E8
S214008C4000121A66134B5B68002BC5D14FF48002E6
S214008C500B4B1A66C0E700BF8F61002090610020B2
S214008C60F4390020C46B0020F83900200071080099
S214008C700080004455CEAC0000000440906B0020FD
S214008C8000900044000004508E61002000800550D3
S214008C9000C005500000065038B5224D04462B781B
S214008CA0012B02D001232B7038BD0028FCD029F000
S214008CB0B5FC013009D029F0B1FC40F2011398420E
S214008CC003D0194AD368DB07FCD42268174B1A6610
S214008CD062685A66A268C3F87021E268D40744BF87
S214008CE000229A60124B1A68013213D1114A127888
S214008CF082B911494968C80748BF1A600F4A5268C6
S214008D00D10744BF01221A600D4A5268D20744BFF9
S214008D1002221A6017F032FD0A4B186833F081FC05
S214008D200023C0E78F61002000000440008000445C
S214008D30906B00208E6100200080055000C005501A
S214008D4000000650F439002070B50024A36AB3F57D
S214008D50804F23D21A68134B9A421FD1124E337893
S214008D6013F0FD0518D14FF480341048FFF7F4FED9
S214008D70032004F075FD0E4B0320DC6004F054FD68
S214008D800C4B1C61AB6ADB69984704460748FFF743
S214008D9083FF0CB901233370204670BD4FF48174F5
S214008DA0FAE700BF07B0CD5E8E610020E4390020F0
S214008DB000A000440090004413B5204B1B7803B974
S214008DC0FEE700231E4CCDE900336A4608231D4902
S214008DD0206801F01BFDF8B91B4AD2F84031D2F8E2
S214008DE040211F2B4FF0010311D9203A9340019ADE
S214008DF01A43019208236A461249206801F08EFE43
S214008E00124B134A1A602BF085F802B010BD93403F
S214008E10009A1A430092EDE72D28F1D10A4AD2F8BB
S214008E204031D2F840211F2B4FF0010385BF203A76
S214008E3093409340019398BF0093DBE78F61002037
S214008E40C46B002000710800008000440000002071
S214008E500B020FF038B50025AB6A0446B3F5804F19
S214008E6010D21B6BB3F5804F0CD20748FFF774FE89
S214008E70AB6A20461B6B5B689847BDE838400248E3
S214008E80FFF70ABF38BD00BF003A002013B5002424
S214008E90A36A0190B3F5804F13D21B6BB3F5804FD6
S214008EA00FD20948FFF758FEA36A01211B6B01A8E1
S214008EB09B69984704460448FFF7EEFE204602B03A
S214008EC010BD4FF48174F9E7003A002070B5002613
S214008ED0B36A0446B3F5804F0D4612D21B6BB3F54A
S214008EE0804F0ED20848FFF737FEB36A20461B6B4A
S214008EF029469B69984704460348FFF7CDFE20465F
S214008F0070BD4FF48174FAE7003A002070B5002671
S214008F10B36A0446B3F5804F0D4612D21B6BB3F509
S214008F20804F0ED20848FFF717FEB36A20461B6B29
S214008F302946DB69984704460348FFF7ADFE2046FE
S214008F4070BD4FF48174FAE7003A0020F8B50027A8
S214008F50BB6A0446B3F5804F0D46164611D21B6B0E
S214008F607BB10948FFF7F8FDBB6A20461B6B32460B
S214008F7029465B6A984704460348FFF78DFE20465D
S214008F80F8BD4FF40174FAE7003A002070B50026E9
S214008F90B36A0446B3F5804F0D4612D21B6BB3F589
S214008FA0804F0ED20848FFF7D7FDB36A20461B6BEA
S214008FB029469B6A984704460348FFF76DFE2046FD
S214008FC070BD4FF40174FAE7003A0020F0B50027B0
S214008FD0BB6A0446B3F5804F0D461646ADF5337DA5
S214008FE020D21B6BB3F5804F1CD21048FFF7B4FDA0
S214008FF0BB6A20461B6B40F2C1225B6A01A99847F8
S214009000044630B10948FFF747FE20460DF5337D8C
S214009010F0BD836A32461B6B2946DB6A01A8984777
S2140090200446EFE74FF40174EFE700BF003A002074
S21400903010B50024A36AB3F5804F10D21B6BB3F5AE
S214009040804F0CD20748FFF787FDA36A1B6B1B6B8C
S214009050984704460348FFF71FFE204610BD01242C
S214009060FBE700BF003A0020F0B58FB0044601A829
S2140090700E461546FFF7EEFE9DF80C30012B12D17A
S214009080B5F5402F27D8B4F5402F24D86319B3F58B
S214009090402F20D821462A46304614F027F80024D0
S2140090A020460FB0F0BD0027BB6AB3F5804F15D23F
S2140090B01B6BB3F5804F11D20A48FFF74DFDBB6A14
S2140090C02A461B6B314620465B6B9847044605488C
S2140090D0FFF7E2FDE4E740F20244E1E740F2011464
S2140090E0DEE700BF003A0020F0B58FB0044601A8C6
S2140090F00E461546FFF7AEFE9DF80C30012B1FD12D
S214009100B5F5402F06D8B4F5402F03D86319B3F54C
S214009110402F13D940F2024420460FB0F0BDE2586B
S214009120013225D104339D42F9D82A4631462046DD
S21400913029F0A4FA0028EDD00024EDE70023F2E79A
S2140091400027BB6AB3F5804F15D21B6BB3F5804F73
S21400915011D20A48FFF700FDBB6A2A461B6B314650
S21400916020469B6B984704460448FFF795FDD3E7D7
S21400917040F20344D0E740F20114CDE7003A002065
S21400918070B58EB0044601A80D46FFF763FE9DF845
S2140091900C30012B22D144EA0503C3F30C03002B49
S2140091A033D1B5F5402F04D940F2024420460EB024
S2140091B070BDB4F5402FF7D82544B5F5402FF3D849
S2140091C0204604F5005429F052FAAC4202D000289A
S2140091D0F6D1E9E70028E7D00024E7E70026B36ADF
S2140091E0B3F5804F14D21B6BB3F5804F10D20A48EC
S2140091F0FFF7B2FCB36A29461B6B2046DB6B984729
S21400920004460548FFF748FDD0E740F20444CDE7A2
S21400921040F20114CAE700BF003A0020BFF34F8FA8
S2140092200549064BCA6802F4E0621343CB60BFF3FD
S2140092304F8F00BFFDE700BF00ED00E00400FA0519
S21400924070B5D0B1C9B10E4E431E013913F8014FA7
S2140092502046325D02F00302012A11F8012F08BFF2
S21400926004F12000B55C05F00305012D08BF20328F
S214009270801A01D1002CE9D170BD0120FCE700BFA7
S214009280AD9804000348044A0449121A921029F0C3
S21400929041BA00BF34410000D0420000A868002058
S2140092A008B5154B83F30A8800F030F8FFF7EAFF9D
S2140092B0124B13498B4212D30020124B12498B4299
S2140092C018D3FBF70FFD186850F82240586840F88E
S2140092D02240013298688242F5D30C33EAE7002236
S2140092E0F8E71C6844F8220001325C68A242F8D312
S2140092F00833E4E70022F8E7080000204CBD04002D
S21400930058BD040058BD040058BD0400124B134A53
S21400931070B59A60D3F88820114D42F47002C3F8F5
S21400932088206FF0010205F50054226641F2FF72B4
S21400933062660222C3F8D020BFF34F8FBFF36F8F51
S2140093404FF44036032004F08BFA0320E66004F066
S2140093506BFA2E6170BD00BF00ED00E0004000001B
S21400936000800044014B1860704700BF986B0020D7
S214009370054B1860054B1B6F03F00703032B01D149
S21400938031F0ACBA704700BFA06B002000800050E0
S2140093902DE9F04104464FF001080C250D4E0CB99E
S2140093A0BDE8F08194FAA4F0B0FA80F00F2808FA2D
S2140093B000F2C8BF103824EA0204CABF05FB0062E8
S2140093C005FB0062B4325768002FE8D09168C0B23F
S2140093D0B847E4E7103A002008B50C4833F0C4F963
S2140093E0192004F02FFA28B1192004F039FA1920B0
S2140093F004F01AFA1A2004F025FA28B11A2004F00C
S2140094002FFA1A2004F010FA002008BD3873040062
S2140094102DE9F0410E461746054618B30F2923D806
S2140094200378DBB1013BDBB2022B19D8104AD35CC0
S2140094306A78D340DB0717D50E4BD3F81043ACB988
S21400944033F0F4F880463A462846314602F068FF84
S214009450404633F0E6F82046BDE8F0817F23E7E794
S2140094600023E5E72224F6E72124F4E70224F2E7C6
S2140094702871040000C0035010B5044610B30378EA
S214009480E3B1013BDBB2022B1AD8104AD35C6278F8
S214009490D340DB0718D533F0C9F80122617823786A
S2140094A08A4030214B4341F2100103F1A04303F5FB
S2140094B070335A5033F0B5F8002010BD7F23E6E72E
S2140094C00023E4E72220F8E72120F6E728710400CD
S2140094D010B5044610B30378E3B1013BDBB2022BB0
S2140094E01AD8104AD35C6278D340DB0718D533F01D
S2140094F09DF80122617823788A4030214B4342F25E
S214009500100103F1A04303F570335A5033F089F885
S214009510002010BD7F23E6E70023E4E72220F8E7DB
S2140095202120F6E72871040038B50D46044618B326
S21400953011B30378E3B1013BDBB2022B1AD8104A11
S214009540D35C6278D340DB0718D533F06FF830224F
S2140095502378534303F1A04303F570335B696278C5
S214009560D34003F001032B7033F05BF8002038BDC6
S2140095707F23E6E70023E4E72220F8E72120F6E74A
S214009580287104002DE9F0410D461646984604461B
S21400959000284FD000294DD00178002940D04B1E1E
S2140095A0DBB2022B3ED8254AD25C6378DA40D2077B
S2140095B001D4FF2940D1022E01D9042E3CD133F02C
S2140095C035F823780746FF2B05D032462046296813
S2140095D002F0ECFE28602B68013309D12378FF2BBC
S2140095E006D1174B6078D3F8241429F003FF2860BF
S2140095F029684B1C18D00C23124A03FB0122069B39
S214009600C2F8048093602378FF2B04D001230E4A0F
S2140096108B40C2F82434384633F003F8002007E0C5
S2140096207F22C2E70022C0E7384632F0FAFF2D203C
S214009630BDE8F0812220FBE72120F9E7287104002D
S21400964000C00350103A002000D0035008B502F0C6
S2140096505DFE044B00F05530C3F82004BDE808401A
S214009660FFF796BE00E0035008B502F04FFE044B2D
S21400967000F0AA30C3F82004BDE80840FFF788BE13
S21400968000E003502DE9F04F144605460E469B4673
S214009690C36B87B001225B6902A960689847EB6BD1
S2140096A001225B6903A93046984702A829F031FCDD
S2140096B0074648B10023A37563754FF0FF33A360D8
S2140096C0002007B0BDE8F08F03A829F02FFC012387
S2140096D0A375237E04EBC303DE611F846368B34275
S2140096E00ED1206003A829F043FC4FF0FF3320750D
S2140096F0A360237D043B022B26D80023A375DFE757
S21400970023681A1A53425341A37503A829F030FC64
S214009710237D834218BFA77503A829F00BFC0746D4
S21400972002A829F007FC874218BF002303A818BF29
S214009730A37529F007FC074602A829F003FC874218
S2140097401CBF0023A375D4E703A829F0F3FB80B160
S214009750EB6B022230465B6904A9984704A829F0FF
S214009760F8FB0346207D032839D8DFE800F03838B8
S214009770040903A8F3E7CC22237E04EBC3031A8470
S21400978001F06EFC109B187003A8277E29F0C6FB1C
S21400979004EBC70787F82200237E03A804EBC30365
S2140097A0B3F8209093F8227029F0C4FB804603A8F3
S2140097B029F0C8FB8246B8F1000F15D0EB6B0222E9
S2140097C030465B6904A9984704A829F087FB6075B2
S2140097D0637D6BB90023A3754FF0000838E0227E46
S2140097E004EBC2021384CBE703A829F062FBEEE782
S2140097F094F81680B8F1000FEED0B9F1000F09D139
S214009800DFB10123E375637E002B4FD1012F42D1D8
S214009810677614E06B6C06EB0A015A4286EA010092
S21400982010421CBF0022A2755A1E0A409B1A994578
S214009830D0D8A37D002BE3D1CEE7E37D43B94FF02C
S21400984000084B4652463146284629F0ADF8A0603F
S214009850A27D12B123694B4423611A49237E0978FD
S21400986099422AD901332376BBF1000F27D032B3B1
S214009870E37D23B3B8F1000F21D1032F1FD0A168D9
S2140098804B1C1CD0109B2246009328460123FFF752
S214009890F9FEA07513E095F8343063B9EB6A01332E
S2140098A0CFD1032FCDD10123A376C8E7012FCFD088
S2140098B0032FC4D1F7E79846C3E70023A375A07D1E
