S01B00006275696C642F72656C656173652F7A69676265652E73333714
S21400400008100020ED8A000081D20000111A03007B
S214004010111A030089D2000091D20000111A030081
S214004020111A0300111A0300111A0300111A0300D3
S21400403095D20000F0610400111A0300111A030063
S214004040111A0300111A0300111A03000586000056
S214004050111A0300111A0300111A0300111A0300A3
S214004060111A0300111A030095D70000111A030055
S214004070111A0300111A0300111A0300111A030083
S214004080111A0300111A0300111A0300111A030073
S214004090111A0300111A0300111A0300111A030063
S2140040A0111A0300B58E0000998E0000111A030045
S2140040B0111A0300111A0300111A03007D2B0200C7
S2140040C0237503001F750300E12202003975030003
S2140040D0277503003D2B02002B750300710F0200AD
S2140040E0BD2B0200111A0300111A0300111A030057
S2140040F0111A0300111A0300111A0300111A030003
S214004100111A0300111A0300111A0300111A0300F2
S214004110111A0300111A0300111A0300111A0300E2
S214004120111A0300111A0300111A0300111A0300D2
S208004130111A030058
S214004134F0B5114A114C124E00F00105E3695F0711
S21400414413D40DB9334213D103EA00078F4207D1C3
S2140041540B4A1A40002A14BF6FF001000020F0BD7D
S214004164013AEBD16FF00200F9E74FF0FF30F6E7C3
S2140041746FF00100F3E700BF80969800000003503C
S214004184020001000B4B70B5D96911F480310DD1D2
S21400419401244FF48072084E084DF46020462C64C7
S2140041A41A61FFF7C5FF3464EC6070BD6FF0010060
S2140041B4FBE700BF0000035000100350002003502C
S2140041C438B541F6713301220C4C0021E569E363EE
S2140041D40B4B05F48035DA600223606121202361ED
S2140041E4FFF7A6FF10B92120FFF7A2FF0122054B17
S2140041F4DA600DB10023E36338BD00BF000003504E
S214004204001003500020035070B5134C6061E3693E
S2140042145B071ED40E4656F8043B8D18A361AE42C7
S2140042240BD10423002121202361FFF781FF58B915
S214004234BDE870402120FFF77BBF08210846FFF742
S21400424477FF10B10423236170BD56F8043BA361C5
S214004254E5E74FF0FF30F7E7000003502DE9F84399
S214004264154641F67132164B8946DF69DA63012238
S214004274064603F58053DFF8508007F48037DA608B
S21400428455B9284601220F4BDA601FB10022A3F568
S2140042940053DA63BDE8F88306F5005404EA08041C
S2140042A4A41BAC4228BF2C46494622463046FFF79C
S2140042B4ABFF0028E6D12644A1442D1BE0E700BF4F
S2100042C4000003500020035000E0FFFF45
S2140042D02DE9F04F4FF0FD0BC9B09A460DF11B09C2
S2140042E09DF8503108AFCDF80C90CDF808B0019786
S2140042F0059303890446009383790E4690464188C9
S2140043008288407813F086F9054650B10090A3885D
S214004310002062883A4913F0C1FC284649B0BDE83F
S214004320F08F99F8000030F04EFC38B12846A3888C
S2140043306288344913F0B2FC8D25EEE75A463946BA
S21400434099F8000030F0E7FB8346002851D0529BD6
S2140043501BB1BDF84C3198424BD8002399F8009019
S2140043600793A9F14102012A5FFA8BF123D8384658
S2140043700139254ADFF898C05FFA81FE734513DBE2
S214004380059B04210792C3B907AF18221F489FED6B
S2140043901A7B02FB060420460A460830394684ED9E
S2140043A0027B18F0A3F911E010F8011F0133514009
S2140043B00CFB01F2E2E7059B33B123464A4638463A
S2140043C0009611F0A9F8A8E70829DED9B8F1000F81
S2140043D001D088F80090BAF1000F01D0AAF800B01A
S2140043E0529B002B99D05A46184608A918F07EF919
S2140043F093E7012591E700BF0000000000000000E1
S214004400330A0400680A0400C59D1C8118110020A8
S21400441093010001000000002DE9F04F93B0CDE9B4
S2140044200A32DDE91C530E9353EC102BCDE908013C
S214004430104619468DED060B1E9E17F0E1FB80B167
S214004440DDE906014FF0FF32C54B17F001FC40B91D
S214004450DDE906014FF0FF326FF4801317F0DAFB48
S21400446070B1DDE908019DED060B0E9B1E96CDE9A9
S2140044701C53DDE90A3213B0BDE8F04F00F088B9EE
S2140044800022DDE90601002317F0C4FB002800F037
S2140044903381DDE906A303F1004BCBF30A5016F493
S2140044A08063A0F2FF3008BF06250F9317F0D6F8FA
S2140044B09BA3D3E9002317F03BF99BA3D3E9002382
S2140044C016F080FFCBF31304894644F07F518046F4
S2140044D00022A44B504641F4401116F071FF94A3FD
S2140044E0D3E9002317F024F902460B464046494616
S2140044F016F068FF17F0B6FB044617F0AFF88EA369
S214004500D3E900238046894617F012F90022964B1D
S21400451016F058FF17F0A6FB89A3D3E90023074639
S2140045204946404617F004F980463846894617F053
S21400453095F885A3D3E9002317F0FAF802460B4650
S2140045404046494616F03CFF02460B46CDE90C2392
S21400455017F0EEF8DDE90C2380468946104619462A
S21400456016F030FF0022CDE91001804B4046494648
S21400457017F008FA00227E4B16F024FF02460B4680
S2140045804046494617F0FEF900227A4B16F01AFF0D
S21400459002460B464046494617F0F4F9DDE90C237F
S2140045A08046894600204FF0804116F009FF0246FB
S2140045B00B464046494616F005FF02460B46DDE927
S2140045C0100117F0DFF907F2FF3700226A4B16F0EA
S2140045D0F9FE00223B0517F0ABF852465B468046D4
S2140045E0894617F035FB002840F08980CDE90C8914
S2140045F004F16303C62B8CBF0527042731051BD5A2
S21400460053A3D3E900235046594617F017FB00285A
S2140046107FD051A3D3E900235046594617F0FAFA43
S214004620002876D00027A542C6BF2C1B04F1FF3514
S21400463000253C4646F480660E9B9F422CBF4FF0FA
S2140046400008A3EB070816F0020903D0002F18BFD6
S2140046504FF000083CB1DDE90C235046594617F0F0
S21400466091F982468B46DDE906010022002317F009
S214004670D1FA10B10BF100439B46DDE9080126F4A0
S2140046800063CDE90183DDE90A324BEC10AB0095FF
S21400469000F07EF802465FB3DDE9091316F0200F3E
S2140046A000F10105089E0CBF65204520B047DDE9F6
S2140046B008010523002205930A23002CCDE90232C7
S2140046C007F1FF374FEAD473B8BF64422A46019316
S2140046D004970A9B009432F092F80246B9F1000F54
S2140046E006D00B9BC41A0B9B1A190E9BA34245D8E7
S2140046F0104613B0BDE8F08FDDE906ABCDE600222C
S214004700404649461A4B17F03DF9013CCDE90C01ED
S2140047106EE7002D90D00F9B002B8DD0013D8BE7D0
S214004720FB799F501344D33FB3C8608B288AC63F9B
S21400473061436F63A787D23F71A379094F930A40FD
S2140047401655B5BBB16B0240EF39FAFE422EE63F76
S2140047502D431CEBE2361A3F0000000080842E41F9
S214004760FFFFEF7F0000F83F0000E03F00002C4016
S21400477000002440000018400000F03F2020DDE943
S2140047800913089DA8470134ADE700BF00000000EC
S2140047902DE9F04F5BEC10AB97B0CDE90501DDE9F4
S2140047A02058CDE90723504652465B465946229F7D
S2140047B017F026FA70B90323CDE902870193AA4BB6
S2140047C00093DDE90501DDE9072331F04AFF17B064
S2140047D0BDE8F08F4FF0FF326FF480135046594615
S2140047E017F018FA28B10423CDE9028701939F4BEE
S2140047F0E6E74FF0FF32504659469D4B17F028FA31
S21400480068B19C4A07F00403002B08BF03229A4BAA
S2140048101CBF13460422CDE902870192D0E750461A
S2140048208DA3D3E90023594617F012FA38B98CA3A2
S214004830D3E900235046594617F0ECF968B1DDE994
S2140048400723DDE905014BEC10ABCDE92187209568
S21400485017B0BDE8F04FFFF7DFBD0022002350463B
S214004860594617F0D7F9002800F091805B4652466B
S2140048700020002116F0A4FD012382468B460993F2
S21400488017F4806400F08580092D40F285800024AE
S21400489030210EABA5F109020134202C03F8011BD0
S2140048A0A5EB040901D09442F6D15946504617F0BC
S2140048B0D9F9724B054603EBC90393ED007B8DEDEA
S2140048C00A7B16F0CBFE02460B465046594616F0BB
S2140048D077FDDDE90A2316F02BFF02460B46CDE9ED
S2140048E00C2317F0E7F9064616F0A8FE02460B461C
S2140048F0DDE90C0116F064FD02460B46CDE90C23FB
S21400490000225F4B17F0A4F9002848D00136304645
S21400491016F094FE02460B46DDE90A0117F084F90C
S21400492008B100260135B9F1000F45D1284616F02A
S21400493095FE02460B465046594616F041FD0022AB
S2140049404F4B17F067F910B9E90700D501350A2172
S2140049500EAB1A19202C0AD095FBF1F001FB10556E
S214004960303502F8015B013405460028F2D107F025
S2140049700302012A55D1B8F1000F52D0099A12B994
S21400498017F00C0F01D008F1FF38302240E00990F4
S21400499076E74FF0060988E7A946002485E7002257
S2140049A0DDE90C01364B17F035F90028BBD10EB106
S2140049B0F007B8D50136B6E70A210EAB1A19202C37
S2140049C00DD0B6FBF1F001FB1063092E03F13003A6
S2140049D009F1FF3904F1010402F8013B11D8302136
S2140049E0A1440EAA202CB2D04C4504F101030AD1F2
S2140049F004F158020DEB02042E2204F8202C1C466B
S214004A00A5E70646DBE7A1541C46EBE71A5501343A
S214004A10444506D2202CF9D1CDE9028701940EAB8D
S214004A20CEE6202CF8D0099B3BB12D2204F158038A
S214004A306B4403F8202C0134EEE77A0704D504F122
S214004A4058032B226B44F4E73B07E5D504F15803E3
S214004A5020226B44EDE700BF0000000065CDCD418D
S214004A600000000065CDCDC1C6270400CA2704009B
S214004A70FFFFEF7FBD270400C22704002871040053
S214004A800000E03F0000000070B58EB02C22002130
S214004A9003A817F09BFC64234FF002320893CDE97D
S214004AA005230B2301218DF834305B4B8DF8101055
S214004AB01D880D4040F0A980084635F0FBFE0A220E
S214004AC0564B574C1A704FF42873ADF812304FF00F
S214004AD0FF332360534B54491B8820460B82534BAD
S214004AE0534A1B68CD828B61524B0D621B884B82EA
S214004AF0514B1B68CB611EF0D7F820B14FF41B71E9
S214004B004E4836F072FF0521206832F06BF820B16F
S214004B1040F27D21494836F068FF206816F00CFC0C
S214004B20474B2068196832F020F90C2536F02AFB2E
S214004B306843099036F026FB68430DEB05010790A5
S214004B40206818F005FB20B140F295213B4836F06E
S214004B504CFF256820F0E0FA00220146284632F095
S214004B607CF920B140F29721344836F03EFF40F2FF
S214004B700353344D344E2B80052396F90000AB705A
S214004B807F2801D11EF086F93378EB7036F0FAFAFA
S214004B9000EB80008000A88036F0F4FA0023C00006
S214004BA04FF0FF31E880AB604FF0FF3018A3D3E939
S214004BB0002335F0D1FF2549206832F007F9206838
S214004BC002A932F023FD20B14FF434711B4836F0B1
S214004BD00CFF042220680DEB020132F09BF804283B
S214004BE004D040F2D721154836F0FFFE01A9012077
S214004BF031F09CFC08F088FB01201EF0CFFD2DF064
S214004C00FFFC1EF0F5FD1EF0DDF80EB070BD00BF17
S214004C100A0020FF42030000425E0020706500206C
S214004C2068580020D68A04003C6C0020DC8A040009
S214004C30DDA80300D48A0400D88A04008F6004002C
S214004C40846900205C580020396F002051A90300B9
S214004C500348044B834202D0034B03B11847704706
S214004C60686F0020686F002000000000064B0749B0
S214004C70C91A891048BF0131491003D0044B0BB143
S214004C8001481847704700BF686F0020686F002013
S214004C900000000010B5064C237843B9FFF7D8FF94
S214004CA0044B13B10448AFF300800123237010BDFA
S214004CB048160020000000005CAE040008B5044B57
S214004CC01BB104490448AFF30080BDE80840CDE7B7
S214004CD0000000004C1600205CAE0400A3F5803AED
S214004CE0704700BF154B002B08BF114B9D46FFF7C2
S214004CF0F5FF00218B460F461148124A121A17F08C
S214004D0065FB0C4B002B00D098470B4B002B00D0BC
S214004D1098470020002104000D000B4817F09CFE69
S214004D2017F02CFB200029002CF0E3FA17F082FE87
S214004D30000008000000000000000000081000202E
S214004D4008100020C4650020C1CA010007B5012173
S214004D5020200DF1070201F0E9FB58B102230121E2
S214004D6020200DF107028DF8073001F0EFFB03B0AD
S214004D705DF804FB9DF807100229F8D002220948C6
S214004D8016F012FA022301210DF1070220208DF8F9
S214004D90073001F0DBFB2CF0E7F94FF4FA6001F086
S214004DA00FFAE4E728BE030038B501F08FF902F0E9
S214004DB0BDFE01F05DFD012805D001F059FD022879
S214004DC001D001F07BFD0A4D2B783BB901F050FD78
S214004DD00128044602D12CF06FFA2C7001F048FD31
S214004DE0012803D1BDE8384001F056B938BD00BFF0
S214004DF0205F002010B5044600882CF07DF9A378CB
S214004E0084F84400834202BF0123E3702371074BFA
S214004E1004F11C00C4E9073401F0DEFB22462088BA
S214004E200349BDE8104001F01BBB00BF170B030091
S214004E30E10A030070B5C37804460D461646002BFB
S214004E4034D1D1B1214816F0AFF90123E370E36CF9
S214004E50A6600BB1E06D9847E368F61A63699E4258
S214004E6021D2217E1A480131C9B2217616F09CF96A
S214004E70A36D13B1217EE06D9847E5702CF087F99D
S214004E8015B3237903BBA268238A801A83421BD8F2
S214004E9001231048237116F087F9236DA3B1E06D46
S214004EA0BDE87040184701232376E6E70029E4D1E1
S214004EB0094816F079F9636DE660E5702571002BF8
S214004EC0DBD0E06D9847D8E770BD00BF50BE03004A
S214004ED061BE03008FBE03007CBE030013B5C8B1DD
S214004EE0C2B1012910D0022911D099B9C36928305E
S214004EF083B11404B4FBF3F404600848009416F07D
S214004F0053F9002002B010BD036A2C30F0E7436A64
S214004F103030EDE74FF0FF30F4E700BFA5BE0300EA
S214004F200A4604490346086810B119462BF053BEDA
S214004F30704700BF6416002070B5044694F89D20A4
S214004F4094F89E30D21A4032514201F03F0102F0EE
S214004F503F0258BF4A42D2B2162A00D870BD03F0AC
S214004F603F02224492F85D20552A05D0013303F013
S214004F703F0384F89E30E1E794F8B0200020013229
S214004F8084F8B0205822191801F03F01214491F806
S214004F905D1001300A441628D2B2F4D1D24303F190
S214004FA0160101F03F01214491F85D10D2B28A4209
S214004FB0DCD194F8B1300121013384F8B1302046B9
S214004FC02BF0CAFD0421054620462BF0C5FD0A211C
S214004FD0064620462BF0C0FDA26AC4E90765564384
S214004FE0E26A030248BF434202FB05F5226B48BF54
S214004FF023F07F4002FB00F3360C1B0C2D0C2381A4
S2140050006062A680E5802CF0C2F8237E33B90123C7
S214005010237694F89E3060611733A8E742F2107248
S2140050206369C31A9342F2D82269B4F9081003FBE5
S21400503001222261064A23699342E8D3A3F55B1353
S214005040A3F53A532361E3680133E360F3E700BF57
S21400505080EE360010B50446FFF76EFF02210D48BD
S2140050602CF09FF8B4F8AE00B4F8AC10013080B263
S214005070A4F8AE0094F8B13094F8B02089B22CF0C1
S2140050804CF904F134004FF47A71BDE810402CF06E
S21400509075B800BF866104002DE9F8430D46164634
S2140050A09846044610B3B0220021043017F08EF95B
S2140050B040F29D1240F20513C4E90A236923DFF883
S2140050C0889023634246314628461A4B25806680E0
S2140050D0C9F800402CF062F8074660B1002332465B
S2140050E029461548C9F8003016F05EF84FF0FF372D
S2140050F03846BDE8F8832CF04AF8012384F85C3083
S2140051000E4B6061C4E92834032384F8A8300C4BA6
S214005110C4E90D343434204601F05EFA20464FF4DC
S2140051207A712CF02BF8434632462946054816F08D
S2140051303BF8DDE7214F0000DEBE03008861040077
S214005140555000000BBF03006416002058B101B193
S214005150816202B1C26203B10363816AD0E90B23A4
S214005160014816F021B870473CBF03002DE9F8430C
S2140051700E4617461D460446002846D092220021B9
S214005180063017F023F9224A224B3046C4E915238D
S21400519043F273630022E365114626806780A5808C
S2140051A02BF0CCFF0022A071114638462BF0C6FF2C
S2140051B000224FF001081146E07128462BF069FFE7
S2140051C028462BF085FF84F83C802BF0E0FF124B3E
S2140051D004F16009C4E91834206284F889804846DE
S2140051E001F0FAF90D4B3A463146C4E923340C482F
S2140051F02B4684F8948015F0D7FF484641F2883154
S2140052002BF0BCFF0020BDE8F8834FF0FF30FAE734
S214005210305C020076CF0100B30C0300A0610400EE
S21400522061BF030058B101B1416502B1826503B1A7
S214005230C365416DD0E91623014815F0B5BF704728
S21400524095BF030013B5C8B1C2B1012910D0022919
S21400525011D099B9836C543083B11404B4FBF3F4C1
S21400526004600848009415F09FFF002002B010BDAF
S214005270C36C5830F0E7036D5C30EDE74FF0FF305D
S214005280F4E700BFBBBF030070B5044600F13C0660
S21400529080F83B1030460D462BF075FF238F1BB170
S2140052A094F83A30AB4205D129462046BDE8704016
S2140052B02BF074BD054B3046C4E90F3401F08CF971
S2140052C03046BDE8704014212BF058BFC50D0300D2
S2140052D070B51E46838804460D46C18002810BB118
S2140052E0868070BD3C302BF04EFF94F83430BBB156
S2140052F094F83610002908BFFF2120462BF04EFDFB
S2140053000123E370074BA680C4E903340C3420461F
S21400531001F062F929462046BDE870402BF02EBF0A
S214005320FF21EAE7330E030010B501790446B1FA0F
S21400533081F1008849092BF028FE21796088B1FAAE
S21400534081F149092BF021FE034B1A68A24204BFE3
S21400535000221A6010BD00BF6816002070B54379A1
S2140053600446A3B100880E4E04F10805336813B155
S2140053700C4B1B786BB121792BF007FE64210A4B8E
S2140053803460A3602846BDE870402BF0F7BE408826
S214005390E9E7064815F008FF054B3221A360F1E760
S2140053A068160020225F002029530000F8BF030083
S2140053B05D53000010B50446E0B10F4815F0F4FE4A
S2140053C001236371A37953B9217920882BF0DDFD81
S2140053D0236B7BB1606B0121BDE810401847204667
S2140053E0FFF7A2FF04F108002BF0CDFE2046FFF7E2
S2140053F0B5FFEDE710BD00BF2EC0030010B5044694
S214005400F8B1104815F0D0FE00236371A3796BB98C
S21400541021792088B1FA81F149092BF0B6FD236B7A
S2140054207BB1606B0021BDE8104018472046FFF7AF
S2140054307BFF04F108002BF0A6FE2046FFF78EFF48
S214005440EDE710BD39C0030010B5044668B1074843
S21400545015F0AAFE637920461BB1BDE81040FFF7A1
S214005460CDBFBDE81040FFF7A5BF10BD45C0030087
S21400547010B50E4C0E48214615F096FE82210D48BA
S21400548015F092FE82210220A21E01F05FF801466E
S21400549030B134F8022C0848BDE8104015F084BE40
S2140054A00648BDE8104015F07FBE00BFAE5900208C
S2140054B054C003006FC003007AC00300BEC00300E0
S2140054C038B5114C82212246022001F02FF8A51C87
S2140054D0014688B122880D4815F066FE2A460C4B18
S2140054E003F1240153F8040B8B4242F8040BF9D164
S2140054F01B7813702423238035F8021C054A0648BF
S214005500BDE8384015F050BEAC590020C9C00300B5
S21400551049C10300AE59002027C10300034B1B7886
S2140055201BB18B4201D82BF01FBE7047B96E00200E
S21400553010B5044601460E4815F036FE012C11D172
S2140055400C4B0D481A884FF6FF739A421EBF002276
S214005550094B5A742BF0FFFC02F06CFCBDE81040BF
S21400556002F010BB0448BDE810402BF0F6BC00BFAC
S2140055706EC103006C6E00201069002070B5002418
S2140055801A4D1B4E3378A3421BDC0024194D1A4ECD
S2140055903378A3421BDC0024184D194E3378A342FF
S2140055A01BDC01F065F9012816481CD12BF0D3FC52
S2140055B002F040FC02F0E6FABDE87040124801F046
S2140055C077B92846FFF716FC01346035DAE7284637
S2140055D02BF07EFC01346435DAE728462BF0DAFC43
S2140055E001343835DAE72BF0B8FCE5E7C0240020B4
S2140055F0285F0020E0280020295F0020902200205D
S214005600275F002010690020315500002DE9F04F7B
S21400561087B0FFF755FFA44B05A805932BF0F8FCC1
S214005620054616F0CFFDA14CC2B21F2A627004D9FF
S2140056309F4815F0B9FD00F0B7FD2946A01C17F0ED
S21400564055F805A82BF0E4FC054616F0BBFDC2B2E3
S2140056501F2A84F8212001D99648EAE7294604F152
S214005660220017F043F805A82BF0D2FC322582461C
S21400567000269AF80040002C40F0D9808E4DFFF7A7
S2140056807DFF2B78DFF878B2DFF878A28B4E009398
S2140056909BF800309AF800203178894815F084FD90
S2140056A032789AF800109BF8000053180344DFF88D
S2140056B058822878254603444046DBB2A24200F3CF
S2140056C05A84012B38BF01237E4F02933A460023AB
S2140056D03D464FF482714FF6FF74029801339842AC
S2140056E013705180948002F10C02F6DC764B7549FB
S2140056F06E48AB6001F0FAF9E879AB6800EB400061
S21400570003EB800000F05CFFEB79DFF8F0910133EB
S214005710EB71B9F80030A34203D06A496B4801F038
S21400572035FB4FF6FF73B9F800206649D21A18BF4A
S2140057300122674802F066F94FF00009624C3378A0
S2140057404B4500F32184634B1B785BB1624B1B789F
S214005750012B07D15B49614801F0C6FD59496048F5
S21400576001F066FF00274FF00C085E4BDFF85491FF
S2140057709AF800203178BA4200F31B8402EB010845
S2140057800C21002701FB08919BF800009423B842E7
S214005790554A00F32D8437780C269AF800304FF0DF
S2140057A000081F44074406FB07964FF07009DFF811
S2140057B05CA1414B1B78434500F32F84454E464C75
S2140057C0337883B1217801290DD90C27013907FBDD
S2140057D00151424801F088FD21784148013907FB14
S2140057E0015101F025FF0299364800F07BFF40F298
S2140057F0055240F604312078367800F055FF002236
S214005800054640F20271207800F04EFF2946024617
S214005810304601F0D9F8059B23491A468B4240F0E2
S2140058201284324807B0BDE8F04F15F0BDBC532CCB
S21400583011D19AF801304C2B40F05B819AF8023077
S214005840502B40F056810122294B1A7005A82BF0E8
S214005850DFFB82460DE7442C15D19AF80130303B29
S214005860092BF3D80AF101002BF0DFFB214B224A6B
S2140058701978002385B2994202F16002E6DD22F82B
S214005880465C0133F7E7422C42D19AF80130542B9C
S21400589040F08D800AF1020000F030FE174B1880B1
S2140058A018462BF0FAF8D1E7AE5900200C68002015
S2140058B08DC10300A4C10300235F0020265F0020E3
S2140058C035C2030080190020F8190020E4160020D5
S2140058D06C160020215F0020B86E002034170020D0
S2140058E008100020841E0020C81C002085C203006B
S2140058F0225F0020285F0020C02400206C6E00205D
S214005900245F0020255F0020E41F0020781B002075
S214005910582C33D8412C99D9433C152C96D801A342
S21400592053F824F0F15C00004D580000875D00003D
S2140059304D5800004D5800004D580000415A0000D8
S2140059404D5800004D580000F159000093590000D2
S2140059504D5800004D5800004D5800004D580000AE
S2140059607B5B0000F35A00004D5800004D580000C5
S2140059704D5800004D580000035C0000692C7FF471
S21400598065AF0AF101002BF050FB80B22BF0E4FB70
S2140059905CE7C84B012019780023C74A994202F1F8
S2140059A0A8027FF753AF02F8A60C0133F6E70AF118
S2140059B0010000F0A3FD04460AF103002BF0ADFB46
S2140059C00121024620462BF064FB6021BB48BC4FF9
S2140059D0037859437A187C524FF4FA6111824FF4D7
S2140059E048715161B74901335583116503702DE73E
S2140059F00AF1010000F082FD00224FF064088146A3
S214005A00B14F11462BF045FBB04C3E780AF103012E
S214005A1008FB06F306FB0846304624F803902BF0F6
S214005A20DDFA304601262BF053FA00213B78A84ACF
S214005A3003FB084433441460516016743B7005E75A
S214005A400AF1010000F05AFD00224FF0640881467A
S214005A509D4C11462BF01DFB9C4F23780AF1030149
S214005A6008FB03F203FB0878404627F802902BF069
S214005A70B5FA40462BF02CFA964A00231046116DD4
S214005A8039BB582202FB03006423227802FB03730F
S214005A900365894A00231046D2F8A410F9B9A82253
S214005AA002FB03006423227802FB0373C0F8A430D1
S214005AB05EB9874A3346114652F8040BA8B96422E9
S214005AC0207800FB027241F82320237801332370EC
S214005AD0BCE60133042B02F15802D0D1D9E70133DA
S214005AE0042B02F1A802D7D1E2E70133042BE3D15D
S214005AF0EBE70AF1010000F001FD07460AF103009A
S214005B002BF00BFB0121024638462BF0C2FA60212F
S214005B106A486B4C0278DFF89CC1514363186752A1
S214005B204FF44871198259616B495D8399659AF8FB
S214005B300310A827642904BF012199709CF800303F
S214005B40DFF874E15F430EEB07010EF807304FF401
S214005B5000774F8003270F718F7102EB420704EB2B
S214005B6047148C6032240133DBB201324B7181F86A
S214005B70A04002708CF8003068E60AF1010000F0E0
S214005B80BDFC00224FF0380B80464FF00109534F02
S214005B9011462BF07EFA3B78514C0BFB03F3E218D0
S214005BA024F8038082F804909AF80330692B15D104
S214005BB00023137158224B4946480B785A4300EB92
S214005BC0020C835438780133C0EBC00204EBC204E5
S214005BD0421CCCF84C403A700B7037E6002BE9D0EC
S214005BE00AF1030000F08AFC0022804611462BF0E2
S214005BF050FA3B780BFB0343A3F8028083F8069029
S214005C00D8E70AF1010000F079FC07460AF1030024
S214005C1000F074FC04460AF105002BF07EFA80467C
S214005C200246012138462BF034FA4246204601212E
S214005C302BF02FFA6020DFF884E0214A9EF800302F
S214005C40DFF8948000FB03FC02EB0C0122F80C70DA
S214005C504FF4487C4D83A1F810C0C1F814C0C1F8B9
S214005C605880591CC9B24843145294241718A7F8F0
S214005C7010C0C7F814C07D83C7F858801A4F981C08
S214005C808EF800003878DFF864C0444303EB430323
S214005C9001EB41010CEB040E02EB431302EB411245
S214005CA00CF80400CEF80430CEF808200130387026
S214005CB0CCE500BF265F0020E41F0020285F002000
S214005CC0C0240020C70F0300295F0020E028002022
S214005CD010690020841E00201D550000275F00204C
S214005CE090220020255F0020245F0020C81C002092
S214005CF00AF1010000F002FC80460AF1030000F001
S214005D00FDFB00220746114640462BF0C2F9002252
S214005D103824114638462BF0BCF9D048D04A0378D0
S214005D204FF0000E04FB03FC22F80C804FF0010835
S214005D3002EB0C0181F806E081F8048003EB080111
S214005D40C9B24C4302EB040C17539C1C047070241D
S214005D50C44F8CF806E038788CF804804443DFF8AB
S214005D6034C3C3EBC303C1EBC1010CEB040E02EB5F
S214005D70C30302EBC1020CF80400CEF80430CEF8E0
S214005D800820404493E79AF80130502B75D15146CD
S214005D90B54815F009FA0AF1020000F0AFFB074615
S214005DA00AF1040000F0AAFB80460AF1060000F0A3
S214005DB0A5FB4FF6FF739F4281463FF447AD9845DB
S214005DC03FF444AD98423FF441AD0346424639465F
S214005DD0A648FFF7CBF9044600287FF437AD0AF152
S214005DE0080A562150462BF0F0F841210290504602
S214005DF02BF0EBF85721834650462BF0E6F8029B33
S214005E0082461A78562A03D1581C2BF00EF90446FF
S214005E109BF80030412B2BD10BF101002BF005F93C
S214005E2083469AF80030572B25D10AF101002BF053
S214005E30FCF803465A4621468C48FFF7F3F98B4890
S214005E402AF0A3FF8A4C014620608A4801F00EFA29
S214005E50216889482BF0EFFB0123884A39461370E6
S214005E60874A884813704B46424615F09DF9EDE484
S214005E704FF0000BD5E70023DCE7422B7FF4E6ACBF
S214005E805146794815F090F90AF1020000F036FB09
S214005E9007460AF1040000F031FB4FF6FF739F42FD
S214005EA080463FF4D3AC98423FF4D0AC0AF1060AE1
S214005EB0532150462BF089F803788B4253D101309A
S214005EC02BF0B3F80346424639466F48FFF7E4F82E
S214005ED0044600287FF4BAAC562150462BF075F8DD
S214005EE04121834650462BF070F857218146504694
S214005EF02BF06BF89BF800308246562B04D10BF142
S214005F0001002BF092F8044699F80030412B2DD171
S214005F1009F101002BF089F881469AF80030572BDA
S214005F2027D10AF101002BF080F803464A462146A5
S214005F305548FFF70BF954482AF06EFE4C4C0146C4
S214005F4020604C4801F092F921684B482BF073FB17
S214005F5001234A4A39461370494A4C481370424650
S214005F6015F022F972E44FF49653ACE74FF00009AF
S214005F70D3E70023DAE7477901348F4284BF0571FF
S214005F804571A830FFF79ABBB9F1000F06D017F895
S214005F90053C03EB430304EB8304BC6039464046F0
S214005FA002F026F909F1010908F1A8080C37FFF7F5
S214005FB0C6BB79180AD04A1E08FB0292D27902EBB9
S214005FC0420204EB820408FB01929460184608FB28
S214005FD00151039301F092FE31782D48394408FBB5
S214005FE0015101F0E7FA039B01375833FFF7C0BBB6
S214005FF017EB080F18BF11F8050C03911EBF00EB36
S214006000400004EB80048C6003FB072001F082F85C
S214006010039901370C31FFF7B7BB18EB070F18BF12
S21400602016F8053C31461CBF03EB430304EB830420
S21400603009FB08A018BFB46000F042FF08F1010891
S2140060400C36FFF7B6BB13F8011D00297FF4E4AB4E
S2140060503B2102F8011CFFF7DFBB00BF275F0020D3
S21400606090220020235F0020B4C10300E81800201F
S214006070301800203417002008100020215F002070
S214006080B86E0020E2C103003418002011C20300DD
S21400609084220020781B002008B5094B1B786BB1C2
S2140060A008482BF0A8FA07482BF0C4FA064801F077
S2140060B04BFBBDE8084004482BF0CFBA08BD00BF34
S2140060C0215F00203417002008100020034B1B78A7
S2140060D013B103482AF061BE704700BF215F00205D
S2140060E0E818002007B5012121200DF1070200F075
S2140060F01DFA18B99DF80720024B1A7003B05DF818
S21400610004FB00BFB96E002007B5064B8DF80700EC
S214006110187001210DF10702212000F017FA03B0D4
S2140061205DF804FBB96E002007B5022101200DF1D1
S214006130060200F0FBF938B9044815F035F8BDF84A
S214006140060003B05DF804FB0020FAE7A2C20300D5
S21400615007B50221ADF806000DF10602012000F099
S214006160F5F9014610B1034815F01EF803B05DF8C6
S21400617004FB00BFC3C2030010B5FFF7D5FF0446FB
S2140061800146074815F010F80121064815F00CF8EE
S21400619024B9BDE810400120FFF7DABF10BD00BFEC
S2140061A0F3C2030005C3030008B5044814F0FCFF5F
S2140061B000F0DCF92AF0D8FF2AF0D3FF1BC3030057
S2140061C038B50446084D094B28462B6000F004FA03
S2140061D0002C18BF21462846BDE8384008BF4FF4BB
S2140061E096712AF0CBBF00BFD42A002049100300C6
S2140061F02DE9F043384D91B008AC074689469046E5
S2140062000FCD0FC495E80F00002684E80F00012587
S2140062100323324C3248CDE90366CDE905668DF896
S2140062200E300796029535F089FB2E4835F086FB32
S21400623032462D4920468DF8176005F001F93346A1
S21400624032462A498DF81900009020468DF8239092
S214006250CDF82C808DF8216005F00CF90A902046C8
S2140062608DF8097005F06EF8204608AA05A905F015
S21400627027F902AA204603A92CF01EF94FF4007253
S2140062801B4B5A62194BE560626A920510D46BB9D3
S2140062904FF40072164B11485A6205F053F8114835
S2140062A035F04FFB002011B0BDE8F083013BEBE773
S2140062B0002BEDD0094908A82CF031F94FF40072F4
S2140062C00B4B06485A6205F03DF8064835F039FB98
S2140062D0BDF82000E7E700BFB86104000040005AA0
S2140062E0506404004C64040080841E0040420F008A
S2140062F00060005A0122034B1870034B1980034BB1
S2140063001A7070472B5F0020746E00202A5F0020F2
S214006310F8B5454B1B780BB90020F8BD434B1B78EE
S214006320012B03D1BDE8F8402AF091BE404B1C88F3
S2140063304FF6FF739C42EFD03E4835F0FFFA00233D
S214006340260AE4B21A462146304604F0BBFF012E68
S214006350354604F0010335D015D9B51E012DDBD81E
S214006360002B0BBF4FF480754FF080754FF47061B3
S2140063704FF070610BBF01274FF480370F204FF4AA
S21400638070202D4B11E0002B0BBF4FF480754FF0A3
S21400639080754FF470614FF070610BBF01274FF4AA
S2140063A080370F204FF47020244B1A6802401CD010
S2140063B0BA421AD01A680A4032D11A6822EA010292
S2140063C02A4316E0002B0BBF4FF480754FF0807504
S2140063D04FF470614FF070610BBF01274FF48037A8
S2140063E00F204FF47020164BDFE71A6822EA0002EF
S2140063F03A431A602AF02BFE054600288CD0083651
S21400640044EA06102A460321C0B2FFF7F1FE40F622
S214006410FF73684300F2FF70B0FBF3F080B27CE7D6
S21400642095427FF479AFC8E72A5F00202B5F0020F3
S214006430746E00205064040028C3035020C3035029
S21400644024C3035010B5044C237823B9034835F011
S21400645075FA0123237010BD2D5F002050640400E0
S2140064602DE9F0431F4C85B0074688469146FFF756
S214006470E9FF23781BB902F0D5FB012323707BBA12
S214006480ADF80C3030220023174E02FB03F4315DCA
S214006490A51901BB012333554FF0FF3304F110005B
S2140064A012493044AB606F80C5F80480C5F80C9084
S2140064B009F04AFE04F10801042231440C4B009511
S2140064C003A802F085FCA96802460A4814F06CFE90
S2140064D005B0BDE8F0830133102BD6D1064814F082
S2140064E063FEF5E72C5F0020FC2A002073100300F3
S2140064F08510030028C3030056C3030080B102784A
S214006500A2F14103032B0BD840783038C0B20828DC
S21400651006D8054B134413F8413C40EA0320704765
S2140065204FF6FF70704700BFD861040008B50B46F1
S21400653042B101460448006803F08EFDBDE80840FD
S2140065402AF004BE022008BD7C69002008B50B4670
S21400655042B101460448006803F006FFBDE8084063
S2140065602AF0F4BD022008BD7C690020F0B50026A4
S214006570124F8DB0FF2300930A223346386802A9D3
S2140065802BF057FDC0B102AB1D4603EB800404E0C0
S21400659055F8043BB34228BF5E1CAC423868E9D9C4
S2140065A0296804F067F80028F2D02D28F0D00DB046
S2140065B0BDE8F0402AF0CABD0DB0F0BD7C690020F1
S2140065C028B1034B0360034B43600023836070478E
S2140065D01900000324690020FF2307B50021044AA0
S2140065E00093083009F034FD03B05DF804FB00BFEB
S2140065F0771103000B4604490246086803490978E8
S21400660008B12AF0E3BD7047082E00202F5F002057
S214006610F7B50C4618B12F21194835F0E6F924686D
S21400662023685E795F8830463946FFF7E3FFF0B1AE
S2140066308568E5B1A089227D3946904291BF002049
S214006640801AA36880B294BF03469B18E27C009031
S2140066503046A8470138032803D8DFE800F0080FC3
S2140066600B0D002420462FF016F8204600E081206F
S21400667003B0F0BD8024F5E79324F3E78724F1E721
S2140066807EC3030007B50B4600920549024605483F
S214006690097800682AF0BCFD03B05DF804FB00BF73
S2140066A02F5F0020082E002007B50B4600920649F3
S2140066B002460648097800682AF0AAFD003818BF86
S2140066C0012003B05DF804FB2F5F0020082E002099
S2140066D008B5034B1B6803B19847002008BD00BFF0
S2140066E0042E00202DE9F74F04460D460026454BA4
S2140066F0454F1860454B197033010021F85C013690
S21400670010F076FD0C2EF7D10C2D28BF0C254FF07F
S214006710000901953C4EDFF800A13D4DDFF8FC80F6
S214006720019B4B4502DC03B0BDE8F08F23784FF0A9
S214006730000B337063887380A388B380A379C6F890
S2140067400880B371E379C8F8005088F804304FF039
S2140067500003A768A8F80630E3795B450ADC012148
S21400676016F8100B10F044FD08F1080809F10109AD
S2140067700C34D5E74FF0000338886B812880FB780F
S2140067804FF0000C2B81BA78C5F804A0002A0092BE
S2140067900CBF802240222A7379680AF10C026345F6
S2140067A013DC03EB43030AEB830ABB6843B1009A8E
S2140067B04FF6FF71B2FA82F2164B52092EF0FBFE2C
S2140067C014350BF1010B0C37C6E7B1F800E00CF1FD
S2140067D0010C22F80CEC91F802E00C3202F816ECF0
S2140067E091F804E00C3102F815EC11F809ECBEF152
S2140067F0010F14BF4FF0100E4FF0110E02F814ECFC
S214006800CDE700BF082E00204C4500202F5F00205B
S2140068100C340020116600000C2E00208C36002060
S214006820014B1860704700BF002E0020014B186017
S214006830704700BF042E002070B5128805460E462D
S214006840FFF720FF044670B102790499806815F0BE
S2140068500FFE064B1B680BB9002070BD314628465C
S21400686022889847F8E78620F7E700BF002E00202A
S21400687008B50FF059FD022806D0012806D0044BB3
S21400688018784000C0B208BD0120FCE70220FAE7F5
S2140068902E5F0020054B10B51C682CB1FFF7E8FFF3
S2140068A02346BDE81040184710BD00BFFC2D002051
S2140068B0014B1860704700BFFC2D0020034B1A7870
S2140068C01AB901221A700BF08FBD70472E5F002098
S2140068D00022024B1A70FFF7DDBF00BF2E5F0020BC
S2140068E037B50446002832D00FF01EFD022830D1FE
S2140068F060892FF032FAE079237A003818BF012039
S214006900012B637A08BF40F008000BB140F010007E
S21400691063890BB140F00400257CA188A2790DB1F3
S214006920E36873B90C4B11F03FF82178084611F074
S214006930B7F82EF03BFD002814BF0320002003B05C
S21400694030BDCDE90035054B11F02EF8EDE70220FD
S214006950F5E70120F3E700BF80160400F5E5030025
S21400696008B50DF09FFE014630B1044814F01CFC3B
S214006970BDE808400EF03ABA08BD00BF0CC40300DC
S214006980024B187C00B11868704700BF10690020E1
S21400699070B50C4D01232C4615F8016F864204D0C5
S2140069A00133D618252EF7D970BD23440A24B1FB2F
S2140069B0F4F004FB101130319954013A0146F6D137
S2140069C0F2E700BFBA6E002030B5C0B100290CBF98
S2140069D030203120002A0CBF302431242522002309
S2140069E0084911F8015F3F2D06D1002B14BF25463C
S2140069F0054601330D70DBB2013AF2D130BD2D20D1
S214006A000446EBE7BA6E0020034B044A5B7C012188
S214006A1003201370FFF79ABD10690020305F002036
S214006A2037B50446FFF7F0FFB4F57F4F27D10025B2
S214006A30204B1A8813449D70FEF71AFD2846FFF770
S214006A40BFFB1D4D2A68C2B1FFF79AFFA8B14FF6EB
S214006A5005739C4224D192F841102AF058FA2B680C
S214006A600421B3F8422093F841303220ADF80620D6
S214006A7001AA8DF80430FFF769FD03B030BD4FF66C
S214006A8001739C4203D10D482AF04DFAD9E74FF620
S214006A9002739C42D5D10A4B1878FFF735FBD0E736
S214006AA04FF606739C42E8D1B2F842102AF039FA43
S214006AB0D5E700BFAC590020EC3600201069002056
S214006AC0B96E002010B5074C012122460320FFF7BF
S214006AD02DFD28B92378044A003B18BF01235374C0
S214006AE010BD00BF305F0020106900207A4BF7B55C
S214006AF01A884FF6FF739A4218BF03234FF0080216
S214006B000D467649044618BF0B70754B36201A7032
S214006B1030229A705A71DA713322187137201A723D
S214006B204FF4001298716F486264E0646E48012268
S214006B3020656E483227A0656D48A618E0656D484A
S214006B40E66760666C486D4EA0666D485F702067AD
S214006B506C48DF706067202084F8780084F8840032
S214006B6004F12100C4F888006748C4F8806084F8FF
S214006B70482084F8542084F8602084F86C20C4F8F8
S214006B808C0084F89020C4F89410C4F8B8305F4B9A
S214006B905F49C4F8BC300223C4F898105D4984F8F5
S214006BA0C030C4F8A41026215B4B84F8A810C4F8A3
S214006BB0C4305A4B5A49C4F8C8308223C4F8AC10C3
S214006BC0584984F8CC30C4F8B0100921564B574EBB
S214006BD0C4F8D030564B84F89C20C4F8D430554BBB
S214006BE0C4F8A040C4F8DC30337C84F8B41084F8D1
S214006BF0D820002B6AD0504B84F8E420C4F8E0304C
S214006C0006F11103C4F8E830FFF7BAFE90F8343006
S214006C10002B5DD090F83630042184F84130FFF721
S214006C20AFFE038F01AA3846A4F84230FFF77EFC79
S214006C3038B99DF8043084F84130BDF80630A4F821
S214006C404230FFF79DFE94F841102AF060F9FFF7F6
S214006C5097FEB4F842102AF064F9384B10211C60F5
S214006C60374BC4F8EC30012384F8F03004F14103CC
S214006C70C4F8F430334BC4F8F830022384F8FC3000
S214006C8004F14203C4F800314FF0000CEA79A8681A
S214006C9002EB42039F0000EB830320F807C0D97085
S214006CA00121443499705C605318EB71FFF71AFAAF
S214006CB0FFF708FFFFF7DCFD01280BD1337C4BB153
S214006CC01A4803B0BDE8F0402AF02DB90D21DBE7E5
S214006CD00E21D9E703B0F0BD6C6E0020E06E0020F8
S214006CE0315F0020E161040001002000E061040043
S214006CF002002000DF6104000300200005004200BF
S214006D00DE6104000400420007003000FDFF2100A1
S214006D101200100100404200DC61040000FF440144
S214006D20BA6E002006004200AC5900201069002010
S214006D3002FF2001B96E002001FF1001EC36002092
S214006D4005FF200106FF210113B504460D4829F072
S214006D50AFFE6422C0F30F43637083B2B3FBF2F35B
S214006D60A0782370202201212AF06DFAA078212233
S214006D7001212AF068FA0449201D02B0BDE810403F
S214006D802AF0FCB96C6E0020E09304000B7870B516
S214006D9083704CF61E0303804FF02013C36201235A
S214006DA080F8303080F83C30C3180364124B044639
S214006DB043640223114A80F84830114B8263C3644F
S214006DC04063CA798D6802EB420305EB830004F149
S214006DD02C0646600B4E45F8236000238360531C48
S214006DE0CB71094B201DC4E90134FFF7F5FB2046A3
S214006DF0BDE87040FFF7A8BFFDFF2100210020007E
S214006E00E261040001000103496D0000437B044A6F
S214006E100121137000781130C0B2FFF797BB00BF96
S214006E203B5F002038B504460078054D11302A46F1
S214006E300121C0B2FFF77AFB08B92B78637338BD1F
S214006E403B5F0020024B53F820002AF004BB00BF33
S214006E50F0360020012908B506D0022907D049B926
S214006E602AF0F0FA002008BD2AF0EFFAFAE72AF036
S214006E70EFFAF7E7024814F097F90120F3E700BFAE
S214006E8039C4030010B4054C114654F820001A46C5
S214006E90BDF804305DF8044BFFF7DCBFF036002089
S214006EA0002310B5044683810364A0F844304830BC
S214006EB0FFF792FB014BC4E9123410BD3D140300EA
S214006EC038B504460B781A4A43700D4642F823003C
S214006ED0FFF7E6FF2046FFF7A5FF4FF440132361B8
S214006EE00123144A2375A261134A84F82030E26114
S214006EF0124A84F82C306262114A84F83830A26252
S214006F0004F10C0222630F4A04F10D036263E3638B
S214006F10EA79A86802EB420300EB830110344C6068
S214006F20094C40F82340094B8B60531CEB7138BD6D
S214006F30F03600203A5F002008002000E16E0020B6
S214006F4000FF300001FF100102010104856E000001
S214006F5010B47024427B0D48013A012904FB02005C
S214006F6006D0022908D059B95DF8044B2AF06ABA4F
S214006F705DF8044B2AF069BA5DF8044B2AF068BA4B
S214006F8003485DF8044B14F00FB900BF781B0020CF
S214006F9055C40300B0F85C302DE9F0418B4204463E
S214006FA00E4638D0437B077C8BB31C4A12789A4235
S214006FB02DD370251A4A013B05FB032390F80F805A
S214006FC01B7B42462AF055FAB845054601D1FF28F4
S214006FD01FD13A463146204694F890302AF049FAB6
S214006FE02F460546552212216078A4F85C602AF0E8
S214006FF02AF9FF2F03D039462046FFF7A9FFFF2DB9
S21400700009D029462046BDE8F0412AF072BAFF258D
S214007010DFE70746E6E7BDE8F08100BF235F002014
S214007020781B002041688268C978D27849B112B1CD
S2140070300321FFF7AFBF837B002B0CBF012102218A
S214007040F7E72AB1837B002B0CBF02210121F0E772
S214007050014814F0A9B800BF66C40300037BD3B18F
S2140070604368DA7812B18268D278A2B91B7933B154
S214007070837B002B0CBF04210521FFF78BBF8368A1
S2140070801B792BB1837B002B0CBF05210421F4E771
S214007090014814F089B8704798C40300084A437B37
S2140070A005211370837B5370C37B9370037CD3706E
S2140070B0037B137100780E30C0B2FFF747BA00BFEB
S2140070C03C5F002038B5044600780C4D0E302A464A
S2140070D00521C0B2FFF72AFA20B1BDE838400848BB
S2140070E014F062B82B7863736B78A373AB78E37392
S2140070F0EB7823742B79237338BD00BF3C5F0020E8
S214007100D4C40300024B53F820002AF03CBA00BF58
S21400711018370020F8B504460B78424A43700D46EF
S21400712042F82300404E2AF04CFAFFF7CBFF626885
S214007130A3683E483E49D6641165D4655065C3E9E8
S2140071401410DE64DC654FF0987302266361012339
S21400715004F10C01E16137491032216204F10D019E
S214007160A16235492376E16204F10E016163334979
S21400717084F82430A16304F10F012164304984F8B7
S2140071803030616404F11001E1642E4984F83C302B
S21400719084F84830216584F85460A265E879A968C7
S2140071A000EB400201EB820704F1140CC7F804C0A0
S2140071B04FF4817C244F41F82270C218D2B202EB01
S2140071C0420241F822C001EB820700227A601F4A81
S2140071D084F8703022661E4A84F88830A2661D4AFB
S2140071E01D4BE2661D4AC4F88C3062671C4A831940
S2140071F0A26704F15C02C4F88020DBB2194A03EBF4
S2140072004303C4F8842084F8646084F87C6001EB4F
S214007210830260345460144A033041F82320E87136
S214007220F8BD00BF18370020257000004915030080
S2140072305D70000001002001020010010300300113
S214007240040030010500210101FC01064A0021006E
S214007250E461040051001000E6610400E7610400E8
S214007260550021006F0018001200010438B50D46C5
S214007270044678B171B1FC22002115F0A7F8092365
S214007280A3600123044A6560626102F5617263824D
S214007290A261A38338BD00BF640001001FB5044689
S2140072A0E0B14368D3B16A4610212C20FFF73EF9BF
S2140072B0A0B90B4B009A9A4210D1606840B103689F
S2140072C033B15C6924B1DDE9022301994068A04727
S2140072D0DDE902230199034813F066FF04B010BDF0
S2140072E043574C4803C50300F0B4002800F09F80C5
S2140072F0002900F09C804FF4D812026300F10802C7
S21400730082634C4A0424C263022200F10C054564E1
S214007310494D80F83440856400F10E050565474DFB
S21400732080F84020456500F11005C565444D80F89D
S2140073304C20056600F112058566424D80F85820FF
S214007340C56600F1140545673F4D80F864208567E3
S21400735000F11605C0F880503C4D80F87020C0F84B
S214007360845000F11805C0F88C50394D80F87C2008
S214007370C0F8905000F11A05C0F89850354D80F8C6
S2140073808820C0F89C5000F11C05C0F8A450324D6F
S21400739080F89420C0F8A85000F1200580F8A020BE
S2140073A080F8AC40C0F8B05080F8B84000F1240433
S2140073B0C0F8BC40294C2A4DC0F8C040012480F8D3
S2140073C0C44000F12804C0F8C840264C80F8D020FD
S2140073D0C0F8CC4000F12A04C0F8D440224C80F813
S2140073E0DC20C0F8D84000F12C04C0F8E0401F4C68
S2140073F080F8E82000F12E02C0F8B450C0F8E4404F
S214007400C0F8EC20CC798D6804EB440205EB8206CC
S21400741000F130077760164E45F82260621CCA718C
S2140074200A78F0BC0270134A1060FFF737BFF0BC52
S214007430704700BF05052100080521000B0529003F
S2140074400006210001062100020621000306210095
S214007450040621000506210000FF230002FF20008D
S21400746001FF230010FF210111FF210112FF21015E
S214007470040B01104037002030B5204B89B01C6843
S214007480002C2FD0237883422CD1606850B34FF65F
S2140074901173994228D04FF61273994229D04FF6AD
S2140074A0107399421ED10021628D04F12A052AF03C
S2140074B098F800232B80A8B9636833B11A6822B104
S2140074C0126912B1586801A990470D4B1021049318
S2140074D0019B2C200593029B04AA0693039B07930B
S2140074E0FFF734F809B030BD0121A28D04F12C0558
S2140074F0DDE70221E28D04F12E05D8E740370020B3
S21400750043574C4870B50D460646144613460A4681
S2140075100146244813F048FE25B92046BDE87040D1
S214007520FFF77EBA072D05D121463046BDE87040EC
S21400753000F022BE4FF601439D4205D1214630465B
S214007540BDE87040FFF7DEBD062D05D1214630466A
S214007550BDE8704000F08CBBB5F5817F05D12146B3
S2140075603046BDE87040FFF76DBC40F202739D42A6
S21400757005D121463046BDE8704000F037B940F6E8
S21400758004339D4205D121463046BDE87040FFF7E2
S21400759073BF202D04D12046BDE8704000F0FEB930
S2140075A070BD00BF33C503000148FFF739B900BFFF
S2140075B0057500004FF4C01330B503600123037156
S2140075C0074B8C688360CA7902EB420304EB8305A1
S2140075D06860044844F82300531CCB7130BD00BFDC
S2140075E0E86104000400010113B5044680B1007888
S2140075F06A4627300821C0B2FEF798FF50B9DDE989
S21400760000230948C4E90223C4E9242313F0CCFD6F
S21400761002B010BD002200230448C4E90223C4E9D6
S214007620242313F0C1FDF3E766C5030091C50300EC
S21400763070B50D460446002858D0002956D00B7861
S21400764004F1200603702A4B1860FFF7CDFF4FF4B5
S21400765014132362082304F110026263254A84F897
S2140076602430A26304F111022264234AE318626400
S2140076700422A362214B84F84820E362012384F8A5
S214007680542004F11802A2651D4A04F11401E265B3
S21400769004F11C0262661B4AE164A26604F11D0244
S2140076A022671949194A84F8303084F83C3084F847
S2140076B0603084F86C3084F8783004F11E0321655D
S2140076C06267E367EA79A96802EB420301EB83008D
S2140076D046600F4841F82300531CEB712978D4E923
S2140076E002230C48BDE8704013F05EBD70BD00BFBD
S2140076F04437002000033000010322000002180077
S21400770003031800060318000203220000F02001FD
S21400771002070108BFC5030013B5044678B1D0E9D7
S21400772002230078CDE9002327306A460821C0B23C
S214007730FEF70CFFD4E90223024813F035FD02B031
S21400774010BD00BFF0C5030030B5044689B040B395
S214007750436833B31A6822B1126812B1586801A997
S21400776090479DF81030E3B10399D4F880208A4200
S21400777007D8D4E902308A1A9B1840F10000C4E901
S2140077800230C4F8801029F002FDD4F88430064A8E
S214007790C31A9342054604D92046FFF7BDFFC4F836
S2140077A0845009B030BD00BFDF93040010B5044616
S2140077B0C0B1002300220021C0E90223C0E924232F
S2140077C04368C0F880102BB11A681AB152680AB123
S2140077D0586890472046FFF79FFFBDE810400248D4
S2140077E013F0E2BC10BD00BF18C60300B1F5704F21
S2140077F0034607D1044A106820B102789A4201D1A4
S214007800FFF7D4BF704700BF443700200368064A1E
S2140078100C21136043685360038913814389222037
S2140078205381FEF793BE00BF4837002010B50368AB
S214007830044686B0FBB1114813F0B6FCA37B104A91
S2140078408DF804304FF48273ADF806300123CDE98D
S2140078500223002301A804938DF81430FFF740F8A4
S2140078602046618929F0FAFE2046FA2150F8143B9A
S214007870594329F083FC06B010BD00BF39C603008B
S2140078802000000110B5064C236843B1054813F0EC
S2140078908BFC2068BDE81040418929F0DFBE10BD92
S2140078A0543700205AC6030070B5364910460C6897
S2140078B0BDF81020002C5ED003285CD8DFE800F06E
S2140078C0021E2745002B5AD0022A58D91D78B3F835
S2140078D00160291E18BF012132462B4813F064FCB4
S2140078E02DB13146204629F0B9FE002070BDE57363
S2140078F0FA206368584329F0E7FCF6E7234813F0BC
S21400790053FCE37B002B38D00023E373F0E7002B17
S21400791035D0032A33D91D681D48294613F044FC88
S2140079201C4B2A1F9A4201D90220DFE723680BB1BD
S2140079309D42F9D823899D42F6D3E37B6560B3B9AF
S214007940FA20684329F0C0FC11E0002BCED0012AB3
S214007950CCD91D881048294613F026FC002DE3D00C
S21400796063689D42E0D8E37B2581002BE8D1204662
S214007970FFF74CFFB9E70120B8E70420B6E703207D
S214007980B4E700BF543700207DC60300B4C603002A
S214007990D3C60300FCFF6D00FEC6030038B5154BCA
S2140079A01C6834B3F0B92168134813F0FDFB236854
S2140079B03BB16268934204D2104813F0F5FB63684B
S2140079C0236004F11405284629F0DDFB236823B163
S2140079D0FA212846594329F0D1FB2046BDE8384015
S2140079E0FFF714BF032804D16189054813F0DCFBB8
S2140079F0F3E738BD5437002029C7030057C70300F4
S214007A008CC7030070B53E4B0D46044609781860D7
S214007A10002A6FD101231A46A1730021E1730121C8
S214007A20A1814FF46151C4E900132823354E228109
S214007A300C21324622206381FEF778FD60B9D6E934
S214007A4000230AB19A4207D3318999429FBFC4E9FD
S214007A5000237389218163812B4B2C4AE363042323
S214007A6084F8403084F84C30E3182365284BA26431
S214007A706365022304F10802E265264A84F858305A
S214007A80226604F10A02A266234A84F8643084F867
S214007A90703004F10C03E26663676464EA79A868F0
S214007AA002EB420300EB830104F13C064E601B4EE2
S214007AB040F82360FA261A4B1A488B60531CEB7169
S214007AC0FEF7B4FE208904F11405704329F0FCFB90
S214007AD06189204629F0C2FD134B2846C4E90534C7
S214007AE0FEF77AFD216849B128467143BDE870402B
S214007AF029F044BB4FF4F07302228DE770BD00BF3F
S214007B0054370020483700200000230101002300DE
S214007B100200210003002101FDFF210020000105D5
S214007B20A9780000857800002D780000134B10B56A
S214007B301C680CB3E37BEBB129F029FB2369C01A60
S214007B40002809DB0E4813F02FFB0023FA20E3730E
S214007B506368584329F0B8FBE37B5BB12489FA23BA
S214007B605C4329F0BCFBA04206D02046BDE810408E
S214007B7029F0AABB6468F2E710BD00BF54370020A6
S214007B80B9C7030038B50024044D55F8040B08B1F6
S214007B9029F077FD01340A2CF7D138BD583700207C
S214007BA0042908B50AD172B16BB113781BB929F054
S214007BB093FD002008BD29F085FDFAE7034813F081
S214007BC0F3FA0120F6E70320F4E700BFF3C703004B
S214007BD010B4054C114654F820001A46BDF804307F
S214007BE05DF8044BFFF7DCBF583700200229024639
S214007BF008B50ED004D839B9104629F06DFD06E058
S214007C004029F9D0412907D1104629F05BFD002014
S214007C1008BD29F06BFDFAE7024813F0C5FA01200B
S214007C20F6E700BF13C8030010B4054C114654F81D
S214007C3020001A46BDF804305DF8044BFFF7D6BFA7
S214007C4058370020C26C094B52791A7082785A70E5
S214007C50C2789A70026D12B190F85420DA700078EB
S214007C6004210930014AC0B2FEF770BC415F002013
S214007C70024B53F8200029F07CBD00BF5837002087
S214007C8038B504460078084D09302A460421C0B2AB
S214007C90FEF74CFC30B96B78A370AB78E370EB78EA
S214007CA084F8543038BD00BF415F002038B5044624
S214007CB00078114D09302A460421C0B2FEF736FC82
S214007CC0C8B9A3782A78022B0CD004D863B920460A
S214007CD029F002FD01E0FF2B0AD02046BDE838401F
S214007CE029F0CFBC002AF2D1204629F0EBFCF4E7BD
S214007CF0002AF9D1EBE738BD415F0020F8B504460D
S214007D000B783D4A0D4642F823004370FFF7B8FF54
S214007D10E36C3A4A5C631A632046FFF7C7FF2046C7
S214007D2029F0AFFC4FF4801301266360E36C2672E3
S214007D300533E360324B26752361A31CA361236DD4
S214007D40002B54D02F4A84F82060E261E21C626265
S214007D502D4A84F82C60A26204F15402226393F840
S214007D603420002A45D093F83620204684F8552043
S214007D701B8FA4F8563029F0C3FC94F85510206DDC
S214007D8029F0C5F8B4F85610206D29F0CAF81F4B34
S214007D9084F83860636304F15503E3631C4B0626DE
S214007DA02364022384F8443004F15603A3640627B0
S214007DB0EA79A96802EB420321F8237001EB8300FD
S214007DC001238370134B04348360531C4460DBB27E
S214007DD0114C03EB4303C67041F8234001EB8300CC
S214007DE0002343600D4B02328360EA71F8BD022621
S214007DF0DDE70426DBE700BF583700204F170300F7
S214007E000340300101FF300102FF100103FF200193
S214007E1004FF2101297C000008000100D17B00003E
S214007E2028B1034B1B78834234BF002001207047E3
S214007E30255F002070B500250A4C0B4E3378AB4208
S214007E4000DC70BDD4F8A42042B123791BB1607960
S214007E50FFF7E6FF10B9104629F02AF80135A834D6
S214007E60ECE700BFE41F0020265F002008B542793B
S214007E7001461046FFF7D4FFB0B1CB7858210B4827
S214007E80013A042B01FB02000ED8012B08D81BB9BF
S214007E90BDE8084029F016BCBDE8084029F01CBC27
S214007EA0BDE8084029F022BC08BD00BF841E0020A3
S214007EB008B5427901461046FFF7B2FFB0B1CB785D
S214007EC058210B48013A042B01FB02000ED8012B67
S214007ED008D81BB9BDE8084029F0FEBBBDE808403D
S214007EE029F0F0BBBDE8084029F000BC08BD00BF83
S214007EF0841E002010B586B00446FEF7B9FC0128A3
S214007F0031D1E17804292ED8DFE801F014333503A7
S214007F10030062791046FFF783FF60B35820174BC3
S214007F20013A00FB0233DB6C032958791DD1003877
S214007F3018BF012063784FF480728DF804304FF438
S214007F408273ADF806300623ADF8083001238DF8AD
S214007F500B3000238DF80A0001A8CDE903238DF825
S214007F601430FEF7BDFC06B010BDB0FA80F0400934
S214007F70E0E70020DEE70220DCE700BF841E0020EA
S214007F8010B586B00446FEF773FC012831D1E278BE
S214007F90042A2ED8DFE802F01414330303006179B4
S214007FA00846FFF73DFF50B35820164B013900FB3B
S214007FB00133DB6C032A5B791DD11A1E18BF012220
S214007FC063788DF80A208DF804304FF48273ADF88C
S214007FD006300623ADF8083001234FF480728DF882
S214007FE00B30002301A8CDE903238DF81430FEF7EB
S214007FF077FC06B010BDB3FA83F25209E0E702221E
S214008000DEE700BF841E002010B586B00446FEF7EB
S2140080102FFC012812D16378094A8DF804304FF4FA
S2140080208273ADF806304FF48073CDE90223002347
S21400803001A804938DF81430FEF752FC06B010BD6C
S2140080400800070110B586B00446FEF711FC0128AB
S21400805020D16278104B8DF804204FF4827294F889
S214008060A01094F8A10059701870ADF8062004937B
S2140080704FF480720223094901A88DF81430CDE927
S2140080800212FEF72DFC94F8A130013B18BF012325
S21400809084F8A13006B010BD455F00200800050139
S2140080A010B5837804460BB30379022B0BD14279C3
S2140080B01046FFF7B5FE30B158200D4B013A00FBD5
S2140080C0023029F013FBA379022B02D12046FFF7DA
S2140080D011FF2046FFF7B6FF02236078A4F86C3045
S2140080E05522BDE81040122129F0ADB810BD00BFE2
S2140080F0841E00204388094A082113808388538001
S21400810083681B8A938090F8A03093718379D3712B
S21400811000780430C0B2FEF719BA00BF2E5A00200D
S21400812038B50D4604460178114813F03DF84FF671
S21400813002739D420ED10F4B1B782BB963712046FC
S214008140BDE83840FFF7D6BF62790AB19342F6D24F
S2140081500123F3E7B5F57F4FF1D1204629F0A0FBC8
S214008160A378022B0CBF01220022A3689A70E6E7D0
S2140081702FC80300255F0020024B53F82000FFF7AE
S214008180CFBF00BF8037002038B504460078144DB6
S21400819004302A460821C0B2FEF7C8F920B1BDE86F
S2140081A03840104813F000B82B8863806B88E97855
S2140081B0A380AA88A3681A82AB7984F8A030EB79EA
S2140081C0A371094B1B780BB9637138BD09B199428D
S2140081D0FBD9064812F0E8FF23780133F4E700BF26
S2140081E02E5A002049C80300255F002072C80300ED
S2140081F0F8B504460B78474A0D4642F8230043700C
S214008200FFF7C2FFA268444BD465D364434B0226F3
S2140082105365434BA11C13654FF44013E3600123E1
S2140082206161E1623F49103221632265211D3E4AA9
S214008230A1633E483E49626504F1A002A061E16385
S214008240E265E01C611D3B4A206261643A483B4996
S2140082502266A21D2374237784F8283084F83430ED
S21400826084F84030A16484F84C6084F8583084F870
S21400827064306062A266E879AA6800EB400102EB0F
S214008280810704F10C0CC7F804C04FF0060C2C4F05
S21400829042F82170C118C9B201EB410142F821C071
S2140082A002EB810700217960264F84F8803027672B
S2140082B0254F84F89830A767244F254BE767254F4E
S2140082C084F8746084F88C60C4F89C3004F16C0602
S2140082D0831CC4F88470C4F890601F4F1F4EDBB236
S2140082E003EB4303C4F89460C4F8887002EB83067B
S2140082F07034746008261A4C42F82340C31CDBB264
S21400830003EB430302EB8304043042F8236061600E
S214008310E871F8BD80370020F71703004118030006
S214008320A180000001FF300104FF20011000300191
S21400833002FF200105FF300100FF300103FF21018D
S214008340070001084A002100EA61040051001000FD
S214008350EC610400ED610400550021006F00180078
S2140083601200010400239B6AB3F5804F03D21968FC
S214008370064A914203D000230370836070470122AF
S21400838002709A689B694260F7E700BF07B0CD5E4F
S214008390024B034A1A602AF0A7BE00BF0000002066
S2140083A002020FF073B53F4B04461A781AB1022248
S2140083B01A7002B070BDCDE900220028F9D001265F
S2140083C01E7033F01DFA384D384B186017F0CEFC8F
S2140083D02B785BB902F0F2F940B935480823354AE4
S2140083E03549006801F038FE00B92E70334B5A68E4
S2140083F0E260334A9A601A6E22605A6E6260D3F860
S2140084007021A2601B6E5C042CD52E4AD368D80758
S214008410FCD42D4B1A68531C29D04FF4801393407C
S2140084202A4A13660423294C4FF0804223664FF4F1
S21400843080632366102323664FF400536846236642
S21400844001A92266636629F043FA009B2366019B16
S21400845063662B78002BACD0164B1A6822665B68D6
S2140084606366A6E71A4AD368D907FCD4D1E7194B46
S2140084701B78002BD6D1184B5A68144B12B94FF400
S21400848080121A66154A526812B94FF400121A661C
S214008490134B5B68002BC5D14FF480020B4B1A665A
S2140084A0C0E700BF485F0020495F0020B8370020C3
S2140084B07C690020BC370020007108000080004462
S2140084C055CEAC00000004404869002000900044EF
S2140084D000000450475F00200080055000C0055093
S2140084E00000065038B5224D04462B78012B02D0EA
S2140084F001232B7038BD0028FCD029F00EFA01307D
S21400850009D029F00AFA40F20113984203D0194A1A
S214008510D368DB07FCD42268174B1A6662685A6673
S214008520A268C3F87021E268D40744BF00229A60AC
S214008530124B1A68013213D1114A127882B91149C6
S2140085404968C80748BF1A600F4A5268D10744BF37
S21400855001221A600D4A5268D20744BF02221A60EE
S21400856017F00CFC0A4B186833F045F90023C0E7F7
S214008570485F002000000440008000444869002056
S214008580475F00200080055000C0055000000650E0
S214008590B837002070B50024A36AB3F5804F23D205
S2140085A01A68134B9A421FD1124E337813F0FD050A
S2140085B018D14FF480341048FFF7F4FE032004F07F
S2140085C04FFC0E4B0320DC6004F02EFC0C4B1C61B1
S2140085D0AB6ADB69984704460748FFF783FF0CB988
S2140085E001233370204670BD4FF48174FAE700BF54
S2140085F007B0CD5E475F0020A837002000A00044EB
S2140086000090004413B5204B1B7803B9FEE7002307
S2140086101E4CCDE900336A4608231D49206801F048
S2140086201BFDF8B91B4AD2F84031D2F840211F2B67
S2140086304FF0010311D9203A9340019A1A43019250
S21400864008236A461249206801F08EFE124B134A30
S2140086501A602AF049FD02B010BD9340009A1A43F2
S2140086600092EDE72D28F1D10A4AD2F84031D2F82F
S21400867040211F2B4FF0010385BF203A93409340C3
S214008680019398BF0093DBE7485F00207C690020D9
S2140086900071080000800044000000200B020FF06C
S2140086A038B50025AB6A0446B3F5804F10D21B6B75
S2140086B0B3F5804F0CD20748FFF774FEAB6A20462E
S2140086C01B6B5B689847BDE838400248FFF70ABF57
S2140086D038BD00BFC437002013B50024A36A01903C
S2140086E0B3F5804F13D21B6BB3F5804F0FD20948FA
S2140086F0FFF758FEA36A01211B6B01A89B699847E8
S21400870004460448FFF7EEFE204602B010BD4FF4C4
S2140087108174F9E7C437002070B50026B36A0446B2
S214008720B3F5804F0D4612D21B6BB3F5804F0ED2B9
S2140087300848FFF737FEB36A20461B6B29469B693D
S214008740984704460348FFF7CDFE204670BD4FF419
S2140087508174FAE7C437002070B50026B36A044671
S214008760B3F5804F0D4612D21B6BB3F5804F0ED279
S2140087700848FFF717FEB36A20461B6B2946DB69DD
S214008780984704460348FFF7ADFE204670BD4FF4F9
S2140087908174FAE7C4370020F8B50027BB6A0446A0
S2140087A0B3F5804F0D46164611D21B6B7BB10948B8
S2140087B0FFF7F8FDBB6A20461B6B324629465B6A0C
S2140087C0984704460348FFF78DFE2046F8BD4FF451
S2140087D00174FAE7C437002070B50026B36A044671
S2140087E0B3F5804F0D4612D21B6BB3F5804F0ED2F9
S2140087F00848FFF7D7FDB36A20461B6B29469B6ADD
S214008800984704460348FFF76DFE204670BD4FF4B8
S2140088100174FAE7C4370020F0B50027BB6A0446A7
S214008820B3F5804F0D461646ADF5337D20D21B6B53
S214008830B3F5804F1CD21048FFF7B4FDBB6A204644
S2140088401B6B40F2C1225B6A01A99847044630B10F
S2140088500948FFF747FE20460DF5337DF0BD836AD5
S21400886032461B6B2946DB6A01A898470446EFE7A9
S2140088704FF40174EFE700BFC437002010B50024A2
S214008880A36AB3F5804F10D21B6BB3F5804F0CD2A2
S2140088900748FFF787FDA36A1B6B1B6B98470446C8
S2140088A00348FFF71FFE204610BD0124FBE700BF6C
S2140088B0C4370020F0B58FB0044601A80E46154612
S2140088C0FFF7EEFE9DF80C30012B12D1B5F5402FC8
S2140088D027D8B4F5402F24D86319B3F5402F20D8F5
S2140088E021462A46304613F001FF002420460FB0EA
S2140088F0F0BD0027BB6AB3F5804F15D21B6BB3F5EE
S214008900804F11D20A48FFF74DFDBB6A2A461B6B03
S214008910314620465B6B984704460548FFF7E2FD64
S214008920E4E740F20244E1E740F20114DEE700BF6C
S214008930C4370020F0B58FB0044601A80E46154691
S214008940FFF7AEFE9DF80C30012B1FD1B5F5402F7A
S21400895006D8B4F5402F03D86319B3F5402F13D9C2
S21400896040F2024420460FB0F0BDE258013225D155
S21400897004339D42F9D82A463146204628F0FDFFAA
S2140089800028EDD00024EDE70023F2E70027BB6ABD
S214008990B3F5804F15D21B6BB3F5804F11D20A4842
S2140089A0FFF700FDBB6A2A461B6B314620469B6BD1
S2140089B0984704460448FFF795FDD3E740F2034482
S2140089C0D0E740F20114CDE7C437002070B58EB072
S2140089D0044601A80D46FFF763FE9DF80C30012BF8
S2140089E022D144EA0503C3F30C03002B33D1B5F5BB
S2140089F0402F04D940F2024420460EB070BDB4F5B4
S214008A00402FF7D82544B5F5402FF3D8204604F577
S214008A10005428F0ABFFAC4202D00028F6D1E9E7BC
S214008A200028E7D00024E7E70026B36AB3F5804FB6
S214008A3014D21B6BB3F5804F10D20A48FFF7B2FC76
S214008A40B36A29461B6B2046DB6B984704460548ED
S214008A50FFF748FDD0E740F20444CDE740F20114AA
S214008A60CAE700BFC4370020BFF34F8F0549064B47
S214008A70CA6802F4E0621343CB60BFF34F8F00BFB7
S214008A80FDE700BF00ED00E00400FA0570B5D0B1C8
S214008A90C9B10E4E431E013913F8014F2046325D10
S214008AA002F00302012A11F8012F08BF04F120008A
S214008AB0B55C05F00305012D08BF2032801A01D1F0
S214008AC0002CE9D170BD0120FCE700BFC589040079
S214008AD00348044A0449121A921028F09ABF00BFAD
S214008AE034410000D04200006066002008B5154BF7
S214008AF083F30A8800F030F8FFF7EAFF124B1349B9
S214008B008B4212D30020124B12498B4218D3FCF72B
S214008B10E9F8186850F82240586840F822400132B8
S214008B2098688242F5D30C33EAE70022F8E71C681F
S214008B3044F8220001325C68A242F8D30833E4E726
S214008B400022F8E70800002064AE040070AE0400BF
S214008B5070AE040070AE0400124B134A70B59A60F3
S214008B60D3F88820114D42F47002C3F888206FF0C5
S214008B70010205F50054226641F2FF726266022287
S214008B80C3F8D020BFF34F8FBFF36F8F4FF440363C
S214008B90032004F065F90320E66004F045F92E6131
S214008BA070BD00BF00ED00E0004000000080004403
S214008BB0014B1860704700BF50690020054B1860D5
S214008BC0054B1B6F03F00703032B01D130F070BF7A
S214008BD0704700BF58690020008000502DE9F04122
S214008BE004464FF001080C250D4E0CB9BDE8F08187
S214008BF094FAA4F0B0FA80F00F2808FA00F2C8BF82
S214008C00103824EA0204CABF05FB006205FB0062B6
S214008C10B4325768002FE8D09168C0B2B847E4E78E
S214008C20D437002008B50C4832F088FE192004F02E
S214008C3009F928B1192004F013F9192004F0F4F802
S214008C401A2004F0FFF828B11A2004F009F91A20B7
S214008C5004F0EAF8002008BD506404002DE9F04155
S214008C600E461746054618B30F2923D80378DBB1FE
S214008C70013BDBB2022B19D8104AD35C6A78D3408A
S214008C80DB0717D50E4BD3F81043ACB932F0B8FD5E
S214008C9080463A462846314602F042FE404632F0CA
S214008CA0AAFD2046BDE8F0817F23E7E70023E5E73D
S214008CB02224F6E72124F4E70224F2E740620400C7
S214008CC000C0035010B5044610B30378E3B1013B6F
S214008CD0DBB2022B1AD8104AD35C6278D340DB078B
S214008CE018D532F08DFD0122617823788A40302134
S214008CF04B4341F2100103F1A04303F570335A5081
S214008D0032F079FD002010BD7F23E6E70023E4E77C
S214008D102220F8E72120F6E74062040010B504465A
S214008D2010B30378E3B1013BDBB2022B1AD8104A2A
S214008D30D35C6278D340DB0718D532F061FD0122A0
S214008D40617823788A4030214B4342F2100103F1C8
S214008D50A04303F570335A5032F04DFD002010BD8D
S214008D607F23E6E70023E4E72220F8E72120F6E762
S214008D704062040038B50D46044618B311B30378B4
S214008D80E3B1013BDBB2022B1AD8104AD35C6278FF
S214008D90D340DB0718D532F033FD30222378534317
S214008DA003F1A04303F570335B696278D34003F0A8
S214008DB001032B7032F01FFD002038BD7F23E6E74D
S214008DC00023E4E72220F8E72120F6E740620400CB
S214008DD02DE9F0410D4616469846044600284FD029
S214008DE000294DD00178002940D04B1EDBB2022B63
S214008DF03ED8254AD25C6378DA40D20701D4FF29F0
S214008E0040D1022E01D9042E3CD132F0F9FC237851
S214008E100746FF2B05D032462046296802F0C6FDDD
S214008E2028602B68013309D12378FF2B06D1174B16
S214008E306078D3F8241429F0C7FB286029684B1CF7
S214008E4018D00C23124A03FB0122069BC2F80480AA
S214008E5093602378FF2B04D001230E4A8B40C2F880
S214008E602434384632F0C7FC002007E07F22C2E7F1
S214008E700022C0E7384632F0BEFC2D20BDE8F08167
S214008E802220FBE72120F9E74062040000C00350DF
S214008E90D437002000D0035008B502F037FD044B4D
S214008EA000F05530C3F82004BDE80840FFF796BE32
S214008EB000E0035008B502F029FD044B00F0AA308C
S214008EC0C3F82004BDE80840FFF788BE00E0035062
S214008ED02DE9F04F144605460E469B46C36B87B0F9
S214008EE001225B6902A960689847EB6B01225B6907
S214008EF003A93046984702A829F08AF9074648B1E0
S214008F000023A37563754FF0FF33A360002007B0FE
S214008F10BDE8F08F03A829F088F90123A375237E06
S214008F2004EBC303DE611F846368B3420ED1206086
S214008F3003A829F09CF94FF0FF332075A360237D2A
S214008F40043B022B26D80023A375DFE723681A1AF2
S214008F5053425341A37503A829F089F9237D834220
S214008F6018BFA77503A829F064F9074602A829F0D8
S214008F7060F9874218BF002303A818BFA37529F01D
S214008F8060F9074602A829F05CF987421CBF002357
S214008F90A375D4E703A829F04CF980B1EB6B022245
S214008FA030465B6904A9984704A829F051F903469E
S214008FB0207D032839D8DFE800F03838040903A8F4
S214008FC0F3E7CC22237E04EBC3031A8401F06EFC85
S214008FD0109B187003A8277E29F01FF904EBC7071B
S214008FE087F82200237E03A804EBC303B3F820907F
S214008FF093F8227029F01DF9804603A829F021F97C
S2140090008246B8F1000F15D0EB6B022230465B6942
S21400901004A9984704A829F0E0F86075637D6BB949
S2140090200023A3754FF0000838E0227E04EBC2024E
S2140090301384CBE703A829F0BBF8EEE794F8168074
S214009040B8F1000FEED0B9F1000F09D1DFB101235E
S214009050E375637E002B4FD1012F42D1677614E073
S2140090606B6C06EB0A015A4286EA010010421CBFEE
S2140090700022A2755A1E0A409B1A9945D0D8A37D95
S214009080002BE3D1CEE7E37D43B94FF000084B4613
S21400909052463146284628F006FEA060A27D12B150
S2140090A023694B4423611A49237E097899422AD9B9
S2140090B001332376BBF1000F27D032B3E37D23B311
S2140090C0B8F1000F21D1032F1FD0A1684B1C1CD074
S2140090D0109B2246009328460123FFF7F9FEA07551
S2140090E013E095F8343063B9EB6A0133CFD1032F20
S2140090F0CDD10123A376C8E7012FCFD0032FC4D14B
S214009100F7E79846C3E70023A375A07DFFE600BFF8
S214009110646204002DE9F04F0E46984600238BB09B
S21400912004464FF0FF31104617468DF8133001F015
S214009130A7FBB6F5801F20D2314605AA04F1080029
S21400914028F0B8FF451C014603D1237CBBB92D206F
S21400915010E0384601F094FB0122394620460DF116
S214009160130328F0F2FD0028EFD09DF8133088F89E
S214009170003000200BB0BDE8F08FB01CE5D1E56AEA
S214009180691C36D12046616A28F0D3FC0546B31C1C
S21400919018BF0123DFF8CC900193636A626C0293D8
S2140091A0236805A902FB053AE36B05225B69504676
S2140091B0984705A829F0C7F829F0EAF8504629F09C
S2140091C0F2F84FF0000B824601464B1C05D0636C4C
S2140091D081EA0A025B42134211D02946204628F053
S2140091E0A8FC029BAB422CD0BBF1000F2CD105464D
S2140091F0D3E72368ED1A636CB5FBF3F5C7E748467B
S21400920001F03EFB0DF1130349462046019A28F073
S2140092109CFD034690B1B21C03D0D9F80020B242A0
S2140092200CD19DF8132003930D4B88F80020494677
S2140092301A68384613F05AFA039B9B46D9F808106A
S214009240C3E7BBF1000F82D0B6F5801F91D231463E
S21400925098F800307A6804F1080001F03FFA88E7D1
S21400926060620400B03F00202DE9F3410446174633
S21400927098460E46184D816AE36A8B4201D04B1C15
S21400928002D102B0BDE8F081284601F0F9FA0122C9
S214009290294620460DF1070328F057FD38B143460E
S2140092A0294620469DF80720B8470028E9D0A96837
S2140092B04A1C04D16968204628F0C8FC0146012EE5
S2140092C0DAD16B6881EA0302636C5B421A4218BF0C
S2140092D04FF0FF31D0E700BF843F00202DE9F04F6C
S2140092E04FF0FF334FF6FF720025044600F10806E4
S2140092F0C0E909238BB0C362056205633046884621
S21400930028F0A9FE204628F0E4FB60BB2046414634
S21400931028F05FFC204628F0DCFB60BB5E200BB02C
S214009320BDE8F08F2368E26B606C576900FB053080
S214009330052205A9B84705A829F005F8012807461B
S2140093400CD12946204628F015FC012F024600D1F4
S21400935001322946204628F0DBFB03E029F01DF801
S2140093600028EED10135E3699D42DBD3204628F084
S214009370B0FB0028CAD000254FF0FF394FF6FF7328
S214009380CA46A846C4E90853E36998450AD3A5EB3C
S2140093900905012D2CD84FF6FF72636A93423CD123
S2140093A06720BCE72368E26B606C576900FB0830F7
S2140093B0052205A9B84705A828F0C5FF834605A8D5
S2140093C028F098FF0746584628F0E2FF68B1574550
S2140093D038BFC4F82480B94528BFB946BD4238BF57
S2140093E03D46BA46236A0133236208F10108CBE7FB
S2140093F04FF6FF7300256362E3699D42CBD2676C2C
S2140094002068E36B052207FB05005B6905A9984702
S21400941005A828F06FFF0135EEE7E26B676C206861
S214009420694607FB030055690522A847684628F0E9
S21400943061FF626A2368606C4B4D00FB023028F0C7
S214009440B2FF4FF0FF33A062E3622A466FF00101DD
S214009450204605ABFFF75EFE002846D1AD682946DC
S2140094602046E56228F011FB206320B92046E16A19
S21400947028F0ECFBE0622946204628F0E7FB05468C
S214009480A36A9D4233D1204628F0D2FA00278046B0
S214009490B946E36999453CD3B84559D92046616A2F
S2140094A028F047FB0026054604F1400AB74212D8CA
S2140094B0626C2368694602FB0539E36B05225B692B
S2140094C048469847684628F015FF534602464946E0
S2140094D0E06B28F06AFF2946204628F02AFB013672
S2140094E0B0450546E2D1642019E7A56AB7E72946E4
S2140094F0204628F0CAFA236B29460344074623630E
S214009500204628F0A3FB0546002FB9D1C4E90B0777
S214009510B6E7636C2568052203FB0955E36B05A9CE
S2140095205B692846984705A828F00DFF28F030FF0D
S21400953058B1284628F037FF0146204628F0A5FAFD
S214009540636C143B984208BF013709F10109A0E794
S214009550304628F080FD002320461946034AFFF7D0
S21400956083FE0020DBE600BFDC3F0020391D030041
S2140095702DE9F041036B9046826B07689A4288BFDC
S2140095808363426C436A90B002FB0377C36B0E465C
S214009590052201A95B6904463846984701A828F0C9
S2140095A0D2FE01280146307057D0656CE26B236806
S2140095B0606AD2F814C005FB0030052206A9E04711
S2140095C006A828F0C0FE01284FF0000523D0D4E9F5
S2140095D00A3201219342CDE90B458DF834800E9571
S2140095E08DF83C102AD11946204628F02FFB236B15
S2140095F0626C14339B1AE06223630C9B53B99DF88C
S2140096003C303BB1626A616C2368E06B01FB02315F
S21400961028F051FE0C9DE36B05225B6901A93846D4
S214009620984701A828F08FFE30702846236BA26B5F
S2140096309A4288BFA36310B0BDE8F081237C33B99B
S2140096401C490BAA04F1080001F096F8D5E720465D
S214009650194A0BABFFF708FECFE7237C23BB224655
S214009660164904F1080001F087F8616A204628F0E0
S21400967081FA616A421C204628F04AFA054620B95B
S214009680236B626C1344143B23632046A16A28F0C4
S214009690DDFA2368A062C01A636CB0FBF3F0606268
S2140096A0204628F016FBB6E700232046044AFFF7BC
S2140096B0DBFDDAE7159E0000919D0000D31D030038
S2140096C06F1D030073B50D46D11E4A421C461B7E15
S2140096D04A419A4226D129682368994222D3636870
S2140096E099421FD8114E0DF107033246FFF712FDBF
S2140096F0C0B972686B689A4214D19DF80730DA1EBA
S21400970053425341227E93420CD163690133636115
S214009710D4E90323934205D22968A26842F82310AD
S21400972001332361012002B070BD00BFDC3F002082
S2140097302DE9F04F9B4689B09DF848309046514A37
S2140097400193136907465B450D46C0F09580D946E0
S21400975053680093B9F1000F7BD0FB6B01225B6965
S21400976005A90098984705A828F05FFD454B1B689B
S214009770984240F0848005A828F063FD0428064639
S21400978015D105A828F064FD009B04461E44019BE5
S214009790002B3ED1804512D91C46A8EB000838465F
S2140097A0009928F053FAA9EB04090090D2E7FB6B66
S2140097B002225B69009806A9984706A8E2E7A0EB94
S2140097C008045C4528BF5C46032C4644ABEB040B00
S2140097D01DD9FB6B294630465B69A208984724F0E2
S2140097E0030304F0030A1E441D44DDF80480BAF1A6
S2140097F0000FD4D0FB6B012206A930465B69984760
S2140098005246284606A912F071FF5544C7E7A246FD
S214009810EBE7824600F0030302932B1803930644FB
S214009820039BA6EB0A00A3EB0A05029B9A4514D1FC
S214009830BAF1000FB3D0FB6B012206A95B6998470B
S2140098405246284606A913F00DF90028DDD04FF041
S2140098503609484609B0BDE8F08FFB6B012206A921
S2140098605B6998470422284606A913F0FBF80028EF
S214009870EDD1AAF1040AD3E74FF06309E9E74FF008
S2140098806F09E6E7084000202DE9F0410F4616462E
S2140098909846044688B060B390F83450FDB1012174
S2140098A028F00CF900210E9BCDE90511CDE9023711
S2140098B09DF83C30CDF804808DF81C30237C04964F
