S01B00006275696C642F72656C656173652F7A69676265652E73333714
S21400400008100020F180000085C800000D53030052
S2140040100D5303008DC8000095C800000D53030023
S2140040200D5303000D5303000D5303000D530300FF
S21400403099C80000849B04000D5303000D53030031
S2140040400D5303000D5303000D530300097C0000BD
S2140040500D5303000D5303000D5303000D530300CF
S2140040600D5303000D53030099CD00000D530300BC
S2140040700D5303000D5303000D5303000D530300AF
S2140040800D5303000D5303000D5303000D5303009F
S2140040900D5303000D5303000D5303000D5303008F
S2140040A00D530300B98400009D8400000D530300E7
S2140040B00D5303000D5303000D530300E91C0200CB
S2140040C0FFAE0300FBAE03004D14020015AF030065
S2140040D003AF0300A91C020007AF0300DD000200C7
S2140040E0291D02000D5303000D5303000D5303005A
S2140040F00D5303000D5303000D5303000D5303002F
S2140041000D5303000D5303000D5303000D5303001E
S2140041100D5303000D5303000D5303000D5303000E
S2140041200D5303000D5303000D5303000D530300FE
S2080041300D53030023
S214004134F0B5114A114C124E00F00105E3695F0711
S21400414413D40DB9334213D103EA00078F4207D1C3
S2140041540B4A1A40002A14BF6FF001000020F0BD7D
S214004164013AEBD16FF00200F9E74FF0FF30F6E7C3
S2140041746FF00100F3E700BF80969800000003503C
S214004184020001000B4B70B5D96911F480310DD1D2
S21400419401244FF48072084E084DF46020462C64C7
S2140041A41A61FFF7C5FF3464EC6070BD6FF0010060
S2140041B4FBE700BF0000035000100350002003502C
S2140041C438B541F6713301220C4C0021E569E363EE
S2140041D40B4B05F48035DA600223606121202361ED
S2140041E4FFF7A6FF10B92120FFF7A2FF0122054B17
S2140041F4DA600DB10023E36338BD00BF000003504E
S214004204001003500020035070B5134C6061E3693E
S2140042145B071ED40E4656F8043B8D18A361AE42C7
S2140042240BD10423002121202361FFF781FF58B915
S214004234BDE870402120FFF77BBF08210846FFF742
S21400424477FF10B10423236170BD56F8043BA361C5
S214004254E5E74FF0FF30F7E7000003502DE9F84399
S214004264154641F67132164B8946DF69DA63012238
S214004274064603F58053DFF8508007F48037DA608B
S21400428455B9284601220F4BDA601FB10022A3F568
S2140042940053DA63BDE8F88306F5005404EA08041C
S2140042A4A41BAC4228BF2C46494622463046FFF79C
S2140042B4ABFF0028E6D12644A1442D1BE0E700BF4F
S2100042C4000003500020035000E0FFFF45
S2140042D02DE9F04F4FF0FD0BC9B09A460DF11B09C2
S2140042E09DF8503108AFCDF80C90CDF808B0019786
S2140042F0059303890446009383790E4690464188C9
S2140043008288407812F00EFA054650B10090A388D5
S214004310002062883A4912F049FD284649B0BDE8B7
S214004320F08F99F8000034F008F938B12846A388D1
S2140043306288344912F03AFD8D25EEE75A46394632
S21400434099F8000034F0A1F88346002851D0529B1B
S2140043501BB1BDF84C3198424BD8002399F8009019
S2140043600793A9F14102012A5FFA8BF123D8384658
S2140043700139254ADFF898C05FFA81FE734513DBE2
S214004380059B04210792C3B907AF18221F489FED6B
S2140043901A7B02FB060420460A460830394684ED9E
S2140043A0027B17F059FA11E010F8011F0133514053
S2140043B00CFB01F2E2E7059B33B123464A4638463A
S2140043C0009610F0D7F8A8E70829DED9B8F1000F54
S2140043D001D088F80090BAF1000F01D0AAF800B01A
S2140043E0529B002B99D05A46184608A917F034FA63
S2140043F093E7012591E700BF0000000000000000E1
S214004400AD440400E2440400C59D1C811811002040
S21400441093010001000000002DE9F04F93B0CDE9B4
S2140044200A32DDE91C530E9353EC102BCDE908013C
S214004430104619468DED060B1E9E16F097FC80B1B1
S214004440DDE906014FF0FF32C54B16F0B7FC40B968
S214004450DDE906014FF0FF326FF4801316F090FC92
S21400446070B1DDE908019DED060B0E9B1E96CDE9A9
S2140044701C53DDE90A3213B0BDE8F04F00F088B9EE
S2140044800022DDE90601002316F07AFC002800F081
S2140044903381DDE906A303F1004BCBF30A5016F493
S2140044A08063A0F2FF3008BF06250F9316F08CF944
S2140044B09BA3D3E9002316F0F1F99BA3D3E90023CD
S2140044C016F036F8CBF31304894644F07F51804645
S2140044D00022A44B504641F4401116F027F894A34E
S2140044E0D3E9002316F0DAF902460B464046494661
S2140044F016F01EF816F06CFC044616F065F98EA34E
S214004500D3E900238046894616F0C8F90022964B68
S21400451016F00EF816F05CFC89A3D3E900230746D4
S2140045204946404616F0BAF980463846894616F09F
S2140045304BF985A3D3E9002316F0B0F902460B46E3
S2140045404046494615F0F2FF02460B46CDE90C23DD
S21400455016F0A4F9DDE90C23804689461046194674
S21400456015F0E6FF0022CDE91001804B4046494693
S21400457016F0BEFA00227E4B15F0DAFF02460B4616
S2140045804046494616F0B4FA00227A4B15F0D0FFA2
S21400459002460B464046494616F0AAFADDE90C23C9
S2140045A08046894600204FF0804115F0BFFF024646
S2140045B00B464046494615F0BBFF02460B46DDE972
S2140045C0100116F095FA07F2FF3700226A4B15F035
S2140045D0AFFF00223B0516F061F952465B46804667
S2140045E0894616F0EBFB002840F08980CDE90C895F
S2140045F004F16303C62B8CBF0527042731051BD5A2
S21400460053A3D3E900235046594616F0CDFB0028A5
S2140046107FD051A3D3E900235046594616F0B0FB8D
S214004620002876D00027A542C6BF2C1B04F1FF3514
S21400463000253C4646F480660E9B9F422CBF4FF0FA
S2140046400008A3EB070816F0020903D0002F18BFD6
S2140046504FF000083CB1DDE90C235046594616F0F1
S21400466047FA82468B46DDE906010022002316F053
S21400467087FB10B10BF100439B46DDE9080126F4E9
S2140046800063CDE90183DDE90A324BEC10AB0095FF
S21400469000F07EF802465FB3DDE9091316F0200F3E
S2140046A000F10105089E0CBF65204520B047DDE9F6
S2140046B008010523002205930A23002CCDE90232C7
S2140046C007F1FF374FEAD473B8BF64422A46019316
S2140046D004970A9B009435F08AFD0246B9F1000F54
S2140046E006D00B9BC41A0B9B1A190E9BA34245D8E7
S2140046F0104613B0BDE8F08FDDE906ABCDE600222C
S214004700404649461A4B16F0F3F9013CCDE90C0138
S2140047106EE7002D90D00F9B002B8DD0013D8BE7D0
S214004720FB799F501344D33FB3C8608B288AC63F9B
S21400473061436F63A787D23F71A379094F930A40FD
S2140047401655B5BBB16B0240EF39FAFE422EE63F76
S2140047502D431CEBE2361A3F0000000080842E41F9
S214004760FFFFEF7F0000F83F0000E03F00002C4016
S21400477000002440000018400000F03F2020DDE943
S2140047800913089DA8470134ADE700BF00000000EC
S2140047902DE9F04F5BEC10AB97B0CDE90501DDE9F4
S2140047A02058CDE90723504652465B465946229F7D
S2140047B016F0DCFA70B90323CDE902870193AA4B01
S2140047C00093DDE90501DDE9072335F042FC17B06B
S2140047D0BDE8F08F4FF0FF326FF480135046594615
S2140047E016F0CEFA28B10423CDE9028701939F4B39
S2140047F0E6E74FF0FF32504659469D4B16F0DEFA7C
S21400480068B19C4A07F00403002B08BF03229A4BAA
S2140048101CBF13460422CDE902870192D0E750461A
S2140048208DA3D3E90023594616F0C8FA38B98CA3ED
S214004830D3E900235046594616F0A2FA68B1DDE9DE
S2140048400723DDE905014BEC10ABCDE92187209568
S21400485017B0BDE8F04FFFF7DFBD0022002350463B
S214004860594616F08DFA002800F091805B465246B5
S2140048700020002115F05AFE012382468B4609933C
S21400488017F4806400F08580092D40F285800024AE
S21400489030210EABA5F109020134202C03F8011BD0
S2140048A0A5EB040901D09442F6D15946504616F0BD
S2140048B08FFA724B054603EBC90393ED007B8DED33
S2140048C00A7B15F081FF02460B465046594615F006
S2140048D02DFEDDE90A2315F0E1FF02460B46CDE981
S2140048E00C2316F09DFA064615F05EFF02460B46B0
S2140048F0DDE90C0115F01AFE02460B46CDE90C2345
S21400490000225F4B16F05AFA002848D0013630468F
S21400491015F04AFF02460B46DDE90A0116F03AFAA0
S21400492008B100260135B9F1000F45D1284615F02B
S2140049304BFF02460B465046594615F0F7FD00223F
S2140049404F4B16F01DFA10B9E90700D501350A21BC
S2140049500EAB1A19202C0AD095FBF1F001FB10556E
S214004960303502F8015B013405460028F2D107F025
S2140049700302012A55D1B8F1000F52D0099A12B994
S21400498017F00C0F01D008F1FF38302240E00990F4
S21400499076E74FF0060988E7A946002485E7002257
S2140049A0DDE90C01364B16F0EBF90028BBD10EB151
S2140049B0F007B8D50136B6E70A210EAB1A19202C37
S2140049C00DD0B6FBF1F001FB1063092E03F13003A6
S2140049D009F1FF3904F1010402F8013B11D8302136
S2140049E0A1440EAA202CB2D04C4504F101030AD1F2
S2140049F004F158020DEB02042E2204F8202C1C466B
S214004A00A5E70646DBE7A1541C46EBE71A5501343A
S214004A10444506D2202CF9D1CDE9028701940EAB8D
S214004A20CEE6202CF8D0099B3BB12D2204F158038A
S214004A306B4403F8202C0134EEE77A0704D504F122
S214004A4058032B226B44F4E73B07E5D504F15803E3
S214004A5020226B44EDE700BF0000000065CDCD418D
S214004A600000000065CDCDC10C6304001063040097
S214004A70FFFFEF7F0363040008630400C0AA04007E
S214004A800000E03F0000000070B58EB02C22002130
S214004A9003A816F051FD64234FF002320893CDE9C7
S214004AA005230B2301218DF834305B4B8DF8101055
S214004AB01D880D4040F0A980084639F057FE0A22AE
S214004AC0564B574C1A704FF42873ADF812304FF00F
S214004AD0FF332360534B54491B8820460B82534BAD
S214004AE0534A1B68CD828B61524B0D621B884B82EA
S214004AF0514B1B68CB611DF08DF920B14FF41B7133
S214004B004E483AF074FF0521206835F059FD20B173
S214004B1040F27D2149483AF06AFF206815F0C2FC51
S214004B20474B2068196835F00EFE0C253AF086FAD9
S214004B30684309903AF082FA68430DEB0501079046
S214004B40206817F0BBFB20B140F295213B483AF0B5
S214004B504EFF25681FF008FD00220146284635F066
S214004B606AFE20B140F2972134483AF040FF40F206
S214004B700353344D344E2B80052396F90000AB705A
S214004B807F2801D11DF03CFA3378EB703AF056FAE4
S214004B9000EB80008000A8803AF050FA0023C000A6
S214004BA04FF0FF31E880AB604FF0FF3018A3D3E939
S214004BB0002339F02DFF2549206835F0F5FD2068E3
S214004BC002A936F011FA20B14FF434711B483AF0BE
S214004BD00EFF042220680DEB020135F089FD042843
S214004BE004D040F2D72115483AF001FF01A9012070
S214004BF035F094F907F08AFE01201DF093FE31F09F
S214004C007DF91DF0B9FE1DF093F90EB070BD00BF22
S214004C100A0020FF42030000665E0020BF650020F9
S214004C2098560020F2C304007C6C0020F8C30400F1
S214004C3095E70300F0C30400F4C304003B9A0400A5
S214004C40CC6900208C560020AF6F002009E80300D6
S214004C500348044B834202D0034B03B11847704706
S214004C60E46F0020E46F002000000000064B0749B8
S214004C70C91A891048BF0131491003D0044B0BB143
S214004C8001481847704700BFE46F0020E46F00201B
S214004C900000000010B5064C237843B9FFF7D8FF94
S214004CA0044B13B10448AFF300800123237010BDFA
S214004CB0001700200000000098E7040008B5044B29
S214004CC01BB104490448AFF30080BDE80840CDE7B7
S214004CD0000000000417002098E70400A3F5803ABF
S214004CE0704700BF154B002B08BF114B9D46FFF7C2
S214004CF0F5FF00218B460F461148124A121A16F08D
S214004D001BFC0C4B002B00D098470B4B002B00D005
S214004D1098470020002104000D000B4816F052FFB3
S214004D2016F0E2FB200029002FF0D8FF16F038FF1F
S214004D30000008000000000000000000081000202E
S214004D4008100020246600202DBC010007B50121B4
S214004D5020200DF1070201F097F950B10121202023
S214004D600DF107028DF8071001F09EF903B05DF80B
S214004D7004FB9DF807100129F8D00122084815F019
S214004D80C9FA01210DF1070220208DF8071001F065
S214004D908BF92FF00AFF4FF4FA6000F0BFFFE5E74B
S214004DA028FE030038B500F03FFF01F009FB01289C
S214004DB005D001F005FB022801D001F027FB0A4DC3
S214004DC02B783BB901F0FCFA0128044602D12FF0FB
S214004DD07CFF2C7001F0F4FA012803D1BDE83840BE
S214004DE000F008BF38BD00BF525F002010B5044673
S214004DF000882FF0A6FEA37884F84400834202BF02
S214004E000123E3702371074B04F11C00C4E9073447
S214004E1001F090F9224620880349BDE8104001F0D1
S214004E20CDB800BF27480300F147030070B5C3782C
S214004E3004460D461646002B34D1D1B1214815F054
S214004E4069FA0123E370E36CA6600BB1E06D984746
S214004E50E368F61A63699E4221D2217E1A48013120
S214004E60C9B2217615F056FAA36D13B1217EE06D16
S214004E709847E5702FF0ACFE15B3237903BBA26804
S214004E80238A801A83421BD801231048237115F009
S214004E9041FA236DA3B1E06DBDE8704018470123C9
S214004EA02376E6E70029E4D1094815F033FA636D66
S214004EB0E660E5702571002BDBD0E06D9847D8E7FB
S214004EC070BD00BF50FE030061FE03008FFE0300AE
S214004ED07CFE03002DE9F8430E4617461D460446A1
S214004EE000283FD07A220021063016F025FB00224B
S214004EF03046114626806780A5802FF044FE0022AB
S214004F00A071114638462FF03EFE00224FF00108F1
S214004F101146E07128462FF0E1FD28462FF0FDFDF2
S214004F2084F83C802FF054FE104B04F14809C4E985
S214004F301234206284F87180484601F0FBF80C4B6E
S214004F403A463146C4E91D340A482B4684F87C802C
S214004F5015F0E0F9484641F288312FF030FE002087
S214004F60BDE8F8834FF0FF30FAE700BF794F000046
S214004F70409B0400A5FE030070B50446002849D0F7
S214004F8090F87130002B45D02FF022FE064694F99B
S214004F9006002FF069FC054694F907002FF064FC24
S214004FA0C822034602FB05F14243AD0462642A0CA4
S214004FB06286A26B21642A44A263A26BB2F1347F9C
S214004FC01CD294F8701039B194F83C20EAB140F243
S214004FD0396253431B0CE38501231944204684F8A9
S214004FE0701084F83D3026622FF064FC04F148000F
S214004FF041F28831BDE870402FF0E1BDA2F1347275
S214005000A263626B01326263D7E7034A53431B0C09
S2140050102386E1E770BD00BFD474080070B51E4655
S214005020838804460D46C18002810BB1868070BD20
S214005030817800882FF071FC0123E370064BA68070
S214005040C4E903340C34204601F074F8294620469F
S214005050BDE870402FF0B3BD2549030010B50179B7
S2140050600446B1FA81F1008849092FF0CDFC217978
S2140050706088B1FA81F149092FF0C6FC034B1A6823
S214005080A24204BF00221A6010BD00BF1C170020F9
S21400509070B543790446A3B100880E4E04F10805A6
S2140050A0336813B10C4B1B786BB121792FF0ACFC35
S2140050B064210A4B3460A3602846BDE870402FF098
S2140050C07EBD4088E9E7064815F024F9054B3221F5
S2140050D0A360F1E71C170020545F00205D5000001D
S2140050E0D9FE03009150000010B50446E0B10F4809
S2140050F015F010F901236371A37953B9217920883B
S2140051002FF082FC236B7BB1606B0121BDE8104061
S21400511018472046FFF7A2FF04F108002FF054FDC1
S2140051202046FFF7B5FFEDE710BD00BF0FFF0300F9
S21400513010B50446F8B1104815F0ECF8002363717A
S214005140A3796BB921792088B1FA81F149092FF04A
S2140051505BFC236B7BB1606B0021BDE810401847F9
S2140051602046FFF77BFF04F108002FF02DFD2046B8
S214005170FFF78EFFEDE710BD1AFF030010B50446DB
S21400518068B1074815F0C6F8637920461BB1BDE83C
S2140051901040FFF7CDBFBDE81040FFF7A5BF10BD1C
S2140051A026FF030010B50E4C0E48214615F0B2F847
S2140051B082210D4815F0AEF882210220A21E00F0D2
S2140051C073FF014630B134F8022C0848BDE81040A1
S2140051D015F0A0B80648BDE8104015F09BB800BF13
S2140051E0EA57002035FF030050FF03005BFF030073
S2140051F09FFF030038B5104C82212246022000F0A3
S21400520043FFA51C014678B122880C4815F082F8A9
S2140052102A460B4B03F1340153F8040B8B4242F839
S214005220040BF9D13323238035F8021C054A0648BF
S214005230BDE8384015F06EB8E8570020AAFF030016
S2140052402A000400EA57002008000400034B1B78DD
S2140052501BB18B4201D82FF0A8BC70473B6F0020D3
S21400526010B5044601460E4815F054F8012C11D12D
S2140052700C4B0D481A884FF6FF739A421EBF002249
S214005280094B5A742FF0A6FB02F0E0F8BDE8104078
S21400529001F0B2BF0448BDE810402FF09DBB00BF30
S2140052A05E000400EC6E00205869002070B50024F3
S2140052B01A4D1B4E3378A3421BDC0024194D1A4EA0
S2140052C03378A3421BDC0024184D194E3378A342D2
S2140052D01BDC01F075F8012816481CD12FF07AFB6C
S2140052E002F0B4F801F088FFBDE87040124801F003
S2140052F087B82846FFF77AFD01346035DAE7284696
S2140053002FF04EFB01343435DAE728462FF081FBC8
S21400531001343835DAE72FF05FFBE5E7CC230020D1
S2140053205A5F0020EC2700205B5F00209C210020B5
S214005330595F002058690020615200002DE9F04FA7
S21400534087B0FFF757FFBA4B05A805932FF085FBEC
S214005350054615F0EDFFB74CC2B21F2A627004D99D
S214005360B54814F0D7FF00F0CDFC2946A01C16F077
S21400537073FA05A82FF071FB054615F0D9FFC2B2E7
S2140053801F2A84F8212001D9AC48EAE7294604F10F
S214005390220016F061FA05A82FF05FFB32260446BD
S2140053A000272578002D40F0CC80A54CFFF77EFF27
S2140053B02378DFF8D4B2DFF8D4A2A24E00939BF88D
S2140053C000309AF8002031789F4814F0A3FF327816
S2140053D09AF800109BF80000531803449B4F20785F
S2140053E02C4603443846DBB2AA4200F37A83012BEC
S2140053F038BF0123DFF85C8202934246002345460D
S2140054004FF482714FF6FF74029801338342137093
S2140054105180948002F10C02F6DB8D4B8D49854855
S214005420AB6001F0F9F8E879AB6800EB400003EBFD
S214005430800000F073FEEB790133EB71864B1B881E
S214005440A34203D08349854801F0E8F94FF00009EC
S2140054507F4C33784B4500F34D83814B1B785BB113
S214005460804B1B78012B07D17A497F4801F046FC18
S21400547078497E4801F010FE00274FF00C087C4B60
S214005480DFF8D0919AF800203178BA4200F34783CB
S21400549002EB01080C21002701FB08919BF8000095
S2140054A09423B842734A00F3588337780C269AF848
S2140054B000304FF000081F44074406FB07964FF0E5
S2140054C07009DFF8CCA15E4B1B78434500F3598387
S2140054D0634E644C337883B1217801290DD90C27AB
S2140054E0013907FB0151604801F008FC21785F484C
S2140054F0013907FB015101F0CFFD0299554800F034
S2140055009FFE40F2055240F604312078367800F0CF
S21400551079FE0022054640F20271207800F072FE05
S21400552029460246304601F009F8059B40491A46CE
S2140055308B4240F03B83504807B0BDE8F04F14F074
S214005540E9BE532D0FD163784C2B40F04E81A378E3
S214005550502B40F04A810122484B1A7005A82FF0C4
S2140055607CFA04461DE7442D13D16378303B092BA3
S214005570F4D8601C2FF07EFA414B424A197800237B
S21400558086B2994202F16002E8DD22F8466C0133E9
S214005590F7E7422D0CD16378542B40F08980A01C8D
S2140055A000F05AFD2C4B188018462FF0FEF8D5E771
S2140055B0582D33D8412DD1D9433D152DCED801A332
S2140055C053F825F0C95900005D5500005B5A0000ED
S2140055D05D5500005D5500005D5500003D5700001C
S2140055E05D5500005D550000EF5600009556000022
S2140055F05D5500005D5500005D5500005D550000DE
S2140056006F580000EB5700005D5500005D55000028
S2140056105D5500005D550000E5580000692D9DD1E0
S214005620601C2FF027FA80B22FF0BBFA96E700BF77
S214005630EA5700206C6800207D00040094000400F7
S214005640555F0020585F002001010400F01E002076
S21400565064190020EC180020EC6E002020170020B3
S214005660535F00203A6F00207017002008100020BB
S214005670F01D0020341C002051010400545F00205F
S2140056805A5F0020CC230020565F0020575F002082
S214005690E41A0020BD4B012019780023BC4A994229
S2140056A002F1A8027FF75AAF02F8A60C0133F6E71C
S2140056B0601C00F0D1FC0546E01C2FF053FA0121D7
S2140056C0024628462FF00AFA6021B248B24C037808
S2140056D05943621865524FF4FA6111824FF44871CB
S2140056E05161AE49568311650133037036E7601C7D
S2140056F000F0B2FC00224FF034088146A84F114655
S2140057002FF0ECF93878A74D08FB00F325F8039046
S214005710EA18E3781046693B18BF012393702FF010
S2140057203FF90021A04A3B785160012103FB085550
S2140057300B443B7015600F4611740FE7601C00F0B9
S2140057408BFC0022114681462FF0C8F93422944D76
S214005750DFF85082287802FB00F328F8039008EB65
S2140057600301E3780846693B18BF01238B702FF0CE
S21400577017F98E4A00231046916B31BB00EB83105D
S21400578034232A7802FB03838363814A002310466E
S214005790D2F8A410F9B9A82202FB030034232A7811
S2140057A002FB0383C0F8A4305FB97F4A3B4611462C
S2140057B052F8040BA8B93422287800FB028241F87C
S2140057C023202B7801332B70C8E60133042B02F11B
S2140057D04002D1D1D9E70133042B02F1A802D7D178
S2140057E0E2E70133042BE3D1EBE7601C00F034FC66
S2140057F08046E01C2FF0B6F90121024640462FF005
S2140058006DF960216348644D0278DFF880C151432A
S2140058106B1825F801804FF4487119825961644964
S2140058205E839965E178A824642904BF01219970F4
S2140058309CF80030DFF858E15C430EEB04010EF8EC
S21400584004304FF400744C8003240C718C7102EB0E
S214005850420405EB441532240133DBB201324B71AE
S2140058608D6081F8A04002708CF8003076E6601CEF
S21400587000F0F2FB00224FF0380A8146DFF8408144
S21400588011462FF02BF998F800304A4D0AFB03F327
S21400589025F803904FF00109EA1882F80490E3789F
S2140058A073B1E01C00F0D8FB0022044611462FF02E
S2140058B015F998F800300AFB03535C8083F80690CD
S2140058C03D483A4A03789901535498F8001002EB81
S2140058D08314C1EBC10205EBC2054A1C656388F858
S2140058E0002001E7601C00F0B7FB8046E01C00F0DB
S2140058F0B3FB0546601D2FF035F90446024601212C
S21400590040462FF0EBF82246284601212FF0E6F815
S21400591060204FF4487CDFF87CE01F4A9EF8003099
S21400592000FB03F422F80480DFF884801119A1F844
S21400593010C0C1F814C04E83C1F85880591CC9B2B3
S21400594048431418A4F810C0C4F814C06683C4F8FA
S214005950588094241552194D981C8EF8000028780B
S214005960DFF860C0444303EB430301EB41010CEB5B
S214005970040E02EB431302EB41120CF80400CEF8BF
S2140059800430CEF8082001302870E7E5585F002084
S214005990F01E00205A5F0020CC230020454A03005A
S2140059A05B5F0020EC27002058690020F01D0020D7
S2140059B04D5200009C210020575F0020565F0020BB
S2140059C0595F0020341C0020601C00F045FB804618
S2140059D0E01C00F041FB00220546114640462FF031
S2140059E07DF800223824114628462FF077F87448B0
S2140059F0744A03784FF0000E04FB03FC22F80C8078
S214005A004FF0010802EB0C0181F806E081F80480F3
S214005A1003EB0801C9B24C4302EB040C15539C1C63
S214005A2004707024684D8CF806E028788CF80480A2
S214005A304443DFF8B8C1C3EBC303C1EBC1010CEBB1
S214005A40040E02EBC30302EBC1020CF80400CEF80E
S214005A500430CEF80820404496E76378502B7FF455
S214005A607DAD2146594814F055FCA01C00F0F4FA10
S214005A700546201D00F0F0FA8046A01D00F0ECFA66
S214005A804FF6FF739D4204463FF468AD98453FF4D9
S214005A9065AD98423FF462AD0346424629464C48FF
S214005AA0FFF718FA00287FF459AD49482EF02CFF6E
S214005AB0DFF83C910146C9F8000046482FF059FA35
S214005AC0D9F8001044482FF089FA0123434A2946A2
S214005AD01370434A434813702346424614F01AFC98
S214005AE03CE590F805C001358C4584BF04714471CF
S214005AF0A83079E4B9F1000F07D018F8053C03EB9D
S214005B00430304EB8304C8F808404146384601F0D6
S214005B1071FE09F10109A83708F10C0899E4791813
S214005B200AD04A1E08FB0292D27902EB420204EB2C
S214005B30820408FB01929460184608FB0151039307
S214005B4001F016FC31782848394408FB015101F071
S214005B5027FA039B0137403394E417EB080F18BF6E
S214005B6011F8050C03911EBF00EB400004EB800407
S214005B708C6003FB072001F015F8039901370C3100
S214005B808CE418EB070F18BF16F8053C31461CBF0F
S214005B9003EB430304EB830409FB08A018BFB460BF
S214005BA000F0D6FE08F101080C368CE413F8011D4F
S214005BB000297FF4BBAC3B2102F8011CB6E400BF11
S214005BC0595F00209C210020555F0020A40004009F
S214005BD06C1800207017002008100020535F00206B
S214005BE03A6F0020D200040090210020E41A002022
S214005BF06818002008B5094B1B786BB108482FF0D1
S214005C00CEF9074801F016F9064801F0C3FABDE8D8
S214005C100840044801F0DEB908BD00BF535F00200D
S214005C207017002008100020034B1B7813B10348A0
S214005C302EF072BE704700BF535F00206C18002025
S214005C4007B5012121200DF1070200F01DFA18B951
S214005C509DF80720024B1A7003B05DF804FB00BFE6
S214005C603B6F002007B5064B8DF807001870012122
S214005C700DF10702212000F017FA03B05DF804FBCF
S214005C803B6F002007B5022101200DF1060200F04F
S214005C90FBF938B9044814F03DFBBDF8060003B024
S214005CA05DF804FB0020FAE76E01040007B5022148
S214005CB0ADF806000DF10602012000F0F5F90146E8
S214005CC010B1034814F026FB03B05DF804FB00BFD8
S214005CD08F01040010B5FFF7D5FF044601460748BC
S214005CE014F018FB0121064814F014FB24B9BDE893
S214005CF010400120FFF7DABF10BD00BFBF0104004F
S214005D00D101040008B5044814F004FB00F0DCF9E7
S214005D102EF04BFF2EF046FFE701040038B5044690
S214005D20084D094B28462B6000F004FA002C18BFDB
S214005D3021462846BDE8384008BF4FF496712EF03D
S214005D403EBF00BFF0280020934A03002DE9F04331
S214005D50384D91B008AC0746894690460FCD0FC423
S214005D6095E80F00002684E80F0001250323324C37
S214005D703248CDE90366CDE905668DF80E30079604
S214005D80029539F0DDFD2E4839F0DAFD32462D4910
S214005D9020468DF8176004F055FE334632462A49F1
S214005DA08DF81900009020468DF82390CDF82C80B1
S214005DB08DF8216004F060FE0A9020468DF8097088
S214005DC004F0C2FD204608AA05A904F07BFE02AA3C
S214005DD0204603A92FF0EEFF4FF400721B4B5A62C9
S214005DE0194BE560626A920510D46BB94FF40072E5
S214005DF0164B11485A6204F0A7FD114839F0A3FD6E
S214005E00002011B0BDE8F083013BEBE7002BEDD09E
S214005E10094908A830F001F84FF400720B4B064809
S214005E205A6204F091FD064839F08DFDBDF8200059
S214005E30E7E700BF4C9B04000040005AE49D0400C6
S214005E40E09D040080841E0040420F000060005A5F
S214005E500122034B1870034B1980034B1A707047CE
S214005E605D5F0020F46E00205C5F0020F8B5454BB7
S214005E701B780BB90020F8BD434B1B78012B03D1D0
S214005E80BDE8F8402EF008BE404B1C884FF6FF7366
S214005E909C42EFD03E4839F053FD0023260AE4B278
S214005EA01A462146304604F00FFD012E354604F012
S214005EB0010335D015D9B51E012DDBD8002B0BBF3D
S214005EC04FF480754FF080754FF470614FF070613D
S214005ED00BBF01274FF480370F204FF470202D4B57
S214005EE011E0002B0BBF4FF480754FF080754FF418
S214005EF070614FF070610BBF01274FF480370F20A1
S214005F004FF47020244B1A6802401CD0BA421AD0B4
S214005F101A680A4032D11A6822EA01022A4316E0B9
S214005F20002B0BBF4FF480754FF080754FF47061F7
S214005F304FF070610BBF01274FF480370F204FF4EE
S214005F407020164BDFE71A6822EA00023A431A600E
S214005F502EF0A2FD054600288CD0083644EA06102E
S214005F602A460321C0B2FFF7F1FE40F6FF736843EE
S214005F7000F2FF70B0FBF3F080B27CE795427FF44E
S214005F8079AFC8E75C5F00205D5F0020F46E0020FC
S214005F90E49D040028C3035020C3035024C30350C9
S214005FA010B5044C237823B9034839F0C9FC012303
S214005FB0237010BD5F5F0020E49D04002DE9F043D0
S214005FC01F4C85B0074688469146FFF7E9FF2378C1
S214005FD01BB902F029F9012323707BBAADF80C3007
S214005FE030220023174E02FB03F4315DA51901BBD6
S214005FF0012333554FF0FF3304F1100012493044AB
S214006000AB606F80C5F80480C5F80C9009F09EFB65
S21400601004F10801042231440C4B009503A802F059
S214006020D9F9A96802460A4814F074F905B0BDE823
S214006030F0830133102BD6D1064814F06BF9F5E740
S2140060405E5F002018290020BD4A0300CF4A0300E7
S214006050F40104002202040080B10278A2F1410398
S214006060032B0BD840783038C0B2082806D8054B2A
S214006070134413F8413C40EA032070474FF6FF7084
S214006080704700BF6C9B040008B50B4642B1014642
S2140060900448006803F0E2FABDE808402EF07BBD35
S2140060A0022008BDC469002008B50B4642B101466F
S2140060B00448006803F05AFCBDE808402EF06BBDAB
S2140060C0022008BDC4690020F0B50026124F8DB02E
S2140060D0FF2300930A223346386802A92FF027FCD4
S2140060E0C0B102AB1D4603EB800404E055F8043B48
S2140060F0B34228BF5E1CAC423868E9D9296803F071
S214006100BBFD0028F2D02D28F0D00DB0BDE8F04041
S2140061102EF041BD0DB0F0BDC469002028B1034B80
S2140061200360034B4360002383607047190000033D
S2140061306C690020FF2307B50021044A009308304D
S21400614009F088FA03B05DF804FB00BFB94B030002
S2140061500B460449024608680349097808B12EF040
S2140061603EBD7047242C0020615F0020F7B50C462A
S21400617018B12F21194839F03AFC246823685E7953
S2140061805F8830463946FFF7E3FFF0B18568E5B132
S214006190A089227D3946904291BF0020801AA368CC
S2140061A080B294BF03469B18E27C00903046A84716
S2140061B00138032803D8DFE800F0080F0B0D002491
S2140061C0204632F024FF204600E0812003B0F0BDD8
S2140061D08024F5E79324F3E78724F1E74A020400D6
S2140061E007B50B460092054902460548097800683F
S2140061F02EF017FD03B05DF804FB00BF615F0020C2
S214006200242C002007B50B46009206490246064895
S214006210097800682EF005FD003818BF012003B08D
S2140062205DF804FB615F0020242C002008B5034BBA
S2140062301B6803B19847002008BD00BF202C002033
S2140062402DE9F74F04460D460026454B454F18608E
S214006250454B197033010021F85C013610F050F8F8
S2140062600C2EF7D10C2D28BF0C254FF000090195F8
S2140062703C4EDFF800A13D4DDFF8FC80019B4B450E
S21400628002DC03B0BDE8F08F23784FF0000B3370CC
S21400629063887380A388B380A379C6F80880B37137
S2140062A0E379C8F8005088F804304FF00003A76878
S2140062B0A8F80630E3795B450ADC012116F8100BD6
S2140062C010F01EF808F1080809F101090C34D5E7AA
S2140062D04FF0000338886B812880FB784FF0000C65
S2140062E02B81BA78C5F804A0002A00920CBF802241
S2140062F040222A7379680AF10C02634513DC03EB2B
S21400630043030AEB830ABB6843B1009A4FF6FF715A
S214006310B2FA82F2164B520932F009FE14350BF12E
S214006320010B0C37C6E7B1F800E00CF1010C22F8BF
S2140063300CEC91F802E00C3202F816EC91F804E04E
S2140063400C3102F815EC11F809ECBEF1010F14BF80
S2140063504FF0100E4FF0110E02F814ECCDE700BF10
S214006360242C0020EC420020615F00202832002010
S2140063706D610000282C0020A8340020014B186016
S214006380704700BF1C2C002070B5128805460E46CC
S214006390FFF726FF044670B102790499806815F06D
S2140063A01DF9064B1B680BB9002070BD3146284608
S2140063B022889847F8E78620F7E700BF1C2C0020C5
S2140063C008B50FF039F8022806D0012806D0044B8D
S2140063D018784000C0B208BD0120FCE70220FAE7AA
S2140063E0605F0020054B10B51C682CB1FFF7E8FF76
S2140063F02346BDE81040184710BD00BF182C0020EB
S214006400014B1860704700BF182C0020034B1A7809
S2140064101AB901221A700BF015B87047605F002099
S2140064200022024B1A70FFF7DDBF00BF605F00203E
S21400643037B50446002832D00EF0FEFF022830D1D1
S214006440608933F061F9E079237A003818BF0120BB
S214006450012B637A08BF40F008000BB140F0100033
S21400646063890BB140F00400257CA188A2790DB1A8
S214006470E36873B90C4B10F01FFB2178084610F048
S21400648097FB32F04DFC002814BF0320002003B019
S21400649030BDCDE90035054B10F00EFBEDE70220D0
S2140064A0F5E70120F3E700BFC6510400752004009D
S2140064B02DE9F04186B005460E4690461F469DF8EB
S2140064C034400EF0B9FF022824D1082C16D8ADF8B7
S2140064D00C808DF80E702CB122460C990DF10F0031
S2140064E015F0BAF903AB033400930A2231460820AC
S2140064F0094B019410F0E0FA18B1032006B0BDE88D
S214006500F0812946284610F053FB32F009FC00289B
S214006510F4D0F2E70120F1E77520040008B50DF08D
S214006520EFF8014630B1044813F0F4FEBDE8084029
S2140065300DF08ABC08BD00BFD802040030B5C0B15B
S21400654000290CBF30203120002A0CBF3024312413
S21400655013220023084911F8015F3F2D06D1002BB6
S21400656014BF2546054601330D70DBB2013AF2D161
S21400657030BD2D200446EBE73C6F0020034B044A59
S2140065805B7C012103201370FFF78EBD5869002045
S214006590625F002010B50446FFF7F0FFB4F57F4FAA
S2140065A00BD100240F4B1A8813449C70FEF7FAFD9B
S2140065B02046BDE81040FFF7B1BB4FF601739C4282
S2140065C004D1BDE8104008482EF0ECB94FF602732F
S2140065D09C4205D1BDE81040044B1878FFF742BB3B
S2140065E010BD00BFE8570020586900203B6F002010
S2140065F010B5074C012122460320FFF745FD28B9B8
S2140066002378044A003B18BF0123537410BD00BF13
S214006610625F002058690020F8B5564B564C1A8821
S2140066204FF6FF739A4218BF03234FF0080218BFB5
S2140066302370524B36251A7032225A70DA70DA718D
S21400664037221A724FF400121D719D714C4D302680
S214006650C5644C4D426405654B4D012285654B4D26
S2140066609E70C5654A4D5E7145664A4D86188566BC
S214006670494DC6670567494D494E4567202580F850
S214006680785080F8845000F12105C0F88850454DB8
S21400669080F84820C0F88C5080F8542080F860209D
S2140066A080F86C20C0F8806080F89020C0F8944095
S2140066B0C0F8B8303C4B3D4CC0F8BC300223C0F8A4
S2140066C098403B4C80F8C030C0F8A4401424394BA6
S2140066D080F8A840C0F8C430374B384CC0F8C830F3
S2140066E08223C0F8AC40364C80F8CC30C0F8B040BE
S2140066F00924344B344DC0F8D030344B80F8B440C5
S214006700C0F8D4302C7C324B80F89C20C0F8A00017
S21400671080F8D820C0F8DC3044B12E4B80F8E42056
S214006720C0F8E03005F11103C0F8E8304FF0000C77
S214006730CA798E6802EB42039F00443006EB83035F
S21400674026F807C0586001200D349870DC701318C6
S214006750CB71FFF775FAFFF74BFFFFF731FE012805
S21400676006D12B7C23B1BDE8F84017482EF01AB9A5
S214006770F8BD00BFEC6E0020506F0020635F002065
S214006780759B040001002000749B0400020020009A
S214006790739B040003002000729B04000400420068
S2140067A00500420007003000FDFF21001200100126
S2140067B000404200709B040000FF44013C6F002034
S2140067C006004200E85700205869002002FF20011A
S2140067D03B6F002001FF100113B504460D482DF055
S2140067E0EFFF6422C0F30F43637083B2B3FBF2F390
S2140067F0A0782370202201212EF02EFAA0782122E4
S21400680001212EF029FA0449201D02B0BDE81040EF
S2140068102EF0D5B9EC6E0020E09304000B7870B52E
S21400682083704CF61E0303804FF02013C3620123CF
S21400683080F8303080F83C30C3180364124B0446AE
S21400684043640223114A80F84830114B8263C364C4
S2140068504063CA798D6802EB420305EB830004F1BE
S2140068602C0646600B4E45F8236000238360531CBD
S214006870CB71094B201DC4E90134FFF75BFC2046B1
S214006880BDE87040FFF7A8BFFDFF210021002000F3
S214006890769B040001000103D9670000437B044A8D
S2140068A00121137000781130C0B2FFF7FDBB00BFA6
S2140068B06D5F002038B504460078054D11302A4635
S2140068C00121C0B2FFF7E0FB08B92B78637338BD2F
S2140068D06D5F0020024B53F820002EF084BA00BFF4
S2140068E008350020012908B506D0022907D049B985
S2140068F02EF070FA002008BD2EF06FFAFAE72EF0A0
S2140069006FFAF7E7024813F005FD0120F3E700BF32
S2140069100503040010B4054C114654F820001A462E
S214006920BDF804305DF8044BFFF7DCBF08350020E7
S214006930002310B5044683810364A0F84430483031
S214006940FFF7F8FB014BC4E9123410BDCD4D030030
S21400695038B504460B781A4A43700D4642F82300B1
S214006960FFF7E6FF2046FFF7A5FF4FF4401323612D
S2140069700123144A2375A261134A84F82030E26189
S214006980124A84F82C306262114A84F83830A262C7
S21400699004F10C0222630F4A04F10D036263E36301
S2140069A0EA79A86802EB420300EB830110344C60DE
S2140069B0094C40F82340094B8B60531CEB7138BDE3
S2140069C0083500206C5F002008002000516F002072
S2140069D000FF300001FF10010201010415690000EC
S2140069E010B47024427B0D48013A012904FB0200D2
S2140069F006D0022908D059B95DF8044B2EF0EAB942
S214006A005DF8044B2EF0E9B95DF8044B2EF0E8B9BA
S214006A1003485DF8044B13F07DBC00BFE41A002069
S214006A2021030400B0F85C302DE9F0418B420446A7
S214006A300E4638D0437B077C8BB31C4A12789A42AA
S214006A402DD370251A4A013B05FB032390F80F80CF
S214006A501B7B42462EF0D5F9B845054601D1FF28E6
S214006A601FD13A463146204694F890302EF0C9F9A8
S214006A702F460546552212216078A4F85C602EF059
S214006A80EBF8FF2F03D039462046FFF7A9FFFF2D6E
S214006A9009D029462046BDE8F0412EF0F2B9FF2580
S214006AA0DFE70746E6E7BDE8F08100BF555F002058
S214006AB0E41A002041688268C978D27849B112B1D8
S214006AC00321FFF7AFBF837B002B0CBF0121022100
S214006AD0F7E72AB1837B002B0CBF02210121F0E7E8
S214006AE0014813F017BC00BF32030400037BD3B188
S214006AF04368DA7812B18268D278A2B91B7933B1CA
S214006B00837B002B0CBF04210521FFF78BBF836816
S214006B101B792BB1837B002B0CBF05210421F4E7E6
S214006B20014813F0F7BB704764030400084A437B30
S214006B3005211370837B5370C37B9370037CD370E3
S214006B40037B137100780E30C0B2FFF7ADBA00BFFA
S214006B506E5F002038B5044600780C4D0E302A468D
S214006B600521C0B2FFF790FA20B1BDE838400848CA
S214006B7013F0D0BB2B7863736B78A373AB78E37397
S214006B80EB7823742B79237338BD00BF6E5F00202B
S214006B90A0030400024B53F820002EF0BCB900BF3F
S214006BA030350020F8B504460B78424A43700D464F
S214006BB042F82300404E2EF0CCF9FFF7CBFF626878
S214006BC0A3683E483E49D6641165D4655065C3E95E
S214006BD01410DE64DC654FF09873022663610123AF
S214006BE004F10C01E16137491032216204F10D0114
S214006BF0A16235492376E16204F10E0161633349EF
S214006C0084F82430A16304F10F012164304984F82C
S214006C103030616404F11001E1642E4984F83C30A0
S214006C2084F84830216584F85460A265E879A9683C
S214006C3000EB400201EB820704F1140CC7F804C015
S214006C404FF4817C244F41F82270C218D2B202EB76
S214006C50420241F822C001EB820700227A601F4AF6
S214006C6084F8703022661E4A84F88830A2661D4A70
S214006C701D4BE2661D4AC4F88C3062671C4A8319B5
S214006C80A26704F15C02C4F88020DBB2194A03EB69
S214006C904303C4F8842084F8646084F87C6001EBC5
S214006CA0830260345460144A033041F82320E871AC
S214006CB0F8BD00BF30350020B56A0000D94E03008D
S214006CC0ED6A0000010020010200100103003001FF
S214006CD0040030010500210101FC01064A002100E4
S214006CE0789B0400510010007A9B04007B9B0400F4
S214006CF0550021006F0018001200010470B500282E
S214006D007CD000297AD04FF4D813C36200F1080370
S214006D1043633B4B04228363022300F10C040464A8
S214006D20384C80F83C30446400F10E04C464364CA1
S214006D3080F84830046500F110048465334C80F810
S214006D405430C46500F112044466314C80F860305B
S214006D50846600F1140404672E4C80F86C30446797
S214006D6000F11604C4672C4C80F87830C0F88040D8
S214006D7000F11804C0F88840284C80F8843080F869
S214006D80903080F89C3000F11C03C0F88C40C0F8AE
S214006D90A03000F11A04224BC0F89440214CC0F8F1
S214006DA0A43000F1200380F83020C0F8984080F826
S214006DB0A820C0F8AC301C4B80F8B420C0F8B03027
S214006DC000F12403C0F8B830184B00F12C06C0F8C8
S214006DD0BC30012380F8C03000F12803C0F8C4306E
S214006DE0CA798C6802EB420304EB83056E60104D93
S214006DF044F82350531CCB710B78037070BD00BF52
S214006E0005052100080521000B05290000062100C4
S214006E1001062100020621000306210004062100C7
S214006E2000FF23000506210001FF230002FF2000CB
S214006E30040B010D2DE9F7430446002838D02DF049
S214006E40C7FED4F8EC508046451BB5F57A7F2FD3A5
S214006E50B4F8F000B4F80C90B4F8F210B4F80EE001
S214006E60A9EB00031BB2B4F8F420002BB4F810C052
S214006E70AEEB01073FB2B8BFA0EB0900ACEB0206D1
S214006E80B8BF03B2002F36B2BCBFA1EB0E010FB2E3
S214006E90002EBCBFA2EB0C0216B2224A95420AD8BC
S214006EA0042B08DC312F19DC042E2ADCC4F8EC8015
S214006EB003B0BDE8F0832346022213F80C0B40F61D
S214006EC00431CDE90032212340F20552FFF7F0FAF3
S214006ED0A389A4F8F030134B9D42E3D9234602223F
S214006EE013F80E0B40F60431CDE9003221234FF49F
S214006EF0A162FFF7DDFAE389A4F8F230094B9D4260
S214006F00D2D92346022213F8100B40F60431CDE9FD
S214006F100032292340F20B52FFF7CAFA238AA4F85C
S214006F20F430C3E7DF93040070B50D4606461446FA
S214006F3013460A460146164813F0ECF925B92046D2
S214006F40BDE87040FFF726BB072D05D12146304629
S214006F50BDE8704000F012BC4FF601439D4205D1DB
S214006F6021463046BDE87040FFF714BE062D05D119
S214006F7021463046BDE8704000F0B4B9B5F5817FD3
S214006F8005D121463046BDE87040FFF7A3BC70BD72
S214006F90CF0304000148FFF7F1B900BF296F0000D6
S214006FA04FF4C01330B5036001230371074B8C68A0
S214006FB08360CA7902EB420304EB830568600448E9
S214006FC044F82300531CCB7130BD00BF7C9B0400EB
S214006FD004000101F0B5044685B090B32DF0F8FD2D
S214006FE042F20F73D4F888200546821A9A4228D9AE
S214006FF0D4E90263D4E92401864273EB0107134FF8
S21400700021D3BA4206D8301A63EB01010A2871F17F
S214007010000116D38DF80C301B0A8DF80D300623B0
S214007020019302AB00930022252340F202712078E0
S2140070300296FFF73DFAD4E90223C4E92423C4F8F4
S214007040885005B0F0BDBA42FBD9E3E7DF930400F1
S21400705013B5044680B100786A4627300821C0B2CE
S214007060FFF712F850B9DDE900230948C4E9022306
S214007070C4E9242313F04EF902B010BD0022002309
S2140070800448C4E90223C4E9242313F043F9F3E7D0
S214007090020404002D04040070B50D4604460028C2
S2140070A04FD000294DD00B7804F120060370FFF76F
S2140070B0CFFF4FF414132362082304F11002626317
S2140070C0204A84F82430A26304F1110222641E4A86
S2140070D0E31862640422A3621C4B84F84820E3622F
S2140070E0012384F8542004F11802A265184A04F11A
S2140070F01401E26504F11C02E16462661549164A51
S21400710084F8303084F83C3084F8603084F86C3092
S21400711004F11D032165A2662367EA79A96802EBDC
S214007120420301EB830046600C4841F82300531CE1
S214007130EB712978D4E902230948BDE8704013F0C2
S214007140E9B870BD000330000103220000021800F9
S21400715003031800020322000603180002070107B3
S2140071605B04040013B5044678B1D0E90223007826
S214007170CDE9002327306A460821C0B2FEF794FF07
S214007180D4E90223024813F0C5F802B010BD00BFD0
S2140071908C04040030B5044689B040B3436833B36A
S2140071A01A6822B1126812B1586801A990479DF872
S2140071B01030E3B10399D4F880208A4207D8D4E986
S2140071C002308A1A9B1840F10000C4E90230C4F865
S2140071D080102DF0FDFCD4F88430064AC31A934282
S2140071E0054604D92046FFF7BDFFC4F8845009B011
S2140071F030BD00BFDF93040038B50024044D55F8B9
S214007200040B08B12DF0FCFE01340A2CF7D138BD72
S21400721058350020042908B50AD172B16BB113782D
S2140072201BB92DF018FF002008BD2DF00AFFFAE765
S214007230034813F06FF80120F6E70320F4E700BFD9
S214007240B404040010B4054C114654F820001A4645
S214007250BDF804305DF8044BFFF7DCBF583500205E
S2140072600229024608B50ED004D839B910462DF0CA
S214007270F2FE06E04029F9D0412907D110462DF04C
S214007280E0FE002008BD2DF0F0FEFAE7024813F0FD
S21400729041F80120F6E700BFD404040010B4054C02
S2140072A0114654F820001A46BDF804305DF8044B29
S2140072B0FFF7D6BF58350020426B094B52791A703B
S2140072C082785A70C2789A70826B12B190F83C201D
S2140072D0DA70007804210930014AC0B2FEF7E4BE35
S2140072E0735F0020024B53F820002DF0DABE00BF7B
S2140072F05835002038B504460078084D09302A462F
S2140073000421C0B2FEF7C0FE30B96B78A370AB782C
S214007310E370EB7884F83C3038BD00BF735F002024
S21400732038B504460078114D09302A460421C0B20B
S214007330FEF7AAFEC8B9A3782A78022B0CD004D888
S21400734063B920462DF087FE01E0FF2B0AD02046C9
S214007350BDE838402DF054BE002AF2D120462DF06C
S21400736070FEF4E7002AF9D1EBE738BD735F002022
S214007370F8B504460B78284A0D4642F823004370B9
S214007380FFF7B8FF636B254A5C631A632046FFF776
S214007390C7FF20462DF034FE4FF4801363600123B0
S2140073A0626BA66B0532E2601D4A23722261A21C44
S2140073B02375A26166B11B4A84F82030E261E21CA4
S2140073C06262194A84F82C3004F13C03A2622363FB
S2140073D00627EA79A96802EB4203002E21F82370FB
S2140073E001EB83000CBF02230423C37001238370C8
S2140073F00E4B04348360531C4460DBB20C4C03EB2E
S214007400430341F8234001EB830000234360094B0C
S21400741002328360EA71F8BD583500207F500300C1
S2140074200340300101FF300102FF10019D72000091
S214007430080001004572000028B1034B1B78834208
S21400744034BF002001207047575F002070B500252C
S2140074500A4C0B4E3378AB4200DC70BDD4F8A42047
S21400746042B123791BB16079FFF7E6FF10B91046E9
S2140074702DF089FA0135A834ECE700BFF01E002095
S214007480585F002008B5427901461046FFF7D4FF42
S214007490A8B1CB780A48013A042B00EB82100ED82C
S2140074A0012B08D81BB9BDE808402DF0CABDBDE8C1
S2140074B008402DF0D0BDBDE808402DF0D6BD08BD73
S2140074C0F01D002008B5427901461046FFF7B4FFCC
S2140074D0A8B1CB780A48013A042B00EB82100ED8EC
S2140074E0012B08D81BB9BDE808402DF0B4BDBDE897
S2140074F008402DF0A6BDBDE808402DF0B6BD08BD7D
S214007500F01D002010B586B00446FEF759FF01288E
S21400751030D1E278042A2DD8DFE802F013323403A3
S214007520030061790846FFF787FF58B31648032A19
S21400753000EB811050F80C3C58791DD1003818BF6C
S214007540012063784FF480728DF804304FF4827314
S214007550ADF806300623ADF8083001238DF80B3061
S21400756000238DF80A0001A8CDE903238DF8143016
S214007570FEF75EFF06B010BDB0FA80F04009E0E707
S2140075800020DEE70220DCE7F01D002010B586B004
S2140075900446FEF715FF012830D1E278042A2DD8DC
S2140075A0DFE802F013133203030061790846FFF7A1
S2140075B043FF48B31548032A00EB811050F80C3CF3
S2140075C05B791DD11A1E18BF012263788DF80A2038
S2140075D08DF804304FF48273ADF806300623ADF80C
S2140075E0083001234FF480728DF80B30002301A879
S2140075F0CDE903238DF81430FEF71AFF06B010BD50
S214007600B3FA83F25209E0E70222DEE7F01D00201B
S21400761010B586B00446FEF7D3FE012812D1637873
S214007620094A8DF804304FF48273ADF806304FF4F3
S2140076308073CDE90223002301A804938DF814304B
S214007640FEF7F6FE06B010BD0800070110B586B0BE
S2140076500446FEF7B5FE012820D16278104B8DF85F
S21400766004204FF4827294F8A01094F8A100597088
S2140076701870ADF8062004934FF48072022309496F
S21400768001A88DF81430CDE90212FEF7D1FE94F869
S214007690A130013B18BF012384F8A13006B010BD0D
S2140076A0775F00200800050110B58378044603B311
S2140076B00379022B0AD142791046FFF7BDFE28B1A6
S2140076C00C48013A00EB82102DF0CFFCA379022B78
S2140076D002D12046FFF716FF2046FFF7B7FF02232A
S2140076E06078A4F86C305522BDE8104012212DF0C9
S2140076F0B3BA10BDF01D00204388094A0821138044
S2140077008388538083681B8A938090F8A030937197
S2140077108379D37100780430C0B2FEF7C5BC00BFD1
S2140077206A58002038B50D4604460178114812F014
S214007730F1FD4FF602739D420ED10F4B1B782BB90D
S21400774063712046BDE83840FFF7D6BF62790AB1BC
S2140077509342F6D20123F3E7B5F57F4FF1D12046E9
S2140077602DF01CFDA378022B0CBF01220022A3687B
S2140077709A70E6E7F0040400575F0020024B53F8C7
S2140077802000FFF7CFBF00BF8035002038B5044685
S2140077900078144D04302A460821C0B2FEF774FC67
S2140077A020B1BDE83840104812F0B4BD2B88638085
S2140077B06B88E978A380AA88A3681A82AB7984F8D4
S2140077C0A030EB79A371094B1B780BB9637138BDF8
S2140077D009B19942FBD9064812F09CFD2378013383
S2140077E0F4E700BF6A5800200A050400575F00202F
S2140077F033050400F8B504460B78474A0D4642F8B0
S21400780023004370FFF7C2FFA268444BD465D364DD
S214007810434B02265365434BA11C13654FF440139C
S214007820E36001236161E1623F4910322163226512
S214007830211D3E4AA1633E483E49626504F1A0020E
S214007840A061E163E265E01C611D3B4A2062616461
S2140078503A483B492266A21D2374237784F82830D1
S21400786084F8343084F84030A16484F84C6084F89E
S214007870583084F864306062A266E879AA6800EB43
S214007880400102EB810704F10C0CC7F804C04FF06E
S214007890060C2C4F42F82170C118C9B201EB410109
S2140078A042F821C002EB810700217960264F84F858
S2140078B080302767254F84F89830A767244F254BDC
S2140078C0E767254F84F8746084F88C60C4F89C30B1
S2140078D004F16C06831CC4F88470C4F890601F4FD3
S2140078E01F4EDBB203EB4303C4F89460C4F8887001
S2140078F002EB83067034746008261A4C42F8234064
S214007900C31CDBB203EB430302EB8304043042F8F0
S21400791023606160E871F8BD80350020F3500300F5
S2140079203D510300A976000001FF300104FF20014D
S2140079301000300102FF200105FF300100FF30017A
S21400794003FF2101070001084A0021007E9B040076
S21400795051001000809B0400819B0400550021000C
S2140079606F0018001200010400239B6AB3F5804FD5
S21400797003D21968064A914203D00023037083603D
S2140079807047012202709A689B694260F7E700BF61
S21400799007B0CD5E024B034A1A602FF023B800BF33
S2140079A00000002002020FF073B53F4B04461A7821
S2140079B01AB102221A7002B070BDCDE9002200286A
S2140079C0F9D001261E7037F01DFF384D384B186071
S2140079D017F082FA2B785BB902F0F2F940B9354815
S2140079E00823354A3549006801F038FE00B92E7084
S2140079F0334B5A68E260334A9A601A6E22605A6EB7
S214007A006260D3F87021A2601B6E5C042CD52E4AEF
S214007A10D368D807FCD42D4B1A68531C29D04FF4D2
S214007A20801393402A4A13660423294C4FF0804261
S214007A3023664FF480632366102323664FF40053B7
S214007A406846236601A9226663662DF0BFFB009B8D
S214007A502366019B63662B78002BACD0164B1A6806
S214007A6022665B686366A6E71A4AD368D907FCD421
S214007A70D1E7194B1B78002BD6D1184B5A68144BFC
S214007A8012B94FF480121A66154A526812B94FF4AA
S214007A9000121A66134B5B68002BC5D14FF48002A8
S214007AA00B4B1A66C0E700BF7A5F00207B5F0020A2
S214007AB0B8350020C4690020BC35002000710800DD
S214007AC00080004455CEAC000000044090690020C1
S214007AD00090004400000450795F002000800550AC
S214007AE000C005500000065038B5224D04462B78DD
S214007AF0012B02D001232B7038BD0028FCD02DF0BE
S214007B008AFB013009D02DF086FB40F20113984223
S214007B1003D0194AD368DB07FCD42268174B1A66D1
S214007B2062685A66A268C3F87021E268D40744BF48
S214007B3000229A60124B1A68013213D1114A127849
S214007B4082B911494968C80748BF1A600F4A526887
S214007B50D10744BF01221A600D4A5268D20744BFBB
S214007B6002221A6017F0C0F90A4B186837F045FE73
S214007B700023C0E77A5F0020000004400080004435
S214007B8090690020795F00200080055000C00550F5
S214007B9000000650B835002070B50024A36AB3F57F
S214007BA0804F23D21A68134B9A421FD1124E337855
S214007BB013F0FD0518D14FF480341048FFF7F4FE9B
S214007BC0032004F04FFC0E4B0320DC6004F02EFC78
S214007BD00C4B1C61AB6ADB69984704460748FFF705
S214007BE083FF0CB901233370204670BD4FF48174B7
S214007BF0FAE700BF07B0CD5E795F0020A835002009
S214007C0000A000440090004413B5204B1B7803B935
S214007C10FEE700231E4CCDE900336A4608231D49C3
S214007C20206801F01BFDF8B91B4AD2F84031D2F8A3
S214007C3040211F2B4FF0010311D9203A9340019A9F
S214007C401A43019208236A461249206801F08EFE04
S214007C50124B134A1A602EF0C5FE02B010BD9340B8
S214007C60009A1A430092EDE72D28F1D10A4AD2F87D
S214007C704031D2F840211F2B4FF0010385BF203A38
S214007C8093409340019398BF0093DBE77A5F002010
S214007C90C469002000710800008000440000002035
S214007CA00B020FF038B50025AB6A0446B3F5804FDB
S214007CB010D21B6BB3F5804F0CD20748FFF774FE4B
S214007CC0AB6A20461B6B5B689847BDE838400248A5
S214007CD0FFF70ABF38BD00BFC435002013B5002427
S214007CE0A36A0190B3F5804F13D21B6BB3F5804F98
S214007CF00FD20948FFF758FEA36A01211B6B01A8A3
S214007D009B69984704460448FFF7EEFE204602B0FB
S214007D1010BD4FF48174F9E7C435002070B5002615
S214007D20B36A0446B3F5804F0D4612D21B6BB3F50B
S214007D30804F0ED20848FFF737FEB36A20461B6B0B
S214007D4029469B69984704460348FFF7CDFE204620
S214007D5070BD4FF48174FAE7C435002070B5002674
S214007D60B36A0446B3F5804F0D4612D21B6BB3F5CB
S214007D70804F0ED20848FFF717FEB36A20461B6BEB
S214007D802946DB69984704460348FFF7ADFE2046C0
S214007D9070BD4FF48174FAE7C4350020F8B50027AB
S214007DA0BB6A0446B3F5804F0D46164611D21B6BD0
S214007DB07BB10948FFF7F8FDBB6A20461B6B3246CD
S214007DC029465B6A984704460348FFF78DFE20461F
S214007DD0F8BD4FF40174FAE7C435002070B50026EC
S214007DE0B36A0446B3F5804F0D4612D21B6BB3F54B
S214007DF0804F0ED20848FFF7D7FDB36A20461B6BAC
S214007E0029469B6A984704460348FFF76DFE2046BE
S214007E1070BD4FF40174FAE7C4350020F0B50027B2
S214007E20BB6A0446B3F5804F0D461646ADF5337D66
S214007E3020D21B6BB3F5804F1CD21048FFF7B4FD61
S214007E40BB6A20461B6B40F2C1225B6A01A99847B9
S214007E50044630B10948FFF747FE20460DF5337D4E
S214007E60F0BD836A32461B6B2946DB6A01A8984739
S214007E700446EFE74FF40174EFE700BFC435002077
S214007E8010B50024A36AB3F5804F10D21B6BB3F570
S214007E90804F0CD20748FFF787FDA36A1B6B1B6B4E
S214007EA0984704460348FFF71FFE204610BD0124EE
S214007EB0FBE700BFC4350020F0B58FB0044601A82C
S214007EC00E461546FFF7EEFE9DF80C30012B12D13C
S214007ED0B5F5402F27D8B4F5402F24D86319B3F54D
S214007EE0402F20D821462A46304613F0B5FC002401
S214007EF020460FB0F0BD0027BB6AB3F5804F15D201
S214007F001B6BB3F5804F11D20A48FFF74DFDBB6AD5
S214007F102A461B6B314620465B6B9847044605484D
S214007F20FFF7E2FDE4E740F20244E1E740F2011425
S214007F30DEE700BFC4350020F0B58FB0044601A8C8
S214007F400E461546FFF7AEFE9DF80C30012B1FD1EE
S214007F50B5F5402F06D8B4F5402F03D86319B3F50E
S214007F60402F13D940F2024420460FB0F0BDE2582D
S214007F70013225D104339D42F9D82A46314620469F
S214007F802DF079F90028EDD00024EDE70023F2E784
S214007F900027BB6AB3F5804F15D21B6BB3F5804F35
S214007FA011D20A48FFF700FDBB6A2A461B6B314612
S214007FB020469B6B984704460448FFF795FDD3E799
S214007FC040F20344D0E740F20114CDE7C435002068
S214007FD070B58EB0044601A80D46FFF763FE9DF807
S214007FE00C30012B22D144EA0503C3F30C03002B0B
S214007FF033D1B5F5402F04D940F2024420460EB0E6
S21400800070BDB4F5402FF7D82544B5F5402FF3D80A
S214008010204604F500542DF027F9AC4202D0002883
S214008020F6D1E9E70028E7D00024E7E70026B36AA0
S214008030B3F5804F14D21B6BB3F5804F10D20A48AD
S214008040FFF7B2FCB36A29461B6B2046DB6B9847EA
S21400805004460548FFF748FDD0E740F20444CDE764
S21400806040F20114CAE700BFC4350020BFF34F8FAB
S2140080700549064BCA6802F4E0621343CB60BFF3BF
S2140080804F8F00BFFDE700BF00ED00E00400FA05DB
S21400809070B5D0B1C9B10E4E431E013913F8014F69
S2140080A02046325D02F00302012A11F8012F08BFB4
S2140080B004F12000B55C05F00305012D08BF203251
S2140080C0801A01D1002CE9D170BD0120FCE700BF69
S2140080D0E1C204000348044A0449121A92102DF023
S2140080E016B900BF34410000D0420000C066002030
S2140080F008B5154B83F30A8800F030F8FFF7EAFF5F
S214008100124B13498B4212D30020124B12498B425A
S21400811018D3FCF7E7FD186850F82240586840F876
S2140081202240013298688242F5D30C33EAE70022F7
S214008130F8E71C6844F8220001325C68A242F8D3D3
S2140081400833E4E70022F8E708000020A0E7040070
S214008150ACE70400ACE70400ACE70400124B134A9B
S21400816070B59A60D3F88820114D42F47002C3F8B7
S21400817088206FF0010205F50054226641F2FF7276
S21400818062660222C3F8D020BFF34F8FBFF36F8F13
S2140081904FF44036032004F065F90320E66004F04F
S2140081A045F92E6170BD00BF00ED00E00040000004
S2140081B000800044014B1860704700BF986900209B
S2140081C0054B1860054B1B6F03F00703032B01D10B
S2140081D035F0CABB704700BFA06900200080005081
S2140081E02DE9F04104464FF001080C250D4E0CB960
S2140081F0BDE8F08194FAA4F0B0FA80F00F2808FAEF
S21400820000F2C8BF103824EA0204CABF05FB0062A9
S21400821005FB0062B4325768002FE8D09168C0B200
S214008220B847E4E7D435002008B50C4837F088FB9B
S214008230192004F009F928B1192004F013F91920BF
S21400824004F0F4F81A2004F0FFF828B11A2004F01D
S21400825009F91A2004F0EAF8002008BDE49D04009D
S2140082602DE9F0410E461746054618B30F2923D8C8
S2140082700378DBB1013BDBB2022B19D8104AD35C82
S2140082806A78D340DB0717D50E4BD3F81043ACB94A
S21400829037F0B8FA80463A462846314602F042FEA3
S2140082A0404637F0AAFA2046BDE8F0817F23E7E78C
S2140082B00023E5E72224F6E72124F4E70224F2E788
S2140082C0D49B040000C0035010B5044610B30378D6
S2140082D0E3B1013BDBB2022B1AD8104AD35C6278BA
S2140082E0D340DB0718D537F08DFA01226178237862
S2140082F08A4030214B4341F2100103F1A04303F5BD
S21400830070335A5037F079FA002010BD7F23E6E725
S2140083100023E4E72220F8E72120F6E7D49B0400B8
S21400832010B5044610B30378E3B1013BDBB2022B71
S2140083301AD8104AD35C6278D340DB0718D537F0DA
S21400834061FA0122617823788A4030214B4342F259
S214008350100103F1A04303F570335A5037F04DFA7D
S214008360002010BD7F23E6E70023E4E72220F8E79D
S2140083702120F6E7D49B040038B50D46044618B312
S21400838011B30378E3B1013BDBB2022B1AD8104AD3
S214008390D35C6278D340DB0718D537F033FA302247
S2140083A02378534303F1A04303F570335B69627887
S2140083B0D34003F001032B7037F01FFA002038BDBE
S2140083C07F23E6E70023E4E72220F8E72120F6E70C
S2140083D0D49B04002DE9F0410D4616469846044607
S2140083E000284FD000294DD00178002940D04B1EE0
S2140083F0DBB2022B3ED8254AD25C6378DA40D2073D
S21400840001D4FF2940D1022E01D9042E3CD137F0E9
S214008410F9F923780746FF2B05D03246204629680F
S21400842002F0C6FD28602B68013309D12378FF2BA4
S21400843006D1174B6078D3F824142DF043FD28603E
S21400844029684B1C18D00C23124A03FB0122069BFA
S214008450C2F8048093602378FF2B04D001230E4AD1
S2140084608B40C2F82434384637F0C7F9002007E0BE
S2140084707F22C2E70022C0E7384637F0BEF92D203B
S214008480BDE8F0812220FBE72120F9E7D49B040019
S21400849000C00350D435002000D0035008B502F0C9
S2140084A037FD044B00F05530C3F82004BDE8084003
S2140084B0FFF796BE00E0035008B502F029FD044B16
S2140084C000F0AA30C3F82004BDE80840FFF788BED5
S2140084D000E003502DE9F04F144605460E469B4635
S2140084E0C36B87B001225B6902A960689847EB6B93
S2140084F001225B6903A93046984702A82DF006FBC7
S214008500074648B10023A37563754FF0FF33A36099
S214008510002007B0BDE8F08F03A82DF004FB012370
S214008520A375237E04EBC303DE611F846368B34236
S2140085300ED1206003A82DF018FB4FF0FF332075F6
S214008540A360237D043B022B26D80023A375DFE718
S21400855023681A1A53425341A37503A82DF005FB4E
S214008560237D834218BFA77503A82DF0E0FA0746BF
S21400857002A82DF0DCFA874218BF002303A818BF14
S214008580A3752DF0DCFA074602A82DF0D8FA87422C
S2140085901CBF0023A375D4E703A82DF0C8FA80B14A
S2140085A0EB6B022230465B6904A9984704A82DF0BD
S2140085B0CDFA0346207D032839D8DFE800F03838A6
S2140085C0040903A8F3E7CC22237E04EBC3031A8432
S2140085D001F06EFC109B187003A8277E2DF09BFA06
S2140085E004EBC70787F82200237E03A804EBC30327
S2140085F0B3F8209093F822702DF099FA804603A8DD
S2140086002DF09DFA8246B8F1000F15D0EB6B0222D2
S21400861030465B6904A9984704A82DF05CFA60759B
S214008620637D6BB90023A3754FF0000838E0227E07
S21400863004EBC2021384CBE703A82DF037FAEEE76B
S21400864094F81680B8F1000FEED0B9F1000F09D1FA
S214008650DFB10123E375637E002B4FD1012F42D19A
S214008660677614E06B6C06EB0A015A4286EA010054
S21400867010421CBF0022A2755A1E0A409B1A99453A
S214008680D0D8A37D002BE3D1CEE7E37D43B94FF0EE
S21400869000084B465246314628462CF082FFA06022
S2140086A0A27D12B123694B4423611A49237E0978BF
S2140086B099422AD901332376BBF1000F27D032B373
S2140086C0E37D23B3B8F1000F21D1032F1FD0A1689B
S2140086D04B1C1CD0109B2246009328460123FFF714
S2140086E0F9FEA07513E095F8343063B9EB6A0133F0
S2140086F0CFD1032FCDD10123A376C8E7012FCFD04A
S214008700032FC4D1F7E79846C3E70023A375A07DDF
S214008710FFE600BFF89B04002DE9F04F0E46984692
S21400872000238BB004464FF0FF31104617468DF8F5
S214008730133001F0A7FBB6F5801F20D2314605AAFC
S21400874004F108002DF034F9451C014603D1237CC2
S214008750BBB92D2010E0384601F094FB01223946C3
S21400876020460DF113032CF06EFF0028EFD09DF885
S214008770133088F8003000200BB0BDE8F08FB01C36
S214008780E5D1E56A691C36D12046616A2CF04FFEB9
S2140087900546B31C18BF0123DFF8CC900193636A2B
S2140087A0626C0293236805A902FB053AE36B052277
S2140087B05B695046984705A82DF043FA2DF066FAF7
S2140087C050462DF06EFA4FF0000B824601464B1CC9
S2140087D005D0636C81EA0A025B42134211D0294637
S2140087E020462CF024FE029BAB422CD0BBF1000F9F
S2140087F02CD10546D3E72368ED1A636CB5FBF3F579
S214008800C7E7484601F03EFB0DF1130349462046F4
S214008810019A2CF018FF034690B1B21C03D0D9F889
S2140088200020B2420CD19DF8132003930D4B88F81C
S214008830002049461A68384613F00EF8039B9B46FC
S214008840D9F80810C3E7BBF1000F82D0B6F5801F39
S21400885091D2314698F800307A6804F1080001F0A9
S2140088603FFA88E7F49B0400B03D00202DE9F34171
S2140088700446174698460E46184D816AE36A8B42B0
S21400888001D04B1C02D102B0BDE8F081284601F0B1
S214008890F9FA0122294620460DF107032CF0D3FEF3
S2140088A038B14346294620469DF80720B847002899
S2140088B0E9D0A9684A1C04D1696820462CF044FE19
S2140088C00146012EDAD16B6881EA0302636C5B42D3
S2140088D01A4218BF4FF0FF31D0E700BF843D00209A
S2140088E02DE9F04F4FF0FF334FF6FF720025044698
S2140088F000F10806C0E909238BB0C3620562056370
S214008900304688462DF025F820462CF060FD60BBEA
S214008910204641462CF0DBFD20462CF058FD60BB7F
S2140089205E200BB0BDE8F08F2368E26B606C576981
S21400893000FB0530052205A9B84705A82DF081F9EA
S214008940012807460CD1294620462CF091FD012F20
S214008950024600D10132294620462CF057FD03E09E
S2140089602DF099F90028EED10135E3699D42DBD35D
S21400897020462CF02CFD0028CAD000254FF0FF39E9
S2140089804FF6FF73CA46A846C4E90853E3699845FC
S2140089900AD3A5EB0905012D2CD84FF6FF72636AA2
S2140089A093423CD16720BCE72368E26B606C576952
S2140089B000FB0830052205A9B84705A82DF041F9A7
S2140089C0834605A82DF014F9074658462DF05EF9A3
S2140089D068B1574538BFC4F82480B94528BFB946A2
S2140089E0BD4238BF3D46BA46236A0133236208F1CA
S2140089F00108CBE74FF6FF7300256362E3699D42EB
S214008A00CBD2676C2068E36B052207FB05005B6929
S214008A1005A9984705A82DF0EBF80135EEE7E26BBF
S214008A20676C2068694607FB030055690522A8475E
S214008A3068462DF0DDF8626A2368606C4B4D00FBDB
S214008A4002302DF02EF94FF0FF33A062E3622A4683
S214008A506FF00101204605ABFFF75EFE002846D109
S214008A60AD6829462046E5622CF08DFC206320B9CF
S214008A702046E16A2CF068FDE062294620462CF08C
S214008A8063FD0546A36A9D4233D120462CF04EFC7A
S214008A9000278046B946E36999453CD3B84559D97D
S214008AA02046616A2CF0C3FC0026054604F1400A05
S214008AB0B74212D8626C2368694602FB0539E36B3D
S214008AC005225B694846984768462DF091F853465C
S214008AD002464946E06B2DF0E6F8294620462CF083
S214008AE0A6FC0136B0450546E2D1642019E7A56A22
S214008AF0B7E7294620462CF046FC236B294603445C
S214008B000746236320462CF01FFD0546002FB9D1EB
S214008B10C4E90B07B6E7636C2568052203FB095515
S214008B20E36B05A95B692846984705A82DF089F8E8
S214008B302DF0ACF858B128462DF0B3F80146204683
S214008B402CF021FC636C143B984208BF013709F1F6
S214008B500109A0E730462CF0FCFE0023204619460B
S214008B60034AFFF783FE0020DBE600BFDC3D002063
S214008B70355603002DE9F041036B9046826B07687B
S214008B809A4288BF8363426C436A90B002FB0377C5
S214008B90C36B0E46052201A95B6904463846984712
S214008BA001A82DF04EF801280146307057D0656CAC
S214008BB0E26B2368606AD2F814C005FB0030052219
S214008BC006A9E04706A82DF03CF801284FF000055E
S214008BD023D0D4E90A3201219342CDE90B458DF822
S214008BE034800E958DF83C102AD1194620462CF07C
S214008BF0ABFC236B626C14339B1AE06223630C9B02
S214008C0053B99DF83C303BB1626A616C2368E06BF7
S214008C1001FB02312CF0CDFF0C9DE36B05225B6956
S214008C2001A93846984701A82DF00BF83070284661
S214008C30236BA26B9A4288BFA36310B0BDE8F08195
S214008C40237C33B91C490BAA04F1080001F096F8FE
S214008C50D5E72046194A0BABFFF708FECFE7237C83
S214008C6023BB2246164904F1080001F087F8616A22
S214008C7020462CF0FDFB616A421C20462CF0C6FB09
S214008C80054620B9236B626C1344143B23632046CD
S214008C90A16A2CF059FC2368A062C01A636CB0FB72
S214008CA0F3F0606220462CF092FCB6E700232046E4
S214008CB0044AFFF7DBFDDAE71994000095930000FD
S214008CC0CF5603006B56030073B50D46D11E4A42BD
S214008CD01C461B7E4A419A4226D12968236899423F
S214008CE022D3636899421FD8114E0DF1070332460E
S214008CF0FFF712FDC0B972686B689A4214D19DF8EE
S214008D000730DA1E53425341227E93420CD16369E8
S214008D1001336361D4E90323934205D22968A2682C
S214008D2042F8231001332361012002B070BD00BF5A
S214008D30DC3D00202DE9F04F9B4689B09DF8483079
S214008D409046514A0193136907465B450D46C0F0AD
S214008D509580D94653680093B9F1000F7BD0FB6B22
S214008D6001225B6905A90098984705A82CF0DBFE50
S214008D70454B1B68984240F0848005A82CF0DFFE27
S214008D800428064615D105A82CF0E0FE009B0446F4
S214008D901E44019B002B3ED1804512D91C46A8EBF1
S214008DA00008384600992CF0CFFBA9EB0409009088
S214008DB0D2E7FB6B02225B69009806A9984706A8D3
S214008DC0E2E7A0EB08045C4528BF5C46032C46445B
S214008DD0ABEB040B1DD9FB6B294630465B69A2083A
S214008DE0984724F0030304F0030A1E441D44DDF8EC
S214008DF00480BAF1000FD4D0FB6B012206A93046DE
S214008E005B6998475246284606A912F025FD554448
S214008E10C7E7A246EBE7824600F0030302932B184F
S214008E2003930644039BA6EB0A00A3EB0A05029BEA
S214008E309A4514D1BAF1000FB3D0FB6B012206A9F4
S214008E405B6998475246284606A912F0C1FE0028DC
S214008E50DDD04FF03609484609B0BDE8F08FFB6B11
S214008E60012206A95B6998470422284606A912F043
S214008E70AFFE0028EDD1AAF1040AD3E74FF063094C
S214008E80E9E74FF06F09E6E7083E00202DE9F041DC
S214008E900F4616469846044688B060B390F834509D
S214008EA0FDB101212CF088FA00210E9BCDE90511B9
S214008EB0CDE902379DF83C30CDF804808DF81C30A3
S214008EC0237C04968BB90D4901AA04F1080000F032
S214008ED055FFDDE90553E06B002E08BF1D462CF05C
S214008EE004FC284608B0BDE8F0812046044A01ABE1
S214008EF0FFF7BCFCEDE70546F3E700BF9956030015
S214008F00C98C00007FB590F84260044601920DF1CE
S214008F100B030A46304611492CF0EFFB012E05469E
S214008F20E36B17D132465B6903A998479DF80B108F
S214008F30039B019A59B19BB243EA02430122284699
S214008F400393E36B03A99B69984704B070BD62F373
S214008F500F03F3E701229B6901A9F5E7083E00200D
S214008F602DE9F04F99B00E460D920A69416C0B93AD
S214008F701439D31DB3FBF1F3013302EBC302036BC9
S214008F8004469342C0F001820023DFF8049408935D
S214008F90E36A48461946059300F074FFD6E903379E
S214008FA007930B9B022B4DD1CC2F40F0D7810D9B06
S214008FB03BB1314620462CF0F6FB656C1490012040
S214008FC044E00120079B656C1B68149300F00100C9
S214008FD000280CBF04230823782F0E9349D8059A3F
S214008FE06B1E1340ED1A3B1D9D423CD2002F3DD018
S214008FF0082D3ED80023042506934FF0040A336854
S21400900006990B98C9F80030C9F810702CF0B1FD1D
S2140090104FEA9A030F93059B89F8140003930023E5
S21400902009930C9304930A93616C039B4A1E1A409F
S2140090308B1A27B35544AB4223D8236B5B1A1344D1
S21400904023632FE1782F656CB9D8F07D0D9B002B3C
S214009050BCD0E36B01225B69706816A9984716A816
S2140090602CF065FDB4E700250695C6E704250697AF
S214009070C3E7012300254FF0080A0693BFE75345D0
S214009080DBD3A3EB0A029742039BB84628BF904661
S2140090909742534428D90122D9F8101089F817208E
S2140090A08F4226D10399C9F80410049299F8172024
S2140090B00AB399F818100398CA1C09EBC20250604C
S2140090C004980131A2F80880907289F81810B8F157
S2140090D0000F07D00B9A022A40F08180099A72B1DD
S2140090E0012209929B46ABE0049A002A18BF03228D
S2140090F0DBE70222D9E7039AC9F80420E7E70C9ACF
S2140091004244032AEED9E26B1846956914A9012257
S2140091100993A847099B05460028E1D03D2D40F05D
S2140091201E8104F1080303932368059A606CA2EB82
S214009130030ABAFBF0FA00FB0A302CF0B2FDE16A33
S214009140804620462CF000FAA26A824200F00F8188
S214009150626CD9F80830511E0B40216B2768891ABB
S2140091600B442363089BE062DF1BB7FBF2F7BA45AC
S21400917040F0FA80059BB3EB080A12D0E36B4FEA87
S2140091809A0241469B6998478346E36A059A534488
S214009190E362236B03989B1A434423632CF0D9FBAA
S2140091A0DA462368616CE06B01FB07312CF0EEFCBD
S2140091B020462CF00CF920462CF009FA2063BAF170
S2140091C0000F00F0D4803269616CD31D1439B3FBF4
S2140091D0F1F3013302EBC3029042A5D2BFE00D9A31
S2140091E0002A77D1B8F1030F4FEA98026ED9E16BE7
S2140091F018468D6907991093A847109B0546C0B975
S21400920018F0030515D0079A28F0030B02EB0B01A4
S2140092109B444FF0FF3215A815922A46109312F081
S2140092201BFBE26B5846956915A90122A84705461F
S214009230109B9B46079A42440792002D40F08B8075
S214009240049B16A80193069B009399F814204346A6
S214009250316800F0CDFDE36B0F9A9B69039816A961
S2140092609847039A051E089B18BF13460893434663
S2140092705246204603992CF094F9236B08F103021A
S214009280A3EB0A0322F003029B1AC9F80800236323
S214009290002D7FF443AF0C9BA7EB080743440C93C9
S2140092A0CDF80CB0204603992CF04EF9002503901B
S2140092B0002F7FF4B9AE364A3168936804F108008F
S2140092C0E36252680B9B00F00BFD49E09B46454667
S2140092D007999EE79B4606F120021092F27D706881
S2140092E0A2B1002296F818C00A99D5B2AC4511D999
S2140092F0109D02F1010E35F832508D4228D90E9895
S21400930006EBC2020144D069084403E00E9A0A99AB
S2140093100A441044E26B15A9556901221193A84727
S214009320159A0A9B1392E26B0433956958460122FC
S21400933013A90A93A847119B054603EB0802A2EB64
S2140093400B02042A7FF679AF28B90BF1040BC5E7A8
S2140093507246491BC9E7CDF820B088E770252F462E
S214009360384619B0BDE8F08F4FF0000A19E73269A9
S214009370616CD31D1439B3FBF1F3013302EBC30266
S214009380236B9342BFF404AEE9E71C27E8E700BF6F
S214009390B03D0020032A2DE9F34106460D46174648
S2140093A01C4606D1237A012B23D0012002B0BDE84B
S2140093B0F081DFF86080096842460DF10703FFF789
S2140093C0ABF960600028EDD19DF80720237A032AC8
S2140093D0E8D0D8F804106A689142E3D1012B2969D5
S2140093E0D4F80CC007D172690CEB0103934202D982
S2140093F02074207CDAE708316144E1603B460122B4
S21400940029463046FFF7ACFD60600028CAD0002031
S214009410CCE700BFDC3D00202DE9F341089C032A81
S2140094201746266806D1237A012B24D0012002B0E5
S214009430BDE8F081DFF89080304642460DF1070324
S214009440FFF76AF960600028EDD12568D8F80400B7
S214009450A96AD5F844C04840CCF100031840227AE7
S214009460E1D1012A09D1E268D8F8103013447269B4
S214009470934202D92074207CD9E72868EB6A1B1A2D
S214009480081AB3FBFCF3B0FBFCF083420BD1706C04
S214009490F36A421E1340326B121A13442846336393
S2140094A02CF052F8E862D8F81020E368083213442B
S2140094B0E36001223B4604492068FFF751FD6060E7
S2140094C00028B0D00020B2E7DC3D00202DE9F041B6
S2140094D00025604B0E46D3F8008004461D6018B980
S2140094E021252846BDE8F08190F8347007B30A6855
S2140094F003689A4240F0A3804A6843689A4240F064
S2140095009E808A6883689A4240F09980CA68C368D9
S2140095109A4240F094800A6943699A4240F08F80EC
S2140095208A69C36B9A4240F08A804B698361D8E7A8
S21400953068223946856B11F0FFFFD6E902123368C0
S21400954004F1080023607368A56363603369636190
S2140095507369A3612CF00FFAB36904F14000E3636A
S2140095609B68984720B9676C17B16368B3FBF7F739
S21400957094F84330E761002BB2D00023656C236675
S214009580002D64D0002F62D02368B3FBF5F205FBF4
S2140095901233002B55D16668B6FBF5F305FB136353
S2140095A0002B4ED120462BF0DEFEA3690433034485
S2140095B09E4248D340F634726369CC3B934244D80B
S2140095C0B5F5805F43D3032120462BF0F5FED4E9A2
S2140095D00001E36B1B6898470546E36B0220DB68D7
S2140095E09847CDB941462046FFF77AF964280546E4
S2140095F004D141462046FFF773F90546666C5DB90F
S214009600236A2046143E5E432BF0ADFEA369043366
S21400961003449E4238BF5A25002D0CBF0123002369
S21400962084F8343007D1D4E900010B4A13680133BB
S21400963013602CF03AFAE06B2CF057F851E75D25F2
S2140096404FE759254DE75A254BE75F2549E75B2548
S21400965047E700BF403700203C3700202DE9FF4198
S2140096600C4616461F46054680B390F834307BB34A
S214009670B1F5801F2ED2DFF8608001212BF09CFE12
S2140096802146424628460DF10F03FFF745F80446EB
S21400969070B99DF80F30012B11D1D8F81030BB42AD
S2140096A012D10246009031462846FFF743FB044697
S2140096B0E86B2CF01AF8204604B0BDE8F081022BC7
S2140096C014BF2D246024F3E76324F1E72124F2E796
S2140096D01124F0E72924EEE7083E00202DE9F043A8
S2140096E085B00C4617461E460546DDF8308098B312
S2140096F090F8343093B3B1F5801F31D2DFF8649020
S21400970001212BF059FE21464A4628460DF10F034B
S214009710FFF702F8044688B99DF80F30012B14D1E4
S214009720D9F8102006EB08039A4213D3009043465C
S214009730324639462846FFF7FDFA0446E86B2BF01A
S214009740D4FF204605B0BDE8F083022B14BF2D24BD
S2140097506024F3E76324F1E72124F2E71124F0E71D
S2140097602924EEE7083E002073B50C46164605464B
S21400977030B390F834302BB3B1F5801F24D20121DA
S2140097802BF01AFE21462846104A0DF10703FEF775
S214009790C3FF044680B99DF80730032B0CD0022B7C
S2140097A00CD1284609492BF0FEFF3060E86B2BF001
S2140097B09CFF204602B070BD2D24F7E76124F5E734
S2140097C02124F6E71124F4E72924F2E7083E0020D6
S2140097D02DE9F3411E4600230C4617460546336026
S2140097E050B390F834304BB3B1F5801F28D2DFF871
S2140097F0548001212BF0E0FD2146424628460DF11B
S2140098000703FEF789FF0446A0B99DF80730032B2F
S21400981010D0022B03BF01233B600423D8F810307E
S21400982018BF38603360E86B2BF05FFF204602B04D
S214009830BDE8F0812D24F6E72124F7E71124F5E7AB
S2140098402924F3E7083E002073B50446056B2BF089
S2140098508AFD636E03449D422CBF0023012385428C
S21400986094BF00252D1A207C84F85030656584F856
S2140098705800A8B100230C4E1A46194620460096FA
S2140098802CF055F8002305461A4619462046009641
S2140098902CF056F8E3682844984294BF0020C01A7B
S2140098A0E06502B070BD00BFFFFF0F002DE9F34773
S2140098B01E4643690446B342884617469DF82890DC
