S01B00006275696C642F72656C656173652F7A69676265652E73333714
S21400400008100020FD980000DDE2000035300300B7
S21400401035300300E5E20000EDE200003530030035
S21400402035300300353003003530030035300300EB
S214004030F1E20000EC7A040035300300353003006E
S214004040353003003530030035300300159400008A
S21400405035300300353003003530030035300300BB
S2140040603530030035300300F1E70000BD230300C0
S214004070353003003530030035300300353003009B
S214004080353003003530030035300300353003008B
S214004090353003003530030035300300353003007B
S2140040A035300300C59C0000A99C00003530030095
S2140040B0353003003530030035300300D93B0200AD
S2140040C0718C03006D8C03003D330200878C030067
S2140040D0758C0300993B0200798C0300CD1F02000B
S2140040E0193C02003530030035300300353003003C
S2140040F0353003003530030035300300353003001B
S214004100353003003530030035300300353003000A
S21400411035300300353003003530030035300300FA
S21400412035300300353003003530030035300300EA
S208004130353003001E
S214004134F0B5114A114C124E00F00105E3695F0711
S21400414413D40DB9334213D103EA00078F4207D1C3
S2140041540B4A1A40002A14BF6FF001000020F0BD7D
S214004164013AEBD16FF00200F9E74FF0FF30F6E7C3
S2140041746FF00100F3E700BF80969800000003503C
S214004184020001000B4B70B5D96911F480310DD1D2
S21400419401244FF48072084E084DF46020462C64C7
S2140041A41A61FFF7C5FF3464EC6070BD6FF0010060
S2140041B4FBE700BF0000035000100350002003502C
S2140041C438B541F6713301220C4C0021E569E363EE
S2140041D40B4B05F48035DA600223606121202361ED
S2140041E4FFF7A6FF10B92120FFF7A2FF0122054B17
S2140041F4DA600DB10023E36338BD00BF000003504E
S214004204001003500020035070B5134C6061E3693E
S2140042145B071ED40E4656F8043B8D18A361AE42C7
S2140042240BD10423002121202361FFF781FF58B915
S214004234BDE870402120FFF77BBF08210846FFF742
S21400424477FF10B10423236170BD56F8043BA361C5
S214004254E5E74FF0FF30F7E7000003502DE9F84399
S214004264154641F67132164B8946DF69DA63012238
S214004274064603F58053DFF8508007F48037DA608B
S21400428455B9284601220F4BDA601FB10022A3F568
S2140042940053DA63BDE8F88306F5005404EA08041C
S2140042A4A41BAC4228BF2C46494622463046FFF79C
S2140042B4ABFF0028E6D12644A1442D1BE0E700BF4F
S2100042C4000003500020035000E0FFFF45
S2140042D02DE9F04F4FF0FD0BC9B09A460DF11B09C2
S2140042E09DF8503108AFCDF80C90CDF808B0019786
S2140042F0059303890446009383790E4690464188C9
S2140043008288407814F0B4F9054650B10090A3882E
S214004310002062883A4914F0EFFC284649B0BDE810
S214004320F08F99F8000031F0F5FF38B12846A388E1
S2140043306288344914F0E0FC8D25EEE75A4639468B
S21400434099F8000031F08EFF8346002851D0529B2A
S2140043501BB1BDF84C3198424BD8002399F8009019
S2140043600793A9F14102012A5FFA8BF123D8384658
S2140043700139254ADFF898C05FFA81FE734513DBE2
S214004380059B04210792C3B907AF18221F489FED6B
S2140043901A7B02FB060420460A460830394684ED9E
S2140043A0027B19F0D1F911E010F8011F01335140DA
S2140043B00CFB01F2E2E7059B33B123464A4638463A
S2140043C0009612F0D7F8A8E70829DED9B8F1000F52
S2140043D001D088F80090BAF1000F01D0AAF800B01A
S2140043E0529B002B99D05A46184608A919F0ACF9EA
S2140043F093E7012591E700BF0000000000000000E1
S2140044000A2304003F230400C59D1C8118110020C8
S21400441093010001000000002DE9F04F93B0CDE9B4
S2140044200A32DDE91C530E9353EC102BCDE908013C
S214004430104619468DED060B1E9E18F00FFC80B137
S214004440DDE906014FF0FF32C54B18F02FFC40B9EE
S214004450DDE906014FF0FF326FF4801318F008FC18
S21400446070B1DDE908019DED060B0E9B1E96CDE9A9
S2140044701C53DDE90A3213B0BDE8F04F00F088B9EE
S2140044800022DDE90601002318F0F2FB002800F008
S2140044903381DDE906A303F1004BCBF30A5016F493
S2140044A08063A0F2FF3008BF06250F9318F004F9CA
S2140044B09BA3D3E9002318F069F99BA3D3E9002353
S2140044C017F0AEFFCBF31304894644F07F518046C5
S2140044D00022A44B504641F4401117F09FFF94A3CE
S2140044E0D3E9002318F052F902460B4640464946E7
S2140044F017F096FF18F0E4FB044618F0DDF88EA3DC
S214004500D3E900238046894618F040F90022964BEE
S21400451017F086FF18F0D4FB89A3D3E900230746DB
S2140045204946404618F032F980463846894618F023
S214004530C3F885A3D3E9002318F028F902460B46F2
S2140045404046494617F06AFF02460B46CDE90C2363
S21400455018F01CF9DDE90C238046894610461946FA
S21400456017F05EFF0022CDE91001804B4046494619
S21400457018F036FA00227E4B17F052FF02460B4622
S2140045804046494618F02CFA00227A4B17F048FFAE
S21400459002460B464046494618F022FADDE90C234F
S2140045A08046894600204FF0804117F037FF0246CC
S2140045B00B464046494617F033FF02460B46DDE9F8
S2140045C0100118F00DFA07F2FF3700226A4B17F0B9
S2140045D027FF00223B0518F0D9F852465B46804676
S2140045E0894618F063FB002840F08980CDE90C89E5
S2140045F004F16303C62B8CBF0527042731051BD5A2
S21400460053A3D3E900235046594618F045FB00282B
S2140046107FD051A3D3E900235046594618F028FB13
S214004620002876D00027A542C6BF2C1B04F1FF3514
S21400463000253C4646F480660E9B9F422CBF4FF0FA
S2140046400008A3EB070816F0020903D0002F18BFD6
S2140046504FF000083CB1DDE90C235046594618F0EF
S214004660BFF982468B46DDE906010022002318F0DA
S214004670FFFA10B10BF100439B46DDE9080126F472
S2140046800063CDE90183DDE90A324BEC10AB0095FF
S21400469000F07EF802465FB3DDE9091316F0200F3E
S2140046A000F10105089E0CBF65204520B047DDE9F6
S2140046B008010523002205930A23002CCDE90232C7
S2140046C007F1FF374FEAD473B8BF64422A46019316
S2140046D004970A9B009433F039FC0246B9F1000FA8
S2140046E006D00B9BC41A0B9B1A190E9BA34245D8E7
S2140046F0104613B0BDE8F08FDDE906ABCDE600222C
S214004700404649461A4B18F06BF9013CCDE90C01BE
S2140047106EE7002D90D00F9B002B8DD0013D8BE7D0
S214004720FB799F501344D33FB3C8608B288AC63F9B
S21400473061436F63A787D23F71A379094F930A40FD
S2140047401655B5BBB16B0240EF39FAFE422EE63F76
S2140047502D431CEBE2361A3F0000000080842E41F9
S214004760FFFFEF7F0000F83F0000E03F00002C4016
S21400477000002440000018400000F03F2020DDE943
S2140047800913089DA8470134ADE700BF00000000EC
S2140047902DE9F04F5BEC10AB97B0CDE90501DDE9F4
S2140047A02058CDE90723504652465B465946229F7D
S2140047B018F054FA70B90323CDE902870193AA4B87
S2140047C00093DDE90501DDE9072333F0F1FA17B0C0
S2140047D0BDE8F08F4FF0FF326FF480135046594615
S2140047E018F046FA28B10423CDE9028701939F4BBF
S2140047F0E6E74FF0FF32504659469D4B18F056FA02
S21400480068B19C4A07F00403002B08BF03229A4BAA
S2140048101CBF13460422CDE902870192D0E750461A
S2140048208DA3D3E90023594618F040FA38B98CA373
S214004830D3E900235046594618F01AFA68B1DDE964
S2140048400723DDE905014BEC10ABCDE92187209568
S21400485017B0BDE8F04FFFF7DFBD0022002350463B
S214004860594618F005FA002800F091805B4652463B
S2140048700020002117F0D2FD012382468B460993C3
S21400488017F4806400F08580092D40F285800024AE
S21400489030210EABA5F109020134202C03F8011BD0
S2140048A0A5EB040901D09442F6D15946504618F0BB
S2140048B007FA724B054603EBC90393ED007B8DEDBB
S2140048C00A7B17F0F9FE02460B465046594617F08B
S2140048D0A5FDDDE90A2317F059FF02460B46CDE990
S2140048E00C2318F015FA064617F0D6FE02460B46BD
S2140048F0DDE90C0117F092FD02460B46CDE90C23CC
S21400490000225F4B18F0D2F9002848D00136304616
S21400491017F0C2FE02460B46DDE90A0118F0B2F9AE
S21400492008B100260135B9F1000F45D1284617F029
S214004930C3FE02460B465046594617F06FFD00224E
S2140049404F4B18F095F910B9E90700D501350A2143
S2140049500EAB1A19202C0AD095FBF1F001FB10556E
S214004960303502F8015B013405460028F2D107F025
S2140049700302012A55D1B8F1000F52D0099A12B994
S21400498017F00C0F01D008F1FF38302240E00990F4
S21400499076E74FF0060988E7A946002485E7002257
S2140049A0DDE90C01364B18F063F90028BBD10EB1D7
S2140049B0F007B8D50136B6E70A210EAB1A19202C37
S2140049C00DD0B6FBF1F001FB1063092E03F13003A6
S2140049D009F1FF3904F1010402F8013B11D8302136
S2140049E0A1440EAA202CB2D04C4504F101030AD1F2
S2140049F004F158020DEB02042E2204F8202C1C466B
S214004A00A5E70646DBE7A1541C46EBE71A5501343A
S214004A10444506D2202CF9D1CDE9028701940EAB8D
S214004A20CEE6202CF8D0099B3BB12D2204F158038A
S214004A306B4403F8202C0134EEE77A0704D504F122
S214004A4058032B226B44F4E73B07E5D504F15803E3
S214004A5020226B44EDE700BF0000000065CDCD418D
S214004A600000000065CDCDC19D400400A1400400BB
S214004A70FFFFEF7F9440040099400400208A040062
S214004A800000E03F0000000070B58EB02C22002130
S214004A9003A818F0C9FC64234FF002320893CDE94E
S214004AA005230B2301218DF834305B4B8DF8101055
S214004AB01D880D4040F0A980084637F0A3FA0A2268
S214004AC0564B574C1A704FF42873ADF812304FF00F
S214004AD0FF332360534B54491B8820460B82534BAD
S214004AE0534A1B68CD828B61524B0D621B884B82EA
S214004AF0514B1B68CB611FF005F920B14FF41B71B9
S214004B004E4838F01AFB0521206833F012FC20B11D
S214004B1040F27D21494838F010FB206817F03AFC37
S214004B20474B2068196833F0C7FC0C2537F0D2FED7
S214004B306843099037F0CEFE68430DEB05010790F9
S214004B40206819F033FB20B140F295213B4838F03D
S214004B50F4FA256821F00EFB00220146284633F0C1
S214004B6023FD20B140F29721344838F0E6FA40F2AF
S214004B700353344D344E2B80052396F90000AB705A
S214004B807F2801D11FF0B4F93378EB7037F0A2FE1E
S214004B9000EB80008000A88037F09CFE0023C00059
S214004BA04FF0FF31E880AB604FF0FF3018A3D3E939
S214004BB0002337F079FB2549206833F0AEFC2068E7
S214004BC002A934F0CAF820B14FF434711B4838F00B
S214004BD0B4FA042220680DEB020133F042FC0428EC
S214004BE004D040F2D721154838F0A7FA01A90120D1
S214004BF033F043F809F0B6FB01201FF0FDFD2FF05F
S214004C00A6F81FF023FE1FF00BF90EB070BD00BF14
S214004C100A0020FF42030000086800203D6F0020C5
S214004C2028620020CEA304000C760020D4A3040043
S214004C302DC00300CCA30400D0A3040066790400B2
S214004C40547300201C620020F8780020A1C00300E6
S214004C500348044B834202D0034B03B11847704706
S214004C60247900202479002000000000064B074924
S214004C70C91A891048BF0131491003D0044B0BB143
S214004C8001481847704700BF247900202479002087
S214004C900000000010B5064C237843B9FFF7D8FF94
S214004CA0044B13B10448AFF300800123237010BDFA
S214004CB0481600200000000054C7040008B5044B46
S214004CC01BB104490448AFF30080BDE80840CDE7B7
S214004CD0000000004C16002054C70400A3F5803ADC
S214004CE0704700BF154B002B08BF114B9D46FFF7C2
S214004CF0F5FF00218B460F461148124A121A18F08B
S214004D0093FB0C4B002B00D098470B4B002B00D08E
S214004D1098470020002104000D000B4818F0CAFE3A
S214004D2018F05AFB200029002DF0F1FB18F0B0FE19
S214004D30000008000000000000000000081000202E
S214004D4008100020946F00201DDB010007B501212C
S214004D5020200DF1070201F051FE58B10223012177
S214004D6020200DF107028DF8073001F057FE03B042
S214004D705DF804FB9DF807100229F8D002220948C6
S214004D8017F040FA022301210DF1070220208DF8CA
S214004D90073001F043FE2DF0F7FA4FF4FA6001F009
S214004DA077FCE4E768D5030038B501F0EFFB03F0C5
S214004DB0D9FD02F025F9012805D002F021F90228D4
S214004DC001D002F043F9124D2B783BB902F018F9E6
S214004DD00128044602D12DF07DFB2C7002F010F95C
S214004DE00128044609D101F0B7FB2DF0E0FA094A84
S214004DF0094B117811B91470186038BD1A68074944
S214004E00821A8A42F9D91860BDE8384003F0D6BD48
S214004E10E7680020E668002064160020DF930400A0
S214004E2010B5044600882DF07BFAA37884F8440079
S214004E30834202BF0123E3702371074B04F11C0079
S214004E40C4E9073401F0E6FE224620880349BDE89F
S214004E50104001F06DBD00BF731B03003D1B030037
S214004E6070B5C37804460D461646002B34D1D1B132
S214004E70214817F0C7F90123E370E36CA6600BB175
S214004E80E06D9847E368F61A63699E4221D2217E58
S214004E901A480131C9B2217617F0B4F9A36D13B1DF
S214004EA0217EE06D9847E5702DF081FA15B32379E1
S214004EB003BBA268238A801A83421BD801231048AA
S214004EC0237117F09FF9236DA3B1E06DBDE8704024
S214004ED0184701232376E6E70029E4D1094817F0AE
S214004EE091F9636DE660E5702571002BDBD0E06D0F
S214004EF09847D8E770BD00BF90D50300A1D5030042
S214004F00CFD50300BCD5030013B5C8B1C2B1012983
S214004F1010D0022911D099B9C369283083B114047E
S214004F20B4FBF3F404600848009417F06BF9002013
S214004F3002B010BD036A2C30F0E7436A3030EDE76C
S214004F404FF0FF30F4E700BFE5D503000A460449FA
S214004F500346086810B119462CF067BE704700BFBC
S214004F606816002070B5044694F89D2094F89E308C
S214004F70D21A4032514201F03F0102F03F0258BFC0
S214004F804A42D2B2162A00D870BD03F03F0222442D
S214004F9092F85D20552A05D0013303F03F0384F8CC
S214004FA09E30E1E700205822191801F03F01214405
S214004FB091F85D1001300A441628D2B2F4D1D243DB
S214004FC003F1160101F03F01214491F85D10D2B2C1
S214004FD08A42E1D1012120462CF0ECFD0421054651
S214004FE020462CF0E7FD0A21064620462CF0E2FD7E
S214004FF0A26AC4E907655643E26A030248BF434211
S21400500002FB05F5226B48BF23F07F4002FB00F34E
S21400501003F500431B0C360C2D0C23816062A68022
S214005020E5802DF0C4F9237E33B90123237694F866
S2140050309E3060611733B0E742F210726369C31A9C
S2140050409342F2D82269B4F9081003FB01222261C8
S214005050064A23699342E8D3A3F55B13A3F53A53B4
S2140050602361E3680133E360F3E700BF80EE3600B8
S21400507010B5044601F074FE2046FFF773FF0221C8
S214005080054801F059FE04F134004FF47A71BDE88A
S21400509010402DF083B900BF5D7A04002DE9F84377
S2140050A00D4616469846044610B3A8220021043042
S2140050B018F0BAF940F29D1240F20513C4E90A232B
S2140050C06923DFF8889023634246314628461A4B08
S2140050D025806680C9F8004001F0CAFD074660B129
S2140050E00023324629461548C9F8003017F08AF8DA
S2140050F04FF0FF373846BDE8F8832DF058F9012306
S21400510084F85C300E4B6061C4E92834032384F8CD
S214005110A8300C4BC4E90D343434204601F07AFD37
S21400512020464FF47A712DF039F943463246294627
S214005130054817F067F8DDE74D4F00001ED6030060
S214005140607A0400715000004BD6030068160020F9
S21400515058B101B1816202B1C26203B10363816AD0
S214005160D0E90B23014817F04DB870477CD60300F2
S2140051702DE9F8430E4617461D460446002846D03D
S21400518092220021063018F04FF9224A224B304670
S214005190C4E9152343F273630022E36511462680B3
S2140051A06780A5802DF0DEF80022A07111463846F3
S2140051B02DF0D8F800224FF001081146E07128467D
S2140051C02DF07BF828462DF097F884F83C802DF0DB
S2140051D0EEF8124B04F16009C4E91834206284F832
S2140051E08980484601F016FD0D4B3A463146C4E923
S2140051F023340C482B4684F8948017F003F848466E
S21400520041F288312DF0CAF80020BDE8F8834FF04F
S214005210FF30FAE7305C020076CF0100471D03003E
S2140052207C7A0400A1D6030060B1002914BF0123D4
S214005230002380F88A30044B0449054818BF1946F5
S21400524016F0E0BF704700BFD5D60300E7D60300D0
S214005250F8D6030058B101B1416502B1826503B1C9
S214005260C365416DD0E91623014816F0CBBF7047E1
S21400527013D7030013B5C8B1C2B1012910D0022953
S21400528011D099B9836C543083B11404B4FBF3F491
S21400529004600848009416F0B5FF002002B010BD68
S2140052A0C36C5830F0E7036D5C30EDE74FF0FF302D
S2140052B0F4E700BF39D7030070B5044600F13C069A
S2140052C080F83B1030460D462DF06DF8238F1BB14D
S2140052D094F83A30AB4205D129462046BDE87040E6
S2140052E02CF0AEBD054B3046C4E90F3401F092FCFD
S2140052F03046BDE8704014212DF050B8691E0300FA
S21400530070B51E46838804460D46C18002810BB1E7
S214005310868070BD3C302DF046F894F83430BBB132
S21400532094F83610002908BFFF2120462CF088FD8F
S2140053300123E370074BA680C4E903340C342046EF
S21400534001F068FC29462046BDE870402DF026B8DE
S214005350FF21EAE7D71E030058B1064B064A074965
S214005360C0E90023064BC0E902130023C0E904335A
S214005370836170471E009065C409102708523C00E0
S214005380600E803E10B501790446B1FA81F10088BE
S21400539049092CF00EFF21796088B1FA81F149099C
S2140053A02CF007FF034B1A68A24204BF00221A60C3
S2140053B010BD00BF6C16002070B543790446A3B13B
S2140053C000880E4E04F10805336813B10C4B1B78A9
S2140053D06BB121792CF0EDFE64210A4B3460A3609A
S2140053E02846BDE870402CF0D9BF4088E9E706485B
S2140053F016F008FF054B3221A360F1E76C1600207B
S214005400EA6800208553000076D70300B9530000F1
S21400541010B50446E0B10F4816F0F4FE01236371A0
S214005420A37953B9217920882CF0C3FE236B7BB176
S214005430606B0121BDE8104018472046FFF7A2FF29
S21400544004F108002CF0AFFF2046FFF7B5FFEDE7AC
S21400545010BD00BFACD7030010B50446F8B1104825
S21400546016F0D0FE00236371A3796BB921792088EA
S214005470B1FA81F149092CF09CFE236B7BB1606B7D
S2140054800021BDE8104018472046FFF77BFF04F1D7
S21400549008002CF088FF2046FFF78EFFEDE710BDD2
S2140054A0B7D7030010B5044668B1074816F0AAFE41
S2140054B0637920461BB1BDE81040FFF7CDBFBDE8BD
S2140054C01040FFF7A5BF10BDC3D7030010B50E4CA4
S2140054D00E48214616F096FE82210D4816F092FEE2
S2140054E082210220A21E01F099FA014630B134F85A
S2140054F0022C0848BDE8104016F084BE0648BDE8F9
S214005500104016F07FBE00BF6E630020D2D70300A7
S214005510EDD70300F8D703003CD8030038B50E4C8F
S21400552082212246022001F069FAA51C014650B1EC
S21400553022880A4816F066FE43222846084918F0D4
S21400554003F94223238035F8021C064A0648BDE8C4
S214005550384016F057BE00BF6C63002047D80300E3
S214005560C7D803006E630020A5D80300034B1B7842
S2140055701BB18B4201D82CF007BF70478D780020F6
S214005580884208B504D3034816F03CFE01F074F8D0
S21400559008BD00BF0AD9030010B5044601460E48F0
S2140055A016F030FE012C11D10C4B0D481A884FF620
S2140055B0FF739A421EBF0022094B5A742CF024FD3A
S2140055C003F0F0FBBDE8104003F012BA0448BDE853
S2140055D010402CF01BBD00BF3FD903003C780020D4
S2140055E0E07200202DE9F04704460D4616460027D7
S2140055F04FF06409DFF82C80DFF82CA098F8003014
S214005600BB4206DC324629462046BDE8F04702F09B
S214005610B7BD09FB07A033462A462146FFF770FEB2
S2140056200137EBE7F36800201C32002008B501F0D4
S214005630E7FC0128064807D12CF0E6FC03F0D8F971
S214005640BDE8084002F0C4BD2CF0E0FCF6E700BF61
S214005650E072002070B500241A4D1B4E3378A3422A
S2140056601BDC0024194D1A4E3378A3421BDC0024A1
S214005670184D194E3378A3421BDC01F0C1FC0128FB
S21400568016481CD12CF0C0FC03F08CFB03F0B0F9DC
S214005690BDE87040124801F0D3BC2846FFF7C0FBB7
S2140056A001346035DAE728462CF064FC01346435B2
S2140056B0DAE728462CF082FD01343835DAE72CF09C
S2140056C0A5FCE5E7FC2D0020F26800201C32002037
S2140056D0F3680020CC2B0020F1680020E072002048
S2140056E0995500002DE9F04F89B0FFF717FF984B4A
S2140056F007A807932CF0A0FD054617F091FD954CE2
S214005700C2B21F2A627004D9934816F07BFD00F0DF
S214005710B3FF2946A01C18F017F807A82CF08CFD3C
S214005720054617F07DFDC2B21F2A84F8212001D954
S2140057308A48EAE7294604F1220018F005F807A887
S2140057402CF07AFD322604464FF000082578002D0E
S2140057502FD1834CFFF77EFF2378824F0093824E33
S214005760824B3A781B783178814816F04BFD814B96
S21400577081489A68002A00F0F78490F800C0BCF1CF
S214005780000F00F0EF842A467C4991F802E00132CF
S214005790754538BF7546944501F19001F5DC023D2C
S2140057A0032D00F20186DFE815F0FD05FB05F9057F
S2140057B0F705532D0FD163784C2B40F05681A37814
S2140057C0502B40F052816E4B01221A7007A82CF025
S2140057D033FD0446BAE7322D07D16378452BF5D161
S2140057E0A378502BF2D1674BEEE7442D13D16378A4
S2140057F0303B092BEAD8601C2CF02BFD624B634A29
S2140058001978002386B2994202F16002DEDD22F8A2
S214005810466C0133F7E7422D0BD16378542B40D109
S214005820A01C01F0D3F85A4B188018462CF063F9E8
S214005830CCE7592D1FD8412DC8D9A5F14303162B07
S21400584000F24784DFE813F0C50245041B03450455
S21400585045044504B20045044504510020004504B3
S21400586045044504450459011101680245044504F0
S2140058706802A5010202692DA8D1601C2CF0E9FC83
S21400588080B22CF07DFDA1E7374B0120197800236C
S214005890404A994202F1AC0298DD02F8AA0C0133A4
S2140058A0F7E7394F0B213C4A3878FFF769FE601C52
S2140058B001F08CF80546E01C2CF043FD0121024661
S2140058C028462CF0FAFC60213B78304859434218B1
S2140058D045524FF4FA6111824FF4487151612F49D5
S2140058E05683116501333B7070E7DFF8BC800521F5
S2140058F02B4A98F80000FFF743FE601C01F066F89C
S21400590000224FF06409824611462CF0D6FC254D45
S21400591098F80070E11C09FB07F307FB09573846A7
S21400592025F803A02CF06EFC38462CF023FB002153
S214005930104A98F800305160012103FB09550B44CA
S2140059401560117488F800304FF001083EE700BF7C
S2140059506E630020DC7100205ED9030075D9030059
S214005960ED680020EF680020F0680020EE68002058
S21400597074DA0300E0720020EC6800202421002086
S214005980EA680020E9680020F2680020FC2D00206C
S2140059903C7800201029002085D90300EF21030061
S2140059A08DD903001C320020F3680020C74D052166
S2140059B0C74A2878FFF7E4FD601C01F007F80022CC
S2140059C04FF06409824611462CF077FCC14F2B78C5
S2140059D0E11C09FB03F203FB0979484627F802A0FD
S2140059E02CF010FC48462CF0C5FABB4BBB491C7883
S2140059F0084600239C420ADD0A6D58314ABB5822ED
S214005A0002FB030064232A7802FB03730365B44990
S214005A1000230846D1F8A420EAB9AC2202FB030012
S214005A2064232A7802FB0373C0F8A430B8F1000F91
S214005A300BD1AC4A4346114652F8040B88B964228F
S214005A40287800FB027241F823202B7801332B7054
S214005A50BCE60133CEE70133042B01F1AC01D9D10A
S214005A60E4E70133042BE7D1EFE7DFF8A4929E4F7B
S214005A7099F800000B219D4AFFF782FD04219C4AFD
S214005A803878FFF77DFD601C00F0A0FF0546E01C9F
S214005A902CF057FC0121024628462CF00EFC602014
S214005AA099F80020934950430B180D524FF4487054
S214005AB01882586190485E839865E078AC24642824
S214005AC004BF012098703B78854D5C4328192B5500
S214005AD04FF40074448003240471847102EB420482
S214005AE001EB4411816032210133DBB20132437194
S214005AF080F8A01089F80020F5E6804DDFF8D891F0
S214005B0028780A217E4AFFF73BFD06217C4A99F851
S214005B100000FFF735FD601C00F058FF00224FF034
S214005B20380B824611462CF0C8FB2B78754F0BFBC2
S214005B3003F327F803A04FF0010AFA1882F804A02E
S214005B40E378692B14D100231371582299F800309A
S214005B5062485A438118835428780133C0EBC00248
S214005B6007EBC207421CCF642A7089F800302DE686
S214005B70002BEAD0E01C00F029FF00220446114664
S214005B802CF09BFB2B780BFB03735C8083F806A042
S214005B90DBE7DFF87CA1DFF87C919AF800000B21A8
S214005BA00130524AC0B2FFF7EBFC0321564A99F87F
S214005BB00000FFF7E5FC601C00F008FF0746E01C4D
S214005BC000F004FF0546601D2CF0BBFB04460246B1
S214005BD0012138462CF071FB2246284601212CF084
S214005BE06CFB60209AF80030424A00FB03F411195F
S214005BF017534FF44874404F0C824C618F654E83A8
S214005C00591CC9B2484302EB000CACF81040CCF863
S214005C10144094241552981C8AF8000099F8000045
S214005C203A4D444303EB430301EB410102EB4313BC
S214005C30CCF8587002EB41122F1928550130ACF8F9
S214005C401A607B60BA6089F80000BFE54FF0000A72
S214005C501E4F052138781E4A0230C0B2DFF884B0E5
S214005C60DFF87080FFF78CFC651CE31D2846049364
S214005C7000F0ACFE0022114681462CF01EFB642389
S214005C803878023503FB00F108EB010228F8019092
S214005C9091461046E11D03922CF0B4FA039A48464A
S214005CA082F834A02CF066F964233A7802FB03816C
S214005CB0049B01329D424BF8041B3A70D6D1012258
S214005CC0084BC3F80CA01A743EE600BFF368002029
S214005CD08DD903001C320020EF680020002700202A
S214005CE010290020E0720020F068002085D903000B
S214005CF09FD90300FC2D00206D550000F1680020A0
S214005D0092D90300CC2B002099D90300442500200B
S214005D10F2680020EE680020542D14BF01270227E9
S214005D20994BDFF8A8A293F8009005214846974AB9
S214005D30FFF726FC9AF80000954A013838440A21F5
S214005D40C0B2FFF71DFC902303FB09F3914D4FF003
S214005D50640BEA1805F803900223977003FB0742CA
S214005D6013FB074309EBC909013205EB0915DFF8F8
S214005D706092039204939AF80020601C531C02FB66
S214005D800B978AF80030059200F020FE059A023440
S214005D900BFB02F209EB020329F80200002211466F
S214005DA005932CF08AFA4FF00102059B38460399BA
S214005DB083F834202CF026FA38462CF0DBF8049BC7
S214005DC045F8047F9C42D6D16F4A1378013313708E
S214005DD0FCE4DFF80092704F99F800000A210130C9
S214005DE06E4AC0B2FFF7CCFB03216D4A3878FFF746
S214005DF0C7FB601C00F0EAFD0546E01C00F0E6FD6F
S214005E0000220446114628462CF057FA0022204667
S214005E1011462CF052FA382099F80030614A00FBFF
S214005E2003FC02EB0C0122F80C504FF0010C00258D
S214005E3081F804C08D7103EB0C01C9B248431452BB
S214005E40702402EB000E981C89F8000038788EF853
S214005E5006504443544DC3EBC303C1EBC10102EBF0
S214005E60C3038EF804C002EBC10205EB040C2855F0
S214005E700130CCF80430CCF808203870A6E46378FB
S214005E80502B40F0A9802146484816F0BBF9A01CCC
S214005E9000F09CFD0546201D00F098FD0746A01D5D
S214005EA000F094FD4FF6FF739D4281463FF48EACA2
S214005EB09F423FF48BAC98423FF488AC03463A4688
S214005EC029463B48FFF754F900287FF47FAC083496
S214005ED05621049020462CF08CF941210390204650
S214005EE02CF087F95721834620462CF082F9492169
S214005EF0824620462CF07DF901782D48A1F1490311
S214005F0059425941FFF790F9039A049B1178562994
S214005F1033D1501C2CF09DF904469BF80030412BE1
S214005F202DD10BF101002CF094F983469AF800303D
S214005F30572B27D10AF101002CF08BF903465A465D
S214005F4021461B48FFF786F919482BF070FF194CBD
S214005F5001462060184801F0C1FD216817482CF062
S214005F60D8FD0123164A29461370164A16481370A0
S214005F704B463A4616F046F928E41C46CDE74FF065
S214005F80000BD3E70023DAE7EC680020A8D903006B
S214005F90AFD9030024210020ED68002092D9030029
S214005FA0BED90300CC2B0020F4230020C5D9030063
S214005FB0D4190020241900204817002008100020BB
S214005FC0E86800208C780020F3D90300EB680020F6
S214005FD03C1D0020F1680020422B7FF4F7AB2146E1
S214005FE0564816F00FF9A01C00F0F0FC0546201DE0
S214005FF000F0ECFC4FF6FF739D4207463FF4E6AB1D
S21400600098423FF4E3AB04F10609532148462CF0CE
S214006010F0F803788B4254D101302CF01AF903467D
S2140060203A4629464648FFF739F8044600287FF4E2
S214006030CDAB562148462CF0DCF841218346484635
S2140060402CF0D7F85721824648462CF0D2F89BF819
S21400605000308146562B04D10BF101002CF0F9F8E4
S21400606004469AF80030412B2ED10AF101002CF09C
S214006070F0F8824699F80030572B28D109F1010034
S2140060802CF0E7F80346524621462D48FFF760F805
S2140060902B482BF0E4FD2B4C014620602A4801F0EB
S2140060A01DFD216829482CF034FD0123284A294685
S2140060B01370284A284813703A4616F0A3F8FFF7DC
S2140060C085BB4FF49653ABE74FF0000AD2E70023A8
S2140060D0D9E74F2D7FF47AAB63784C2B7FF476AB01
S2140060E01B4B1B78002B3FF471AB02344321204638
S2140060F02CF07FF80746502120462CF07AF83B78A3
S2140061000546432B15D1781C2CF0A3F884B22B78C7
S214006110502B10D1681C2CF09CF882B221460F48F8
S2140061202BF096FF084B0E48B3F86A20B3F85E10C3
S214006130C3E70024EBE70022F0E700BFC5D9030061
S21400614028190020241900204817002008100020D5
S214006150E86800208C78002022DA0300A4170020CC
S21400616046DA03000F229A74B24BB34D93F80090B0
S2140061703378B9F1000F18BF99463A782D7824780D
S214006180D11800782944214401444944C9B20C2955
S21400619000F20C8100242546A8480390A34200F391
S2140061A00B81012938BF0121A54D04912A46002301
S2140061B02C464FF482714FF6FF78049801339842CC
S2140061C013705180A2F8048002F10C02F5DC9D4B9E
S2140061D09B499D48A36001F05DF8E079A36800EB59
S2140061E0400003EB800000F053FCE3799449013350
S2140061F0E371964C964801F09DFF2388434503D0F3
S2140062008F49944801F098F94FF6FF7322888C491D
S214006210D21A18BF0122904802F010FB4FF0000877
S214006220DFF818A2874C3378434500F3CE808B4BBB
S2140062301B785BB18A4B1B78012B07D180498948B4
S21400624001F096FC7E49884802F00EF94FF00008EF
S2140062504FF00C0BDFF814A2794D3A78424500F364
S214006260C8807E4B1B7823B11AB180497D482CF03C
S21400627020FB0C214FF000084FF0940B3B7896F86B
S21400628000A09A4401FB0A516B4B1878784A4045A7
S21400629000F300810C214FF0000A4FF0700B3B78A2
S2140062A096F800809844804401FB0851714B18789A
S2140062B0714A504500F304810C214FF0000B3B78E7
S2140062C096F80080DFF8C8A198445B4B1B7898448A
S2140062D0804401FB08519AF80020684B5A4500F3A9
S2140062E005815E4B1B78ABB1DFF874B19BF80010EC
S2140062F001290FD94FF00C08013908FB0151594804
S21400630001F036FC9BF800105748013908FB015194
S21400631002F0AAF833783A7806211344464A012652
S21400632012781344534A127813449AF80020134400
S2140063300C2202FB035500231846039A994502F1E6
S214006340AC0205F10C05039200F3E68004993C4884
S214006350434D00F08FFD414B40F2055240F60431AC
S21400636028781E7800F068FD0022044640F202718C
S214006370287800F061FD21460246304600F006FF10
S214006380079B3F491A468B4240F0D9803D4809B0EA
S214006390BDE8F04F15F036BF0722E4E60322E2E63A
S2140063A00422E0E60222DEE60122DCE60C22364883
S2140063B015F028FFFFF7ABB990F805C001349445F7
S2140063C084BF05714571AC30E8E6B8F1000F06D021
S2140063D015F8053C03EB430304EB8304AC60294645
S2140063E0504602F00DFE08F101080AF1AC0A0C3521
S2140063F019E7317811EB08010AD04A1E0BFB02524E
S214006400D27902EB420204EB82040BFB0152946049
S21400641050460BFB015102F0A7FB31781B48414464
S2140064200BFB015101F00AFE08F101080AF1580AB7
S21400643013E700BFE9680020EE680020102900205E
S2140064406C1A0020FC1A0020DC7100203C7800202A
S21400645038170020E816002070160020E868002094
S2140064608C78002048170020081000200027002005
S21400647044250020ED680020F4230020242100207D
S2140064806E63002001DB0300C4DA0300C02B00208B
S214006490EC68002018EB0A0F18BF11F8050C0591E0
S2140064A01EBF00EB400004EB80048C600BFB082052
S2140064B001F006FA0599264B08F101080C31E4E6CE
S2140064C01AEB080F18BF11F8050C05911EBF00EB5C
S2140064D0400004EB80048C600BFB0A2001F0C6F839
S2140064E005991C4B0AF1010A0C31E0E690201BEBE3
S2140064F0080F18BF11F8052C00FB0B301EBF02EB6F
S214006500420204EB82048C60059101F0C3FE0599FB
S2140065100BF1010B0C31DEE615F8112C039F02EB94
S214006520420204EB820415F80C2CC4E9001045F86E
S214006530044C05F8056C07F8042C0133FDE613F847
S214006540011D00297FF41DAF3B2102F8011C18E74E
S214006550EE680020ED68002008B5094B1B786BB18B
S21400656008482CF0A9F907482CF024FA064802F04F
S21400657007F8BDE8084004482CF0DDBA08BD00BFA7
S214006580E8680020481700200810002008B5064BD1
S2140065901B783BB105482BF052FCBDE80840044888
S2140065A02CF08AB908BD00BFE8680020D419002086
S2140065B04817002007B5012121200DF1070200F041
S2140065C01DFA18B99DF80720024B1A7003B05DF843
S2140065D004FB00BF8D78002007B5064B8DF807003A
S2140065E0187001210DF10702212000F017FA03B000
S2140065F05DF804FB8D78002007B5022101200DF11F
S214006600060200F0FBF938B9044815F0FBFDBDF8AA
S214006610060003B05DF804FB0020FAE71EDB03006B
S21400662007B50221ADF806000DF10602012000F0C4
S214006630F5F9014610B1034815F0E4FD03B05DF826
S21400664004FB00BF3FDB030010B5FFF7D5FF044691
S2140066500146074815F0D6FD0121064815F0D2FD83
S21400666024B9BDE810400120FFF7DABF10BD00BF17
S2140066706FDB030081DB030008B5044815F0C2FD9C
S21400668000F0DCF92BF080FE2BF07BFE97DB03009E
S21400669038B50446084D094B28462B6000F0BAFA78
S2140066A0002C18BF21462846BDE8384008BF4FF4E6
S2140066B096712BF073BE00BF1034002071220300C9
S2140066C02DE9F043384D91B008AC07468946904610
S2140066D00FCD0FC495E80F00002684E80F000125B3
S2140066E00323324C3248CDE90366CDE905668DF8C2
S2140066F00E300796029536F0C9FC2E4836F0C6FCDA
S21400670032462D4920468DF8176005F0A1FD334628
S21400671032462A498DF81900009020468DF82390BD
S214006720CDF82C808DF8216005F0ACFD0A9020464F
S2140067308DF8097005F00EFD204608AA05A905F09B
S214006740C7FD02AA204603A92DF0C8F94FF400722F
S2140067501B4B5A62194BE560626A920510D46BB9FE
S2140067604FF40072164B11485A6205F0F3FC1148BC
S21400677036F08FFC002011B0BDE8F083013BEBE75C
S214006780002BEDD0094908A82DF0DBF94FF4007274
S2140067900B4B06485A6205F0DDFC064836F079FCDD
S2140067A0BDF82000E7E700BF987A04000040005AD2
S2140067B04C7D0400487D040080841E0040420F008B
S2140067C00060005A0122034B1870034B1980034BDC
S2140067D01A707047F568002044780020F46800209E
S2140067E0F8B5454B1B780BB90020F8BD434B1B781A
S2140067F0012B03D1BDE8F8402BF03DBD404B1C8873
S2140068004FF6FF739C42EFD03E4836F03FFC002325
S214006810260AE4B21A462146304605F05BFC012EF5
S214006820354604F0010335D015D9B51E012DDBD849
S214006830002B0BBF4FF480754FF080754FF47061DE
S2140068404FF070610BBF01274FF480370F204FF4D5
S21400685070202D4B11E0002B0BBF4FF480754FF0CE
S21400686080754FF470614FF070610BBF01274FF4D5
S21400687080370F204FF47020244B1A6802401CD03B
S214006880BA421AD01A680A4032D11A6822EA0102BD
S2140068902A4316E0002B0BBF4FF480754FF080752F
S2140068A04FF470614FF070610BBF01274FF48037D3
S2140068B00F204FF47020164BDFE71A6822EA00021A
S2140068C03A431A602BF0D7FC054600288CD00836D1
S2140068D044EA06102A460321C0B2FFF7F1FE40F64E
S2140068E0FF73684300F2FF70B0FBF3F080B27CE702
S2140068F095427FF479AFC8E7F4680020F568002079
S214006900447800204C7D040028C3035020C3035065
S21400691024C3035010B5044C237823B9034836F03B
S214006920B5FB0123237010BDF76800204C7D0400E2
S2140069302DE9F0431F4C85B0074688469146FFF781
S214006940E9FF23781BB903F075F8012323707BBA9F
S214006950ADF80C3030220023174E02FB03F4315DF5
S214006960A51901BB012333554FF0FF3304F1100086
S21400697012493044AB606F80C5F80480C5F80C90AF
S2140069800AF010FC04F10801042231440C4B009577
S21400699003A803F025F9A96802460A4815F032FC58
S2140069A005B0BDE8F0830133102BD6D1064815F0AC
S2140069B029FCF5E7F6680020383400209B22030007
S2140069C0AD220300A4DB0300D2DB030080B1027813
S2140069D0A2F14103032B0BD840783038C0B2082808
S2140069E006D8054B134413F8413C40EA0320704791
S2140069F04FF6FF70704700BFB87A040008B50B4624
S214006A0042B101460448006804F02EFABDE808408A
S214006A102BF0B0BC022008BD4C73002008B50B4616
S214006A2042B101460448006804F0A6FBBDE80840F1
S214006A302BF0A0BC022008BD4C730020F0B5002649
S214006A40124F8DB0FF2300930A223346386802A9FE
S214006A502CF001FEC0B102AB1D4603EB800404E03F
S214006A6055F8043BB34228BF5E1CAC423868E9D9EF
S214006A70296804F007FD0028F2D02D28F0D00DB0CC
S214006A80BDE8F0402BF076BC0DB0F0BD4C73002096
S214006A9028B1034B0360034B4360002383607047B9
S214006AA019000003F47200202DE9F04F002307467A
S214006AB0DFF828818B4698F80020424985B022FAF4
S214006AC003F0C00708D531F81300B84204D15DB210
S214006AD0284605B0BDE8F08F0133032BEFD112F046
S214006AE0010667D1384C75B294F80090B9F1000FE2
S214006AF021D10F2249460DF1010016F095FC3F23E7
S214006B008DF80090DFF8C89069464846ADF8023028
S214006B102DF056F81E2005F04DF84FF47A43B0FBE2
S214006B20F3F02A4B1860D9F830300123C9F81C005E
S214006B30C9F80C3023700D220021684616F074FC4C
S214006B40BBF1000B18BF4FF0010B0323204C6A4625
S214006B50314620468DF806308DF80AB02DF06DF8D7
S214006B60236B00234FF0010A04EB461083664FEABE
S214006B701729184BF9B249EA014032B243F822000D
S214006B80154A0AFA06FAD2F84C35484643EA0A038A
S214006B90C2F84C355B46042205F09CFA98F80030A3
S214006BA043EA0A0388F80030064B23F816708FE78E
S214006BB0022697E7910795D55307F9D54FF0FF358D
S214006BC086E700BFEE630020F96800203837002013
S214006BD000C0045050C5035000C00350F8680020A1
S214006BE0022810D8084B1B78C340DB070BD5074B91
S214006BF01B6803FB0111FF23B1FBF3F1044B1A6B77
S214006C0003EB401319677047F868002038370020F8
S214006C1000C00450FF2307B50021044A0093083043
S214006C200AF044FA03B05DF804FB00BF97230300A4
S214006C307FB50D4E0D4C33686A4600211046A56997
S214006C402D0606D411F0FF0101D003B1984704B019
S214006C5070BD656A0131102902F8015BEFD1002B87
S214006C60EAD09847E7E700BF3C3700200080055091
S214006C702DE9F0478A46914688B0002A4DD04FF657
S214006C80FF72904249D0914247D0254A5FFA80F879
S214006C90070A38460E0A13604146012304225FFAAB
S214006CA08AFA204D05F016FA01AC3046012302227E
S214006CB0514605F00FFA0FCD0FC495E8070084E89B
S214006CC00700002401A91848CDF80C908DF8044060
S214006CD005F0CCFD1022154B47EA084746EA0A465F
S214006CE0C3F8C475C3F8BC65C3F8AC250423104AC2
S214006CF00B209364A2F58052D36407F0DFF80B20D4
S214006D0007F0C0F8084805212CF0D4FF01222046E1
S214006D10084B1A7008B0BDE8F0874FF0FF30F9E76F
S214006D203C370020BC7A04000080055000C00350A9
S214006D3000A00550FA68002070B5074B04461B7883
S214006D404BB141B1054E451814F8011B30462CF0E6
S214006D50C0FFAC42F8D170BDFA6800200080055034
S214006D6010B5074B1B784BB136F0F2F80446FFF728
S214006D705FFF2046BDE8104036F0E5B810BD00BF06
S214006D80FA6800200B460449024608680349097859
S214006D9008B12BF029BB70474C370020FC68002058
S214006DA0F7B50C4618B12F21194836F0C6F92468F5
S214006DB023685E795F8830463946FFF7E3FFF0B117
S214006DC08568E5B1A089227D3946904291BF0020B2
S214006DD0801AA36880B294BF03469B18E27C00909A
S214006DE03046A8470138032803D8DFE800F0080F2C
S214006DF00B0D002420462FF0F5FF204600E08120F2
S214006E0003B0F0BD8024F5E79324F3E78724F1E789
S214006E10FADB030007B50B46009205490246054813
S214006E20097800682BF002FB03B05DF804FB00BF96
S214006E30FC6800204C37002007B50B460092064938
S214006E4002460648097800682BF0F0FA003818BFAA
S214006E50012003B05DF804FBFC6800204C370020DE
S214006E6008B5034B1B6803B19847002008BD00BF58
S214006E70483700202DE9F74F04460D460026454BBF
S214006E80454F1860454B197033010021F85C0136F8
S214006E9011F0DCF90C2EF7D10C2D28BF0C254FF085
S214006EA0000901953C4EDFF800A13D4DDFF8FC805F
S214006EB0019B4B4502DC03B0BDE8F08F23784FF012
S214006EC0000B337063887380A388B380A379C6F8F9
S214006ED00880B371E379C8F8005088F804304FF0A2
S214006EE00003A768A8F80630E3795B450ADC0121B1
S214006EF016F8100B11F0AAF908F1080809F10109B3
S214006F000C34D5E74FF0000338886B812880FB7877
S214006F104FF0000C2B81BA78C5F804A0002A009226
S214006F200CBF802240222A7379680AF10C0263455E
S214006F3013DC03EB43030AEB830ABB6843B1009AF6
S214006F404FF6FF71B2FA82F2164B52092FF0DAFEB4
S214006F5014350BF1010B0C37C6E7B1F800E00CF165
S214006F60010C22F80CEC91F802E00C3202F816EC58
S214006F7091F804E00C3102F815EC11F809ECBEF1BA
S214006F80010F14BF4FF0100E4FF0110E02F814EC64
S214006F90CDE700BF4C3700200C4F0020FC680020D7
S214006FA0503D0020A16D000050370020D03F00204B
S214006FB0014B1860704700BF44370020014B186033
S214006FC0704700BF4837002070B5128805460E4649
S214006FD0FFF720FF044670B102790499806816F026
S214006FE075FA064B1B680BB9002070BD3146284663
S214006FF022889847F8E78620F7E700BF4437002046
S21400700008B510F0BFF9022806D0012806D0044BB8
S21400701018784000C0B208BD0120FCE70220FAE75D
S214007020FB680020054B10B51C682CB1FFF7E8FF85
S2140070302346BDE81040184710BD00BF403700206B
S214007040014B1860704700BF40370020034B1A788A
S2140070501AB901221A700CF0F5B97047FB680020C7
S2140070600022024B1A70FFF7DDBF00BFFB6800204E
S21400707037B50446002832D010F084F9022830D103
S214007080608930F011FAE079237A003818BF0120C1
S214007090012B637A08BF40F008000BB140F01000E7
S2140070A063890BB140F00400257CA188A2790DB15C
S2140070B0E36873B90C4B11F0A5FC2178084611F073
S2140070C01DFD2FF01AFD002814BF0320002003B07A
S2140070D030BDCDE90035054B11F094FCEDE70220FC
S2140070E0F5E70120F3E700BF572F0400CCFE0300AE
S2140070F02DE9F04186B005460E4690461F469DF89F
S214007100344010F03FF9022824D1082C16D8ADF8E8
S2140071100C808DF80E702CB122460C990DF10F00E4
S21400712016F012FB03AB033400930A223146082004
S214007130094B019411F066FC18B1032006B0BDE8B7
S214007140F0812946284611F0D9FC2FF0D6FC0028FD
S214007150F4D0F2E70120F1E7CCFE030008B50EF00C
S214007160CFFA014630B1044815F04CF8BDE80840A7
S2140071700EF06ABE08BD00BF88DC0300024B187C18
S21400718000B11868704700BFE072002050B10029B7
S2140071900CBF30213121002A0CBF30223122034897
S2140071A015F030B82D210A46F9E700BFB5DC03001C
S2140071B0034B044A5B7C012103201370FFF72EBCAF
S2140071C0E0720020FD68002037B50446FFF7F0FFA8
S2140071D0B4F57F4F27D10025204B1A8813449D70A5
S2140071E0FEF774F92846FFF753FA1D4D2A68C2B118
S2140071F0FFF7C4FFA8B14FF605739C4224D192F85E
S21400720041102AF0D6FE2B680421B3F8422093F8EA
S21400721041303220ADF8062001AA8DF80430FFF781
S214007220FDFB03B030BD4FF601739C4203D10D4801
S2140072302AF0CBFED9E74FF602739C42D5D10A4B13
S2140072401878FFF7C9F9D0E74FF606739C42E8D1E5
S214007250B2F842102AF0B7FED5E700BF6C630020F4
S21400726030400020E07200208D78002010B5074CDA
S214007270012122460320FFF7C1FB28B92378044AE0
S214007280003B18BF0123537410BD00BFFD680020EB
S214007290E07200207B4BF7B51A884FF6FF739A42D0
S2140072A018BF03234FF0080204464FF036000D4681
S2140072B075494FF0320718BF0B70744B1A703022A6
S2140072C0187138209A705A71DA714FF4001298715A
S2140072D018726F486264E0646E48012220656E484A
S2140072E0A618A0656D48E667E0656D486D4E606659
S2140072F06D485F70A0666D48DF7020676C48C4F804
S21400730080606067202084F8780084F8840004F1A8
S2140073102100C4F88800674884F8482084F8542080
S21400732084F8602084F86C20C4F88C0084F89020E0
S214007330C4F89410C4F8B8305F4B6049C4F8BC3049
S2140073400223C4F898105E4984F8C030C4F8A4102C
S21400735010215C4B84F8A810C4F8C4305A4B5B4923
S214007360C4F8C8308223C4F8AC10594984F8CC302D
S214007370C4F8B0100921574B574EC4F8D030574BBD
S21400738084F89C20C4F8D430554BC4F8A040C4F808
S214007390DC30337C84F8B41084F8D820002B6AD014
S2140073A0504B84F8E420C4F8E03006F11103C4F82A
S2140073B0E830FFF7E3FE90F83430002B5DD090F80D
S2140073C03630042184F84130FFF7D8FE038F01AA37
S2140073D03846A4F84230FFF711FB38B99DF8043060
S2140073E084F84130BDF80630A4F84230FFF7C6FEF8
S2140073F094F841102AF0DDFDFFF7C0FEB4F8421005
S2140074002AF0E1FD384B10211C60384BC4F8EC30F4
S214007410012384F8F03004F14103C4F8F430344B0F
S214007420C4F8F830022384F8FC3004F14203C4F8B0
S21400743000314FF0000CEA79A86802EB42039F0087
S21400744000EB830320F807C0D970012144349970FB
S2140074505C605318EB71FFF7ADF8FFF707FFFFF717
S214007460CFFD01280BD1337C4BB11B4803B0BDE8E0
S214007470F0402AF0AABD0D21DBE70E21D9E703B0C4
S214007480F0BD00BF3C7800209E780020FE680020FB
S214007490DD7A040001002000DC7A040002002000EF
S2140074A0DB7A04000500420003002000DA7A0400BC
S2140074B00400420007003000FDFF2100120010010A
S2140074C000404200D87A040000FF44018E78002075
S2140074D0060042006C630020E072002002FF2001DC
S2140074E08D78002001FF10013040002005FF2001AC
S2140074F006FF210113B504460D482AF007FB642257
S214007500C0F30F43637083B2B3FBF2F3A07823702B
S214007510202201212AF0A5FFA078212201212AF0AD
S214007520A0FF0449201D02B0BDE810402AF036BF77
S2140075303C780020E09304000B7870B583704CF61E
S2140075401E0303804FF02013C362012380F83030FF
S21400755080F83C30C3180364124B0446436402238D
S214007560114A80F84830114B8263C3644063CA797D
S2140075708D6802EB420305EB830004F12C0646609F
S2140075800B4E45F8236000238360531CCB71094BD8
S214007590201DC4E90134FFF73DFB2046BDE87040DE
S2140075A0FFF7A8BFFDFF210021002000DE7A0400BF
S2140075B001000103F5740000437B044A01211370A7
S2140075C000781130C0B2FFF729BA00BF0869002062
S2140075D038B504460078054D11302A460121C0B260
S2140075E0FFF70CFA08B92B78637338BD08690020DA
S2140075F0024B53F820002BF00FB800BF3440002099
S214007600012908B506D0022907D049B92AF0FBFFA0
S214007610002008BD2AF0FAFFFAE72AF0FAFFF7E79B
S214007620024814F0EFFD0120F3E700BFCCDC0300B6
S21400763010B4054C114654F820001A46BDF8043024
S2140076405DF8044BFFF7DCBF34400020002310B584
S214007650044683810364A0F844304830FFF7DAFA22
S214007660014BC4E9123410BDFF25030038B50446AB
S2140076700B781A4A43700D4642F82300FFF7E6FFE0
S2140076802046FFF7A5FF4FF4401323610123144A59
S2140076902375A261134A84F82030E261124A84F806
S2140076A02C306262114A84F83830A26204F10C026F
S2140076B022630F4A04F10D036263E363EA79A86864
S2140076C002EB420300EB830110344C60094C40F897
S2140076D02340094B8B60531CEB7138BD34400020AF
S2140076E007690020080020009F78002000FF300077
S2140076F001FF1001020101043176000010B470246D
S214007700427B0D48013A012904FB020006D00229FB
S21400771008D059B95DF8044B2AF075BF5DF8044BE4
S2140077202AF074BF5DF8044B2AF073BF03485DF877
S214007730044B14F067BD00BFF4230020E8DC030010
S214007740B0F85C302DE9F0418B4204460E4638D046
S214007750437B077C8BB31C4A12789A422DD3702544
S2140077601A4A013B05FB032390F80F801B7B424619
S2140077702AF060FFB845054601D1FF281FD13A46DA
S2140077803146204694F890302AF054FF2F4605469E
S214007790552212216078A4F85C602AF062FEFF2F62
S2140077A003D039462046FFF7A9FFFF2D09D029460A
S2140077B02046BDE8F0412AF07DBFFF25DFE70746FB
S2140077C0E6E7BDE8F08100BFED680020F423002066
S2140077D041688268C978D27849B112B10321FFF7AF
S2140077E0AFBF837B002B0CBF01210221F7E72AB134
S2140077F0837B002B0CBF02210121F0E7014814F027
S21400780001BD00BFF9DC0300037BD3B14368DA781F
S21400781012B18268D278A2B91B7933B1837B002B70
S2140078200CBF04210521FFF78BBF83681B792BB1A2
S214007830837B002B0CBF05210421F4E7014814F0DC
S214007840E1BC70472BDD0300084A437B052113701B
S214007850837B5370C37B9370037CD370037B13715D
S21400786000780E30C0B2FFF7D9B800BF0969002013
S21400787038B5044600780C4D0E302A460521C0B2B5
S214007880FFF7BCF820B1BDE83840084814F0BABC91
S2140078902B7863736B78A373AB78E373EB782374FE
S2140078A02B79237338BD00BF0969002067DD03000C
S2140078B0024B53F820002AF047BF00BF6440002068
S2140078C0F8B504460B78424A43700D4642F823004A
S2140078D0404E2AF057FFFFF7CBFF6268A3683E488A
S2140078E03E49D6641165D4655065C3E91410DE645C
S2140078F0DC654FF0987302266361012304F10C01E6
S214007900E16137491032216204F10D01A162354967
S2140079102376E16204F10E016163334984F8243072
S214007920A16304F10F012164304984F830306164AA
S21400793004F11001E1642E4984F83C3084F84830A4
S214007940216584F85460A265E879A96800EB4002D6
S21400795001EB820704F1140CC7F804C04FF4817CD5
S214007960244F41F82270C218D2B202EB420241F80C
S21400797022C001EB820700227A601F4A84F870302A
S21400798022661E4A84F88830A2661D4A1D4BE266AF
S2140079901D4AC4F88C3062671C4A8319A26704F13A
S2140079A05C02C4F88020DBB2194A03EB4303C4F838
S2140079B0842084F8646084F87C6001EB8302603481
S2140079C05460144A033041F82320E871F8BD00BF24
S2140079D064400020D17700000B27030009780000E0
S2140079E001002001020010010300300104003001F4
S2140079F00500210101FC01064A002100E07A04008E
S214007A0051001000E27A0400E37A040055002100D9
S214007A106F0018001200010400B589B001A92AF011
S214007A20CBFE084B10210493019B04AA0593029BEE
S214007A302C200693039B0793FEF7F0FF09B05DF832
S214007A4004FB00BF43574C48F0B54843DDE90576D4
S214007A50204C214D82EAE271A1EBE271A042B0FB1C
S214007A60F5F589B225D9642012FB00F26FF06300A9
S214007A7092FBF5F28242B8BF0246642AA8BF64228F
S214007A8052B205FB05F44943A14221D24FF0804093
S214007A90641A84420FD3002178B947F6FF708142FA
S214007AA028BF014603B11D8007B1398006B1327088
S214007AB0F0BD0022E5E78008EBE701EB000CA445EB
S214007AC04FEA51019CBF0918A4EB0C048008E3E7B9
S214007AD00021E7E79F860100A086010038B50D4625
S214007AE0044600B3F9B14FF4EE72002115F09CFC89
S214007AF00F23A3600C4B6560A36103F16173E36120
S214007B004FF0011304F15C002362FDF725FCE36DE2
S214007B10E367236EC4F88030636EC4F8843094F84C
S214007B206C3084F8883038BD010064001FB5044608
S214007B30B8B14368ABB16A4610212C20FEF75EFF51
S214007B4078B9094B009A9A420BD1DDE902230199D4
S214007B5060682AF039FEDDE902230199034814F033
S214007B6051FB04B010BD00BF43574C4896DD0300E0
S214007B70F0B5044685B0002800F03081002900F0FA
S214007B802D814FF4D813C0F88C3000F10803C0F8EC
S214007B909430934B0422C0F89830022300F10C0571
S214007BA0C0F8A0508F4D80F89020C0F8A45000F187
S214007BB00E05C0F8AC508C4D80F89C30C0F8B05024
S214007BC000F11005C0F8B850884D80F8A830C0F80D
S214007BD0BC5000F11805C0F8C450854D80F8B4308C
S214007BE0C0F8C85000F11A05C0F8D050814D80F892
S214007BF0C030C0F8D45000F11C05C0F8DC507E4DF3
S214007C0080F8CC30C0F8E05000F11E05C0F8E8500F
S214007C107A4D80F8D830C0F8EC5000F12005C0F856
S214007C20F450774D80F8E430C0F8F85000F12205A3
S214007C30C0F80051734D80F8F030C0F8045100F1E0
S214007C40240580F8FC3080F80821C0F80C516E4DF1
S214007C5080F81421C0F8105100F12C05C0F824510A
S214007C606A4D00F12802C0F8285100F12E05C0F830
S214007C703051674DC0F81821C0F8345100F1300576
S214007C80C0F83C51634D644AC0F8405100F13205DB
S214007C90C0F84851614DC0F81C21C0F84C5125254C
S214007CA0012280F8505100F13405C0F854515C4D63
S214007CB080F82021C0F8585100F17C05C0F86051CA
S214007CC0584D80F82C31C0F8645100F17E05C0F89C
S214007CD06C51554D80F83831C0F8705100F1800570
S214007CE0C0F87851514D80F84431C0F87C5100F10D
S214007CF08205C0F884514E4D80F85C31C0F888513A
S214007D0000F1840580F8683180F8743180F880319D
S214007D1080F88C31C0F89051464D80F89831C0F804
S214007D20945100F18605C0F89C51434D80F8B0315F
S214007D30C0F8A05100F18805C0F8A8513F4D80F862
S214007D40BC3100F11403C0F8AC51C0F8C03100F1EA
S214007D5012053B4BC0F8B4513A4DC0F8C43100F19F
S214007D60160380F8A421C0F8B85180F8C821C0F8DE
S214007D70CC31CA798D6802EB420305EB830600F12D
S214007D808C077760304E45F823606E46531CCB71E7
S214007D900B7804F15C0503702C4B1860FFF7C6FEE9
S214007DA020462AF046FD324610213320A76EFEF705
S214007DB025FE18B996E80F0085E80F002846A76646
S214007DC02AF05FFDE36DE367236EC4F88030636ED0
S214007DD0C4F8843094F86C3084F8883005B0F0BD70
S214007DE005052100080521000B05290000062100D5
S214007DF001062100020621000306210004062100D8
S214007E000506210000FF230001FF230010FF2101CB
S214007E1011FF210112FF210102FF200020FF420175
S214007E2030FF210131FF210132FF210133FF210103
S214007E3034FF210135FF210136FF30000F052100F8
S214007E40100528000E052900040B011B9440002095
S214007E502DE9FF414C4B1C688CB1237883420ED130
S214007E60606860B14FF61273994241D00AD84FF657
S214007E70107399422CD04FF61173994231D004B04A
S214007E80BDE8F0814FF62073994238D0D03189B2E0
S214007E900529F4D8E36F04F15C00E365D4F880307C
S214007EA02366D4F8843063662AF0EBFC0246102181
S214007EB03320FEF7B3FDE36DE367236EC4F880302E
S214007EC0636EC4F8843094F86C3084F88830D6E753
S214007ED00021E28D2AF066FC0023E3850028CED13F
S214007EE021E00121228E2AF05DFC00232386F5E79F
S214007EF00221628E2AF056FC00236386EEE70023FA
S214007F0094F834504FF00A0C232D28BF2325CDE9D2
S214007F10013304F1350703939D420DD8DDE90223B2
S214007F2001992AF051FC6068FFF776FD204604B000
S214007F30BDE8F0412AF07DBCFA5C562A14D0572AD8
S214007F4014D0412A0DD1012100220133DEB2F3B252
S214007F509D420DD804AE013B06EB8101DBB241F831
S214007F600C2C0133DBB2D7E70021EDE70221EBE76B
S214007F7017F806E00136AEF13008B8F1090FE9D877
S214007F800CFB02E2303AE2E79440002070B50D4662
S214007F900646144613460A460146244814F032F9AB
S214007FA025B92046BDE87040FFF70EB9072D05D16C
S214007FB021463046BDE8704000F0E4BF4FF601436E
S214007FC09D4205D121463046BDE87040FFF770BCA3
S214007FD0062D05D121463046BDE8704000F07EBD36
S214007FE0B5F5817F05D121463046BDE87040FFF7E4
S214007FF0FFBA40F202739D4205D121463046BDE8E5
S214008000704000F00FBB40F604339D4205D1214678
S2140080103046BDE87040FFF71BBF202D04D1204638
S214008020BDE8704000F0D6BB70BD00BFC6DD0300E3
S2140080300148FEF7BDBF00BF8D7F00004FF4C013A0
S21400804030B5036001230371074B8C688360CA79DF
S21400805002EB420304EB83056860044844F82300FF
S214008060531CCB7130BD00BFE47A0400040001014C
S21400807038B500250446458005482AF094F9FDF7F2
S214008080D5FA2A4620780321BDE838402AF0E9B917
S2140080909840002043880BB9FFF7EABF013B9BB22C
S2140080A04380002BF8D04FF47A7101482AF076B955
S2140080B09840002038B5114B0446186019B9BDE841
S2140080C03840FFF7D5BF41804FF4FA714FF6FF7284
S2140080D008460B4DFDF786FA0A4B2846C5E90034DC
S2140080E0FEF798FD28464FF47A712AF057F9207863
S2140080F00022BDE8384003212AF0B3B9C040002072
S214008100984000209580000010B51446084A106874
S21400811050B14CB953B1BDF80820012A06D91988C8
S214008120FFF7C8FF204610BD0124FBE70324F9E74C
S214008130C04000200B7830B503700D4B186000234C
S21400814043800C4B436002230372C318C360CA7992
S2140081508D6802EB420305EB83040430606006483A
S21400816045F82300054BA360531CCB7130BD00BF00
S214008170C040002000002101030001010981000029
S2140081802DE9F84F06460F469346104C04F1300A88
S21400819054F8049BB9F1000F14D15445F8D1BDE84A
S2140081A0F88F09EB85055B463A4631466868FDF769
S2140081B0A7F808F1010899F802305FFA88F5AB4293
S2140081C0EFD8EAE74FF00008F5E700BFC44000200C
S2140081D038B50024044D55F8040B08B12AF0EBFB23
S2140081E001340C2CF7D138BDC440002038B511F04E
S2140081F0FB050C460CD182B17BB1042C117803D15F
S2140082000B1E18BF012303732AF068FC284638BDEE
S214008210034813F0F7FF0125F8E70325F6E700BF4C
S214008220F9DD030070B58678012E0DD90A2908D12C
S21400823062B1012B0AD91388C3812AF014FC0020EE
S21400824070BD034813F0DEFF0120F9E70320F7E7CF
S2140082501BDE030030B40E4D0C4655F820001146C8
S2140082601A46BDF8083078B1082C07D0B4F5407F20
S21400827007D0062C08D130BC2AF039BC30BCFFF73A
S214008280B5BF30BCFFF7CEBF012030BC704700BF83
S214008290C4400020F7B5544A0B78044642F8230041
S2140082A04370437B0D460BB9FE234373E3890BB93A
S2140082B0FA23E38120786A4634300621C0B2FEF7FE
S2140082C09DFB40B9BDF80230BDF80020A382BDF882
S2140082D0043062822382A37C012B02D0022B02D0C0
S2140082E00023237309E0E37C002B16BF0122002243
S2140082F06373A38A227303B1E38120462AF05BFBF3
S2140083004FF480130126A36104F10C032362374B5C
S2140083102677636204F1120384F82860E362E97941
S214008320AA6801EB410302EB830004F118074760DB
S2140083302F4F04F13C0E42F823704FF400132D4FDC
S21400834087600220E36304F10D0363642A4B84F81C
S2140083504060A36404F1100323658B19DBB203EBC2
S214008360430302EB830C84F84C00CCF804E0DFF8FF
S214008370A4E042F823E00B18DBB2CCF80870EB71EF
S21400838094F802C0B4452CD984F870601B4EDFF810
S21400839088C066671A4EC4F860C0A667194E04F116
S2140083A00E0C84F86400C4F868C084F87C00C4F836
S2140083B0806084F88800DFF864C01348134E03EB2F
S2140083C04303C4F88C00C4F86CC0C4F8846002EBA5
S2140083D08300603444600E4C033142F823408760CB
S2140083E0E97103B0F0BD00BFC44000200340300177
S2140083F0060001025582000000FF2101A07800203F
S2140084000B40210048780020467800200C402100D0
S21400841000030104080001020700210008003000E4
S21400842013B5044680B100786A4627300821C0B2EA
S214008430FEF7E4FA50B9DDE900230948C4E902234F
S214008440C4E9242313F0DEFE02B010BD0022002390
S2140084500448C4E90223C4E9242313F0D3FEF3E757
S2140084603DDE030068DE030070B50D4604460028B6
S21400847058D0002956D00B7804F1200603702A4BFA
S2140084801860FFF7CDFF4FF414132362082304F19E
S21400849010026263254A84F82430A26304F11102B4
S2140084A02264234AE31862640422A362214B84F800
S2140084B04820E362012384F8542004F11802A265E0
S2140084C01D4A04F11401E26504F11C0262661B4AAF
S2140084D0E164A26604F11D0222671949194A84F86C
S2140084E0303084F83C3084F8603084F86C3084F89F
S2140084F0783004F11E0321656267E367EA79A968AC
S21400850002EB420301EB830046600F4841F823006C
S214008510531CEB712978D4E902230C48BDE870405F
S21400852013F070BE70BD00BFF440002000033000A2
S21400853001032200000218000303180006031800B7
S2140085400203220000F020010207010896DE030065
S21400855013B5044678B1D0E902230078CDE90023AC
S21400856027306A460821C0B2FEF758FAD4E902233B
S214008570024813F047FE02B010BD00BFC7DE03007E
S21400858030B5044689B040B3436833B31A6822B1A5
S214008590126812B1586801A990479DF81030E3B1EF
S2140085A00399D4F880208A4207D8D4E902308A1A80
S2140085B09B1840F10000C4E90230C4F8801029F08E
S2140085C0F6FED4F88430064AC31A9342054604D908
S2140085D02046FFF7BDFFC4F8845009B030BD00BF89
S2140085E0DF93040010B50446C0B10023002200212A
S2140085F0C0E90223C0E924234368C0F880102BB1E9
S2140086001A681AB152680AB1586890472046FFF7B0
S2140086109FFFBDE81040024813F0F4BD10BD00BF38
S214008620EFDE0300B1F5704F034607D1044A106829
S21400863020B102789A4201D1FFF7D4BF704700BF3D
S214008640F44000200368064A0C2113604368536018
S21400865003891381438922205381FEF7DFB900BFC7
S214008660F840002010B50368044686B0FBB11148F8
S21400867013F0C8FDA37B104A8DF804304FF48273C4
S214008680ADF806300123CDE90223002301A80493A8
S2140086908DF81430FEF7ECFC204661892AF04CFA7F
S2140086A02046FA2150F8143B594329F077FE06B0CD
S2140086B010BD00BF10DF03002000000110B5064CFF
S2140086C0236843B1054813F09DFD2068BDE81040BF
S2140086D041892AF031BA10BD0441002031DF030081
S2140086E070B5364910460C68BDF81020002C5ED0D8
S2140086F003285CD8DFE800F0021E2745002B5AD07E
S214008700022A58D91D78B3F80160291E18BF012126
S21400871032462B4813F076FD2DB1314620462AF01E
S2140087200BFA002070BDE573FA206368584329F001
S214008730D9FEF6E7234813F065FDE37B002B38D01F
S2140087400023E373F0E7002B35D0032A33D91D68E6
S2140087501D48294613F056FD1C4B2A1F9A4201D984
S2140087600220DFE723680BB19D42F9D823899D429A
S214008770F6D3E37B6560B3B9FA20684329F0B2FE0E
S21400878011E0002BCED0012ACCD91D8810482946EE
S21400879013F038FD002DE3D063689D42E0D8E37BFC
S2140087A02581002BE8D12046FFF74CFFB9E70120D2
S2140087B0B8E70420B6E70320B4E700BF0441002072
S2140087C054DF03008BDF0300AADF0300FCFF6D000D
S2140087D0D5DF030038B5154B1C6834B3F0B92168F3
S2140087E0134813F00FFD23683BB16268934204D22E
S2140087F0104813F007FD6368236004F1140528464B
S21400880029F0D1FD236823B1FA212846594329F0DF
S214008810C5FD2046BDE83840FFF714BF032804D145
S2140088206189054813F0EEFCF3E738BD04410020EB
S21400883000E003002EE0030063E0030070B53E4B4B
S2140088400D46044609781860002A6FD101231A469F
S214008850A1730021E1730121A1814FF46151C4E9A4
S21400886000132823354E22810C21324622206381B4
S214008870FEF7C4F860B9D6E900230AB19A4207D3D6
S214008880318999429FBFC4E900237389218163819E
S2140088902B4B2C4AE363042384F8403084F84C3096
S2140088A0E3182365284BA2646365022304F10802DB
S2140088B0E265264A84F85830226604F10A02A26667
S2140088C0234A84F8643084F8703004F10C03E266BE
S2140088D063676464EA79A86802EB420300EB8301ED
S2140088E004F13C064E601B4E40F82360FA261A4BF5
S2140088F01A488B60531CEB71FEF760FB208904F16D
S2140089001405704329F0EEFD618920462AF014F91B
S214008910134B2846C4E90534FEF77CF9216849B1B3
S21400892028467143BDE8704029F038BD4FF4F07317
S21400893002228DE770BD00BF04410020F8400020F1
S2140089400000230101002300020021000300210192
S214008950FDFF210020000105E1860000BD86000025
S21400896065860000134B10B51C680CB3E37BEBB1B7
S21400897029F01DFD2369C01A002809DB0E4813F0F4
S21400898041FC0023FA20E3736368584329F0AAFDEC
S214008990E37B5BB12489FA235C4329F0AEFDA04259
S2140089A006D02046BDE8104029F09CBD6468F2E77A
S2140089B010BD00BF0441002090E0030073B5002402
S2140089C001260A4D55F8042B52B1D36C43B105333A
S2140089D0507806210093002210230196FEF788FBAC
S2140089E001340C2CEED102B070BD00BF084100204F
S2140089F038B50024044D55F8040B08B12AF0AFF83A
S214008A0001340C2CF7D138BD08410020042908B5E4
S214008A100AD172B16BB113781BB92AF0CBF80020DB
S214008A2008BD2AF0BDF8FAE7034813F0EBFB012077
S214008A30F6E70320F4E700BFCAE0030010B4054CD5
S214008A40114654F820001A46BDF804305DF8044B71
S214008A50FFF7DCBF084100200229024608B50ED009
S214008A6004D839B910462AF0A5F806E04029F9D00E
S214008A70412907D110462AF093F8002008BD2AF0B5
S214008A80A3F8FAE7024813F0BDFB0120F6E700BFA3
S214008A90EAE0030010B4054C114654F820001A46CC
S214008AA0BDF804305DF8044BFFF7D6BF0841002040
S214008AB0C26C094B52791A7082785A70C2789A70D2
S214008AC0026D12B190F85420DA7000780421093053
S214008AD0014AC0B2FDF7A2BF0E690020024B53F850
S214008AE020002AF0B4B800BF0841002038B504467C
S214008AF00078084D09302A460421C0B2FDF77EFFF3
S214008B0030B96B78A370AB78E370EB7884F85430A8
S214008B1038BD00BF0E69002038B504460078114DF8
S214008B2009302A460421C0B2FDF768FFC8B9A37809
S214008B302A78022B0CD004D863B920462AF03AF8DB
S214008B4001E0FF2B0AD02046BDE838402AF007B8DF
S214008B50002AF2D120462AF023F8F4E7002AF9D1B9
S214008B60EBE738BD0E690020F8B504460B783D4AA1
S214008B700D4642F823004370FFF7B8FFE36C3A4A0D
S214008B805C631A632046FFF7C7FF204629F0E7FF1D
S214008B904FF4801301266360E36C26720533E360AE
S214008BA0324B26752361A31CA361236D002B54D082
S214008BB02F4A84F82060E261E21C62622D4A84F843
S214008BC02C60A26204F15402226393F83420002A37
S214008BD045D093F83620204684F855201B8FA4F8FD
S214008BE0563029F0FBFF94F85510206D29F0E1F976
S214008BF0B4F85610206D29F0E6F91F4B84F838605B
S214008C00636304F15503E3631C4B062623640223C7
S214008C1084F8443004F15603A3640627EA79A96869
S214008C2002EB420321F8237001EB830001238370DB
S214008C30134B04348360531C4460DBB2114C03EBCB
S214008C404303C67041F8234001EB830000234360D2
S214008C500D4B02328360EA71F8BD0226DDE704267A
S214008C60DBE700BF084100202B2C03000340300147
S214008C7001FF300102FF100103FF200104FF210164
S214008C80958A0000080001003D8A0000FF2805D1F3
S214008C90034B1878003818BF012070470020704733
S214008CA0EF680020F8B542790D461046FFF7EEFF54
S214008CB00F4C28B100260F4F3B78B3420DDCF8BDB1
S214008CC05823013A03FB024019B1BDE8F84029F0E9
S214008CD067BFBDE8F84029F06DBF204625B129F0F2
S214008CE05FFF01365834E7E729F064FFF9E700BF75
S214008CF000270020EF68002010B542791046FFF7E5
S214008D00C5FF0D4B68B10D4A117800228A4201DB7F
S214008D10002010BDDC6C58336479002CF9D1013288
S214008D20F4E75821013A01FB0233DB6C587900382E
S214008D3018BF0120EDE700BF00270020EF680020E5
S214008D4010B5427904461046FFF7A0FF40B9BDE8CB
S214008D5010405820084B013A00FB023029F034BF7F
S214008D602046FFF7C9FF80F00101C9B22046BDE8E2
S214008D701040FFF797BF00BF0027002008B54279D4
S214008D801046FFF783FF38B942B1054B1B78934274
S214008D9034BF0020012008BD0120FCE71046FAE79A
S214008DA0EF68002070B500250A4C0B4E3378AB42B6
S214008DB000DC70BDD4F8A41041B123791BB1204665
S214008DC0FFF7DCFF10B9084629F0C4F80135AC34CB
S214008DD0ECE700BF10290020F068002010B586B030
S214008DE00446FEF70DF9012812D16378094A8DF87A
S214008DF004304FF48273ADF806304FF48073CDE93B
S214008E000223002301A804938DF81430FEF730F9EE
S214008E1006B010BD0800070110B586B00446FEF780
S214008E20EFF8012820D16278104B8DF804204FF41B
S214008E30827294F8A01094F8A10059701870ADF8DA
S214008E40062004934FF480720223094901A88DF886
S214008E501430CDE90212FEF70BF994F8A130013B6D
S214008E6018BF012384F8A13006B010BD1269002097
S214008E700800050110B58378044686B0BBB30379B5
S214008E80022B05D1FFF77AFF10B12046FFF758FFF7
S214008E90A379022B02D1204629F04CFF94F8A83083
S214008EA0BBB1FEF7ADF8012813D194F8A830114AEB
S214008EB08DF804304FF48273ADF806304FF48073AB
S214008EC0CDE90223002301A804938DF81430FEF7A1
S214008ED0CFF82046FFF7A0FF022355221221607824
S214008EE0A4F86C3006B0BDE8104029F0BABA06B057
S214008EF010BD00BF060002014388094A08211380FE
S214008F008388538083681B8A938090F8A03093717F
S214008F108379D37100780430C0B2FDF77FBD00BFFF
S214008F20F463002038B50D4604460178134813F064
S214008F3069F94FF602739D4211D1114B1A782AB97E
S214008F4062712046BDE83840FFF7D6BF6379FF2B35
S214008F50F7D00BB19A42F4D201236371F1E7B5F56D
S214008F607F4FEED1204629F0ADFFA378022B0CBF31
S214008F7001220022A3689A70E3E700BF06E103001F
S214008F80EF680020024B53F82000FFF7CBBF00BF6E
S214008F903841002038B504460078154D04302A467E
S214008FA00821C0B2FDF72AFD20B1BDE838401148BF
S214008FB013F028B92B8863806B88E978A380AA8889
S214008FC0A3681A82AB7984F8A030EB79A3710A4BB8
S214008FD01B780BB9637138BDFF29FCD009B19942E3
S214008FE0F9D9064813F00EF923780133F2E700BFEB
S214008FF0F463002020E10300EF68002049E103004D
S214009000F8B504460B78474A0D4642F823004370ED
S214009010FFF7C0FFA268444BD465D364434B0226D7
S2140090205365434BA11C13654FF44013E3600123C3
S2140090306161E1623F49103221632265211D3E4A8B
S214009040A1633E483E49626504F1A002A061E16367
S214009050E265E01C611D3B4A206261643A483B4978
S2140090602266A21D2374237784F8283084F83430CF
S21400907084F84030A16484F84C6084F8583084F852
S21400908064306062A266E879AA6800EB400102EBF1
S214009090810704F10C0CC7F804C04FF0060C2C4FE7
S2140090A042F82170C118C9B201EB410142F821C053
S2140090B002EB810700217960264F84F8803027670D
S2140090C0254F84F89830A767244F254BE767254F30
S2140090D084F8746084F88C60C4F89C3004F16C06E4
S2140090E0831CC4F88470C4F890601F4F1F4EDBB218
S2140090F003EB4303C4F89460C4F8887002EB83065D
S2140091007034746008261A4C42F82340C31CDBB245
S21400911003EB430302EB8304043042F823606160F0
S214009120E871F8BD38410020A92D0300652E030024
S214009130758E000001FF300104FF20011000300191
S21400914002FF200105FF300100FF300103FF21016F
S214009150070001084A002100E67A040051001000CA
S214009160E87A0400E97A0400550021006F00180030
S2140091701200010400239B6AB3F5804F03D21968DE
S214009180064A914203D00023037083607047012291
S21400919002709A689B694260F7E700BF07B0CD5E31
S2140091A0024B034A1A602BF046BB00BF00000020AB
S2140091B002020FF073B53F4B04461A781AB102222A
S2140091C01A7002B070BDCDE900220028F9D0012641
S2140091D01E7033F0BDFE384D384B186017F0F4FDA6
S2140091E02B785BB902F0F2F940B935480823354AC6
S2140091F03549006801F038FE00B92E70334B5A68C6
S214009200E260334A9A601A6E22605A6E6260D3F841
S2140092107021A2601B6E5C042CD52E4AD368D8073A
S214009220FCD42D4B1A68531C29D04FF4801393405E
S2140092302A4A13660423294C4FF0804223664FF4D3
S21400924080632366102323664FF400536846236624
S21400925001A92266636629F04DFE009B2366019BEA
S21400926063662B78002BACD0164B1A6822665B68B8
S2140092706366A6E71A4AD368D907FCD4D1E7194B28
S2140092801B78002BD6D1184B5A68144B12B94FF4E2
S21400929080121A66154A526812B94FF400121A66FE
S2140092A0134B5B68002BC5D14FF480020B4B1A663C
S2140092B0C0E700BF1569002016690020784100202D
S2140092C04C7300207C4100200071080000800044A0
S2140092D055CEAC00000004401873002000900044F7
S2140092E000000450146900200080055000C005509E
S2140092F00000065038B5224D04462B78012B02D0CC
S21400930001232B7038BD0028FCD029F018FE013050
S21400931009D029F014FE40F20113984203D0194AEE
S214009320D368DB07FCD42268174B1A6662685A6655
S214009330A268C3F87021E268D40744BF00229A608E
S214009340124B1A68013213D1114A127882B91149A8
S2140093504968C80748BF1A600F4A5268D10744BF19
S21400936001221A600D4A5268D20744BF02221A60D0
S21400937017F032FD0A4B186833F0E5FD0023C0E70E
S2140093801569002000000440008000441873002087
S214009390146900200080055000C0055000000650EB
S2140093A07841002070B50024A36AB3F5804F23D21D
S2140093B01A68134B9A421FD1124E337813F0FD05EC
S2140093C018D14FF480341048FFF7F4FE032004F061
S2140093D075FD0E4B0320DC6004F054FD0C4B1C6145
S2140093E0AB6ADB69984704460748FFF783FF0CB96A
S2140093F001233370204670BD4FF48174FAE700BF36
S21400940007B0CD5E146900206841002000A000442B
S2140094100090004413B5204B1B7803B9FEE70023E9
S2140094201E4CCDE900336A4608231D49206801F02A
S2140094301BFDF8B91B4AD2F84031D2F840211F2B49
S2140094404FF0010311D9203A9340019A1A43019232
S21400945008236A461249206801F08EFE124B134A12
S2140094601A602BF0E8F902B010BD9340009A1A4338
S2140094700092EDE72D28F1D10A4AD2F84031D2F811
S21400948040211F2B4FF0010385BF203A93409340A5
S214009490019398BF0093DBE7156900204C7300200A
S2140094A00071080000800044000000200B020FF04E
S2140094B038B50025AB6A0446B3F5804F10D21B6B57
S2140094C0B3F5804F0CD20748FFF774FEAB6A204610
S2140094D01B6B5B689847BDE838400248FFF70ABF39
S2140094E038BD00BF8441002013B50024A36A019054
S2140094F0B3F5804F13D21B6BB3F5804F0FD20948DC
S214009500FFF758FEA36A01211B6B01A89B699847C9
S21400951004460448FFF7EEFE204602B010BD4FF4A6
S2140095208174F9E78441002070B50026B36A0446CA
S214009530B3F5804F0D4612D21B6BB3F5804F0ED29B
S2140095400848FFF737FEB36A20461B6B29469B691F
S214009550984704460348FFF7CDFE204670BD4FF4FB
S2140095608174FAE78441002070B50026B36A044689
S214009570B3F5804F0D4612D21B6BB3F5804F0ED25B
S2140095800848FFF717FEB36A20461B6B2946DB69BF
S214009590984704460348FFF7ADFE204670BD4FF4DB
S2140095A08174FAE784410020F8B50027BB6A0446B8
S2140095B0B3F5804F0D46164611D21B6B7BB109489A
S2140095C0FFF7F8FDBB6A20461B6B324629465B6AEE
S2140095D0984704460348FFF78DFE2046F8BD4FF433
S2140095E00174FAE78441002070B50026B36A044689
S2140095F0B3F5804F0D4612D21B6BB3F5804F0ED2DB
S2140096000848FFF7D7FDB36A20461B6B29469B6ABE
S214009610984704460348FFF76DFE204670BD4FF49A
S2140096200174FAE784410020F0B50027BB6A0446BF
S214009630B3F5804F0D461646ADF5337D20D21B6B35
S214009640B3F5804F1CD21048FFF7B4FDBB6A204626
S2140096501B6B40F2C1225B6A01A99847044630B1F1
S2140096600948FFF747FE20460DF5337DF0BD836AB7
S21400967032461B6B2946DB6A01A898470446EFE78B
S2140096804FF40174EFE700BF8441002010B50024BA
S214009690A36AB3F5804F10D21B6BB3F5804F0CD284
S2140096A00748FFF787FDA36A1B6B1B6B98470446AA
S2140096B00348FFF71FFE204610BD0124FBE700BF4E
S2140096C084410020F0B58FB0044601A80E4615462A
S2140096D0FFF7EEFE9DF80C30012B12D1B5F5402FAA
S2140096E027D8B4F5402F24D86319B3F5402F20D8D7
S2140096F021462A46304614F027F8002420460FB0AC
S214009700F0BD0027BB6AB3F5804F15D21B6BB3F5CF
S214009710804F11D20A48FFF74DFDBB6A2A461B6BE5
S214009720314620465B6B984704460548FFF7E2FD46
S214009730E4E740F20244E1E740F20114DEE700BF4E
S21400974084410020F0B58FB0044601A80E461546A9
S214009750FFF7AEFE9DF80C30012B1FD1B5F5402F5C
S21400976006D8B4F5402F03D86319B3F5402F13D9A4
S21400977040F2024420460FB0F0BDE258013225D137
S21400978004339D42F9D82A463146204629F007FC84
S2140097900028EDD00024EDE70023F2E70027BB6A9F
S2140097A0B3F5804F15D21B6BB3F5804F11D20A4824
S2140097B0FFF700FDBB6A2A461B6B314620469B6BB3
S2140097C0984704460448FFF795FDD3E740F2034464
S2140097D0D0E740F20114CDE78441002070B58EB08A
S2140097E0044601A80D46FFF763FE9DF80C30012BDA
S2140097F022D144EA0503C3F30C03002B33D1B5F59D
S214009800402F04D940F2024420460EB070BDB4F595
S214009810402FF7D82544B5F5402FF3D8204604F559
S214009820005429F0B5FBAC4202D00028F6D1E9E797
S2140098300028E7D00024E7E70026B36AB3F5804F98
S21400984014D21B6BB3F5804F10D20A48FFF7B2FC58
S214009850B36A29461B6B2046DB6B984704460548CF
S214009860FFF748FDD0E740F20444CDE740F201148C
S214009870CAE700BF84410020BFF34F8F0549064B5F
S214009880CA6802F4E0621343CB60BFF34F8F00BF99
S214009890FDE700BF00ED00E00400FA0570B5D0B1AA
S2140098A0C9B10E4E431E013913F8014F2046325DF2
S2140098B002F00302012A11F8012F08BF04F120006C
