S01B00006275696C642F72656C656173652F7A69676265652E73333714
S214004000081000203D870000D1CE0000EF5C0300C2
S214004010EF5C0300D9CE0000E1CE0000EF5C0300A9
S214004020EF5C0300EF5C0300EF5C0300EF5C030053
S214004030E5CE000010A70400EF5C0300EF5C030071
S214004040EF5C0300EF5C0300EF5C030055820000AA
S214004050EF5C0300EF5C0300EF5C0300EF5C030023
S214004060EF5C0300EF5C0300E5D30000EF5C0300A9
S214004070EF5C0300EF5C0300EF5C0300EF5C030003
S214004080EF5C0300EF5C0300EF5C0300EF5C0300F3
S214004090EF5C0300EF5C0300EF5C0300EF5C0300E3
S2140040A0EF5C0300058B0000E98A0000EF5C03006C
S2140040B0EF5C0300EF5C0300EF5C030035230200B7
S2140040C0E1B80300DDB80300991A0200F7B8030050
S2140040D0E5B80300F5220200E9B80300290702004C
S2140040E075230200EF5C0300EF5C0300EF5C030047
S2140040F0EF5C0300EF5C0300EF5C0300EF5C030083
S214004100EF5C0300EF5C0300EF5C0300EF5C030072
S214004110EF5C0300EF5C0300EF5C0300EF5C030062
S214004120EF5C0300EF5C0300EF5C0300EF5C030052
S208004130EF5C030038
S214004134F0B5114A114C124E00F00105E3695F0711
S21400414413D40DB9334213D103EA00078F4207D1C3
S2140041540B4A1A40002A14BF6FF001000020F0BD7D
S214004164013AEBD16FF00200F9E74FF0FF30F6E7C3
S2140041746FF00100F3E700BF80969800000003503C
S214004184020001000B4B70B5D96911F480310DD1D2
S21400419401244FF48072084E084DF46020462C64C7
S2140041A41A61FFF7C5FF3464EC6070BD6FF0010060
S2140041B4FBE700BF0000035000100350002003502C
S2140041C438B541F6713301220C4C0021E569E363EE
S2140041D40B4B05F48035DA600223606121202361ED
S2140041E4FFF7A6FF10B92120FFF7A2FF0122054B17
S2140041F4DA600DB10023E36338BD00BF000003504E
S214004204001003500020035070B5134C6061E3693E
S2140042145B071ED40E4656F8043B8D18A361AE42C7
S2140042240BD10423002121202361FFF781FF58B915
S214004234BDE870402120FFF77BBF08210846FFF742
S21400424477FF10B10423236170BD56F8043BA361C5
S214004254E5E74FF0FF30F7E7000003502DE9F84399
S214004264154641F67132164B8946DF69DA63012238
S214004274064603F58053DFF8508007F48037DA608B
S21400428455B9284601220F4BDA601FB10022A3F568
S2140042940053DA63BDE8F88306F5005404EA08041C
S2140042A4A41BAC4228BF2C46494622463046FFF79C
S2140042B4ABFF0028E6D12644A1442D1BE0E700BF4F
S2100042C4000003500020035000E0FFFF45
S2140042D02DE9F04F4FF0FD0BC9B09A460DF11B09C2
S2140042E09DF8503108AFCDF80C90CDF808B0019786
S2140042F0059303890446009383790E4690464188C9
S2140043008288407812F034FD054650B10090A388AC
S214004310002062883A4913F06FF8284649B0BDE895
S214004320F08F99F8000034F0F9FD38B12846A388DC
S2140043306288344913F060F88D25EEE75A46394610
S21400434099F8000034F092FD8346002851D0529B25
S2140043501BB1BDF84C3198424BD8002399F8009019
S2140043600793A9F14102012A5FFA8BF123D8384658
S2140043700139254ADFF898C05FFA81FE734513DBE2
S214004380059B04210792C3B907AF18221F489FED6B
S2140043901A7B02FB060420460A460830394684ED9E
S2140043A0027B17F07FFD11E010F8011F013351402A
S2140043B00CFB01F2E2E7059B33B123464A4638463A
S2140043C0009610F0FDFBA8E70829DED9B8F1000F2B
S2140043D001D088F80090BAF1000F01D0AAF800B01A
S2140043E0529B002B99D05A46184608A917F05AFD3A
S2140043F093E7012591E700BF0000000000000000E1
S2140044001050040045500400C59D1C811811002062
S21400441093010001000000002DE9F04F93B0CDE9B4
S2140044200A32DDE91C530E9353EC102BCDE908013C
S214004430104619468DED060B1E9E16F0BDFF80B188
S214004440DDE906014FF0FF32C54B16F0DDFF40B93F
S214004450DDE906014FF0FF326FF4801316F0B6FF69
S21400446070B1DDE908019DED060B0E9B1E96CDE9A9
S2140044701C53DDE90A3213B0BDE8F04F00F088B9EE
S2140044800022DDE90601002316F0A0FF002800F058
S2140044903381DDE906A303F1004BCBF30A5016F493
S2140044A08063A0F2FF3008BF06250F9316F0B2FC1B
S2140044B09BA3D3E9002316F017FD9BA3D3E90023A3
S2140044C016F05CFBCBF31304894644F07F5180461C
S2140044D00022A44B504641F4401116F04DFB94A325
S2140044E0D3E9002316F000FD02460B464046494637
S2140044F016F044FB16F092FF044616F08BFC8EA3D3
S214004500D3E900238046894616F0EEFC0022964B3F
S21400451016F034FB16F082FF89A3D3E90023074682
S2140045204946404616F0E0FC80463846894616F076
S21400453071FC85A3D3E9002316F0D6FC02460B4691
S2140045404046494616F018FB02460B46CDE90C23BA
S21400455016F0CAFCDDE90C2380468946104619464B
S21400456016F00CFB0022CDE91001804B4046494670
S21400457016F0E4FD00227E4B16F000FB02460B46CA
S2140045804046494616F0DAFD00227A4B16F0F6FA57
S21400459002460B464046494616F0D0FDDDE90C23A0
S2140045A08046894600204FF0804116F0E5FA024624
S2140045B00B464046494616F0E1FA02460B46DDE950
S2140045C0100116F0BBFD07F2FF3700226A4B16F00B
S2140045D0D5FA00223B0516F087FC52465B4680461D
S2140045E0894616F011FF002840F08980CDE90C8935
S2140045F004F16303C62B8CBF0527042731051BD5A2
S21400460053A3D3E900235046594616F0F3FE00287C
S2140046107FD051A3D3E900235046594616F0D6FE64
S214004620002876D00027A542C6BF2C1B04F1FF3514
S21400463000253C4646F480660E9B9F422CBF4FF0FA
S2140046400008A3EB070816F0020903D0002F18BFD6
S2140046504FF000083CB1DDE90C235046594616F0F1
S2140046606DFD82468B46DDE906010022002316F02A
S214004670ADFE10B10BF100439B46DDE9080126F4C0
S2140046800063CDE90183DDE90A324BEC10AB0095FF
S21400469000F07EF802465FB3DDE9091316F0200F3E
S2140046A000F10105089E0CBF65204520B047DDE9F6
S2140046B008010523002205930A23002CCDE90232C7
S2140046C007F1FF374FEAD473B8BF64422A46019316
S2140046D004970A9B009436F07BFA0246B9F1000F65
S2140046E006D00B9BC41A0B9B1A190E9BA34245D8E7
S2140046F0104613B0BDE8F08FDDE906ABCDE600222C
S214004700404649461A4B16F019FD013CCDE90C010E
S2140047106EE7002D90D00F9B002B8DD0013D8BE7D0
S214004720FB799F501344D33FB3C8608B288AC63F9B
S21400473061436F63A787D23F71A379094F930A40FD
S2140047401655B5BBB16B0240EF39FAFE422EE63F76
S2140047502D431CEBE2361A3F0000000080842E41F9
S214004760FFFFEF7F0000F83F0000E03F00002C4016
S21400477000002440000018400000F03F2020DDE943
S2140047800913089DA8470134ADE700BF00000000EC
S2140047902DE9F04F5BEC10AB97B0CDE90501DDE9F4
S2140047A02058CDE90723504652465B465946229F7D
S2140047B016F002FE70B90323CDE902870193AA4BD7
S2140047C00093DDE90501DDE9072336F033F917B07C
S2140047D0BDE8F08F4FF0FF326FF480135046594615
S2140047E016F0F4FD28B10423CDE9028701939F4B10
S2140047F0E6E74FF0FF32504659469D4B16F004FE52
S21400480068B19C4A07F00403002B08BF03229A4BAA
S2140048101CBF13460422CDE902870192D0E750461A
S2140048208DA3D3E90023594616F0EEFD38B98CA3C4
S214004830D3E900235046594616F0C8FD68B1DDE9B5
S2140048400723DDE905014BEC10ABCDE92187209568
S21400485017B0BDE8F04FFFF7DFBD0022002350463B
S214004860594616F0B3FD002800F091805B4652468C
S2140048700020002116F080F9012382468B4609931A
S21400488017F4806400F08580092D40F285800024AE
S21400489030210EABA5F109020134202C03F8011BD0
S2140048A0A5EB040901D09442F6D15946504616F0BD
S2140048B0B5FD724B054603EBC90393ED007B8DED0A
S2140048C00A7B16F0A7FA02460B465046594616F0E3
S2140048D053F9DDE90A2316F007FB02460B46CDE93D
S2140048E00C2316F0C3FD064616F084FA02460B4665
S2140048F0DDE90C0116F040F902460B46CDE90C2323
S21400490000225F4B16F080FD002848D00136304666
S21400491016F070FA02460B46DDE90A0116F060FD55
S21400492008B100260135B9F1000F45D1284616F02A
S21400493071FA02460B465046594616F01DF90022FB
S2140049404F4B16F043FD10B9E90700D501350A2193
S2140049500EAB1A19202C0AD095FBF1F001FB10556E
S214004960303502F8015B013405460028F2D107F025
S2140049700302012A55D1B8F1000F52D0099A12B994
S21400498017F00C0F01D008F1FF38302240E00990F4
S21400499076E74FF0060988E7A946002485E7002257
S2140049A0DDE90C01364B16F011FD0028BBD10EB127
S2140049B0F007B8D50136B6E70A210EAB1A19202C37
S2140049C00DD0B6FBF1F001FB1063092E03F13003A6
S2140049D009F1FF3904F1010402F8013B11D8302136
S2140049E0A1440EAA202CB2D04C4504F101030AD1F2
S2140049F004F158020DEB02042E2204F8202C1C466B
S214004A00A5E70646DBE7A1541C46EBE71A5501343A
S214004A10444506D2202CF9D1CDE9028701940EAB8D
S214004A20CEE6202CF8D0099B3BB12D2204F158038A
S214004A306B4403F8202C0134EEE77A0704D504F122
S214004A4058032B226B44F4E73B07E5D504F15803E3
S214004A5020226B44EDE700BF0000000065CDCD418D
S214004A600000000065CDCDC16F6E0400736E0400BB
S214004A70FFFFEF7F666E04006B6E040048B604000E
S214004A800000E03F0000000070B58EB02C22002130
S214004A9003A817F077F864234FF002320893CDE9A5
S214004AA005230B2301218DF834305B4B8DF8101055
S214004AB01D880D4040F0A98008463AF047FB0A22C0
S214004AC0564B574C1A704FF42873ADF812304FF00F
S214004AD0FF332360534B54491B8820460B82534BAD
S214004AE0534A1B68CD828B61524B0D621B884B82EA
S214004AF0514B1B68CB611DF0B3FC20B14FF41B710A
S214004B004E483BF064FC0521206836F04AFA20B196
S214004B1040F27D2149483BF05AFC206815F0E8FF3A
S214004B20474B2068196836F0FFFA0C253AF076FFF6
S214004B30684309903AF072FF68430DEB0501079051
S214004B40206817F0E1FE20B140F295213B483BF08B
S214004B503EFC256820F02EF800220146284636F056
S214004B605BFB20B140F2972134483BF030FC40F22A
S214004B700353344D344E2B80052396F90000AB705A
S214004B807F2801D11DF062FD3378EB703AF046FFC6
S214004B9000EB80008000A8803AF040FF0023C000B1
S214004BA04FF0FF31E880AB604FF0FF3018A3D3E939
S214004BB000233AF01DFC2549206836F0E6FA206806
S214004BC002A936F002FF20B14FF434711B483BF0C7
S214004BD0FEFB042220680DEB020136F07AFA042868
S214004BE004D040F2D72115483BF0F1FB01A9012083
S214004BF035F085FE08F0B0F901201EF0B9F931F065
S214004C006EFE1EF0DFF91DF0B9FC0EB070BD00BFE1
S214004C100A0020FF4203000096600020EF67002095
S214004C20C85800207ACF0400C46E002080CF04004D
S214004C3075F1030078CF04007CCF04009EA5040025
S214004C40146C0020BC58002009720020E9F1030013
S214004C500348044B834202D0034B03B11847704706
S214004C603C7200203C72002000000000064B074902
S214004C70C91A891048BF0131491003D0044B0BB143
S214004C8001481847704700BF3C7200203C72002065
S214004C900000000010B5064C237843B9FFF7D8FF94
S214004CA0044B13B10448AFF300800123237010BDFA
S214004CB0001700200000000020F3040008B5044B95
S214004CC01BB104490448AFF30080BDE80840CDE7B7
S214004CD0000000000417002020F30400A3F5803A2B
S214004CE0704700BF154B002B08BF114B9D46FFF7C2
S214004CF0F5FF00218B460F461148124A121A16F08D
S214004D0041FF0C4B002B00D098470B4B002B00D0DC
S214004D1098470020002104000D000B4817F078FA91
S214004D2016F008FF2000290030F065FC17F05EFA48
S214004D30000008000000000000000000081000202E
S214004D40081000205468002079C2010007B5012130
S214004D5020200DF1070201F0DBFB50B101212020DD
S214004D600DF107028DF8071001F0E2FB03B05DF8C5
S214004D7004FB9DF807100129F8D00122084815F019
S214004D80EFFD01210DF1070220208DF8071001F03C
S214004D90CFFB30F093FB4FF4FA6001F003FAE5E73F
S214004DA00808040038B501F083F901F04DFD01282C
S214004DB005D001F049FD022801D001F06BFD0A4D37
S214004DC02B783BB901F040FD0128044602D130F0B3
S214004DD009FC2C7001F038FD012803D1BDE83840ED
S214004DE001F04CB938BD00BF8261002010B5044602
S214004DF0008830F02BFBA37884F84400834202BF7F
S214004E000123E3702371074B04F11C00C4E9073447
S214004E1001F0D4FB224620880349BDE8104001F08B
S214004E2011BB00BF734E03003D4E030070B5C37840
S214004E3004460D461646002B34D1D1B1214815F054
S214004E408FFD0123E370E36CA6600BB1E06D98471D
S214004E50E368F61A63699E4221D2217E1A48013120
S214004E60C9B2217615F07CFDA36D13B1217EE06DED
S214004E709847E57030F035FB15B3237903BBA2687D
S214004E80238A801A83421BD801231048237115F009
S214004E9067FD236DA3B1E06DBDE8704018470123A0
S214004EA02376E6E70029E4D1094815F059FD636D3D
S214004EB0E660E5702571002BDBD0E06D9847D8E7FB
S214004EC070BD00BF30080400410804006F080400ED
S214004ED05C08040013B5C8B1C2B1012910D002297C
S214004EE011D099B9C369283083B11404B4FBF3F424
S214004EF004600848009415F033FD002002B010BD91
S214004F00036A2C30F0E7436A3030EDE74FF0FF30AD
S214004F10F4E700BF850804000A460449034608680B
S214004F2010B1194630F001B8704700BF1C170020BA
S214004F3070B5044694F89D2094F89E30D21A4032FC
S214004F40514201F03F0102F03F0258BF4A42D2B23E
S214004F50162A00D870BD03F03F02224492F85D2066
S214004F60552A05D0013303F03F0384F89E30E1E76D
S214004F7094F8B0200020013284F8B0205822191886
S214004F8001F03F01214491F85D1001300A441628D3
S214004F90D2B2F4D1D24303F1160101F03F0121440D
S214004FA091F85D10D2B28A42DCD194F8B13001217A
S214004FB0013384F8B13020462FF07CFF04210546EB
S214004FC020462FF077FF0A21064620462FF072FF74
S214004FD0A26AC4E907655643E26A030248BF434231
S214004FE002FB05F5226B48BF23F07F4002FB00F36F
S214004FF0360C1B0C2D0C23816062A680E58030F0F9
S21400500070FA237E33B90123237694F89E306061CC
S2140050101733A8E742F210726369C31A9342F2D8B4
S2140050202269B4F9081003FB01222261064A2369AB
S2140050309342E8D3A3F55B13A3F53A532361E368E1
S2140050400133E360F3E700BF80EE360010B5044698
S214005050FFF76EFF02210D4830F04DFAB4F8AE00AF
S214005060B4F8AC10013080B2A4F8AE0094F8B130B9
S21400507094F8B02089B230F0D2FA04F134004FF43C
S2140050807A71BDE8104030F023BA00BFA3A6040032
S2140050902DE9F8430D4616469846044610B3B0224E
S2140050A00021043016F06EFD40F29D1240F205130A
S2140050B0C4E90A236923DFF8889023634246314611
S2140050C028461A4B25806680C9F8004030F010FA52
S2140050D0074660B10023324629461548C9F8003015
S2140050E015F03EFC4FF0FF373846BDE8F88330F049
S2140050F0F8F9012384F85C300E4B6061C4E928346B
S214005100032384F8A8300C4BC4E90D34343420460D
S21400511001F054FA20464FF47A7130F0D9F943463C
S21400512032462946054815F01BFCDDE7194F0000FE
S214005130BE080400A8A604004D500000EB080400BA
S2140051401C17002058B101B1816202B1C26203B1DE
S2140051500363816AD0E90B23014815F001BC704750
S2140051601C0904002DE9F8430E4617461D46044662
S214005170002846D092220021063016F003FD224A6F
S214005180224B3046C4E9152343F273630022E365DD
S214005190114626806780A58030F07AF90022A0713B
S2140051A01146384630F074F900224FF001081146D7
S2140051B0E071284630F017F9284630F033F984F8C5
S2140051C03C8030F08EF9124B04F16009C4E91834C3
S2140051D0206284F88980484601F0F0F90D4B3A4683
S2140051E03146C4E923340C482B4684F8948015F0E5
S2140051F0B7FB484641F2883130F06AF90020BDE836
S214005200F8834FF0FF30FAE7305C020076CF0100FB
S21400521007500300C0A604004109040058B101B1BC
S214005220416502B1826503B1C365416DD0E91623BD
S214005230014815F095BB70477509040013B5C8B151
S214005240C2B1012910D0022911D099B9836C54300B
S21400525083B11404B4FBF3F404600848009415F01A
S2140052607FFB002002B010BDC36C5830F0E7036D22
S2140052705C30EDE74FF0FF30F4E700BF9B09040019
S21400528070B5044600F13C0680F83B1030460D46EB
S21400529030F023F9238F1BB194F83A30AB4205D196
S2140052A029462046BDE870402FF022BF054B304609
S2140052B0C4E90F3401F082F93046BDE8704014218D
S2140052C030F006B91951030070B51E4683880446AF
S2140052D00D46C18002810BB1868070BD3C3030F037
S2140052E0FCF894F83430BBB194F83610002908BFA7
S2140052F0FF2120462FF0FCFE0123E370074BA6801B
S214005300C4E903340C34204601F058F929462046F7
S214005310BDE8704030F0DCB8FF21EAE787510300B3
S21400532010B501790446B1FA81F1008849092FF0D9
S214005330D6FF21796088B1FA81F149092FF0CFFFB5
S214005340034B1A68A24204BF00221A6010BD00BFB9
S2140053502017002070B543790446A3B100880E4E8E
S21400536004F10805336813B10C4B1B786BB1217937
S2140053702FF0B5FF64210A4B3460A3602846BDE8D1
S214005380704030F0A5B84088E9E7064815F0E8FA1E
S214005390054B3221A360F1E720170020846100202E
S2140053A021530000D80904005553000010B50446E8
S2140053B0E0B10F4815F0D4FA01236371A37953B90D
S2140053C0217920882FF08BFF236B7BB1606B012146
S2140053D0BDE8104018472046FFF7A2FF04F108007A
S2140053E030F07BF82046FFF7B5FFEDE710BD00BFB5
S2140053F00E0A040010B50446F8B1104815F0B0FACD
S21400540000236371A3796BB921792088B1FA81F101
S21400541049092FF064FF236B7BB1606B0021BDE868
S214005420104018472046FFF77BFF04F1080030F0D5
S21400543054F82046FFF78EFFEDE710BD190A04006A
S21400544010B5044668B1074815F08AFA6379204615
S2140054501BB1BDE81040FFF7CDBFBDE81040FFF719
S214005460A5BF10BD250A040010B50E4C0E482146F7
S21400547015F076FA82210D4815F072FA8221022084
S214005480A21E01F055F8014630B134F8022C084847
S214005490BDE8104015F064BA0648BDE8104015F0A7
S2140054A05FBA00BF1A5A0020340A04004F0A0400EC
S2140054B05A0A04009E0A040038B5124C822122467D
S2140054C0022001F025F8A51C014698B122880E4856
S2140054D015F046FA2A460D4B03F1200153F8040B4B
S2140054E08B4242F8040BF9D119889B78118093708F
S2140054F02223238035F8021C054A0648BDE83840BA
S21400550015F02EBA185A0020A90A0400290B040028
S2140055101A5A0020070B0400034B1B781BB18B4262
S21400552001D82FF0CBBF70478371002010B504461A
S21400553001460E4815F014FA012C11D10C4B0D48FB
S2140055401A884FF6FF739A421EBF0022094B5A7400
S2140055502FF0ABFE02F096FABDE8104002F03AB922
S2140055600448BDE810402FF0A2BE00BF4C0B04005C
S21400557034710020A06B002070B500241A4D1B4E1D
S2140055803378A3421BDC0024194D1A4E3378A3420D
S2140055901BDC0024184D194E3378A3421BDC01F0A7
S2140055A053F9012816481CD12FF07FFE02F06AFA44
S2140055B002F010F9BDE87040124801F065B92846BF
S2140055C0FFF714FC01346035DAE728462FF02AFE90
S2140055D001346435DAE728462FF086FE0134383584
S2140055E0DAE72FF064FEE5E7002500208A61002058
S2140055F0202900208B610020D02200208961002015
S214005600A06B00202D5500002DE9F04F87B0FFF766
S21400561053FFB94B05A805932FF0A4FE054616F0D8
S214005620ADF9B64CC2B21F2A627004D9B44815F060
S21400563097F900F0ABFD2946A01C16F033FC05A830
S2140056402FF090FE054616F099F9C2B21F2A84F88C
S214005650212001D9AB48EAE7294604F1220016F0DA
S21400566021FC05A82FF07EFE3225824600269AF8F9
S2140056700040002C40F0CC80A34DFFF77DFF2B7838
S214005680DFF8CCB2DFF8CCA2A04E00939BF8003037
S2140056909AF8002031789E4815F062F932789AF828
S2140056A000109BF80000531803449A4F28782546AC
S2140056B003443846DBB2A24200F34D84012B38BFC8
S2140056C00123DFF8588202934246002345464FF4F2
S2140056D082714FF6FF740298013383421370518033
S2140056E0948002F10C02F6DB8B4B8C498348AB604E
S2140056F001F0E8F9E879AB6800EB400003EB8000C6
S21400570000F050FFEB790133EB71854B1B88A34209
S21400571003D08249834801F025FB4FF000097E4CF8
S21400572033784B4500F321847F4B1B785BB17F4B6E
S2140057301B78012B07D179497D4801F0C1FD7749D7
S2140057407C4801F059FF00274FF00C087A4BDFF831
S214005750CC919AF800203178BA4200F31C8402EB10
S21400576001080C21002701FB08919BF800009423F8
S214005770B842724A00F32E8437780C269AF8003026
S2140057804FF000081F44074406FB07964FF07009C9
S214005790DFF8C4A15C4B1B78434500F33084624EAF
S2140057A0624C337883B1217801290DD90C27013951
S2140057B007FB01515E4801F083FD21785D48013901
S2140057C007FB015101F018FF0299544800F07CFFD6
S2140057D040F2055240F604312078367800F056FF45
S2140057E00022054640F20271207800F04FFF29465D
S2140057F00246304601F0D4F8059B3F491A468B42D4
S21400580040F013844E4807B0BDE8F04F15F0A8B836
S214005810532C11D19AF801304C2B40F05A819AF84B
S2140058200230502B40F055810122464B1A7005A8D5
S2140058302FF098FD82461AE7442C15D19AF80130CD
S214005840303B092BF3D80AF101002FF098FD3E4BB0
S2140058503E4A1978002385B2994202F16002E6DDDD
S21400586022F8465C0133F7E7422C0ED19AF8013055
S214005870542B40F08C800AF1020000F031FE284BD9
S214005880188018462FF0B7FAD1E7582C66D8412C66
S214005890CDD9433C152CCAD801A353F824F000BF39
S2140058A0D15C00002F580000675D00002F580000F4
S2140058B02F5800002F580000215A00002F580000D3
S2140058C02F580000D1590000735900002F580000CF
S2140058D02F5800002F5800002F5800005B5B000078
S2140058E0D35A00002F5800002F5800002F580000F1
S2140058F02F580000E35B00001A5A00209C6A002024
S2140059006B0B0400820B0400856100208861002078
S214005910130C040024200020381A0020C019002090
S214005920347100202417002083610020827100203B
S2140059307417002008100020C41E0020081D002038
S214005940630C0400846100208A610020002500208A
S2140059508661002087610020B81B0020692C7FF438
S21400596066AF0AF101002FF00AFD80B22FF09EFD0F
S2140059705DE7C84B012019780023C74A994202F117
S214005980A8027FF754AF02F8A60C0133F6E70AF137
S214005990010000F0A5FD04460AF103002FF067FDA4
S2140059A00121024620462FF01EFD6021BB48BC4F59
S2140059B0037859437A187C524FF4FA6111824FF4F7
S2140059C048715161B74901335583116503702EE75D
S2140059D00AF1010000F084FD00224FF064088146C1
S2140059E0B14F11462FF0FFFCB04C3E780AF1030190
S2140059F008FB06F306FB0846304624F803902FF013
S214005A0097FC304601262FF00DFC00213B78A84A73
S214005A1003FB084433441460516016743B7006E779
S214005A200AF1010000F05CFD00224FF06408814698
S214005A309D4C11462FF0D7FC9C4F23780AF10301AA
S214005A4008FB03F203FB0878404627F802902FF085
S214005A506FFC40462FF0E6FB964A00231046116D79
S214005A6039BB582202FB03006423227802FB03732F
S214005A700365894A00231046D2F8A410F9B9A82273
S214005A8002FB03006423227802FB0373C0F8A430F1
S214005A905EB9874A3346114652F8040BA8B9642209
S214005AA0207800FB027241F823202378013323700C
S214005AB0BDE60133042B02F15802D0D1D9E70133F9
S214005AC0042B02F1A802D7D1E2E70133042BE3D17D
S214005AD0EBE70AF1010000F003FD07460AF10300B8
S214005AE02FF0C5FC0121024638462FF07CFC6021D1
S214005AF06A486B4C0278DFF89CC1514363186752C2
S214005B004FF44871198259616B495D8399659AF81B
S214005B100310A827642904BF012199709CF800305F
S214005B20DFF874E15F430EEB07010EF807304FF421
S214005B3000774F8003270F718F7102EB420704EB4B
S214005B4047148C6032240133DBB201324B7181F88A
S214005B50A04002708CF8003069E60AF1010000F0FF
S214005B60BFFC00224FF0380B80464FF00109534F20
S214005B7011462FF038FC3B78514C0BFB03F3E21830
S214005B8024F8038082F804909AF80330692B15D124
S214005B900023137158224B4946480B785A4300EBB2
S214005BA0020C835438780133C0EBC00204EBC20405
S214005BB0421CCCF84C403A700B7038E6002BE9D00B
S214005BC00AF1030000F08CFC0022804611462FF0FC
S214005BD00AFC3B780BFB0343A3F8028083F806908D
S214005BE0D8E70AF1010000F07BFC07460AF1030043
S214005BF000F076FC04460AF105002FF038FC8046DB
S214005C000246012138462FF0EEFB4246204601218F
S214005C102FF0E9FB6020DFF884E0214A9EF8003090
S214005C20DFF8948000FB03FC02EB0C0122F80C70FA
S214005C304FF4487C4D83A1F810C0C1F814C0C1F8D9
S214005C405880591CC9B24843145294241718A7F810
S214005C5010C0C7F814C07D83C7F858801A4F981C28
S214005C608EF800003878DFF864C0444303EB430343
S214005C7001EB41010CEB040E02EB431302EB411265
S214005C800CF80400CEF80430CEF808200130387046
S214005C90CDE500BF88610020242000208A61002016
S214005CA0002500201B5303008B61002020290020C4
S214005CB0A06B0020C41E002019550000896100203A
S214005CC0D02200208761002086610020081D002069
S214005CD00AF1010000F004FC80460AF1030000F01F
S214005CE0FFFB00220746114640462FF07CFB0022B1
S214005CF03824114638462FF076FBD148D14A03782F
S214005D004FF0000E04FB03FC22F80C804FF0010855
S214005D1002EB0C0181F806E081F8048003EB080131
S214005D20C9B24C4302EB040C17539C1C047070243D
S214005D30C54F8CF806E038788CF804804443DFF8CA
S214005D4038C3C3EBC303C1EBC1010CEB040E02EB7B
S214005D50C30302EBC1020CF80400CEF80430CEF800
S214005D600820404493E79AF80130502B75D15146ED
S214005D70B64814F0F5FD0AF1020000F0B1FB074644
S214005D800AF1040000F0ACFB80460AF1060000F0C1
S214005D90A7FB4FF6FF739F4281463FF448AD9845F8
S214005DA03FF445AD98423FF442AD0346424639467D
S214005DB0A748FFF7D7F9044600287FF438AD0AF164
S214005DC0080A562150462FF0AAFA41210290504662
S214005DD02FF0A5FA5721834650462FF0A0FA029BD3
S214005DE082461A78562A03D1581C2FF0C8FA044661
S214005DF09BF80030412B2BD10BF101002FF0BFFA9E
S214005E0083469AF80030572B25D10AF101002FF06F
S214005E10B6FA03465A4621468D48FFF7FFF98C48E6
S214005E202FF05DF98B4C014620608B4801F00AFA92
S214005E3021688A482FF081FD0123894A394613706C
S214005E40884A894813704B46424614F089FDEEE4B2
S214005E504FF0000BD5E70023DCE7422B7FF4E7ACDE
S214005E6051467A4814F07CFD0AF1020000F038FB37
S214005E7007460AF1040000F033FB4FF6FF739F421B
S214005E8080463FF4D4AC98423FF4D1AC0AF1060AFF
S214005E90532150462FF043FA03788B4253D10130FA
S214005EA02FF06DFA0346424639467048FFF7F0F881
S214005EB0044600287FF4BBAC562150462FF02FFA3C
S214005EC04121834650462FF02AFA572181465046F4
S214005ED02FF025FA9BF800308246562B04D10BF1A2
S214005EE001002FF04CFA044699F80030412B2DD1D2
S214005EF009F101002FF043FA81469AF80030572B3B
S214005F0027D10AF101002FF03AFA03464A46214605
S214005F105648FFF717F955482FF028F84D4C01461C
S214005F2020604D4801F08EF921684C482FF005FDA1
S214005F3001234B4A394613704A4A4D48137042466D
S214005F4014F00EFD73E44FF49653ACE74FF00009DF
S214005F50D3E70023DAE790F805C001348C4584BF08
S214005F6005714571A830FFF7A6BBB9F1000F07D041
S214005F7018F8053C03EB430304EB8304C8F8084019
S214005F804146384601F05CFF09F10109A83708F1DF
S214005F900C08FFF7C5BB79180AD04A1E08FB029208
S214005FA0D27902EB420204EB820408FB0192946071
S214005FB0184608FB0151039301F0C8FC31782D48C0
S214005FC0394408FB015101F0D9FA039B01375833D5
S214005FD0FFF7BFBB17EB080F18BF11F8050C0391AE
S214005FE01EBF00EB400004EB80048C6003FB072020
S214005FF001F07CF8039901370C31FFF7B6BB18EBBC
S214006000070F18BF16F8053C31461CBF03EB4303C9
S21400601004EB830409FB08A018BFB46000F03CFF43
S21400602008F101080C36FFF7B5BB13F8011D00296F
S2140060307FF4E3AB3B2102F8011CFFF7DEBB00BF99
S21400604089610020D022002085610020920B040088
S214006050281900207018002074170020081000204F
S2140060608361002082710020C00B04007418002099
S214006070EF0B0400C4220020B81B002008B5094B13
S2140060801B786BB108482FF038FC07482FF054FCFB
S214006090064801F03DFBBDE8084004482FF05FBC11
S2140060A008BD00BF83610020741700200810002080
S2140060B0034B1B7813B103482FF019B8704700BF85
S2140060C0836100202819002007B5012121200DF149
S2140060D0070200F01DFA18B99DF80720024B1A7047
S2140060E003B05DF804FB00BF8371002007B5064BC4
S2140060F08DF80700187001210DF10702212000F02D
S21400610017FA03B05DF804FB8371002007B502217F
S21400611001200DF1060200F0FBF938B9044814F02E
S2140061201FFCBDF8060003B05DF804FB0020FAE78C
S214006130800C040007B50221ADF806000DF106023A
S214006140012000F0F5F9014610B1034814F008FCF0
S21400615003B05DF804FB00BFA10C040010B5FFF708
S214006160D5FF04460146074814F0FAFB012106480D
S21400617014F0F6FB24B9BDE810400120FFF7DABFA3
S21400618010BD00BFD10C0400E30C040008B50448A1
S21400619014F0E6FB00F0DCF92FF090F92FF08BF905
S2140061A0F90C040038B50446084D094B28462B6008
S2140061B000F004FA002C18BF21462846BDE83840F7
S2140061C008BF4FF496712FF083B900BF142B002040
S2140061D09D5303002DE9F043384D91B008AC0746B7
S2140061E0894690460FCD0FC495E80F00002684E838
S2140061F00F0001250323324C3248CDE90366CDE972
S21400620005668DF80E30079602953AF089F82E4806
S2140062103AF086F832462D4920468DF8176004F08D
S21400622037FF334632462A498DF81900009020463B
S2140062308DF82390CDF82C808DF8216004F042FF75
S2140062400A9020468DF8097004F0A4FE204608AA9D
S21400625005A904F05DFF02AA204603A930F09BFAC8
S2140062604FF400721B4B5A62194BE560626A920546
S21400627010D46BB94FF40072164B11485A6204F0F2
S21400628089FE11483AF04FF8002011B0BDE8F083BF
S214006290013BEBE7002BEDD0094908A830F0AEFA39
S2140062A04FF400720B4B06485A6204F073FE064821
S2140062B03AF039F8BDF82000E7E700BFD8A604009A
S2140062C00040005A70A904006CA9040080841E00D7
S2140062D040420F000060005A0122034B1870034B27
S2140062E01980034B1A7070478D6100203C710020A6
S2140062F08C610020F8B5454B1B780BB90020F8BD23
S214006300434B1B78012B03D1BDE8F8402FF049B86A
S214006310404B1C884FF6FF739C42EFD03E4839F046
S214006320FFFF0023260AE4B21A462146304604F050
S214006330F1FD012E354604F0010335D015D9B51E02
S214006340012DDBD8002B0BBF4FF480754FF0807506
S2140063504FF470614FF070610BBF01274FF4803728
S2140063600F204FF470202D4B11E0002B0BBF4FF485
S21400637080754FF080754FF470614FF070610BBF01
S21400638001274FF480370F204FF47020244B1A68F3
S21400639002401CD0BA421AD01A680A4032D11A6893
S2140063A022EA01022A4316E0002B0BBF4FF4807549
S2140063B04FF080754FF470614FF070610BBF01278E
S2140063C04FF480370F204FF47020164BDFE71A6823
S2140063D022EA00023A431A602EF0E3FF0546002840
S2140063E08CD0083644EA06102A460321C0B2FFF7CE
S2140063F0F1FE40F6FF73684300F2FF70B0FBF3F067
S21400640080B27CE795427FF479AFC8E78C610020C4
S2140064108D6100203C71002070A9040028C3035041
S21400642020C3035024C3035010B5044C237823B96B
S214006430034839F075FF0123237010BD8F610020DB
S21400644070A904002DE9F0431F4C85B00746884626
S2140064509146FFF7E9FF23781BB902F00BFA0123F8
S21400646023707BBAADF80C3030220023174E02FBA7
S21400647003F4315DA51901BB012333554FF0FF33FB
S21400648004F1100012493044AB606F80C5F80480F8
S214006490C5F80C9009F080FC04F108010422314490
S2140064A00C4B009503A802F0BBFAA96802460A48FE
S2140064B014F056FA05B0BDE8F0830133102BD6D1A0
S2140064C0064814F04DFAF5E78E6100203C2B0020BC
S2140064D0C7530300D9530300060D0400340D04000F
S2140064E080B10278A2F14103032B0BD840783038F4
S2140064F0C0B2082806D8054B134413F8413C40EABE
S214006500032070474FF6FF70704700BFF8A60400E0
S21400651008B50B4642B101460448006803F0C4FBC8
S214006520BDE808402EF0BCBF022008BD0C6C002061
S21400653008B50B4642B101460448006803F03CFD2E
S214006540BDE808402EF0ACBF022008BD0C6C002051
S214006550F0B50026124F8DB0FF2300930A22334673
S214006560386802A92FF0D4FEC0B102AB1D4603EB7B
S214006570800404E055F8043BB34228BF5E1CAC42DE
S2140065803868E9D9296803F09DFE0028F2D02D2846
S214006590F0D00DB0BDE8F0402EF082BF0DB0F0BDDB
S2140065A00C6C002028B1034B0360034B43600023B0
S2140065B08360704719000003B46B0020FF2307B503
S2140065C00021044A0093083009F06AFB03B05DF826
S2140065D004FB00BFCB5403000B4604490246086880
S2140065E00349097808B12EF087BF7047482E00206F
S2140065F091610020F7B50C4618B12F21194839F0E3
S214006600E6FE246823685E795F8830463946FFF7E1
S214006610E3FFF0B18568E5B1A089227D3946904256
S21400662091BF0020801AA36880B294BF03469B18CF
S214006630E27C00903046A8470138032803D8DFE8FC
S21400664000F0080F0B0D0024204633F0D1F9204649
S21400665000E0812003B0F0BD8024F5E79324F3E743
S2140066608724F1E75C0D040007B50B460092054948
S21400667002460548097800682EF060FF03B05DF812
S21400668004FB00BF91610020482E002007B50B4692
S2140066900092064902460648097800682EF04EFF2A
S2140066A0003818BF012003B05DF804FB916100209C
S2140066B0482E002008B5034B1B6803B198470020FE
S2140066C008BD00BF442E00202DE9F74F04460D46B6
S2140066D00026454B454F1860454B19703301002185
S2140066E0F85C013610F032F90C2EF7D10C2D28BFCD
S2140066F00C254FF0000901953C4EDFF800A13D4DFA
S214006700DFF8FC80019B4B4502DC03B0BDE8F08F50
S21400671023784FF0000B337063887380A388B380B0
S214006720A379C6F80880B371E379C8F8005088F8F2
S21400673004304FF00003A768A8F80630E3795B45FD
S2140067400ADC012116F8100B10F000F908F1080811
S21400675009F101090C34D5E74FF0000338886B8146
S2140067602880FB784FF0000C2B81BA78C5F804A07F
S214006770002A00920CBF802240222A7379680AF110
S2140067800C02634513DC03EB43030AEB830ABB6886
S21400679043B1009A4FF6FF71B2FA82F2164B5209D5
S2140067A033F0B6F814350BF1010B0C37C6E7B1F829
S2140067B000E00CF1010C22F80CEC91F802E00C322F
S2140067C002F816EC91F804E00C3102F815EC11F81A
S2140067D009ECBEF1010F14BF4FF0100E4FF0110E72
S2140067E002F814ECCDE700BF482E00201C45002020
S2140067F0916100204C340020F56500004C2E0020EE
S214006800CC360020014B1860704700BF402E002099
S21400681070B5128805460E46FFF726FF044670B18F
S21400682002790499806815F0FFF9064B1B680BB9CE
S214006830002070BD3146284622889847F8E7862013
S214006840F7E700BF402E002008B50FF01BF902281E
S21400685006D0012806D0044B18784000C0B208BD08
S2140068600120FCE70220FAE790610020054B10B5F6
S2140068701C682CB1FFF7E8FF2346BDE81040184718
S21400688010BD00BF3C2E0020014B1860704700BFB3
S2140068903C2E0020034B1A781AB901221A700BF00E
S2140068A0F7B87047906100200022024B1A70FFF77D
S2140068B0DDBF00BF9061002037B50446002832D007
S2140068C00FF0E0F8022830D1608933F00EFCE07952
S2140068D0237A003818BF0120012B637A08BF40F0E6
S2140068E008000BB140F0100063890BB140F00400C3
S2140068F0257CA188A2790DB1E36873B90C4B10F022
S21400690001FC2178084610F079FC32F0FAFE0028E7
S21400691014BF0320002003B030BDCDE90035054B81
S21400692010F0F0FBEDE70220F5E70120F3E700BFEB
S214006930295D0400D82B040008B50DF007FA0146BF
S21400694030B1044814F00CF8BDE808400DF0A2BDC4
S21400695008BD00BFEA0D0400024B187C00B11868A1
S214006960704700BFA06B002070B50C4D01232C466D
S21400697015F8016F864204D00133D618252EF7D9B4
S21400698070BD23440A24B1FBF4F004FB101130312F
S2140069909954013A0146F6D1F2E700BF847100200F
S2140069A030B5C0B100290CBF30203120002A0CBF02
S2140069B03024312425220023084911F8015F3F2D99
S2140069C006D1002B14BF2546054601330D70DBB2F9
S2140069D0013AF2D130BD2D200446EBE78471002049
S2140069E0034B044A5B7C012103201370FFF7A0BD14
S2140069F0A06B00209261002037B50446FFF7F0FF39
S214006A00B4F57F4F27D10025204B1A8813449D707C
S214006A10FEF72AFD2846FFF7C5FB1D4D2A68C2B1C2
S214006A20FFF79AFFA8B14FF605739C4224D192F85F
S214006A3041102EF016FC2B680421B3F8422093F880
S214006A4041303220ADF8062001AA8DF80430FFF759
S214006A506FFD03B030BD4FF601739C4203D10D4865
S214006A602EF00BFCD9E74FF602739C42D5D10A4BA9
S214006A701878FFF73BFBD0E74FF606739C42E8D149
S214006A80B2F842102EF0F7FBD5E700BF185A0020E8
S214006A902C370020A06B00208371002010B5074C17
S214006AA0012122460320FFF733FD28B92378044A44
S214006AB0003B18BF0123537410BD00BF9261002035
S214006AC0A06B00207A4BF7B51A884FF6FF739A42F0
S214006AD018BF03234FF008020D467649044618BF38
S214006AE00B70754B36201A7030229A705A71DA7114
S214006AF03322187137201A724FF4001298716F48BB
S214006B006264E0646E48012220656E483227A06504
S214006B106D48A618E0656D48E66760666C486D4E81
S214006B20A0666D485F7020676C48DF706067202045
S214006B3084F8780084F8840004F12100C4F8880002
S214006B406748C4F8806084F8482084F8542084F8A5
S214006B50602084F86C20C4F88C0084F89020C4F878
S214006B609410C4F8B8305F4B5F49C4F8BC300223B9
S214006B70C4F898105D4984F8C030C4F8A4102621E3
S214006B805B4B84F8A810C4F8C4305A4B5A49C4F872
S214006B90C8308223C4F8AC10584984F8CC30C4F806
S214006BA0B0100921564B574EC4F8D030564B84F8D7
S214006BB09C20C4F8D430554BC4F8A040C4F8DC3050
S214006BC0337C84F8B41084F8D820002B6AD0504B5D
S214006BD084F8E420C4F8E03006F11103C4F8E83085
S214006BE0FFF7BAFE90F83430002B5DD090F83630C0
S214006BF0042184F84130FFF7AFFE038F01AA384620
S214006C00A4F84230FFF784FC38B99DF8043084F8C5
S214006C104130BDF80630A4F84230FFF79DFE94F8E8
S214006C2041102EF01EFBFFF797FEB4F842102EF030
S214006C3022FB384B10211C60374BC4F8EC30012384
S214006C4084F8F03004F14103C4F8F430334BC4F850
S214006C50F830022384F8FC3004F14203C4F8003113
S214006C604FF0000CEA79A86802EB42039F0000EBA5
S214006C70830320F807C0D9700121443499705C6002
S214006C805318EB71FFF720FAFFF708FFFFF7DCFD5C
S214006C9001280BD1337C4BB11A4803B0BDE8F04055
S214006CA02EF0EBBA0D21DBE70E21D9E703B0F0BDDD
S214006CB034710020AA7100209361002001A704000F
S214006CC00100200000A7040002002000FFA6040028
S214006CD00300200005004200FEA604000400420057
S214006CE007003000FDFF21001200100100404200A6
S214006CF0FCA6040000FF4401847100200600420048
S214006D00185A0020A06B002002FF2001837100208B
S214006D1001FF10012C37002005FF200106FF21018E
S214006D2013B504460D482EF071F86422C0F30F43E5
S214006D30637083B2B3FBF2F3A078237020220121A4
S214006D402EF017FCA078212201212EF012FC044917
S214006D50201D02B0BDE810402EF0BABB34710020F2
S214006D60E09304000B7870B583704CF61E03038026
S214006D704FF02013C362012380F8303080F83C3097
S214006D80C3180364124B044643640223114A80F876
S214006D904830114B8263C3644063CA798D6802EB46
S214006DA0420305EB830004F12C0646600B4E45F8C3
S214006DB0236000238360531CCB71094B201DC4E95C
S214006DC00134FFF7FBFB2046BDE87040FFF7A8BF85
S214006DD0FDFF21002100200002A70400010001039E
S214006DE0216D0000437B044A0121137000781130A6
S214006DF0C0B2FFF79DBB00BF9D61002038B50446BA
S214006E000078054D11302A460121C0B2FFF780FBFD
S214006E1008B92B78637338BD9D610020024B53F888
S214006E2020002EF09ABC00BF30370020012908B59C
S214006E3006D0022907D049B92EF086FC002008BDEE
S214006E402EF085FCFAE72EF085FCF7E7024813F0F3
S214006E5087FD0120F3E700BF170E040010B4054CB1
S214006E60114654F820001A46BDF804305DF8044B6D
S214006E70FFF7DCBF30370020002310B504468381BF
S214006E800364A0F844304830FFF798FB014BC4E990
S214006E90123410BD4157030038B504460B781A4A21
S214006EA043700D4642F82300FFF7E6FF2046FFF743
S214006EB0A5FF4FF4401323610123144A2375A261F2
S214006EC0134A84F82030E261124A84F82C30626259
S214006ED0114A84F83830A26204F10C0222630F4A89
S214006EE004F10D036263E363EA79A86802EB4203E8
S214006EF000EB830110344C60094C40F82340094BEA
S214006F008B60531CEB7138BD303700209C6100202D
S214006F1008002000AB71002000FF300001FF1001C8
S214006F20020101045D6E000010B47024427B0D481F
S214006F30013A012904FB020006D0022908D059B9FB
S214006F405DF8044B2EF000BC5DF8044B2EF0FFBB42
S214006F505DF8044B2EF0FEBB03485DF8044B13F0BF
S214006F60FFBC00BFB81B0020330E0400B0F85C3036
S214006F702DE9F0418B4204460E4638D0437B077C11
S214006F808BB31C4A12789A422DD370251A4A013BBD
S214006F9005FB032390F80F801B7B42462EF0EBFB8D
S214006FA0B845054601D1FF281FD13A46314620464E
S214006FB094F890302EF0DFFB2F460546552212211E
S214006FC06078A4F85C602EF0D4FAFF2F03D0394620
S214006FD02046FFF7A9FFFF2D09D029462046BDE829
S214006FE0F0412EF008BCFF25DFE70746E6E7BDE8E0
S214006FF0F08100BF85610020B81B002041688268D0
S214007000C978D27849B112B10321FFF7AFBF837BAD
S214007010002B0CBF01210221F7E72AB1837B002B4E
S2140070200CBF02210121F0E7014813F099BC00BF14
S214007030440E0400037BD3B14368DA7812B1826849
S214007040D278A2B91B7933B1837B002B0CBF042105
S2140070500521FFF78BBF83681B792BB1837B002B41
S2140070600CBF05210421F4E7014813F079BC7047F2
S214007070760E0400084A437B05211370837B537009
S214007080C37B9370037CD370037B137100780E3040
S214007090C0B2FFF74DBA00BF9E61002038B5044667
S2140070A000780C4D0E302A460521C0B2FFF730FAA4
S2140070B020B1BDE83840084813F052BC2B78637303
S2140070C06B78A373AB78E373EB7823742B79237315
S2140070D038BD00BF9E610020B20E0400024B53F87C
S2140070E020002EF0D2BB00BF58370020F8B504466B
S2140070F00B78424A43700D4642F82300404E2EF06D
S214007100E2FBFFF7CBFF6268A3683E483E49D664C1
S2140071101165D4655065C3E91410DE64DC654FF074
S214007120987302266361012304F10C01E16137497B
S2140071301032216204F10D01A16235492376E16225
S21400714004F10E016163334984F82430A16304F12D
S2140071500F012164304984F83030616404F1100175
S214007160E1642E4984F83C3084F84830216584F880
S2140071705460A265E879A96800EB400201EB82073B
S21400718004F1140CC7F804C04FF4817C244F41F876
S2140071902270C218D2B202EB420241F822C001EBC2
S2140071A0820700227A601F4A84F8703022661E4AE0
S2140071B084F88830A2661D4A1D4BE2661D4AC4F854
S2140071C08C3062671C4A8319A26704F15C02C4F81B
S2140071D08020DBB2194A03EB4303C4F8842084F80A
S2140071E0646084F87C6001EB830260345460144A67
S2140071F0033041F82320E871F8BD00BF583700205F
S214007200FD6F00004D58030035700000010020019E
S21400721002001001030030010400300105002101C6
S21400722001FC01064A00210004A7040051001000DA
S21400723006A7040007A70400550021006F001800E9
S2140072401200010438B50D46044678B171B1FC222F
S214007250002114F097FC0923A3600123044A65600B
S214007260626102F561726382A261A38338BD00BFCA
S214007270640001001FB50446E0B14368D3B16A4616
S21400728010212C20FFF744F9A0B90B4B009A9A4224
S21400729010D1606840B1036833B15C6924B1DDE9A0
S2140072A0022301994068A047DDE9022301990348BB
S2140072B013F056FB04B010BD43574C48E10E0400D3
S2140072C0F0B4002800F09F80002900F09C804FF466
S2140072D0D812026300F1080282634C4A0424C26397
S2140072E0022200F10C054564494D80F8344085645F
S2140072F000F10E050565474D80F84020456500F114
S2140073001005C565444D80F84C20056600F1120551
S2140073108566424D80F85820C56600F1140545671D
S2140073203F4D80F86420856700F11605C0F8805050
S2140073303C4D80F87020C0F8845000F11805C0F865
S2140073408C50394D80F87C20C0F8905000F11A051A
S214007350C0F89850354D80F88820C0F89C5000F151
S2140073601C05C0F8A450324D80F89420C0F8A850F0
S21400737000F1200580F8A02080F8AC40C0F8B0509E
S21400738080F8B84000F12404C0F8BC40294C2A4DCF
S214007390C0F8C040012480F8C44000F12804C0F8BA
S2140073A0C840264C80F8D020C0F8CC4000F12A0413
S2140073B0C0F8D440224C80F8DC20C0F8D84000F159
S2140073C02C04C0F8E0401F4C80F8E82000F12E02A4
S2140073D0C0F8B450C0F8E440C0F8EC20CC798D6812
S2140073E004EB440205EB820600F130077760164E88
S2140073F045F82260621CCA710A78F0BC0270134A13
S2140074001060FFF737BFF0BC704700BF05052100CE
S214007410080521000B0529000006210001062100B1
S21400742002062100030621000406210005062100AD
S21400743000FF230002FF200001FF230010FF2101B0
S21400744011FF210112FF2101040B011080370020DB
S21400745030B5204B89B01C68002C2FD0237883428F
S2140074602CD1606850B34FF61173994228D04FF66E
S2140074701273994229D04FF6107399421ED10021FB
S214007480628D04F12A052EF02EFA00232B80A8B96F
S214007490636833B11A6822B1126912B1586801A93B
S2140074A090470D4B10210493019B2C200593029BC3
S2140074B004AA0693039B0793FFF73AF809B030BD7A
S2140074C00121A28D04F12C05DDE70221E28D04F1F5
S2140074D02E05D8E78037002043574C4870B50D4638
S2140074E00646144613460A460146204813F038FA64
S2140074F025B92046BDE87040FFF77EBA072D05D1B6
S21400750021463046BDE8704000F05EBC4FF60143B1
S2140075109D4205D121463046BDE87040FFF7DEBDEE
S214007520062D05D121463046BDE8704000F0C8B9AA
S214007530B5F5817F05D121463046BDE87040FFF79E
S2140075406DBC40F202739D4205D121463046BDE82F
S214007550704000F02FB940F604339D4205D1214615
S2140075603046BDE87040FFF773BF70BD110F0400D2
S2140075700148FFF747B900BFDD7400004FF4C013A1
S21400758030B5036001230371074B8C688360CA79AA
S21400759002EB420304EB83056860044844F82300CA
S2140075A0531CCB7130BD00BF08A7040004000101C6
S2140075B013B5044680B100786A4627300821C0B269
S2140075C0FEF7A6FF50B9DDE900230948C4E9022307
S2140075D0C4E9242313F0C4F902B010BD002200232E
S2140075E00448C4E90223C4E9242313F0B9F9F3E7F5
S2140075F0440F04006F0F040070B50D4604460028C3
S21400760058D0002956D00B7804F1200603702A4B78
S2140076101860FFF7CDFF4FF414132362082304F11C
S21400762010026263254A84F82430A26304F1110232
S2140076302264234AE31862640422A362214B84F87E
S2140076404820E362012384F8542004F11802A2655E
S2140076501D4A04F11401E26504F11C0262661B4A2D
S214007660E164A26604F11D0222671949194A84F8EA
S214007670303084F83C3084F8603084F86C3084F81D
S214007680783004F11E0321656267E367EA79A9682A
S21400769002EB420301EB830046600F4841F82300EB
S2140076A0531CEB712978D4E902230C48BDE87040DE
S2140076B013F056B970BD00BF8437002000033000B9
S2140076C00103220000021800030318000603180036
S2140076D00203220000F02001020701089D0F0400AB
S2140076E013B5044678B1D0E902230078CDE900232B
S2140076F027306A460821C0B2FEF71AFFD4E90223F3
S214007700024813F02DF902B010BD00BFCE0F0400E2
S21400771030B5044689B040B3436833B31A6822B123
S214007720126812B1586801A990479DF81030E3B16D
S2140077300399D4F880208A4207D8D4E902308A1AFE
S2140077409B1840F10000C4E90230C4F880102DF008
S214007750C8FED4F88430064AC31A9342054604D9B4
S2140077602046FFF7BDFFC4F8845009B030BD00BF07
S214007770DF93040010B50446C0B1002300220021A8
S214007780C0E90223C0E924234368C0F880102BB167
S2140077901A681AB152680AB1586890472046FFF72F
S2140077A09FFFBDE81040024813F0DAB810BD00BFD6
S2140077B0F60F0400B1F5704F034607D1044A10686F
S2140077C020B102789A4201D1FFF7D4BF704700BFBC
S2140077D08437002038B50024044D55F8040B08B152
S2140077E02EF0BEF801340A2CF7D138BD88370020B9
S2140077F0042908B50AD172B16BB113781BB92EF003
S214007800DAF8002008BD2EF0CCF8FAE7034813F0AB
S214007810A7F80120F6E70320F4E700BF17100400DE
S21400782010B4054C114654F820001A46BDF8043032
S2140078305DF8044BFFF7DCBF8837002002290246BC
S21400784008B50ED004D839B910462EF0B4F806E0C4
S2140078504029F9D0412907D110462EF0A2F8002081
S21400786008BD2EF0B2F8FAE7024813F079F80120C6
S214007870F6E700BF3710040010B4054C114654F864
S21400788020001A46BDF804305DF8044BFFF7D6BF5B
S21400789088370020C26C094B52791A7082785A7069
S2140078A0C2789A70026D12B190F85420DA7000789F
S2140078B004210930014AC0B2FEF73ABEA361002097
S2140078C0024B53F820002EF0C3B800BF88370020C4
S2140078D038B504460078084D09302A460421C0B25F
S2140078E0FEF716FE30B96B78A370AB78E370EB78D2
S2140078F084F8543038BD00BFA361002038B5044674
S2140079000078114D09302A460421C0B2FEF700FE69
S214007910C8B9A3782A78022B0CD004D863B92046BD
S2140079202EF049F801E0FF2B0AD02046BDE838408B
S2140079302EF016B8002AF2D120462EF032F8F4E7E0
S214007940002AF9D1EBE738BDA3610020F8B504465C
S2140079500B783D4A0D4642F823004370FFF7B8FF08
S214007960E36C3A4A5C631A632046FFF7C7FF20467B
S2140079702DF0F6FF4FF4801301266360E36C267249
S2140079800533E360324B26752361A31CA361236D88
S214007990002B54D02F4A84F82060E261E21C626219
S2140079A02D4A84F82C60A26204F15402226393F8F4
S2140079B03420002A45D093F83620204684F85520F7
S2140079C01B8FA4F856302EF00AF894F85510206D48
S2140079D02DF047FCB4F85610206D2DF04CFC1F4BD4
S2140079E084F83860636304F15503E3631C4B062692
S2140079F02364022384F8443004F15603A364062764
S214007A00EA79A96802EB420321F8237001EB8300B0
S214007A1001238370134B04348360531C4460DBB231
S214007A20114C03EB4303C67041F8234001EB83007F
S214007A30002343600D4B02328360EA71F8BD0226D4
S214007A40DDE70426DBE700BF883700202D5A030059
S214007A500340300101FF300102FF100103FF200147
S214007A6004FF210179780000080001002178000059
S214007A7028B1034B1B78834234BF00200120704797
S214007A808761002070B500250A4C0B4E3378AB4258
S214007A9000DC70BDD4F8A42042B123791BB1607914
S214007AA0FFF7E6FF10B910462DF0ACFB0135A83401
S214007AB0ECE700BF242000208861002008B542794A
S214007AC001461046FFF7D4FFB0B1CB7858210B48DB
S214007AD0013A042B01FB02000ED8012B08D81BB973
S214007AE0BDE808402DF05DBFBDE808402DF063BF3F
S214007AF0BDE808402DF069BF08BD00BFC41E0020C9
S214007B0008B5427901461046FFF7B2FFB0B1CB7810
S214007B1058210B48013A042B01FB02000ED8012B1A
S214007B2008D81BB9BDE808402DF045BFBDE80840A1
S214007B302DF037BFBDE808402DF047BF08BD00BF99
S214007B40C41E002010B586B00446FEF77DFE012850
S214007B5031D1E17804292ED8DFE801F0143335035B
S214007B60030062791046FFF783FF60B35820174B77
S214007B70013A00FB0233DB6C032958791DD100382B
S214007B8018BF012063784FF480728DF804304FF4EC
S214007B908273ADF806300623ADF8083001238DF861
S214007BA00B3000238DF80A0001A8CDE903238DF8D9
S214007BB01430FEF781FE06B010BDB0FA80F0400922
S214007BC0E0E70020DEE70220DCE700BFC41E00205E
S214007BD010B586B00446FEF737FE012831D1E278AC
S214007BE0042A2ED8DFE802F0141433030300617968
S214007BF00846FFF73DFF50B35820164B013900FBEF
S214007C000133DB6C032A5B791DD11A1E18BF0122D3
S214007C1063788DF80A208DF804304FF48273ADF83F
S214007C2006300623ADF8083001234FF480728DF835
S214007C300B30002301A8CDE903238DF81430FEF79E
S214007C403BFE06B010BDB3FA83F25209E0E702220B
S214007C50DEE700BFC41E002010B586B00446FEF75F
S214007C60F3FD012812D16378094A8DF804304FF4E9
S214007C708273ADF806304FF48073CDE902230023FB
S214007C8001A804938DF81430FEF716FE06B010BD5A
S214007C900800070110B586B00446FEF7D5FD01289A
S214007CA020D16278104B8DF804204FF4827294F83D
S214007CB0A01094F8A10059701870ADF8062004932F
S214007CC04FF480720223094901A88DF81430CDE9DB
S214007CD00212FEF7F1FD94F8A130013B18BF012314
S214007CE084F8A13006B010BDA76100200800050189
S214007CF010B5837804460BB30379022B0BD1427977
S214007D001046FFF7B5FE30B158200D4B013A00FB88
S214007D1002302DF05AFEA379022B02D12046FFF73F
S214007D2011FF2046FFF7B6FF02236078A4F86C30F8
S214007D305522BDE8104012212DF01BBC10BD00BF1F
S214007D40C41E00204388094A082113808388538074
S214007D5083681B8A938090F8A03093718379D371DF
S214007D6000780430C0B2FEF7E3BB00BF9A5A00208A
S214007D7038B50D4604460178114812F0F1FD4FF66D
S214007D8002739D420ED10F4B1B782BB963712046B0
S214007D90BDE83840FFF7D6BF62790AB19342F6D203
S214007DA00123F3E7B5F57F4FF1D120462DF0E7FE2E
S214007DB0A378022B0CBF01220022A3689A70E6E784
S214007DC05310040087610020024B53F82000FFF791
S214007DD0CFBF00BFB037002038B504460078144D3A
S214007DE004302A460821C0B2FEF792FB20B1BDE857
S214007DF03840104812F0B4BD2B8863806B88E97851
S214007E00A380AA88A3681A82AB7984F8A030EB799D
S214007E10A371094B1B780BB9637138BD09B1994240
S214007E20FBD9064812F09CFD23780133F4E700BF27
S214007E309A5A00206D1004008761002096100400F6
S214007E40F8B504460B78474A0D4642F823004370BF
S214007E50FFF7C2FFA268444BD465D364434B0226A7
S214007E605365434BA11C13654FF44013E360012395
S214007E706161E1623F49103221632265211D3E4A5D
S214007E80A1633E483E49626504F1A002A061E16339
S214007E90E265E01C611D3B4A206261643A483B494A
S214007EA02266A21D2374237784F8283084F83430A1
S214007EB084F84030A16484F84C6084F8583084F824
S214007EC064306062A266E879AA6800EB400102EBC3
S214007ED0810704F10C0CC7F804C04FF0060C2C4FB9
S214007EE042F82170C118C9B201EB410142F821C025
S214007EF002EB810700217960264F84F880302767DF
S214007F00254F84F89830A767244F254BE767254F01
S214007F1084F8746084F88C60C4F89C3004F16C06B5
S214007F20831CC4F88470C4F890601F4F1F4EDBB2E9
S214007F3003EB4303C4F89460C4F8887002EB83062E
S214007F407034746008261A4C42F82340C31CDBB217
S214007F5003EB430302EB8304043042F823606160C2
S214007F60E871F8BDB0370020D55A03001F5B030048
S214007F70F17C000001FF300104FF200110003001F9
S214007F8002FF200105FF300100FF300103FF210141
S214007F90070001084A0021000AA70400510010004B
S214007FA00CA704000DA70400550021006F00180060
S214007FB01200010400239B6AB3F5804F03D21968B0
S214007FC0064A914203D00023037083607047012263
S214007FD002709A689B694260F7E700BF07B0CD5E03
S214007FE0024B034A1A602FF0EEB900BF00000020D3
S214007FF002020FF073B53F4B04461A781AB10222FC
S2140080001A7002B070BDCDE900220028F9D0012612
S2140080101E7038F0E7F8384D384B186017F082FAC3
S2140080202B785BB902F0F2F940B935480823354A97
S2140080303549006801F038FE00B92E70334B5A6897
S214008040E260334A9A601A6E22605A6E6260D3F813
S2140080507021A2601B6E5C042CD52E4AD368D8070C
S214008060FCD42D4B1A68531C29D04FF48013934030
S2140080702A4A13660423294C4FF0804223664FF4A5
S21400808080632366102323664FF4005368462366F6
S21400809001A9226663662DF08AFD009B2366019B7C
S2140080A063662B78002BACD0164B1A6822665B688A
S2140080B06366A6E71A4AD368D907FCD4D1E7194BFA
S2140080C01B78002BD6D1184B5A68144B12B94FF4B4
S2140080D080121A66154A526812B94FF400121A66D0
S2140080E0134B5B68002BC5D14FF480020B4B1A660E
S2140080F0C0E700BFAA610020AB610020E83700207F
S2140081000C6C0020EC370020007108000080004452
S21400811055CEAC0000000440D86B00200090004410
S21400812000000450A96100200080055000C00550E2
S2140081300000065038B5224D04462B78012B02D09D
S21400814001232B7038BD0028FCD02DF055FD0130E2
S21400815009D02DF051FD40F20113984203D0194A80
S214008160D368DB07FCD42268174B1A6662685A6627
S214008170A268C3F87021E268D40744BF00229A6060
S214008180124B1A68013213D1114A127882B911497A
S2140081904968C80748BF1A600F4A5268D10744BFEB
S2140081A001221A600D4A5268D20744BF02221A60A2
S2140081B017F0C0F90A4B186838F00FF80023C0E72C
S2140081C0AA6100200000044000800044D86B002014
S2140081D0A96100200080055000C005500000065030
S2140081E0E837002070B50024A36AB3F5804F23D289
S2140081F01A68134B9A421FD1124E337813F0FD05BE
S21400820018D14FF480341048FFF7F4FE032004F032
S2140082104FFC0E4B0320DC6004F02EFC0C4B1C6164
S214008220AB6ADB69984704460748FFF783FF0CB93B
S21400823001233370204670BD4FF48174FAE700BF07
S21400824007B0CD5EA9610020D837002000A000440A
S2140082500090004413B5204B1B7803B9FEE70023BB
S2140082601E4CCDE900336A4608231D49206801F0FC
S2140082701BFDF8B91B4AD2F84031D2F840211F2B1B
S2140082804FF0010311D9203A9340019A1A43019204
S21400829008236A461249206801F08EFE124B134AE4
S2140082A01A602FF090F802B010BD9340009A1A435F
S2140082B00092EDE72D28F1D10A4AD2F84031D2F8E3
S2140082C040211F2B4FF0010385BF203A9340934077
S2140082D0019398BF0093DBE7AA6100200C6C002096
S2140082E00071080000800044000000200B020FF020
S2140082F038B50025AB6A0446B3F5804F10D21B6B29
S214008300B3F5804F0CD20748FFF774FEAB6A2046E1
S2140083101B6B5B689847BDE838400248FFF70ABF0A
S21400832038BD00BFF437002013B50024A36A0190BF
S214008330B3F5804F13D21B6BB3F5804F0FD20948AD
S214008340FFF758FEA36A01211B6B01A89B6998479B
S21400835004460448FFF7EEFE204602B010BD4FF478
S2140083608174F9E7F437002070B50026B36A044636
S214008370B3F5804F0D4612D21B6BB3F5804F0ED26D
S2140083800848FFF737FEB36A20461B6B29469B69F1
S214008390984704460348FFF7CDFE204670BD4FF4CD
S2140083A08174FAE7F437002070B50026B36A0446F5
S2140083B0B3F5804F0D4612D21B6BB3F5804F0ED22D
S2140083C00848FFF717FEB36A20461B6B2946DB6991
S2140083D0984704460348FFF7ADFE204670BD4FF4AD
S2140083E08174FAE7F4370020F8B50027BB6A044624
S2140083F0B3F5804F0D46164611D21B6B7BB109486C
S214008400FFF7F8FDBB6A20461B6B324629465B6ABF
S214008410984704460348FFF78DFE2046F8BD4FF404
S2140084200174FAE7F437002070B50026B36A0446F4
S214008430B3F5804F0D4612D21B6BB3F5804F0ED2AC
S2140084400848FFF7D7FDB36A20461B6B29469B6A90
S214008450984704460348FFF76DFE204670BD4FF46C
S2140084600174FAE7F4370020F0B50027BB6A04462B
S214008470B3F5804F0D461646ADF5337D20D21B6B07
S214008480B3F5804F1CD21048FFF7B4FDBB6A2046F8
S2140084901B6B40F2C1225B6A01A99847044630B1C3
S2140084A00948FFF747FE20460DF5337DF0BD836A89
S2140084B032461B6B2946DB6A01A898470446EFE75D
S2140084C04FF40174EFE700BFF437002010B5002426
S2140084D0A36AB3F5804F10D21B6BB3F5804F0CD256
S2140084E00748FFF787FDA36A1B6B1B6B984704467C
S2140084F00348FFF71FFE204610BD0124FBE700BF20
S214008500F4370020F0B58FB0044601A80E46154695
S214008510FFF7EEFE9DF80C30012B12D1B5F5402F7B
S21400852027D8B4F5402F24D86319B3F5402F20D8A8
S21400853021462A46304613F0B5FC002420460FB0EC
S214008540F0BD0027BB6AB3F5804F15D21B6BB3F5A1
S214008550804F11D20A48FFF74DFDBB6A2A461B6BB7
S214008560314620465B6B984704460548FFF7E2FD18
S214008570E4E740F20244E1E740F20114DEE700BF20
S214008580F4370020F0B58FB0044601A80E46154615
S214008590FFF7AEFE9DF80C30012B1FD1B5F5402F2E
S2140085A006D8B4F5402F03D86319B3F5402F13D976
S2140085B040F2024420460FB0F0BDE258013225D109
S2140085C004339D42F9D82A46314620462DF044FB16
S2140085D00028EDD00024EDE70023F2E70027BB6A71
S2140085E0B3F5804F15D21B6BB3F5804F11D20A48F6
S2140085F0FFF700FDBB6A2A461B6B314620469B6B85
S214008600984704460448FFF795FDD3E740F2034435
S214008610D0E740F20114CDE7F437002070B58EB0F5
S214008620044601A80D46FFF763FE9DF80C30012BAB
S21400863022D144EA0503C3F30C03002B33D1B5F56E
S214008640402F04D940F2024420460EB070BDB4F567
S214008650402FF7D82544B5F5402FF3D8204604F52B
S21400866000542DF0F2FAAC4202D00028F6D1E9E729
S2140086700028E7D00024E7E70026B36AB3F5804F6A
S21400868014D21B6BB3F5804F10D20A48FFF7B2FC2A
S214008690B36A29461B6B2046DB6B984704460548A1
S2140086A0FFF748FDD0E740F20444CDE740F201145E
S2140086B0CAE700BFF4370020BFF34F8F0549064BCB
S2140086C0CA6802F4E0621343CB60BFF34F8F00BF6B
S2140086D0FDE700BF00ED00E00400FA0570B5D0B17C
S2140086E0C9B10E4E431E013913F8014F2046325DC4
S2140086F002F00302012A11F8012F08BF04F120003E
S214008700B55C05F00305012D08BF2032801A01D1A3
S214008710002CE9D170BD0120FCE700BF69CE040043
S2140087200348044A0449121A92102DF0E1BA00BF19
S21400873034410000D0420000F068002008B5154B18
S21400874083F30A8800F030F8FFF7EAFF124B13496C
S2140087508B4212D30020124B12498B4218D3FCF7DF
S214008760C1FA186850F82240586840F82240013292
S21400877098688242F5D30C33EAE70022F8E71C68D3
S21400878044F8220001325C68A242F8D30833E4E7DA
S2140087900022F8E70800002028F3040034F3040061
S2140087A034F3040034F30400124B134A70B59A6095
S2140087B0D3F88820114D42F47002C3F888206FF079
S2140087C0010205F50054226641F2FF72626602223B
S2140087D0C3F8D020BFF34F8FBFF36F8F4FF44036F0
S2140087E0032004F065F90320E66004F045F92E61E5
S2140087F070BD00BF00ED00E00040000000800044B7
S214008800014B1860704700BFE06B0020054B1860F6
S214008810054B1B6F03F00703032B01D135F094BD06
S214008820704700BFE86B0020008000502DE9F04143
S21400883004464FF001080C250D4E0CB9BDE8F0813A
S21400884094FAA4F0B0FA80F00F2808FA00F2C8BF35
S214008850103824EA0204CABF05FB006205FB00626A
S214008860B4325768002FE8D09168C0B2B847E4E742
S2140088700438002008B50C4837F052FD192004F0E3
S21400888009F928B1192004F013F9192004F0F4F8B6
S2140088901A2004F0FFF828B11A2004F009F91A206B
S2140088A004F0EAF8002008BD70A904002DE9F041A4
S2140088B00E461746054618B30F2923D80378DBB1B2
S2140088C0013BDBB2022B19D8104AD35C6A78D3403E
S2140088D0DB0717D50E4BD3F81043ACB937F082FC44
S2140088E080463A462846314602F042FE404637F079
S2140088F074FC2046BDE8F0817F23E7E70023E5E728
S2140089002224F6E72124F4E70224F2E760A7040015
S21400891000C0035010B5044610B30378E3B1013B22
S214008920DBB2022B1AD8104AD35C6278D340DB073E
S21400893018D537F057FC0122617823788A40302119
S2140089404B4341F2100103F1A04303F570335A5034
S21400895037F043FC002010BD7F23E6E70023E4E762
S2140089602220F8E72120F6E760A7040010B50446A9
S21400897010B30378E3B1013BDBB2022B1AD8104ADE
S214008980D35C6278D340DB0718D537F02BFC012286
S214008990617823788A4030214B4342F2100103F17C
S2140089A0A04303F570335A5037F017FC002010BD73
S2140089B07F23E6E70023E4E72220F8E72120F6E716
S2140089C060A7040038B50D46044618B311B3037803
S2140089D0E3B1013BDBB2022B1AD8104AD35C6278B3
S2140089E0D340DB0718D537F0FDFB302223785343FE
S2140089F003F1A04303F570335B696278D34003F05C
S214008A0001032B7037F0E9FB002038BD7F23E6E733
S214008A100023E4E72220F8E72120F6E760A7040019
S214008A202DE9F0410D4616469846044600284FD0DC
S214008A3000294DD00178002940D04B1EDBB2022B16
S214008A403ED8254AD25C6378DA40D20701D4FF29A3
S214008A5040D1022E01D9042E3CD137F0C3FB237837
S214008A600746FF2B05D032462046296802F0C6FD91
S214008A7028602B68013309D12378FF2B06D1174BCA
S214008A806078D3F824142DF00EFF286029684B1C5C
S214008A9018D00C23124A03FB0122069BC2F804805E
S214008AA093602378FF2B04D001230E4A8B40C2F834
S214008AB02434384637F091FB002007E07F22C2E7D7
S214008AC00022C0E7384637F088FB2D20BDE8F0814D
S214008AD02220FBE72120F9E760A7040000C003502E
S214008AE00438002000D0035008B502F037FD044BD0
S214008AF000F05530C3F82004BDE80840FFF796BEE6
S214008B0000E0035008B502F029FD044B00F0AA303F
S214008B10C3F82004BDE80840FFF788BE00E0035015
S214008B202DE9F04F144605460E469B46C36B87B0AC
S214008B3001225B6902A960689847EB6B01225B69BA
S214008B4003A93046984702A82DF0D1FC074648B145
S214008B500023A37563754FF0FF33A360002007B0B2
S214008B60BDE8F08F03A82DF0CFFC0123A375237E6C
S214008B7004EBC303DE611F846368B3420ED120603A
S214008B8003A82DF0E3FC4FF0FF332075A360237D90
S214008B90043B022B26D80023A375DFE723681A1AA6
S214008BA053425341A37503A82DF0D0FC237D834286
S214008BB018BFA77503A82DF0ABFC074602A82DF03A
S214008BC0A7FC874218BF002303A818BFA3752DF083
S214008BD0A7FC074602A82DF0A3FC87421CBF002373
S214008BE0A375D4E703A82DF093FC80B1EB6B0222AB
S214008BF030465B6904A9984704A82DF098FC034604
S214008C00207D032839D8DFE800F03838040903A8A7
S214008C10F3E7CC22237E04EBC3031A8401F06EFC38
S214008C20109B187003A8277E2DF066FC04EBC70780
S214008C3087F82200237E03A804EBC303B3F8209032
S214008C4093F822702DF064FC804603A82DF068FC93
S214008C508246B8F1000F15D0EB6B022230465B69F6
S214008C6004A9984704A82DF027FC6075637D6BB9AE
S214008C700023A3754FF0000838E0227E04EBC20202
S214008C801384CBE703A82DF002FCEEE794F81680D9
S214008C90B8F1000FEED0B9F1000F09D1DFB1012312
S214008CA0E375637E002B4FD1012F42D1677614E027
S214008CB06B6C06EB0A015A4286EA010010421CBFA2
S214008CC00022A2755A1E0A409B1A9945D0D8A37D49
S214008CD0002BE3D1CEE7E37D43B94FF000084B46C7
S214008CE05246314628462DF04DF9A060A27D12B1BD
S214008CF023694B4423611A49237E097899422AD96D
S214008D0001332376BBF1000F27D032B3E37D23B3C4
S214008D10B8F1000F21D1032F1FD0A1684B1C1CD027
S214008D20109B2246009328460123FFF7F9FEA07504
S214008D3013E095F8343063B9EB6A0133CFD1032FD3
S214008D40CDD10123A376C8E7012FCFD0032FC4D1FE
S214008D50F7E79846C3E70023A375A07DFFE600BFAC
S214008D6084A704002DE9F04F0E46984600238BB0EA
S214008D7004464FF0FF31104617468DF8133001F0C9
S214008D80A7FBB6F5801F20D2314605AA04F10800DD
S214008D902DF0FFFA451C014603D1237CBBB92D20DC
S214008DA010E0384601F094FB0122394620460DF1CA
S214008DB013032DF039F90028EFD09DF8133088F80A
S214008DC0003000200BB0BDE8F08FB01CE5D1E56A9E
S214008DD0691C36D12046616A2DF01AF80546B31C88
S214008DE018BF0123DFF8CC900193636A626C02938C
S214008DF0236805A902FB053AE36B05225B6950462A
S214008E00984705A82DF00EFC2DF031FC50462DF0AD
S214008E1039FC4FF0000B824601464B1C05D0636CB4
S214008E2081EA0A025B42134211D0294620462CF002
S214008E30EFFF029BAB422CD0BBF1000F2CD10546B6
S214008E40D3E72368ED1A636CB5FBF3F5C7E748462E
S214008E5001F03EFB0DF1130349462046019A2DF022
S214008E60E3F8034690B1B21C03D0D9F80020B24212
S214008E700CD19DF8132003930D4B88F8002049462B
S214008E801A68384613F00EF8039B9B46D9F808106C
S214008E90C3E7BBF1000F82D0B6F5801F91D23146F2
S214008EA098F800307A6804F1080001F03FFA88E785
S214008EB080A70400E03F00202DE9F3410446174652
S214008EC098460E46184D816AE36A8B4201D04B1CC9
S214008ED002D102B0BDE8F081284601F0F9FA01227D
S214008EE0294620460DF107032DF09EF838B143467B
S214008EF0294620469DF80720B8470028E9D0A968EB
S214008F004A1C04D1696820462DF00FF80146012E50
S214008F10DAD16B6881EA0302636C5B421A4218BFBF
S214008F204FF0FF31D0E700BFB43F00202DE9F04FEF
S214008F304FF0FF334FF6FF720025044600F1080697
S214008F40C0E909238BB0C3620562056330468846D4
S214008F502DF0F0F920462CF02BFF60BB2046414652
S214008F602CF0A6FF20462CF023FF60BB5E200BB043
S214008F70BDE8F08F2368E26B606C576900FB053034
S214008F80052205A9B84705A82DF04CFB0128074681
S214008F900CD1294620462CF05CFF012F024600D15A
S214008FA00132294620462CF022FF03E02DF064FB18
S214008FB00028EED10135E3699D42DBD320462CF034
S214008FC0F7FE0028CAD000254FF0FF394FF6FF7392
S214008FD0CA46A846C4E90853E36998450AD3A5EBF0
S214008FE00905012D2CD84FF6FF72636A93423CD1D7
S214008FF06720BCE72368E26B606C576900FB0830AB
S214009000052205A9B84705A82DF00CFB834605A840
S2140090102DF0DFFA074658462DF029FB68B1574574
S21400902038BFC4F82480B94528BFB946BD4238BF0A
S2140090303D46BA46236A0133236208F10108CBE7AE
S2140090404FF6FF7300256362E3699D42CBD2676CDF
S2140090502068E36B052207FB05005B6905A99847B6
S21400906005A82DF0B6FA0135EEE7E26B676C2068CE
S214009070694607FB030055690522A84768462DF098
S214009080A8FA626A2368606C4B4D00FB02302DF034
S214009090F9FA4FF0FF33A062E3622A466FF001014F
S2140090A0204605ABFFF75EFE002846D1AD68294690
S2140090B02046E5622CF058FE206320B92046E16A7F
S2140090C02CF033FFE062294620462CF02EFF0546A2
S2140090D0A36A9D4233D120462CF019FE0027804615
S2140090E0B946E36999453CD3B84559D92046616AE3
S2140090F02CF08EFE0026054604F1400AB74212D830
S214009100626C2368694602FB0539E36B05225B69DE
S2140091104846984768462DF05CFA5346024649464C
S214009120E06B2DF0B1FA294620462CF071FE013690
S214009130B0450546E2D1642019E7A56AB7E7294697
S21400914020462CF011FE236B294603440746236372
S21400915020462CF0EAFE0546002FB9D1C4E90B07DD
S214009160B6E7636C2568052203FB0955E36B05A982
S2140091705B692846984705A82DF054FA2DF077FA33
S21400918058B128462DF07EFA014620462CF0ECFD1C
S214009190636C143B984208BF013709F10109A0E748
S2140091A030462DF0C7F8002320461946034AFFF73D
S2140091B083FE0020DBE600BF0C40002017600300A3
S2140091C02DE9F041036B9046826B07689A4288BF90
S2140091D08363426C436A90B002FB0377C36B0E4610
S2140091E0052201A95B6904463846984701A82DF078
S2140091F019FA01280146307057D0656CE26B236877
S214009200606AD2F814C005FB0030052206A9E047C4
S21400921006A82DF007FA01284FF0000523D0D4E960
S2140092200A3201219342CDE90B458DF834800E9524
S2140092308DF83C102AD1194620462CF076FE236B7A
S214009240626C14339B1AE06223630C9B53B99DF83F
S2140092503C303BB1626A616C2368E06B01FB023113
S2140092602DF098F90C9DE36B05225B6901A9384641
S214009270984701A82DF0D6F930702846236BA26BCC
S2140092809A4288BFA36310B0BDE8F081237C33B94F
S2140092901C490BAA04F1080001F096F8D5E7204611
S2140092A0194A0BABFFF708FECFE7237C23BB224609
S2140092B0164904F1080001F087F8616A20462CF090
S2140092C0C8FD616A421C20462CF091FD054620B977
S2140092D0236B626C1344143B23632046A16A2CF074
S2140092E024FE2368A062C01A636CB0FBF3F06062D1
S2140092F020462CF05DFEB6E700232046044AFFF722
S214009300DBFDDAE7659A0000E1990000B160030032
S2140093104D60030073B50D46D11E4A421C461B7EA7
S2140093204A419A4226D129682368994222D3636823
S21400933099421FD8114E0DF107033246FFF712FD72
S214009340C0B972686B689A4214D19DF80730DA1E6D
S21400935053425341227E93420CD1636901336361C9
S214009360D4E90323934205D22968A26842F8231061
S21400937001332361012002B070BD00BF0C40002005
S2140093802DE9F04F9B4689B09DF848309046514AEB
S2140093900193136907465B450D46C0F09580D94694
S2140093A053680093B9F1000F7BD0FB6B01225B6919
S2140093B005A90098984705A82DF0A6F8454B1B6808
S2140093C0984240F0848005A82DF0AAF804280646A6
S2140093D015D105A82DF0ABF8009B04461E44019B52
S2140093E0002B3ED1804512D91C46A8EB0008384613
S2140093F000992CF09AFDA9EB04090090D2E7FB6BCC
S21400940002225B69009806A9984706A8E2E7A0EB47
S21400941008045C4528BF5C46032C4644ABEB040BB3
S2140094201DD9FB6B294630465B69A208984724F095
S214009430030304F0030A1E441D44DDF80480BAF159
S214009440000FD4D0FB6B012206A930465B69984713
S2140094505246284606A912F025FD5544C7E7A246FF
S214009460EBE7824600F0030302932B1803930644AF
S214009470039BA6EB0A00A3EB0A05029B9A4514D1B0
S214009480BAF1000FB3D0FB6B012206A95B699847BF
S2140094905246284606A912F0C1FE0028DDD04FF03D
S2140094A03609484609B0BDE8F08FFB6B012206A9D5
S2140094B05B6998470422284606A912F0AFFE0028EA
S2140094C0EDD1AAF1040AD3E74FF06309E9E74FF0BC
S2140094D06F09E6E7384000202DE9F0410F461646B2
S2140094E09846044688B060B390F83450FDB1012128
S2140094F02CF053FC00210E9BCDE90511CDE9023777
S2140095009DF83C30CDF804808DF81C30237C049602
S2140095108BB90D4901AA04F1080000F055FFDDE9FA
S2140095200553E06B002E08BF1D462CF0CFFD2846E5
S21400953008B0BDE8F0812046044A01ABFFF7BCFC4A
S214009540EDE70546F3E700BF7B60030015930000D8
S2140095507FB590F84260044601920DF10B030A466F
S214009560304611492CF0BAFD012E0546E36B17D1A3
S21400957032465B6903A998479DF80B10039B019A36
S21400958059B19BB243EA0243012228460393E36B98
S21400959003A99B69984704B070BD62F30F03F3E715
S2140095A001229B6901A9F5E7384000202DE9F04F1C
S2140095B099B00E460D920A69416C0B931439D31D6F
S2140095C0B3FBF1F3013302EBC302036B0446934291
S2140095D0C0F001820023DFF804940893E36A48464B
S2140095E01946059300F074FFD6E9033707930B9BE3
S2140095F0022B4DD1CC2F40F0D7810D9B3BB131468D
S21400960020462CF0C1FD656C1490012044E001203A
S214009610079B656C1B68149300F0010000280CBFC4
S21400962004230823782F0E9349D8059A6B1E1340FF
S214009630ED1A3B1D9D423CD2002F3DD0082D3ED852
S2140096400023042506934FF0040A336806990B9806
S214009650C9F80030C9F810702CF07CFF4FEA9A0366
S2140096600F93059B89F814000393002309930C932A
S21400967004930A93616C039B4A1E1A408B1A27B305
S2140096805544AB4223D8236B5B1A134423632FE164
S214009690782F656CB9D8F07D0D9B002BBCD0E36BA2
S2140096A001225B69706816A9984716A82CF030FF4F
S2140096B0B4E700250695C6E704250697C3E7012309
S2140096C000254FF0080A0693BFE75345DBD3A3EB0C
S2140096D00A029742039BB84628BF904697425344D7
S2140096E028D90122D9F8101089F817208F4226D1E0
S2140096F00399C9F80410049299F817200AB399F848
S21400970018100398CA1C09EBC20250600498013175
S214009710A2F80880907289F81810B8F1000F07D0E8
S2140097200B9A022A40F08180099A72B101220992AE
S2140097309B46ABE0049A002A18BF0322DBE702220E
S214009740D9E7039AC9F80420E7E70C9A4244032AAB
S214009750EED9E26B1846956914A901220993A84729
S214009760099B05460028E1D03D2D40F01E8104F1FE
S214009770080303932368059A606CA2EB030ABAFBFE
S214009780F0FA00FB0A302CF07DFFE16A80462046A6
S2140097902CF0CBFBA26A824200F00F81626CD9F8F3
S2140097A00830511E0B40216B2768891A0B4423632F
S2140097B0089BE062DF1BB7FBF2F7BA4540F0FA8081
S2140097C0059BB3EB080A12D0E36B4FEA9A024146B8
S2140097D09B6998478346E36A059A5344E362236B82
S2140097E003989B1A434423632CF0A4FDDA462368AF
S2140097F0616CE06B01FB07312CF0B9FE20462CF0C3
S214009800D7FA20462CF0D4FB2063BAF1000F00F004
S214009810D4803269616CD31D1439B3FBF1F3013384
S21400982002EBC3029042A5D2BFE00D9A002A77D180
S214009830B8F1030F4FEA98026ED9E16B18468D69AE
S21400984007991093A847109B0546C0B918F0030562
S21400985015D0079A28F0030B02EB0B019B444FF040
S214009860FF3215A815922A46109312F01BFBE26BE6
S2140098705846956915A90122A8470546109B9B46A0
S214009880079A42440792002D40F08B80049B16A84E
S2140098900193069B009399F814204346316800F024
S2140098A0CDFDE36B0F9A9B69039816A99847039A18
S2140098B0051E089B18BF134608934346524620468B
