S01B00006275696C642F72656C656173652F7A69676265652E73333714
S21400600008100020F5A7000015F00000F17C030042
S214006010F17C03001DF0000025F00000F17C030079
S214006020F17C0300F17C0300F17C0300F17C0300AB
S21400603029F0000028C50400F17C0300F17C030071
S214006040F17C0300F17C0300F17C0300C5A2000094
S214006050F17C0300F17C0300F17C0300F17C03007B
S214006060F17C0300F17C0300F17C0300F17C03006B
S21400607095F50000F17C0300F17C0300F17C030041
S214006080F17C0300F17C0300F17C0300F17C03004B
S214006090F17C0300F17C0300F17C0300F17C03003B
S2140060A0F17C0300C1AB0000A1AB0000F17C030053
S2140060B0F17C03006D340200F17C0300D13E020047
S2140060C0F1D50300EDD50300AD36020007D6030078
S2140060D0F5D50300A13E0200F9D50300113F0200EA
S2140060E07D450200792202007D3F0200F17C03001C
S2140060F0F17C0300F17C0300F17C0300F17C0300DB
S214006100F17C0300F17C0300F17C0300F17C0300CA
S214006110F17C0300F17C0300F17C0300F17C0300BA
S214006120F17C0300F17C0300F17C0300F17C0300AA
S214006130F17C0300F17C0300F17C0300F17C03009A
S21400614082B030BF074BD3F8F030DB0704D500230E
S2140061500193019B052B01DD02B07047019B0133C3
S214006160F6E700BF00ED00E0F0B5114A114C124E04
S21400617000F00105E3695F0713D40DB9334213D16C
S21400618003EA00078F4207D10B4A1A40002A14BFC1
S2140061906FF001000020F0BD013AEBD16FF0020075
S2140061A0F9E74FF0FF30F6E76FF00100F3E700BFC6
S2140061B08096980000000350020001000B4B70B55B
S2140061C0D96911F480310DD101244FF48072084E44
S2140061D0084DF46020462C641A61FFF7C5FF34644E
S2140061E0EC6070BD6FF00100FBE700BF00000350DD
S2140061F000100350002003504FF4003238B50F4B08
S2140062000F4C9A6641F671330122E569E3630D4B44
S2140062100021DA60022360612120236105F48035C5
S214006220FFF7A2FF10B92120FFF79EFF0122064BC1
S214006230DA600DB10023E36338BD00BF0090005064
S21400624000000350001003500020035070B5134C9C
S2140062506061E3695B071ED40E4656F8043B8D1852
S214006260A361AE420BD10423002121202361FFF756
S2140062707BFF58B9BDE870402120FFF775BF0821A5
S2140062800846FFF771FF10B10423236170BD56F86E
S214006290043BA361E5E74FF0FF30F7E7000003504B
S2140062A02DE9F84315464FF40032184B89469A6696
S2140062B041F6713203F51C33DF69DA6301220646C4
S2140062C003F58053DFF84C8007F48037DA6055B961
S2140062D0284601220E4BDA601FB10022A3F50053B8
S2140062E0DA63BDE8F88306F5005404EA0804A41B44
S2140062F0AC4228BF2C46494622463046FFF7A6FF4A
S2140063000028E6D12644A1442D1BE0E7009000506B
S20C0063100020035000E0FFFF2F
S2140063182DE9F04F4FF0FD0BC9B09A460DF11B0959
S2140063289DF8503108AFCDF80C90CDF808B001971D
S214006338059303890446009383790E469046418860
S2140063488288407812F0D2FD054650B10090A388A6
S214006358002062883A4913F00DF9284649B0BDE88E
S214006368F08F99F8000034F019FC38B12846A38855
S2140063786288344913F0FEF88D25EEE75A4639460A
S21400638899F8000034F0B2FB8346002851D0529B9F
S2140063981BB1BDF84C3198424BD8002399F80090B1
S2140063A80793A9F14102012A5FFA8BF123D83846F0
S2140063B80139254ADFF898C05FFA81FE734513DB7A
S2140063C8059B04210792C3B907AF18221F489FED03
S2140063D81A7B02FB060420460A460830394684ED36
S2140063E8027B17F049FF11E010F8011F01335140F6
S2140063F80CFB01F2E2E7059B33B123464A463846D2
S214006408009610F09BFCA8E70829DED9B8F1000F23
S21400641801D088F80090BAF1000F01D0AAF800B0B1
S214006428529B002B99D05A46184608A917F024FF05
S21400643893E7012591E700BF000000000000000078
S214006448226E0400576E0400C59D1C81181100209A
S21400645893010001000000002DE9F04F93B0CDE94C
S2140064680A32DDE91C530E9353EC102BCDE90801D4
S214006478104619468DED060B1E9E17F087F980B15B
S214006488DDE906014FF0FF32C54B17F0A7F940B912
S214006498DDE906014FF0FF326FF4801317F080F93C
S2140064A870B1DDE908019DED060B0E9B1E96CDE941
S2140064B81C53DDE90A3213B0BDE8F04F00F088B986
S2140064C80022DDE90601002317F06AF9002800F02B
S2140064D83381DDE906A303F1004BCBF30A5016F42B
S2140064E88063A0F2FF3008BF06250F9316F07CFEE7
S2140064F89BA3D3E9002316F0E1FE9BA3D3E9002370
S21400650816F026FDCBF31304894644F07F518046E7
S2140065180022A44B504641F4401116F017FD94A3F0
S214006528D3E9002316F0CAFE02460B464046494603
S21400653816F00EFD17F05CF9044616F055FE8EA30D
S214006548D3E900238046894616F0B8FE0022964B0B
S21400655816F0FEFC17F04CF989A3D3E9002307468A
S2140065684946404616F0AAFE80463846894616F042
S2140065783BFE85A3D3E9002316F0A0FE02460B4691
S2140065884046494616F0E2FC02460B46CDE90C2387
S21400659816F094FEDDE90C23804689461046194617
S2140065A816F0D6FC0022CDE91001804B404649463D
S2140065B816F0AEFF00227E4B16F0CAFC02460B46CB
S2140065C84046494616F0A4FF00227A4B16F0C0FC57
S2140065D802460B464046494616F09AFFDDE90C236C
S2140065E88046894600204FF0804116F0AFFC0246F0
S2140065F80B464046494616F0ABFC02460B46DDE91C
S214006608100116F085FF07F2FF3700226A4B16F0D6
S2140066189FFC00223B0516F051FE52465B4680461C
S214006628894617F0DBF8002840F08980CDE90C8908
S21400663804F16303C62B8CBF0527042731051BD539
S21400664853A3D3E900235046594617F0BDF800284F
S2140066587FD051A3D3E900235046594617F0A0F837
S214006668002876D00027A542C6BF2C1B04F1FF35AC
S21400667800253C4646F480660E9B9F422CBF4FF092
S2140066880008A3EB070816F0020903D0002F18BF6E
S2140066984FF000083CB1DDE90C235046594616F089
S2140066A837FF82468B46DDE906010022002317F0F5
S2140066B877F810B10BF100439B46DDE9080126F494
S2140066C80063CDE90183DDE90A324BEC10AB009597
S2140066D800F07EF802465FB3DDE9091316F0200FD6
S2140066E800F10105089E0CBF65204520B047DDE98E
S2140066F808010523002205930A23002CCDE902325F
S21400670807F1FF374FEAD473B8BF64422A460193AD
S21400671804970A9B009436F0AFF90246B9F1000FC9
S21400672806D00B9BC41A0B9B1A190E9BA34245D87E
S214006738104613B0BDE8F08FDDE906ABCDE60022C3
S214006748404649461A4B16F0E3FE013CCDE90C01DB
S2140067586EE7002D90D00F9B002B8DD0013D8BE768
S214006768FB799F501344D33FB3C8608B288AC63F33
S21400677861436F63A787D23F71A379094F930A4095
S2140067881655B5BBB16B0240EF39FAFE422EE63F0E
S2140067982D431CEBE2361A3F0000000080842E4191
S2140067A8FFFFEF7F0000F83F0000E03F00002C40AE
S2140067B800002440000018400000F03F2020DDE9DB
S2140067C80913089DA8470134ADE700BF0000000084
S2140067D82DE9F04F5BEC10AB97B0CDE90501DDE98C
S2140067E82058CDE90723504652465B465946229F15
S2140067F816F0CCFF70B90323CDE902870193AA4BA4
S2140068080093DDE90501DDE9072336F067F817B0E0
S214006818BDE8F08F4FF0FF326FF4801350465946AC
S21400682816F0BEFF28B10423CDE9028701939F4BDB
S214006838E6E74FF0FF32504659469D4B16F0CEFF1E
S21400684868B19C4A07F00403002B08BF03229A4B42
S2140068581CBF13460422CDE902870192D0E75046B2
S2140068688DA3D3E90023594616F0B8FF38B98CA390
S214006878D3E900235046594616F092FF68B1DDE981
S2140068880723DDE905014BEC10ABCDE92187209500
S21400689817B0BDE8F04FFFF7DFBD002200235046D3
S2140068A8594616F07DFF002800F091805B46524658
S2140068B80020002116F04AFB012382468B460993E6
S2140068C817F4806400F08580092D40F28580002446
S2140068D830210EABA5F109020134202C03F8011B68
S2140068E8A5EB040901D09442F6D15946504616F055
S2140068F87FFF724B054603EBC90393ED007B8DEDD6
S2140069080A7B16F071FC02460B465046594616F0AE
S2140069181DFBDDE90A2316F0D1FC02460B46CDE93D
S2140069280C2316F08DFF064616F04EFC02460B4664
S214006938DDE90C0116F00AFB02460B46CDE90C23EE
S21400694800225F4B16F04AFF002848D00136304632
S21400695816F03AFC02460B46DDE90A0116F02AFF55
S21400696808B100260135B9F1000F45D1284616F0C2
S2140069783BFC02460B465046594616F0E7FA0022FC
S2140069884F4B16F00DFF10B9E90700D501350A215F
S2140069980EAB1A19202C0AD095FBF1F001FB105506
S2140069A8303502F8015B013405460028F2D107F0BD
S2140069B80302012A55D1B8F1000F52D0099A12B92C
S2140069C817F00C0F01D008F1FF38302240E009908C
S2140069D876E74FF0060988E7A946002485E70022EF
S2140069E8DDE90C01364B16F0DBFE0028BBD10EB1F4
S2140069F8F007B8D50136B6E70A210EAB1A19202CCF
S214006A080DD0B6FBF1F001FB1063092E03F130033D
S214006A1809F1FF3904F1010402F8013B11D83021CD
S214006A28A1440EAA202CB2D04C4504F101030AD189
S214006A3804F158020DEB02042E2204F8202C1C4602
S214006A48A5E70646DBE7A1541C46EBE71A550134D2
S214006A58444506D2202CF9D1CDE9028701940EAB25
S214006A68CEE6202CF8D0099B3BB12D2204F1580322
S214006A786B4403F8202C0134EEE77A0704D504F1BA
S214006A8858032B226B44F4E73B07E5D504F158037B
S214006A9820226B44EDE700BF0000000065CDCD4125
S214006AA80000000065CDCDC1818C0400858C0400F3
S214006AB8FFFFEF7F788C04007D8C040020D4040050
S214006AC80000E03F0000000070B58EB02C220021C8
S214006AD803A817F041FA64234FF002320893CDE971
S214006AE805230B2301218DF834305B4B8DF81010ED
S214006AF81D880D4040F0A98008463AF091FA0A220F
S214006B08564B574C1A704FF42873ADF812304FF0A6
S214006B18FF332360534B54491B8820460B82534B44
S214006B28534A1B68CD828B61524B0D621B884B8281
S214006B38514B1B68CB611DF0E9FA20B14FF41B716D
S214006B484E483BF040FB0521206836F0F3FD20B1A7
S214006B5840F27D2149483BF036FB206816F0B2F932
S214006B68474B2068196836F05FF90C253AF0C0FEE6
S214006B78684309903AF0BCFE68430DEB05010790A0
S214006B88206817F085FE20B140F295213B483BF07F
S214006B981AFB256820F056F800220146284636F0EB
S214006BA8BBF920B140F2972134483BF00CFB40F289
S214006BB80353344D344E2B80052396F90000AB70F2
S214006BC87F2801D11DF08AFD3378EB703AF090FEED
S214006BD800EB80008000A8803AF08AFE0023C00000
S214006BE84FF0FF31E880AB604FF0FF3018A3D3E9D1
S214006BF800233AF067FB2549206836F046F92068F6
S214006C0802A936F03EFE20B14FF434711B483BF023
S214006C18DAFA042220680DEB020136F0DAF80428C6
S214006C2804D040F2D72115483BF0CDFA01A901203F
S214006C3835F0A5FC08F02EFA01201EF0E1F931F037
S214006C4841FE1EF007FA1DF0E1FC0EB070BD00BF55
S214006C580A0020FF42030000EE5F00204C67002079
S214006C682058002044ED0400646E00204CED04001B
S214006C785110040042ED040048ED0400B0C30400BF
S214006C88AC6B00201458002096710020C510040034
S214006C980348044B834202D0034B03B1184770479E
S214006CA8C8710020C871002000000000064B074984
S214006CB8C91A891048BF0131491003D0044B0BB1DB
S214006CC801481847704700BFC8710020C8710020E7
S214006CD80000000010B5064C237843B9FFF7D8FF2C
S214006CE8044B13B10448AFF300800123237010BD92
S214006CF808170020000000008428050008B5044B8B
S214006D081BB104490448AFF30080BDE80840CDE74E
S214006D18000000000C17002084280500A3F5803A20
S214006D28704700BF154B002B08BF114B9D46FFF759
S214006D38F5FF00218B460F461148124A121A17F023
S214006D480BF90C4B002B00D098470B4B002B00D0B0
S214006D5898470020002104000D000B4817F042FC5D
S214006D6817F0D2F82000290030F086FC17F028FC2F
S214006D7800000800000000000000000008100020C6
S214006D8808100020B067002055E6010007B501216D
S214006D9820200DF1070201F0C1FB50B1012120208F
S214006DA80DF107028DF8071001F0C8FB03B05DF877
S214006DB804FB9DF807100129F8D00122084815F0B1
S214006DC8ADFF01210DF1070220208DF8071001F014
S214006DD8B5FB30F0B4FB4FF4FA6001F0E7F9E5E7ED
S214006DE81026040038B501F067F901F033FD0128D4
S214006DF805D001F02FFD022801D001F051FD0A4D03
S214006E082B783BB901F026FD0128044602D130F064
S214006E182AFC2C7001F01EFD012803D1BDE838407D
S214006E2801F030B938BD00BFDA60002010B504465E
S214006E38008830F04CFBA37884F84400834202BFF5
S214006E480123E3702371074B04F11C00C4E90734DF
S214006E5801F0BAFB224620880349BDE8104001F03D
S214006E68F7BA00BF0B6F0300D56E030070B5C37882
S214006E7804460D461646002B34D1D1B1214815F0EC
S214006E884DFF0123E370E36CA6600BB1E06D9847F5
S214006E98E368F61A63699E4221D2217E1A480131B8
S214006EA8C9B2217615F03AFFA36D13B1217EE06DC5
S214006EB89847E57030F056FB15B3237903BBA268F4
S214006EC8238A801A83421BD801231048237115F0A1
S214006ED825FF236DA3B1E06DBDE870401847012378
S214006EE82376E6E70029E4D1094815F017FF636D15
S214006EF8E660E5702571002BDBD0E06D9847D8E793
S214006F0870BD00BF38260400492604007726040012
S214006F186426040013B5C8B1C2B1012910D00229ED
S214006F2811D099B9C369283083B11404B4FBF3F4BB
S214006F3804600848009415F0F1FE002002B010BD69
S214006F48036A2C30F0E7436A3030EDE74FF0FF3045
S214006F58F4E700BF8D2604000A460449034608687D
S214006F6810B1194630F029B8704700BF2417002022
S214006F7870B5044694F89D2094F89E30D21A403294
S214006F88514201F03F0102F03F0258BF4A42D2B2D6
S214006F98162A00D870BD03F03F02224492F85D20FE
S214006FA8552A05D0013303F03F0384F89E30E1E705
S214006FB800205822191801F03F01214491F85D106D
S214006FC801300A441628D2B2F4D1D24303F116018E
S214006FD801F03F01214491F85D10D2B28A42E1D116
S214006FE8012120462FF0AEFF0421054620462FF04B
S214006FF8A9FF0A21064620462FF0A4FFA26AC4E984
S21400700807655643E26A030248BF434202FB05F59A
S214007018226B48BF23F07F4002FB00F3360C1B0CA4
S2140070282D0C23816062A680E58030F09BFA237ED3
S21400703833B90123237694F89E3060611733B2E79C
S21400704842F210726369C31A9342F2D82269B4F9FD
S214007058081003FB01222261064A23699342E8D3FB
S214007068A3F55B13A3F53A532361E3680133E360A2
S214007078F3E700BF80EE360010B50446FFF778FF4A
S2140070880221054830F078FA04F134004FF47A719A
S214007098BDE8104030F05DBAB5C404002DE9F843E9
S2140070A80D4616469846044610B3A822002104301A
S2140070B816F052FF40F29D1240F20513C4E90A2367
S2140070C86923DFF8889023634246314628461A4BE0
S2140070D825806680C9F8004030F04BFA074660B154
S2140070E80023324629461548C9F8003015F016FE22
S2140070F84FF0FF373846BDE8F88330F033FA0123FF
S21400710884F85C300E4B6061C4E92834032384F8A5
S214007118A8300C4BC4E90D343434204601F054FA38
S21400712820464FF47A7130F014FA43463246294620
S214007138054815F0F3FDDDE7616F0000C62604007C
S214007148B8C4040081700000F32604002417002049
S21400715858B101B1816202B1C26203B10363816AA8
S214007168D0E90B23014815F0D9BD70472427040041
S2140071782DE9F8430E4617461D460446002846D015
S21400718892220021063016F0E7FE224A224B3046AD
S214007198C4E9152343F273630022E365114626808B
S2140071A86780A58030F0B5F90022A07111463846F0
S2140071B830F0AFF900224FF001081146E07128467A
S2140071C830F052F9284630F06EF984F83C8030F0FA
S2140071D8C9F9124B04F16009C4E91834206284F82E
S2140071E88980484601F0F0F90D4B3A463146C4E925
S2140071F823340C482B4684F8948015F08FFD4846B7
S21400720841F2883130F0A5F90020BDE8F8834FF048
S214007218FF30FAE7305C020076CF01009170030079
S214007228D0C404004927040058B101B1416502B131
S214007238826503B1C365416DD0E91623014815F090
S2140072486DBD70477D27040013B5C8B1C2B10129CA
S21400725810D0022911D099B9836C543083B1140424
S214007268B4FBF3F404600848009415F057FD0020BA
S21400727802B010BDC36C5830F0E7036D5C30EDE724
S2140072884FF0FF30F4E700BFA327040070B50446AC
S21400729800F13C0680F83B1030460D4630F05EF9AB
S2140072A8238F1BB194F83A30AB4205D129462046C5
S2140072B8BDE870402FF05DBF054B3046C4E90F347B
S2140072C801F082F93046BDE87040142130F041B92B
S2140072D8A371030070B51E46838804460D46C18018
S2140072E802810BB1868070BD3C3030F037F994F8D7
S2140072F83430BBB194F83610002908BFFF21204669
S2140073082FF037FF0123E370074BA680C4E9033448
S2140073180C34204601F058F929462046BDE870404E
S21400732830F017B9FF21EAE71172030010B50179AA
S2140073380446B1FA81F10088490930F011F821793C
S2140073486088B1FA81F1490930F00AF8034B1A68E7
S214007358A24204BF00221A6010BD00BF28170020F2
S21400736870B543790446A3B100880E4E04F10805AB
S214007378336813B10C4B1B786BB121792FF0F0FFF3
S21400738864210A4B3460A3602846BDE8704030F09C
S214007398E0B84088E9E7064815F0C0FC054B3221FE
S2140073A8A360F1E728170020DC6000203573000092
S2140073B8E02704006973000010B50446E0B10F48E2
S2140073C815F0ACFC01236371A37953B921792088A1
S2140073D82FF0C6FF236B7BB1606B0121BDE8104020
S2140073E818472046FFF7A2FF04F1080030F0B6F869
S2140073F82046FFF7B5FFEDE710BD00BF16280400CE
S21400740810B50446F8B1104815F088FC00236371DF
S214007418A3796BB921792088B1FA81F149092FF04F
S2140074289FFF236B7BB1606B0021BDE810401847B7
S2140074382046FFF77BFF04F1080030F08FF820465F
S214007448FFF78EFFEDE710BD2128040010B50446AF
S21400745868B1074815F062FC637920461BB1BDE8A1
S2140074681040FFF7CDBFBDE81040FFF7A5BF10BD21
S2140074782D28040010B50E4C0E48214615F04EFC7B
S21400748882210D4815F04AFC82210220A21E01F036
S21400749855F8014630B134F8022C0848BDE81040CB
S2140074A815F03CBC0648BDE8104015F037BC00BFD8
S2140074B8725900203C28040057280400622804005B
S2140074C8A628040038B5114C82212246022001F075
S2140074D825F8A51C014688B122880D4815F01EFC23
S2140074E82A460C4B03F12C0153F8040B8B4242F846
S2140074F8040BF9D11B7813702C23238035F8021C53
S214007508054A0648BDE8384015F008BC7059002002
S214007518B128040031290400725900200F290400FC
S214007528034B1B781BB18B4201D830F008B8704764
S2140075382371002010B5044601460E4815F0EEFBF0
S214007548012C11D10C4B0D481A884FF6FF739A423E
S2140075581EBF0022094B5A742FF0E8FE02F07EFA8E
S214007568BDE8104002F022B90448BDE810402FF0EC
S214007578DFBE00BF5E290400D4700020386B0020F0
S21400758870B500241A4D1B4E3378A3421BDC00242A
S214007598194D1A4E3378A3421BDC0024184D194E99
S2140075A83378A3421BDC01F055F9012816481CD194
S2140075B82FF0BCFE02F052FA02F0F8F8BDE8704070
S2140075C8124801F067B92846FFF730FC01346035E9
S2140075D8DAE728462FF067FE01346435DAE72846EE
S2140075E82FF0C3FE01343835DAE72FF0A1FEE5E7C1
S2140075F800250020E260002020290020E36000200B
S214007608D0220020E1600020386B00203D75000085
S2140076182DE9F04F87B0FFF755FFB94B05A805933E
S2140076282FF0E1FE054616F093FBB64CC2B21F2AB1
S214007638627004D9B44815F071FB00F0ABFD29461A
S214007648A01C16F019FE05A82FF0CDFE054616F06C
S2140076587FFBC2B21F2A84F8212001D9AB48EAE78B
S214007668294604F1220016F007FE05A82FF0BBFEF7
S2140076783225824600269AF80040002C40F0CC803E
S214007688A34DFFF77DFF2B78DFF8CCB2DFF8CCA24E
S214007698A04E00939BF800309AF8002031789E4858
S2140076A815F03CFB32789AF800109BF80000531847
S2140076B803449A4F2878254603443846DBB2A2424C
S2140076C800F34D84012B38BF0123DFF8588202935C
S2140076D84246002345464FF482714FF6FF740298DF
S2140076E80133834213705180948002F10C02F6DB5A
S2140076F88B4B8C498348AB6001F0CEF9E879AB68D0
S21400770800EB400003EB800000F052FFEB790133FA
S214007718EB71854B1B88A34203D08249834801F04E
S2140077280DFB4FF000097E4C33784B4500F321845F
S2140077387F4B1B785BB17F4B1B78012B07D17949B0
S2140077487D4801F0A9FD77497C4801F041FF0027F4
S2140077584FF00C087A4BDFF8CC919AF80020317875
S214007768BA4200F31C8402EB01080C21002701FB37
S21400777808919BF800009423B842724A00F32E84BE
S21400778837780C269AF800304FF000081F44074454
S21400779806FB07964FF07009DFF8C4A15C4B1B7810
S2140077A8434500F33084624E624C337883B12178C7
S2140077B801290DD90C27013907FB01515E4801F054
S2140077C86BFD21785D48013907FB015101F000FF88
S2140077D80299544800F07EFF40F2055240F6043104
S2140077E82078367800F058FF0022054640F20271ED
S2140077F8207800F051FF29460246304601F0BAF8D4
S214007808059B3F491A468B4240F013844E4807B002
S214007818BDE8F04F15F082BA532C11D19AF8013012
S2140078284C2B40F05A819AF80230502B40F0558184
S2140078380122464B1A7005A82FF0D5FD82461AE796
S214007848442C15D19AF80130303B092BF3D80AF1AD
S21400785801002FF0D5FD3E4B3E4A1978002385B22D
S214007868994202F16002E6DD22F8465C0133F7E74A
S214007878422C0ED19AF80130542B40F08C800AF135
S214007888020000F033FE284B188018462FF0FBFA4B
S214007898D1E7582C66D8412CCDD9433C152CCAD8EC
S2140078A801A353F824F000BFE17C00003F780000F5
S2140078B8777D00003F7800003F7800003F780000A2
S2140078C8317A00003F7800003F780000E179000038
S2140078D8837900003F7800003F7800003F7800007A
S2140078E83F7800006B7B0000E37A00003F780000DA
S2140078F83F7800003F7800003F780000F37B0000E8
S21400790872590020346A00207D2904009429040056
S214007918DD600020E0600020252A040024200020E6
S214007928381A0020C0190020D47000202C17002018
S214007938DB600020227100207C1700200810002041
S214007948C41E0020081D0020752A0400DC600020E4
S214007958E260002000250020DE600020DF600020B6
S214007968B81B0020692C7FF466AF0AF101002FF0DF
S21400797847FD80B22FF0DBFD5DE7C84B0120197884
S2140079880023C74A994202F1A8027FF754AF02F8CB
S214007998A60C0133F6E70AF1010000F0A7FD04463D
S2140079A80AF103002FF0A4FD0121024620462FF01D
S2140079B85BFD6021BB48BC4F037859437A187C525C
S2140079C84FF4FA6111824FF448715161B749013397
S2140079D85583116503702EE70AF1010000F086FD55
S2140079E800224FF064088146B14F11462FF03CFD47
S2140079F8B04C3E780AF1030108FB06F306FB08467E
S214007A08304624F803902FF0D4FC304601262FF099
S214007A184AFC00213B78A84A03FB08443344146018
S214007A28516016743B7006E70AF1010000F05EFD2F
S214007A3800224FF0640881469D4C11462FF014FD35
S214007A489C4F23780AF1030108FB03F203FB08782E
S214007A58404627F802902FF0ACFC40462FF023FC57
S214007A68964A00231046116D39BB582202FB0300C4
S214007A786423227802FB03730365894A00231046B1
S214007A88D2F8A410F9B9A82202FB030064232278CE
S214007A9802FB0373C0F8A4305EB9874A3346114622
S214007AA852F8040BA8B96422207800FB027241F849
S214007AB82320237801332370BDE60133042B02F11B
S214007AC85802D0D1D9E70133042B02F1A802D7D146
S214007AD8E2E70133042BE3D1EBE70AF1010000F0FB
S214007AE805FD07460AF103002FF002FD01210246B4
S214007AF838462FF0B9FC60216A486B4C0278DFF8EC
S214007B089CC15143631867524FF4487119825961F2
S214007B186B495D8399659AF80310A827642904BF02
S214007B28012199709CF80030DFF874E15F430EEB92
S214007B3807010EF807304FF400774F8003270F71C0
S214007B488F7102EB420704EB47148C603224013332
S214007B58DBB201324B7181F8A04002708CF800301D
S214007B6869E60AF1010000F0C1FC00224FF0380B6C
S214007B7880464FF00109534F11462FF075FC3B78AD
S214007B88514C0BFB03F3E21824F8038082F80490A8
S214007B989AF80330692B15D10023137158224B49E4
S214007BA846480B785A4300EB020C83543878013366
S214007BB8C0EBC00204EBC204421CCCF84C403A703E
S214007BC80B7038E6002BE9D00AF1030000F08EFCB3
S214007BD80022804611462FF047FC3B780BFB0343F8
S214007BE8A3F8028083F80690D8E70AF1010000F0AF
S214007BF87DFC07460AF1030000F078FC04460AF10B
S214007C0805002FF075FC80460246012138462FF005
S214007C182BFC4246204601212FF026FC6020DFF888
S214007C2884E0214A9EF80030DFF8948000FB03FCCD
S214007C3802EB0C0122F80C704FF4487C4D83A1F837
S214007C4810C0C1F814C0C1F85880591CC9B24843BE
S214007C58145294241718A7F810C0C7F814C07D83C8
S214007C68C7F858801A4F981C8EF800003878DFF846
S214007C7864C0444303EB430301EB41010CEB040EE1
S214007C8802EB431302EB41120CF80400CEF8043062
S214007C98CEF8082001303870CDE500BFE06000203F
S214007CA824200020E260002000250020A5730300A1
S214007CB8E360002020290020386B0020C41E002026
S214007CC829750000E1600020D0220020DF60002037
S214007CD8DE600020081D00200AF1010000F006FC06
S214007CE880460AF1030000F001FC00220746114610
S214007CF840462FF0B9FB00223824114638462FF0AC
S214007D08B3FBD148D14A03784FF0000E04FB03FCBE
S214007D1822F80C804FF0010802EB0C0181F806E00F
S214007D2881F8048003EB0801C9B24C4302EB040C4B
S214007D3817539C1C04707024C54F8CF806E03878DE
S214007D488CF804804443DFF838C3C3EBC303C1EBA5
S214007D58C1010CEB040E02EBC30302EBC1020CF8E4
S214007D680400CEF80430CEF80820404493E79AF88A
S214007D780130502B75D15146B64814F0CFFF0AF1A2
S214007D88020000F0B3FB07460AF1040000F0AEFB61
S214007D9880460AF1060000F0A9FB4FF6FF739F42E3
S214007DA881463FF448AD98453FF445AD98423FF4C8
S214007DB842AD034642463946A748FFF7D9F9044676
S214007DC800287FF438AD0AF1080A562150462FF0ED
S214007DD8E7FA4121029050462FF0E2FA57218346EF
S214007DE850462FF0DDFA029B82461A78562A03D1AF
S214007DF8581C2FF005FB04469BF80030412B2BD16E
S214007E080BF101002FF0FCFA83469AF80030572B46
S214007E1825D10AF101002FF0F3FA03465A46214607
S214007E288D48FFF701FA8C482FF09AF98B4C0146DB
S214007E3820608B4801F0F2F921688A482FF091FDFE
S214007E480123894A39461370884A894813704B4675
S214007E58424614F063FFEEE44FF0000BD5E700232C
S214007E68DCE7422B7FF4E7AC51467A4814F056FF1D
S214007E780AF1020000F03AFB07460AF1040000F097
S214007E8835FB4FF6FF739F4280463FF4D4AC9842CA
S214007E983FF4D1AC0AF1060A532150462FF080FA77
S214007EA803788B4253D101302FF0AAFA0346424694
S214007EB839467048FFF7F2F8044600287FF4BBAC52
S214007EC8562150462FF06CFA4121834650462FF033
S214007ED867FA5721814650462FF062FA9BF8003021
S214007EE88246562B04D10BF101002FF089FA04467E
S214007EF899F80030412B2DD109F101002FF080FAB6
S214007F0881469AF80030572B27D10AF101002FF046
S214007F1877FA03464A4621465648FFF719F9554860
S214007F282FF065F84D4C014620604D4801F076F973
S214007F3821684C482FF015FD01234B4A394613702B
S214007F484A4A4D481370424614F0E8FE73E44FF46C
S214007F589653ACE74FF00009D3E70023DAE790F82A
S214007F6805C001348C4584BF05714571A830FFF7FC
S214007F78A6BBB9F1000F07D018F8053C03EB43037E
S214007F8804EB8304C8F808404146384601F044FF2D
S214007F9809F10109A83708F10C08FFF7C5BB7918DD
S214007FA80AD04A1E08FB0292D27902EB420204EB80
S214007FB8820408FB01929460184608FB015103935B
S214007FC801F0B0FC31782D48394408FB015101F026
S214007FD8C1FA039B01375833FFF7BFBB17EB080FEF
S214007FE818BF11F8050C03911EBF00EB400004EB08
S214007FF880048C6003FB072001F064F803990137BE
S2140080080C31FFF7B6BB18EB070F18BF16F8053C80
S21400801831461CBF03EB430304EB830409FB08A0AB
S21400802818BFB46000F024FF08F101080C36FFF70B
S214008038B5BB13F8011D00297FF4E3AB3B2102F81A
S214008048011CFFF7DEBB00BFE1600020D022002045
S214008058DD600020A42904002819002078180020D4
S2140080687C17002008100020DB600020227100200A
S214008078D22904007C180020012A0400C42200200B
S214008088B81B002008B5094B1B786BB108482FF0C1
S21400809848FC07482FF064FC064801F025FBBDE8BD
S2140080A8084004482FF06FBC08BD00BFDB60002006
S2140080B87C17002008100020034B1B7813B10348D8
S2140080C82FF056B8704700BFDB6000202819002044
S2140080D807B5012121200DF1070200F01FFA18B993
S2140080E89DF80720024B1A7003B05DF804FB00BF2A
S2140080F82371002007B5064B8DF80700187001217C
S2140081080DF10702212000F019FA03B05DF804FB10
S2140081182371002007B5022101200DF1060200F0A8
S214008128FDF938B9044814F0F9FDBDF8060003B0A7
S2140081385DF804FB0020FAE7922A040007B502213E
S214008148ADF806000DF10602012000F0F7F9014629
S21400815810B1034814F0E2FD03B05DF804FB00BF5D
S214008168B32A040010B5FFF7D5FF044601460748B2
S21400817814F0D4FD0121064814F0D0FD24B9BDE85A
S21400818810400120FFF7DABF10BD00BFE32A040045
S214008198F52A040008B5044814F0C0FD00F0DEF91E
S2140081A82FF0CDF92FF0C8F90B2B040038B504468C
S2140081B8084D094B28462B6000F006FA002C18BF1D
S2140081C821462846BDE8384008BF4FF496712FF080
S2140081D8C0B900BF142B0020277403002DE9F04314
S2140081E8394D93B008AC0746894690460FCD0FC464
S2140081F80FCD00260FC495E803000323012584E865
S2140082080300324C3248CDE90366CDE905668DF8A1
S2140082180E300796029539F070FF2E4839F06DFF3C
S21400822832462D4920468DF8176005F095F93346F5
S21400823832462A498DF81900009020468DF823907A
S214008248CDF82C808DF8216005F0A0F90A9020461C
S2140082588DF8097005F000F9204608AA05A905F06A
S214008268BBF902AA204603A930F0AAFA4FF4007216
S2140082781B4B5A62194BE560626A920510D46BB9BB
S2140082884FF40072164B11485A6205F0E5F811488B
S21400829839F036FF002013B0BDE8F083013BEBE76A
S2140082A8002BEDD0094908A830F0BDFA4FF400724B
S2140082B80B4B06485A6205F0CFF8064839F020FFFF
S2140082C8BDF82000E7E700BFE8C404000040005AF5
S2140082D828C7040024C7040080841E0040420F00FC
S2140082E80060005A0122034B1870034B1980034B99
S2140082F81A707047E5600020DC700020E4600020FB
S214008308F8B5454B1B780BB90020F8BD434B1B78D6
S214008318012B03D1BDE8F8402FF084B8404B1C88E9
S2140083284FF6FF739C42EFD03E4839F0E6FE002336
S214008338260AE4B21A462146304605F04DF8012EC4
S214008348354604F0010335D015D9B51E012DDBD806
S214008358002B0BBF4FF480754FF080754FF470619B
S2140083684FF070610BBF01274FF480370F204FF492
S21400837870202D4B11E0002B0BBF4FF480754FF08B
S21400838880754FF470614FF070610BBF01274FF492
S21400839880370F204FF47020244B1A6802401CD0F8
S2140083A8BA421AD01A680A4032D11A6822EA01027A
S2140083B82A4316E0002B0BBF4FF480754FF08075EC
S2140083C84FF470614FF070610BBF01274FF4803790
S2140083D80F204FF47020164BDFE71A6822EA0002D7
S2140083E83A431A602FF01EF8054600288CD0083647
S2140083F844EA06102A460321C0B2FFF7EFFE40F60D
S214008408FF73684300F2FF70B0FBF3F080B27CE7BE
S21400841895427FF479AFC8E7E4600020E560002065
S214008428DC70002028C7040028C3035020C303506C
S21400843824C3035010B5044C237823B9034839F0F5
S2140084485CFE0123237010BDE760002028C70400E7
S2140084582DE9F0431F4C85B0074688469146FFF73E
S214008468E9FF23781BB902F05DFA012323707BBA73
S214008478ADF80C3030220023174E02FB03F4315DB2
S214008488A51901BB012333554FF0FF3304F1100043
S21400849812493044AB606F80C5F80480C5F80C906C
S2140084A809F038FD04F10801042231440C4B00950C
S2140084B803A802F00DFBA96802460A4814F02EFC31
S2140084C805B0BDE8F0830133102BD6D1064814F06A
S2140084D825FCF5E7E66000203C2B002051740300DD
S2140084E863740300182B0400462B040080B102783E
S2140084F8A2F14103032B0BD840783038C0B20828C5
S21400850806D8054B134413F8413C40EA032070474D
S2140085184FF6FF70704700BF10C5040008B50B463D
S21400852842B101460448006803F01AFCBDE808405A
S2140085382EF0F7BF022008BDA46B002008B50B4636
S21400854842B101460448006803F092FDBDE80840C1
S2140085582EF0E7BF022008BDA46B0020F0B5002669
S214008568124F8DB0FF2300930A223346386802A9BB
S2140085782FF0CBFEC0B102AB1D4603EB800404E02F
S21400858855F8043BB34228BF5E1CAC423868E9D9AC
S214008598296803F0F3FE0028F2D02D28F0D00DB09D
S2140085A8BDE8F0402EF0BDBF0DB0F0BDA46B0020B6
S2140085B828B1034B0360034B436000238360704776
S2140085C8190000034C6B0020FF2307B50021044A5E
S2140085D80093083009F022FC03B05DF804FB00BFE6
S2140085E8557503000B46044902460868034909788E
S2140085F808B12EF0C2BF7047482E0020E960002060
S214008608F7B50C4618B12F21194839F0DCFD246857
S21400861823685E795F8830463946FFF7E3FFF0B196
S2140086288568E5B1A089227D3946904291BF002031
S214008638801AA36880B294BF03469B18E27C009019
S2140086483046A8470138032803D8DFE800F0080FAB
S2140086580B0D0024204633F00BF8204600E081205E
S21400866803B0F0BD8024F5E79324F3E78724F1E709
S2140086786E2B040007B50B460092054902460548CE
S214008688097800682EF09BFF03B05DF804FB00BF76
S214008698E9600020482E002007B50B4600920649E0
S2140086A802460648097800682EF089FF003818BF89
S2140086B8012003B05DF804FBE9600020482E002086
S2140086C808B5034B1B6803B19847002008BD00BFD8
S2140086D8442E00202DE9F74F04460D460026454B4C
S2140086E8454F1860454B197033010021F85C013678
S2140086F810F0EAF90C2EF7D10C2D28BF0C254FF0F8
S214008708000901953C4EDFF800A13D4DDFF8FC80DE
S214008718019B4B4502DC03B0BDE8F08F23784FF091
S214008728000B337063887380A388B380A379C6F878
S2140087380880B371E379C8F8005088F804304FF021
S2140087480003A768A8F80630E3795B450ADC012130
S21400875816F8100B10F0B8F908F1080809F1010925
S2140087680C34D5E74FF0000338886B812880FB78F7
S2140087784FF0000C2B81BA78C5F804A0002A0092A6
S2140087880CBF802240222A7379680AF10C026345DE
S21400879813DC03EB43030AEB830ABB6843B1009A76
S2140087A84FF6FF71B2FA82F2164B520932F0F0FE1B
S2140087B814350BF1010B0C37C6E7B1F800E00CF1E5
S2140087C8010C22F80CEC91F802E00C3202F816ECD8
S2140087D891F804E00C3102F815EC11F809ECBEF13A
S2140087E8010F14BF4FF0100E4FF0110E02F814ECE4
S2140087F8CDE700BF482E00203C450020E960002059
S2140088084C340020098600004C2E0020CC36002070
S214008818014B1860704700BF402E002070B51288C4
S21400882805460E46FFF726FF044670B102790499FE
S214008838806815F0E3FB064B1B680BB9002070BD7B
S2140088483146284622889847F8E78620F7E700BF8B
S214008858402E002008B50FF0D3F9022806D00128CC
S21400886806D0044B18784000C0B208BD0120FCE7CB
S2140088780220FAE7E8600020054B10B51C682CB10A
S214008888FFF7E8FF2346BDE81040184710BD00BFB5
S2140088983C2E0020014B1860704700BF3C2E00207D
S2140088A8034B1A781AB901221A700BF0AFB9704741
S2140088B8E86000200022024B1A70FFF7DDBF00BFF9
S2140088C8E860002037B50446002832D00FF098F943
S2140088D8022830D1608933F048FAE079237A0038E4
S2140088E818BF0120012B637A08BF40F008000BB1BF
S2140088F840F0100063890BB140F00400257CA18885
S214008908A2790DB1E36873B90C4B10F0B9FC217865
S214008918084610F031FD32F034FD002814BF03205D
S214008928002003B030BDCDE90035054B10F0A8FC9B
S214008938EDE70220F5E70120F3E700BF3B7B0400E4
S214008948EA49040008B50DF0BFFA014630B10448FC
S21400895814F0E4F9BDE808400DF05ABE08BD00BFA3
S214008968FC2B0400024B187C00B11868704700BF47
S214008978386B002030B5C0B100290CBF302031203C
S214008988002A0CBF3024312414220023084911F889
S214008998015F3F2D06D1002B14BF2546054601333F
S2140089A80D70DBB2013AF2D130BD2D200446EBE75C
S2140089B824710020034B044A5B7C012103201370BA
S2140089C8FFF7BCBD386B0020EA60002037B50446C8
S2140089D8FFF7F0FFB4F57F4F27D10025204B1A8804
S2140089E813449D70FEF746FD2846FFF7DFFB1D4D36
S2140089F82A68C2B1FFF7B6FFA8B14FF605739C42C6
S214008A0824D192F841102EF06DFC2B680421B3F89F
S214008A18422093F841303220ADF8062001AA8DF89E
S214008A280430FFF78BFD03B030BD4FF601739C4250
S214008A3803D10D482EF062FCD9E74FF602739C422C
S214008A48D5D10A4B1878FFF755FBD0E74FF60673D3
S214008A589C42E8D1B2F842102EF04EFCD5E700BF93
S214008A68705900202C370020386B00202371002016
S214008A7810B5074C012122460320FFF74FFD28B901
S214008A882378044A003B18BF0123537410BD00BF67
S214008A98EA600020386B00207B4BF7B51A884FF643
S214008AA8FF739A4218BF03234FF0080204464FF09C
S214008AB836000D4675494FF0320718BF0B70744BD9
S214008AC81A703022187137209A705A71DA714FF47A
S214008AD8001298716F486264E0646F48012220654E
S214008AE86E48A618A0656E48E667E0656D486E4E47
S214008AF860666E485F70A0666D48DF7020676D48D8
S214008B081F726067202084F8780084F8840004F1D7
S214008B182100C4F888006848C4F8806084F84820B3
S214008B2884F8542084F8602084F86C20C4F88C00FC
S214008B3884F89020C4F89410C4F8B8305F4B6049A5
S214008B48C4F8BC300223C4F898105E4984F8C030D4
S214008B58C4F8A41015215C4B84F8A810C4F8C430D7
S214008B685A4B5B49C4F8C8308223C4F8AC1059493C
S214008B7884F8CC30C4F8B0100921574B574EC4F8C7
S214008B88D030574B84F89C20C4F8D430554BC4F8E2
S214008B98A040C4F8DC30337C84F8B41084F8D820BD
S214008BA8002B6AD0504B84F8E420C4F8E03006F175
S214008BB81103C4F8E830FFF7D5FE90F83430002BE0
S214008BC85DD090F83630042184F84130FFF7CAFEAD
S214008BD8038F01AA3846A4F84230FFF79FFC38B93D
S214008BE89DF8043084F84130BDF80630A4F84230C9
S214008BF8FFF7B8FE94F841102EF074FBFFF7B2FEAC
S214008C08B4F842102EF078FB384B10211C60384B15
S214008C18C4F8EC30012384F8F03004F14103C4F8BA
S214008C28F430344BC4F8F830022384F8FC3004F1EE
S214008C384203C4F800314FF0000CEA79A86802EB4A
S214008C4842039F0000EB830320F807C0D970012178
S214008C58443499705C605318EB71FFF739FAFFF7E4
S214008C6807FFFFF7F7FD01280BD1337C4BB11B48F4
S214008C7803B0BDE8F0402EF041BB0D21DBE70E2126
S214008C88D9E703B0F0BD00BFD470002039710020CA
S214008C98EB60002019C504000100200018C5040078
S214008CA80200200017C5040005004200030020004B
S214008CB816C504000400420007003000FDFF21002E
S214008CC8120010010040420014C5040000FF4401D1
S214008CD8247100200600420070590020386B0020DE
S214008CE802FF20012371002001FF10012C3700200D
S214008CF805FF200106FF210113B504460D482EF096
S214008D08CDF86422C0F30F43637083B2B3FBF2F36B
S214008D18A0782370202201212EF06CFCA078212256
S214008D2801212EF067FC0449201D02B0BDE8104062
S214008D382EF00FBCD4700020E09304000B7870B5BA
S214008D4883704CF61E0303804FF02013C362012382
S214008D5880F8303080F83C30C3180364124B044661
S214008D6843640223114A80F84830114B8263C36477
S214008D784063CA798D6802EB420305EB830004F171
S214008D882C0646600B4E45F8236000238360531C70
S214008D98CB71094B201DC4E90134FFF715FC2046AA
S214008DA8BDE87040FFF7A8BFFDFF210021002000A6
S214008DB81AC5040001000103018D0000437B044A24
S214008DC80121137000781130C0B2FFF7B7BB00BF9F
S214008DD8F560002038B504460078054D11302A465F
S214008DE80121C0B2FFF79AFB08B92B78637338BD28
S214008DF8F5600020024B53F820002EF0C2BC00BFDE
S214008E0830370020012908B506D0022907D049B90D
S214008E182EF0AEFC002008BD2EF0ADFCFAE72EF0D2
S214008E28ADFCF7E7024813F079FF0120F3E700BF2F
S214008E38292C040010B4054C114654F820001A4694
S214008E48BDF804305DF8044BFFF7DCBF3037002070
S214008E58002310B5044683810364A0F844304830E4
S214008E68FFF7B2FB014BC4E9123410BD717703005B
S214008E7838B504460B781A4A43700D4642F8230064
S214008E88FFF7E6FF2046FFF7A5FF4FF440132361E0
S214008E980123144A2375A261134A84F82030E2613C
S214008EA8124A84F82C306262114A84F83830A2627A
S214008EB804F10C0222630F4A04F10D036263E363B4
S214008EC8EA79A86802EB420300EB830110344C6091
S214008ED8094C40F82340094B8B60531CEB7138BD96
S214008EE830370020F4600020080020003A71002087
S214008EF800FF300001FF1001020101043D8E000052
S214008F0810B47024427B0D48013A012904FB020084
S214008F1806D0022908D059B95DF8044B2EF028BCB3
S214008F285DF8044B2EF027BC5DF8044B2EF026BCEB
S214008F3803485DF8044B13F0F1BE00BFB81B0020D1
S214008F48452C0400B0F85C302DE9F0418B4204460D
S214008F580E4638D0437B077C8BB31C4A12789A425D
S214008F682DD370251A4A013B05FB032390F80F8082
S214008F781B7B42462EF013FCB845054601D1FF2858
S214008F881FD13A463146204694F890302EF007FC1A
S214008F982F460546552212216078A4F85C602EF00C
S214008FA829FBFF2F03D039462046FFF7A9FFFF2DE0
S214008FB809D029462046BDE8F0412EF030BCFF25F2
S214008FC8DFE70746E6E7BDE8F08100BFDD60002082
S214008FD8B81B002041688268C978D27849B112B1B6
S214008FE80321FFF7AFBF837B002B0CBF01210221B3
S214008FF8F7E72AB1837B002B0CBF02210121F0E79B
S214009008014813F08BBE00BF562C0400037BD3B177
S2140090184368DA7812B18268D278A2B91B7933B17C
S214009028837B002B0CBF04210521FFF78BBF8368C9
S2140090381B792BB1837B002B0CBF05210421F4E799
S214009048014813F06BBE7047882C0400084A437B1F
S21400905805211370837B5370C37B9370037CD37096
S214009068037B137100780E30C0B2FFF767BA00BFF3
S214009078F660002038B5044600780C4D0E302A46B7
S2140090880521C0B2FFF74AFA20B1BDE838400848C3
S21400909813F044BE2B7863736B78A373AB78E373D3
S2140090A8EB7823742B79237338BD00BFF660002055
S2140090B8C42C0400024B53F820002EF0FABB00BF65
S2140090C858370020F8B504460B78424A43700D46D8
S2140090D842F82300404E2EF00AFCFFF7CBFF6268EA
S2140090E8A3683E483E49D6641165D4655065C3E911
S2140090F81410DE64DC654FF0987302266361012362
S21400910804F10C01E16137491032216204F10D01C6
S214009118A16235492376E16204F10E0161633349A1
S21400912884F82430A16304F10F012164304984F8DF
S2140091383030616404F11001E1642E4984F83C3053
S21400914884F84830216584F85460A265E879A968EF
S21400915800EB400201EB820704F1140CC7F804C0C8
S2140091684FF4817C244F41F82270C218D2B202EB29
S214009178420241F822C001EB820700227A601F4AA9
S21400918884F8703022661E4A84F88830A2661D4A23
S2140091981D4BE2661D4AC4F88C3062671C4A831968
S2140091A8A26704F15C02C4F88020DBB2194A03EB1C
S2140091B84303C4F8842084F8646084F87C6001EB78
S2140091C8830260345460144A033041F82320E8715F
S2140091D8F8BD00BF58370020DD8F00007D780300FB
S2140091E81590000001002001020010010300300164
S2140091F8040030010500210101FC01064A00210097
S2140092081CC50400510010001EC504001FC504003C
S214009218550021006F0018001200010438B50D46ED
S214009228044678B171B1FC22002114F095FE09239A
S214009238A3600123044A6560626102F56172638275
S214009248A261A38338BD00BF640001001FB50446B1
S214009258E0B14368D3B16A4610212C20FFF75EF9C7
S214009268A0B90B4B009A9A4210D1606840B10368C7
S21400927833B15C6924B1DDE9022301994068A0474F
S214009288DDE902230199034813F048FD04B010BD38
S21400929843574C48F32C0400F0B4002800F09F8095
S2140092A8002900F09C804FF4D812026300F10802EF
S2140092B882634C4A0424C263022200F10C0545640A
S2140092C8494D80F83440856400F10E050565474D24
S2140092D880F84020456500F11005C565444D80F8C6
S2140092E84C20056600F112058566424D80F8582028
S2140092F8C56600F1140545673F4D80F8642085670C
S21400930800F11605C0F880503C4D80F87020C0F873
S214009318845000F11805C0F88C50394D80F87C2030
S214009328C0F8905000F11A05C0F89850354D80F8EE
S2140093388820C0F89C5000F11C05C0F8A450324D97
S21400934880F89420C0F8A85000F1200580F8A020E6
S21400935880F8AC40C0F8B05080F8B84000F124045B
S214009368C0F8BC40294C2A4DC0F8C040012480F8FB
S214009378C44000F12804C0F8C840264C80F8D02025
S214009388C0F8CC4000F12A04C0F8D440224C80F83B
S214009398DC20C0F8D84000F12C04C0F8E0401F4C90
S2140093A880F8E82000F12E02C0F8B450C0F8E44077
S2140093B8C0F8EC20CC798D6804EB440205EB8206F5
S2140093C800F130077760164E45F82260621CCA71B5
S2140093D80A78F0BC0270134A1060FFF737BFF0BC7B
S2140093E8704700BF05052100080521000B05290068
S2140093F800062100010621000206210003062100BE
S214009408040621000506210000FF230002FF2000B5
S21400941801FF230010FF210111FF210112FF210186
S214009428040B01108037002030B5204B89B01C682B
S214009438002C2FD0237883422CD1606850B34FF687
S2140094481173994228D04FF61273994229D04FF6D5
S214009458107399421ED10021628D04F12A052EF060
S21400946856FA00232B80A8B9636833B11A6822B16C
S214009478126912B1586801A990470D4B1021049340
S214009488019B2C200593029B04AA0693039B079333
S214009498FFF754F809B030BD0121A28D04F12C0560
S2140094A8DDE70221E28D04F12E05D8E7803700209B
S2140094B843574C4870B50D460646144613460A46AA
S2140094C80146204813F02AFC25B92046BDE870401E
S2140094D8FFF77CBA072D05D121463046BDE8704017
S2140094E800F05EBC4FF601439D4205D1214630464A
S2140094F8BDE87040FFF7DEBD062D05D12146304693
S214009508BDE8704000F0C8B9B5F5817F05D12146A1
S2140095183046BDE87040FFF76DBC40F202739D42CE
S21400952805D121463046BDE8704000F02FB940F618
S21400953804339D4205D121463046BDE87040FFF70A
S21400954873BF70BD232D04000148FFF761B900BF43
S214009558BD9400004FF4C01330B5036001230371B7
S214009568074B8C688360CA7902EB420304EB8305D9
S2140095786860044844F82300531CCB7130BD00BF14
S21400958820C504000400010113B5044680B1007824
S2140095986A4627300821C0B2FEF7C0FF50B9DDE999
S2140095A800230948C4E90223C4E9242313F0B6FBC0
S2140095B802B010BD002200230448C4E90223C4E90F
S2140095C8242313F0ABFBF3E7562D0400812D04008B
S2140095D870B50D460446002858D0002956D00B789A
S2140095E804F1200603702A4B1860FFF7CDFF4FF4EE
S2140095F814132362082304F110026263254A84F8D0
S2140096082430A26304F111022264234AE318626438
S2140096180422A362214B84F84820E362012384F8DD
S214009628542004F11802A2651D4A04F11401E265EB
S21400963804F11C0262661B4AE164A26604F11D027C
S21400964822671949194A84F8303084F83C3084F87F
S214009658603084F86C3084F8783004F11E03216595
S2140096686267E367EA79A96802EB420301EB8300C5
S21400967846600F4841F82300531CEB712978D4E95B
S21400968802230C48BDE8704013F048BB70BD00BF0D
S214009698843700200003300001032200000218006F
S2140096A803031800060318000203220000F0200136
S2140096B802070108AF2D040013B5044678B1D0E9B7
S2140096C802230078CDE9002327306A460821C0B275
S2140096D8FEF734FFD4E90223024813F01FFB02B05A
S2140096E810BD00BFE02D040030B5044689B040B375
S2140096F8436833B31A6822B1126812B1586801A9D0
S21400970890479DF81030E3B10399D4F880208A4238
S21400971807D8D4E902308A1A9B1840F10000C4E939
S2140097280230C4F880102DF01DFFD4F88430064AA5
S214009738C31A9342054604D92046FFF7BDFFC4F86E
S214009748845009B030BD00BFDF93040010B504464E
S214009758C0B1002300220021C0E90223C0E9242367
S2140097684368C0F880102BB11A681AB152680AB15B
S214009778586890472046FFF79FFFBDE8104002480C
S21400978813F0CCBA10BD00BF082E0400B1F5704F18
S214009798034607D1044A106820B102789A4201D1DC
S2140097A8FFF7D4BF704700BF8437002038B50024C1
S2140097B8044D55F8040B08B12EF0E6F801340A2CCF
S2140097C8F7D138BD88370020042908B50AD172B108
S2140097D86BB113781BB92EF002F9002008BD2EF0E5
S2140097E8F4F8FAE7034813F099FA0120F6E703209D
S2140097F8F4E700BF292E040010B4054C114654F8AF
S21400980820001A46BDF804305DF8044BFFF7DCBFAD
S214009818883700200229024608B50ED004D839B980
S21400982810462EF0DCF806E04029F9D0412907D189
S21400983810462EF0CAF8002008BD2EF0DAF8FAE72F
S214009848024813F06BFA0120F6E700BF492E040021
S21400985810B4054C114654F820001A46BDF80430DA
S2140098685DF8044BFFF7D6BF88370020C26C094B5B
S21400987852791A7082785A70C2789A70026D12B14C
S21400988890F85420DA70007804210930014AC0B2F2
S214009898FEF754BEFB600020024B53F820002EF063
S2140098A8EBB800BF8837002038B504460078084D66
S2140098B809302A460421C0B2FEF730FE30B96B786C
S2140098C8A370AB78E370EB7884F8543038BD00BFEB
S2140098D8FB60002038B504460078114D09302A464A
S2140098E80421C0B2FEF71AFEC8B9A3782A78022B5C
S2140098F80CD004D863B920462EF071F801E0FF2B8F
S2140099080AD02046BDE838402EF03EB8002AF2D1EC
S21400991820462EF05AF8F4E7002AF9D1EBE738BDCE
S214009928FB600020F8B504460B783D4A0D4642F821
S21400993823004370FFF7B8FFE36C3A4A5C631A6388
S2140099482046FFF7C7FF20462EF01EF84FF4801378
S21400995801266360E36C26720533E360324B267596
S2140099682361A31CA361236D002B54D02F4A84F8CF
S2140099782060E261E21C62622D4A84F82C60A262D2
S21400998804F15402226393F83420002A45D093F851
S2140099983620204684F855201B8FA4F856302EF023
S2140099A832F894F85510206D2DF09CFCB4F856103B
S2140099B8206D2DF0A1FC1F4B84F83860636304F11A
S2140099C85503E3631C4B06262364022384F84430BD
S2140099D804F15603A3640627EA79A96802EB420352
S2140099E821F8237001EB830001238370134B0434A2
S2140099F88360531C4460DBB2114C03EB4303C67010
S214009A0841F8234001EB8300002343600D4B0232EC
S214009A188360EA71F8BD0226DDE70426DBE700BFAF
S214009A28883700205D7A03000340300101FF3001CB
S214009A3802FF100103FF200104FF210159980000CE
S214009A48080001000198000028B1034B1B788342E8
S214009A5834BF002001207047DF60002070B5002565
S214009A680A4C0B4E3378AB4200DC70BDD4F8A42009
S214009A7842B123791BB16079FFF7E6FF10B91046AB
S214009A882DF001FC0135A834ECE700BF24200020A7
S214009A98E060002008B5427901461046FFF7D4FF7B
S214009AA8B0B1CB7858210B48013A042B01FB0200D1
S214009AB80ED8012B08D81BB9BDE808402DF085BF85
S214009AC8BDE808402DF08BBFBDE808402DF091BFDB
S214009AD808BD00BFC41E002008B5427901461046DE
S214009AE8FFF7B2FFB0B1CB7858210B48013A042BE8
S214009AF801FB02000ED8012B08D81BB9BDE80840A8
S214009B082DF06DBFBDE808402DF05FBFBDE80840EA
S214009B182DF06FBF08BD00BFC41E002010B586B06C
S214009B280446FEF797FE012831D1E17804292ED89D
S214009B38DFE801F014333503030062791046FFF7B7
S214009B4883FF60B35820174B013A00FB0233DB6CE7
S214009B58032958791DD1003818BF012063784FF4BF
S214009B6880728DF804304FF48273ADF80630062301
S214009B78ADF8083001238DF80B3000238DF80A0065
S214009B8801A8CDE903238DF81430FEF79BFE06B036
S214009B9810BDB0FA80F04009E0E70020DEE70220BA
S214009BA8DCE700BFC41E002010B586B00446FEF7EA
S214009BB851FE012831D1E278042A2ED8DFE802F0D7
S214009BC814143303030061790846FFF73DFF50B3CA
S214009BD85820164B013900FB0133DB6C032A5B79EE
S214009BE81DD11A1E18BF012263788DF80A208DF839
S214009BF804304FF48273ADF806300623ADF808300B
S214009C0801234FF480728DF80B30002301A8CDE9AC
S214009C1803238DF81430FEF755FE06B010BDB3FAD0
S214009C2883F25209E0E70222DEE700BFC41E0020E6
S214009C3810B586B00446FEF70DFE012812D16378EB
S214009C48094A8DF804304FF48273ADF806304FF4A5
S214009C588073CDE90223002301A804938DF81430FD
S214009C68FEF730FE06B010BD0800070110B586B036
S214009C780446FEF7EFFD012820D16278104B8DF8D8
S214009C8804204FF4827294F8A01094F8A10059703A
S214009C981870ADF8062004934FF480720223094921
S214009CA801A88DF81430CDE90212FEF70BFE94F8E1
S214009CB8A130013B18BF012384F8A13006B010BDBF
S214009CC8FF6000200800050110B5837804460BB332
S214009CD80379022B0BD142791046FFF7B5FE30B157
S214009CE858200D4B013A00FB02302DF082FEA37976
S214009CF8022B02D12046FFF711FF2046FFF7B6FFDA
S214009D0802236078A4F86C305522BDE81040122172
S214009D182DF070BC10BD00BFC41E00204388094A41
S214009D28082113808388538083681B8A938090F861
S214009D38A03093718379D37100780430C0B2FEF7EF
S214009D48FDBB00BFF259002038B50D460446017821
S214009D58114812F0E3FF4FF602739D420ED10F4BE7
S214009D681B782BB963712046BDE83840FFF7D6BF8D
S214009D7862790AB19342F6D20123F3E7B5F57F4F2D
S214009D88F1D120462DF00FFFA378022B0CBF01223D
S214009D980022A3689A70E6E7652E0400DF600020BC
S214009DA8024B53F82000FFF7CFBF00BFB0370020A4
S214009DB838B504460078144D04302A460821C0B247
S214009DC8FEF7ACFB20B1BDE83840104812F0A6BF3D
S214009DD82B8863806B88E978A380AA88A3681A8290
S214009DE8AB7984F8A030EB79A371094B1B780BB9D3
S214009DF8637138BD09B19942FBD9064812F08EFF47
S214009E0823780133F4E700BFF25900207F2E0400C0
S214009E18DF600020A82E0400F8B504460B78474AF1
S214009E280D4642F823004370FFF7C2FFA268444B72
S214009E38D465D364434B02265365434BA11C136574
S214009E484FF44013E36001236161E1623F49103239
S214009E5821632265211D3E4AA1633E483E4962654C
S214009E6804F1A002A061E163E265E01C611D3B4AC3
S214009E78206261643A483B492266A21D2374237710
S214009E8884F8283084F8343084F84030A16484F8A4
S214009E984C6084F8583084F864306062A266E879CA
S214009EA8AA6800EB400102EB810704F10C0CC7F826
S214009EB804C04FF0060C2C4F42F82170C118C9B2E6
S214009EC801EB410142F821C002EB810700217960CD
S214009ED8264F84F880302767254F84F89830A76780
S214009EE8244F254BE767254F84F8746084F88C6008
S214009EF8C4F89C3004F16C06831CC4F88470C4F85B
S214009F0890601F4F1F4EDBB203EB4303C4F8946008
S214009F18C4F8887002EB83067034746008261A4CFE
S214009F2842F82340C31CDBB203EB430302EB830473
S214009F38043042F823606160E871F8BDB03700204D
S214009F48057B03004F7B0300D19C000001FF300116
S214009F5804FF20011000300102FF200105FF300138
S214009F6800FF300103FF2101070001084A00210015
S214009F7822C504005100100024C5040025C50400AD
S214009F88550021006F0018001200010400239B6A88
S214009F98B3F5C04F03D21968064A914203D000238E
S214009FA8037083607047012202709A689B6942605A
S214009FB8F7E700BF07B0CD5E024B034A1A602FF0E2
S214009FC842B800BF0000002002020FF073B5534BE2
S214009FD804461A781AB102221A7002B070BDCDE98A
S214009FE800220028F9D001261E7038F065F84C4D7E
S214009FF84C4B186017F094F82B785BB902F062FAAD
S21400A00840B949480823494A4949006801F0A8FE6A
S21400A01800B92E70474B5A6E62619B6E464AA36122
S21400A0284FF40043936603F188435968E161434956
S21400A0389960196E2160596E6160D3F87011A1603D
S21400A048196CE160596C21613D49086C1864496CCB
S21400A0585964012151664FF4005191661A6E5604F0
S21400A06836D53849CA68D407FCD45B6E5A0434D54A
S21400A078354AD36B13F0430FFBD1344B1A68531C85
S21400A08831D04FF400139340314A13660423304C02
S21400A098684623664FF480632366102323664FF4CE
S21400A0A8005323664FF0804323664FF4804301A98C
S21400A0B863662DF090FD009B2366019B63662B78F4
S21400A0C8002B8AD0194B1A6822665B68636684E799
S21400A0D82049CA68D007FCD4C7E71F4AD36B13F0D9
S21400A0E8430FFBD1C9E71D4B1B78002BCED14FF48D
S21400A0F88072114B5A661A4A52681AB94FF4001100
S21400A108134A11664FF400725A66164B5B68002BAA
S21400A118BCD14FF480020E4B1A66B7E702610020E6
S21400A12803610020F8370020A46B0020FC370020CD
S21400A13800710800008000500090005055CEAC001A
S21400A14800C00054000004400000024C706B002061
S21400A15800900044000004500000025C01610020EA
S21400A16800C005500000065070B52C4D04462E78E9
S21400A178012E02D001232B7070BD0028FCD02DF0D4
S21400A1884FFD01300BD02DF04BFD40F201139842E5
S21400A19805D0234B234A5E66D368DE07FCD4224BE1
S21400A1A822491B6E13F0040F4FF4005314BF1C4AC9
S21400A1B81F4A9366CA6B12F04302FBD121681A4BFA
S21400A1C8196661685966A168C3F87011E168196470
S21400A1D821695964E169C80748BF9A60154B1A682F
S21400A1E801320DD1144A127852B914494968C90780
S21400A1F848BF1A60124A5268D20744BF01221A6042
S21400A2086269104B5A66A2699A6616F091FF0E4B61
S21400A218186837F04CFF0023ADE700BF0261002046
S21400A2280090004000000440008000440000024CFB
S21400A23800900050706B00200161002000C005509F
S21400A2480000065000800050F837002070B5002443
S21400A258A36AB3F5C04F23D21A68134B9A421FD18C
S21400A268124E337813F0FD0518D14FF48034104899
S21400A278FFF7ACFE032004F0B9FC0E4B0320DC60AD
S21400A28804F098FC0C4B1C61AB6ADB6998470446E3
S21400A2980748FFF769FF0CB901233370204670BDE5
S21400A2A84FF48174FAE700BF07B0CD5E0161002065
S21400A2B8D837002000A000440090004413B5204B77
S21400A2C81B7803B9FEE700231E4CCDE900336A4627
S21400A2D808231D49206801F043FDF8B91B4AD2F847
S21400A2E84031D2F840211F2B4FF0010311D9203AF4
S21400A2F89340019A1A43019208236A461249206835
S21400A30801F0B6FE124B134A1A602EF09CFE02B0FD
S21400A31810BD9340009A1A430092EDE72D28F1D11C
S21400A3280A4AD2F84031D2F840211F2B4FF00103D9
S21400A33885BF203A93409340019398BF0093DBE78C
S21400A34802610020A46B0020007108000080004411
S21400A358000000200B020FF038B50025AB6A044653
S21400A368B3F5C04F10D21B6BB3F5C04F0CD20748DD
S21400A378FFF72CFEAB6A20461B6B5B689847BDE868
S21400A38838400248FFF7F0BE38BD00BF043800204A
S21400A39813B50024A36A0190B3F5C04F13D21B6B04
S21400A3A8B3F5C04F0FD20948FFF710FEA36A012184
S21400A3B81B6B01A89B69984704460448FFF7D4FE20
S21400A3C8204602B010BD4FF48174F9E70438002027
S21400A3D870B50026B36A0446B3F5C04F0D4612D2D0
S21400A3E81B6BB3F5C04F0ED20848FFF7EFFDB36AF4
S21400A3F820461B6B29469B69984704460348FFF787
S21400A408B3FE204670BD4FF48174FAE70438002086
S21400A41870B50026B36A0446B3F5C04F0D4612D28F
S21400A4281B6BB3F5C04F0ED20848FFF7CFFDB36AD3
S21400A43820461B6B2946DB69984704460348FFF706
S21400A44893FE204670BD4FF48174FAE70438002066
S21400A458F8B50027BB6A0446B3F5C04F0D46164646
S21400A46811D21B6B7BB10948FFF7B0FDBB6A2046CB
S21400A4781B6B324629465B6A984704460348FFF733
S21400A48873FE2046F8BD4FF40174FAE7043800203E
S21400A49870B50026B36A0446B3F5C04F0D4612D20F
S21400A4A81B6BB3F5C04F0ED20848FFF78FFDB36A93
S21400A4B820461B6B29469B6A984704460348FFF7C5
S21400A4C853FE204670BD4FF40174FAE704380020A6
S21400A4D8F0B50027BB6A0446B3F5C04F0D461646CE
S21400A4E8ADF5177D20D21B6BB3F5C04F1CD21048B4
S21400A4F8FFF76CFDBB6A20461B6B40F251225B6A75
S21400A50801A99847044630B10948FFF72DFE2046B2
S21400A5180DF5177DF0BD836A32461B6B2946DB6A4C
S21400A52801A898470446EFE74FF40174EFE700BF29
S21400A5380438002010B50024A36AB3F5C04F10D223
S21400A5481B6BB3F5C04F0CD20748FFF73FFDA36A55
S21400A5581B6B1B6B984704460348FFF705FE20460F
S21400A56810BD0124FBE700BF04380020F0B58FB00B
S21400A578044601A80E461546FFF7EEFE9DF80C3079
S21400A588012B12D1B5F5002F27D8B4F5002F24D803
S21400A5986319B3F5002F20D821462A46304613F013
S21400A5A86BFE002420460FB0F0BD0027BB6AB3F54B
S21400A5B8C04F15D21B6BB3F5C04F11D20A48FFF730
S21400A5C805FDBB6A2A461B6B314620465B6B9847DF
S21400A5D804460548FFF7C8FDE4E740F20244E1E711
S21400A5E840F20114DEE700BF04380020F0B58FB053
S21400A5F8044601A80E461546FFF7AEFE9DF80C3039
S21400A608012B1FD1B5F5002F06D8B4F5002F03D8B7
S21400A6186319B3F5002F13D940F2024420460FB051
S21400A628F0BDE258013225D104339D42F9D82A46B6
S21400A6383146204600F082F80028EDD00024EDE7E9
S21400A6480023F2E70027BB6AB3F5C04F15D21B6B91
S21400A658B3F5C04F11D20A48FFF7B8FCBB6A2A46C2
S21400A6681B6B314620469B6B984704460448FFF709
S21400A6787BFDD3E740F20344D0E740F20114CDE770
S21400A6880438002070B58EB0044601A80D46FFF7C2
S21400A69863FE9DF80C30012B22D144EA0503C3F370
S21400A6A80C03002B33D1B5F5002F04D940F2024431
S21400A6B820460EB070BDB4F5002FF7D82544B5F582
S21400A6C8002FF3D8204604F5005400F029F8AC42D1
S21400A6D802D00028F6D1E9E70028E7D00024E7E70B
S21400A6E80026B36AB3F5C04F14D21B6BB3F5C04F40
S21400A6F810D20A48FFF76AFCB36A29461B6B204645
S21400A708DB6B984704460548FFF72EFDD0E740F276
S21400A7180444CDE740F20114CAE700BF043800201D
S21400A7284FF4003208B5044B9A6637F061FFB0FA6A
S21400A73880F0400908BD00BF00900050134610B5D1
S21400A74862B103439B070BD14FF40034054B9C665C
S21400A75837F052FFB0FA80F0400910BD0120FCE740
S21400A7680020FAE700900050BFF34F8F0549064BCC
S21400A778CA6802F4E0621343CB60BFF34F8F00BF92
S21400A788FDE700BF00ED00E00400FA0570B5D0B1A3
S21400A798C9B10E4E431E013913F8014F2046325DEB
S21400A7A802F00302012A11F8012F08BF04F1200065
S21400A7B8B55C05F00305012D08BF2032801A01D1CB
S21400A7C8002CE9D170BD0120FCE700BF41EC040075
S21400A7D80348044A0449121A92102DF086BA00BF9C
S21400A7E840610000186300004C68002008B5154B4F
S21400A7F883F30A8800F030F8FFF7EAFF124B134994
S21400A8088B4212D30020124B12498B4218D3FCF706
S21400A81889FA186850F82240586840F822400132F1
S21400A82898688242F5D30C33EAE70022F8E71C68FA
S21400A83844F8220001325C68A242F8D30833E4E701
S21400A8480022F8E7080000208C2805009828050054
S21400A85898280500982805004FF40041134B144A21
S21400A86870B59A60D3F88820124D42F47002C3F887
S21400A8788820114A05F5005491664FF0FF3222668B
S21400A8884FF6DF7262660222C3F8D020BFF34F8FFE
S21400A898BFF36F8F4FF44036032004F0A7F9032068
S21400A8A8E66004F087F92E6170BD00BF00ED00E099
S21400A8B8006000000080004400900050054B1860BF
S21400A8C8054B1B6F03F00703032B01D135F09ABC29
S21400A8D8704700BF806B0020008000502DE9F041D3
S21400A8E804464FF001080C250D4E0CB9BDE8F08162
S21400A8F894FAA4F0B0FA80F00F2808FA00F2C8BF5D
S21400A908103824EA0204CABF05FB006205FB006291
S21400A918B4325768002FE8D09168C0B2B847E4E769
S21400A9282438002008B50C4837F0E7FB192004F057
S21400A9384FF928B1192004F059F9192004F03AF90A
S21400A9481A2004F045F928B11A2004F04FF91A2005
S21400A95804F030F9002008BD28C704002DE9F041AE
S21400A9680E461746054618B30F2923D80378DBB1D9
S21400A978013BDBB2022B19D8104AD35C6A78D34065
S21400A988DB0717D50E4BD3F81043ACB937F094FB5A
S21400A99880463A462846314603F064F8404637F083
S21400A9A886FB2046BDE8F0817F23E7E70023E5E73E
S21400A9B82224F6E72124F4E70224F2E778C5040007
S21400A9C800C0035010B5044610B30378E3B1013B4A
S21400A9D8DBB2022B1AD8104AD35C6278D340DB0766
S21400A9E818D537F069FB0122617823788A40302130
S21400A9F84B4341F2100103F1A04303F570335A505C
S21400AA0837F055FB002010BD7F23E6E70023E4E778
S21400AA182220F8E72120F6E778C5040010B504469A
S21400AA2810B30378E3B1013BDBB2022B1AD8104A05
S21400AA38D35C6278D340DB0718D537F03DFB01229C
S21400AA48617823788A4030214B4342F2100103F1A3
S21400AA58A04303F570335A5037F029FB002010BD89
S21400AA687F23E6E70023E4E72220F8E72120F6E73D
S21400AA7878C5040038B50D46044618B311B30378F4
S21400AA88E3B1013BDBB2022B1AD8104AD35C6278DA
S21400AA98D340DB0718D537F00FFB30222378534313
S21400AAA803F1A04303F570335B696278D34003F083
S21400AAB801032B7037F0FBFA002038BD7F23E6E74A
S21400AAC80023E4E72220F8E72120F6E778C504000B
S21400AAD82DE9F0410D4616469846044600284FD004
S21400AAE800294DD00178002940D04B1EDBB2022B3E
S21400AAF83ED8254AD25C6378DA40D20701D4FF29CB
S21400AB0840D1022E01D9042E3CD137F0D5FA23784D
S21400AB180746FF2B05D032462046296802F0E8FF94
S21400AB2828602B68013309D12378FF2B06D1174BF1
S21400AB386078D3F824142DF0A9FE286029684B1CE9
S21400AB4818D00C23124A03FB0122069BC2F8048085
S21400AB5893602378FF2B04D001230E4A8B40C2F85B
S21400AB682434384637F0A3FA002007E07F22C2E7ED
S21400AB780022C0E7384637F09AFA2D20BDE8F08163
S21400AB882220FBE72120F9E778C5040000C003501F
S21400AB982438002000D0035008B502F059FF054BB2
S21400ABA800F0553020F05020C3F82004BDE80840D7
S21400ABB8FFF794BE00E0035008B502F049FF054BC6
S21400ABC800F0AA3020F0A020C3F82004BDE8084012
S21400ABD8FFF784BE00E003502DE9F04F1446054603
S21400ABE80E469B46C36B87B001225B6902A9606864
S21400ABF89847EB6B01225B6903A93046984702A881
S21400AC082DF072FC074648B10023A37563754FF014
S21400AC18FF33A360002007B0BDE8F08F03A82DF02F
S21400AC2870FC0123A375237E04EBC303DE611F8437
S21400AC386368B3420ED1206003A82DF084FC4FF061
S21400AC48FF332075A360237D043B022B26D8002300
S21400AC58A375DFE723681A1A53425341A37503A85E
S21400AC682DF071FC237D834218BFA77503A82DF02D
S21400AC784CFC074602A82DF048FC874218BF002364
S21400AC8803A818BFA3752DF048FC074602A82DF0A8
S21400AC9844FC87421CBF0023A375D4E703A82DF005
S21400ACA834FC80B1EB6B022230465B6904A99847F6
S21400ACB804A82DF039FC0346207D032839D8DFE8A0
S21400ACC800F03838040903A8F3E7CC22237E04EB07
S21400ACD8C3031A8401F06EFC109B187003A8277E25
S21400ACE82DF007FC04EBC70787F82200237E03A88D
S21400ACF804EBC303B3F8209093F822702DF005FCFC
S21400AD08804603A82DF009FC8246B8F1000F15D03E
S21400AD18EB6B022230465B6904A9984704A82DF01D
S21400AD28C8FB6075637D6BB90023A3754FF00008F8
S21400AD3838E0227E04EBC2021384CBE703A82DF08A
S21400AD48A3FBEEE794F81680B8F1000FEED0B9F141
S21400AD58000F09D1DFB10123E375637E002B4FD1C5
S21400AD68012F42D1677614E06B6C06EB0A015A4253
S21400AD7886EA010010421CBF0022A2755A1E0A402D
S21400AD889B1A9945D0D8A37D002BE3D1CEE7E37D67
S21400AD9843B94FF000084B465246314628462DF038
S21400ADA8EEF8A060A27D12B123694B4423611A49CC
S21400ADB8237E097899422AD901332376BBF1000FFE
S21400ADC827D032B3E37D23B3B8F1000F21D1032F88
S21400ADD81FD0A1684B1C1CD0109B22460093284607
S21400ADE80123FFF7F9FEA07513E095F8343063B930
S21400ADF8EB6A0133CFD1032FCDD10123A376C8E761
S21400AE08012FCFD0032FC4D1F7E79846C3E7002316
S21400AE18A375A07DFFE600BF9CC504002DE9F04F92
S21400AE280E46984600238BB004464FF0FF31104676
S21400AE3817468DF8133001F0A7FBB6F5801F20D211
S21400AE48314605AA04F108002DF0A0FA451C014673
S21400AE5803D1237CBBB92D2010E0384601F094FBC3
S21400AE680122394620460DF113032DF0DAF80028A2
S21400AE78EFD09DF8133088F8003000200BB0BDE8FE
S21400AE88F08FB01CE5D1E56A691C36D12046616AA8
S21400AE982CF0BBFF0546B31C18BF0123DFF8CC9087
S21400AEA80193636A626C0293236805A902FB053A5C
S21400AEB8E36B05225B695046984705A82DF0AFFB63
S21400AEC82DF0D2FB50462DF0DAFB4FF0000B8246F1
S21400AED801464B1C05D0636C81EA0A025B421342AA
S21400AEE811D0294620462CF090FF029BAB422CD06E
S21400AEF8BBF1000F2CD10546D3E72368ED1A636C27
S21400AF08B5FBF3F5C7E7484601F03EFB0DF1130322
S21400AF1849462046019A2DF084F8034690B1B21CA3
S21400AF2803D0D9F80020B2420CD19DF81320039321
S21400AF380D4B88F8002049461A68384613F09CF9E5
S21400AF48039B9B46D9F80810C3E7BBF1000F82D0D5
S21400AF58B6F5801F91D2314698F800307A6804F129
S21400AF68080001F03FFA88E798C504000040002072
S21400AF782DE9F3410446174698460E46184D816A51
S21400AF88E36A8B4201D04B1C02D102B0BDE8F081C7
S21400AF98284601F0F9FA0122294620460DF1070352
S21400AFA82DF03FF838B14346294620469DF807203D
S21400AFB8B8470028E9D0A9684A1C04D16968204621
S21400AFC82CF0B0FF0146012EDAD16B6881EA030245
S21400AFD8636C5B421A4218BF4FF0FF31D0E700BFE0
S21400AFE8D43F00202DE9F04F4FF0FF334FF6FF72A5
S21400AFF80025044600F10806C0E909238BB0C362A1
S21400B00805620563304688462DF091F920462CF0F7
S21400B018CCFE60BB204641462CF047FF20462CF06D
S21400B028C4FE60BB5E200BB0BDE8F08F2368E26B01
S21400B038606C576900FB0530052205A9B84705A8C6
S21400B0482DF0EDFA012807460CD1294620462CF0AB
S21400B058FDFE012F024600D10132294620462CF07B
S21400B068C3FE03E02DF005FB0028EED10135E369A9
S21400B0789D42DBD320462CF098FE0028CAD0002537
S21400B0884FF0FF394FF6FF73CA46A846C4E908537F
S21400B098E36998450AD3A5EB0905012D2CD84FF688
S21400B0A8FF72636A93423CD16720BCE72368E26B71
S21400B0B8606C576900FB0830052205A9B84705A843
S21400B0C82DF0ADFA834605A82DF080FA07465846B7
S21400B0D82DF0CAFA68B1574538BFC4F82480B94578
S21400B0E828BFB946BD4238BF3D46BA46236A013333
S21400B0F8236208F10108CBE74FF6FF730025636269
S21400B108E3699D42CBD2676C2068E36B052207FB98
S21400B11805005B6905A9984705A82DF057FA01357B
S21400B128EEE7E26B676C2068694607FB0300556923
S21400B1380522A84768462DF049FA626A2368606CBB
S21400B1484B4D00FB02302DF09AFA4FF0FF33A06209
S21400B158E3622A466FF00101204605ABFFF75EFE64
S21400B168002846D1AD6829462046E5622CF0F9FD50
S21400B178206320B92046E16A2CF0D4FEE062294616
S21400B18820462CF0CFFE0546A36A9D4233D12046C2
S21400B1982CF0BAFD00278046B946E36999453CD3AA
S21400B1A8B84559D92046616A2CF02FFE0026054678
S21400B1B804F1400AB74212D8626C2368694602FB5B
S21400B1C80539E36B05225B694846984768462DF0C3
S21400B1D8FDF9534602464946E06B2DF052FA2946D9
S21400B1E820462CF012FE0136B0450546E2D1642012
S21400B1F819E7A56AB7E7294620462CF0B2FD236B67
S21400B208294603440746236320462CF08BFE054652
S21400B218002FB9D1C4E90B07B6E7636C2568052289
S21400B22803FB0955E36B05A95B692846984705A8FB
S21400B2382DF0F5F92DF018FA58B128462DF01FFA1A
S21400B248014620462CF08DFD636C143B984208BFDF
S21400B258013709F10109A0E730462DF068F8002308
S21400B26820461946034AFFF783FE0020DBE600BFA8
S21400B2782C400020198003002DE9F041036B90460E
S21400B288826B07689A4288BF8363426C436A90B0B1
S21400B29802FB0377C36B0E46052201A95B690446C9
S21400B2A83846984701A82DF0BAF9012801463070AB
S21400B2B857D0656CE26B2368606AD2F814C005FB49
S21400B2C80030052206A9E04706A82DF0A8F90128AF
S21400B2D84FF0000523D0D4E90A3201219342CDE984
S21400B2E80B458DF834800E958DF83C102AD11946FA
S21400B2F820462CF017FE236B626C14339B1AE06210
S21400B30823630C9B53B99DF83C303BB1626A616C71
S21400B3182368E06B01FB02312DF039F90C9DE36BD5
S21400B32805225B6901A93846984701A82DF077F9E8
S21400B33830702846236BA26B9A4288BFA36310B06E
S21400B348BDE8F081237C33B91C490BAA04F1080038
S21400B35801F096F8D5E72046194A0BABFFF708FE2A
S21400B368CFE7237C23BB2246164904F1080001F0E8
S21400B37887F8616A20462CF069FD616A421C2046FF
S21400B3882CF032FD054620B9236B626C1344143B3F
S21400B39823632046A16A2CF0C5FD2368A062C01A64
S21400B3A8636CB0FBF3F0606220462CF0FEFDB6E757
S21400B3B800232046044AFFF7DBFDDAE725BB00003A
S21400B3C8A1BA0000B38003004F80030073B50D4692
S21400B3D8D11E4A421C461B7E4A419A4226D12968FB
S21400B3E82368994222D3636899421FD8114E0DF1FB
S21400B3F807033246FFF712FDC0B972686B689A42B7
S21400B40814D19DF80730DA1E53425341227E9342E8
S21400B4180CD1636901336361D4E90323934205D2EF
S21400B4282968A26842F8231001332361012002B07C
S21400B43870BD00BF2C4000202DE9F04F9B4689B018
S21400B4489DF848309046514A0193136907465B4574
S21400B4580D46C0F09580D94653680093B9F1000FA1
S21400B4687BD0FB6B01225B6905A90098984705A865
S21400B4782DF047F8454B1B68984240F0848005A895
S21400B4882DF04BF80428064615D105A82DF04CF8E3
S21400B498009B04461E44019B002B3ED1804512D9D2
S21400B4A81C46A8EB0008384600992CF03BFDA9EB93
S21400B4B804090090D2E7FB6B02225B69009806A994
S21400B4C8984706A8E2E7A0EB08045C4528BF5C4658
S21400B4D8032C4644ABEB040B1DD9FB6B29463046C0
S21400B4E85B69A208984724F0030304F0030A1E4485
S21400B4F81D44DDF80480BAF1000FD4D0FB6B01229E
S21400B50806A930465B6998475246284606A912F0AF
S21400B518B3FE5544C7E7A246EBE7824600F00303AE
S21400B52802932B1803930644039BA6EB0A00A3EB8F
S21400B5380A05029B9A4514D1BAF1000FB3D0FB6BEB
S21400B548012206A95B6998475246284606A913F0C1
S21400B5584FF80028DDD04FF03609484609B0BDE858
S21400B568F08FFB6B012206A95B69984704222846E0
S21400B57806A913F03DF80028EDD1AAF1040AD3E78E
S21400B5884FF06309E9E74FF06F09E6E758400020F7
S21400B5982DE9F0410F4616469846044688B060B333
S21400B5A890F83450FDB101212CF0F4FB00210E9BDD
S21400B5B8CDE90511CDE902379DF83C30CDF8048079
S21400B5C88DF81C30237C04968BB90D4901AA04F12A
S21400B5D8080000F055FFDDE90553E06B002E08BFB4
S21400B5E81D462CF070FD284608B0BDE8F0812046C0
S21400B5F8044A01ABFFF7BCFCEDE70546F3E700BFDE
S21400B6087D800300D5B300007FB590F842600446FD
S21400B61801920DF10B030A46304611492CF05BFDEA
S21400B628012E0546E36B17D132465B6903A9984796
S21400B6389DF80B10039B019A59B19BB243EA02434B
S21400B648012228460393E36B03A99B69984704B035
S21400B65870BD62F30F03F3E701229B6901A9F5E7C2
S21400B668584000202DE9F04F99B00E460D920A6911
S21400B678416C0B931439D31DB3FBF1F3013302EB82
S21400B688C302036B04469342C0F001820023DFF82E
S21400B69804940893E36A48461946059300F074FF35
S21400B6A8D6E9033707930B9B022B4DD1CC2F40F0DE
S21400B6B8D7810D9B3BB1314620462CF062FD656C68
S21400B6C81490012044E00120079B656C1B681493C6
S21400B6D800F0010000280CBF04230823782F0E93DF
S21400B6E849D8059A6B1E1340ED1A3B1D9D423CD265
S21400B6F8002F3DD0082D3ED80023042506934FF092
S21400B708040A336806990B98C9F80030C9F810700F
S21400B7182CF01DFF4FEA9A030F93059B89F8140037
S21400B7280393002309930C9304930A93616C039B79
S21400B7384A1E1A408B1A27B35544AB4223D8236BAC
S21400B7485B1A134423632FE1782F656CB9D8F07D14
S21400B7580D9B002BBCD0E36B01225B69706816A9B1
S21400B768984716A82CF0D1FEB4E700250695C6E73C
S21400B77804250697C3E7012300254FF0080A069319
S21400B788BFE75345DBD3A3EB0A029742039BB846B1
S21400B79828BF90469742534428D90122D9F810105A
S21400B7A889F817208F4226D10399C9F80410049205
S21400B7B899F817200AB399F818100398CA1C09EBC9
S21400B7C8C202506004980131A2F80880907289F885
S21400B7D81810B8F1000F07D00B9A022A40F08180A3
S21400B7E8099A72B1012209929B46ABE0049A002A94
S21400B7F818BF0322DBE70222D9E7039AC9F8042018
S21400B808E7E70C9A4244032AEED9E26B1846956994
S21400B81814A901220993A847099B05460028E1D0E8
S21400B8283D2D40F01E8104F1080303932368059A12
S21400B838606CA2EB030ABAFBF0FA00FB0A302CF0A5
S21400B8481EFFE16A804620462CF06CFBA26A824204
S21400B85800F00F81626CD9F80830511E0B40216B3E
S21400B8682768891A0B442363089BE062DF1BB7FB33
S21400B878F2F7BA4540F0FA80059BB3EB080A12D0F7
S21400B888E36B4FEA9A0241469B6998478346E36A08
S21400B898059A5344E362236B03989B1A4344236335
S21400B8A82CF045FDDA462368616CE06B01FB073136
S21400B8B82CF05AFE20462CF078FA20462CF075FB21
