S01B00006275696C642F72656C656173652F7A69676265652E73333714
S214006000081000201DA200003DEA00009D7303005A
S2140060109D73030045EA00004DEA00009D730300EF
S2140060209D7303009D7303009D7303009D7303001F
S21400603051EA000040BA04009D7303009D730300FC
S2140060409D7303009D7303009D730300ED9C000089
S2140060509D7303009D7303009D7303009D730300EF
S2140060609D7303009D7303009D7303009D730300DF
S214006070BDEF00009D7303009D7303009D73030036
S2140060809D7303009D7303009D7303009D730300BF
S2140060909D7303009D7303009D7303009D730300AF
S2140060A09D730300E9A50000C9A500009D730300C9
S2140060B09D730300952E02009D730300F9380200BD
S2140060C09DCC030099CC0300D5300200B3CC03006E
S2140060D0A1CC0300C9380200A5CC03003939020060
S2140060E0A53F0200A11C0200A53902009D73030013
S2140060F09D7303009D7303009D7303009D7303004F
S2140061009D7303009D7303009D7303009D7303003E
S2140061109D7303009D7303009D7303009D7303002E
S2140061209D7303009D7303009D7303009D7303001E
S2140061309D7303009D7303009D7303009D7303000E
S21400614082B030BF074BD3F8F030DB0704D500230E
S2140061500193019B052B01DD02B07047019B0133C3
S214006160F6E700BF00ED00E0F0B5114A114C124E04
S21400617000F00105E3695F0713D40DB9334213D16C
S21400618003EA00078F4207D10B4A1A40002A14BFC1
S2140061906FF001000020F0BD013AEBD16FF0020075
S2140061A0F9E74FF0FF30F6E76FF00100F3E700BFC6
S2140061B08096980000000350020001000B4B70B55B
S2140061C0D96911F480310DD101244FF48072084E44
S2140061D0084DF46020462C641A61FFF7C5FF34644E
S2140061E0EC6070BD6FF00100FBE700BF00000350DD
S2140061F000100350002003504FF4003238B50F4B08
S2140062000F4C9A6641F671330122E569E3630D4B44
S2140062100021DA60022360612120236105F48035C5
S214006220FFF7A2FF10B92120FFF79EFF0122064BC1
S214006230DA600DB10023E36338BD00BF0090005064
S21400624000000350001003500020035070B5134C9C
S2140062506061E3695B071ED40E4656F8043B8D1852
S214006260A361AE420BD10423002121202361FFF756
S2140062707BFF58B9BDE870402120FFF775BF0821A5
S2140062800846FFF771FF10B10423236170BD56F86E
S214006290043BA361E5E74FF0FF30F7E7000003504B
S2140062A02DE9F84315464FF40032184B89469A6696
S2140062B041F6713203F51C33DF69DA6301220646C4
S2140062C003F58053DFF84C8007F48037DA6055B961
S2140062D0284601220E4BDA601FB10022A3F50053B8
S2140062E0DA63BDE8F88306F5005404EA0804A41B44
S2140062F0AC4228BF2C46494622463046FFF7A6FF4A
S2140063000028E6D12644A1442D1BE0E7009000506B
S20C0063100020035000E0FFFF2F
S2140063182DE9F04F4FF0FD0BC9B09A460DF11B0959
S2140063289DF8503108AFCDF80C90CDF808B001971D
S214006338059303890446009383790E469046418860
S2140063488288407812F0E6FA054650B10090A38895
S214006358002062883A4912F021FE284649B0BDE876
S214006368F08F99F8000033F06FFF38B12846A388FD
S2140063786288344912F012FE8D25EEE75A463946F1
S21400638899F8000033F008FF8346002851D0529B46
S2140063981BB1BDF84C3198424BD8002399F80090B1
S2140063A80793A9F14102012A5FFA8BF123D83846F0
S2140063B80139254ADFF898C05FFA81FE734513DB7A
S2140063C8059B04210792C3B907AF18221F489FED03
S2140063D81A7B02FB060420460A460830394684ED36
S2140063E8027B17F05DFC11E010F8011F01335140E5
S2140063F80CFB01F2E2E7059B33B123464A463846D2
S214006408009610F0AFF9A8E70829DED9B8F1000F12
S21400641801D088F80090BAF1000F01D0AAF800B0B1
S214006428529B002B99D05A46184608A917F038FCF4
S21400643893E7012591E700BF000000000000000078
S2140064484E63040083630400C59D1C811811002058
S21400645893010001000000002DE9F04F93B0CDE94C
S2140064680A32DDE91C530E9353EC102BCDE90801D4
S214006478104619468DED060B1E9E16F09BFE80B143
S214006488DDE906014FF0FF32C54B16F0BBFE40B9FA
S214006498DDE906014FF0FF326FF4801316F094FE24
S2140064A870B1DDE908019DED060B0E9B1E96CDE941
S2140064B81C53DDE90A3213B0BDE8F04F00F088B986
S2140064C80022DDE90601002316F07EFE002800F013
S2140064D83381DDE906A303F1004BCBF30A5016F42B
S2140064E88063A0F2FF3008BF06250F9316F090FBD6
S2140064F89BA3D3E9002316F0F5FB9BA3D3E900235F
S21400650816F03AFACBF31304894644F07F518046D6
S2140065180022A44B504641F4401116F02BFA94A3DF
S214006528D3E9002316F0DEFB02460B4640464946F2
S21400653816F022FA16F070FE044616F069FB8EA3D3
S214006548D3E900238046894616F0CCFB0022964BFA
S21400655816F012FA16F060FE89A3D3E90023074660
S2140065684946404616F0BEFB80463846894616F031
S2140065784FFB85A3D3E9002316F0B4FB02460B466F
S2140065884046494616F0F6F902460B46CDE90C2376
S21400659816F0A8FBDDE90C23804689461046194606
S2140065A816F0EAF90022CDE91001804B404649462C
S2140065B816F0C2FC00227E4B16F0DEF902460B46A9
S2140065C84046494616F0B8FC00227A4B16F0D4F935
S2140065D802460B464046494616F0AEFCDDE90C235B
S2140065E88046894600204FF0804116F0C3F90246DF
S2140065F80B464046494616F0BFF902460B46DDE90B
S214006608100116F099FC07F2FF3700226A4B16F0C5
S214006618B3F900223B0516F065FB52465B468046FA
S214006628894616F0EFFD002840F08980CDE90C89F0
S21400663804F16303C62B8CBF0527042731051BD539
S21400664853A3D3E900235046594616F0D1FD002837
S2140066587FD051A3D3E900235046594616F0B4FD1F
S214006668002876D00027A542C6BF2C1B04F1FF35AC
S21400667800253C4646F480660E9B9F422CBF4FF092
S2140066880008A3EB070816F0020903D0002F18BF6E
S2140066984FF000083CB1DDE90C235046594616F089
S2140066A84BFC82468B46DDE906010022002316F0E5
S2140066B88BFD10B10BF100439B46DDE9080126F47B
S2140066C80063CDE90183DDE90A324BEC10AB009597
S2140066D800F07EF802465FB3DDE9091316F0200FD6
S2140066E800F10105089E0CBF65204520B047DDE98E
S2140066F808010523002205930A23002CCDE902325F
S21400670807F1FF374FEAD473B8BF64422A460193AD
S21400671804970A9B009435F005FD0246B9F1000F70
S21400672806D00B9BC41A0B9B1A190E9BA34245D87E
S214006738104613B0BDE8F08FDDE906ABCDE60022C3
S214006748404649461A4B16F0F7FB013CCDE90C01CA
S2140067586EE7002D90D00F9B002B8DD0013D8BE768
S214006768FB799F501344D33FB3C8608B288AC63F33
S21400677861436F63A787D23F71A379094F930A4095
S2140067881655B5BBB16B0240EF39FAFE422EE63F0E
S2140067982D431CEBE2361A3F0000000080842E4191
S2140067A8FFFFEF7F0000F83F0000E03F00002C40AE
S2140067B800002440000018400000F03F2020DDE9DB
S2140067C80913089DA8470134ADE700BF0000000084
S2140067D82DE9F04F5BEC10AB97B0CDE90501DDE98C
S2140067E82058CDE90723504652465B465946229F15
S2140067F816F0E0FC70B90323CDE902870193AA4B93
S2140068080093DDE90501DDE9072335F0BDFB17B088
S214006818BDE8F08F4FF0FF326FF4801350465946AC
S21400682816F0D2FC28B10423CDE9028701939F4BCA
S214006838E6E74FF0FF32504659469D4B16F0E2FC0D
S21400684868B19C4A07F00403002B08BF03229A4B42
S2140068581CBF13460422CDE902870192D0E75046B2
S2140068688DA3D3E90023594616F0CCFC38B98CA37F
S214006878D3E900235046594616F0A6FC68B1DDE970
S2140068880723DDE905014BEC10ABCDE92187209500
S21400689817B0BDE8F04FFFF7DFBD002200235046D3
S2140068A8594616F091FC002800F091805B46524647
S2140068B80020002116F05EF8012382468B460993D5
S2140068C817F4806400F08580092D40F28580002446
S2140068D830210EABA5F109020134202C03F8011B68
S2140068E8A5EB040901D09442F6D15946504616F055
S2140068F893FC724B054603EBC90393ED007B8DEDC5
S2140069080A7B16F085F902460B465046594616F09D
S21400691831F8DDE90A2316F0E5F902460B46CDE91B
S2140069280C2316F0A1FC064616F062F902460B4642
S214006938DDE90C0116F01EF802460B46CDE90C23DD
S21400694800225F4B16F05EFC002848D00136304621
S21400695816F04EF902460B46DDE90A0116F03EFC33
S21400696808B100260135B9F1000F45D1284616F0C2
S2140069784FF902460B465046594615F0FBFF0022D3
S2140069884F4B16F021FC10B9E90700D501350A214E
S2140069980EAB1A19202C0AD095FBF1F001FB105506
S2140069A8303502F8015B013405460028F2D107F0BD
S2140069B80302012A55D1B8F1000F52D0099A12B92C
S2140069C817F00C0F01D008F1FF38302240E009908C
S2140069D876E74FF0060988E7A946002485E70022EF
S2140069E8DDE90C01364B16F0EFFB0028BBD10EB1E3
S2140069F8F007B8D50136B6E70A210EAB1A19202CCF
S214006A080DD0B6FBF1F001FB1063092E03F130033D
S214006A1809F1FF3904F1010402F8013B11D83021CD
S214006A28A1440EAA202CB2D04C4504F101030AD189
S214006A3804F158020DEB02042E2204F8202C1C4602
S214006A48A5E70646DBE7A1541C46EBE71A550134D2
S214006A58444506D2202CF9D1CDE9028701940EAB25
S214006A68CEE6202CF8D0099B3BB12D2204F1580322
S214006A786B4403F8202C0134EEE77A0704D504F1BA
S214006A8858032B226B44F4E73B07E5D504F158037B
S214006A9820226B44EDE700BF0000000065CDCD4125
S214006AA80000000065CDCDC1AD810400B1810400B1
S214006AB8FFFFEF7FA4810400A981040038C9040001
S214006AC80000E03F0000000070B58EB02C220021C8
S214006AD803A816F055FF64234FF002320893CDE959
S214006AE805230B2301218DF834305B4B8DF81010ED
S214006AF81D880D4040F0A980084639F0E7FD0A22B7
S214006B08564B574C1A704FF42873ADF812304FF0A6
S214006B18FF332360534B54491B8820460B82534B44
S214006B28534A1B68CD828B61524B0D621B884B8281
S214006B38514B1B68CB611CF0FDFF20B14FF41B7155
S214006B484E483AF096FE0521206836F049F920B1FD
S214006B5840F27D2149483AF08CFE206815F0C6FEC2
S214006B68474B2068196835F0B5FC0C253AF016FA3C
S214006B78684309903AF012FA68430DEB050107904E
S214006B88206817F099FB20B140F295213B483AF06F
S214006B9870FE25681FF06AFD00220146284635F07B
S214006BA811FD20B140F2972134483AF062FE40F2D7
S214006BB80353344D344E2B80052396F90000AB70F2
S214006BC87F2801D11DF09EFA3378EB703AF0E6F98B
S214006BD800EB80008000A8803AF0E0F90023C000AF
S214006BE84FF0FF31E880AB604FF0FF3018A3D3E9D1
S214006BF8002339F0BDFE2549206835F09CFC206846
S214006C0802A936F094F920B14FF434711B483AF0D3
S214006C1830FE042220680DEB020135F030FC042813
S214006C2804D040F2D72115483AF023FE01A90120E6
S214006C3834F0FBFF07F042FF01201DF0F5FE31F0AF
S214006C4897F91DF01BFF1DF0F5F90EB070BD00BFDB
S214006C580A0020FF42030000C25D002020650020D5
S214006C68F45500205CE204001C6C002064E204007A
S214006C78FD0604005AE2040060E20400DCB80400E2
S214006C8864690020E8550020396F00207107040069
S214006C980348044B834202D0034B03B1184770479E
S214006CA86C6F00206C6F002000000000064B074940
S214006CB8C91A891048BF0131491003D0044B0BB1DB
S214006CC801481847704700BF6C6F00206C6F0020A3
S214006CD80000000010B5064C237843B9FFF7D8FF2C
S214006CE8044B13B10448AFF300800123237010BD92
S214006CF808170020000000009C1D050008B5044B7E
S214006D081BB104490448AFF30080BDE80840CDE74E
S214006D18000000000C1700209C1D0500A3F5803A13
S214006D28704700BF154B002B08BF114B9D46FFF759
S214006D38F5FF00218B460F461148124A121A16F024
S214006D481FFE0C4B002B00D098470B4B002B00D097
S214006D5898470020002104000D000B4817F056F94C
S214006D6816F0E6FD2000290030F029F817F03CF967
S214006D7800000800000000000000000008100020C6
S214006D8808100020846500207DE0010007B5012179
S214006D9820200DF1070201F0ABF950B101212020A7
S214006DA80DF107028DF8071001F0B2F903B05DF88F
S214006DB804FB9DF807100129F8D00122084815F0B1
S214006DC8C1FC01210DF1070220208DF8071001F003
S214006DD89FF92FF076FF4FF4FA6000F0D1FFE5E751
S214006DE8D01C040038B500F051FF01F019FB01284B
S214006DF805D001F015FB022801D001F037FB0A4D3B
S214006E082B783BB901F00CFB0128044602D12FF081
S214006E18CDFF2C7001F004FB012803D1BDE83840F3
S214006E2800F01ABF38BD00BFAE5E002010B504469D
S214006E3800882FF01AFFA37884F84400834202BF24
S214006E480123E3702371074B04F11C00C4E90734DF
S214006E5801F0A4F9224620880349BDE8104001F055
S214006E68E1B800BF33690300FD68030070B5C37856
S214006E7804460D461646002B34D1D1B1214815F0EC
S214006E8861FC0123E370E36CA6600BB1E06D9847E4
S214006E98E368F61A63699E4221D2217E1A480131B8
S214006EA8C9B2217615F04EFCA36D13B1217EE06DB4
S214006EB89847E5702FF018FF15B3237903BBA2682F
S214006EC8238A801A83421BD801231048237115F0A1
S214006ED839FC236DA3B1E06DBDE870401847012367
S214006EE82376E6E70029E4D1094815F02BFC636D04
S214006EF8E660E5702571002BDBD0E06D9847D8E793
S214006F0870BD00BFF81C0400091D0400371D0400EE
S214006F18241D04002DE9F0470E46174698460446F9
S214006F2800284BD076220021063016F029FD0022D4
S214006F380121304626806780A4F804802FF062FE80
S214006F480022012138462FF05DFE00224FF001098D
S214006F58114640462FF056FE40462FF072FE84F843
S214006F6838902FF0C1FE00252062C4E90955304646
S214006F782FF07BFE84F82C0038462FF076FE114B57
S214006F8804F1440AC4E9113484F82D0084F86D909D
S214006F98504601F003F90C4B3A463146C4E91C3416
S214006FA80A48434684F8789015F0CCFB504641F2E0
S214006FB888312FF090FE2846BDE8F0874FF0FF3066
S214006FC8FAE700BFD96F0000E4B904004D1D0400BD
S214006FD870B50446002863D090F86D30002B5FD05B
S214006FE82FF082FED4E90961E3692269CB1AE161D0
S214006FF8E168B51A266131B144F62062411A914219
S21400700884BF00226286A16951B144F62062411A03
S214007018914205D994F83820002A39D00022E28512
S214007028C82101FB05F24B43012A98BF0022012B19
S21400703898BF0023E263236462B11A494A43120CDC
S214007048628601FB05F24FF06161B2FBF1F2616BFB
S2140070581144616394F86C1043B139B194F8382040
S214007068C2B142F69E7253431B0CE38501231944B2
S214007078206284F86C10204684F839302FF08BFC98
S21400708804F1440041F28831BDE870402FF023BE79
S2140070982286C5E740F24B3253431B0C2386E5E7AE
S2140070A870BD00BFA906020070B51E468388044658
S2140070B80D46C18002810BB1868070BD817800883C
S2140070C82FF0BFFC0123E370064BA680C4E9033407
S2140070D80C34204601F062F829462046BDE8704088
S2140070E82FF0F9BD556A030010B501790446B1FAC8
S2140070F881F1008849092FF01BFD21796088B1FAD3
S21400710881F149092FF014FD034B1A68A24204BF07
S21400711800221A6010BD00BF2417002070B54379FE
S2140071280446A3B100880E4E04F10805336813B16F
S2140071380C4B1B786BB121792FF0FAFC64210A4BB3
S2140071483460A3602846BDE870402FF0C4BD408870
S214007158E9E7064815F0F6FA054B3221A360F1E791
S21400716824170020B05E0020F1700000811D040086
S2140071782571000010B50446E0B10F4815F0E2FA94
S21400718801236371A37953B9217920882FF0D0FCA5
S214007198236B7BB1606B0121BDE810401847204681
S2140071A8FFF7A2FF04F108002FF09AFD2046FFF72C
S2140071B8B5FFEDE710BD00BFB71D040010B50446C7
S2140071C8F8B1104815F0BEFA00236371A3796BB9BD
S2140071D821792088B1FA81F149092FF0A9FC236B9F
S2140071E87BB1606B0021BDE8104018472046FFF7CA
S2140071F87BFF04F108002FF073FD2046FFF78EFF93
S214007208EDE710BDC21D040010B5044668B1074876
S21400721815F098FA637920461BB1BDE81040FFF7D1
S214007228CDBFBDE81040FFF7A5BF10BDCE1D0400BA
S21400723810B50E4C0E48214615F084FA82210D48EA
S21400724815F080FA82210220A21E00F061FF014696
S21400725830B134F8022C0848BDE8104015F072BA70
S2140072680648BDE8104015F06DBA00BF4657002026
S214007278DD1D0400F81D0400031E0400471E04005C
S21400728838B5114C82212246022000F031FFA51C99
S214007298014688B122880D4815F054FA2A460C4B48
S2140072A803F12C0153F8040B8B4242F8040BF9D176
S2140072B81B7813702C23238035F8021C054A0648D1
S2140072C8BDE8384015F03EBA44570020521E040068
S2140072D8D21E040046570020B01E0400034B1B783D
S2140072E81BB18B4201D82FF0ECBC7047DB6E002038
S2140072F810B5044601460E4815F024FA012C11D1A3
S2140073080C4B0D481A884FF6FF739A421EBF002290
S214007318094B5A742FF0F2FB02F0BEF8BDE8104095
S21400732801F090BF0448BDE810402FF0E9BB00BF4D
S214007338FF1E04008C6E0020F068002070B5002444
S2140073481A4D1B4E3378A3421BDC0024194D1A4EE7
S2140073583378A3421BDC0024184D194E3378A34219
S2140073681BDC01F05DF8012816481CD12FF0C6FB7F
S21400737802F092F801F066FFBDE87040124801F08E
S2140073886FB82846FFF752FD01346035DAE728461D
S2140073982FF09AFB01343435DAE728462FF0CDFB78
S2140073A801343835DAE72FF0ABFBE5E7D0230020C9
S2140073B8B65E0020F0270020B75E0020A02100203F
S2140073C8B55E0020F0680020F97200002DE9F04F45
S2140073D887B0FFF755FFB64B05A805932FF0D1FBEE
S2140073E8054616F0C9F9B34CC2B21F2A627004D912
S2140073F8B14815F0A7F900F0B7FC2946A01C16F00E
S2140074084FFC05A82FF0BDFB054616F0B5F9C2B22D
S2140074181F2A84F8212001D9A848EAE7294604F15A
S214007428220016F03DFC05A82FF0ABFB32260446DA
S21400743800272578002D40F0B880A14CFFF77EFF86
S2140074482378DFF8C4B2DFF8C4A29E4E00939BF8F8
S21400745800309AF8002031789B4815F073F9327896
S2140074689AF800109BF8000053180344974F2078AA
S2140074782C4603443846DBB2AA4200F36483012B49
S21400748838BF0123DFF84C82029342460023454664
S2140074984FF482714FF6FF740298013383421370DB
S2140074A85180948002F10C02F6DB894B89498148A9
S2140074B8AB6001F0C1F8E879AB6800EB400003EB7D
S2140074C8800000F05FFEEB790133EB71824B1B887E
S2140074D8A34203D07F49814801F0AEF94FF0000976
S2140074E87B4C33784B4500F337837D4B1B785BB179
S2140074F87C4B1B78012B07D176497B4801F024FC8E
S21400750874497A4801F0EEFD00274FF00C08784BD6
S214007518DFF8C0919AF800203178BA4200F3318338
S21400752802EB01080C21002701FB08919BF80000DC
S2140075389423B8426F4A00F3428337780C269AF8A9
S21400754800304FF000081F44074406FB07964FF02C
S2140075587009DFF8BCA15A4B1B78434500F34383F8
S2140075685F4B1B788BB15F4E317801290DD90C24FF
S214007578013904FB01515C4801F0E6FB31785B48B1
S214007588013904FB015101F0ADFD0299514800F0A4
S21400759887FE059B46491A468B4240F03983564873
S2140075A807B0BDE8F04F15F0CDB8532D0FD163786E
S2140075B84C2B40F04C81A378502B40F04881012298
S2140075C84E4B1A7005A82FF0DCFA044631E7442D16
S2140075D813D16378303B092BF4D8601C2FF0DEFA01
S2140075E8474B484A1978002386B2994202F160024E
S2140075F8E8DD22F8466C0133F7E7422D0CD16378B4
S214007608542B40F08780A01C00F05AFD324B18809F
S21400761818462FF04CF9D5E7582D33D8412DD1D937
S214007628433D152DCED801A353F825F0357A000032
S214007638CD750000C77A0000CD750000CD75000036
S214007648CD750000A9770000CD750000CD75000047
S2140076585B7700009F760000CD750000CD750000B2
S214007668CD750000CD750000DB7800005778000067
S214007678CD750000CD750000CD750000CD750000F5
S21400768851790000692D9DD1601C2FF087FA80B2D1
S2140076982FF013FB96E70B4B0120197800230B4AB3
S2140076A8994202F1A8028DDD02F8A60C0133F7E72D
S2140076B846570020046800201E1F0400351F0400DB
S2140076C8B15E0020B45E0020A21F0400F41E002055
S2140076D868190020F01800208C6E0020281700205B
S2140076E8AF5E0020DA6E0020781700200810002011
S2140076F8F41D0020381C0020F21F0400B05E002095
S214007708B65E0020D0230020B25E0020B35E0020C4
S214007718E81A0020601C00F0D3FC0546E01C2FF099
S214007728B5FA0121024628462FF06CFA6021B048C7
S214007738B04C03785943621865524FF4FA611182C7
S2140077484FF448715161AC49568311650133037093
S21400775838E7601C00F0B4FC00224FF0340881467D
S214007768A64F11462FF04EFA3878A54D08FB00F3C1
S21400777825F80390EA18E3781046693B18BF0123FA
S21400778893702FF0A1F900219E4A3B7851600121A1
S21400779803FB08550B443B7015600F46117411E740
S2140077A8601C00F08DFC0022114681462FF02AFA54
S2140077B83422924DDFF84882287802FB00F328F836
S2140077C8039008EB0301E3780846693B18BF0123DA
S2140077D88B702FF079F98C4A00231046916B31BBD9
S2140077E800EB831034232A7802FB03838363874ADB
S2140077F800231046D2F8A410F9B9A82202FB030009
S21400780834232A7802FB0383C0F8A4305FB97D4A84
S2140078183B46114652F8040BA8B93422287800FBD8
S214007828028241F823202B7801332B70CAE60133F5
S214007838042B02F14002D1D1D9E70133042B02F11F
S214007848A802D7D1E2E70133042BE3D1EBE7601CAB
S21400785800F036FC8046E01C2FF018FA012102469C
S21400786840462FF0CFF960216148624D0278DFF874
S214007878B4C151436B1825F801804FF4487119823A
S214007888596163495E839965E178A824642904BF31
S214007898012199709CF80030DFF870E15C430EEB2C
S2140078A804010EF804304FF400744C8003240C7165
S2140078B88C7102EB420405EB441532240133DBB22B
S2140078C801324B718D6081F8A04002708CF8003050
S2140078D878E6601C00F0F4FB00224FF0380A814678
S2140078E8DFF83C8111462FF08DF998F80030494DA5
S2140078F80AFB03F325F803904FF00109EA1882F80B
S2140079080490E37873B1E01C00F0DAFB002204462A
S21400791811462FF077F998F800300AFB03535C807D
S21400792883F806903C48384A03789901535498F8E7
S214007938001002EB8314C1EBC10205EBC2054A1C1A
S214007948656388F8002001E7601C00F0B9FB8046F4
S214007958E01C00F0B5FB0546601D2FF097F90446BD
S2140079680246012140462FF04DF9224628460121BD
S2140079782FF048F960204FF4487CDFF874E01D4A81
S2140079889EF8003000FB03F422F80480DFF88080BD
S2140079981119A1F810C0C1F814C04E83C1F8588058
S2140079A8591CC9B248431418A4F810C0C4F814C027
S2140079B86683C4F8588094241552184D981C8EF87F
S2140079C800002878DFF860C0444303EB430301EB6C
S2140079D841010CEB040E02EB431302EB41120CF8C8
S2140079E80400CEF80430CEF8082001302870E9E507
S2140079F8B65E0020D0230020756B0300B75E00201B
S214007A08F0270020F0680020F41D0020F41E002057
S214007A18E5720000A0210020B35E0020B25E0020C0
S214007A28B55E0020B45E0020381C0020601C00F004
S214007A3847FB8046E01C00F043FB00220546114643
S214007A4840462FF0DFF800223824114628462FF04B
S214007A58D9F87448744A03784FF0000E04FB03FC08
S214007A6822F80C804FF0010802EB0C0181F806E0C2
S214007A7881F8048003EB0801C9B24C4302EB040CFE
S214007A8815539C1C04707024684D8CF806E0287802
S214007A988CF804804443DFF8B8C1C3EBC303C1EBDA
S214007AA8C1010CEB040E02EBC30302EBC1020CF897
S214007AB80400CEF80430CEF80820404496E76378F1
S214007AC8502B7FF47FAD2146594814F03BFEA01C8E
S214007AD800F0F6FA0546201D00F0F2FA8046A01DD2
S214007AE800F0EEFA4FF6FF739D4204463FF46AAD87
S214007AF898453FF467AD98423FF464AD0346424666
S214007B0829464C48FFF706FA00287FF45BAD49483B
S214007B182EF068FFDFF83C910146C9F80000464899
S214007B2801F0FAF8D9F8001044482FF0B2FA012309
S214007B38434A29461370434A43481370234642462D
S214007B4814F000FE3EE590F805C001358C4584BF6C
S214007B5804714471A8308FE4B9F1000F07D018F803
S214007B68053C03EB430304EB8304C8F8084041468E
S214007B78384601F065FE09F10109A83708F10C0836
S214007B88AFE479180AD04A1E08FB0292D27902EBB3
S214007B98420204EB820408FB01929460184608FB34
S214007BA80151039301F00AFC31782848394408FB50
S214007BB8015101F01BFA039B01374033AAE417EB87
S214007BC8080F18BF11F8050C03911EBF00EB400004
S214007BD804EB80048C6003FB072000F0F1FF039998
S214007BE801370C31A2E418EB070F18BF16F8053C4E
S214007BF831461CBF03EB430304EB830409FB08A0D0
S214007C0818BFB46000F0B2FE08F101080C36A2E412
S214007C1813F8011D00297FF4BDAC3B2102F8011CB6
S214007C28B8E400BFB55E0020A0210020B15E0020A9
S214007C38451F04007418002078170020081000203C
S214007C48AF5E0020DA6E0020731F04009421002027
S214007C58E81A00207018002008B5094B1B786BB18D
S214007C6808482FF0F7F9074801F00AF9064801F026
S214007C78B7FABDE80840044801F0D2B908BD00BF0D
S214007C88AF5E00207817002008100020034B1B78F2
S214007C9813B103482EF0AEBE704700BFAF5E00209B
S214007CA87418002007B5012121200DF1070200F005
S214007CB81FFA18B99DF80720024B1A7003B05DF832
S214007CC804FB00BFDB6E002007B5064B8DF80700E7
S214007CD8187001210DF10702212000F019FA03B0EF
S214007CE85DF804FBDB6E002007B5022101200DF1CC
S214007CF8060200F0FDF938B9044814F023FDBDF873
S214007D08060003B05DF804FB0020FAE70F20040025
S214007D1807B50221ADF806000DF10602012000F0B5
S214007D28F7F9014610B1034814F00CFD03B05DF8EE
S214007D3804FB00BF3020040010B5FFF7D5FF04464B
S214007D480146074814F0FEFC0121064814F0FAFC28
S214007D5824B9BDE810400120FFF7DABF10BD00BF08
S214007D68602004007220040008B5044814F0EAFCF9
S214007D7800F0DEF92EF0A5FF2EF0A0FF8820040004
S214007D8838B50446084D094B28462B6000F006FA1D
S214007D98002C18BF21462846BDE8384008BF4FF4D7
S214007DA896712EF098BF00BFF4280020C36B03001E
S214007DB82DE9F043394D93B008AC074689469046FE
S214007DC80FCD0FC40FCD00260FC495E8030003237C
S214007DD8012584E80300324C3248CDE90366CDE934
S214007DE805668DF80E300796029539F0DCFC2E48AD
S214007DF839F0D9FC32462D4920468DF8176005F033
S214007E08BFF8334632462A498DF8190000902046B6
S214007E188DF82390CDF82C808DF8216005F0CAF8EF
S214007E280A9020468DF8097005F02AF8204608AA18
S214007E3805A905F0E5F802AA204603A930F016F8C9
S214007E484FF400721B4B5A62194BE560626A920542
S214007E5810D46BB94FF40072164B11485A6205F0ED
S214007E680FF8114839F0A2FC002013B0BDE8F083E3
S214007E78013BEBE7002BEDD0094908A830F029F8BC
S214007E884FF400720B4B06485A6204F0F9FF064896
S214007E9839F08CFCBDF82000E7E700BFF0B9040015
S214007EA80040005A40BC04003CBC040080841E000D
S214007EB840420F000060005A0122034B1870034B23
S214007EC81980034B1A707047B95E0020946E002024
S214007ED8B85E0020F8B5454B1B780BB90020F8BDF6
S214007EE8434B1B78012B03D1BDE8F8402EF068BE43
S214007EF8404B1C884FF6FF739C42EFD03E4839F043
S214007F0852FC0023260AE4B21A462146304604F0FC
S214007F1877FF012E354604F0010335D015D9B51E76
S214007F28012DDBD8002B0BBF4FF480754FF0807502
S214007F384FF470614FF070610BBF01274FF4803724
S214007F480F204FF470202D4B11E0002B0BBF4FF481
S214007F5880754FF080754FF470614FF070610BBFFD
S214007F6801274FF480370F204FF47020244B1A68EF
S214007F7802401CD0BA421AD01A680A4032D11A688F
S214007F8822EA01022A4316E0002B0BBF4FF4807545
S214007F984FF080754FF470614FF070610BBF01278A
S214007FA84FF480370F204FF47020164BDFE71A681F
S214007FB822EA00023A431A602EF002FE054600281E
S214007FC88CD0083644EA06102A460321C0B2FFF7CA
S214007FD8EFFE40F6FF73684300F2FF70B0FBF3F065
S214007FE880B27CE795427FF479AFC8E7B85E002098
S214007FF8B95E0020946E002040BC040028C30350DD
S21400800820C3035024C3035010B5044C237823B967
S214008018034839F0C8FB0123237010BDBB5E00205F
S21400802840BC04002DE9F0431F4C85B0074688463F
S2140080389146FFF7E9FF23781BB902F087F9012379
S21400804823707BBAADF80C3030220023174E02FBA3
S21400805803F4315DA51901BB012333554FF0FF33F7
S21400806804F1100012493044AB606F80C5F80480F4
S214008078C5F80C9009F062FC04F1080104223144AA
S2140080880C4B009503A802F037FAA96802460A487E
S21400809814F058FB05B0BDE8F0830133102BD6D199
S2140080A8064814F04FFBF5E7BA5E00201C290020AE
S2140080B8ED6B0300FF6B030095200400C32004004B
S2140080C880B10278A2F14103032B0BD840783038F0
S2140080D8C0B2082806D8054B134413F8413C40EABA
S2140080E8032070474FF6FF70704700BF18BA0400A9
S2140080F808B50B4642B101460448006803F044FB45
S214008108BDE808402EF0D3BD022008BD5C690020FB
S21400811808B50B4642B101460448006803F0BCFCAB
S214008128BDE808402EF0C3BD022008BD5C690020EB
S214008138F0B50026124F8DB0FF2300930A2233466F
S214008148386802A92FF037FCC0B102AB1D4603EB16
S214008158800404E055F8043BB34228BF5E1CAC42DA
S2140081683868E9D9296803F01DFE0028F2D02D28C2
S214008178F0D00DB0BDE8F0402EF099BD0DB0F0BDC2
S2140081885C69002028B1034B0360034B436000235F
S214008198836070471900000304690020FF2307B5B1
S2140081A80021044A0093083009F04CFB03B05DF840
S2140081B804FB00BFD96C03000B4604490246086856
S2140081C80349097808B12EF096BD7047282C002080
S2140081D8BD5E0020F7B50C4618B12921194839F0BC
S2140081E848FB246823685E795F8830463946FFF77F
S2140081F8E3FFF0B18568E5B1A089227D3946904253
S21400820891BF0020801AA36880B294BF03469B18CB
S214008218E27C00903046A8470138032803D8DFE8F8
S21400822800F0080F0B0D0024204632F077FD20469C
S21400823800E0812003B0F0BD8024F5E79324F3E73F
S2140082488724F1E7EB200400F8B515460D4A0446E6
S21400825810680D4A0B46117850B122462EF04BFD99
S214008268034628B100210C27C678B14201DB00205E
S214008278F8BD07FB01F45A681019125BAA42F7D03A
S2140082880131F2E7282C0020BD5E002008B5034B1C
S2140082981B6803B19847002008BD00BF242C0020A7
S2140082A82DE9F74F04460D460026454B454F186006
S2140082B8454B197033010021F85C013610F018F9A7
S2140082C80C2EF7D10C2D28BF0C254FF00009019570
S2140082D83C4EDFF800A13D4DDFF8FC80019B4B4586
S2140082E802DC03B0BDE8F08F23784FF0000B337044
S2140082F863887380A388B380A379C6F80880B371AF
S214008308E379C8F8005088F804304FF00003A768EF
S214008318A8F80630E3795B450ADC012116F8100B4D
S21400832810F0E6F808F1080809F101090C34D5E759
S2140083384FF0000338886B812880FB784FF0000CDC
S2140083482B81BA78C5F804A0002A00920CBF8022B8
S21400835840222A7379680AF10C02634513DC03EBA2
S21400836843030AEB830ABB6843B1009A4FF6FF71D2
S214008378B2FA82F2164B520932F060FC14350BF151
S214008388010B0C37C6E7B1F800E00CF1010C22F837
S2140083980CEC91F802E00C3202F816EC91F804E0C6
S2140083A80C3102F815EC11F809ECBEF1010F14BFF8
S2140083B84FF0100E4FF0110E02F814ECCDE700BF88
S2140083C8282C002010430020BD5E00202C32002000
S2140083D8DD8100002C2C0020AC340020014B1860F6
S2140083E8704700BF202C002070B5128805460E4640
S2140083F8FFF72AFF044670B102790499806815F0E1
S21400840811FB064B1B680BB9002070BD3146284689
S21400841822889847F8E78620F7E700BF202C002038
S21400842808B50FF001F9022806D0012806D0044B3B
S21400843818784000C0B208BD0120FCE70220FAE721
S214008448BC5E0020054B10B51C682CB1FFF7E8FF92
S2140084582346BDE81040184710BD00BF1C2C00205E
S214008468014B1860704700BF1C2C0020034B1A787D
S2140084781AB901221A700BF0DDB87047BC5E0020EE
S2140084880022024B1A70FFF7DDBF00BFBC5E00205B
S21400849837B50446002832D00FF0C6F8022830D187
S2140084A8608932F0B8FFE079237A003818BF0120D7
S2140084B8012B637A08BF40F008000BB140F01000AB
S2140084C863890BB140F00400257CA188A2790DB120
S2140084D8E36873B90C4B10F0E7FB2178084610F0F8
S2140084E85FFC32F0A4FA002814BF0320002003B073
S2140084F830BDCDE90035054B10F0D6FBEDE7022080
S214008508F5E70120F3E700BF67700400163F040094
S2140085182DE9F04186B005460E4690461F469DF862
S21400852834400FF081F8022824D1082C16D8ADF86C
S2140085380C808DF80E702CB122460C990DF10F00A8
S21400854815F0AEFB03AB033400930A22314608202D
S214008558094B019410F0A8FB18B1032006B0BDE83B
S214008568F0812946284610F01BFC32F060FA0028F5
S214008578F4D0F2E70120F1E7163F040008B50DF045
S214008588B7F9014630B1044814F0DCF8BDE80840F5
S2140085980DF052BD08BD00BF79210400034B044A04
S2140085A85B7C012103201370FFF7B2BDF068002042
S2140085B8BE5E002010B50446FFF7F0FFB4F57F4F07
S2140085C80BD100240F4B1A8813449C70FEF730FE1C
S2140085D82046BDE81040FFF7D3BB4FF601739C4218
S2140085E804D1BDE8104008482EF070BA4FF6027362
S2140085F89C4205D1BDE81040044B1878FFF764BBD1
S21400860810BD00BF44570020F0680020DB6E002035
S21400861810B5074C012122460320FFF769FD28B94B
S2140086282378044A003B18BF0123537410BD00BFCB
S214008638BE5E0020F0680020F8B5554B554D1A88E8
S2140086484FF6FF739A4218BF03234FF0080218BF6D
S2140086582B70514B32241A7036221A719A711A727C
S2140086684FF400125C70DC70DC714C4C3026C4642D
S2140086784B4C426404654B4C012284654A4C9E7000
S214008688C4654A4C5E714466494C86188466494CF3
S214008698C6670467484C494E4467202480F87840EB
S2140086A880F8844000F12104C0F88840444C80F8E3
S2140086B84820C0F88C4080F8542080F8602080F865
S2140086C86C20C0F8806080F89020C0F89450C0F8FD
S2140086D8B8303C4B3C4CC0F8BC300223C0F898403D
S2140086E83A4C80F8C030C0F8A4400F24384B80F8C5
S2140086F8A840C0F8C430374B374CC0F8C83082237F
S214008708C0F8AC40354C80F8CC30C0F8B0400924EE
S214008718334B344DC0F8D030334B80F8B440C0F8F3
S214008728D4302C7C314B80F89C20C0F8A00080F810
S214008738D820C0F8DC3044B12D4B80F8E420C0F8CF
S214008748E03005F11103C0F8E8304FF0000CCA79A4
S2140087588E6802EB42039F00443006EB830326F83C
S21400876807C0586001200D349870DC701318CB7160
S214008778FFF798FAFFF74CFFFFF752FE012806D1DD
S2140087882B7C23B1BDE8F84016482EF09FB9F8BDFB
S2140087988C6E0020DC6E0020BF5E002031BA04001C
S2140087A80100200030BA0400020020002FBA04009E
S2140087B8030020002EBA0400040042000500420010
S2140087C807003000FDFF21001200100100404200A3
S2140087D82CBA040000FF44011CBA0400060042003C
S2140087E844570020F068002002FF2001DB6E0020BE
S2140087F801FF100113B504460D482EF063F86422F5
S214008808C0F30F43637083B2B3FBF2F3A078237010
S214008818202201212EF091FAA078212201212EF0A3
S2140088288CFA0449201D02B0BDE810402EF053BA59
S2140088388C6E0020E09304000B7870B583704CF6BD
S2140088481E0303804FF02013C362012380F83030E4
S21400885880F83C30C3180364124B04464364022372
S214008868114A80F84830114B8263C3644063CA7962
S2140088788D6802EB420305EB830004F12C06466084
S2140088880B4E45F8236000238360531CCB71094BBD
S214008898201DC4E90134FFF781FC2046BDE870407E
S2140088A8FFF7A8BFFDFF21002100200032BA040010
S2140088B801000103FD870000437B044A0121137071
S2140088C800781130C0B2FFF723BC00BFC95E002095
S2140088D838B504460078054D11302A460121C0B245
S2140088E8FFF706FC08B92B78637338BDC95E00200D
S2140088F8024B53F820002EF0E7BA00BF0C350020D4
S214008908012908B506D0022907D049B92EF0D3FAAE
S214008918002008BD2EF0D2FAFAE72EF0D2FAF7E7D2
S214008928024813F00FFF0120F3E700BFA62104005A
S21400893810B4054C114654F820001A46BDF8043009
S2140089485DF8044BFFF7DCBF0C350020002310B59C
S214008958044683810364A0F844304830FFF71EFCC1
S214008968014BC4E9123410BDB76E030038B504468F
S2140089780B781A4A43700D4642F82300FFF7E6FFC5
S2140089882046FFF7A5FF4FF4401323610123144A3E
S2140089982375A261134A84F82030E261124A84F8EB
S2140089A82C306262114A84F83830A26204F10C0254
S2140089B822630F4A04F10D036263E363EA79A86849
S2140089C802EB420300EB830110344C60094C40F87C
S2140089D82340094B8B60531CEB7138BD0C350020C7
S2140089E8C85E002008002000DD6E002000FF300072
S2140089F801FF1001020101043989000010B4702437
S214008A08427B0D48013A012904FB020006D00229E0
S214008A1808D059B95DF8044B2EF04DBA5DF8044BF2
S214008A282EF04CBA5DF8044B2EF04BBA03485DF8AE
S214008A38044B13F087BE00BFE81A0020C2210400CA
S214008A48B0F85C302DE9F0418B4204460E4638D02B
S214008A58437B077C8BB31C4A12789A422DD3702529
S214008A681A4A013B05FB032390F80F801B7B4246FE
S214008A782EF038FAB845054601D1FF281FD13A46E8
S214008A883146204694F890302EF02CFA2F460546AC
S214008A98552212216078A4F85C602EF04EF9FF2F5C
S214008AA803D039462046FFF7A9FFFF2D09D02946EF
S214008AB82046BDE8F0412EF055BAFF25DFE7074609
S214008AC8E6E7BDE8F08100BFB15E0020E81A0020A6
S214008AD841688268C978D27849B112B10321FFF794
S214008AE8AFBF837B002B0CBF01210221F7E72AB119
S214008AF8837B002B0CBF02210121F0E7014813F00D
S214008B0821BE00BFD3210400037BD3B14368DA78C3
S214008B1812B18268D278A2B91B7933B1837B002B55
S214008B280CBF04210521FFF78BBF83681B792BB187
S214008B38837B002B0CBF05210421F4E7014813F0C2
S214008B4801BE704705220400084A437B05211370BE
S214008B58837B5370C37B9370037CD370037B137142
S214008B6800780E30C0B2FFF7D3BA00BFCA5E002046
S214008B7838B5044600780C4D0E302A460521C0B29A
S214008B88FFF7B6FA20B1BDE83840084813F0DABD5A
S214008B982B7863736B78A373AB78E373EB782374E3
S214008BA82B79237338BD00BFCA5E0020412204001B
S214008BB8024B53F820002EF01FBA00BF34350020B1
S214008BC8F8B504460B78424A43700D4642F823002F
S214008BD8404E2EF02FFAFFF7CBFF6268A3683E4898
S214008BE83E49D6641165D4655065C3E91410DE6441
S214008BF8DC654FF0987302266361012304F10C01CB
S214008C08E16137491032216204F10D01A16235494C
S214008C182376E16204F10E016163334984F8243057
S214008C28A16304F10F012164304984F8303061648F
S214008C3804F11001E1642E4984F83C3084F8483089
S214008C48216584F85460A265E879A96800EB4002BB
S214008C5801EB820704F1140CC7F804C04FF4817CBA
S214008C68244F41F82270C218D2B202EB420241F8F1
S214008C7822C001EB820700227A601F4A84F870300F
S214008C8822661E4A84F88830A2661D4A1D4BE26694
S214008C981D4AC4F88C3062671C4A8319A26704F11F
S214008CA85C02C4F88020DBB2194A03EB4303C4F81D
S214008CB8842084F8646084F87C6001EB8302603466
S214008CC85460144A033041F82320E871F8BD00BF09
S214008CD834350020D98A0000C36F0300118B0000CA
S214008CE801002001020010010300300104003001D9
S214008CF80500210101FC01064A00210034BA0400DF
S214008D085100100036BA040037BA04005500210096
S214008D186F0018001200010438B50D46044678B1F5
S214008D2871B1F822002114F02BFE0923A360012359
S214008D38044A6560626102F561726382A261A38378
S214008D4838BD00BF6400010070B500287CD000293B
S214008D587AD04FF4D813C36200F1080343633B4B41
S214008D6804228363022300F10C040464384C80F860
S214008D783C30446400F10E04C464364C80F8483035
S214008D88046500F110048465334C80F85430C465DB
S214008D9800F112044466314C80F86030846600F1B5
S214008DA8140404672E4C80F86C30446700F11604EF
S214008DB8C4672C4C80F87830C0F8804000F118045E
S214008DC8C0F88840284C80F8843080F8903080F8C6
S214008DD89C3000F11C03C0F88C40C0F8A03000F1AD
S214008DE81A04224BC0F89440214CC0F8A43000F175
S214008DF8200380F83020C0F8984080F8A820C0F8F3
S214008E08AC301C4B80F8B420C0F8B03000F1240316
S214008E18C0F8B830184B00F12C06C0F8BC30012357
S214008E2880F8C03000F12803C0F8C430CA798C68CE
S214008E3802EB420304EB83056E60104D44F82350A2
S214008E48531CCB710B78037070BD00BF050521005D
S214008E58080521000B05290000062100010621004F
S214008E6802062100030621000406210000FF230055
S214008E780506210001FF230002FF2000040B010D58
S214008E882DE9F7430446002838D02DF02DFFD4F8F6
S214008E98EC508046451BB5F57A7F2FD3B4F8F00022
S214008EA8B4F80C90B4F8F210B4F80EE0A9EB00038E
S214008EB81BB2B4F8F420002BB4F810C0AEEB0107D0
S214008EC83FB2B8BFA0EB0900ACEB0206B8BF03B2CE
S214008ED8002F36B2BCBFA1EB0E010FB2002EBCBFEE
S214008EE8A2EB0C0216B2224A95420AD8042B08DCDA
S214008EF8312F19DC042E2ADCC4F8EC8003B0BDE858
S214008F08F0832346022213F80C0B40F60431CDE911
S214008F180032212340F20552FFF7FAFAA389A4F893
S214008F28F030134B9D42E3D92346022213F80E0B6A
S214008F3840F60431CDE9003221234FF4A162FFF751
S214008F48E7FAE389A4F8F230094B9D42D2D92346C2
S214008F58022213F8100B40F60431CDE9003229231B
S214008F6840F20B52FFF7D4FA238AA4F8F430C3E78A
S214008F78DF93040070B50D460646144613460A46A7
S214008F880146164813F0DEFB25B92046BDE87040BA
S214008F98FFF710BB072D05D121463046BDE87040C7
S214008FA800F012BC4FF601439D4205D121463046DB
S214008FB8BDE87040FFF7FCBD062D05D121463046BA
S214008FC8BDE8704000F0B4B9B5F5817F05D12146FB
S214008FD83046BDE87040FFF78BBC70BD70220400B9
S214008FE80148FFF7FBB900BF7D8F00004FF4C013A0
S214008FF830B5036001230371074B8C688360CA7918
S21400900802EB420304EB83056860044844F8230037
S214009018531CCB7130BD00BF38BA040004000101F0
S214009028F0B5044685B090B32DF05EFE42F20F739D
S214009038D4F888200546821A9A4228D9D4E90263C9
S214009048D4E92401864273EB0107134F21D3BA42B1
S21400905806D8301A63EB01010A2871F1000116D30D
S2140090688DF80C301B0A8DF80D300623019302ABE1
S21400907800930022252340F2027120780296FFF71B
S21400908847FAD4E90223C4E92423C4F8885005B073
S214009098F0BDBA42FBD9E3E7DF93040013B50446F4
S2140090A880B100786A4627300821C0B2FFF720F85A
S2140090B850B9DDE900230948C4E90223C4E924239A
S2140090C813F040FB02B010BD002200230448C4E998
S2140090D80223C4E9242313F035FBF3E7A322040094
S2140090E8CE22040070B50D46044600284FD000294D
S2140090F84DD00B7804F120060370FFF7CFFF4FF42E
S21400910814132362082304F110026263204A84F8C9
S2140091182430A26304F1110222641E4AE318626432
S2140091280422A3621C4B84F84820E362012384F8D7
S214009138542004F11802A265184A04F11401E265E5
S21400914804F11C02E16462661549164A84F8303058
S21400915884F83C3084F8603084F86C3004F11D03E1
S2140091682165A2662367EA79A96802EB420301EB48
S214009178830046600C4841F82300531CEB7129789D
S214009188D4E902230948BDE8704013F0DBBA70BD85
S2140091980003300001032200000218000303180031
S2140091A8020322000603180002070107FC22040037
S2140091B813B5044678B1D0E902230078CDE9002338
S2140091C827306A460821C0B2FEF7A2FFD4E9022378
S2140091D8024813F0B7FA02B010BD00BF2D230400F2
S2140091E830B5044689B040B3436833B31A6822B131
S2140091F8126812B1586801A990479DF81030E3B17B
S2140092080399D4F880208A4207D8D4E902308A1A0B
S2140092189B1840F10000C4E90230C4F880102DF015
S21400922863FDD4F88430064AC31A9342054604D927
S2140092382046FFF7BDFFC4F8845009B030BD00BF14
S214009248DF93040038B50024044D55F8040B08B124
S2140092582DF031FF01340A2CF7D138BD5C350020DB
S214009268042908B50AD172B16BB113781BB92DF071
S2140092784DFF002008BD2DF03FFFFAE7034813F026
S21400928861FA0120F6E70320F4E700BF552304003F
S21400929810B4054C114654F820001A46BDF80430A0
S2140092A85DF8044BFFF7DCBF5C3500200229024658
S2140092B808B50ED004D839B910462DF027FF06E0B9
S2140092C84029F9D0412907D110462DF015FF002076
S2140092D808BD2DF025FFFAE7024813F033FA0120FF
S2140092E8F6E700BF7523040010B4054C114654F881
S2140092F820001A46BDF804305DF8044BFFF7D6BFC9
S2140093085C350020426B094B52791A7082785A7085
S214009318C2789A70826B12B190F83C20DA700078A6
S21400932804210930014AC0B2FEF7F2BECF5E002023
S214009338024B53F820002DF00FBF00BF5C3500200D
S21400934838B504460078084D09302A460421C0B2CC
S214009358FEF7CEFE30B96B78A370AB78E370EB7887
S21400936884F83C3038BD00BFCF5E002038B50446D0
S2140093780078114D09302A460421C0B2FEF7B8FE1F
S214009388C8B9A3782A78022B0CD004D863B920462B
S2140093982DF0BCFE01E0FF2B0AD02046BDE8384081
S2140093A82DF089BE002AF2D120462DF0A5FEF4E75E
S2140093B8002AF9D1EBE738BDCF5E0020F8B50446A1
S2140093C80B78284A0D4642F823004370FFF7B8FF8B
S2140093D8636B254A5C631A632046FFF7C7FF20467F
S2140093E82DF069FE4FF4801363600123626BA66B51
S2140093F80532E2601D4A23722261A21C2375A2610F
S21400940866B11B4A84F82030E261E21C6262194A9F
S21400941884F82C3004F13C03A26223630627EA7919
S214009428A96802EB4203002E21F8237001EB8300A3
S2140094380CBF02230423C370012383700E4B04342D
S2140094488360531C4460DBB20C4C03EB430341F8C7
S214009458234001EB830000234360094B02328360FC
S214009468EA71F8BD5C3500203D7103000340300109
S21400947801FF300102FF1001F19200000800010010
S2140094889992000028B1034B1B78834234BF002012
S21400949801207047B35E002070B500250A4C0B4EBD
S2140094A83378AB4200DC70BDD4F8A42042B12379EF
S2140094B81BB16079FFF7E6FF10B910462DF0F7FAF2
S2140094C80135A834ECE700BFF41E0020B45E002087
S2140094D808B5427901461046FFF7D4FFA8B1CB7805
S2140094E80A48013A042B00EB82100ED8012B08D844
S2140094F81BB9BDE808402DF0FFBDBDE808402DF0BB
S21400950805BEBDE808402DF00BBE08BDF41D0020C2
S21400951808B5427901461046FFF7B4FFA8B1CB78E4
S2140095280A48013A042B00EB82100ED8012B08D803
S2140095381BB9BDE808402DF0E9BDBDE808402DF090
S214009548DBBDBDE808402DF0EBBD08BDF41D0020CE
S21400955810B586B00446FEF763FF012830D1E278DE
S214009568042A2DD8DFE802F01332340303006179A9
S2140095780846FFF787FF58B31648032A00EB811002
S21400958850F80C3C58791DD1003818BF0120637874
S2140095984FF480728DF804304FF48273ADF80630BD
S2140095A80623ADF8083001238DF80B3000238DF81C
S2140095B80A0001A8CDE903238DF81430FEF768FFEA
S2140095C806B010BDB0FA80F04009E0E70020DEE7FC
S2140095D80220DCE7F41D002010B586B00446FEF72E
S2140095E81FFF012830D1E278042A2DD8DFE802F0E0
S2140095F813133203030061790846FFF743FF48B3A5
S2140096081548032A00EB811050F80C3C5B791DD1F5
S2140096181A1E18BF012263788DF80A208DF80430C8
S2140096284FF48273ADF806300623ADF808300123F0
S2140096384FF480728DF80B30002301A8CDE9032380
S2140096488DF81430FEF724FF06B010BDB3FA83F287
S2140096585209E0E70222DEE7F41D002010B586B0C6
S2140096680446FEF7DDFE012812D16378094A8DF814
S21400967804304FF48273ADF806304FF48073CDE9AA
S2140096880223002301A804938DF81430FEF700FF88
S21400969806B010BD0800070110B586B00446FEF7F0
S2140096A8BFFE012820D16278104B8DF804204FF4B5
S2140096B8827294F8A01094F8A10059701870ADF84A
S2140096C8062004934FF480720223094901A88DF8F6
S2140096D81430CDE90212FEF7DBFE94F8A130013B08
S2140096E818BF012384F8A13006B010BDD35E002051
S2140096F80800050110B58378044603B30379022BE6
S2140097080AD142791046FFF7BDFE28B10C48013A47
S21400971800EB82102DF004FDA379022B02D120461F
S214009728FFF716FF2046FFF7B7FF02236078A4F876
S2140097386C305522BDE8104012212DF0FEBA10BD3F
S214009748F41D00204388094A082113808388538023
S21400975883681B8A938090F8A03093718379D371BD
S21400976800780430C0B2FEF7D3BC00BFC65700204E
S21400977838B50D4604460178114812F0E3FF4FF657
S21400978802739D420ED10F4B1B782BB9637120468E
S214009798BDE83840FFF7D6BF62790AB19342F6D2E1
S2140097A80123F3E7B5F57F4FF1D120462DF051FDA3
S2140097B8A378022B0CBF01220022A3689A70E6E762
S2140097C891230400B35E0020024B53F82000FFF7F5
S2140097D8CFBF00BF8435002038B504460078144D46
S2140097E804302A460821C0B2FEF782FC20B1BDE844
S2140097F83840104812F0A6BF2B8863806B88E9783B
S214009808A380AA88A3681A82AB7984F8A030EB797B
S214009818A371094B1B780BB9637138BD09B199421E
S214009828FBD9064812F08EFF23780133F4E700BF11
S214009838C6570020AB230400B35E0020D4230400E0
S214009848F8B504460B78474A0D4642F8230043709D
S214009858FFF7C2FFA268444BD465D364434B022685
S2140098685365434BA11C13654FF44013E360012373
S2140098786161E1623F49103221632265211D3E4A3B
S214009888A1633E483E49626504F1A002A061E16317
S214009898E265E01C611D3B4A206261643A483B4928
S2140098A82266A21D2374237784F8283084F834307F
S2140098B884F84030A16484F84C6084F8583084F802
S2140098C864306062A266E879AA6800EB400102EBA1
S2140098D8810704F10C0CC7F804C04FF0060C2C4F97
S2140098E842F82170C118C9B201EB410142F821C003
S2140098F802EB810700217960264F84F880302767BD
S214009908254F84F89830A767244F254BE767254FDF
S21400991884F8746084F88C60C4F89C3004F16C0693
S214009928831CC4F88470C4F890601F4F1F4EDBB2C7
S21400993803EB4303C4F89460C4F8887002EB83060C
S2140099487034746008261A4C42F82340C31CDBB2F5
S21400995803EB430302EB8304043042F823606160A0
S214009968E871F8BD84350020B1710300FB7103006F
S214009978FD96000001FF300104FF200110003001B1
S21400998802FF200105FF300100FF300103FF21011F
S214009998070001084A0021003ABA040051001000E6
S2140099A83CBA04003DBA0400550021006F001800B8
S2140099B81200010400239B6AB3F5C04F03D219684E
S2140099C8064A914203D00023037083607047012241
S2140099D802709A689B694260F7E700BF07B0CD5EE1
S2140099E8024B034A1A602EF084BE00BF0000002017
S2140099F802020FF073B5534B04461A781AB10222C6
S214009A081A7002B070BDCDE900220028F9D00126F0
S214009A181E7037F0A7FE4C4D4C4B186017F094F8A4
S214009A282B785BB902F062FA40B949480823494ADC
S214009A384949006801F0A8FE00B92E70474B5A6ED7
S214009A4862619B6E464AA3614FF40043936603F136
S214009A5888435968E16143499960196E2160596ED7
S214009A686160D3F87011A160196CE160596C2161CE
S214009A783D49086C1864496C5964012151664FF4D5
S214009A88005191661A6E560436D53849CA68D40706
S214009A98FCD45B6E5A0434D5354AD36B13F0430FA7
S214009AA8FBD1344B1A68531C31D04FF40013934043
S214009AB8314A13660423304C684623664FF48063A5
S214009AC82366102323664FF4005323664FF0804323
S214009AD823664FF4804301A963662DF0D2FB009BF2
S214009AE82366019B63662B78002B8AD0194B1A686D
S214009AF822665B68636684E72049CA68D007FCD498
S214009B08C7E71F4AD36B13F0430FFBD1C9E71D4BBA
S214009B181B78002BCED14FF48072114B5A661A4A26
S214009B2852681AB94FF40011134A11664FF40072BE
S214009B385A66164B5B68002BBCD14FF480020E4B5E
S214009B481A66B7E7D65E0020D75E0020CC35002020
S214009B585C690020D03500200071080000800050A5
S214009B680090005055CEAC0000C0005400000440E1
S214009B780000024C286900200090004400000450B1
S214009B880000025CD55E002000C0055000000650AC
S214009B9870B52C4D04462E78012E02D001232B706A
S214009BA870BD0028FCD02DF091FB01300BD02DF0B5
S214009BB88DFB40F20113984205D0234B234A5E667C
S214009BC8D368DE07FCD4224B22491B6E13F0040F21
S214009BD84FF4005314BF1C4A1F4A9366CA6B12F010
S214009BE84302FBD121681A4B196661685966A16859
S214009BF8C3F87011E168196421695964E169C807F6
S214009C0848BF9A60154B1A6801320DD1144A12786B
S214009C1852B914494968C90748BF1A60124A5268B7
S214009C28D20744BF01221A606269104B5A66A269BD
S214009C389A6616F091FF0E4B186837F08EFD0023D3
S214009C48ADE700BFD65E002000900040000004404C
S214009C58008000440000024C009000502869002054
S214009C68D55E002000C00550000006500080005059
S214009C78CC35002070B50024A36AB3F5C04F23D2B4
S214009C881A68134B9A421FD1124E337813F0FD050B
S214009C9818D14FF480341048FFF7ACFE032004F0C8
S214009CA8B9FC0E4B0320DC6004F098FC0C4B1C61DE
S214009CB8AB6ADB69984704460748FFF769FF0CB9A3
S214009CC801233370204670BD4FF48174FAE700BF55
S214009CD807B0CD5ED55E0020AC35002000A000445D
S214009CE80090004413B5204B1B7803B9FEE7002309
S214009CF81E4CCDE900336A4608231D49206801F04A
S214009D0843FDF8B91B4AD2F84031D2F840211F2B40
S214009D184FF0010311D9203A9340019A1A43019251
S214009D2808236A461249206801F0B6FE124B134A09
S214009D381A602EF0DEFC02B010BD9340009A1A435B
S214009D480092EDE72D28F1D10A4AD2F84031D2F830
S214009D5840211F2B4FF0010385BF203A93409340C4
S214009D68019398BF0093DBE7D65E00205C6900206D
S214009D780071080000800044000000200B020FF06D
S214009D8838B50025AB6A0446B3F5C04F10D21B6B36
S214009D98B3F5C04F0CD20748FFF72CFEAB6A204637
S214009DA81B6B5B689847BDE838400248FFF7F0BE73
S214009DB838BD00BFD835002013B50024A36A01902B
S214009DC8B3F5C04F13D21B6BB3F5C04F0FD209487B
S214009DD8FFF710FEA36A01211B6B01A89B69984731
S214009DE804460448FFF7D4FE204602B010BD4FF4E0
S214009DF88174F9E7D835002070B50026B36A0446A2
S214009E08B3F5C04F0D4612D21B6BB3F5C04F0ED23A
S214009E180848FFF7EFFDB36A20461B6B29469B6987
S214009E28984704460348FFF7B3FE204670BD4FF434
S214009E388174FAE7D835002070B50026B36A044660
S214009E48B3F5C04F0D4612D21B6BB3F5C04F0ED2FA
S214009E580848FFF7CFFDB36A20461B6B2946DB6927
S214009E68984704460348FFF793FE204670BD4FF414
S214009E788174FAE7D8350020F8B50027BB6A04468F
S214009E88B3F5C04F0D46164611D21B6B7BB1094879
S214009E98FFF7B0FDBB6A20461B6B324629465B6A55
S214009EA8984704460348FFF773FE2046F8BD4FF46C
S214009EB80174FAE7D835002070B50026B36A044660
S214009EC8B3F5C04F0D4612D21B6BB3F5C04F0ED27A
S214009ED80848FFF78FFDB36A20461B6B29469B6A26
S214009EE8984704460348FFF753FE204670BD4FF4D4
S214009EF80174FAE7D8350020F0B50027BB6A044697
S214009F08B3F5C04F0D461646ADF5177D20D21B6B30
S214009F18B3F5C04F1CD21048FFF76CFDBB6A20464D
S214009F281B6B40F251225B6A01A99847044630B180
S214009F380948FFF72DFE20460DF5177DF0BD836A0C
S214009F4832461B6B2946DB6A01A898470446EFE7AA
S214009F584FF40174EFE700BFD835002010B5002491
S214009F68A36AB3F5C04F10D21B6BB3F5C04F0CD223
S214009F780748FFF73FFDA36A1B6B1B6B9847044611
S214009F880348FFF705FE204610BD0124FBE700BF87
S214009F98D8350020F0B58FB0044601A80E46154601
S214009FA8FFF7EEFE9DF80C30012B12D1B5F5002F09
S214009FB827D8B4F5002F24D86319B3F5002F20D876
S214009FC821462A46304613F06BFE002420460FB082
S214009FD8F0BD0027BB6AB3F5C04F15D21B6BB3F5AF
S214009FE8C04F11D20A48FFF705FDBB6A2A461B6B0D
S214009FF8314620465B6B984704460548FFF7C8FD80
S21400A008E4E740F20244E1E740F20114DEE700BF6D
S21400A018D8350020F0B58FB0044601A80E46154680
S21400A028FFF7AEFE9DF80C30012B1FD1B5F5002FBB
S21400A03806D8B4F5002F03D86319B3F5002F13D943
S21400A04840F2024420460FB0F0BDE258013225D156
S21400A05804339D42F9D82A463146204600F082F855
S21400A0680028EDD00024EDE70023F2E70027BB6ABE
S21400A078B3F5C04F15D21B6BB3F5C04F11D20A48C3
S21400A088FFF7B8FCBB6A2A461B6B314620469B6B1B
S21400A098984704460448FFF77BFDD3E740F203449D
S21400A0A8D0E740F20114CDE7D835002070B58EB061
S21400A0B8044601A80D46FFF763FE9DF80C30012BF9
S21400A0C822D144EA0503C3F30C03002B33D1B5F5BC
S21400A0D8002F04D940F2024420460EB070BDB4F5F5
S21400A0E8002FF7D82544B5F5002FF3D8204604F5F9
S21400A0F8005400F029F8AC4202D00028F6D1E9E76F
S21400A1080028E7D00024E7E70026B36AB3F5C04F77
S21400A11814D21B6BB3F5C04F10D20A48FFF76AFC7F
S21400A128B36A29461B6B2046DB6B984704460548EE
S21400A138FFF72EFDD0E740F20444CDE740F20114C5
S21400A148CAE700BFD83500204FF4003208B5044BE4
S21400A1589A6637F0B5FDB0FA80F0400908BD00BF32
S21400A16800900050134610B562B103439B070BD10D
S21400A1784FF40034054B9C6637F09AFDB0FA80F031
S21400A188400910BD0120FCE70020FAE700900050C7
S21400A198BFF34F8F0549064BCA6802F4E0621343C3
S21400A1A8CB60BFF34F8F00BFFDE700BF00ED00E0B8
S21400A1B80400FA0570B5D0B1C9B10E4E431E013978
S21400A1C813F8014F2046325D02F00302012A11F807
S21400A1D8012F08BF04F12000B55C05F00305012D2A
S21400A1E808BF2032801A01D1002CE9D170BD0120A9
S21400A1F8FCE700BF59E104000348044A0449121A60
S21400A20892102DF0C8B800BF406100001863000027
S21400A2182066002008B5154B83F30A8800F030F84E
S21400A228FFF7EAFF124B13498B4212D30020124B5A
S21400A23812498B4218D3FCF775FD186850F822406F
S21400A248586840F82240013298688242F5D30C33A9
S21400A258EAE70022F8E71C6844F8220001325C6846
S21400A268A242F8D30833E4E70022F8E70800002003
S21400A278A41D0500B01D0500B01D0500B01D050095
S21400A2884FF40041134B144A70B59A60D3F88820EF
S21400A298124D42F47002C3F88820114A05F500549E
S21400A2A891664FF0FF3222664FF6DF726266022230
S21400A2B8C3F8D020BFF34F8FBFF36F8F4FF44036ED
S21400A2C8032004F0A7F90320E66004F087F92E615E
S21400A2D870BD00BF00ED00E0006000000080004494
S21400A2E800900050054B1860054B1B6F03F00703E2
S21400A2F8032B01D135F0DCBA704700BF386900205F
S21400A308008000502DE9F04104464FF001080C2566
S21400A3180D4E0CB9BDE8F08194FAA4F0B0FA80F0BE
S21400A3280F2808FA00F2C8BF103824EA0204CABF89
S21400A33805FB006205FB0062B4325768002FE8D0C0
S21400A3489168C0B2B847E4E7F835002008B50C486D
S21400A35837F029FA192004F04FF928B1192004F02B
S21400A36859F9192004F03AF91A2004F045F928B1E9
S21400A3781A2004F04FF91A2004F030F9002008BD1E
S21400A38840BC04002DE9F0410E461746054618B3B2
S21400A3980F2923D80378DBB1013BDBB2022B19D88F
S21400A3A8104AD35C6A78D340DB0717D50E4BD3F830
S21400A3B81043ACB937F0D6F980463A4628463146B7
S21400A3C803F064F8404637F0C8F92046BDE8F08147
S21400A3D87F23E7E70023E5E72224F6E72124F4E7CE
S21400A3E80224F2E790BA040000C0035010B50446F1
S21400A3F810B30378E3B1013BDBB2022B1AD8104A3C
S21400A408D35C6278D340DB0718D537F0ABF9012266
S21400A418617823788A4030214B4341F2100103F1DA
S21400A428A04303F570335A5037F097F9002010BD53
S21400A4387F23E6E70023E4E72220F8E72120F6E773
S21400A44890BA040010B5044610B30378E3B1013B94
S21400A458DBB2022B1AD8104AD35C6278D340DB07EB
S21400A46818D537F07FF90122617823788A403021A1
S21400A4784B4342F2100103F1A04303F570335A50E0
S21400A48837F06BF9002010BD7F23E6E70023E4E7EA
S21400A4982220F8E72120F6E790BA040038B50D46E2
S21400A4A8044618B311B30378E3B1013BDBB2022BC1
S21400A4B81AD8104AD35C6278D340DB0718D537F031
S21400A4C851F930222378534303F1A04303F5703340
S21400A4D85B696278D34003F001032B7037F03DF9CF
S21400A4E8002038BD7F23E6E70023E4E72220F8E7CC
S21400A4F82120F6E790BA04002DE9F0410D461646ED
S21400A5089846044600284FD000294DD001780029E7
S21400A51840D04B1EDBB2022B3ED8254AD25C63786D
S21400A528DA40D20701D4FF2940D1022E01D9042EE1
S21400A5383CD137F017F923780746FF2B05D032466B
S21400A5482046296802F0E8FF28602B68013309D105
S21400A5582378FF2B06D1174B6078D3F824142DF0F8
S21400A568EBFC286029684B1C18D00C23124A03FB06
S21400A5780122069BC2F8048093602378FF2B04D040
S21400A58801230E4A8B40C2F82434384637F0E5F8E3
S21400A598002007E07F22C2E70022C0E7384637F0EF
S21400A5A8DCF82D20BDE8F0812220FBE72120F9E722
S21400A5B890BA040000C00350F835002000D00350BD
S21400A5C808B502F059FF054B00F0553020F0502032
S21400A5D8C3F82004BDE80840FFF794BE00E0035027
S21400A5E808B502F049FF054B00F0AA3020F0A0207D
S21400A5F8C3F82004BDE80840FFF784BE00E0035017
S21400A6082DE9F04F144605460E469B46C36B87B0A9
S21400A61801225B6902A960689847EB6B01225B69B7
S21400A62803A93046984702A82DF0B4FA074648B161
S21400A6380023A37563754FF0FF33A360002007B0AF
S21400A648BDE8F08F03A82DF0B2FA0123A375237E88
S21400A65804EBC303DE611F846368B3420ED1206037
S21400A66803A82DF0C6FA4FF0FF332075A360237DAC
S21400A678043B022B26D80023A375DFE723681A1AA3
S21400A68853425341A37503A82DF0B3FA237D8342A2
S21400A69818BFA77503A82DF08EFA074602A82DF056
S21400A6A88AFA874218BF002303A818BFA3752DF09F
S21400A6B88AFA074602A82DF086FA87421CBF0023AE
S21400A6C8A375D4E703A82DF076FA80B1EB6B0222C7
S21400A6D830465B6904A9984704A82DF07BFA034620
S21400A6E8207D032839D8DFE800F03838040903A8A5
S21400A6F8F3E7CC22237E04EBC3031A8401F06EFC36
S21400A708109B187003A8277E2DF049FA04EBC7079C
S21400A71887F82200237E03A804EBC303B3F820902F
S21400A72893F822702DF047FA804603A82DF04BFACE
S21400A7388246B8F1000F15D0EB6B022230465B69F3
S21400A74804A9984704A82DF00AFA6075637D6BB9CA
S21400A7580023A3754FF0000838E0227E04EBC202FF
S21400A7681384CBE703A82DF0E5F9EEE794F81680F6
S21400A778B8F1000FEED0B9F1000F09D1DFB101230F
S21400A788E375637E002B4FD1012F42D1677614E024
S21400A7986B6C06EB0A015A4286EA010010421CBF9F
S21400A7A80022A2755A1E0A409B1A9945D0D8A37D46
S21400A7B8002BE3D1CEE7E37D43B94FF000084B46C4
S21400A7C85246314628462CF030FFA060A27D12B1D2
S21400A7D823694B4423611A49237E097899422AD96A
S21400A7E801332376BBF1000F27D032B3E37D23B3C2
S21400A7F8B8F1000F21D1032F1FD0A1684B1C1CD025
S21400A808109B2246009328460123FFF7F9FEA07501
S21400A81813E095F8343063B9EB6A0133CFD1032FD0
S21400A828CDD10123A376C8E7012FCFD0032FC4D1FB
S21400A838F7E79846C3E70023A375A07DFFE600BFA9
S21400A848B4BA04002DE9F04F0E46984600238BB0A4
S21400A85804464FF0FF31104617468DF8133001F0C6
S21400A868A7FBB6F5801F20D2314605AA04F10800DA
S21400A8782DF0E2F8451C014603D1237CBBB92D20F8
S21400A88810E0384601F094FB0122394620460DF1C7
S21400A89813032CF01CFF0028EFD09DF8133088F81F
S21400A8A8003000200BB0BDE8F08FB01CE5D1E56A9B
S21400A8B8691C36D12046616A2CF0FDFD0546B31C9E
S21400A8C818BF0123DFF8CC900193636A626C029389
S21400A8D8236805A902FB053AE36B05225B69504627
S21400A8E8984705A82DF0F1F92DF014FA50462DF0EA
S21400A8F81CFA4FF0000B824601464B1C05D0636CD1
S21400A90881EA0A025B42134211D0294620462CF0FF
S21400A918D2FD029BAB422CD0BBF1000F2CD10546D2
S21400A928D3E72368ED1A636CB5FBF3F5C7E748462B
S21400A93801F03EFB0DF1130349462046019A2CF020
S21400A948C6FE034690B1B21C03D0D9F80020B24226
S21400A9580CD19DF8132003930D4B88F80020494628
S21400A9681A68384613F09CF9039B9B46D9F80810DA
S21400A978C3E7BBF1000F82D0B6F5801F91D23146EF
S21400A98898F800307A6804F1080001F03FFA88E782
S21400A998B0BA0400D43D00202DE9F341044617461A
S21400A9A898460E46184D816AE36A8B4201D04B1CC6
S21400A9B802D102B0BDE8F081284601F0F9FA01227A
S21400A9C8294620460DF107032CF081FE38B1434690
S21400A9D8294620469DF80720B8470028E9D0A968E8
S21400A9E84A1C04D1696820462CF0F2FD0146012E67
S21400A9F8DAD16B6881EA0302636C5B421A4218BFBD
S21400AA084FF0FF31D0E700BFA83D00202DE9F04FFA
S21400AA184FF0FF334FF6FF720025044600F1080694
S21400AA28C0E909238BB0C3620562056330468846D1
S21400AA382CF0D3FF20462CF00EFD60BB2046414686
S21400AA482CF089FD20462CF006FD60BB5E200BB07E
S21400AA58BDE8F08F2368E26B606C576900FB053031
S21400AA68052205A9B84705A82DF02FF9012807469D
S21400AA780CD1294620462CF03FFD012F024600D176
S21400AA880132294620462CF005FD03E02DF047F953
S21400AA980028EED10135E3699D42DBD320462CF031
S21400AAA8DAFC0028CAD000254FF0FF394FF6FF73AE
S21400AAB8CA46A846C4E90853E36998450AD3A5EBED
S21400AAC80905012D2CD84FF6FF72636A93423CD1D4
S21400AAD86720BCE72368E26B606C576900FB0830A8
S21400AAE8052205A9B84705A82DF0EFF8834605A85E
S21400AAF82DF0C2F8074658462DF00CF968B15745B0
S21400AB0838BFC4F82480B94528BFB946BD4238BF07
S21400AB183D46BA46236A0133236208F10108CBE7AB
S21400AB284FF6FF7300256362E3699D42CBD2676CDC
S21400AB382068E36B052207FB05005B6905A99847B3
S21400AB4805A82DF099F80135EEE7E26B676C2068EA
S21400AB58694607FB030055690522A84768462DF095
S21400AB688BF8626A2368606C4B4D00FB02302DF050
S21400AB78DCF84FF0FF33A062E3622A466FF001016B
S21400AB88204605ABFFF75EFE002846D1AD6829468D
S21400AB982046E5622CF03BFC206320B92046E16A9B
S21400ABA82CF016FDE062294620462CF011FD0546DD
S21400ABB8A36A9D4233D120462CF0FCFB0027804632
S21400ABC8B946E36999453CD3B84559D92046616AE0
S21400ABD82CF071FC0026054604F1400AB74212D84C
S21400ABE8626C2368694602FB0539E36B05225B69DC
S21400ABF84846984768462DF03FF853460246494669
S21400AC08E06B2DF094F8294620462CF054FC0136CB
S21400AC18B0450546E2D1642019E7A56AB7E7294694
S21400AC2820462CF0F4FB236B29460344074623638F
S21400AC3820462CF0CDFC0546002FB9D1C4E90B07F9
S21400AC48B6E7636C2568052203FB0955E36B05A97F
S21400AC585B692846984705A82DF037F82DF05AF86E
S21400AC6858B128462DF061F8014620462CF0CFFB57
S21400AC78636C143B984208BF013709F10109A0E745
S21400AC8830462CF0AAFE002320461946034AFFF752
S21400AC9883FE0020DBE600BF003E0020C5760300EA
S21400ACA82DE9F041036B9046826B07689A4288BF8D
S21400ACB88363426C436A90B002FB0377C36B0E460D
S21400ACC8052201A95B6904463846984701A82CF076
S21400ACD8FCFF01280146307057D0656CE26B23688C
S21400ACE8606AD2F814C005FB0030052206A9E047C2
S21400ACF806A82CF0EAFF01284FF0000523D0D4E977
S21400AD080A3201219342CDE90B458DF834800E9521
S21400AD188DF83C102AD1194620462CF059FC236B96
S21400AD28626C14339B1AE06223630C9B53B99DF83C
S21400AD383C303BB1626A616C2368E06B01FB023110
S21400AD482CF07BFF0C9DE36B05225B6901A9384656
S21400AD58984701A82CF0B9FF30702846236BA26BE1
S21400AD689A4288BFA36310B0BDE8F081237C33B94C
S21400AD781C490BAA04F1080001F096F8D5E720460E
S21400AD88194A0BABFFF708FECFE7237C23BB224606
S21400AD98164904F1080001F087F8616A20462CF08D
S21400ADA8ABFB616A421C20462CF074FB054620B9B2
S21400ADB8236B626C1344143B23632046A16A2CF071
S21400ADC807FC2368A062C01A636CB0FBF3F06062ED
S21400ADD820462CF040FCB6E700232046044AFFF73E
S21400ADE8DBFDDAE74DB50000C9B400005F77030065
S21400ADF8FB76030073B50D46D11E4A421C461B7EE1
S21400AE084A419A4226D129682368994222D3636820
S21400AE1899421FD8114E0DF107033246FFF712FD6F
S21400AE28C0B972686B689A4214D19DF80730DA1E6A
S21400AE3853425341227E93420CD1636901336361C6
S21400AE48D4E90323934205D22968A26842F823105E
S21400AE5801332361012002B070BD00BF003E002010
S21400AE682DE9F04F9B4689B09DF848309046514AE8
S21400AE780193136907465B450D46C0F09580D94691
S21400AE8853680093B9F1000F7BD0FB6B01225B6916
S21400AE9805A90098984705A82CF089FE454B1B681D
S21400AEA8984240F0848005A82CF08DFE04280646BB
S21400AEB815D105A82CF08EFE009B04461E44019B67
S21400AEC8002B3ED1804512D91C46A8EB0008384610
S21400AED800992CF07DFBA9EB04090090D2E7FB6BE8
S21400AEE802225B69009806A9984706A8E2E7A0EB45
S21400AEF808045C4528BF5C46032C4644ABEB040BB1
S21400AF081DD9FB6B294630465B69A208984724F092
S21400AF18030304F0030A1E441D44DDF80480BAF156
S21400AF28000FD4D0FB6B012206A930465B69984710
S21400AF385246284606A912F0B3FE5544C7E7A2466D
S21400AF48EBE7824600F0030302932B1803930644AC
S21400AF58039BA6EB0A00A3EB0A05029B9A4514D1AD
S21400AF68BAF1000FB3D0FB6B012206A95B699847BC
S21400AF785246284606A913F04FF80028DDD04FF0B1
S21400AF883609484609B0BDE8F08FFB6B012206A9D2
S21400AF985B6998470422284606A913F03DF800285E
S21400AFA8EDD1AAF1040AD3E74FF06309E9E74FF0B9
S21400AFB86F09E6E72C3E00202DE9F0410F461646BD
S21400AFC89846044688B060B390F83450FDB1012125
S21400AFD82CF036FA00210E9BCDE90511CDE9023793
S21400AFE89DF83C30CDF804808DF81C30237C049600
S21400AFF88BB90D4901AA04F1080000F055FFDDE9F8
S21400B0080553E06B002E08BF1D462CF0B2FB284601
S21400B01808B0BDE8F0812046044A01ABFFF7BCFC47
S21400B028EDE70546F3E700BF29770300FDAD00000E
S21400B0387FB590F84260044601920DF10B030A466C
S21400B048304611492CF09DFB012E0546E36B17D1BF
S21400B05832465B6903A998479DF80B10039B019A33
S21400B06859B19BB243EA0243012228460393E36B95
S21400B07803A99B69984704B070BD62F30F03F3E712
S21400B08801229B6901A9F5E72C3E00202DE9F04F27
S21400B09899B00E460D920A69416C0B931439D31D6C
S21400B0A8B3FBF1F3013302EBC302036B044693428E
S21400B0B8C0F001820023DFF804940893E36A484648
S21400B0C81946059300F074FFD6E9033707930B9BE0
S21400B0D8022B4DD1CC2F40F0D7810D9B3BB131468A
S21400B0E820462CF0A4FB656C1490012044E0012057
S21400B0F8079B656C1B68149300F0010000280CBFC2
S21400B10804230823782F0E9349D8059A6B1E1340FC
S21400B118ED1A3B1D9D423CD2002F3DD0082D3ED84F
S21400B1280023042506934FF0040A336806990B9803
S21400B138C9F80030C9F810702CF05FFD4FEA9A0382
S21400B1480F93059B89F814000393002309930C9327
S21400B15804930A93616C039B4A1E1A408B1A27B302
S21400B1685544AB4223D8236B5B1A134423632FE161
S21400B178782F656CB9D8F07D0D9B002BBCD0E36B9F
S21400B18801225B69706816A9984716A82CF013FD6B
S21400B198B4E700250695C6E704250697C3E7012306
S21400B1A800254FF0080A0693BFE75345DBD3A3EB09
S21400B1B80A029742039BB84628BF904697425344D4
S21400B1C828D90122D9F8101089F817208F4226D1DD
S21400B1D80399C9F80410049299F817200AB399F845
S21400B1E818100398CA1C09EBC20250600498013173
S21400B1F8A2F80880907289F81810B8F1000F07D0E6
S21400B2080B9A022A40F08180099A72B101220992AB
S21400B2189B46ABE0049A002A18BF0322DBE702220B
S21400B228D9E7039AC9F80420E7E70C9A4244032AA8
S21400B238EED9E26B1846956914A901220993A84726
S21400B248099B05460028E1D03D2D40F01E8104F1FB
S21400B258080303932368059A606CA2EB030ABAFBFB
S21400B268F0FA00FB0A302CF060FDE16A80462046C2
S21400B2782CF0AEF9A26A824200F00F81626CD9F80F
S21400B2880830511E0B40216B2768891A0B4423632C
S21400B298089BE062DF1BB7FBF2F7BA4540F0FA807E
S21400B2A8059BB3EB080A12D0E36B4FEA9A024146B5
S21400B2B89B6998478346E36A059A5344E362236B7F
S21400B2C803989B1A434423632CF087FBDA462368CB
S21400B2D8616CE06B01FB07312CF09CFC20462CF0DF
S21400B2E8BAF820462CF0B7F92063BAF1000F00F040
S21400B2F8D4803269616CD31D1439B3FBF1F3013382
S21400B30802EBC3029042A5D2BFE00D9A002A77D17D
S21400B318B8F1030F4FEA98026ED9E16B18468D69AB
S21400B32807991093A847109B0546C0B918F003055F
S21400B33815D0079A28F0030B02EB0B019B444FF03D
S21400B348FF3215A815922A46109312F0A9FCE26B54
S21400B3585846956915A90122A8470546109B9B469D
S21400B368079A42440792002D40F08B80049B16A84B
S21400B3780193069B009399F814204346316800F021
S21400B388CDFDE36B0F9A9B69039816A99847039A15
S21400B398051E089B18BF1346089343465246204688
S21400B3A803992CF042F9236B08F10302A3EB0A0376
S21400B3B822F003029B1AC9F808002363002D7FF4C5
S21400B3C843AF0C9BA7EB080743440C93CDF80CB08F
S21400B3D8204603992CF0FCF800250390002F7FF4F4
S21400B3E8B9AE364A3168936804F10800E3625268D9
S21400B3F80B9B00F00BFD49E09B46454607999EE7E8
S21400B4089B4606F120021092F27D7068A2B10022D7
S21400B41896F818C00A99D5B2AC4511D9109D02F114
S21400B428010E35F832508D4228D90E9806EBC20226
S21400B4380144D069084403E00E9A0A990A44104465
S21400B448E26B15A9556901221193A847159A0A9B1C
S21400B4581392E26B043395695846012213A90A939E
S21400B468A847119B054603EB0802A2EB0B02042A29
S21400B4787FF679AF28B90BF1040BC5E77246491B6E
S21400B488C9E7CDF820B088E770252F46384619B0AA
S21400B498BDE8F08F4FF0000A19E73269616CD31DDA
S21400B4A81439B3FBF1F3013302EBC302236B934267
S21400B4B8BFF404AEE9E71C27E8E700BFD43D002048
S21400B4C8032A2DE9F34106460D4617461C4606D1C3
S21400B4D8237A012B23D0012002B0BDE8F081DFF8E3
S21400B4E86080096842460DF10703FFF7ABF9606014
S21400B4F80028EDD19DF80720237A032AE8D0D8F84B
S21400B50804106A689142E3D1012B2969D4F80CC06B
S21400B51807D172690CEB0103934202D92074207C90
S21400B528DAE708316144E1603B46012229463046A5
S21400B538FFF7ACFD60600028CAD00020CCE700BF4B
S21400B548003E00202DE9F341089C032A174626688A
S21400B55806D1237A012B24D0012002B0BDE8F08161
S21400B568DFF89080304642460DF10703FFF76AF988
S21400B57860600028EDD12568D8F80400A96AD5F8D7
S21400B58844C04840CCF100031840227AE1D1012A91
S21400B59809D1E268D8F8103013447269934202D988
S21400B5A82074207CD9E72868EB6A1B1A081AB3FBB4
S21400B5B8FCF3B0FBFCF083420BD1706CF36A421EBE
S21400B5C81340326B121A1344284633632CF000F8E3
S21400B5D8E862D8F81020E36808321344E3600122D2
S21400B5E83B4604492068FFF751FD60600028B0D04C
S21400B5F80020B2E7003E00202DE9F0410025604B10
S21400B6080E46D3F8008004461D6018B92125284642
S21400B618BDE8F08190F8347007B30A6803689A4268
S21400B62840F0A3804A6843689A4240F09E808A6841
S21400B63883689A4240F09980CA68C3689A4240F084
S21400B64894800A6943699A4240F08F808A69C36B7E
S21400B6589A4240F08A804B698361D8E76822394667
S21400B668856B12F08DF9D6E90212336804F10800EA
S21400B67823607368A5636360336963617369A36154
S21400B6882CF0BDF9B36904F14000E3639B68984762
S21400B69820B9676C17B16368B3FBF7F794F84330C3
S21400B6A8E761002BB2D00023656C2366002D64D0BA
S21400B6B8002F62D02368B3FBF5F205FB1233002B8C
S21400B6C855D16668B6FBF5F305FB1363002B4ED120
S21400B6D820462BF08CFEA369043303449E4248D3CD
S21400B6E840F634726369CC3B934244D8B5F5805F24
S21400B6F843D3032120462BF0A3FED4E90001E36BD5
S21400B7081B6898470546E36B0220DB689847CDB967
S21400B71841462046FFF77AF96428054604D1414693
S21400B7282046FFF773F90546666C5DB9236A20461E
S21400B738143E5E432BF05BFEA369043303449E422B
S21400B74838BF5A25002D0CBF0123002384F8343057
S21400B75807D1D4E900010B4A1368013313602CF0B3
S21400B768E8F9E06B2CF005F851E75D254FE7592519
S21400B7784DE75A254BE75F2549E75B2547E700BFB6
S21400B78864370020603700202DE9FF410C46164636
S21400B7981F46054680B390F834307BB3B1F5801F5A
S21400B7A82ED2DFF8608001212BF04AFE2146424661
S21400B7B828460DF10F03FFF745F8044670B99DF8C3
S21400B7C80F30012B11D1D8F81030BB4212D10246E7
S21400B7D8009031462846FFF743FB0446E86B2BF0FB
S21400B7E8C8FF204604B0BDE8F081022B14BF2D2404
S21400B7F86024F3E76324F1E72124F2E71124F0E755
S21400B8082924EEE72C3E00202DE9F04385B00C46AF
S21400B81817461E460546DDF8308098B390F8343053
S21400B82893B3B1F5801F31D2DFF8649001212BF075
S21400B83807FE21464A4628460DF10F03FFF702F891
S21400B848044688B99DF80F30012B14D1D9F810207A
S21400B85806EB08039A4213D300904346324639460D
S21400B8682846FFF7FDFA0446E86B2BF082FF2046D1
S21400B87805B0BDE8F083022B14BF2D246024F3E73F
S21400B8886324F1E72124F2E71124F0E72924EEE700
S21400B8982C3E002073B50C461646054630B390F885
S21400B8A834302BB3B1F5801F24D201212BF0C8FD0C
S21400B8B821462846104A0DF10703FEF7C3FF044643
