S01B00006275696C642F72656C656173652F7A69676265652E73333714
S21400400008100020119E0000F1E70000D5360300DE
S214004010D5360300F9E7000001E80000D5360300B6
S214004020D5360300D5360300D5360300D536030053
S21400403005E8000098820400D5360300D536030054
S214004040D5360300D5360300D5360300299900007F
S214004050D5360300D5360300D5360300D536030023
S214004060D5360300D536030005ED0000AD28030065
S214004070D5360300D5360300D5360300D536030003
S214004080D5360300D5360300D5360300D5360300F3
S214004090D5360300D5360300D5360300D5360300E3
S2140040A0D5360300D9A10000BDA10000D536030017
S2140040B0D5360300D5360300D5360300ED400200A2
S2140040C0119303000D930300513802002793030059
S2140040D015930300AD40020019930300E12402008B
S2140040E02D410200D5360300D5360300D536030031
S2140040F0D5360300D5360300D5360300D536030083
S214004100D5360300D5360300D5360300D536030072
S214004110D5360300D5360300D5360300D536030062
S214004120D5360300D5360300D5360300D536030052
S208004130D536030078
S214004134F0B5114A114C124E00F00105E3695F0711
S21400414413D40DB9334213D103EA00078F4207D1C3
S2140041540B4A1A40002A14BF6FF001000020F0BD7D
S214004164013AEBD16FF00200F9E74FF0FF30F6E7C3
S2140041746FF00100F3E700BF80969800000003503C
S214004184020001000B4B70B5D96911F480310DD1D2
S21400419401244FF48072084E084DF46020462C64C7
S2140041A41A61FFF7C5FF3464EC6070BD6FF0010060
S2140041B4FBE700BF0000035000100350002003502C
S2140041C438B541F6713301220C4C0021E569E363EE
S2140041D40B4B05F48035DA600223606121202361ED
S2140041E4FFF7A6FF10B92120FFF7A2FF0122054B17
S2140041F4DA600DB10023E36338BD00BF000003504E
S214004204001003500020035070B5134C6061E3693E
S2140042145B071ED40E4656F8043B8D18A361AE42C7
S2140042240BD10423002121202361FFF781FF58B915
S214004234BDE870402120FFF77BBF08210846FFF742
S21400424477FF10B10423236170BD56F8043BA361C5
S214004254E5E74FF0FF30F7E7000003502DE9F84399
S214004264154641F67132164B8946DF69DA63012238
S214004274064603F58053DFF8508007F48037DA608B
S21400428455B9284601220F4BDA601FB10022A3F568
S2140042940053DA63BDE8F88306F5005404EA08041C
S2140042A4A41BAC4228BF2C46494622463046FFF79C
S2140042B4ABFF0028E6D12644A1442D1BE0E700BF4F
S2100042C4000003500020035000E0FFFF45
S2140042D02DE9F04F4FF0FD0BC9B09A460DF11B09C2
S2140042E09DF8503108AFCDF80C90CDF808B0019786
S2140042F0059303890446009383790E4690464188C9
S2140043008288407814F03EFC054650B10090A388A1
S214004310002062883A4914F079FF284649B0BDE883
S214004320F08F99F8000032F045FB38B12846A38894
S2140043306288344914F06AFF8D25EEE75A463946FE
S21400434099F8000032F0DEFA8346002851D0529BDE
S2140043501BB1BDF84C3198424BD8002399F8009019
S2140043600793A9F14102012A5FFA8BF123D8384658
S2140043700139254ADFF898C05FFA81FE734513DBE2
S214004380059B04210792C3B907AF18221F489FED6B
S2140043901A7B02FB060420460A460830394684ED9E
S2140043A0027B19F05BFC11E010F8011F013351404D
S2140043B00CFB01F2E2E7059B33B123464A4638463A
S2140043C0009612F061FBA8E70829DED9B8F1000FC5
S2140043D001D088F80090BAF1000F01D0AAF800B01A
S2140043E0529B002B99D05A46184608A919F036FC5D
S2140043F093E7012591E700BF0000000000000000E1
S214004400732A0400A82A0400C59D1C8118110020E8
S21400441093010001000000002DE9F04F93B0CDE9B4
S2140044200A32DDE91C530E9353EC102BCDE908013C
S214004430104619468DED060B1E9E18F099FE80B1AB
S214004440DDE906014FF0FF32C54B18F0B9FE40B962
S214004450DDE906014FF0FF326FF4801318F092FE8C
S21400446070B1DDE908019DED060B0E9B1E96CDE9A9
S2140044701C53DDE90A3213B0BDE8F04F00F088B9EE
S2140044800022DDE90601002318F07CFE002800F07B
S2140044903381DDE906A303F1004BCBF30A5016F493
S2140044A08063A0F2FF3008BF06250F9318F08EFB3E
S2140044B09BA3D3E9002318F0F3FB9BA3D3E90023C7
S2140044C018F038FACBF31304894644F07F5180463F
S2140044D00022A44B504641F4401118F029FA94A348
S2140044E0D3E9002318F0DCFB02460B46404649465B
S2140044F018F020FA18F06EFE044618F067FB8EA33C
S214004500D3E900238046894618F0CAFB0022964B62
S21400451018F010FA18F05EFE89A3D3E900230746C8
S2140045204946404618F0BCFB80463846894618F097
S2140045304DFB85A3D3E9002318F0B2FB02460B46D9
S2140045404046494618F0F4F902460B46CDE90C23DE
S21400455018F0A6FBDDE90C2380468946104619466E
S21400456018F0E8F90022CDE91001804B4046494694
S21400457018F0C0FC00227E4B18F0DCF902460B4611
S2140045804046494618F0B6FC00227A4B18F0D2F99D
S21400459002460B464046494618F0ACFCDDE90C23C3
S2140045A08046894600204FF0804118F0C1F9024647
S2140045B00B464046494618F0BDF902460B46DDE973
S2140045C0100118F097FC07F2FF3700226A4B18F02C
S2140045D0B1F900223B0518F063FB52465B46804665
S2140045E0894618F0EDFD002840F08980CDE90C8959
S2140045F004F16303C62B8CBF0527042731051BD5A2
S21400460053A3D3E900235046594618F0CFFD00289F
S2140046107FD051A3D3E900235046594618F0B2FD87
S214004620002876D00027A542C6BF2C1B04F1FF3514
S21400463000253C4646F480660E9B9F422CBF4FF0FA
S2140046400008A3EB070816F0020903D0002F18BFD6
S2140046504FF000083CB1DDE90C235046594618F0EF
S21400466049FC82468B46DDE906010022002318F04D
S21400467089FD10B10BF100439B46DDE9080126F4E5
S2140046800063CDE90183DDE90A324BEC10AB0095FF
S21400469000F07EF802465FB3DDE9091316F0200F3E
S2140046A000F10105089E0CBF65204520B047DDE9F6
S2140046B008010523002205930A23002CCDE90232C7
S2140046C007F1FF374FEAD473B8BF64422A46019316
S2140046D004970A9B009433F089FF0246B9F1000F55
S2140046E006D00B9BC41A0B9B1A190E9BA34245D8E7
S2140046F0104613B0BDE8F08FDDE906ABCDE600222C
S214004700404649461A4B18F0F5FB013CCDE90C0132
S2140047106EE7002D90D00F9B002B8DD0013D8BE7D0
S214004720FB799F501344D33FB3C8608B288AC63F9B
S21400473061436F63A787D23F71A379094F930A40FD
S2140047401655B5BBB16B0240EF39FAFE422EE63F76
S2140047502D431CEBE2361A3F0000000080842E41F9
S214004760FFFFEF7F0000F83F0000E03F00002C4016
S21400477000002440000018400000F03F2020DDE943
S2140047800913089DA8470134ADE700BF00000000EC
S2140047902DE9F04F5BEC10AB97B0CDE90501DDE9F4
S2140047A02058CDE90723504652465B465946229F7D
S2140047B018F0DEFC70B90323CDE902870193AA4BFB
S2140047C00093DDE90501DDE9072333F041FE17B06C
S2140047D0BDE8F08F4FF0FF326FF480135046594615
S2140047E018F0D0FC28B10423CDE9028701939F4B33
S2140047F0E6E74FF0FF32504659469D4B18F0E0FC76
S21400480068B19C4A07F00403002B08BF03229A4BAA
S2140048101CBF13460422CDE902870192D0E750461A
S2140048208DA3D3E90023594618F0CAFC38B98CA3E7
S214004830D3E900235046594618F0A4FC68B1DDE9D8
S2140048400723DDE905014BEC10ABCDE92187209568
S21400485017B0BDE8F04FFFF7DFBD0022002350463B
S214004860594618F08FFC002800F091805B465246AF
S2140048700020002118F05CF8012382468B4609933D
S21400488017F4806400F08580092D40F285800024AE
S21400489030210EABA5F109020134202C03F8011BD0
S2140048A0A5EB040901D09442F6D15946504618F0BB
S2140048B091FC724B054603EBC90393ED007B8DED2F
S2140048C00A7B18F083F902460B465046594618F004
S2140048D02FF8DDE90A2318F0E3F902460B46CDE986
S2140048E00C2318F09FFC064618F060F902460B46AB
S2140048F0DDE90C0118F01CF802460B46CDE90C2346
S21400490000225F4B18F05CFC002848D00136304689
S21400491018F04CF902460B46DDE90A0118F03CFC9B
S21400492008B100260135B9F1000F45D1284618F028
S2140049304DF902460B465046594617F0F9FF00223D
S2140049404F4B18F01FFC10B9E90700D501350A21B6
S2140049500EAB1A19202C0AD095FBF1F001FB10556E
S214004960303502F8015B013405460028F2D107F025
S2140049700302012A55D1B8F1000F52D0099A12B994
S21400498017F00C0F01D008F1FF38302240E00990F4
S21400499076E74FF0060988E7A946002485E7002257
S2140049A0DDE90C01364B18F0EDFB0028BBD10EB14B
S2140049B0F007B8D50136B6E70A210EAB1A19202C37
S2140049C00DD0B6FBF1F001FB1063092E03F13003A6
S2140049D009F1FF3904F1010402F8013B11D8302136
S2140049E0A1440EAA202CB2D04C4504F101030AD1F2
S2140049F004F158020DEB02042E2204F8202C1C466B
S214004A00A5E70646DBE7A1541C46EBE71A5501343A
S214004A10444506D2202CF9D1CDE9028701940EAB8D
S214004A20CEE6202CF8D0099B3BB12D2204F158038A
S214004A306B4403F8202C0134EEE77A0704D504F122
S214004A4058032B226B44F4E73B07E5D504F15803E3
S214004A5020226B44EDE700BF0000000065CDCD418D
S214004A600000000065CDCDC1064804000A480400D9
S214004A70FFFFEF7FFD47040002480400D0910400CA
S214004A800000E03F0000000070B58EB02C22002130
S214004A9003A818F053FF64234FF002320893CDE9C1
S214004AA005230B2301218DF834305B4B8DF8101055
S214004AB01D880D4040F0A980084637F0F3FD0A2215
S214004AC0564B574C1A704FF42873ADF812304FF00F
S214004AD0FF332360534B54491B8820460B82534BAD
S214004AE0534A1B68CD828B61524B0D621B884B82EA
S214004AF0514B1B68CB611FF08FFB20B14FF41B712D
S214004B004E4838F06AFE0521206833F062FF20B177
S214004B1040F27D21494838F060FE206817F0C4FE58
S214004B20474B2068196834F017F80C2538F022FA3D
S214004B306843099038F01EFA68430DEB05010790AC
S214004B40206819F0BDFD20B140F295213B4838F0B1
S214004B5044FE256821F098FD00220146284634F0E0
S214004B6073F820B140F29721344838F036FE40F210
S214004B700353344D344E2B80052396F90000AB705A
S214004B807F2801D11FF03EFC3378EB7038F0F2F945
S214004B9000EB80008000A88038F0ECF90023C0000D
S214004BA04FF0FF31E880AB604FF0FF3018A3D3E939
S214004BB0002337F0C9FE2549206833F0FEFF206841
S214004BC002A934F01AFC20B14FF434711B4838F0B7
S214004BD004FE042220680DEB020133F092FF042845
S214004BE004D040F2D721154838F0F7FD01A901207E
S214004BF033F093FB09F040FE012020F087F82FF0F9
S214004C00F6FB20F0ADF81FF095FB0EB070BD00BFB0
S214004C100A0020FF42030000F86B00202E730020DD
S214004C20186600207EAB0400FC79002084AB0400EC
S214004C30CDC603007CAB040080AB0400CF8004002C
S214004C40447700200C660020EC7C002041C703005F
S214004C500348044B834202D0034B03B11847704706
S214004C60187D0020187D002000000000064B074934
S214004C70C91A891048BF0131491003D0044B0BB143
S214004C8001481847704700BF187D0020187D002097
S214004C900000000010B5064C237843B9FFF7D8FF94
S214004CA0044B13B10448AFF300800123237010BDFA
S214004CB0481600200000000004CF040008B5044B8E
S214004CC01BB104490448AFF30080BDE80840CDE7B7
S214004CD0000000004C16002004CF0400A3F5803A24
S214004CE0704700BF154B002B08BF114B9D46FFF7C2
S214004CF0F5FF00218B460F461148124A121A18F08B
S214004D001DFE0C4B002B00D098470B4B002B00D001
S214004D1098470020002104000D000B4819F054F9B4
S214004D2018F0E4FD200029002DF09DFE19F03AF958
S214004D30000008000000000000000000081000202E
S214004D40081000208473002031E0010007B501211F
S214004D5020200DF1070201F029FF58B1022301219E
S214004D6020200DF107028DF8073001F02FFF03B069
S214004D705DF804FB9DF807100229F8D002220948C6
S214004D8017F0CAFC022301210DF1070220208DF83E
S214004D90073001F01BFF2DF06FFD4FF4FA6001F0B5
S214004DA04FFDE4E708DC030038B501F0C7FC04F06B
S214004DB01BF802F02BFA012805D002F027FA022889
S214004DC001D002F049FA124D2B783BB902F01EFAD8
S214004DD00128044602D12DF029FE2C7002F016FAA6
S214004DE00128044609D101F08FFC2DF058FD094A30
S214004DF0094B117811B91470186038BD1A68074944
S214004E00821A8A42F9D91860BDE8384004F018B80A
S214004E10D76C0020D66C002064160020DF930400B8
S214004E20F7B5044601F0B4FD217A034659BB40F6B7
S214004E30B732904225D801221B4D35F8226005EB8B
S214004E408200B3420DD201320C2AF6D1E2884A43E0
S214004E506421B2FBF1F292B298B240EA024003B08B
S214004E60F0BD013A817805EB820080789F1B401ADE
S214004E70784335F82220921BB0FBF2F21144C9B2F7
S214004E80E4E76421E2E7658885420AD8A088E288DC
S214004E909842E1D3591B5143401BB1FBF0F18AB253
S214004EA0DAE70022D8E700BFC681040010B5044642
S214004EB000882DF0ADFCA37884F84400834202BF3E
S214004EC00123E3702371074B04F11C00C4E9073487
S214004ED001F078FF224620880349BDE8104001F023
S214004EE0FFBD00BF572003002120030070B5C37824
S214004EF004460D461646002B34D1D1B1214817F092
S214004F000BFC0123E370E36CA6600BB1E06D9847E1
S214004F10E368F61A63699E4221D2217E1A4801315F
S214004F20C9B2217617F0F8FBA36D13B1217EE06DB0
S214004F309847E5702DF0B3FC15B3237903BBA26840
S214004F40238A801A83421BD801231048237117F046
S214004F50E3FB236DA3B1E06DBDE870401847012365
S214004F602376E6E70029E4D1094817F0D5FB636D00
S214004F70E660E5702571002BDBD0E06D9847D8E73A
S214004F8070BD00BF30DC030041DC03006FDC0300B3
S214004F905CDC030013B5C8B1C2B1012910D00229E8
S214004FA011D099B9C369283083B11404B4FBF3F463
S214004FB004600848009417F0AFFB002002B010BD54
S214004FC0036A2C30F0E7436A3030EDE74FF0FF30ED
S214004FD0F4E700BF85DC03000A4604490346086878
S214004FE010B119462DF093B8704700BF6816002020
S214004FF070B5044694F89D2094F89E30D21A40323C
S214005000514201F03F0102F03F0258BF4A42D2B27D
S214005010162A00D870BD03F03F02224492F85D20A5
S214005020552A05D0013303F03F0384F89E30E1E7AC
S21400503000205822191801F03F01214491F85D1014
S21400504001300A441628D2B2F4D1D24303F1160135
S21400505001F03F01214491F85D10D2B28A42E1D1BD
S214005060012120462DF018F80421054620462DF093
S21400507013F80A21064620462DF00EF8A26AC4E967
S21400508007655643E26A030248BF434202FB05F542
S214005090226B48BF23F07F4002FB00F303F500437A
S2140050A01B0C360C2D0C23816062A680E5802DF04B
S2140050B0F6FB237E33B90123237694F89E30606195
S2140050C01733B0E742F210726369C31A9342F2D8FC
S2140050D02269B4F9081003FB01222261064A2369FB
S2140050E09342E8D3A3F55B13A3F53A532361E36831
S2140050F00133E360F3E700BF80EE360010B50446E8
S21400510001F006FF2046FFF773FF0221054801F075
S214005110EBFE04F134004FF47A71BDE810402DF038
S214005120B5BB00BFF68104002DE9F8430D461646D0
S2140051309846044610B3A8220021043018F0FEFB5F
S21400514040F29D1240F20513C4E90A236923DFF8F2
S214005150889023634246314628461A4B258066804F
S214005160C9F8004001F05CFE074660B100233246F5
S21400517029461548C9F8003017F0CEFA4FF0FF3729
S2140051803846BDE8F8832DF08AFB012384F85C30AE
S2140051900E4B6061C4E92834032384F8A8300C4B16
S2140051A0C4E90D343434204601F00CFE20464FF49A
S2140051B07A712DF06BFB434632462946054817F0B8
S2140051C0ABFADDE7D94F0000BEDC0300F88104002F
S2140051D0FD500000EBDC03006816002058B101B15A
S2140051E0816202B1C26203B10363816AD0E90B2314
S2140051F0014817F091BA70471CDD03002DE9F8430B
S2140052000E4617461D460446002846D09222002128
S214005210063018F093FB224A224B3046C4E9152389
S21400522043F273630022E365114626806780A580FB
S2140052302DF010FB0022A071114638462DF00AFB17
S21400524000224FF001081146E07128462DF0ADFA15
S21400525028462DF0C9FA84F83C802DF020FB124B2E
S21400526004F16009C4E91834206284F8898048464D
S21400527001F0A8FD0D4B3A463146C4E923340C48EC
S2140052802B4684F8948017F047FA484641F2883156
S2140052902DF0FCFA0020BDE8F8834FF0FF30FAE767
S2140052A0305C020076CF01002B220300148204003B
S2140052B041DD030060B1002914BF0123002380F8FC
S2140052C08A30044B0449054818BF194617F024BA1B
S2140052D0704700BF75DD030087DD030098DD03001F
S2140052E058B101B1416502B1826503B1C365416D34
S2140052F0D0E91623014817F00FBA7047B3DD030054
S21400530013B5C8B1C2B1012910D0022911D099B97C
S214005310836C543083B11404B4FBF3F4046008487F
S214005320009417F0F9F9002002B010BDC36C583095
S214005330F0E7036D5C30EDE74FF0FF30F4E700BFB9
S214005340D9DD030070B5044600F1440680F83B1032
S21400535030460D462DF09FFA238F1BB194F83A3055
S214005360AB4205D129462046BDE870402CF0DABF96
S21400537084F83C302DF093FA064B2064C4E91134CF
S214005380304601F01FFD3046BDE8704014212DF078
S2140053907DBA00BF4D23030070B51E4683880446C1
S2140053A00D46C18002810BB1868070BD44302DF061
S2140053B072FA94F83430BBB194F83610002908BF5E
S2140053C0FF2120462CF0AEFF0123E370074BA6809A
S2140053D0C4E903340C34204601F0F4FC2946204688
S2140053E0BDE870402DF052BAFF21EAE79F23030084
S2140053F058B1064B064A0749C0E90023064BC0E9E8
S21400540002130023C0E90433836170471E009065D1
S214005410C409102708523C00600E803E10B5017982
S2140054200446B1FA81F1008849092DF026F9217960
S2140054306088B1FA81F149092DF01FF9034B1A680B
S214005440A24204BF00221A6010BD00BF6C160020E6
S21400545070B543790446A3B100880E4E04F10805E2
S214005460336813B10C4B1B786BB121792DF005F91D
S21400547064210A4B3460A3602846BDE870402DF0D6
S21400548005BA4088E9E7064817F046F9054B322189
S214005490A360F1E76C160020DA6C00201D540000B3
S2140054A016DE03005154000010B50446E0B10F4864
S2140054B017F032F901236371A37953B92179208853
S2140054C02DF0DBF8236B7BB1606B0121BDE810404B
S2140054D018472046FFF7A2FF04F108002DF0DBF97D
S2140054E02046FFF7B5FFEDE710BD00BF4CDE03001A
S2140054F010B50446F8B1104817F00EF90023637192
S214005500A3796BB921792088B1FA81F149092DF088
S214005510B4F8236B7BB1606B0021BDE810401847E0
S2140055202046FFF77BFF04F108002DF0B4F9204673
S214005530FFF78EFFEDE710BD57DE030010B50446FB
S21400554068B1074817F0E8F8637920461BB1BDE854
S2140055501040FFF7CDBFBDE81040FFF7A5BF10BD58
S21400556063DE030010B50E4C0E48214617F0D4F843
S21400557082210D4817F0D0F882210220A21E01F0E9
S21400558025FB014630B134F8022C0848BDE810402F
S21400559017F0C2B80648BDE8104017F0BDB800BF07
S2140055A05E67002072DE03008DDE030098DE0300D7
S2140055B0DCDE030038B5124C82212246022001F0C0
S2140055C0F5FAA51C014698B122880E4817F0A4F8F3
S2140055D02A460D4B03F12C0153F8040B8B4242F87C
S2140055E0040BF9D119889B78118093702E232380A1
S2140055F035F8021C054A0648BDE8384017F08CB856
S2140056005C670020E7DE030067DF03005E670020BC
S21400561045DF0300034B1B781BB18B4201D82DF0EE
S2140056202BB97047817C0020884208B504D3034814
S21400563017F072F801F0F8F808BD00BF96DF030017
S21400564010B5044601460E4817F066F8012C11D135
S2140056500C4B0D481A884FF6FF739A421EBF002265
S214005660094B5A742CF034FF03F0CEFDBDE8104011
S21400567003F000BC0448BDE810402CF02BBF00BF70
S214005680CBDF03002C7C0020D076002038B54FF608
S214005690FF73114C2088984216D02DF06FF840B159
S2140056A020882DF080F820B92046BDE838402CF040
S2140056B0ACBC2DF065F84FF6FF739842054604D152
S2140056C0064817F029F8258038BD054817F024F855
S2140056D001482580E9E700BF2C7C0020EADF0300B4
S2140056E032E003002DE9F04704460D461646002733
S2140056F04FF06C09DFF82C80DFF82CA098F800300B
S214005700BB4206DC324629462046BDE8F04702F09A
S21400571021BF09FB07A033462A462146FFF73CFE79
S2140057200137EBE7E46C0020B435002008B501F043
S2140057306DFD0128064807D12CF0CAFE03F09AFB3F
S214005740BDE8084002F02EBF2CF0C4FEF6E700BF0E
S214005750D076002070B500241A4D1B4E3378A34235
S2140057601BDC0024194D1A4E3378A3421BDC0024A0
S214005770184D194E3378A3421BDC01F047FD012873
S21400578016481CD12CF0A4FE03F03EFD03F072FB7D
S214005790BDE87040124801F059BD2846FFF786FB69
S2140057A001346035DAE728462CF048FE01346C35C3
S2140057B0DAE728462CF066FF01343835DAE72CF0B5
S2140057C089FEE5E794310020E36C0020B435002024
S2140057D0E46C0020642F0020E26C0020D0760020CD
S2140057E0415600002DE9F04F89B0FFF7E3FE9C4BD1
S2140057F007A807932CF091FF054617F09BFF994CDE
S214005800C2B21F2A627004D9974816F085FF01F0CD
S2140058100BF82946A01C18F021FA07A82CF07DFFEB
S214005820054617F087FFC2B21F2A84F8212001D947
S2140058308E48EAE7294604F1220018F00FFA07A876
S2140058402CF06BFF3225044600272678002E31D137
S214005850874CFFF77FFF2378DFF85CA2DFF85482DF
S214005860844F00939AF8003098F8002039788248E0
S21400587016F052FF814B824D9A68002A00F035855B
S2140058802878002800F02F8532467E4991F802C01D
S2140058900132664538BF6646904201F1B801F5DC34
S2140058A0023E032E00F2A185DFE816F09D059B055B
S2140058B099059705532E0FD163784C2B40F05C81E9
S2140058C0A378502B40F058816F4B01221A7007A81E
S2140058D02CF023FF0446B8E7322E07D16378452B19
S2140058E0F5D1A378502BF2D1684BEEE7442E13D1B6
S2140058F06378303B092BEAD8601C2CF01BFF644B06
S214005900644A1978002385B2994202F16002DEDD0E
S21400591022F8465C0133F7E7422E10D16378542B09
S21400592045D1A01C01F02AF923795B4A03F0DF0376
S214005930A3F141014B424B4110801372C7E7592E29
S2140059401FD8412EC3D9A6F14303162B00F2958427
S214005950DFE813F0050393045F03930493049304B2
S214005960B400930493045500200093049304930416
S21400597093048B011201A70293049304A702D90192
S2140059806802692EA3D1601C2CF0D4FE80B22CF0E5
S2140059906FFF9CE7374B0120197800233F4A994256
S2140059A002F1D80293DD02F8D60C0133F7E7DFF8F0
S2140059B0E0800B213A4A98F80000FFF735FE601C9D
S2140059C001F0DCF80646E01C2CF033FF012102460D
S2140059D030462CF0EAFE602198F800302D485943F6
S2140059E0421846524FF4FA6111824FF448715161E1
S2140059F02C4901335583116588F8003067E7DFF8D6
S214005A00B0800521284A98F80000FFF70DFE601CBC
S214005A1001F0B4F800224FF06C09824611462CF0D3
S214005A20C4FE224E98F80070E11C09FB07F307FB42
S214005A300967384626F803A02CF055FE38462CF0A9
S214005A40FDFC00210D4A98F800305160012103FB4F
S214005A5009660B441660117488F80030012736E793
S214005A605E670020CC7500206DE0030084E0030034
S214005A70DD6C0020E06C002083E10300D07600207F
S214005A80DC6C002074210020DA6C0020D96C002029
S214005A90E36C0020943100202C7C0020F82B0020A2
S214005AA094E00300B72603009CE00300B435002012
S214005AB0E46C0020DF6C0020DE6C0020C34E052165
S214005AC0C34A3078FFF7B0FD601C01F057F800229B
S214005AD04FF06C09824611462CF067FEDFF82C83E7
S214005AE03378E11C09FB03F203FB0989484628F8D2
S214005AF002A02CF0F8FD48462CF0A0FCB54BB649A9
S214005B001C78084600239C420ADD0A6D58313ABBD1
S214005B10582202FB03006C23327802FB03830365E2
S214005B20AE4900230846D1F8CC20DAB9D82202FBC9
S214005B3003006C23327802FB0383C0F8CC305FB9D5
S214005B40A74A3B46114652F8040B88B96C223078B7
S214005B5000FB028241F82320337801333370B6E627
S214005B600133D0E70133042B01F1D801DBD1E6E79E
S214005B700133042BE7D1EFE7DFF89482994E98F8CB
S214005B8000000B21984AFFF74FFD0421974A307812
S214005B90FFF74AFD601C00F0F1FF8246E01C2CF087
S214005BA048FE0121024650462CF0FFFD602398F87F
S214005BB00020DFF850925A4309EB020329F802A0AE
S214005BC04FF448721A825A61894A5D839A65E27870
S214005BD03078642A04BF01229A70D82303FB00F1B0
S214005BE0DFF8F8A10AEB01020AF801004FF4007191
S214005BF0518003211171917122795A2A1CD1DFF844
S214005C0014B29BF800208A4216D8607902F010FC85
S214005C107424002808BF1520D8239BF80020754957
S214005C2004FB021CACF802003078013203FB00AA29
S214005C308BF80020CAF8D0C0D8223378674998F885
S214005C40000002FB031101221344CA710A7200EB22
S214005C50400209EB4212CA603222DBB281F8C82049
S214005C60421C4B7188F8002078E7634EDFF8649199
S214005C7030780A21614AFFF7D7FC06215F4A99F877
S214005C800000FFF7D1FC601C00F078FF00224FF008
S214005C90380B824611462CF088FD3378DFF8788181
S214005CA00BFB03F328F803A04FF0010A08EB0302EE
S214005CB082F804A0E378692B14D1002313715822CC
S214005CC099F80010444B4A43347898189954631C4A
S214005CD0C4EBC40208EBC20233704B1CC26489F8E2
S214005CE00030F4E5002BEAD0E01C00F047FF00226D
S214005CF0044611462CF059FD33780BFB03835C8079
S214005D0083F806A0DBE7DFF808A1DFF810919AF821
S214005D1000000B210130344AC0B2FFF785FC032196
S214005D20374A99F80000FFF77FFC601C00F026FF5A
S214005D308046E01C00F022FF0646601D2CF079FD30
S214005D4004460246012140462CF02FFD22463046EE
S214005D5001212CF02AFD60209AF80030294A00FB29
S214005D6003F4111922F804804FF44874DFF8B0C029
S214005D700C824C61C1F858C04D83591CC9B24843C7
S214005D8002EB000EAEF81040CEF8144094241652E3
S214005D90981C8AF8000099F800001B4E444303EB59
S214005DA0430301EB410102EB4313CEF858C002EB6C
S214005DB0411206EB040C30550130AEF81A50CCF800
S214005DC00430CCF8082089F8000080E5E46C002058
S214005DD09CE00300DF6C002018280020F82B002031
S214005DE0D0760020E06C002094E00300AEE00300D4
S214005DF0BB260300282A0020E26C0020A1E0030056
S214005E00A8E00300943100205C260020B435002072
S214005E10E36C0020E16C0020642F0020DE6C002084
S214005E20155600004FF0000ABD4F05213878BD4AD0
S214005E300230C0B2DFF8F0B2DFF83083FFF7F4FBD1
S214005E40661CE31D3046039300F098FE00221146C0
S214005E5081462CF0AAFC6C233878023603FB00F14E
S214005E6008EB010228F8019091461046E11D0292C7
S214005E702CF039FC029A484682F834A02CF0DEFA60
S214005E806C233A7802FB0381039B01329E424BF857
S214005E90041B3A70D6D10122A34BC3F80CA01A7487
S214005EA0DCE5542E14BF4FF001084FF002089F4B5C
S214005EB0DFF8BCA293F80090052148469C4AFFF7FD
S214005EC0B3FB9AF800000A2101384044994AC0B250
S214005ED0FFF7AAFBB82202FB09F3974E4FF06C0BB4
S214005EE0F11806F80390022381F8028003FB0841AC
S214005EF013FB084309FB02660131DFF87892029132
S214005F0003939AF80030601C5A1C03FB0B988AF81F
S214005F100020049300F032FE049B02340BFB03F2D5
S214005F2009EB020329F802000022114604932CF024
S214005F303CFC4FF00102049B4046029983F8342053
S214005F402CF0D1FB40462CF079FA039B46F8048FE0
S214005F509C42D6D1754A137801331370B7E4DFF844
S214005F601892DFF8188299F800000A210130734A67
S214005F70C0B2FFF759FB0321714A98F80000FFF7FB
S214005F8053FB601C00F0FAFD0646E01C00F0F6FD30
S214005F9000220446114630462CF007FC002220461C
S214005FA011462CF002FC382099F80030654A00FBB8
S214005FB003FC02EB0C0122F80C604FF0010C0026EB
S214005FC081F804C08E7103EB0C01C9B24843145229
S214005FD0702402EB000E981C89F8000098F8000068
S214005FE08EF806604443584EC3EBC303C1EBC101B1
S214005FF002EBC3038EF804C002EBC10206EB040CEE
S21400600030550130CCF80430CCF8082088F8000071
S2140060105DE46378502B40F0B38021464B4816F081
S2140060207BFBA01C00F0AAFD0646201D00F0A6FD86
S2140060308046A01D00F0A2FD4FF6FF739E428146EB
S2140060403FF445AC98453FF442AC98423FF43FAC31
S2140060500346424631463E48FFF7D0F800287FF414
S21400606036AC08345621039020462CF033FB4121F1
S214006070029020462CF02EFB5721834620462CF01B
S21400608029FB4921824620462CF024FB0178304823
S214006090A1F1490359425941FFF70CF9029A039BB3
S2140060A01178562934D1501C2CF044FB04469BF83A
S2140060B00030412B2ED10BF101002CF03BFB834628
S2140060C09AF80030572B28D10AF101002CF032FB49
S2140060D003465A4621461E48FFF702F91C482CF094
S2140060E018F91C4C014620601B4801F0BBFD2168D6
S2140060F01A482CF0C3FF0123194A31461370194A77
S214006100194813704B46424616F006FBFFF7DFBBF6
S2140061101C46CCE74FF0000BD2E70023D9E700BFC0
S214006120E46C00209CE00300D0760020DC6C0020AD
S214006130B7E00300BEE0030074210020A1E00300E6
S214006140CDE00300642F00200C250020D4E00300DF
S214006150D419002024190020481700200810002019
S214006160D86C0020807C002002E10300B4350020BB
S214006170DB6C00203C1D0020E26C0020DD6C002063
S214006180422B7FF4A4AB2146AB4816F0C5FAA01C00
S21400619000F0F4FC0646201D00F0F0FC4FF6FF73FE
S2140061A09E4280463FF493AB98423FF490AB04F196
S2140061B00609532148462CF08DFA03788B4254D1B9
S2140061C001302CF0B7FA0346424631469B48FEF7AC
S2140061D0ABFF044600287FF47AAB562148462CF0E5
S2140061E079FA4121834648462CF074FA57218246B4
S2140061F048462CF06FFA9BF800308146562B04D1A7
S2140062000BF101002CF096FA04469AF80030412B68
S2140062102ED10AF101002CF08DFA824699F8003052
S214006220572B28D109F101002CF084FA0346524678
S21400623021468248FEF7D2FF80482BF082FF804C32
S214006240014620607F4801F00DFD21687E482CF055
S21400625015FF01237D4A314613707D4A7D48137031
S214006260424616F059FAFFF732BB4FF49653ABE7A7
S2140062704FF0000AD2E70023D9E74F2E7FF427AB72
S21400628063784C2B7FF423AB704B1B78002B3FF4CA
S2140062901EAB0234432120462CF01CFA80465021C7
S2140062A020462CF017FA98F800300646432B16D1F5
S2140062B008F101002CF03EFA84B23378502B10D14E
S2140062C0701C2CF037FA82B2214663482CF024F971
S2140062D05C4B6248B3F86A20B3F85E10C1E700244E
S2140062E0EBE70022F0E70F229A74FFF7CFF95C4B3A
S2140062F01B7802930BB13B7802933A7898F80030FB
S21400630028789AF800502478D11829442144029C11
S21400631001442144C9B20C2969D800250344284603
S214006320504C0394AA4268DC012938BF01214E4D27
S21400633004912A4600232C464FF482714FF6FF76CE
S21400634004980133984213705180968002F10C0233
S214006350F6DC464B44494648A36001F061F8E07914
S214006360A36800EB400003EB800000F069FCE379D3
S2140063703D490133E3713F4C3F4802F0C5F823889E
S214006380B34203D038493D4801F09AF94FF6FF73FF
S21400639022883549D21A18BF0122394802F090FCEB
S2140063A00026DFF8C090314C3B78B3422DDC274BFB
S2140063B01B785BB1264B1B78012B07D12A49214855
S2140063C001F09AFC2849204802F090FA00264FF087
S2140063D00C0BDFF8B490244D75E0072284E7032207
S2140063E082E7042280E702227EE701227CE70C2275
S2140063F0244816F091F9FFF70ABA667901359E42ED
S214006400C4BF20716071D8348CE736B115F8053CEE
S21400641003EB430304EB8304AC604846294603F0D1
S21400642039F8D9F8D00010B1294601F045FF0136F9
S21400643009F1D8090C35B7E7D4E003002819002085
S214006440241900204817002008100020D86C0020CF
S214006450807C002031E10300A417002055E10300F2
S214006460D96C0020F82B00206C1A0020FC1A0020A3
S214006470CC7500202C7C002038170020E816002061
S21400648070160020D3E103001828002039788919F7
S2140064900AD04A1E0BFB0252D27902EB420204EBF0
S2140064A082040BFB0152946048460BFB015102F03C
S2140064B09FFD3978854831440BFB015101F09AFE67
S2140064C0013609F1580998F80020B242DEDC804B0C
S2140064D01B7823B11AB17F497F482CF096FC0C211B
S2140064E000264FF0940B98F8003097F800909944E7
S2140064F001FB0951794B1878794AB0427CDC0C21B3
S2140065004FF000093E7898F800301E44064401FB20
S214006510065B744B744A1878484500F382800C2159
S2140065204FF0000B98F800303E781E449AF8003082
S2140065301E44064401FB06596C4A6D4B12785A45B8
S21400654000F38C80624B1B78A3B1DFF8B0B19BF8E8
S214006550001001290ED90C26013906FB01515E48B0
S21400656001F0CAFB9BF800106248013906FB015196
S21400657002F0BCF998F800203B78062113449AF8FC
S214006580002001261344574A12781344574A1278BB
S21400659013440C2202FB035500231846039A0C35BD
S2140065A0D8320392029A9A4274DC04995248534DA8
S2140065B000F066FD01F0F6FF454B40F2055240F64E
S2140065C0043128781E7800F03DFD0022044640F293
S2140065D00271287800F036FD21460246304600F06B
S2140065E09BFE079B46491A468B4266D1454809B032
S2140065F0BDE8F04F16F090B816EB090F18BF11F86B
S214006600050C05911EBF00EB400004EB80048C6077
S2140066100BFB062001F018FA0599304B01360C31B9
S21400662069E719EB060F18BF1BF8050C59461CBF87
S21400663000EB400004EB80044FF0700018BFCBF86E
S214006640084000FB092001F0D5F859461F4801F024
S214006650D1FD09F101090BF10C0B5AE7B8201BEB31
S214006660060F18BF19F8052C00FB0B301CBF02EBF9
S214006670420204EB8204494618BFC9F8084001F0FC
S214006680FDFF4946114801F0B5FD0BF1010B09F17C
S2140066900C0951E715F8112C039F02EB420204EB9C
S2140066A0820415F80C2CC4E9001045F8044C05F8D3
S2140066B0056C07F8042C013370E713F8011D002958
S2140066C090D13B2102F8011C8CE700BF582F002018
S2140066D0D86C00201828002048170020DE6C002008
S2140066E05C260020DD6C00200C250020DC6C0020E1
S2140066F074210020081000206C1A0020807C0020E6
S2140067005E67002010E2030008B5094B1B786BB1EA
S21400671008482CF07DFB07482CF0F8FB064802F0F2
S21400672071F9BDE8084004482CF0BABC08BD00BFAB
S214006730D86C0020481700200810002008B5064B2B
S2140067401B783BB105482BF0ECFDBDE8084004483B
S2140067502CF05EBB08BD00BFD86C0020D41900200A
S2140067604817002007B5012121200DF1070200F08F
S2140067701DFA18B99DF80720024B1A7003B05DF891
S21400678004FB00BF817C002007B5064B8DF8070090
S214006790187001210DF10702212000F017FA03B04E
S2140067A05DF804FB817C002007B5022101200DF175
S2140067B0060200F0FBF938B9044815F0ADFFBDF845
S2140067C0060003B05DF804FB0020FAE72DE20300A4
S2140067D007B50221ADF806000DF10602012000F013
S2140067E0F5F9014610B1034815F096FF03B05DF8C1
S2140067F004FB00BF4EE2030010B5FFF7D5FF0446CA
S2140068000146074815F088FF0121064815F084FF69
S21400681024B9BDE810400120FFF7DABF10BD00BF65
S2140068207EE2030090E2030008B5044815F074FF0A
S21400683000F0DCF92CF020F82CF01BF8A6E20300A0
S21400684038B50446084D094B28462B6000F0BAFAC6
S214006850002C18BF21462846BDE8384008BF4FF434
S21400686096712CF013B800BFD037002053270300D2
S2140068702DE9F043384D91B008AC0746894690465E
S2140068800FCD0FC495E80F00002684E80F00012501
S2140068900323324C3248CDE90366CDE905668DF810
S2140068A00E300796029536F041FF2E4836F03EFF32
S2140068B032462D4920468DF8176005F053FF3346C3
S2140068C032462A498DF81900009020468DF823900C
S2140068D0CDF82C808DF8216005F05EFF0A902046EA
S2140068E08DF8097005F0C0FE204608AA05A905F037
S2140068F079FF02AA204603A92DF040FC4FF400724F
S2140069001B4B5A62194BE560626A920510D46BB94C
S2140069104FF40072164B11485A6205F0A5FE114856
S21400692036F007FF002011B0BDE8F083013BEBE72F
S214006930002BEDD0094908A82DF053FC4FF4007247
S2140069400B4B06485A6205F08FFE064836F0F1FEFD
S214006950BDF82000E7E700BF308204000040005A80
S214006960F8840400F484040080841E0040420F0073
S2140069700060005A0122034B1870034B1980034B2A
S2140069801A707047E66C0020367C0020E56C00200C
S214006990F8B5454B1B780BB90020F8BD434B1B7868
S2140069A0012B03D1BDE8F8402BF0D6BE404B1C8827
S2140069B04FF6FF739C42EFD03E4836F0B7FE0023FA
S2140069C0260AE4B21A462146304605F00DFE012E90
S2140069D0354604F0010335D015D9B51E012DDBD898
S2140069E0002B0BBF4FF480754FF080754FF470612D
S2140069F04FF070610BBF01274FF480370F204FF424
S214006A0070202D4B11E0002B0BBF4FF480754FF01C
S214006A1080754FF470614FF070610BBF01274FF423
S214006A2080370F204FF47020244B1A6802401CD089
S214006A30BA421AD01A680A4032D11A6822EA01020B
S214006A402A4316E0002B0BBF4FF480754FF080757D
S214006A504FF470614FF070610BBF01274FF4803721
S214006A600F204FF47020164BDFE71A6822EA000268
S214006A703A431A602BF070FE054600288CD0083684
S214006A8044EA06102A460321C0B2FFF7F1FE40F69C
S214006A90FF73684300F2FF70B0FBF3F080B27CE750
S214006AA095427FF479AFC8E7E56C0020E66C0020DD
S214006AB0367C0020F884040028C3035020C303500B
S214006AC024C3035010B5044C237823B9034836F08A
S214006AD02DFE0123237010BDE86C0020F88404000E
S214006AE02DE9F0431F4C85B0074688469146FFF7D0
S214006AF0E9FF23781BB903F027FA012323707BBA3A
S214006B00ADF80C3030220023174E02FB03F4315D43
S214006B10A51901BB012333554FF0FF3304F11000D4
S214006B2012493044AB606F80C5F80480C5F80C90FD
S214006B300AF0C2FD04F10801042231440C4B009512
S214006B4003A803F0D7FAA96802460A4815F0E4FD40
S214006B5005B0BDE8F0830133102BD6D1064815F0FA
S214006B60DBFDF5E7E76C0020F837002087270300F9
S214006B7099270300B3E20300E1E2030080B1027844
S214006B80A2F14103032B0BD840783038C0B2082856
S214006B9006D8054B134413F8413C40EA03207047DF
S214006BA04FF6FF70704700BF5082040008B50B46D2
S214006BB042B101460448006804F0E0FBBDE8084026
S214006BC02BF050BE022008BD3C77002008B50B46CF
S214006BD042B101460448006804F058FDBDE808408C
S214006BE02BF040BE022008BD3C770020F0B5002602
S214006BF0124F8DB0FF2300930A223346386802A94D
S214006C002DF079F8C0B102AB1D4603EB800404E01A
S214006C1055F8043BB34228BF5E1CAC423868E9D93D
S214006C20296804F0B9FE0028F2D02D28F0D00DB067
S214006C30BDE8F0402BF016BE0DB0F0BD3C7700204E
S214006C4028B1034B0360034B436000238360704707
S214006C5019000003E47600202DE9F04F00230746D4
S214006C60DFF828818B4698F80020424985B022FA42
S214006C7003F0C00708D531F81300B84204D15DB25E
S214006C80284605B0BDE8F08F0133032BEFD112F094
S214006C90010667D1384C75B294F80090B9F1000F30
S214006CA021D10F2249460DF1010016F047FE3F2381
S214006CB08DF80090DFF8C89069464846ADF8023077
S214006CC02DF0CEFA1E2005F0FFF94FF47A43B0FB04
S214006CD0F3F02A4B1860D9F830300123C9F81C00AD
S214006CE0C9F80C3023700D220021684616F026FEE7
S214006CF0BBF1000B18BF4FF0010B0323204C6A4674
S214006D00314620468DF806308DF80AB02DF0E5FAAB
S214006D10236B00234FF0010A04EB461083664FEA0C
S214006D201729184BF9B249EA014032B243F822005B
S214006D30154A0AFA06FAD2F84C35484643EA0A03D8
S214006D40C2F84C355B46042205F04EFC98F800303D
S214006D5043EA0A0388F80030064B23F816708FE7DC
S214006D60022697E7910795D55307F9D54FF0FF35DB
S214006D7086E700BFDE670020EA6C0020F83A0020B5
S214006D8000C0045050C5035000C00350E96C0020FA
S214006D90022810D8084B1B78C340DB070BD5074BDF
S214006DA01B6803FB0111FF23B1FBF3F1044B1A6BC5
S214006DB003EB401319677047E96C0020F83A00208F
S214006DC000C00450FF2307B50021044A0093083092
S214006DD00AF0F6FB03B05DF804FB00BF872803004B
S214006DE07FB50D4E0D4C33686A4600211046A569E6
S214006DF02D0606D411F0FF0101D003B1984704B068
S214006E0070BD656A0131102902F8015BEFD1002BD5
S214006E10EAD09847E7E700BFFC3A0020008005501C
S214006E202DE9F0478A46914688B0002A4DD04FF6A5
S214006E30FF72904249D0914247D0254A5FFA80F8C7
S214006E40070A38460E0A13604146012304225FFAF9
S214006E508AFA204D05F0C8FB01AC30460123022219
S214006E60514605F0C1FB0FCD0FC495E8070084E836
S214006E700700002401A91848CDF80C908DF80440AE
S214006E8005F07EFF1022154B47EA084746EA0A46F9
S214006E90C3F8C475C3F8BC65C3F8AC250423104A10
S214006EA00B209364A2F58052D36407F091FA0B206E
S214006EB007F072FA084805212DF04CFA0122204608
S214006EC0084B1A7008B0BDE8F0874FF0FF30F9E7BE
S214006ED0FC3A0020548204000080055000C0035095
S214006EE000A00550EB6C002070B5074B04461B78DD
S214006EF04BB141B1054E451814F8011B30462DF034
S214006F0038FAAC42F8D170BDEB6C0020008005501A
S214006F1010B5074B1B784BB136F06AFB0446FFF7FB
S214006F205FFF2046BDE8104036F05DBB10BD00BFD9
S214006F30EB6C002037B50446408930F005FEE0795A
S214006F40237A003818BF0120012B637A08BF40F06F
S214006F5008000BB140F0100063890BB140F004004C
S214006F60257CA188A2790DB1E3682BB9064B03B046
S214006F70BDE8304011F0D0BFCDE90035034B11F02D
S214006F80CBFF03B030BD00BFC0360400350604009A
S214006F900B460449024608680349097808B12BF0F5
S214006FA09BBC70470C3B0020ED6C0020F7B50C46F0
S214006FB018B12F21194836F010FC246823685E7932
S214006FC05F8830463946FFF7E3FFF0B18568E5B1E4
S214006FD0A089227D3946904291BF0020801AA3687E
S214006FE080B294BF03469B18E27C00903046A847C8
S214006FF00138032803D8DFE800F0080F0B0D002443
S214007000204630F03FFA204600E0812003B0F0BD75
S2140070108024F5E79324F3E78724F1E709E30300E8
S21400702007B50B46009205490246054809780068F0
S2140070302BF074FC03B05DF804FB00BFED6C002081
S2140070400C3B002007B50B46009206490246064850
S214007050097800682BF062FC003818BF012003B0E6
S2140070605DF804FBED6C00200C3B002008B5034BDC
S2140070701B6803B19847002008BD00BF083B0020EE
S2140070802DE9F74F04460D460026454B454F186040
S214007090454B197033010021F85C013611F060FB96
S2140070A00C2EF7D10C2D28BF0C254FF000090195AA
S2140070B03C4EDFF800A13D4DDFF8FC80019B4B45C0
S2140070C002DC03B0BDE8F08F23784FF0000B33707E
S2140070D063887380A388B380A379C6F80880B371E9
S2140070E0E379C8F8005088F804304FF00003A7682A
S2140070F0A8F80630E3795B450ADC012116F8100B88
S21400710011F02EFB08F1080809F101090C34D5E747
S2140071104FF0000338886B812880FB784FF0000C16
S2140071202B81BA78C5F804A0002A00920CBF8022F2
S21400713040222A7379680AF10C02634513DC03EBDC
S21400714043030AEB830ABB6843B1009A4FF6FF710C
S214007150B2FA82F2164B520930F024F914350BF1CC
S214007160010B0C37C6E7B1F800E00CF1010C22F871
S2140071700CEC91F802E00C3202F816EC91F804E000
S2140071800C3102F815EC11F809ECBEF1010F14BF32
S2140071904FF0100E4FF0110E02F814ECCDE700BFC2
S2140071A00C3B0020FC520020ED6C0020104100201B
S2140071B0AD6F0000103B002090430020014B18608C
S2140071C0704700BF043B0020014B1860704700BFAB
S2140071D0083B002070B5128805460E46FFF720FFD4
S2140071E0044670B102790499806816F0F9FB064BE4
S2140071F01B680BB9002070BD314628462288984788
S214007200F8E78620F7E700BF043B002008B510F03B
S21400721043FB022806D0012806D0044B187840000D
S214007220C0B208BD0120FCE70220FAE7EC6C0020A3
S214007230054B10B51C682CB1FFF7E8FF2346BDE8E8
S2140072401040184710BD00BF003B0020014B1860DF
S214007250704700BF003B0020034B1A781AB9012282
S2140072601A700CF079BB7047EC6C00200022024BC1
S2140072701A70FFF7DDBF00BFEC6C00202DE9F0416F
S21400728086B005460E4690461F469DF8344010F0E0
S21400729003FB022824D1082C16D8ADF80C808DF8F4
S2140072A00E702CB122460C990DF10F0016F0D6FC8C
S2140072B003AB033400930A2231460820094B01949D
S2140072C011F02AFE18B1032006B0BDE8F081294669
S2140072D0284611F09DFE2FF060FF0028F4D0F2E75C
S2140072E00120F1E73506040008B50EF093FC0146D0
S2140072F030B1044815F010FABDE808400FF02EB87B
S21400730008BD00BF97E30300024B187C00B1186865
S214007310704700BFD076002050B100290CBF302146
S2140073203121002A0CBF30223122034815F0F4B96F
S2140073302D210A46F9E700BFC4E30300034B044AC5
S2140073405B7C012103201370FFF740BCD076002041
S214007350EE6C002037B50446FFF7F0FFB4F57F4F1C
S21400736027D10025204B1A8813449D70FEF7FAF8A3
S2140073702846FFF765FA1D4D2A68C2B1FFF7C4FF1D
S214007380A8B14FF605739C4224D192F841102BF019
S21400739074F82B680421B3F8422093F84130322069
S2140073A0ADF8062001AA8DF80430FFF70FFC03B0F5
S2140073B030BD4FF601739C4203D10D482BF069F89F
S2140073C0D9E74FF602739C42D5D10A4B1878FFF7DF
S2140073D0DBF9D0E74FF606739C42E8D1B2F84210CC
S2140073E02BF055F8D5E700BF5C670020F04300207F
S2140073F0D0760020817C002010B5074C0121224663
S2140074000320FFF7D3FB28B92378044A003B18BFB4
S2140074100123537410BD00BFEE6C0020D076002010
S2140074207A4BF7B51A884FF6FF739A4218BF0323B4
S2140074304FF008020D467649044618BF0B70754B90
S21400744036201A7030229A705A7139229A71312277
S214007450DA714FF4001218716F486264E0646F4886
S214007460012220656E483227A0656E48A618E065A2
S2140074706D48E66760666D486D4EA0666D485F7045
S21400748020676D48DF706067202084F8780084F8F5
S214007490840004F12100C4F8880068481F72C4F80C
S2140074A0806084F8482084F8542084F8602084F8AB
S2140074B06C20C4F88C0084F89020C4F89410C4F8AB
S2140074C0B8305F4B5F49C4F8BC300223C4F898104C
S2140074D05D4984F8C030C4F8A41010215B4B84F8D2
S2140074E0A810C4F8C4305A4B5A49C4F8C83082238E
S2140074F0C4F8AC10584984F8CC30C4F8B010092150
S214007500564B574EC4F8D030564B84F89C20C4F8DF
S214007510D430554BC4F8A040C4F8DC30337C84F833
S214007520B41084F8D820002B6AD0504B84F8E4209E
S214007530C4F8E03006F11103C4F8E830FFF7E4FEC3
S21400754090F83430002B5DD090F83630042184F863
S2140075504130FFF7D9FE038F01AA3846A4F842301F
S214007560FFF724FB38B99DF8043084F84130BDF8A5
S2140075700630A4F84230FFF7C7FE94F841102AF010
S2140075807CFFFFF7C1FEB4F842102AF080FF384BAC
S21400759010211C60374BC4F8EC30012384F8F0301F
S2140075A004F14103C4F8F430334BC4F8F830022336
S2140075B084F8FC3004F14203C4F800314FF0000CAC
S2140075C0EA79A86802EB42039F0000EB830320F8E9
S2140075D007C0D9700121443499705C605318EB7170
S2140075E0FFF7C0F8FFF708FFFFF710FE01280BD1E2
S2140075F0337C4BB11A4803B0BDE8F0402AF049BFCF
S2140076000D21DBE70E21D9E703B0F0BD2C7C00206E
S214007610927C0020EF6C00207582040001002000A0
S214007620748204000200200073820400030020001D
S2140076300500420072820400040042000700300089
S214007640FDFF21001200100100404200708204007D
S21400765000FF4401827C0020060042005C67002098
S214007660D076002002FF2001817C002001FF10015F
S214007670F043002005FF200106FF210113B5044654
S2140076800D48FDF7CDFB6422C0F30F43637083B251
S214007690B3FBF2F3A0782370202201212BF059F9D6
S2140076A0A078212201212BF054F90449201D02B0B4
S2140076B0BDE810402BF0EAB82C7C0020E0930400D4
S2140076C00B7870B583704CF61E0303804FF02013C2
S2140076D0C362012380F8303080F83C30C31803645E
S2140076E0124B044643640223114A80F84830114B7B
S2140076F08263C3644063CA798D6802EB420305EB7C
S214007700830004F12C0646600B4E45F823600023E8
S2140077108360531CCB71094B201DC4E90134FFF76D
S21400772051FB2046BDE87040FFF7A8BFFDFF2100D3
S2140077302100200076820400010001037D7600000F
S214007740437B044A0121137000781130C0B2FFF762
S2140077503DBA00BFF96C002038B504460078054DE8
S21400776011302A460121C0B2FFF720FA08B92B785B
S214007770637338BDF96C0020024B53F820002BF0E1
S214007780F7B900BFF4430020012908B506D0022946
S21400779007D049B92BF0E3F9002008BD2BF0E2F939
S2140077A0FAE72BF0E2F9F7E7024814F0B5FF0120FC
S2140077B0F3E700BFDBE3030010B4054C114654F8B2
S2140077C020001A46BDF804305DF8044BFFF7DCBF16
S2140077D0F4430020002310B5044683810364A0F818
S2140077E044304830FFF7EEFA014BC4E9123410BDBE
S2140077F0572B030038B504460B781A4A43700D46DB
S21400780042F82300FFF7E6FF2046FFF7A5FF4FF4F8
S214007810401323610123144A2375A261134A84F896
S2140078202030E261124A84F82C306262114A84F8F1
S2140078303830A26204F10C0222630F4A04F10D03F1
S2140078406263E363EA79A86802EB420300EB830114
S21400785010344C60094C40F82340094B8B60531C95
S214007860EB7138BDF4430020F86C002008002000BF
S214007870937C002000FF300001FF1001020101048C
S214007880B977000010B47024427B0D48013A0129F4
S21400789004FB020006D0022908D059B95DF8044B53
S2140078A02BF05DB95DF8044B2BF05CB95DF8044B2A
S2140078B02BF05BB903485DF8044B14F02DBF00BFF6
S2140078C00C250020F7E30300B0F85C302DE9F0410A
S2140078D08B4204460E4638D0437B077C8BB31C4A4B
S2140078E012789A422DD370251A4A013B05FB0323D2
S2140078F090F80F801B7B42462BF048F9B8450546AA
S21400790001D1FF281FD13A463146204694F89030E0
S2140079102BF03CF92F460546552212216078A4F834
S2140079205C602BF016F8FF2F03D039462046FFF791
S214007930A9FFFF2D09D029462046BDE8F0412BF0CF
S21400794065B9FF25DFE70746E6E7BDE8F08100BF3B
S214007950DD6C00200C25002041688268C978D2784A
S21400796049B112B10321FFF7AFBF837B002B0CBFD9
S21400797001210221F7E72AB1837B002B0CBF0221ED
S2140079800121F0E7014814F0C7BE00BF08E4030079
S214007990037BD3B14368DA7812B18268D278A2B991
S2140079A01B7933B1837B002B0CBF04210521FFF725
S2140079B08BBF83681B792BB1837B002B0CBF052103
S2140079C00421F4E7014814F0A7BE70473AE4030028
S2140079D0084A437B05211370837B5370C37B9370E7
S2140079E0037CD370037B137100780E30C0B2FFF7B0
S2140079F0EDB800BFFA6C002038B5044600780C4D90
S214007A000E302A460521C0B2FFF7D0F820B1BDE8F7
S214007A103840084814F080BE2B7863736B78A373E5
S214007A20AB78E373EB7823742B79237338BD00BFF0
S214007A30FA6C002076E40300024B53F820002BF08B
S214007A402FB900BF24440020F8B504460B78424AFC
S214007A5043700D4642F82300404E2BF03FF9FFF7E7
S214007A60CBFF6268A3683E483E49D6641165D4657C
S214007A705065C3E91410DE64DC654FF09873022687
S214007A806361012304F10C01E16137491032216280
S214007A9004F10D01A16235492376E16204F10E017D
S214007AA06163334984F82430A16304F10F01216433
S214007AB0304984F83030616404F11001E1642E49E5
S214007AC084F83C3084F84830216584F85460A26518
S214007AD0E879A96800EB400201EB820704F1140C78
S214007AE0C7F804C04FF4817C244F41F82270C218B6
S214007AF0D2B202EB420241F822C001EB820700221A
S214007B007A601F4A84F8703022661E4A84F88830ED
S214007B10A2661D4A1D4BE2661D4AC4F88C30626799
S214007B201C4A8319A26704F15C02C4F88020DBB209
S214007B30194A03EB4303C4F8842084F8646084F88D
S214007B407C6001EB830260345460144A033041F8D1
S214007B502320E871F8BD00BF2444002059790000B6
S214007B60632C03009179000001002001020010013F
S214007B7003003001040030010500210101FC01066C
S214007B804A00210078820400510010007A82040026
S214007B907B820400550021006F00180012000104CB
S214007BA000B589B001A92BF0B3F8084B1021049357
S214007BB0019B04AA0593029B2C200693039B079324
S214007BC0FFF704F809B05DF804FB00BF43574C48C4
S214007BD0F0B54843DDE90576204C214D82EAE27196
S214007BE0A1EBE271A042B0FBF5F589B225D964207D
S214007BF012FB00F26FF0630092FBF5F28242B8BF10
S214007C000246642AA8BF642252B205FB05F4494323
S214007C10A14221D24FF08040641A84420FD3002143
S214007C2078B947F6FF70814228BF014603B11D8030
S214007C3007B1398006B13270F0BD0022E5E7800852
S214007C40EBE701EB000CA4454FEA51019CBF091875
S214007C50A4EB0C048008E3E70021E7E79F86010019
S214007C60A086010038B50D46044600B3F9B14FF4BE
S214007C70EE72002115F062FE0F23A3600C4B6560C8
S214007C80A36103F16173E3614FF0011304F15C003B
S214007C902362FDF7ADFBE36DE367236EC4F8803027
S214007CA0636EC4F8843094F86C3084F8883038BD3D
S214007CB0010064001FB50446B8B14368ABB16A461C
S214007CC010212C20FEF772FF78B9094B009A9A42D1
S214007CD00BD1DDE90223019960682BF021F8DDE97C
S214007CE002230199034814F017FD04B010BD00BF2D
S214007CF043574C48A5E40300F0B5044685B0002879
S214007D0000F03081002900F02D814FF4D813C0F820
S214007D108C3000F10803C0F89430934B0422C0F86E
S214007D209830022300F10C05C0F8A0508F4D80F863
S214007D309020C0F8A45000F10E05C0F8AC508C4D51
S214007D4080F89C30C0F8B05000F11005C0F8B8506C
S214007D50884D80F8A830C0F8BC5000F11805C0F86F
S214007D60C450854D80F8B430C0F8C85000F11A05EC
S214007D70C0F8D050814D80F8C030C0F8D45000F123
S214007D801C05C0F8DC507E4D80F8CC30C0F8E050C2
S214007D9000F11E05C0F8E8507A4D80F8D830C0F8DB
S214007DA0EC5000F12005C0F8F450774D80F8E43030
S214007DB0C0F8F85000F12205C0F80051734D80F865
S214007DC0F030C0F8045100F1240580F8FC3080F84B
S214007DD00821C0F80C516E4D80F81421C0F81051DF
S214007DE000F12C05C0F824516A4D00F12802C0F8B5
S214007DF0285100F12E05C0F83051674DC0F8182103
S214007E00C0F8345100F13005C0F83C51634D644A67
S214007E10C0F8405100F13205C0F84851614DC0F835
S214007E201C21C0F84C512525012280F8505100F144
S214007E303405C0F854515C4D80F82021C0F85851E4
S214007E4000F17C05C0F86051584D80F82C31C0F820
S214007E50645100F17E05C0F86C51554D80F83831FC
S214007E60C0F8705100F18005C0F87851514D80F887
S214007E704431C0F87C5100F18205C0F884514E4D63
S214007E8080F85C31C0F8885100F1840580F86831CC
S214007E9080F8743180F8803180F88C31C0F89051C9
S214007EA0464D80F89831C0F8945100F18605C0F828
S214007EB09C51434D80F8B031C0F8A05100F18805C0
S214007EC0C0F8A8513F4D80F8BC3100F11403C0F84B
S214007ED0AC51C0F8C03100F112053B4BC0F8B451AC
S214007EE03A4DC0F8C43100F1160380F8A421C0F85A
S214007EF0B85180F8C821C0F8CC31CA798D6802EB39
S214007F00420305EB830600F18C077760304E45F898
S214007F1023606E46531CCB710B7804F15C0503702E
S214007F202C4B1860FFF7C6FE20462AF02EFF32467E
S214007F3010213320A76EFEF739FE18B996E80F0019
S214007F4085E80F002846A7662AF047FFE36DE3673B
S214007F50236EC4F88030636EC4F8843094F86C30B6
S214007F6084F8883005B0F0BD05052100080521001D
S214007F700B0529000006210001062100020621004B
S214007F8003062100040621000506210000FF230049
S214007F9001FF230010FF210111FF210112FF210123
S214007FA002FF200020FF420130FF210131FF2101A6
S214007FB032FF210133FF210134FF210135FF21016A
S214007FC036FF30000F052100100528000E05290099
S214007FD0040B011B544400202DE9FF414C4B1C6848
S214007FE08CB1237883420ED1606860B14FF612736D
S214007FF0994241D00AD84FF6107399422CD04FF6CA
S2140080001173994231D004B0BDE8F0814FF6207369
S214008010994238D0D03189B20529F4D8E36F04F1FB
S2140080205C00E365D4F880302366D4F88430636659
S2140080302AF0D3FE024610213320FEF7C7FDE36D7B
S214008040E367236EC4F88030636EC4F8843094F817
S2140080506C3084F88830D6E70021E28D2AF04EFE98
S2140080600023E3850028CED121E00121228E2AF0CC
S21400807045FE00232386F5E70221628E2AF03EFEA7
S21400808000236386EEE7002394F834504FF00A0C82
S214008090232D28BF2325CDE9013304F135070393AB
S2140080A09D420DD8DDE9022301992AF039FE606869
S2140080B0FFF776FD204604B0BDE8F0412AF065BE25
S2140080C0FA5C562A14D0572A14D0412A0DD1012121
S2140080D000220133DEB2F3B29D420DD804AE013B5E
S2140080E006EB8101DBB241F80C2C0133DBB2D7E79B
S2140080F00021EDE70221EBE717F806E00136AEF1C6
S2140081003008B8F1090FE9D80CFB02E2303AE2E792
S2140081105444002070B50D461346064614460A46DB
S2140081200146304814F0F8FAB5F5817F42D00DD8F4
S214008130082D08D8082D08D8DFE805F02707070718
S2140081400707322C3600202D46D070BD40F2027351
S2140081509D4235D00BD8B5F5407F25D0B5F5A06F3C
S214008160F3D121463046BDE8704000F039B940F6FC
S21400817004339D422AD04FF601439D42E5D1214665
S2140081803046BDE87040FFF757BC2046BDE870405B
S214008190FFF7E0B821463046BDE8704001F03EB932
S2140081A02146304600F0DCFE21463046BDE87040F1
S2140081B000F05ABA21463046BDE87040FFF7DCBAF8
S2140081C021463046BDE8704000F06EBC2146304681
S2140081D0BDE87040FFF700BF2046BDE8704000F0E5
S2140081E03BBD00BFD5E403000148FEF7E7BF00BF74
S2140081F0158100004FF4C01330B5036001230371EE
S214008200074B8C688360CA7902EB420304EB830554
S2140082106860044844F82300531CCB7130BD00BF8F
S2140082207C820400040001017FB543880D4AADF846
S21400823000300023ADF802300378CDF810D08DF86A
S21400824004304FF48273ADF806300123CDE90223E3
S21400825004230DEB03008DF814302AF0CCFB07B096
S2140082605DF804FB000501010B2838B514461AD842
S2140082700E4A52F82050B5B1ACB9BDF81020012A0C
S21400828011D9197839B10A4814F046FA4FF47F43E9
S214008290EB80204638BD0122AA7159780548E9715D
S2140082A014F03AFAF5E70124F3E700BF584400203B
S2140082B008E5030024E5030038B50B7804460B2BCD
S2140082C098BF224A037098BF42F8230043880D46A1
S2140082D00BB9152343804FF47F43E3801C4B04F116
S2140082E04C00C4E91334FEF76DFDA21DA261194AC5
S2140082F04FF44013E261022284F8202084F82C20F8
S214008300A118221D2263144A2361626308220123F6
S21400831084F83820A2186162E2631049104A237577
S21400832084F84430E31DA1622264A364EA79A86855
S21400833002EB420300EB830110344C60094C40F81A
S2140083402340094B8B60531CEB7138BD584400200A
S21400835029820000010031001000F001020019001F
S21400836011002000000501056982000010B5828812
S214008370044688B059B342F0010393422BD0A38041
S214008380ADF8043000238DF80630ADF808304FF411
S2140083908273ADF80E3040F201132278E1798DF841
S2140083A00C200E4A03A8CDE9042301AB069306234E
S2140083B08DF807108DF81C302AF01DFB02224FF4B2
S2140083C0A061207808B0BDE810402AF0C2BA22F0BA
S2140083D001039BB2D1E708B010BD00BF0005000145
S2140083E00B2810B513D8104B53F820407CB1102939
S2140083F00DD1E21D04F10F0112F8013F013BDBB283
S214008400FD2B05D98A42F7D14FF47F43E38010BD98
S21400841001230648A37114F07FF904F14C00C8212B
S214008420BDE810402AF032BA584400203EE503006A
S2140084304338C0B214289ABF014B185C002070471E
S2140084407D82040038B500250446458005482AF09C
S21400845022FAFDF76BF92A4620780321BDE838405A
S2140084602AF077BA8844002043880BB9FFF7EABFA2
S214008470013B9BB24380002BF8D04FF47A71014841
S2140084802AF004BA8844002038B5114B0446186018
S21400849019B9BDE83840FFF7D5BF41804FF4FA71EF
S2140084A04FF6FF7208460B4DFDF71CF90A4B28469F
S2140084B0C5E90034FEF786FC28464FF47A712AF0A8
S2140084C0E5F920780022BDE8384003212AF041BAB9
S2140084D0B0440020884400206984000010B514468B
S2140084E0084A106850B14CB953B1BDF80820012AAB
S2140084F006D91988FFF7C8FF204610BD0124FBE700
S2140085000324F9E7B04400200B7830B503700D4B18
S2140085101860002343800C4B436002230372C31889
S214008520C360CA798D6802EB420305EB830404300E
S2140085306060064845F82300054BA360531CCB71CA
S21400854030BD00BFB044002000002101030001013F
S214008550DD8400002DE9F84F06460F469346104C82
S21400856004F1300A54F8049BB9F1000F14D15445B5
S214008570F8D1BDE8F88F09EB85055B463A463146EB
S2140085806868FCF709FF08F1010899F802305FFAFD
S21400859088F5AB42EFD8EAE74FF00008F5E700BFF2
S2140085A0B444002038B50024044D55F8040B08B137
S2140085B02AF0ADFC01340C2CF7D138BDB4440020B1
S2140085C038B511F0FB050C460CD182B17BB1042CFA
S2140085D0117803D10B1E18BF012303732AF033FD55
S2140085E0284638BD034814F097F80125F8E7032518
S2140085F0F6E700BF62E5030070B58678012E0DD958
S2140086000A2908D162B1012B0AD91388C3812AF03E
S214008610D6FC002070BD034814F07EF80120F9E770
S2140086200320F7E784E5030030B40E4D0C4655F8FA
S214008630200011461A46BDF8083078B1082C07D03D
S214008640B4F5407F07D0062C08D130BC2AF004BD14
S21400865030BCFFF7B5BF30BCFFF7CEBF012030BC43
S214008660704700BFB4440020034B53F8200008B105
S2140086702AF0A5BC704700BFB4440020F0B5774A86
S2140086800B78044642F823004370437B0D4685B0C2
S2140086900BB9FE234373E3890BB9FA23E3814FF644
S2140086A0FF732383012320780C213430A37601AA9C
S2140086B0C0B2FEF77BFA88B99DF80630BDF80420F4
S2140086C02375BDF808306282E382BDF80A30238243
S2140086D0BDF80C3023839DF80E30A3764FF6FD715F
S2140086E0228B531E9BB28B4200F2AA80E281A37CAF
S2140086F0022B00F0AB80FF2B00F0AD805A1E5342D9
S21400870053412373237D03B1637320462AF0FFFB96
S2140087104FF480130126E36104F10C036362504BAF
S21400872084F82060A36204F1120384F82C602363AB
S214008730E879AA6800EB400302EB830104F11C070A
S2140087404F60484F04F1400E42F823704FF4001378
S214008750454F8F600221236404F10D03A364434B4D
S21400876084F84460E36404F1100363658319DBB2A4
S21400877003EB430302EB830C84F85010CCF804E0C0
S214008780DFF8F4E042F823E04318DBB2CCF80870D8
S214008790EB7194F802C0B44550D9DFF8E0C084F815
S2140087A06810C4F864C004F10E0CC4F86CC0DFF89E
S2140087B0D0C084F88010C4F870C0DFF8C8C084F851
S2140087C08C10C4F878C0DFF8C0C084F89810C4F8DD
S2140087D07CC0DFF8B8C084F8A410C4F884C0DFF802
S2140087E0B0C004F11801C4F888C0DFF8A8C0C4F807
S2140087F0A810C4F890C0DFF8A0C01D49C4F894C003
S214008800DFF898C0C4F8AC10C4F89CC0DFF890C07D
S21400881004F11A0103EB4303C4F8B41084F874603F
S214008820C4F8A0C084F8B06002EB830164344C60E6
S214008830104C033042F823408F60E87105B0F0BD5D
S214008840E38A002B3FF453AFE38150E7E37CB3FAAF
S21400885083F35B0955E7E37C53E700BFB44400208D
S21400886003403001060001022986000000FF2101B6
S2140088700F0018010003010708000102070021008D
S21400888008003000947C00200B4021003C7C002037
S2140088900C4021003A7C00200A401900387C002059
S2140088A01040210113B5044680B100786A4627308F
S2140088B00821C0B2FEF77AF950B9DDE9002309486D
S2140088C0C4E90223C4E9242313F026FF02B010BD36
S2140088D0002200230448C4E90223C4E9242313F039
S2140088E01BFFF3E7A6E50300D1E5030070B50D46D0
S2140088F00446002858D0002956D00B7804F12006EC
S21400890003702A4B1860FFF7CDFF4FF41413236251
S214008910082304F110026263254A84F82430A26317
S21400892004F111022264234AE31862640422A3625B
S214008930214B84F84820E362012384F8542004F194
S2140089401802A2651D4A04F11401E26504F11C0236
S21400895062661B4AE164A26604F11D022267194999
S214008960194A84F8303084F83C3084F8603084F853
S2140089706C3084F8783004F11E0321656267E36783
S214008980EA79A96802EB420301EB830046600F48D0
S21400899041F82300531CEB712978D4E902230C48D4
S2140089A0BDE8704013F0B8BE70BD00BFE4440020C0
S2140089B00003300001032200000218000303180021
S2140089C0060318000203220000F020010207010837
S2140089D0FFE5030013B5044678B1D0E9022300781A
S2140089E0CDE9002327306A460821C0B2FEF7EEF82C
S2140089F0D4E90223024813F08FFE02B010BD00BF78
S214008A0030E6030030B5044689B040B3436833B35C
S214008A101A6822B1126812B1586801A990479DF8E9
S214008A201030E3B10399D4F880208A4207D8D4E9FD
S214008A3002308A1A9B1840F10000C4E90230C4F8DC
S214008A40801029F02CFFD4F88430064AC31A9342CB
S214008A50054604D92046FFF7BDFFC4F8845009B088
S214008A6030BD00BFDF93040010B50446C0B100233C
S214008A7000220021C0E90223C0E924234368C0F88D
S214008A8080102BB11A681AB152680AB1586890471C
S214008A902046FFF79FFFBDE81040024813F03CBE9B
S214008AA010BD00BF58E60300B1F5704F034607D16E
S214008AB0044A106820B102789A4201D1FFF7D4BF69
S214008AC0704700BFE44400200368064A0C21136088
S214008AD04368536003891381438922205381FEF73C
S214008AE075B800BFE844002010B50368044686B099
S214008AF0FBB1114813F010FEA37B104A8DF804302A
S214008B004FF48273ADF806300123CDE9022300232B
S214008B1001A804938DF8143029F054FF204661898B
S214008B202AF0BFFA2046FA2150F8143B594329F0A0
S214008B30ADFE06B010BD00BF79E6030020000001C0
S214008B4010B5064C236843B1054813F0E5FD2068D0
S214008B50BDE8104041892AF0A4BA10BDF4440020B4
S214008B609AE6030070B5364910460C68BDF810202A
S214008B70002C5ED003285CD8DFE800F0021E2745F4
S214008B80002B5AD0022A58D91D78B3F80160291E46
S214008B9018BF012132462B4813F0BEFD2DB13146D9
S214008BA020462AF07EFA002070BDE573FA2063683E
S214008BB0584329F043FFF6E7234813F0ADFDE37B67
S214008BC0002B38D00023E373F0E7002B35D0032AC0
S214008BD033D91D681D48294613F09EFD1C4B2A1FDD
S214008BE09A4201D90220DFE723680BB19D42F9D8EB
S214008BF023899D42F6D3E37B6560B3B9FA206843C8
S214008C0029F01CFF11E0002BCED0012ACCD91D88FC
S214008C101048294613F080FD002DE3D063689D427E
S214008C20E0D8E37B2581002BE8D12046FFF74CFFF8
S214008C30B9E70120B8E70420B6E70320B4E700BF91
S214008C40F4440020BDE60300F4E6030013E7030047
S214008C50FCFF6D003EE7030038B5154B1C6834B3C7
S214008C60F0B92168134813F057FD23683BB16268DA
S214008C70934204D2104813F04FFD6368236004F15A
S214008C801405284629F007FE236823B1FA21284652
S214008C90594329F0FBFD2046BDE83840FFF714BFD6
S214008CA0032804D16189054813F036FDF3E738BD83
S214008CB0F444002069E7030097E70300CCE70300CD
S214008CC070B53E4B0D46044609781860002A6FD1F1
S214008CD001231A46A1730021E1730121A1814FF4FB
S214008CE06151C4E900132823354E22810C213246F7
S214008CF022206381FDF75AFF60B9D6E900230AB146
S214008D009A4207D3318999429FBFC4E900237389E9
S214008D10218163812B4B2C4AE363042384F8403083
S214008D2084F84C30E3182365284BA264636502235D
S214008D3004F10802E265264A84F85830226604F1F7
S214008D400A02A266234A84F8643084F8703004F17C
S214008D500C03E26663676464EA79A86802EB420380
S214008D6000EB830104F13C064E601B4E40F8236086
S214008D70FA261A4B1A488B60531CEB71FEF724FA3E
S214008D80208904F11405704329F058FE61892046B5
S214008D902AF087F9134B2846C4E90534FEF712F883
S214008DA0216849B128467143BDE8704029F06EBD80
S214008DB04FF4F07302228DE770BD00BFF44400202C
S214008DC0E8440020000023010100230002002100E7
S214008DD003002101FDFF210020000105658B000036
S214008DE0418B0000E98A0000134B10B51C680CB3D9
S214008DF0E37BEBB129F053FD2369C01A002809DB99
S214008E000E4813F089FC0023FA20E3736368584386
S214008E1029F014FEE37B5BB12489FA235C4329F036
S214008E2018FEA04206D02046BDE8104029F006BE37
S214008E306468F2E710BD00BFF4440020F9E70300C1
S214008E4073B5002401260A4D55F8042B52B1D36C95
S214008E5043B1053350780621009300221023019673
S214008E60FEF70CFA01340C2CEED102B070BD00BF38
S214008E70F844002038B50024044D55F8040B08B11A
S214008E802AF022F901340C2CF7D138BDF844002022
S214008E90042908B50AD172B16BB113781BB92AF050
S214008EA03EF9002008BD2AF030F9FAE7034813F02F
S214008EB033FC0120F6E70320F4E700BF33E80300A5
S214008EC010B4054C114654F820001A46BDF804307C
S214008ED05DF8044BFFF7DCBFF84400200229024689
S214008EE008B50ED004D839B910462AF018F906E0AD
S214008EF04029F9D0412907D110462AF006F900206A
S214008F0008BD2AF016F9FAE7024813F005FC01201E
S214008F10F6E700BF53E8030010B4054C114654F8BA
S214008F2020001A46BDF804305DF8044BFFF7D6BFA4
S214008F30F8440020C26C094B52791A7082785A7035
S214008F40C2789A70026D12B190F85420DA700078E8
S214008F5004210930014AC0B2FDF738BEFF6C00207C
S214008F60034B53F8200008B12AF026B9704700BF1B
S214008F70F844002038B504460078084D09302A46E3
S214008F800421C0B2FDF712FE30B96B78A370AB783F
S214008F90E370EB7884F8543038BD00BFFF6C0020D7
S214008FA038B504460078114D09302A460421C0B26F
S214008FB0FDF7FCFDC8B9A3782A78022B0CD004D89C
S214008FC063B920462AF0ABF801E0FF2B0AD0204612
S214008FD0BDE838402AF078B8002AF2D120462AF0B8
S214008FE094F8F4E7002AF9D1EBE738BDFF6C0020CF
S214008FF0F8B504460B783D4A0D4642F82300437008
S214009000FFF7B8FFE36C3A4A5C631A632046FFF743
S214009010C7FF20462AF058F84FF4801301266360F5
S214009020E36C26720533E360324B26752361A31C7E
S214009030A361236D002B54D02F4A84F82060E26190
S214009040E21C62622D4A84F82C60A26204F154028B
S214009050226393F83420002A45D093F83620204621
S21400906084F855201B8FA4F856302AF06CF894F834
S2140090705510206D29F001FAB4F85610206D29F02D
S21400908006FA1F4B84F83860636304F15503E36304
S2140090901C4B06262364022384F8443004F156034E
S2140090A0A3640627EA79A96802EB420321F8237035
S2140090B001EB830001238370134B04348360531C3D
S2140090C04460DBB2114C03EB4303C67041F8234007
S2140090D001EB8300002343600D4B02328360EA718C
S2140090E0F8BD0226DDE70426DBE700BFF8440020D3
S2140090F0953103000340300101FF300102FF1001EB
S21400910003FF200104FF2101198F00000800010061
S214009110C18E00000B4B1B7883420AD358220A4BA1
S214009120013802FB0033DB6C5879003818BF012089
S2140091307047B822C01A054B013802FB0033187B73
S214009140F3E700BFDF6C0020182800207421002001
S2140091500C4B1B78834209D358220B4B013802FB79
S214009160003009B129F0D1BF29F0D9BFB822C01A02
S214009170431E064802FB030009B129F055BF29F03B
S21400918057BF00BFDF6C0020182800207421002085
S214009190034B1878034B1B781844C0B2704700BFC7
S2140091A0DF6C0020DC6C002010B5427904461046C7
S2140091B02AF02FF8B0B9114B1B789A4208D8BDE8B0
S2140091C0104058200E4B013A00FB023029F0B1BF88
S2140091D0B820BDE81040D21A0A4B013A00FB023014
S2140091E029F02ABF20462AF01FF880F00101C9B2F4
S2140091F02046BDE810402AF032B800BFDF6C0020E1
S214009200182800207421002070B500250A4C0B4E4B
S2140092103378AB4200DC70BDD4F8CC1041B1237972
S2140092201BB120462AF034F810B9084629F0F6F8A3
S2140092300135D834ECE700BFF82B0020E06C0020A6
S21400924010B586B00446FDF7E1FF012812D1637819
S214009250094A8DF804304FF48273ADF806304FF4A7
S2140092608073CDE90223002301A804938DF81430FF
S21400927029F0A8FB06B010BD0800070110B586B09F
S2140092800446FDF7C3FF012820D16278104B8DF805
S21400929004204FF4827294F8C81094F8C9005970EC
S2140092A01870ADF8062004934FF480720223094923
S2140092B001A88DF81430CDE9021229F083FB94F84A
S2140092C0C930013B18BF012384F8C93006B010BD71
S2140092D0036D00200800050110B58378044686B0AB
S2140092E0BBB30379022B05D129F0D2FF10B120467B
S2140092F0FFF75AFFA379022B02D120462AF022F864
S21400930094F8D430BBB1FDF781FF012813D194F84F
S214009310D430114A8DF804304FF48273ADF806301D
S2140093204FF48073CDE90223002301A804938DF83F
S214009330143029F047FB2046FFF7A0FF02235522F2
S21400934012216078A4F8943006B0BDE8104029F0E9
S21400935000BB06B010BD00BF060002014388094AE4
S2140093600821138083885380C3681B8A938090F8F3
S214009370C83093718379D37100780430C0B2FDF79A
S21400938025BC00BFE467002038B50D4604460178CA
S214009390214813F0C1F94FF602739D4211D1FFF731
S2140093A0F7FE28B960712046BDE83840FFF7D6BF03
S2140093B06379FF2BF7D00BB19842F4D20123637187
S2140093C0F1E7B5F57F4F0AD120462AF090F8A3784A
S2140093D0022B0CBF01220022E3689A70E3E705F136
S2140093E0FA039BB2022BDED8E379003B18BF0123B9
S2140093F0E371237A003B18BF012323724FF60873EC
S2140094009D4205D1D4F8CC0010B1617A29F035F828
S21400941020462AF08AF8C6E76FE80300024B53F8A6
S2140094202000FFF7B1BF00BF2845002038B504462E
S2140094300078154D04302A460821C0B2FDF7B6FB69
S21400944020B1BDE83840114813F066B92B88638018
S2140094506B88E978A380AA88E3681A82AB7984F8D7
S214009460C830EB79A371FFF793FE08B9607138BD79
S214009470FF29FCD009B18142F9D9054813F04CF90F
S214009480237801336371F2E7E467002089E803007C
S214009490B2E80300F8B504460B78644A0D4642F875
S2140094A023004370FFF7C2FFD4F8CC3013B193F813
S2140094B03630637220462AF052F8E2685C4BA11CF4
S2140094C0D3645C4BD46553655B4B103213644FF426
S2140094D04013A1612163594923616163211DE16342
S2140094E0574901232164611DA16456496265E16400
S2140094F00221554A5548A26504F1C8022266544A1C
S214009500E0616266A21DE01CE266524A6062524852
S2140095102267E21D237584F82030A06284F82C3080
S21400952084F8383084F8443084F8501084F85C307E
S21400953084F8683084F87430A267D4F8CC00002829
S21400954070D0464A1278002A6CD1454A84F880309A
S214009550E26704F10802C4F8842090F83420002A58
S21400956062D0404A84F88C3004F10903617AC4F86A
S2140095708820C4F8903028F080FF0B200727E97970
S214009580AB6801EB410203EB820623F82270F07011
S214009590012004F110027260B07006260A18D2B2DA
S2140095A002EB420243F82260002603EB82072E4AB3
S2140095B07E60C4F8982002222C4F84F89C2084F801
S2140095C0B42004F19402C4F8B820294AC4F8A07064
S2140095D0284FC4F8BC20284AC4F8A470274FC4F803
S2140095E0C4208A1CC4F8AC70D2B2254F02EB4202EB
S2140095F084F8A80084F8C000C4F8B07003EB8200BA
S2140096009834446008241F4843F82200CA1CD2B28B
S21400961002EB420203EB8200043143F8224046602C
S214009620E971F8BD0920A9E70A20A7E72845002028
S214009630B933030081340300D992000001FF3001E2
S21400964002FF200103FF210104FF2001100030016A
S21400965005FF300106FF100100FF3001DF6C00201F
S21400966007FF100108FF20014A0021009282040033
S2140096706F001800510010009482040095820400C8
S214009680550021001200010400239B6AB3F5804FA9
S21400969003D21968064A914203D000230370836000
S2140096A07047012202709A689B694260F7E700BF24
S2140096B007B0CD5E024B034A1A602BF00CBC00BF0D
S2140096C00000002002020FF073B53F4B04461A78E4
S2140096D01AB102221A7002B070BDCDE9002200282D
S2140096E0F9D001261E7033F083FF384D384B1860D2
S2140096F017F0F4FD2B785BB902F0F2F940B9354863
S2140097000823354A3549006801F038FE00B92E7046
S214009710334B5A68E260334A9A601A6E22605A6E79
S2140097206260D3F87021A2601B6E5C042CD52E4AB2
S214009730D368D807FCD42D4B1A68531C29D04FF495
S214009740801393402A4A13660423294C4FF0804224
S21400975023664FF480632366102323664FF400537A
S2140097606846236601A92266636629F013FF009BFC
S2140097702366019B63662B78002BACD0164B1A68C9
S21400978022665B686366A6E71A4AD368D907FCD4E4
S214009790D1E7194B1B78002BD6D1184B5A68144BBF
S2140097A012B94FF480121A66154A526812B94FF46D
S2140097B000121A66134B5B68002BC5D14FF480026B
S2140097C00B4B1A66C0E700BF066D0020076D002031
S2140097D0684500203C7700206C450020007108009A
S2140097E00080004455CEAC000000044008770020FE
S2140097F00090004400000450056D002000800550D5
S21400980000C005500000065038B5224D04462B789F
S214009810012B02D001232B7038BD0028FCD029F084
S214009820DEFE013009D029F0DAFE40F2011398423C
S21400983003D0194AD368DB07FCD42268174B1A6694
S21400984062685A66A268C3F87021E268D40744BF0B
S21400985000229A60124B1A68013213D1114A12780C
S21400986082B911494968C80748BF1A600F4A52684A
S214009870D10744BF01221A600D4A5268D20744BF7E
S21400988002221A6017F032FD0A4B186833F0ABFE5E
S2140098900023C0E7066D002000000440008000445E
S2140098A008770020056D00200080055000C0055098
S2140098B0000006506845002070B50024A36AB3F582
