S01B00006275696C642F72656C656173652F7A69676265652E73333714
S2140060000810002055AE000075F60000B73F0300EC
S214006010B73F03007DF6000085F60000B73F03009B
S214006020B73F0300B73F0300B73F0300B73F030087
S21400603089F60000B0850400B73F0300B73F0300B1
S214006040B73F0300B73F0300B73F030025A9000092
S214006050B73F0300B73F0300B73F0300B73F030057
S214006060B73F0300B73F0300B73F0300B73F030047
S214006070F5FB0000B73F0300B73F0300B73F030040
S214006080B73F0300B73F0300B73F0300B73F030027
S214006090B73F0300B73F0300B73F0300B73F030017
S2140060A0B73F030021B2000001B20000B73F030073
S2140060B0B73F0300653F0200B73F0300C94902002F
S2140060C0D7970300D3970300A5410200ED9703007E
S2140060D0DB97030099490200DF970300094A020094
S2140060E075500200712D0200754A0200B73F03008A
S2140060F0B73F0300B73F0300B73F0300B73F0300B7
S214006100B73F0300B73F0300B73F0300B73F0300A6
S214006110B73F0300B73F0300B73F0300B73F030096
S214006120B73F0300B73F0300B73F0300B73F030086
S214006130B73F0300B73F0300B73F0300B73F030076
S21400614082B030BF074BD3F8F030DB0704D500230E
S2140061500193019B052B01DD02B07047019B0133C3
S214006160F6E700BF00ED00E0F0B5114A114C124E04
S21400617000F00105E3695F0713D40DB9334213D16C
S21400618003EA00078F4207D10B4A1A40002A14BFC1
S2140061906FF001000020F0BD013AEBD16FF0020075
S2140061A0F9E74FF0FF30F6E76FF00100F3E700BFC6
S2140061B08096980000000350020001000B4B70B55B
S2140061C0D96911F480310DD101244FF48072084E44
S2140061D0084DF46020462C641A61FFF7C5FF34644E
S2140061E0EC6070BD6FF00100FBE700BF00000350DD
S2140061F000100350002003504FF4003238B50F4B08
S2140062000F4C9A6641F671330122E569E3630D4B44
S2140062100021DA60022360612120236105F48035C5
S214006220FFF7A2FF10B92120FFF79EFF0122064BC1
S214006230DA600DB10023E36338BD00BF0090005064
S21400624000000350001003500020035070B5134C9C
S2140062506061E3695B071ED40E4656F8043B8D1852
S214006260A361AE420BD10423002121202361FFF756
S2140062707BFF58B9BDE870402120FFF775BF0821A5
S2140062800846FFF771FF10B10423236170BD56F86E
S214006290043BA361E5E74FF0FF30F7E7000003504B
S2140062A02DE9F84315464FF40032184B89469A6696
S2140062B041F6713203F51C33DF69DA6301220646C4
S2140062C003F58053DFF84C8007F48037DA6055B961
S2140062D0284601220E4BDA601FB10022A3F50053B8
S2140062E0DA63BDE8F88306F5005404EA0804A41B44
S2140062F0AC4228BF2C46494622463046FFF7A6FF4A
S2140063000028E6D12644A1442D1BE0E7009000506B
S20C0063100020035000E0FFFF2F
S2140063182DE9F04F4FF0FD0BC9B09A460DF11B0959
S2140063289DF8503108AFCDF80C90CDF808B001971D
S214006338059303890446009383790E469046418860
S2140063488288407813F07CFB054650B10090A388FD
S214006358002062883A4913F0B7FE284649B0BDE8DF
S214006368F08F99F8000030F040FD38B12846A38831
S2140063786288344913F0A8FE8D25EEE75A4639465A
S21400638899F8000030F0D9FC8346002851D0529B7B
S2140063981BB1BDF84C3198424BD8002399F80090B1
S2140063A80793A9F14102012A5FFA8BF123D83846F0
S2140063B80139254ADFF898C05FFA81FE734513DB7A
S2140063C8059B04210792C3B907AF18221F489FED03
S2140063D81A7B02FB060420460A460830394684ED36
S2140063E8027B18F0C5FC11E010F8011F013351407C
S2140063F80CFB01F2E2E7059B33B123464A463846D2
S214006408009611F09FFAA8E70829DED9B8F1000F20
S21400641801D088F80090BAF1000F01D0AAF800B0B1
S214006428529B002B99D05A46184608A918F0A0FC8B
S21400643893E7012591E700BF000000000000000078
S214006448E32D0400182E0400C59D1C811811002099
S21400645893010001000000002DE9F04F93B0CDE94C
S2140064680A32DDE91C530E9353EC102BCDE90801D4
S214006478104619468DED060B1E9E17F003FF80B1D9
S214006488DDE906014FF0FF32C54B17F023FF40B990
S214006498DDE906014FF0FF326FF4801317F0FCFEBB
S2140064A870B1DDE908019DED060B0E9B1E96CDE941
S2140064B81C53DDE90A3213B0BDE8F04F00F088B986
S2140064C80022DDE90601002317F0E6FE002800F0AA
S2140064D83381DDE906A303F1004BCBF30A5016F42B
S2140064E88063A0F2FF3008BF06250F9317F0F8FB6D
S2140064F89BA3D3E9002317F05DFC9BA3D3E90023F5
S21400650817F0A2FACBF31304894644F07F5180466D
S2140065180022A44B504641F4401117F093FA94A376
S214006528D3E9002317F046FC02460B464046494688
S21400653817F08AFA17F0D8FE044617F0D1FB8EA398
S214006548D3E900238046894617F034FC0022964B90
S21400655817F07AFA17F0C8FE89A3D3E9002307468E
S2140065684946404617F026FC80463846894617F0C6
S214006578B7FB85A3D3E9002317F01CFC02460B469D
S2140065884046494617F05EFA02460B46CDE90C230C
S21400659817F010FCDDE90C2380468946104619469C
S2140065A817F052FA0022CDE91001804B40464946C2
S2140065B817F02AFD00227E4B17F046FA02460B46D5
S2140065C84046494617F020FD00227A4B17F03CFA61
S2140065D802460B464046494617F016FDDDE90C23F1
S2140065E88046894600204FF0804117F02BFA024675
S2140065F80B464046494617F027FA02460B46DDE9A1
S214006608100117F001FD07F2FF3700226A4B17F05A
S2140066181BFA00223B0517F0CDFB52465B46804628
S214006628894617F057FE002840F08980CDE90C8986
S21400663804F16303C62B8CBF0527042731051BD539
S21400664853A3D3E900235046594617F039FE0028CD
S2140066587FD051A3D3E900235046594617F01CFEB5
S214006668002876D00027A542C6BF2C1B04F1FF35AC
S21400667800253C4646F480660E9B9F422CBF4FF092
S2140066880008A3EB070816F0020903D0002F18BF6E
S2140066984FF000083CB1DDE90C235046594617F088
S2140066A8B3FC82468B46DDE906010022002317F07C
S2140066B8F3FD10B10BF100439B46DDE9080126F413
S2140066C80063CDE90183DDE90A324BEC10AB009597
S2140066D800F07EF802465FB3DDE9091316F0200FD6
S2140066E800F10105089E0CBF65204520B047DDE98E
S2140066F808010523002205930A23002CCDE902325F
S21400670807F1FF374FEAD473B8BF64422A460193AD
S21400671804970A9B009432F098FA0246B9F1000FE3
S21400672806D00B9BC41A0B9B1A190E9BA34245D87E
S214006738104613B0BDE8F08FDDE906ABCDE60022C3
S214006748404649461A4B17F05FFC013CCDE90C0160
S2140067586EE7002D90D00F9B002B8DD0013D8BE768
S214006768FB799F501344D33FB3C8608B288AC63F33
S21400677861436F63A787D23F71A379094F930A4095
S2140067881655B5BBB16B0240EF39FAFE422EE63F0E
S2140067982D431CEBE2361A3F0000000080842E4191
S2140067A8FFFFEF7F0000F83F0000E03F00002C40AE
S2140067B800002440000018400000F03F2020DDE9DB
S2140067C80913089DA8470134ADE700BF0000000084
S2140067D82DE9F04F5BEC10AB97B0CDE90501DDE98C
S2140067E82058CDE90723504652465B465946229F15
S2140067F817F048FD70B90323CDE902870193AA4B29
S2140068080093DDE90501DDE9072332F050F917B0FA
S214006818BDE8F08F4FF0FF326FF4801350465946AC
S21400682817F03AFD28B10423CDE9028701939F4B60
S214006838E6E74FF0FF32504659469D4B17F04AFDA3
S21400684868B19C4A07F00403002B08BF03229A4B42
S2140068581CBF13460422CDE902870192D0E75046B2
S2140068688DA3D3E90023594617F034FD38B98CA315
S214006878D3E900235046594617F00EFD68B1DDE906
S2140068880723DDE905014BEC10ABCDE92187209500
S21400689817B0BDE8F04FFFF7DFBD002200235046D3
S2140068A8594617F0F9FC002800F091805B465246DE
S2140068B80020002117F0C6F8012382468B4609936C
S2140068C817F4806400F08580092D40F28580002446
S2140068D830210EABA5F109020134202C03F8011B68
S2140068E8A5EB040901D09442F6D15946504617F054
S2140068F8FBFC724B054603EBC90393ED007B8DED5D
S2140069080A7B17F0EDF902460B465046594617F033
S21400691899F8DDE90A2317F04DFA02460B46CDE949
S2140069280C2317F009FD064617F0CAF902460B466F
S214006938DDE90C0117F086F802460B46CDE90C2374
S21400694800225F4B17F0C6FC002848D001363046B8
S21400695817F0B6F902460B46DDE90A0117F0A6FC61
S21400696808B100260135B9F1000F45D1284617F0C1
S214006978B7F902460B465046594617F063F8002208
S2140069884F4B17F089FC10B9E90700D501350A21E5
S2140069980EAB1A19202C0AD095FBF1F001FB105506
S2140069A8303502F8015B013405460028F2D107F0BD
S2140069B80302012A55D1B8F1000F52D0099A12B92C
S2140069C817F00C0F01D008F1FF38302240E009908C
S2140069D876E74FF0060988E7A946002485E70022EF
S2140069E8DDE90C01364B17F057FC0028BBD10EB179
S2140069F8F007B8D50136B6E70A210EAB1A19202CCF
S214006A080DD0B6FBF1F001FB1063092E03F130033D
S214006A1809F1FF3904F1010402F8013B11D83021CD
S214006A28A1440EAA202CB2D04C4504F101030AD189
S214006A3804F158020DEB02042E2204F8202C1C4602
S214006A48A5E70646DBE7A1541C46EBE71A550134D2
S214006A58444506D2202CF9D1CDE9028701940EAB25
S214006A68CEE6202CF8D0099B3BB12D2204F1580322
S214006A786B4403F8202C0134EEE77A0704D504F1BA
S214006A8858032B226B44F4E73B07E5D504F158037B
S214006A9820226B44EDE700BF0000000065CDCD4125
S214006AA80000000065CDCDC1764B04007A4B04008B
S214006AB8FFFFEF7F6D4B0400724B0400A8940400A0
S214006AC80000E03F0000000070B58EB02C220021C8
S214006AD803A817F0BDFF64234FF002320893CDE9F0
S214006AE805230B2301218DF834305B4B8DF81010ED
S214006AF81D880D4040F0A980084636F017F90A228E
S214006B08564B574C1A704FF42873ADF812304FF0A6
S214006B18FF332360534B54491B8820460B82534B44
S214006B28534A1B68CD828B61524B0D621B884B8281
S214006B38514B1B68CB611EF065F820B14FF41B71F2
S214006B484E4837F020F90521206832F0E6FE20B1DD
S214006B5840F27D21494837F016F9206816F02EFFD6
S214006B68474B2068196832F052FA0C2536F046FD75
S214006B786843099036F042FD68430DEB050107901F
S214006B88206818F001FC20B140F295213B4837F008
S214006B98FAF8256820F060FC00220146284632F004
S214006BA8AEFA20B140F29721344837F0ECF840F2BC
S214006BB80353344D344E2B80052396F90000AB70F2
S214006BC87F2801D11EF006FB3378EB7036F016FDF1
S214006BD800EB80008000A88036F010FD0023C0007F
S214006BE84FF0FF31E880AB604FF0FF3018A3D3E9D1
S214006BF8002336F0EDF92549206832F039FA206886
S214006C0802A932F031FF20B14FF434711B4837F037
S214006C18BAF8042220680DEB020132F0CDF90428F8
S214006C2804D040F2D721154837F0ADF801A9012065
S214006C3831F08EFD08F05EFD01201EF04FFF2DF0AE
S214006C48A4FF1EF075FF1EF05DFA0EB070BD00BF03
S214006C580A0020FF420300004E5E002081650020E7
S214006C687458002048AE0400946C002050AE04000F
S214006C785DCD030046AE04004CAE04003F8404001D
S214006C88D4690020685800207E6F0020D1CD03000C
S214006C980348044B834202D0034B03B1184770479E
S214006CA8AC6F0020AC6F002000000000064B0749C0
S214006CB8C91A891048BF0131491003D0044B0BB1DB
S214006CC801481847704700BFAC6F0020AC6F002023
S214006CD80000000010B5064C237843B9FFF7D8FF2C
S214006CE8044B13B10448AFF300800123237010BD92
S214006CF8501600200000000068E9040008B5044BA0
S214006D081BB104490448AFF30080BDE80840CDE74E
S214006D18000000005416002068E90400A3F5803A35
S214006D28704700BF154B002B08BF114B9D46FFF759
S214006D38F5FF00218B460F461148124A121A17F023
S214006D4887FE0C4B002B00D098470B4B002B00D02F
S214006D5898470020002104000D000B4818F0BEF9E3
S214006D6817F04EFE200029002CF01DFD18F0A4F99F
S214006D7800000800000000000000000008100020C6
S214006D8808100020D86500204DF1010007B5012144
S214006D9820200DF1070201F001FC58B10223012161
S214006DA820200DF107028DF8073001F007FC03B02C
S214006DB85DF804FB9DF807100229F8D0022209485E
S214006DC816F028FD022301210DF1070220208DF878
S214006DD8073001F0F3FB2CF020FC4FF4FA6001F0CA
S214006DE825FAE4E7D0E1030038B501F09DF902F092
S214006DF8E1FF01F075FD012805D001F071FD0228BC
S214006E0801D001F093FD0A4D2B783BB901F068FDDF
S214006E180128044602D12CF0A9FC2C7001F060FD74
S214006E28012803D1BDE8384001F064B938BD00BF79
S214006E382C5F002010B5044600882CF0B6FBA3781B
S214006E4884F84400834202BF0123E3702371074B92
S214006E5804F11C00C4E9073401F0F6FB224620883A
S214006E680349BDE8104001F033BB00BF5F2E0300A6
S214006E78292E030070B5C37804460D461646002B27
S214006E8834D1D1B1214816F0C5FC0123E370E36C78
S214006E98A6600BB1E06D9847E368F61A63699E42F0
S214006EA821D2217E1A480131C9B2217616F0B2FCE9
S214006EB8A36D13B1217EE06D9847E5702CF0C0FBFA
S214006EC815B3237903BBA268238A801A83421BD88A
S214006ED801231048237116F09DFC236DA3B1E06DC5
S214006EE8BDE87040184701232376E6E70029E4D179
S214006EF8094816F08FFC636DE660E5702571002B77
S214006F08DBD0E06D9847D8E770BD00BFF8E1030016
S214006F1809E2030037E2030024E2030013B5C8B110
S214006F28C2B1012910D0022911D099B9C3692830F5
S214006F3883B11404B4FBF3F404600848009416F014
S214006F4869FC002002B010BD036A2C30F0E7436AE3
S214006F583030EDE74FF0FF30F4E700BF4DE20300B6
S214006F680A4604490346086810B119462BF0CFBFF5
S214006F78704700BF6C16002070B5044694F89D2034
S214006F8894F89E30D21A4032514201F03F0102F086
S214006F983F0258BF4A42D2B2162A00D870BD03F044
S214006FA83F02224492F85D20552A05D0013303F0AB
S214006FB83F0384F89E30E1E700205822191801F0B4
S214006FC83F01214491F85D1001300A441628D2B2D8
S214006FD8F4D1D24303F1160101F03F01214491F8A0
S214006FE85D10D2B28A42E1D1012120462BF054FF2F
S214006FF80421054620462BF04FFF0A210646204668
S2140070082BF04AFFA26AC4E907655643E26A030200
S21400701848BF434202FB05F5226B48BF23F07F407A
S21400702802FB00F303F500431B0C360C2D0C2381E2
S2140070386062A680E5802CF003FB237E33B901232B
S214007048237694F89E3060611733B0E742F21072E8
S2140070586369C31A9342F2D82269B4F9081003FB8D
S21400706801222261064A23699342E8D3A3F55B13FB
S214007078A3F53A532361E3680133E360F3E700BFFF
S21400708880EE360010B504462CF0E5FA2046FFF7E9
S21400709873FF022105482CF0DDFA04F134004FF4A2
S2140070A87A71BDE810402CF0C2BA00BF36850400DD
S2140070B82DE9F8430D4616469846044610B3A8220E
S2140070C80021043017F0C4FC40F29D1240F205136C
S2140070D8C4E90A236923DFF88890236342463146C9
S2140070E828461A4B25806680C9F800402CF0AFFA6F
S2140070F8074660B10023324629461548C9F80030CD
S21400710816F088FB4FF0FF373846BDE8F8832CF0BA
S21400711897FA012384F85C300E4B6061C4E9283482
S214007128032384F8A8300C4BC4E90D3434342046C5
S21400713801F08AFA20464FF47A712CF078FA434622
S21400714832462946054816F065FBDDE7696F0000FC
S21400715886E20300388504008D700000B3E2030061
S2140071686C16002058B101B1816202B1C26203B147
S2140071780363816AD0E90B23014816F04BBB7047BE
S214007188E4E203002DE9F8430E4617461D4604467A
S214007198002846D092220021063017F059FC224AD1
S2140071A8224B3046C4E9152343F273630022E36595
S2140071B8114626806780A5802CF019FA0022A07157
S2140071C8114638462CF013FA00224FF001081146F3
S2140071D8E07128462CF0B6F928462CF0D2F984F847
S2140071E83C802CF02DFA124B04F16009C4E91834DF
S2140071F8206284F88980484601F026FA0D4B3A4604
S2140072083146C4E923340C482B4684F8948016F09B
S21400721801FB484641F288312CF009FA0020BDE807
S214007228F8834FF0FF30FAE7305C020076CF0100B3
S214007238333003005485040009E3030058B101B154
S214007248416502B1826503B1C365416DD0E9162375
S214007258014816F0DFBA70473DE3030013B5C8B11E
S214007268C2B1012910D0022911D099B9836C5430C3
S21400727883B11404B4FBF3F404600848009416F0D1
S214007288C9FA002002B010BDC36C5830F0E7036D91
S2140072985C30EDE74FF0FF30F4E700BF63E3030030
S2140072A870B5044600F13C0680F83B1030460D46A3
S2140072B82CF0C2F9238F1BB194F83A30AB4205D1B3
S2140072C829462046BDE870402BF026BF054B3046C1
S2140072D8C4E90F3401F0B8F93046BDE8704014210F
S2140072E82CF0A5B94931030070B51E4683880446BC
S2140072F80D46C18002810BB1868070BD3C302CF0F3
S2140073089BF994F83430BBB194F83610002908BFBE
S214007318FF2120462BF000FF0123E370074BA680D1
S214007328C4E903340C34204601F08EF92946204679
S214007338BDE870402CF07BB9FF21EAE7B7310300BF
S21400734848B1054B054A0649C0E900230023C0E9B1
S2140073580213C0E9043370471E009065C40910275D
S21400736808523C0010B501790446B1FA81F100884C
S21400737849092CF063F821796088B1FA81F1490946
S2140073882CF05CF8034B1A68A24204BF00221A606D
S21400739810BD00BF7016002070B543790446A3B12F
S2140073A800880E4E04F10805336813B10C4B1B78A1
S2140073B86BB121792CF042F864210A4B3460A36043
S2140073C82846BDE870402CF032B94088E9E7064800
S2140073D816F020FA054B3221A360F1E7701600205C
S2140073E82E5F00206D730000A0E30300A173000069
S2140073F810B50446E0B10F4816F00CFA0123637185
S214007408A37953B9217920882CF018F8236B7BB11F
S214007418606B0121BDE8104018472046FFF7A2FF21
S21400742804F108002CF008F92046FFF7B5FFEDE751
S21400743810BD00BFD6E3030010B50446F8B11048E7
S21400744816F0E8F900236371A3796BB921792088CF
S214007458B1FA81F149092BF0F1FF236B7BB1606B20
S2140074680021BDE8104018472046FFF77BFF04F1CF
S21400747808002CF0E1F82046FFF78EFFEDE710BD78
S214007488E1E3030010B5044668B1074816F0C2F9F0
S214007498637920461BB1BDE81040FFF7CDBFBDE8B5
S2140074A81040FFF7A5BF10BDEDE3030010B50E4C66
S2140074B80E48214616F0AEF982210D4816F0AAF9B4
S2140074C882210220A21E01F079F8014630B134F874
S2140074D8022C0848BDE8104016F09CB90648BDE8DE
S2140074E8104016F097B900BFBA590020FCE3030015
S2140074F817E4030022E4030066E4030038B5114CE1
S21400750882212246022001F049F8A51C014688B1CE
S21400751822880D4816F07EF92A460C4B03F12C01FA
S21400752853F8040B8B4242F8040BF9D11B781370FE
S2140075382C23238035F8021C054A0648BDE8384047
S21400754816F068B9B859002071E40300F1E40300A6
S214007558BA590020CFE40300034B1B781BB18B42BB
S21400756801D82CF05AB87047116F002010B50446A1
S21400757801460E4816F04EF9012C11D10C4B0D4859
S2140075881A884FF6FF739A421EBF0022094B5A7498
S2140075982BF09FFE02F092FDBDE8104002F036BCCC
S2140075A80448BDE810402BF096BE00BF1EE5030059
S2140075B8C46E00206069002070B500241A4D1B4E6A
S2140075C83378A3421BDC0024194D1A4E3378A342A5
S2140075D81BDC0024184D194E3378A3421BDC01F03F
S2140075E87FF9012816481CD12BF073FE02F066FDC1
S2140075F802F00CFCBDE87040124801F091B928462C
S214007608FFF718FC01346035DAE728462BF01EFE33
S21400761801346435DAE728462BF015FF013438358F
S214007628DAE72BF058FEE5E774250020345F0020E3
S21400763894290020355F002044230020335F002073
S21400764860690020757500002DE9F04F89B0FFF7D6
S21400765855FFA94B07A807932BF033FF054617F0ED
S214007668F3F8A64CC2B21F2A627004D9A44816F0D2
S214007678D1F800F0CFFD2946A01C17F079FB07A823
S2140076882BF01FFF054617F0DFF8C2B21F2A84F852
S214007698212001D99B48EAE7294604F1220017F081
S2140076A867FB07A82BF00DFF3225824600269AF8BE
S2140076B80040002C40F0E380934DFFF77DFF2B78C9
S2140076C8DFF88CA2DFF88C82904E00939AF8003090
S2140076D898F8002031788E4816F09CF8327898F89A
S2140076E800109AF8000053180344DFF86C922878C4
S2140076F8254603444846DBB2A24200F36484012BC5
S21400770838BF0123834F03933A4600233D464FF480
S21400771882714FF6FF7403980133984213705180B4
S214007728948002F10C02F6DC7B4B7A497348AB6016
S21400773801F0F8F9E879AB6800EB400003EB80004D
S21400774800F076FFEB79DFF804B20133EB71BBF893
S2140077580030A34203D06F49704801F033FB4FF660
S214007768FF73BBF800206B49D21A18BF01226C4879
S21400777802F08CFA4FF0000B674C33785B4500F349
S2140077882B84684B1B785BB1674B1B78012B07D1A2
S2140077986049664801F0E6FD5E49654802F08CF8E7
S2140077A800274FF00C0B634BDFF8689198F8001031
S2140077B8B94200F326845B4F3B7823B119B15D4983
S2140077C85A482CF0AAF90C214FF0000B337898F899
S2140077D80020134401FB03919AF80000564A5845C6
S2140077E800F32F844FF00C0B98F8003036784FF0E3
S2140077F800081E4406440BFB069B4FF07009DFF892
S2140078085CA1414B1B78434500F33484454B464CFA
S2140078181B7883B1217801290DD90C26013906FB7E
S2140078280151424801F09EFD21784148013906FB86
S214007838015102F041F80399364800F08BFF40F2F8
S214007848055240F6043120783E7800F065FF0022A5
S214007858054640F20271207800F05EFF294602468F
S214007868304601F0CDF8079B23491A468B4240F074
S2140078783784324809B0BDE8F04F15F0CBBF532C1B
S21400788811D19AF801304C2B40F05B819AF80230FF
S214007898502B40F056810122294B1A7007A82BF06E
S2140078A810FE824603E7442C15D19AF80130303B87
S2140078B8092BF3D80AF101002BF010FE214B224ABF
S2140078C81978002385B2994202F16002E6DD22F8B3
S2140078D8465C0133F7E7422C42D19AF80130542B24
S2140078E840F08D800AF1020000F040FE174B188029
S2140078F818462BF072FAD1E7BA5900205C680020C7
S2140079083DE5030054E503002F5F0020325F0020AA
S214007918E5E50300341A0020AC1A0020EC16002017
S214007928741600202D5F0020106F00203C170020E2
S21400793808100020381F00207C1D002035E60300B4
S2140079482E5F0020345F002074250020C46E0020BF
S214007958305F0020315F0020982000202C1C00207B
S214007968582C33D8412C99D9433C152C96D801A3CA
S21400797853F824F0497D0000A5780000DF7D00005C
S214007988A5780000A5780000A5780000997A000080
S214007998A5780000A5780000497A0000EB79000079
S2140079A8A5780000A5780000A5780000A578000056
S2140079B8D37B00004B7B0000A5780000A57800006C
S2140079C8A5780000A57800005B7C0000692C7FF491
S2140079D865AF0AF101002BF081FD80B22BF015FE91
S2140079E85CE7C84B012019780023C74A994202F180
S2140079F8A8027FF753AF02F8A60C0133F6E70AF1A0
S214007A08010000F0B3FD04460AF103002BF0DEFD8A
S214007A180121024620462BF095FD6021BB48BC4F4D
S214007A28037859437A187C524FF4FA6111824FF45E
S214007A3848715161B74901335583116503702DE7C5
S214007A480AF1010000F092FD00224FF0640881461A
S214007A58B14F11462BF076FDB04C3E780AF1030183
S214007A6808FB06F306FB0846304624F803902BF07E
S214007A780EFD304601262BF0E9FB00213B78A84A8C
S214007A8803FB084433441460516016743B7005E7E2
S214007A980AF1010000F06AFD00224FF064088146F2
S214007AA89D4C11462BF04EFD9C4F23780AF103019E
S214007AB808FB03F203FB0878404627F802902BF0F1
S214007AC8E6FC40462BF0C2FB964A00231046116D92
S214007AD839BB582202FB03006423227802FB037397
S214007AE80365894A00231046D2F8A410F9B9A822DB
S214007AF802FB03006423227802FB0373C0F8A43059
S214007B085EB9874A3346114652F8040BA8B9642270
S214007B18207800FB027241F8232023780133237073
S214007B28BCE60133042B02F15802D0D1D9E7013361
S214007B38042B02F1A802D7D1E2E70133042BE3D1E4
S214007B48EBE70AF1010000F011FD07460AF1030011
S214007B582BF03CFD0121024638462BF0F3FC602151
S214007B686A486B4C0278DFF89CC151436318675229
S214007B784FF44871198259616B495D8399659AF883
S214007B880310A827642904BF012199709CF80030C7
S214007B98DFF874E15F430EEB07010EF807304FF489
S214007BA800774F8003270F718F7102EB420704EBB3
S214007BB847148C6032240133DBB201324B7181F8F2
S214007BC8A04002708CF8003068E60AF1010000F068
S214007BD8CDFC00224FF0380B80464FF00109534F7A
S214007BE811462BF0AFFC3B78514C0BFB03F3E21825
S214007BF824F8038082F804909AF80330692B15D18C
S214007C080023137158224B4946480B785A4300EB19
S214007C18020C835438780133C0EBC00204EBC2046C
S214007C28421CCCF84C403A700B7037E6002BE9D073
S214007C380AF1030000F09AFC0022804611462BF059
S214007C4881FC3B780BFB0343A3F8028083F806907D
S214007C58D8E70AF1010000F089FC07460AF103009C
S214007C6800F084FC04460AF105002BF0AFFC8046C1
S214007C780246012138462BF065FC42462046012183
S214007C882BF060FC6020DFF884E0214A9EF8003084
S214007C98DFF8948000FB03FC02EB0C0122F80C7062
S214007CA84FF4487C4D83A1F810C0C1F814C0C1F841
S214007CB85880591CC9B24843145294241718A7F878
S214007CC810C0C7F814C07D83C7F858801A4F981C90
S214007CD88EF800003878DFF864C0444303EB4303AB
S214007CE801EB41010CEB040E02EB431302EB4112CD
S214007CF80CF80400CEF80430CEF8082001303870AE
S214007D08CCE500BF325F002098200020345F0020BA
S214007D187425002081340300355F00209429002054
S214007D2860690020381F002061750000335F00205E
S214007D3844230020315F0020305F00207C1D002097
S214007D480AF1010000F012FC80460AF1030000F078
S214007D580DFC00220746114640462BF0F3FB002296
S214007D683824114638462BF0EDFBCE48CE4A037829
S214007D784FF0000E04FB03FC22F80C804FF00108BD
S214007D8802EB0C0181F806E081F8048003EB080199
S214007D98C9B24C4302EB040C17539C1C04707024A5
S214007DA8C24F8CF806E038788CF804804443DFF835
S214007DB82CC3C3EBC303C1EBC1010CEB040E02EBEF
S214007DC8C30302EBC1020CF80400CEF80430CEF868
S214007DD80820404493E79AF80130502B75D1514655
S214007DE8B34815F017FD0AF1020000F0BFFB07467E
S214007DF80AF1040000F0BAFB80460AF1060000F01B
S214007E08B5FB4FF6FF739F4281463FF447AD984552
S214007E183FF444AD98423FF441AD034642463946E6
S214007E28A448FFF7AFF9044600287FF437AD0AF1F7
S214007E38080A562150462BF021FB41210390504654
S214007E482BF01CFB5721834650462BF017FB039B51
S214007E5882461A78562A03D1581C2BF03FFB044654
S214007E689BF80030412B2BD10BF101002BF036FB91
S214007E7883469AF80030572B25D10AF101002BF0DB
S214007E882DFB03465A4621468A48FFF7D7F9894804
S214007E982BF039F9884C01462060884801F01AFA18
S214007EA8216887482BF0ADFE0123864A39461370B1
S214007EB8854A864813704B46424615F0ABFCEDE4FF
S214007EC84FF0000BD5E70023DCE7422B7FF4E6AC47
S214007ED85146774815F09EFC0AF1020000F046FB72
S214007EE807460AF1040000F041FB4FF6FF739F4275
S214007EF880463FF4D3AC98423FF4D0AC0AF1060A69
S214007F08532150462BF0BAFA03788B4253D10130EE
S214007F182BF0E4FA0346424639466D48FFF7C8F8A0
S214007F28044600287FF4BAAC562150462BF0A6FA31
S214007F384121834650462BF0A1FA572181465046E8
S214007F482BF09CFA9BF800308246562B04D10BF196
S214007F5801002BF0C3FA044699F80030412B2DD1C6
S214007F6809F101002BF0BAFA81469AF80030572B2F
S214007F7827D10AF101002BF0B1FA03464A462146FA
S214007F885348FFF7EFF852482AF0DBFF4A4C014601
S214007F9820604A4801F09EF9216849482BF031FED6
S214007FA80123484A39461370474A4A4813704246DE
S214007FB815F030FC72E44FF49653ACE74FF0000926
S214007FC8D3E70023DAE7477901348F4284BF057187
S214007FD84571A830FFF790BBBBF1000F06D017F825
S214007FE8053C03EB430304EB8304BC603946484670
S214007FF802F042FA0BF1010B09F1A8090C37FFF75A
S214008008BCBB3178C9190AD0481E0BFB0090C07952
S21400801800EB400004EB80040BFB019084601846DC
S2140080280BFB0151049301F0ADFF31782A4839441F
S2140080380BFB015101F002FC049B01375833FFF794
S214008048B5BB1BEB030FCDE904134FF094031FBF1A
S21400805811F8050C00EB400004EB80048C6003FB71
S2140080680B2001F073F80499059B0BF1010B0C31FA
S214008078FFF7B2BB18EB060F18BF1BF8053C5946AE
S2140080881CBF03EB430304EB830409FB08A018BFDB
S214008098CBF8084000F030FF08F101080BF10C0B94
S2140080A8FFF7AFBB335F0020442300202F5F00207C
S2140080B864E503009C190020EC1800203C170020FB
S2140080C8081000202D5F0020106F002092E50300A6
S2140080D8F0180020C1E50300382300202C1C0020DF
S2140080E813F8011D00297FF4BFAB3B2102F8011CE1
S2140080F8FFF7BABB08B5094B1B786BB108482BF0DD
S2140081080FFD07482BF07CFD064801F061FCBDE832
S214008118084004482BF087BD08BD00BF2D5F00202F
S2140081283C1700200810002008B5064B1B783BB10A
S21400813805482AF0F0FFBDE8084004482BF0F0BCDC
S21400814808BD00BF2D5F00209C1900203C170020AA
S21400815807B5012121200DF1070200F01FFA18B912
S2140081689DF80720024B1A7003B05DF804FB00BFA9
S214008178116F002007B5064B8DF80700187001210F
S2140081880DF10702212000F019FA03B05DF804FB90
S214008198116F002007B5022101200DF1060200F03C
S2140081A8FDF938B9044815F035FBBDF8060003B0EC
S2140081B85DF804FB0020FAE752E6030007B5022143
S2140081C8ADF806000DF10602012000F0F7F90146A9
S2140081D810B1034815F01EFB03B05DF804FB00BFA2
S2140081E873E6030010B5FFF7D5FF044601460748B7
S2140081F815F010FB0121064815F00CFB24B9BDE864
S21400820810400120FFF7DABF10BD00BFA3E6030049
S214008218B5E6030008B5044815F0FCFA00F0DEF9E8
S2140082282BF0FBF92BF0F6F9CBE6030038B504463D
S214008238084D094B28462B6000F006FA002C18BF9C
S21400824821462846BDE8384008BF4FF496712BF003
S214008258EEB900BF882B0020033503002DE9F04354
S214008268394D93B008AC0746894690460FCD0FC4E3
S2140082780FCD00260FC495E803000323012584E8E4
S2140082880300324C3248CDE90366CDE905668DF821
S2140082980E300796029535F010FD2E4835F00DFD88
S2140082A832462D4920468DF8176005F085FC334682
S2140082B832462A498DF81900009020468DF82390FA
S2140082C8CDF82C808DF8216005F090FC0A902046A9
S2140082D88DF8097005F0F0FB204608AA05A905F0F8
S2140082E8ABFC02AA204603A92CF0CDFB4FF4007283
S2140082F81B4B5A62194BE560626A920510D46BB93B
S2140083084FF40072164B11485A6205F0D5FB114817
S21400831835F0D6FC002013B0BDE8F083013BEBE750
S214008328002BEDD0094908A82CF0E0FB4FF40072AA
S2140083380B4B06485A6205F0BFFB064835F0C0FCF2
S214008348BDF82000E7E700BF708504000040005A2B
S214008358B0870400AC87040080841E0040420F00EB
S2140083680060005A0122034B1870034B1980034B18
S2140083781A707047375F0020CC6E0020365F0020EA
S214008388F8B5454B1B780BB90020F8BD434B1B7856
S214008398012B03D1BDE8F8402BF0B2B8404B1C883F
S2140083A84FF6FF739C42EFD03E4835F086FC00231C
S2140083B8260AE4B21A462146304605F03DFB012E51
S2140083C8354604F0010335D015D9B51E012DDBD886
S2140083D8002B0BBF4FF480754FF080754FF470611B
S2140083E84FF070610BBF01274FF480370F204FF412
S2140083F870202D4B11E0002B0BBF4FF480754FF00B
S21400840880754FF470614FF070610BBF01274FF411
S21400841880370F204FF47020244B1A6802401CD077
S214008428BA421AD01A680A4032D11A6822EA0102F9
S2140084382A4316E0002B0BBF4FF480754FF080756B
S2140084484FF470614FF070610BBF01274FF480370F
S2140084580F204FF47020164BDFE71A6822EA000256
S2140084683A431A602BF04CF8054600288CD008369C
S21400847844EA06102A460321C0B2FFF7EFFE40F68C
S214008488FF73684300F2FF70B0FBF3F080B27CE73E
S21400849895427FF479AFC8E7365F0020375F002043
S2140084A8CC6E0020B087040028C3035020C30350B6
S2140084B824C3035010B5044C237823B9034835F079
S2140084C8FCFB0123237010BD395F0020B087040031
S2140084D82DE9F0431F4C85B0074688469146FFF7BE
S2140084E8E9FF23781BB902F04DFD012323707BBA00
S2140084F8ADF80C3030220023174E02FB03F4315D32
S214008508A51901BB012333554FF0FF3304F11000C2
S21400851812493044AB606F80C5F80480C5F80C90EB
S2140085280AF028F804F10801042231440C4B00959F
S21400853803A802F0FDFDA96802460A4815F06AF984
S21400854805B0BDE8F0830133102BD6D1064815F0E8
S21400855861F9F5E7385F0020B02B00202D350300C1
S2140085683F350300D8E6030006E7030080B102782B
S214008578A2F14103032B0BD840783038C0B2082844
S21400858806D8054B134413F8413C40EA03207047CD
S2140085984FF6FF70704700BF9885040008B50B4675
S2140085A842B101460448006803F00AFFBDE80840E7
S2140085B82BF025B8022008BDCC69002008B50B466C
S2140085C842B101460448006804F082F8BDE8084055
S2140085D82BF015B8022008BDCC690020F0B500269F
S2140085E8124F8DB0FF2300930A223346386802A93B
S2140085F82BF0EEFFC0B102AB1D4603EB800404E08F
S21400860855F8043BB34228BF5E1CAC423868E9D92B
S214008618296804F0E3F90028F2D02D28F0D00DB030
S214008628BDE8F0402AF0EBBF0DB0F0BDCC690020E5
S21400863828B1034B0360034B4360002383607047F5
S2140086481900000374690020FF2307B50021044AB7
S2140086580093083009F012FF03B05DF804FB00BF72
S214008668313603000B460449024608680349097870
S21400867808B12BF005B87047BC2E00203B5F0020E1
S214008688F7B50C4618B12F21194835F07CFB24683D
S21400869823685E795F8830463946FFF7E3FFF0B116
S2140086A88568E5B1A089227D3946904291BF0020B1
S2140086B8801AA36880B294BF03469B18E27C009099
S2140086C83046A8470138032803D8DFE800F0080F2B
S2140086D80B0D002420462FF0F0F8204600E08120FD
S2140086E803B0F0BD8024F5E79324F3E78724F1E789
S2140086F82EE7030007B50B460092054902460548D3
S214008708097800682AF0DEFF03B05DF804FB00BFB6
S2140087183B5F0020BC2E002007B50B46009206499A
S21400872802460648097800682AF0CCFF003818BFC9
S214008738012003B05DF804FB3B5F0020BC2E002040
S21400874808B5034B1B6803B19847002008BD00BF57
S214008758B82E00202DE9F74F04460D460026454B57
S214008768454F1860454B197033010021F85C0136F7
S21400877810F054FF0C2EF7D10C2D28BF0C254FF007
S214008788000901953C4EDFF800A13D4DDFF8FC805E
S214008798019B4B4502DC03B0BDE8F08F23784FF011
S2140087A8000B337063887380A388B380A379C6F8F8
S2140087B80880B371E379C8F8005088F804304FF0A1
S2140087C80003A768A8F80630E3795B450ADC0121B0
S2140087D816F8100B10F022FF08F1080809F1010935
S2140087E80C34D5E74FF0000338886B812880FB7877
S2140087F84FF0000C2B81BA78C5F804A0002A009226
S2140088080CBF802240222A7379680AF10C0263455D
S21400881813DC03EB43030AEB830ABB6843B1009AF5
S2140088284FF6FF71B2FA82F2164B52092EF0D5FFB8
S21400883814350BF1010B0C37C6E7B1F800E00CF164
S214008848010C22F80CEC91F802E00C3202F816EC57
S21400885891F804E00C3102F815EC11F809ECBEF1B9
S214008868010F14BF4FF0100E4FF0110E02F814EC63
S214008878CDE700BFBC2E0020204600203B5F00202E
S214008888C034002089860000C02E00204037002013
S214008898014B1860704700BFB42E0020014B1860CB
S2140088A8704700BFB82E002070B5128805460E46E1
S2140088B8FFF720FF044670B102790499806816F025
S2140088C819F9064B1B680BB9002070BD31462846BF
S2140088D822889847F8E78620F7E700BFB42E0020DE
S2140088E808B50FF037FF022806D0012806D0044B3B
S2140088F818784000C0B208BD0120FCE70220FAE75D
S2140089083A5F0020054B10B51C682CB1FFF7E8FF4E
S2140089182346BDE81040184710BD00BFB02E002003
S214008928014B1860704700BFB02E0020034B1A7822
S2140089381AB901221A700BF06DBF70473A5F002013
S2140089480022024B1A70FFF7DDBF00BF3A5F002017
S21400895837B50446002832D00FF0FCFE022830D186
S21400896860892FF00CFBE079237A003818BF0120C5
S214008978012B637A08BF40F008000BB140F01000E6
S21400898863890BB140F00400257CA188A2790DB15B
S214008998E36873B90C4B11F01DFA2178084611F0FC
S2140089A895FA2EF015FE002814BF0320002003B009
S2140089B830BDCDE90035054B11F00CFAEDE7022085
S2140089C8F5E70120F3E700BF303A0400A5090400E4
S2140089D808B50EF07DF8014630B1044814F01AFFC9
S2140089E8BDE808400EF018BC08BD00BFBCE7030091
S2140089F8024B187C00B11868704700BF60690020F9
S214008A0830B5C0B100290CBF30203120002A0CBF79
S214008A183024312414220023084911F8015F3F2D21
S214008A2806D1002B14BF2546054601330D70DBB270
S214008A38013AF2D130BD2D200446EBE7126F002034
S214008A48034B044A5B7C012103201370FFF7B6BD75
S214008A58606900203C5F002037B50446FFF7F0FF4A
S214008A68B4F57F4F27D10025204B1A8813449D70F4
S214008A78FEF71CFD2846FFF7D9FB1D4D2A68C2B134
S214008A88FFF7B6FFA8B14FF605739C4224D192F8BB
S214008A9841102AF0FAFB2B680421B3F8422093F819
S214008AA841303220ADF8062001AA8DF80430FFF7D1
S214008AB885FD03B030BD4FF601739C4203D10D48C7
S214008AC82AF0EFFBD9E74FF602739C42D5D10A4B42
S214008AD81878FFF74FFBD0E74FF606739C42E8D1AD
S214008AE8B2F842102AF0DBFBD5E700BFB8590020E1
S214008AF8A037002060690020116F002010B5074CD1
S214008B08012122460320FFF749FD28B92378044AA5
S214008B18003B18BF0123537410BD00BF3C5F002004
S214008B28606900207A4BF7B51A884FF6FF739A42A9
S214008B3818BF03234FF008020D467649044618BFAF
S214008B480B70754B36201A7030229A705A7137227D
S214008B589A713122DA711A724FF4001218716F483E
S214008B686264E0646E48012220656E483227A0657C
S214008B786D48A618E0656D48E66760666C486D4EF9
S214008B88A0666D485F7020676C48DF7060672020BD
S214008B9884F8780084F8840004F12100C4F888007A
S214008BA86748C4F8806084F8482084F8542084F81D
S214008BB8602084F86C20C4F88C0084F89020C4F8F0
S214008BC89410C4F8B8305F4B5F49C4F8BC30022331
S214008BD8C4F898105D4984F8C030C4F8A41015216C
S214008BE85B4B84F8A810C4F8C4305A4B5A49C4F8EA
S214008BF8C8308223C4F8AC10584984F8CC30C4F87E
S214008C08B0100921564B574EC4F8D030564B84F84E
S214008C189C20C4F8D430554BC4F8A040C4F8DC30C7
S214008C28337C84F8B41084F8D820002B6AD0504BD4
S214008C3884F8E420C4F8E03006F11103C4F8E830FC
S214008C48FFF7D6FE90F83430002B5DD090F836301B
S214008C58042184F84130FFF7CBFE038F01AA38467B
S214008C68A4F84230FFF79AFC38B99DF8043084F827
S214008C784130BDF80630A4F84230FFF7B9FE94F844
S214008C8841102AF002FBFFF7B3FEB4F842102AF0B0
S214008C9806FB384B10211C60374BC4F8EC30012318
S214008CA884F8F03004F14103C4F8F430334BC4F8C8
S214008CB8F830022384F8FC3004F14203C4F800318B
S214008CC84FF0000CEA79A86802EB42039F0000EB1D
S214008CD8830320F807C0D9700121443499705C607A
S214008CE85318EB71FFF734FAFFF708FFFFF7F8FDA4
S214008CF801280BD1337C4BB11A4803B0BDE8F040CD
S214008D082AF0CFBA0D21DBE70E21D9E703B0F0BD74
S214008D18C46E0020276F00203D5F0020A185040058
S214008D2801002000A0850400020020009F850400A2
S214008D3803002000050042009E850400040042004F
S214008D4807003000FDFF210012001001004042001D
S214008D589C85040000FF4401126F002006004200B4
S214008D68B85900206069002002FF2001116F00201A
S214008D7801FF1001A037002005FF200106FF210192
S214008D8813B504460D482AF033F86422C0F30F439F
S214008D98637083B2B3FBF2F3A0782370202201211C
S214008DA82AF0ABFCA078212201212AF0A6FC04496F
S214008DB8201D02B0BDE810402AF039BCC46E002061
S214008DC8E09304000B7870B583704CF61E0303809E
S214008DD84FF02013C362012380F8303080F83C300F
S214008DE8C3180364124B044643640223114A80F8EE
S214008DF84830114B8263C3644063CA798D6802EBBE
S214008E08420305EB830004F12C0646600B4E45F83A
S214008E18236000238360531CCB71094B201DC4E9D3
S214008E280134FFF711FC2046BDE87040FFF7A8BFE5
S214008E38FDFF210021002000A28504000100010397
S214008E48898D0000437B044A012113700078113095
S214008E58C0B2FFF7B3BB00BF475F002038B5044673
S214008E680078054D11302A460121C0B2FFF796FB5F
S214008E7808B92B78637338BD475F0020024B53F858
S214008E8820002AF015BD00BFA4370020012908B528
S214008E9806D0022907D049B92AF001FD002008BDEE
S214008EA82AF000FDFAE72AF000FDF7E7024814F07A
S214008EB8B1FC0120F3E700BFE9E7030010B4054C56
S214008EC8114654F820001A46BDF804305DF8044BE5
S214008ED8FFF7DCBFA4370020002310B504468381C3
S214008EE80364A0F844304830FFF7AEFB014BC4E9F2
S214008EF8123410BD9F38030038B504460B781A4A5A
S214008F0843700D4642F82300FFF7E6FF2046FFF7BA
S214008F18A5FF4FF4401323610123144A2375A26169
S214008F28134A84F82030E261124A84F82C306262D0
S214008F38114A84F83830A26204F10C0222630F4A00
S214008F4804F10D036263E363EA79A86802EB42035F
S214008F5800EB830110344C60094C40F82340094B61
S214008F688B60531CEB7138BDA4370020465F002089
S214008F7808002000286F002000FF300001FF1001C5
S214008F8802010104C58E000010B47024427B0D480F
S214008F98013A012904FB020006D0022908D059B973
S214008FA85DF8044B2AF07BBC5DF8044B2AF07ABCCB
S214008FB85DF8044B2AF079BC03485DF8044B14F0BE
S214008FC829BC00BF2C1C002005E80300B0F85C3064
S214008FD82DE9F0418B4204460E4638D0437B077C89
S214008FE88BB31C4A12789A422DD370251A4A013B35
S214008FF805FB032390F80F801B7B42462AF066FC8D
S214009008B845054601D1FF281FD13A4631462046C5
S21400901894F890302AF05AFC2F460546552212211D
S2140090286078A4F85C602AF068FBFF2F03D0394606
S2140090382046FFF7A9FFFF2D09D029462046BDE8A0
S214009048F0412AF083BCFF25DFE70746E6E7BDE8E0
S214009058F08100BF2F5F00202C1C0020416882682A
S214009068C978D27849B112B10321FFF7AFBF837B25
S214009078002B0CBF01210221F7E72AB1837B002BC6
S2140090880CBF02210121F0E7014814F0C3BB00BF62
S21400909816E80300037BD3B14368DA7812B1826816
S2140090A8D278A2B91B7933B1837B002B0CBF04217D
S2140090B80521FFF78BBF83681B792BB1837B002BB9
S2140090C80CBF05210421F4E7014814F0A3BB704740
S2140090D848E80300084A437B05211370837B5370D6
S2140090E8C37B9370037CD370037B137100780E30B8
S2140090F8C0B2FFF763BA00BF485F002038B5044621
S21400910800780C4D0E302A460521C0B2FFF746FA05
S21400911820B1BDE83840084814F07CBB2B78637350
S2140091286B78A373AB78E373EB7823742B7923738C
S21400913838BD00BF485F002084E80300024B53F8A0
S21400914820002AF04DBC00BFCC370020F8B50446F6
S2140091580B78424A43700D4642F82300404E2AF0E8
S2140091685DFCFFF7CBFF6268A3683E483E49D664BD
S2140091781165D4655065C3E91410DE64DC654FF0EC
S214009188987302266361012304F10C01E1613749F3
S2140091981032216204F10D01A16235492376E1629D
S2140091A804F10E016163334984F82430A16304F1A5
S2140091B80F012164304984F83030616404F11001ED
S2140091C8E1642E4984F83C3084F84830216584F8F8
S2140091D85460A265E879A96800EB400201EB8207B3
S2140091E804F1140CC7F804C04FF4817C244F41F8EE
S2140091F82270C218D2B202EB420241F822C001EB3A
S214009208820700227A601F4A84F8703022661E4A57
S21400921884F88830A2661D4A1D4BE2661D4AC4F8CB
S2140092288C3062671C4A8319A26704F15C02C4F892
S2140092388020DBB2194A03EB4303C4F8842084F881
S214009248646084F87C6001EB830260345460144ADE
S214009258033041F82320E871F8BD00BFCC37002062
S21400926865900000AB3903009D90000001002001C6
S214009278020010010300300104003001050021013E
S21400928801FC01064A002100A485040051001000D4
S214009298A6850400A7850400550021006F00180065
S2140092A81200010400B589B001A92AF0D1FB084BC9
S2140092B810210493019B04AA0593029B2C20069375
S2140092C8039B0793FFF77AF909B05DF804FB00BF24
S2140092D843574C4838B50D460446F0B1E9B14FF44B
S2140092E8D872002115F0B4FB0923A36001230B4AAA
S2140092F86382626102F56172A261A383656004F10C
S2140093085800FEF71DF8A26D94F864306267E26DA7
S21400931884F88030A267226EE26738BD64000100D8
S2140093281FB50446B8B14368ABB16A4610212C2075
S214009338FFF734F978B9094B009A9A420BD1DDE960
S2140093480223019960682AF08BFBDDE90223019964
S214009358034814F05FFA04B010BD00BF43574C48EA
S214009368B3E80300F0B5044685B0002800F028816D
S214009378002900F025814FF4D813C0F8843000F196
S2140093880803C0F88C308F4B0422C0F890300223B4
S21400939800F10C05C0F898508B4D80F88820C0F86E
S2140093A89C5000F10E05C0F8A450884D80F8943003
S2140093B8C0F8A85000F11005C0F8B050844D80F8E9
S2140093C8A030C0F8B45000F11205C0F8BC50814D6A
S2140093D880F8AC30C0F8C05000F11405C0F8C8508A
S2140093E87D4D80F8B830C0F8CC5000F11605C0F8AE
S2140093F8D4507A4D80F8C430C0F8D85000F118051B
S214009408C0F8E050764D80F8D030C0F8E45000F14F
S2140094181A05C0F8EC50734D80F8DC30C0F8F050F0
S21400942800F11C05C0F8F8506F4D80F8E830C0F819
S214009438FC5000F1200580F8F43080F80021C0F8D0
S21400944804516A4D80F80C21C0F8085100F128052F
S214009458C0F81C51664D00F12402C0F8205100F1F6
S2140094682A05C0F82851634DC0F81021C0F82C51C1
S21400947800F12C05C0F834515F4D604AC0F83851E9
S21400948800F12E05C0F840515D4DC0F81421C0F813
S21400949844512525012280F8485100F13005C0F8CE
S2140094A84C51584D80F81821C0F8505100F17405F9
S2140094B8C0F85851544D80F82431C0F85C5100F17A
S2140094C87605C0F86451514D80F83031C0F86851BF
S2140094D800F17805C0F870514D4D80F83C31C0F861
S2140094E8745100F17A05C0F87C514A4D80F8543121
S2140094F8C0F8805100F17C0580F8603180F86C3146
S21400950880F8783180F88431C0F8885180F8903136
S21400951800F17E03C0F894313F4B404DC0F89831B7
S21400952800F18003C0F88C5180F89C21C0F8A03167
S214009538CA798D6802EB420305EB830600F18407BF
S2140095487760374E45F82360531CCB710B7801AD16
S2140095580370344B1860FFF7E3FE20462AF0B5FA8E
S2140095682A460C213320FFF719F828B995E8070092
S21400957804F1580383E80700B4F85830B3F5666F6B
S21400958884BF4FF46663A4F85830B4F85A30B3F57D
S2140095987A5F84BF4FF47A53A4F85A30B4F862302E
S2140095A8A26D042B98BF05236267E26D98BFA4F8E6
S2140095B86230A26794F86430226E84F88030E267DE
S2140095C805B0F0BD05052100080521000B0529009A
S2140095D800062100010621000206210003062100DC
S2140095E8040621000506210000FF230001FF2300D2
S2140095F810FF210111FF210112FF210102FF2000A7
S21400960820FF420130FF210131FF210132FF2101F5
S21400961833FF210134FF210136FF300035FF2101D9
S214009628040B0118F43700202DE9FF41564B1C683F
S2140096388CB1237883420ED1606860B14FF61273FE
S214009648994250D00AD84FF6107399423BD04FF63D
S2140096581173994240D004B0BDE8F0814FF62073EC
S214009668994247D0D03189B20529F4D8606FB4F84A
S2140096787410A065A06FB1F5666FE065E06FB4F88A
S2140096887620B4F87E30206679D8B2F57A5F84BF43
S2140096984FF47A52A4F85A20042B98BF052304F1F5
S2140096A8580298BFA4F862300C213320FEF786FFD4
S2140096B8A26D94F864306267E26D84F88030A26721
S2140096C8226EE267C7E70021628D2AF0B7F9002309
S2140096D863850028BFD121E00121A28D2AF0AEF9CA
S2140096E80023A385F5E70221E28D2AF0A7F90023D7
S2140096F8E385EEE7002394F830504FF00A0C232D4C
S21400970828BF2325CDE9013304F1310703939D4291
S2140097180DD8DDE9022301992AF0A2F96068FFF75F
S214009728C1FD204604B0BDE8F0412AF0CEB9FA5C87
S214009738562A14D0572A14D0412A0DD101210022C6
S2140097480133DEB2F3B29D420DD804AE013B06EB00
S2140097588101DBB241F80C2C0133DBB2D7E70021DC
S214009768EDE70221EBE717F806E00136AEF1300820
S214009778B8F1090FE9D80CFB02E2303AE2E74FF4F9
S2140097886661A4F8581080E7F437002070B50D46D7
S2140097980646144613460A460146244814F03AF884
S2140097A825B92046BDE87040FFF756B9072D05D104
S2140097B821463046BDE8704000F022BE4FF6014311
S2140097C89D4205D121463046BDE87040FFF7B6BC3D
S2140097D8062D05D121463046BDE8704000F08CBB0A
S2140097E8B5F5817F05D121463046BDE87040FFF7C4
S2140097F845BB40F202739D4205D121463046BDE87E
S214009808704000F037B940F604339D4205D1214632
S2140098183046BDE87040FFF707BF202D04D120462C
S214009828BDE8704000F0FEB970BD00BFE3E8030075
S2140098380148FFF72DB800BF959700004FF4C013F6
S21400984830B5036001230371074B8C688360CA79BF
S21400985802EB420304EB83056860044844F82300DF
S214009868531CCB7130BD00BFA8850400040001015D
S21400987813B5044680B100786A4627300821C0B27E
S214009888FEF78CFE50B9DDE900230948C4E9022337
S214009898C4E9242313F0BEFF02B010BD0022002343
S2140098A80448C4E90223C4E9242313F0B3FFF3E70A
S2140098B816E9030041E9030070B50D460446002882
S2140098C858D0002956D00B7804F1200603702A4B8E
S2140098D81860FFF7CDFF4FF414132362082304F132
S2140098E810026263254A84F82430A26304F1110248
S2140098F82264234AE31862640422A362214B84F894
S2140099084820E362012384F8542004F11802A26573
S2140099181D4A04F11401E26504F11C0262661B4A42
S214009928E164A26604F11D0222671949194A84F8FF
S214009938303084F83C3084F8603084F86C3084F832
S214009948783004F11E0321656267E367EA79A9683F
S21400995802EB420301EB830046600F4841F8230000
S214009968531CEB712978D4E902230C48BDE87040F3
S21400997813F050BF70BD00BFF8370020000330005A
S214009988010322000002180003031800060318004B
S2140099980203220000F02001020701086FE9030015
S2140099A813B5044678B1D0E902230078CDE9002340
S2140099B827306A460821C0B2FEF700FED4E9022323
S2140099C8024813F027FF02B010BD00BFA0E903004D
S2140099D830B5044689B040B3436833B31A6822B139
S2140099E8126812B1586801A990479DF81030E3B183
S2140099F80399D4F880208A4207D8D4E902308A1A14
S214009A089B1840F10000C4E90230C4F8801029F021
S214009A1817FED4F88430064AC31A9342054604D97A
S214009A282046FFF7BDFFC4F8845009B030BD00BF1C
S214009A38DF93040010B50446C0B1002300220021BD
S214009A48C0E90223C0E924234368C0F880102BB17C
S214009A581A681AB152680AB1586890472046FFF744
S214009A689FFFBDE81040024813F0D4BE10BD00BFEB
S214009A78C8E90300B1F5704F034607D1044A1068D9
S214009A8820B102789A4201D1FFF7D4BF704700BFD1
S214009A98F83700200368064A0C21136043685360B1
S214009AA803891381438922205381FEF787BD00BFAF
S214009AB8FC37002010B50368044686B0FBB1114891
S214009AC813F0A8FEA37B104A8DF804304FF4827377
S214009AD8ADF806300123CDE90223002301A804933C
S214009AE88DF81430FEF734FF204661892AF09CF87A
S214009AF82046FA2150F8143B594329F098FD06B041
S214009B0810BD00BFE9E903002000000110B5064CAF
S214009B18236843B1054813F07DFE2068BDE8104071
S214009B2841892AF081B810BD083800200AEA0300E7
S214009B3870B5364910460C68BDF81020002C5ED06B
S214009B4803285CD8DFE800F0021E2745002B5AD011
S214009B58022A58D91D78B3F80160291E18BF0121BA
S214009B6832462B4813F056FE2DB1314620462AF0D1
S214009B785BF8002070BDE573FA206368584329F047
S214009B88FDFDF6E7234813F045FEE37B002B38D0AF
S214009B980023E373F0E7002B35D0032A33D91D687A
S214009BA81D48294613F036FE1C4B2A1F9A4201D937
S214009BB80220DFE723680BB19D42F9D823899D422E
S214009BC8F6D3E37B6560B3B9FA20684329F0D6FD7F
S214009BD811E0002BCED0012ACCD91D881048294682
S214009BE813F018FE002DE3D063689D42E0D8E37BAF
S214009BF82581002BE8D12046FFF74CFFB9E7012066
S214009C08B8E70420B6E70320B4E700BF083800200A
S214009C182DEA030064EA030083EA0300FCFF6D00F4
S214009C28AEEA030038B5154B1C6834B3F0B92168A2
S214009C38134813F0EFFD23683BB16268934204D2E1
S214009C48104813F0E7FD6368236004F114052846FE
S214009C5829F0F2FC236823B1FA212846594329F053
S214009C68E6FC2046BDE83840FFF714BF032804D1B9
S214009C786189054813F0CEFDF3E738BD08380020A3
S214009C88D9EA030007EB03003CEB030070B53E4B34
S214009C980D46044609781860002A6FD101231A4633
S214009CA8A1730021E1730121A1814FF46151C4E938
S214009CB800132823354E22810C2132462220638148
S214009CC8FEF76CFC60B9D6E900230AB19A4207D3BE
S214009CD8318999429FBFC4E9002373892181638132
S214009CE82B4B2C4AE363042384F8403084F84C302A
S214009CF8E3182365284BA2646365022304F108026F
S214009D08E265264A84F85830226604F10A02A266FA
S214009D18234A84F8643084F8703004F10C03E26651
S214009D2863676464EA79A86802EB420300EB830180
S214009D3804F13C064E601B4E40F82360FA261A4B88
S214009D481A488B60531CEB71FEF7A8FD208904F1B6
S214009D581405704329F012FD6189204629F064FF36
S214009D68134B2846C4E90534FEF76EFC216849B152
S214009D7828467143BDE8704029F059BC4FF4F0738B
S214009D8802228DE770BD00BF08380020FC3700208F
S214009D980000230101002300020021000300210126
S214009DA8FDFF210020000105399B0000159B0000DF
S214009DB8BD9A0000134B10B51C680CB3E37BEBB1DF
S214009DC829F03EFC2369C01A002809DB0E4813F068
S214009DD821FD0023FA20E3736368584329F0CEFC7C
S214009DE8E37B5BB12489FA235C4329F0D2FCA042CA
S214009DF806D02046BDE8104029F0C0BC6468F2E7EB
S214009E0810BD00BF0838002069EB030038B50024F1
S214009E18044D55F8040B08B129F019FF01340A2C33
S214009E28F7D138BD0C380020042908B50AD172B11C
S214009E386BB113781BB929F035FF002008BD29F04F
S214009E4827FFFAE7034813F0E5FC0120F6E70320AE
S214009E58F4E700BFA3EB030010B4054C114654F812
S214009E6820001A46BDF804305DF8044BFFF7DCBF47
S214009E780C3800200229024608B50ED004D839B995
S214009E88104629F00FFF06E04029F9D0412907D1EE
S214009E98104629F0FDFE002008BD29F00DFFFAE760
S214009EA8024813F0B7FC0120F6E700BFC3EB030037
S214009EB810B4054C114654F820001A46BDF8043074
S214009EC85DF8044BFFF7D6BF0C380020C26C094B70
S214009ED852791A7082785A70C2789A70026D12B1E6
S214009EE890F85420DA70007804210930014AC0B28C
S214009EF8FEF764BB4D5F0020024B53F8200029F0A4
S214009F081EBF00BF0C38002038B504460078084D40
S214009F1809302A460421C0B2FEF740FB30B96B78F8
S214009F28A370AB78E370EB7884F8543038BD00BF84
S214009F384D5F002038B504460078114D09302A4692
S214009F480421C0B2FEF72AFBC8B9A3782A78022BE8
S214009F580CD004D863B9204629F0A4FE01E0FF2BF4
S214009F680AD02046BDE8384029F071BE002AF2D152
S214009F78204629F08DFEF4E7002AF9D1EBE738BD34
S214009F884D5F0020F8B504460B783D4A0D4642F86A
S214009F9823004370FFF7B8FFE36C3A4A5C631A6322
S214009FA82046FFF7C7FF204629F051FE4FF48013DE
S214009FB801266360E36C26720533E360324B267530
S214009FC82361A31CA361236D002B54D02F4A84F869
S214009FD82060E261E21C62622D4A84F82C60A2626C
S214009FE804F15402226393F83420002A45D093F8EB
S214009FF83620204684F855201B8FA4F8563029F0C2
S21400A00865FE94F85510206D29F03FF9B4F85610FF
S21400A018206D29F044F91F4B84F83860636304F117
S21400A0285503E3631C4B06262364022384F8443056
S21400A03804F15603A3640627EA79A96802EB4203EB
S21400A04821F8237001EB830001238370134B04343B
S21400A0588360531C4460DBB2114C03EB4303C670A9
S21400A06841F8234001EB8300002343600D4B023286
S21400A0788360EA71F8BD0226DDE70426DBE700BF49
S21400A0880C380020233D03000340300101FF300157
S21400A09802FF100103FF200104FF2101B99E000002
S21400A0A808000100619E000028B1034B1B7883421C
S21400A0B834BF002001207047315F002070B50025AE
S21400A0C80A4C0B4E3378AB4200DC70BDD4F8A420A3
S21400A0D842B123791BB16079FFF7E6FF10B9104645
S21400A0E829F0A4F80135A834ECE700BF9820002032
S21400A0F8325F002008B5427901461046FFF7D4FFC4
S21400A108B0B1CB7858210B48013A042B01FB02006A
S21400A1180ED8012B08D81BB9BDE8084029F0B8BDF1
S21400A128BDE8084029F0BEBDBDE8084029F0C4BD1A
S21400A13808BD00BF381F002008B542790146104602
S21400A148FFF7B2FFB0B1CB7858210B48013A042B81
S21400A15801FB02000ED8012B08D81BB9BDE8084041
S21400A16829F0A0BDBDE8084029F092BDBDE808402A
S21400A17829F0A2BD08BD00BF381F002010B586B064
S21400A1880446FEF7ADFB012831D1E17804292ED824
S21400A198DFE801F014333503030062791046FFF751
S21400A1A883FF60B35820174B013A00FB0233DB6C81
S21400A1B8032958791DD1003818BF012063784FF459
S21400A1C880728DF804304FF48273ADF8063006239B
S21400A1D8ADF8083001238DF80B3000238DF80A00FF
S21400A1E801A8CDE903238DF81430FEF7B1FB06B0BD
S21400A1F810BDB0FA80F04009E0E70020DEE7022054
S21400A208DCE700BF381F002010B586B00446FEF70E
S21400A21867FB012831D1E278042A2ED8DFE802F05D
S21400A22814143303030061790846FFF73DFF50B363
S21400A2385820164B013900FB0133DB6C032A5B7987
S21400A2481DD11A1E18BF012263788DF80A208DF8D2
S21400A25804304FF48273ADF806300623ADF80830A4
S21400A26801234FF480728DF80B30002301A8CDE946
S21400A27803238DF81430FEF76BFB06B010BDB3FA57
S21400A28883F25209E0E70222DEE700BF381F00200B
S21400A29810B586B00446FEF723FB012812D1637872
S21400A2A8094A8DF804304FF48273ADF806304FF43F
S21400A2B88073CDE90223002301A804938DF8143097
S21400A2C8FEF746FB06B010BD0800070110B586B0BD
S21400A2D80446FEF705FB012820D16278104B8DF85E
S21400A2E804204FF4827294F8A01094F8A1005970D4
S21400A2F81870ADF8062004934FF4807202230949BB
S21400A30801A88DF81430CDE90212FEF721FB94F867
S21400A318A130013B18BF012384F8A13006B010BD58
S21400A328515F00200800050110B5837804460BB37A
S21400A3380379022B0BD142791046FFF7B5FE30B1F0
S21400A34858200D4B013A00FB023029F0B5FCA379E2
S21400A358022B02D12046FFF711FF2046FFF7B6FF73
S21400A36802236078A4F86C305522BDE8104012210C
S21400A37829F0C3B910BD00BF381F00204388094A1A
S21400A388082113808388538083681B8A938090F8FB
S21400A398A03093718379D37100780430C0B2FEF789
S21400A3A80DB900BF3A5A002038B50D460446017864
S21400A3B8114813F02FFA4FF602739D420ED10F4B39
S21400A3C81B782BB963712046BDE83840FFF7D6BF27
S21400A3D862790AB19342F6D20123F3E7B5F57F4FC7
S21400A3E8F1D1204629F042FDA378022B0CBF0122AA
S21400A3F80022A3689A70E6E7DFEB0300315F0020CF
S21400A408024B53F82000FFF7CFBF00BF34380020B8
S21400A41838B504460078144D04302A460821C0B2E0
S21400A428FEF7BCF820B1BDE83840104813F0F2B982
S21400A4382B8863806B88E978A380AA88A3681A8229
S21400A448AB7984F8A030EB79A371094B1B780BB96C
S21400A458637138BD09B19942FBD9064813F0DAF999
S21400A46823780133F4E700BF3A5A0020F9EB0300DB
S21400A478315F002022EC0300F8B504460B78474A03
S21400A4880D4642F823004370FFF7C2FFA268444B0C
S21400A498D465D364434B02265365434BA11C13650E
S21400A4A84FF44013E36001236161E1623F491032D3
S21400A4B821632265211D3E4AA1633E483E496265E6
S21400A4C804F1A002A061E163E265E01C611D3B4A5D
S21400A4D8206261643A483B492266A21D23742377AA
S21400A4E884F8283084F8343084F84030A16484F83E
S21400A4F84C6084F8583084F864306062A266E87964
S21400A508AA6800EB400102EB810704F10C0CC7F8BF
S21400A51804C04FF0060C2C4F42F82170C118C9B27F
S21400A52801EB410142F821C002EB81070021796066
S21400A538264F84F880302767254F84F89830A76719
S21400A548244F254BE767254F84F8746084F88C60A1
S21400A558C4F89C3004F16C06831CC4F88470C4F8F4
S21400A56890601F4F1F4EDBB203EB4303C4F89460A2
S21400A578C4F8887002EB83067034746008261A4C98
S21400A58842F82340C31CDBB203EB430302EB83040D
S21400A598043042F823606160E871F8BD3438002062
S21400A5A8CB3D0300153E030031A3000001FF300138
S21400A5B804FF20011000300102FF200105FF3001D2
S21400A5C800FF300103FF2101070001084A002100AF
S21400A5D8AA85040051001000AC850400AD8504006F
S21400A5E8550021006F0018001200010400239B6A22
S21400A5F8B3F5C04F03D21968064A914203D0002328
S21400A608037083607047012202709A689B694260F3
S21400A618F7E700BF07B0CD5E024B034A1A602AF080
S21400A62875BE00BF0000002002020FF073B5534B42
S21400A63804461A781AB102221A7002B070BDCDE923
S21400A64800220028F9D001261E7033F015FB4C4D69
S21400A6584C4B186017F0E0FA2B785BB902F062FAF8
S21400A66840B949480823494A4949006801F0A8FE04
S21400A67800B92E70474B5A6E62619B6E464AA361BC
S21400A6884FF40043936603F188435968E1614349F0
S21400A6989960196E2160596E6160D3F87011A160D7
S21400A6A8196CE160596C21613D49086C1864496C65
S21400A6B85964012151664FF4005191661A6E56048A
S21400A6C836D53849CA68D407FCD45B6E5A0434D5E4
S21400A6D8354AD36B13F0430FFBD1344B1A68531C1F
S21400A6E831D04FF400139340314A13660423304C9C
S21400A6F8684623664FF480632366102323664FF468
S21400A708005323664FF0804323664FF4804301A925
S21400A718636629F0C3FB009B2366019B63662B7860
S21400A728002B8AD0194B1A6822665B68636684E732
S21400A7382049CA68D007FCD4C7E71F4AD36B13F072
S21400A748430FFBD1C9E71D4B1B78002BCED14FF426
S21400A7588072114B5A661A4A52681AB94FF4001199
S21400A768134A11664FF400725A66164B5B68002B44
S21400A778BCD14FF480020E4B1A66B7E7545F002030
S21400A788555F00207C380020CC69002080380020E7
S21400A79800710800008000500090005055CEAC00B4
S21400A7A800C00054000004400000024C98690020D5
S21400A7B800900044000004500000025C535F002034
S21400A7C800C005500000065070B52C4D04462E7883
S21400A7D8012E02D001232B7070BD0028FCD029F072
S21400A7E882FB01300BD029F07EFB40F20113984221
S21400A7F805D0234B234A5E66D368DE07FCD4224B7B
S21400A80822491B6E13F0040F4FF4005314BF1C4A62
S21400A8181F4A9366CA6B12F04302FBD121681A4B93
S21400A828196661685966A168C3F87011E168196409
S21400A83821695964E169C80748BF9A60154B1A68C8
S21400A84801320DD1144A127852B914494968C90719
S21400A85848BF1A60124A5268D20744BF01221A60DB
S21400A8686269104B5A66A2699A6617F0DDF90E4BB4
S21400A878186833F0FCF90023ADE700BF545F0020EA
S21400A8880090004000000440008000440000024C95
S21400A8980090005098690020535F002000C00550C3
S21400A8A800000650008000507C38002070B5002458
S21400A8B8A36AB3F5C04F23D21A68134B9A421FD126
S21400A8C8124E337813F0FD0518D14FF48034104833
S21400A8D8FFF7ACFE032004F0B9FC0E4B0320DC6047
S21400A8E804F098FC0C4B1C61AB6ADB69984704467D
S21400A8F80748FFF769FF0CB901233370204670BD7F
S21400A9084FF48174FAE700BF07B0CD5E535F0020AE
S21400A9185C38002000A000440090004413B5204B8B
S21400A9281B7803B9FEE700231E4CCDE900336A46C0
S21400A93808231D49206801F043FDF8B91B4AD2F8E0
S21400A9484031D2F840211F2B4FF0010311D9203A8D
S21400A9589340019A1A43019208236A4612492068CE
S21400A96801F0B6FE124B134A1A602AF0CFFC02B06A
S21400A97810BD9340009A1A430092EDE72D28F1D1B6
S21400A9880A4AD2F84031D2F840211F2B4FF0010373
S21400A99885BF203A93409340019398BF0093DBE726
S21400A9A8545F0020CC690020007108000080004435
S21400A9B8000000200B020FF038B50025AB6A0446ED
S21400A9C8B3F5C04F10D21B6BB3F5C04F0CD2074877
S21400A9D8FFF72CFEAB6A20461B6B5B689847BDE802
S21400A9E838400248FFF7F0BE38BD00BF8838002060
S21400A9F813B50024A36A0190B3F5C04F13D21B6B9E
S21400AA08B3F5C04F0FD20948FFF710FEA36A01211D
S21400AA181B6B01A89B69984704460448FFF7D4FEB9
S21400AA28204602B010BD4FF48174F9E7883800203C
S21400AA3870B50026B36A0446B3F5C04F0D4612D269
S21400AA481B6BB3F5C04F0ED20848FFF7EFFDB36A8D
S21400AA5820461B6B29469B69984704460348FFF720
S21400AA68B3FE204670BD4FF48174FAE7883800209C
S21400AA7870B50026B36A0446B3F5C04F0D4612D229
S21400AA881B6BB3F5C04F0ED20848FFF7CFFDB36A6D
S21400AA9820461B6B2946DB69984704460348FFF7A0
S21400AAA893FE204670BD4FF48174FAE7883800207C
S21400AAB8F8B50027BB6A0446B3F5C04F0D461646E0
S21400AAC811D21B6B7BB10948FFF7B0FDBB6A204665
S21400AAD81B6B324629465B6A984704460348FFF7CD
S21400AAE873FE2046F8BD4FF40174FAE78838002054
S21400AAF870B50026B36A0446B3F5C04F0D4612D2A9
S21400AB081B6BB3F5C04F0ED20848FFF78FFDB36A2C
S21400AB1820461B6B29469B6A984704460348FFF75E
S21400AB2853FE204670BD4FF40174FAE788380020BB
S21400AB38F0B50027BB6A0446B3F5C04F0D46164667
S21400AB48ADF5177D20D21B6BB3F5C04F1CD210484D
S21400AB58FFF76CFDBB6A20461B6B40F251225B6A0E
S21400AB6801A99847044630B10948FFF72DFE20464C
S21400AB780DF5177DF0BD836A32461B6B2946DB6AE6
S21400AB8801A898470446EFE74FF40174EFE700BFC3
S21400AB988838002010B50024A36AB3F5C04F10D239
S21400ABA81B6BB3F5C04F0CD20748FFF73FFDA36AEF
S21400ABB81B6B1B6B984704460348FFF705FE2046A9
S21400ABC810BD0124FBE700BF88380020F0B58FB021
S21400ABD8044601A80E461546FFF7EEFE9DF80C3013
S21400ABE8012B12D1B5F5002F27D8B4F5002F24D89D
S21400ABF86319B3F5002F20D821462A46304614F0AC
S21400AC08B7F8002420460FB0F0BD0027BB6AB3F59E
S21400AC18C04F15D21B6BB3F5C04F11D20A48FFF7C9
S21400AC2805FDBB6A2A461B6B314620465B6B984778
S21400AC3804460548FFF7C8FDE4E740F20244E1E7AA
S21400AC4840F20114DEE700BF88380020F0B58FB068
S21400AC58044601A80E461546FFF7AEFE9DF80C30D2
S21400AC68012B1FD1B5F5002F06D8B4F5002F03D851
S21400AC786319B3F5002F13D940F2024420460FB0EB
S21400AC88F0BDE258013225D104339D42F9D82A4650
S21400AC983146204600F082F80028EDD00024EDE783
S21400ACA80023F2E70027BB6AB3F5C04F15D21B6B2B
S21400ACB8B3F5C04F11D20A48FFF7B8FCBB6A2A465C
S21400ACC81B6B314620469B6B984704460448FFF7A3
S21400ACD87BFDD3E740F20344D0E740F20114CDE70A
S21400ACE88838002070B58EB0044601A80D46FFF7D8
S21400ACF863FE9DF80C30012B22D144EA0503C3F30A
S21400AD080C03002B33D1B5F5002F04D940F20244CA
S21400AD1820460EB070BDB4F5002FF7D82544B5F51B
S21400AD28002FF3D8204604F5005400F029F8AC426A
S21400AD3802D00028F6D1E9E70028E7D00024E7E7A4
S21400AD480026B36AB3F5C04F14D21B6BB3F5C04FD9
S21400AD5810D20A48FFF76AFCB36A29461B6B2046DE
S21400AD68DB6B984704460548FFF72EFDD0E740F210
S21400AD780444CDE740F20114CAE700BF8838002033
S21400AD884FF4003208B5044B9A6633F019FAB0FA55
S21400AD9880F0400908BD00BF00900050134610B56B
S21400ADA862B103439B070BD14FF40034054B9C66F6
S21400ADB833F0FEF9B0FA80F0400910BD0120FCE738
S21400ADC80020FAE700900050BFF34F8F0549064B66
S21400ADD8CA6802F4E0621343CB60BFF34F8F00BF2C
S21400ADE8FDE700BF00ED00E00400FA0570B5D0B13D
S21400ADF8C9B10E4E431E013913F8014F2046325D85
S21400AE0802F00302012A11F8012F08BF04F12000FE
S21400AE18B55C05F00305012D08BF2032801A01D164
S21400AE28002CE9D170BD0120FCE700BF45AD040049
S21400AE380348044A0449121A921029F0B9B800BF08
S21400AE4840610000186300007466002008B5154BC2
S21400AE5883F30A8800F030F8FFF7EAFF124B13492D
S21400AE688B4212D30020124B12498B4218D3FBF7A1
S21400AE7859FF186850F82240586840F822400132B6
S21400AE8898688242F5D30C33EAE70022F8E71C6894
S21400AE9844F8220001325C68A242F8D30833E4E79B
S21400AEA80022F8E70800002070E904007CE90400A6
S21400AEB87CE904007CE904004FF40041134B144A73
S21400AEC870B59A60D3F88820124D42F47002C3F821
S21400AED88820114A05F5005491664FF0FF32226625
S21400AEE84FF6DF7262660222C3F8D020BFF34F8F98
S21400AEF8BFF36F8F4FF44036032004F0A7F9032002
S21400AF08E66004F087F92E6170BD00BF00ED00E032
S21400AF18006000000080004400900050054B186058
S21400AF28054B1B6F03F00703032B01D130F0F0BF6E
S21400AF38704700BFA8690020008000502DE9F04146
S21400AF4804464FF001080C250D4E0CB9BDE8F081FB
S21400AF5894FAA4F0B0FA80F00F2808FA00F2C8BFF6
S21400AF68103824EA0204CABF05FB006205FB00622B
S21400AF78B4325768002FE8D09168C0B2B847E4E703
S21400AF88A838002008B50C4832F097FE192004F0BF
S21400AF984FF928B1192004F059F9192004F03AF9A4
S21400AFA81A2004F045F928B11A2004F04FF91A209F
S21400AFB804F030F9002008BDB08704002DE9F04100
S21400AFC80E461746054618B30F2923D80378DBB173
S21400AFD8013BDBB2022B19D8104AD35C6A78D340FF
S21400AFE8DB0717D50E4BD3F81043ACB932F044FE46
S21400AFF880463A462846314603F064F8404632F022
S21400B00836FE2046BDE8F0817F23E7E70023E5E724
S21400B0182224F6E72124F4E70224F2E70086040057
S21400B02800C0035010B5044610B30378E3B1013BE3
S21400B038DBB2022B1AD8104AD35C6278D340DB07FF
S21400B04818D532F019FE0122617823788A4030211B
S21400B0584B4341F2100103F1A04303F570335A50F5
S21400B06832F005FE002010BD7F23E6E70023E4E764
S21400B0782220F8E72120F6E70086040010B50446EB
S21400B08810B30378E3B1013BDBB2022B1AD8104A9F
S21400B098D35C6278D340DB0718D532F0EDFD012289
S21400B0A8617823788A4030214B4342F2100103F13D
S21400B0B8A04303F570335A5032F0D9FD002010BD76
S21400B0C87F23E6E70023E4E72220F8E72120F6E7D7
S21400B0D80086040038B50D46044618B311B3037845
S21400B0E8E3B1013BDBB2022B1AD8104AD35C627874
S21400B0F8D340DB0718D532F0BFFD30222378534300
S21400B10803F1A04303F570335B696278D34003F01C
S21400B11801032B7032F0ABFD002038BD7F23E6E735
S21400B1280023E4E72220F8E72120F6E7008604005B
S21400B1382DE9F0410D4616469846044600284FD09D
S21400B14800294DD00178002940D04B1EDBB2022BD7
S21400B1583ED8254AD25C6378DA40D20701D4FF2964
S21400B16840D1022E01D9042E3CD132F085FD237839
S21400B1780746FF2B05D032462046296802F0E8FF2E
S21400B18828602B68013309D12378FF2B06D1174B8B
S21400B1986078D3F8241429F0DCFC286029684B1C56
S21400B1A818D00C23124A03FB0122069BC2F804801F
S21400B1B893602378FF2B04D001230E4A8B40C2F8F5
S21400B1C82434384632F053FD002007E07F22C2E7D9
S21400B1D80022C0E7384632F04AFD2D20BDE8F0814F
S21400B1E82220FBE72120F9E70086040000C0035070
S21400B1F8A838002000D0035008B502F059FF054BC8
S21400B20800F0553020F05020C3F82004BDE8084070
S21400B218FFF794BE00E0035008B502F049FF054B5F
S21400B22800F0AA3020F0A020C3F82004BDE80840AB
S21400B238FFF784BE00E003502DE9F04F144605469C
S21400B2480E469B46C36B87B001225B6902A96068FD
S21400B2589847EB6B01225B6903A93046984702A81A
S21400B26829F0A5FA074648B10023A37563754FF081
S21400B278FF33A360002007B0BDE8F08F03A829F0CD
S21400B288A3FA0123A375237E04EBC303DE611F84A0
S21400B2986368B3420ED1206003A829F0B7FA4FF0CE
S21400B2A8FF332075A360237D043B022B26D800239A
S21400B2B8A375DFE723681A1A53425341A37503A8F8
S21400B2C829F0A4FA237D834218BFA77503A829F09E
S21400B2D87FFA074602A829F07BFA874218BF0023A0
S21400B2E803A818BFA37529F07BFA074602A829F019
S21400B2F877FA87421CBF0023A375D4E703A829F072
S21400B30867FA80B1EB6B022230465B6904A998475E
S21400B31804A829F06CFA0346207D032839D8DFE80C
S21400B32800F03838040903A8F3E7CC22237E04EBA0
S21400B338C3031A8401F06EFC109B187003A8277EBE
S21400B34829F03AFA04EBC70787F82200237E03A8F9
S21400B35804EBC303B3F8209093F8227029F038FA68
S21400B368804603A829F03CFA8246B8F1000F15D0AB
S21400B378EB6B022230465B6904A9984704A829F0BB
S21400B388FBF96075637D6BB90023A3754FF0000861
S21400B39838E0227E04EBC2021384CBE703A829F028
S21400B3A8D6F9EEE794F81680B8F1000FEED0B9F1AA
S21400B3B8000F09D1DFB10123E375637E002B4FD15F
S21400B3C8012F42D1677614E06B6C06EB0A015A42ED
S21400B3D886EA010010421CBF0022A2755A1E0A40C7
S21400B3E89B1A9945D0D8A37D002BE3D1CEE7E37D01
S21400B3F843B94FF000084B4652463146284628F0D7
S21400B40821FFA060A27D12B123694B4423611A492B
S21400B418237E097899422AD901332376BBF1000F97
S21400B42827D032B3E37D23B3B8F1000F21D1032F21
S21400B4381FD0A1684B1C1CD0109B224600932846A0
S21400B4480123FFF7F9FEA07513E095F8343063B9C9
S21400B458EB6A0133CFD1032FCDD10123A376C8E7FA
S21400B468012FCFD0032FC4D1F7E79846C3E70023B0
S21400B478A375A07DFFE600BF248604002DE9F04FE3
S21400B4880E46984600238BB004464FF0FF31104610
S21400B49817468DF8133001F0A7FBB6F5801F20D2AB
S21400B4A8314605AA04F1080029F0D3F8451C0146E0
S21400B4B803D1237CBBB92D2010E0384601F094FB5D
S21400B4C80122394620460DF1130328F00DFF002807
S21400B4D8EFD09DF8133088F8003000200BB0BDE898
S21400B4E8F08FB01CE5D1E56A691C36D12046616A42
S21400B4F828F0EEFD0546B31C18BF0123DFF8CC90F4
S21400B5080193636A626C0293236805A902FB053AF5
S21400B518E36B05225B695046984705A829F0E2F9CF
S21400B52829F005FA504629F00DFA4FF0000B82462E
S21400B53801464B1C05D0636C81EA0A025B42134243
S21400B54811D02946204628F0C3FD029BAB422CD0DA
S21400B558BBF1000F2CD10546D3E72368ED1A636CC0
S21400B568B5FBF3F5C7E7484601F03EFB0DF11303BC
S21400B57849462046019A28F0B7FE034690B1B21C09
S21400B58803D0D9F80020B2420CD19DF813200393BB
S21400B5980D4B88F8002049461A68384613F0E8FB31
S21400B5A8039B9B46D9F80810C3E7BBF1000F82D06F
S21400B5B8B6F5801F91D2314698F800307A6804F1C3
S21400B5C8080001F03FFA88E720860400844000203F
S21400B5D82DE9F3410446174698460E46184D816AEB
S21400B5E8E36A8B4201D04B1C02D102B0BDE8F08161
S21400B5F8284601F0F9FA0122294620460DF10703EC
S21400B60828F072FE38B14346294620469DF80720A2
S21400B618B8470028E9D0A9684A1C04D169682046BA
S21400B62828F0E3FD0146012EDAD16B6881EA0302B1
S21400B638636C5B421A4218BF4FF0FF31D0E700BF79
S21400B648584000202DE9F04F4FF0FF334FF6FF72B9
S21400B6580025044600F10806C0E909238BB0C3623A
S21400B668056205633046884628F0C4FF204628F061
S21400B678FFFC60BB2046414628F07AFD204628F0AD
S21400B688F7FC60BB5E200BB0BDE8F08F2368E26B6A
S21400B698606C576900FB0530052205A9B84705A860
S21400B6A829F020F9012807460CD12946204628F01B
S21400B6B830FD012F024600D101322946204628F0E7
S21400B6C8F6FC03E029F038F90028EED10135E369E5
S21400B6D89D42DBD3204628F0CBFC0028CAD00025A4
S21400B6E84FF0FF394FF6FF73CA46A846C4E9085319
S21400B6F8E36998450AD3A5EB0905012D2CD84FF622
S21400B708FF72636A93423CD16720BCE72368E26B0A
S21400B718606C576900FB0830052205A9B84705A8DC
S21400B72829F0E0F8834605A829F0B3F807465846F6
S21400B73829F0FDF868B1574538BFC4F82480B945E4
S21400B74828BFB946BD4238BF3D46BA46236A0133CC
S21400B758236208F10108CBE74FF6FF730025636202
S21400B768E3699D42CBD2676C2068E36B052207FB32
S21400B77805005B6905A9984705A829F08AF80135E8
S21400B788EEE7E26B676C2068694607FB03005569BD
S21400B7980522A847684629F07CF8626A2368606C28
S21400B7A84B4D00FB023029F0CDF84FF0FF33A06276
S21400B7B8E3622A466FF00101204605ABFFF75EFEFE
S21400B7C8002846D1AD6829462046E56228F02CFCBC
S21400B7D8206320B92046E16A28F007FDE062294682
S21400B7E8204628F002FD0546A36A9D4233D120462E
S21400B7F828F0EDFB00278046B946E36999453CD317
S21400B808B84559D92046616A28F062FC00260546E4
S21400B81804F1400AB74212D8626C2368694602FBF4
S21400B8280539E36B05225B6948469847684629F060
S21400B83830F8534602464946E06B29F085F8294613
S21400B848204628F045FC0136B0450546E2D164207E
S21400B85819E7A56AB7E72946204628F0E5FB236BD3
S21400B8682946034407462363204628F0BEFC0546BF
S21400B878002FB9D1C4E90B07B6E7636C2568052223
S21400B88803FB0955E36B05A95B692846984705A895
S21400B89829F028F829F04BF858B1284629F052F82C
S21400B8A80146204628F0C0FB636C143B984208BF4C
S21400B8B8013709F10109A0E7304628F09BFE00236E
