S01B00006275696C642F72656C656173652F7A69676265652E73333714
S21400600008100020F1B3000021FE0000D94703006D
S214006010D947030029FE000031FE0000D9470300DF
S214006020D9470300D9470300D9470300D9470300DF
S21400603035FE0000908F0400D9470300D9470300BF
S214006040D9470300D9470300D9470300C1AE000073
S214006050D9470300D9470300D9470300D9470300AF
S214006060D9470300D9470300D9470300D94703009F
S214006070A1030100333E0300D9470300D9470300BC
S214006080D9470300D9470300D9470300D94703007F
S214006090D9470300D9470300D9470300D94703006F
S2140060A0D9470300BDB700009DB70000D9470300DD
S2140060B0D947030011470200D94703007551020073
S2140060C023A103001FA103005149020039A10300C8
S2140060D027A10300455102002BA10300B551020081
S2140060E0215802001D35020021520200D947030044
S2140060F0D9470300D9470300D9470300D94703000F
S214006100D9470300D9470300D9470300D9470300FE
S214006110D9470300D9470300D9470300D9470300EE
S214006120D9470300D9470300D9470300D9470300DE
S214006130D9470300D9470300D9470300D9470300CE
S21400614082B030BF074BD3F8F030DB0704D500230E
S2140061500193019B052B01DD02B07047019B0133C3
S214006160F6E700BF00ED00E0F0B5114A114C124E04
S21400617000F00105E3695F0713D40DB9334213D16C
S21400618003EA00078F4207D10B4A1A40002A14BFC1
S2140061906FF001000020F0BD013AEBD16FF0020075
S2140061A0F9E74FF0FF30F6E76FF00100F3E700BFC6
S2140061B08096980000000350020001000B4B70B55B
S2140061C0D96911F480310DD101244FF48072084E44
S2140061D0084DF46020462C641A61FFF7C5FF34644E
S2140061E0EC6070BD6FF00100FBE700BF00000350DD
S2140061F000100350002003504FF4003238B50F4B08
S2140062000F4C9A6641F671330122E569E3630D4B44
S2140062100021DA60022360612120236105F48035C5
S214006220FFF7A2FF10B92120FFF79EFF0122064BC1
S214006230DA600DB10023E36338BD00BF0090005064
S21400624000000350001003500020035070B5134C9C
S2140062506061E3695B071ED40E4656F8043B8D1852
S214006260A361AE420BD10423002121202361FFF756
S2140062707BFF58B9BDE870402120FFF775BF0821A5
S2140062800846FFF771FF10B10423236170BD56F86E
S214006290043BA361E5E74FF0FF30F7E7000003504B
S2140062A02DE9F84315464FF40032184B89469A6696
S2140062B041F6713203F51C33DF69DA6301220646C4
S2140062C003F58053DFF84C8007F48037DA6055B961
S2140062D0284601220E4BDA601FB10022A3F50053B8
S2140062E0DA63BDE8F88306F5005404EA0804A41B44
S2140062F0AC4228BF2C46494622463046FFF7A6FF4A
S2140063000028E6D12644A1442D1BE0E7009000506B
S20C0063100020035000E0FFFF2F
S2140063182DE9F04F4FF0FD0BC9B09A460DF11B0959
S2140063289DF8503108AFCDF80C90CDF808B001971D
S214006338059303890446009383790E469046418860
S2140063488288407813F052FF054650B10090A38823
S214006358002062883A4914F08DFA284649B0BDE80C
S214006368F08F99F8000031F0E6F938B12846A3888E
S2140063786288344914F07EFA8D25EEE75A46394687
S21400638899F8000031F07FF98346002851D0529BD7
S2140063981BB1BDF84C3198424BD8002399F80090B1
S2140063A80793A9F14102012A5FFA8BF123D83846F0
S2140063B80139254ADFF898C05FFA81FE734513DB7A
S2140063C8059B04210792C3B907AF18221F489FED03
S2140063D81A7B02FB060420460A460830394684ED36
S2140063E8027B19F09BF811E010F8011F01335140A9
S2140063F80CFB01F2E2E7059B33B123464A463846D2
S214006408009611F075FEA8E70829DED9B8F1000F46
S21400641801D088F80090BAF1000F01D0AAF800B0B1
S214006428529B002B99D05A46184608A919F076F8B8
S21400643893E7012591E700BF000000000000000078
S214006448A6370400DB370400C59D1C811811002000
S21400645893010001000000002DE9F04F93B0CDE94C
S2140064680A32DDE91C530E9353EC102BCDE90801D4
S214006478104619468DED060B1E9E18F0D9FA80B107
S214006488DDE906014FF0FF32C54B18F0F9FA40B9BE
S214006498DDE906014FF0FF326FF4801318F0D2FAE8
S2140064A870B1DDE908019DED060B0E9B1E96CDE941
S2140064B81C53DDE90A3213B0BDE8F04F00F088B986
S2140064C80022DDE90601002318F0BCFA002800F0D7
S2140064D83381DDE906A303F1004BCBF30A5016F42B
S2140064E88063A0F2FF3008BF06250F9317F0CEFF93
S2140064F89BA3D3E9002318F033F89BA3D3E9002322
S21400650817F078FECBF31304894644F07F51804693
S2140065180022A44B504641F4401117F069FE94A39C
S214006528D3E9002318F01CF802460B4640464946B5
S21400653817F060FE18F0AEFA044617F0A7FF8EA311
S214006548D3E900238046894618F00AF80022964BBD
S21400655817F050FE18F09EFA89A3D3E900230746E1
S2140065684946404617F0FCFF80463846894617F0ED
S2140065788DFF85A3D3E9002317F0F2FF02460B46EA
S2140065884046494617F034FE02460B46CDE90C2332
S21400659817F0E6FFDDE90C238046894610461946C3
S2140065A817F028FE0022CDE91001804B40464946E8
S2140065B818F000F900227E4B17F01CFE02460B4628
S2140065C84046494618F0F6F800227A4B17F012FEB5
S2140065D802460B464046494618F0ECF8DDE90C231F
S2140065E88046894600204FF0804117F001FE02469B
S2140065F80B464046494617F0FDFD02460B46DDE9C8
S214006608100118F0D7F807F2FF3700226A4B17F088
S214006618F1FD00223B0517F0A3FF52465B46804675
S214006628894618F02DFA002840F08980CDE90C89B3
S21400663804F16303C62B8CBF0527042731051BD539
S21400664853A3D3E900235046594618F00FFA0028FA
S2140066587FD051A3D3E900235046594618F0F2F9E3
S214006668002876D00027A542C6BF2C1B04F1FF35AC
S21400667800253C4646F480660E9B9F422CBF4FF092
S2140066880008A3EB070816F0020903D0002F18BF6E
S2140066984FF000083CB1DDE90C235046594618F087
S2140066A889F882468B46DDE906010022002318F0A9
S2140066B8C9F910B10BF100439B46DDE9080126F441
S2140066C80063CDE90183DDE90A324BEC10AB009597
S2140066D800F07EF802465FB3DDE9091316F0200FD6
S2140066E800F10105089E0CBF65204520B047DDE98E
S2140066F808010523002205930A23002CCDE902325F
S21400670807F1FF374FEAD473B8BF64422A460193AD
S21400671804970A9B009432F03EFF0246B9F1000F38
S21400672806D00B9BC41A0B9B1A190E9BA34245D87E
S214006738104613B0BDE8F08FDDE906ABCDE60022C3
S214006748404649461A4B18F035F8013CCDE90C018D
S2140067586EE7002D90D00F9B002B8DD0013D8BE768
S214006768FB799F501344D33FB3C8608B288AC63F33
S21400677861436F63A787D23F71A379094F930A4095
S2140067881655B5BBB16B0240EF39FAFE422EE63F0E
S2140067982D431CEBE2361A3F0000000080842E4191
S2140067A8FFFFEF7F0000F83F0000E03F00002C40AE
S2140067B800002440000018400000F03F2020DDE9DB
S2140067C80913089DA8470134ADE700BF0000000084
S2140067D82DE9F04F5BEC10AB97B0CDE90501DDE98C
S2140067E82058CDE90723504652465B465946229F15
S2140067F818F01EF970B90323CDE902870193AA4B56
S2140068080093DDE90501DDE9072332F0F6FD17B050
S214006818BDE8F08F4FF0FF326FF4801350465946AC
S21400682818F010F928B10423CDE9028701939F4B8D
S214006838E6E74FF0FF32504659469D4B18F020F9D0
S21400684868B19C4A07F00403002B08BF03229A4B42
S2140068581CBF13460422CDE902870192D0E75046B2
S2140068688DA3D3E90023594618F00AF938B98CA342
S214006878D3E900235046594618F0E4F868B1DDE934
S2140068880723DDE905014BEC10ABCDE92187209500
S21400689817B0BDE8F04FFFF7DFBD002200235046D3
S2140068A8594618F0CFF8002800F091805B4652460B
S2140068B80020002117F09CFC012382468B46099392
S2140068C817F4806400F08580092D40F28580002446
S2140068D830210EABA5F109020134202C03F8011B68
S2140068E8A5EB040901D09442F6D15946504618F053
S2140068F8D1F8724B054603EBC90393ED007B8DED8B
S2140069080A7B17F0C3FD02460B465046594617F059
S2140069186FFCDDE90A2317F023FE02460B46CDE995
S2140069280C2318F0DFF8064617F0A0FD02460B46C3
S214006938DDE90C0117F05CFC02460B46CDE90C239A
S21400694800225F4B18F09CF8002848D001363046E5
S21400695817F08CFD02460B46DDE90A0118F07CF8B4
S21400696808B100260135B9F1000F45D1284617F0C1
S2140069788DFD02460B465046594617F039FC002254
S2140069884F4B18F05FF810B9E90700D501350A2112
S2140069980EAB1A19202C0AD095FBF1F001FB105506
S2140069A8303502F8015B013405460028F2D107F0BD
S2140069B80302012A55D1B8F1000F52D0099A12B92C
S2140069C817F00C0F01D008F1FF38302240E009908C
S2140069D876E74FF0060988E7A946002485E70022EF
S2140069E8DDE90C01364B18F02DF80028BBD10EB1A6
S2140069F8F007B8D50136B6E70A210EAB1A19202CCF
S214006A080DD0B6FBF1F001FB1063092E03F130033D
S214006A1809F1FF3904F1010402F8013B11D83021CD
S214006A28A1440EAA202CB2D04C4504F101030AD189
S214006A3804F158020DEB02042E2204F8202C1C4602
S214006A48A5E70646DBE7A1541C46EBE71A550134D2
S214006A58444506D2202CF9D1CDE9028701940EAB25
S214006A68CEE6202CF8D0099B3BB12D2204F1580322
S214006A786B4403F8202C0134EEE77A0704D504F1BA
S214006A8858032B226B44F4E73B07E5D504F158037B
S214006A9820226B44EDE700BF0000000065CDCD4125
S214006AA80000000065CDCDC1395504003D550400F1
S214006AB8FFFFEF7F3055040035550400889E04001C
S214006AC80000E03F0000000070B58EB02C220021C8
S214006AD803A818F093FB64234FF002320893CDE91D
S214006AE805230B2301218DF834305B4B8DF81010ED
S214006AF81D880D4040F0A980084636F0BDFD0A22E4
S214006B08564B574C1A704FF42873ADF812304FF0A6
S214006B18FF332360534B54491B8820460B82534B44
S214006B28534A1B68CD828B61524B0D621B884B8281
S214006B38514B1B68CB611EF03BFC20B14FF41B7118
S214006B484E4837F0C6FD0521206833F08CFB20B18F
S214006B5840F27D21494837F0BCFD206817F004FB59
S214006B68474B2068196832F0F8FE0C2537F0ECF928
S214006B786843099037F0E8F968430DEB050107907C
S214006B88206818F0D7FF20B140F295213B4837F02F
S214006B98A0FD256821F036F800220146284632F086
S214006BA854FF20B140F29721344837F092FD40F266
S214006BB80353344D344E2B80052396F90000AB70F2
S214006BC87F2801D11EF0DCFE3378EB7037F0BCF975
S214006BD800EB80008000A88037F0B6F90023C000DC
S214006BE84FF0FF31E880AB604FF0FF3018A3D3E9D1
S214006BF8002336F093FE2549206832F0DFFE206831
S214006C0802A933F0D7FB20B14FF434711B4837F094
S214006C1860FD042220680DEB020132F073FE0428A2
S214006C2804D040F2D721154837F053FD01A90120BA
S214006C3832F034FA09F034F901201FF025FB2EF063
S214006C484AFC1FF04BFB1EF033FE0EB070BD00BFB3
S214006C580A0020FF42030000E45F00201C670020B3
S214006C68045A002028B804002C6E002030B804000F
S214006C78A9D6030026B804002CB80400028E040027
S214006C886C6B0020F8590020117100201DD70300F6
S214006C980348044B834202D0034B03B1184770479E
S214006CA8407100204071002000000000064B074994
S214006CB8C91A891048BF0131491003D0044B0BB1DB
S214006CC801481847704700BF4071002040710020F7
S214006CD80000000010B5064C237843B9FFF7D8FF2C
S214006CE8044B13B10448AFF300800123237010BD92
S214006CF8501600200000000048F3040008B5044BB6
S214006D081BB104490448AFF30080BDE80840CDE74E
S214006D18000000005416002048F30400A3F5803A4B
S214006D28704700BF154B002B08BF114B9D46FFF759
S214006D38F5FF00218B460F461148124A121A18F022
S214006D485DFA0C4B002B00D098470B4B002B00D05D
S214006D5898470020002104000D000B4818F094FD09
S214006D6818F024FA200029002DF008F918F07AFD0A
S214006D7800000800000000000000000008100020C6
S214006D880810002070670020F9F8010007B50121F7
S214006D9820200DF1070201F0B5FC58B102230121AD
S214006DA820200DF107028DF8073001F0BBFC03B078
S214006DB85DF804FB9DF807100229F8D0022209485E
S214006DC817F0FEF8022301210DF1070220208DF8A6
S214006DD8073001F0A7FC2DF00EF84FF4FA6001F02A
S214006DE8D9FAE4E710EB030038B501F051FA03F0DE
S214006DF875FA01F099FF012805D001F095FF0228E1
S214006E0801D001F0B7FF124D2B783BB901F08CFF8B
S214006E180128044602D12DF094F82C7001F084FF66
S214006E280128044609D101F019FA2CF0F7FF094A9F
S214006E38094B117811B91470186038BD1A680749DB
S214006E48821A8A42F9D91860BDE8384003F072BA47
S214006E58C3600020C26000206C160020DF93040088
S214006E6810B5044600882CF092FFA37884F84400F6
S214006E78834202BF0123E3702371074B04F11C0011
S214006E88C4E9073401F052FD224620880349BDE8CC
S214006E98104001F0D1BB00BF0B360300D535030008
S214006EA870B5C37804460D461646002B34D1D1B1CA
S214006EB8214817F085F80123E370E36CA6600BB150
S214006EC8E06D9847E368F61A63699E4221D2217EF0
S214006ED81A480131C9B2217617F072F8A36D13B1BA
S214006EE8217EE06D9847E5702CF098FF15B323795E
S214006EF803BBA268238A801A83421BD80123104842
S214006F08237117F05DF8236DA3B1E06DBDE87040FE
S214006F18184701232376E6E70029E4D1094817F045
S214006F284FF8636DE660E5702571002BDBD0E06DE9
S214006F389847D8E770BD00BF38EB030049EB03005D
S214006F4877EB030064EB030013B5C8B1C2B101299F
S214006F5810D0022911D099B9C369283083B1140416
S214006F68B4FBF3F404600848009417F029F80020EE
S214006F7802B010BD036A2C30F0E7436A3030EDE704
S214006F884FF0FF30F4E700BF8DEB03000A460449D4
S214006F980346086810B119462CF08FBB704700BF2F
S214006FA87016002070B5044694F89D2094F89E301C
S214006FB8D21A4032514201F03F0102F03F0258BF58
S214006FC84A42D2B2162A00D870BD03F03F022244C5
S214006FD892F85D20552A05D0013303F03F0384F864
S214006FE89E30E1E700205822191801F03F0121449D
S214006FF891F85D1001300A441628D2B2F4D1D24373
S21400700803F1160101F03F01214491F85D10D2B258
S2140070188A42E1D1012120462CF014FB04210546C2
S21400702820462CF00FFB0A21064620462CF00AFBC9
S214007038A26AC4E907655643E26A030248BF4342A8
S21400704802FB05F5226B48BF23F07F4002FB00F3E6
S21400705803F500431B0C360C2D0C23816062A680BA
S214007068E5802CF0DBFE237E33B90123237694F8E3
S2140070789E3060611733B0E742F210726369C31A34
S2140070889342F2D82269B4F9081003FB0122226160
S214007098064A23699342E8D3A3F55B13A3F53A534C
S2140070A82361E3680133E360F3E700BF80EE360050
S2140070B810B5044601F0E8FC2046FFF773FF0221EE
S2140070C8054801F0CDFC04F134004FF47A71BDE8B0
S2140070D810402CF09ABE00BFF98E04002DE9F84344
S2140070E80D4616469846044610B3A82200210430DA
S2140070F818F084F840F29D1240F20513C4E90A23FA
S2140071086923DFF8889023634246314628461A4B9F
S21400711825806680C9F8004001F036FC074660B155
S2140071280023324629461548C9F8003016F048FFAD
S2140071384FF0FF373846BDE8F8832CF06FFE012382
S21400714884F85C300E4B6061C4E92834032384F865
S214007158A8300C4BC4E90D343434204601F0E6FB65
S21400716820464FF47A712CF050FE434632462946A4
S214007178054816F025FFDDE7956F0000C6EB03000F
S214007188FC8E0400B9700000F3EB030070160020B4
S21400719858B101B1816202B1C26203B10363816A68
S2140071A8D0E90B23014816F00BBF704724EC030008
S2140071B82DE9F8430E4617461D460446002846D0D5
S2140071C892220021063018F019F8224A224B30463F
S2140071D8C4E9152343F273630022E365114626804B
S2140071E86780A5802CF0F5FD0022A0711146384670
S2140071F82CF0EFFD00224FF001081146E0712846FA
S2140072082CF092FD28462CF0AEFD84F83C802CF03D
S21400721805FE124B04F16009C4E91834206284F8AC
S2140072288980484601F082FB0D4B3A463146C4E950
S21400723823340C482B4684F8948016F0C1FE484642
S21400724841F288312CF0E1FD0020BDE8F8834FF0CC
S214007258FF30FAE7305C020076CF0100DF37030024
S214007268188F040049EC030060B1002914BF0123FD
S214007278002380F88A30044B0449054818BF19468D
S21400728816F09EBE704700BF7DEC03008FEC03002F
S214007298A0EC030058B101B1416502B1826503B1A3
S2140072A8C365416DD0E91623014816F089BE7047BC
S2140072B8BBEC030013B5C8B1C2B1012910D002292E
S2140072C811D099B9836C543083B11404B4FBF3F429
S2140072D804600848009416F073FE002002B010BD43
S2140072E8C36C5830F0E7036D5C30EDE74FF0FF30C5
S2140072F8F4E700BFE1EC030070B5044600F13C0675
S21400730880F83B1030460D462CF084FD238F1BB1C9
S21400731894F83A30AB4205D129462046BDE870407D
S2140073282CF0D6BA054B3046C4E90F3401F0FEFA05
S2140073383046BDE8704014212CF067BD01390300C3
S21400734870B51E46838804460D46C18002810BB17F
S214007358868070BD3C302CF05DFD94F83430BBB1AF
S21400736894F83610002908BFFF2120462CF0B0FA02
S2140073780123E370074BA680C4E903340C34204687
S21400738801F0D4FA29462046BDE870402CF03DBDF1
S214007398FF21EAE76F39030058B1064B064A07494A
S2140073A8C0E90023064BC0E902130023C0E90433F2
S2140073B8836170471E009065C409102708523C0078
S2140073C8600E803E10B501790446B1FA81F1008856
S2140073D849092CF025FC21796088B1FA81F1490920
S2140073E82CF01EFC034B1A68A24204BF00221A6047
S2140073F810BD00BF7416002070B543790446A3B1CB
S21400740800880E4E04F10805336813B10C4B1B7840
S2140074186BB121792CF004FC64210A4B3460A3601C
S2140074282846BDE870402CF0F0BC4088E9E70648DE
S21400743816F0C6FD054B3221A360F1E7741600204E
S214007448C6600020CD7300001EED03000174000026
S21400745810B50446E0B10F4816F0B2FD012363717B
S214007468A37953B9217920882CF0DAFB236B7BB1FA
S214007478606B0121BDE8104018472046FFF7A2FFC1
S21400748804F108002CF0C6FC2046FFF7B5FFEDE730
S21400749810BD00BF54ED030010B50446F8B11048FF
S2140074A816F08EFD00236371A3796BB921792088C5
S2140074B8B1FA81F149092CF0B3FB236B7BB1606B01
S2140074C80021BDE8104018472046FFF77BFF04F16F
S2140074D808002CF09FFC2046FFF78EFFEDE710BD56
S2140074E85FED030010B5044668B1074816F068FD5E
S2140074F8637920461BB1BDE81040FFF7CDBFBDE855
S2140075081040FFF7A5BF10BD6BED030010B50E4C7D
S2140075180E48214616F054FD82210D4816F050FDFF
S21400752882210220A21E01F0FDF8014630B134F88F
S214007538022C0848BDE8104016F042BD0648BDE8D3
S214007548104016F03DBD00BF4A5B00207AED0300F0
S21400755895ED0300A0ED0300E4ED030038B5114CEB
S21400756882212246022001F0CDF8A51C014688B1EA
S21400757822880D4816F024FD2A460C4B03F12C01F0
S21400758853F8040B8B4242F8040BF9D11B7813709E
S2140075982C23238035F8021C054A0648BDE83840E7
S2140075A816F00EBD485B0020EFED03006FEE0300FB
S2140075B84A5B00204DEE0300034B1B781BB18B4241
S2140075C801D82CF018BC7047A970002010B50446E6
S2140075D801460E4816F0F4FC012C11D10C4B0D4850
S2140075E81A884FF6FF739A421EBF0022094B5A7438
S2140075F82CF04BFA03F010F8BDE8104002F0B4BEC9
S2140076080448BDE810402CF042BA00BF9CEE0300C8
S2140076185C700020F86A002070B500241A4D1B4ED6
S2140076283378A3421BDC0024194D1A4E3378A34244
S2140076381BDC0024184D194E3378A3421BDC01F0DE
S21400764873FB012816481CD12CF01FFA02F0E4FF41
S21400765802F08AFEBDE87040124801F085BB284655
S214007668FFF7FEFB01346035DAE728462CF0CAF946
S21400767801346435DAE728462CF0D7FA0134383571
S214007688DAE72CF004FAE5E7DC260020CC600020D8
S214007698FC2A0020CD600020AC240020CB6000200F
S2140076A8F86A0020D57500002DE9F04F89B0FFF77D
S2140076B855FFAB4B07A807932CF0F5FA054617F0CD
S2140076C899FCA84CC2B21F2A627004D9A64816F0C4
S2140076D877FC00F053FE2946A01C17F01FFF07A8EA
S2140076E82CF0E1FA054617F085FCC2B21F2A84F88A
S2140076F8212001D99D48EAE7294604F1220017F01F
S2140077080DFF07A82CF0CFFA3225824600269AF8F5
S2140077180030002B40F00481954CFFF77DFF23785E
S214007728944F0093944E954B3A781B78317894484A
S21400773816F046FC934B1B7803930BB133780393F0
S2140077488E48327839780078531803442078002415
S2140077580344DFF86C920398254603444846DBB298
S214007768A24200F3E384012B38BF0123864D04931D
S2140077782A4600232C464FF482714FF6FF78049869
S2140077880133984213705180A2F8048002F10C026B
S214007798F5DC7E4B7C497348A36001F00FFCE0796A
S2140077A8A36800EB400003EB800000F0F5FFE379E8
S2140077B80133E371764C2388434503D072497548F4
S2140077C801F04EFD4FF6FF7322886F49D21A18BF94
S2140077D80122714802F0EEFC4FF00008DFF8E0A145
S2140077E86A4C3378434500F3AB846C4B1B785BB12B
S2140077F86B4B1B78012B07D163496A4802F04CF89B
S2140078086149694802F0ECFA4FF000084FF00C0B9B
S214007818DFF898A15C4D3A78424500F3A6845F4BA2
S2140078281B7823B11AB161495E482CF079FD0C210A
S2140078384FF000084FF0940B3B7896F800A09A4457
S21400784801FB0A514D4B1878594A404500F3AE845F
S2140078580C214FF0000B96F800803B78DFF810A15B
S2140078689844804401FB08519AF80020514B5A4529
S21400787800F3B384494B1B78ABB1DFF824B19BF80F
S214007888001001290FD94FF00C08013908FB0151E7
S214007898444802F001F89BF800104348013908FBF9
S2140078A8015102F09DFA33783A7806211344334A98
S2140078B80126127813449AF8002013440C2202FB7F
S2140078C8035500231846039A0C359A4209F1AC0969
S2140078D800F39A8404992C48314D01F05FF92F4B38
S2140078E840F2055240F6043128781E7801F038F93F
S2140078F80022044640F20271287801F031F9214648
S2140079080246304601F0D6FA079B15491A468B42BE
S21400791840F08D84284809B0BDE8F04F16F050BBFB
S214007928532B11D19AF801304C2B40F051819AF81C
S2140079380230502B40F04C81204B01221A7007A8C9
S2140079482CF0B1F98246E2E6322B3BD19AF80130A8
S214007958452BF4D19AF80230502BF0D1094BECE7BE
S2140079684A5B0020F4690020BBEE0300D2EE030059
S214007978C7600020C9600020CA600020C8600020D8
S21400798891EF0300C5600020641A0020F41A002056
S2140079985C700020F016002078160020C4600020D6
S2140079A8A87000204017002008100020E01F0020C4
S2140079B8241E0020D41C0020E1EF0300C66000202F
S2140079C8F0210020442B15D19AF80130303B092BC2
S2140079D8B5D80AF101002CF073F9B84BB84A1978F3
S2140079E8002385B2994202F16002A8DD22F8465CBF
S2140079F80133F7E7422B0DD19AF80130542B43D1C7
S214007A080AF1020000F066FEAE4B188018462BF00E
S214007A18BAFD94E7582B1ED8412B90D9A3F1430200
S214007A28152A00F24B83DFE812F0D00149031B0247
S214007A3849034903490378004903490350002100D4
S214007A4849034903490349031701D3004903490376
S214007A58490349037801692B7FF471AF0AF10100E5
S214007A682CF02EF980B22CF0C2F968E7964B01206C
S214007A7819780023954A994202F1AC027FF75FAF66
S214007A8802F8AA0C0133F6E70AF1010000F022FE1C
S214007A9804460AF103002CF08BF901210246204621
S214007AA82CF042F960218548854F037859437A18A7
S214007AB87C524FF4FA6111824FF44871516184493F
S214007AC8013355831165037039E70AF1010000F0A8
S214007AD801FE00224FF0640881467E4F11462CF0C6
S214007AE823F97D4C3E780AF1030108FB06F306FBF2
S214007AF80846304624F803902CF0BBF8304601269A
S214007B082BF080FF00213B78744A03FB084433447B
S214007B181460516016743B7011E70AF1010000F01A
S214007B28D9FD00224FF0640881466A4C11462CF0B5
S214007B38FBF8694F23780AF1030108FB03F203FBFD
S214007B480878404627F802902CF093F840462BF029
S214007B5859FF634B634A93F800C0104600239C45C0
S214007B680ADD116D583239BB582202FB0300642324
S214007B78227802FB03730365544A00231046D2F8A2
S214007B88A410D9B9AC2202FB03006423227802FBB6
S214007B980373C0F8A4305EB9504A3346114652F80B
S214007BA8040B88B96422207800FB027241F823206F
S214007BB8237801332370C2E60133D0E70133042B60
S214007BC802F1AC02DBD1E6E70133042BE7D1EFE79D
S214007BD80AF1010000F07EFD07460AF103002CF0CA
S214007BE8E7F80121024638462CF09EF86021334813
S214007BF8334C0278DFF8D0C05143631867524FF40D
S214007C0848711982596138495D8399659AF8031055
S214007C18AC27642904BF012199709CF80030DFF86E
S214007C28ACE05F430EEB07010EF807304FF4007721
S214007C384F8003270F718F7102EB420704EB47143E
S214007C488C6032240133DBB201324B7181F8A040DC
S214007C5802708CF8003072E60AF1010000F03AFD76
S214007C6800224FF0380B80464FF001091F4F11468F
S214007C782CF05AF83B781E4C0BFB03F3E21824F85A
S214007C88038082F804909AF80330692B32D10023D7
S214007C9813715822124913480B785A4300EB020C0A
S214007CA8835438780133C0EBC00204EBC204421C8C
S214007CB8CCF84C403A700B7041E600BFCC60002010
S214007CC8DC2600205C700020CA600020F02100201E
S214007CD8653C0300CD600020FC2A0020F86A0020DE
S214007CE8C9600020E01F0020C1750000CB6000209E
S214007CF8AC240020002BCCD00AF1030000F0EAFCEC
S214007D080022804611462CF00FF83B780BFB034305
S214007D18A3F8028083F80690BBE70AF1010000F09A
S214007D28D9FC07460AF1030000F0D4FC04460AF121
S214007D3805002CF03DF880460246012138462BF017
S214007D48F3FF4246204601212BF0EEFF6020DFF8C5
S214007D585CE3C74A9EF80030DFF8548300FB03FC58
S214007D6802EB0C0122F80C704FF4487C4D83A1F806
S214007D7810C0C1F814C0C1F85880591CC9B248438D
S214007D88145294241718A7F810C0C7F814C07D8397
S214007D98C7F85880B74F981C8EF800003878DFF878
S214007DA814C3444303EB430301EB41010CEB040EFD
S214007DB802EB431302EB41120CF80400CEF8043031
S214007DC8CEF8082001303870B9E50AF1010000F055
S214007DD881FC80460AF1030000F07CFC002207467E
S214007DE8114640462BF0A0FF00223824114638469C
S214007DF82BF09AFFA048A14A03784FF0000E04FB28
S214007E0803FC22F80C804FF0010802EB0C0181F805
S214007E1806E081F8048003EB0801C9B24C4302EB84
S214007E28040C17539C1C04707024954F8CF806E0BD
S214007E3838788CF804804443DFF87CC2C3EBC3036D
S214007E48C1EBC1010CEB040E02EBC30302EBC1024B
S214007E580CF80400CEF80430CEF808204044B2E708
S214007E689AF80130502B40F085805146854816F028
S214007E78A7F80AF1020000F02DFC07460AF10400F4
S214007E8800F028FC80460AF1060000F023FC4FF6B6
S214007E98FF739F4281463FF452AD98453FF44FAD7D
S214007EA898423FF44CAD0346424639467648FFF7BB
S214007EB87FF900287FF443AD0AF1080456210490A0
S214007EC820462BF0CDFE4121039020462BF0C8FE1D
S214007ED85721834620462BF0C3FE4921824620467A
S214007EE82BF0BEFE01786848A1F149035942594172
S214007EF8FFF7BAF9039A049B1178562933D1501C18
S214007F082BF0DEFE04469BF80030412B2DD10BF1FA
S214007F1801002BF0D5FE83469AF80030572B27D160
S214007F280AF101002BF0CCFE03465A462146564875
S214007F38FFF7B0F954482BF0C2FC544C01462060B9
S214007F48534801F05FFC216852482CF06BFA012375
S214007F58514A39461370514A514813704B464246A7
S214007F6816F02EF8EBE41C46CDE74FF0000BD3E7EF
S214007F780023DAE7422B7FF4E2AC5146414816F07C
S214007F881FF80AF1020000F0A5FB07460AF10400F4
S214007F9800F0A0FB4FF6FF739F4280463FF4CFAC3D
S214007FA898423FF4CCAC0AF1060A532150462BF00F
S214007FB857FE03788B4253D101302BF081FE0346DF
S214007FC8424639463748FFF789F8044600287FF4C2
S214007FD8B6AC562150462BF043FE41218346504608
S214007FE82BF03EFE5721814650462BF039FE9BF873
S214007FF800308246562B04D10BF101002BF060FEB0
S214008008044699F80030412B2DD109F101002BF0D8
S21400801857FE81469AF80030572B27D10AF10100FF
S2140080282BF04EFE03464A4621461E48FFF7B0F898
S2140080381C482BF05CFB154C01462060144801F0E8
S214008048E1FB216813482CF0EDF90123124A394662
S2140080581370124A14481370424615F0B1FF6EE4C6
S2140080684FF49653ACE74FF00009D3E70023DAE75E
S214008078DC260020C8600020CB600020AC2400204E
S214008088C7600020E2EE0300CC1900201C1900206F
S2140080984017002008100020C4600020A8700020A8
S2140080A810EF0300201900203FEF0300CC600020EB
S2140080B8C1750000241E0020D41C00204F2B7FF41E
S2140080C83EAC9AF801304C2B7FF439AC5D4B1B78EC
S2140080D8002B3FF434AC0AF1020A432150462BF039
S2140080E8BFFD8046502150462BF0BAFD98F8003068
S2140080F80746432B16D108F101002BF0E1FD84B2A8
S2140081083B78502B10D1781C2BF0DAFD82B2214632
S2140081184D482BF0D4FC4D4B4D48B3F86A20B3F8C5
S2140081285E109AE70024EBE70022F0E790F805C017
S21400813801348C4584BF05714571AC30FFF710BB20
S214008148B8F1000F06D015F8053C03EB430304EB23
S2140081588304AC602946504602F05CFC08F101082E
S2140081680AF1AC0A0C35FFF73CBB317811EB080175
S2140081780AD04A1E0BFB0252D27902EB420204EBEB
S21400818882040BFB0152946050460BFB015102F02F
S214008198A7F931782F4841440BFB015101F0E2FD65
S2140081A808F101080AF1580AFFF735BB18EB0A0F61
S2140081B818BF11F8050C05911EBF00EB400004EB34
S2140081C880048C600BFB082001F00EFA0599224B00
S2140081D808F101080C31FFF736BB70201BEB080FBF
S2140081E818BF11F8052C00FB0B301EBF02EB42022D
S2140081F804EB82048C60059101F0CCF805990BF12C
S214008208010B0C31FFF730BB15F8112C05F8056C7F
S21400821802EB420204EB820415F80C2CC4E90010A9
S21400822845F8044C09F8042C0133FFF74CBB13F847
S214008238011D00297FF469AB3B2102F8011CFFF7FA
S21400824864BB00BFC46000209C17002040170020B5
S21400825863EF0300A0240020C860002008B5094B7F
S2140082681B786BB108482CF05EF807482CF0D9F854
S214008278064801F041FEBDE8084004482CF0E4B882
S21400828808BD00BFC460002040170020081000206A
S21400829808B5064B1B783BB105482BF018FBBDE824
S2140082A8084004482CF03FB808BD00BFC460002052
S2140082B8CC1900204017002007B5012121200DF118
S2140082C8070200F01FFA18B99DF80720024B1A702B
S2140082D803B05DF804FB00BFA970002007B5064B85
S2140082E88DF80700187001210DF10702212000F013
S2140082F819FA03B05DF804FBA970002007B502213F
S21400830801200DF1060200F0FDF938B9044815F011
S21400831857FEBDF8060003B05DF804FB0020FAE738
S214008328FEEF030007B50221ADF806000DF10602C0
S214008338012000F0F7F9014610B1034815F040FE99
S21400834803B05DF804FB00BF1FF0030010B5FFF78D
S214008358D5FF04460146074815F032FE01210648B7
S21400836815F02EFE24B9BDE810400120FFF7DABF4D
S21400837810BD00BF4FF0030061F0030008B50448C5
S21400838815F01EFE00F0DEF92BF035FD2BF030FD63
S21400839877F0030038B50446084D094B28462B608D
S2140083A800F0C4FA002C18BF21462846BDE838401D
S2140083B808BF4FF496712BF028BD00BFF02C0020A4
S2140083C8E73C03002DE9F043394D93B008AC074667
S2140083D8894690460FCD0FC40FCD00260FC495E8EA
S2140083E803000323012584E80300324C3248CDE914
S2140083F80366CDE905668DF80E300796029536F0C9
S21400840802F92E4836F0FFF832462D4920468DF8F8
S214008418176005F09FFE334632462A498DF8190044
S214008428009020468DF82390CDF82C808DF821609A
S21400843805F0AAFE0A9020468DF8097005F00AFE97
S214008448204608AA05A905F0C5FE02AA204603A9E3
S2140084582CF02AFF4FF400721B4B5A62194BE5604A
S214008468626A920510D46BB94FF40072164B114825
S2140084785A6205F0EFFD114836F0C8F8002013B030
S214008488BDE8F083013BEBE7002BEDD0094908A8CF
S2140084982CF03DFF4FF400720B4B06485A6205F06D
S2140084A8D9FD064836F0B2F8BDF82000E7E700BF69
S2140084B8348F04000040005A909104008C91040008
S2140084C880841E0040420F000060005A0122034BC1
S2140084D81870034B1980034B1A707047CF60002042
S2140084E864700020CE600020F8B5454B1B780BB9A9
S2140084F80020F8BD434B1B78012B03D1BDE8F8409C
S2140085082BF0F0BB404B1C884FF6FF739C42EFD015
S2140085183E4836F078F80023260AE4B21A46214682
S214008528304605F057FD012E354604F0010335D0D8
S21400853815D9B51E012DDBD8002B0BBF4FF480755F
S2140085484FF080754FF470614FF070610BBF0127D4
S2140085584FF480370F204FF470202D4B11E0002B7E
S2140085680BBF4FF480754FF080754FF470614FF075
S21400857870610BBF01274FF480370F204FF470202F
S214008588244B1A6802401CD0BA421AD01A680A400D
S21400859832D11A6822EA01022A4316E0002B0BBFE2
S2140085A84FF480754FF080754FF470614FF070612E
S2140085B80BBF01274FF480370F204FF47020164B5F
S2140085C8DFE71A6822EA00023A431A602BF08AFBB1
S2140085D8054600288CD0083644EA06102A460321A9
S2140085E8C0B2FFF7EFFE40F6FF73684300F2FF7075
S2140085F8B0FBF3F080B27CE795427FF479AFC8E72A
S214008608CE600020CF6000206470002090910400A7
S21400861828C3035020C3035024C3035010B5044C8A
S214008628237823B9034835F0EEFF0123237010BDE5
S214008638D1600020909104002DE9F0431F4C85B0CE
S214008648074688469146FFF7E9FF23781BB902F0EC
S21400865867FF012323707BBAADF80C303022002365
S214008668174E02FB03F4315DA51901BB01233355F0
S2140086784FF0FF3304F1100012493044AB606F80AE
S214008688C5F80480C5F80C900AF04AFB04F1080106
S214008698042231440C4B009503A803F017F8A96888
S2140086A802460A4815F08CFC05B0BDE8F083013395
S2140086B8102BD6D1064815F083FCF5E7D0600020CD
S2140086C8182D0020113D0300233D030084F003000D
S2140086D8B2F0030080B10278A2F14103032B0BD855
S2140086E840783038C0B2082806D8054B134413F82B
S2140086F8413C40EA032070474FF6FF70704700BFC2
S2140087085C8F040008B50B4642B101460448006871
S21400871804F024F9BDE808402BF063BB022008BD2E
S214008728646B002008B50B4642B101460448006851
S21400873804F09CFABDE808402BF053BB022008BDA5
S214008748646B0020F0B50026124F8DB0FF2300930F
S2140087580A223346386802A92CF04BFBC0B102AB9C
S2140087681D4603EB800404E055F8043BB34228BFDB
S2140087785E1CAC423868E9D9296804F0FDFB00287D
S214008788F2D02D28F0D00DB0BDE8F0402BF029BB74
S2140087980DB0F0BD646B002028B1034B0360034B9B
S2140087A84360002383607047190000030C6B0020A9
S2140087B82DE9F04F00230746DFF838818B4698F8F6
S2140087C80020464985B022FA03F0C00708D531F8DC
S2140087D81300B84204D15DB2284605B0BDE8F08F54
S2140087E80133032BEFD112F001066FD13C4C75B262
S2140087F894F80090B9F1000F29D101213A2004F02D
S21400880805FF0121252004F001FF0F2249460DF13E
S214008818010016F0F3FC3F238DF80090DFF8C890AF
S21400882869464846ADF802302CF08EFD252004F047
S21400883807FF4FF47A43B0FBF3F02A4B1860D9F8D9
S21400884830300123C9F81C00C9F80C3023700D22FB
S2140088580021684616F0D2FCBBF1000B18BF4FF09B
S214008868010B0323204C6A46314620468DF8063015
S2140088788DF80AB02CF0A5FD236B00234FF0010AF3
S21400888804EB461083664FEA1729184BF9B249EAF3
S214008898014032B243F82200154A0AFA06FAD2F81C
S2140088A89C35484643EA0A03C2F89C355B460422D0
S2140088B805F090FB98F8003043EA0A0388F8003081
S2140088C8064B23F8167087E702268FE791078DD5A3
S2140088D85307F9D54FF0FF357EE700BFCA5B002087
S2140088E8D36000201830002000C00450A0C50350F4
S2140088F800C00350D2600020022810D8084B1B780E
S214008908C340DB070BD5074B1B6803FB0111FF238E
S214008918B1FBF3F1044B1A6B03EB4013196770476E
S214008928D26000201830002000C00450FF2307B58E
S2140089380021044A009308300AF076F903B05DF87F
S21400894804FB00BF0D3E03007FB50D4E0D4C33688B
S2140089586A4600211046A5692D0606D411F0FF01C7
S21400896801D003B1984704B070BD656A013110297B
S21400897802F8015BEFD1002BEAD09847E7E700BF83
S2140089881C30002000C005502DE9F04707460E466B
S214008998924688B0002A56D04FF6FF72904252D0C0
S2140089A8914250D0294A4FEA10294FEA11283A2016
S2140089B801211360FFB204F029FE0121282004F0EB
S2140089C825FEF6B23946012304224846204D05F016
S2140089D801FB01AC314601230222404605F0FAFAB3
S2140089E80FCD0FC495E8070084E80700002401A906
S2140089F81848CDF80CA08DF8044005F0AFFE1023FB
S214008A08154A49EA074748EA0646C2F83476C2F8DD
S214008A182C66C2F81C36042302F508329364A2F5C5
S214008A288052D3640D2006F0E7FF0D2006F0C8FF3D
S214008A38084805212CF002FD01222046074B1A7033
S214008A4808B0BDE8F0874FF0FF30F9E71C3000208B
S214008A58608F040000C0055000C00350D46000209A
S214008A6870B5074B04461B784BB141B1054E451807
S214008A7814F8011B30462CF0F0FCAC42F8D170BD5F
S214008A88D460002000C0055010B5074B1B784BB1CA
S214008A9835F098FD0446FFF757FF2046BDE810401E
S214008AA835F08BBD10BD00BFD46000200B460449CE
S214008AB8024608680349097808B12BF0CCB9704714
S214008AC82C300020D6600020F7B50C4618B12F21B0
S214008AD8194835F0FEFD246823685E795F883046BD
S214008AE83946FFF7E3FFF0B18568E5B1A089227D36
S214008AF83946904291BF0020801AA36880B294BF7E
S214008B0803469B18E27C00903046A84701380328A5
S214008B1803D8DFE800F0080F0B0D002420462FF0DE
S214008B2872FB204600E0812003B0F0BD8024F5E704
S214008B389324F3E78724F1E7DAF0030007B50B463A
S214008B480092054902460548097800682BF0A5F901
S214008B5803B05DF804FB00BFD66000202C30002070
S214008B6807B50B460092064902460648097800688B
S214008B782BF093F9003818BF012003B05DF804FB0A
S214008B88D66000202C30002008B5034B1B6803B1C4
S214008B989847002008BD00BF283000202DE9F74F71
S214008BA804460D460026454B454F1860454B197040
S214008BB833010021F85C013611F006F90C2EF7D1C6
S214008BC80C2D28BF0C254FF0000901953C4EDFF808
S214008BD800A13D4DDFF8FC80019B4B4502DC03B04D
S214008BE8BDE8F08F23784FF0000B337063887380EE
S214008BF8A388B380A379C6F80880B371E379C8F868
S214008C08005088F804304FF00003A768A8F806302C
S214008C18E3795B450ADC012116F8100B11F0D4F84D
S214008C2808F1080809F101090C34D5E74FF00003EC
S214008C3838886B812880FB784FF0000C2B81BA7837
S214008C48C5F804A0002A00920CBF802240222A738E
S214008C5879680AF10C02634513DC03EB43030AEB5D
S214008C68830ABB6843B1009A4FF6FF71B2FA82F2E4
S214008C78164B52092FF057FA14350BF1010B0C3727
S214008C88C6E7B1F800E00CF1010C22F80CEC91F8FC
S214008C9802E00C3202F816EC91F804E00C3102F807
S214008CA815EC11F809ECBEF1010F14BF4FF0100EC9
S214008CB84FF0110E02F814ECCDE700BF2C30002060
S214008CC8B0470020D660002030360020D18A000049
S214008CD830300020B0380020014B1860704700BFC5
S214008CE824300020014B1860704700BF2830002051
S214008CF870B5128805460E46FFF720FF044670B189
S214008D0802790499806816F0CBFA064B1B680BB9F3
S214008D18002070BD3146284622889847F8E7862006
S214008D28F7E700BF2430002008B510F0E9F802285D
S214008D3806D0012806D0044B18784000C0B208BDFB
S214008D480120FCE70220FAE7D5600020054B10B5A5
S214008D581C682CB1FFF7E8FF2346BDE8104018470B
S214008D6810BD00BF20300020014B1860704700BFC0
S214008D7820300020034B1A781AB901221A700CF01A
S214008D881FB97047D56000200022024B1A70FFF703
S214008D98DDBF00BFD560002037B50446002832D0B6
S214008DA810F0AEF8022830D160892FF08EFDE079F9
S214008DB8237A003818BF0120012B637A08BF40F0D9
S214008DC808000BB140F0100063890BB140F00400B6
S214008DD8257CA188A2790DB1E36873B90C4B11F014
S214008DE8CFFB2178084611F047FC2FF097F80028AB
S214008DF814BF0320002003B030BDCDE90035054B75
S214008E0811F0BEFBEDE70220F5E70120F3E700BF0F
S214008E18F3430400681304002DE9F04186B00546C4
S214008E280E4690461F469DF8344010F069F8022812
S214008E3824D1082C16D8ADF80C808DF80E702CB1FD
S214008E4822460C990DF10F0016F068FB03AB0334AD
S214008E5800930A2231460820094B019411F090FB32
S214008E6818B1032006B0BDE8F0812946284611F05F
S214008E7803FC2FF053F80028F4D0F2E70120F1E7BE
S214008E886813040008B50EF0F9F9014630B1044835
S214008E9815F096F8BDE808400EF094BD08BD00BF72
S214008EA868F10300024B187C00B11868704700BFD1
S214008EB8F86A002050B100290CBF30213121002A61
S214008EC80CBF30223122034815F07AB82D210A4605
S214008ED8F9E700BF95F10300034B044A5B7C0121C8
S214008EE803201370FFF71EBCF86A0020D760002026
S214008EF837B50446FFF7F0FFB4F57F4F27D10025B6
S214008F08204B1A8813449D70FEF700FB2846FFF78F
S214008F1841FA1D4D2A68C2B1FFF7C4FFA8B14FF643
S214008F2805739C4224D192F841102AF08AFD2B68DA
S214008F380421B3F8422093F841303220ADF80620D9
S214008F4801AA8DF80430FFF7EDFB03B030BD4FF6ED
S214008F5801739C4203D10D482AF07FFDD9E74FF6EE
S214008F6802739C42D5D10A4B1878FFF7B7F9D0E7B9
S214008F784FF606739C42E8D1B2F842102AF06BFD11
S214008F88D5E700BF485B002010390020F86A0020AB
S214008F98A970002010B5074C012122460320FFF7D0
S214008FA8B1FB28B92378044A003B18BF0123537441
S214008FB810BD00BFD7600020F86A00207B4BF7B5CD
S214008FC81A884FF6FF739A4218BF03234FF0080219
S214008FD804464FF030000D4675494FF0320718BF6B
S214008FE80B70744B1A7036229870587137201A71A5
S214008FF81A724FF4001298716F486264E0646F4802
S214009008012220656E48A618A0656E48E667E065EA
S2140090186D486E4E60666E485F70A0666D48DF707D
S21400902820676D48DF716067202084F8780084F830
S214009038840004F12100C4F888006848C4F88060F9
S21400904884F8482084F8542084F8602084F86C203B
S214009058C4F88C0084F89020C4F89410C4F8B8308B
S2140090685F4B6049C4F8BC300223C4F898105E49C8
S21400907884F8C030C4F8A41010215C4B84F8A810FB
S214009088C4F8C4305A4B5B49C4F8C8308223C4F8C5
S214009098AC10594984F8CC30C4F8B0100921574BA5
S2140090A8574EC4F8D030574B84F89C20C4F8D430B8
S2140090B8554BC4F8A040C4F8DC30337C84F8B410B0
S2140090C884F8D820002B6AD0504B84F8E420C4F8E3
S2140090D8E03006F11103C4F8E830FFF7E3FE90F835
S2140090E83430002B5DD090F83630042184F84130B7
S2140090F8FFF7D8FE038F01AA3846A4F84230FFF7D8
S21400910801FB38B99DF8043084F84130BDF80630C4
S214009118A4F84230FFF7C6FE94F841102AF091FCF6
S214009128FFF7C0FEB4F842102AF095FC384B102121
S2140091381C60384BC4F8EC30012384F8F03004F196
S2140091484103C4F8F430344BC4F8F830022384F8EA
S214009158FC3004F14203C4F800314FF0000CEA7901
S214009168A86802EB42039F0000EB830320F807C0C1
S214009178D9700121443499705C605318EB71FFF77D
S2140091889BF8FFF707FFFFF7CFFD01280BD1337CCD
S2140091984BB11B4803B0BDE8F0402AF05EBC0D2179
S2140091A8DBE70E21D9E703B0F0BD00BF5C700020F6
S2140091B8BA700020D8600020818F040001002000CB
S2140091C8808F0400020020007F8F04000500420004
S2140091D8030020007E8F04000400420007003000D1
S2140091E8FDFF210012001001004042007C8F0400A1
S2140091F800FF4401AA70002006004200485B0020D9
S214009208F86A002002FF2001A970002001FF100163
S2140092181039002005FF200106FF210113B504467A
S2140092280D482AF0BBF96422C0F30F43637083B27B
S214009238B3FBF2F3A0782370202201212AF048FE1F
S214009248A078212201212AF043FE0449201D02B0FD
S214009258BDE810402AF0D9BD5C700020E0930400F9
S2140092680B7870B583704CF61E0303804FF02013FE
S214009278C362012380F8303080F83C30C31803649A
S214009288124B044643640223114A80F84830114BB7
S2140092988263C3644063CA798D6802EB420305EBB8
S2140092A8830004F12C0646600B4E45F82360002325
S2140092B88360531CCB71094B201DC4E90134FFF7AA
S2140092C835FB2046BDE87040FFF7A8BFFDFF21002C
S2140092D821002000828F040001000103259200006F
S2140092E8437B044A0121137000781130C0B2FFF79F
S2140092F819BA00BFE260002038B504460078054D6C
S21400930811302A460121C0B2FFF7FCF908B92B78BC
S214009318637338BDE2600020024B53F820002AF041
S214009328B2BE00BF14390020012908B506D00229AC
S21400933807D049B92AF09EFE002008BD2AF09DFEF7
S214009348FAE72AF09DFEF7E7024814F039FE0120F6
S214009358F3E700BFACF1030010B4054C114654F80F
S21400936820001A46BDF804305DF8044BFFF7DCBF52
S21400937814390020002310B5044683810364A0F83E
S21400938844304830FFF7D2FA014BC4E9123410BD16
S2140093987540030038B504460B781A4A43700D46E4
S2140093A842F82300FFF7E6FF2046FFF7A5FF4FF435
S2140093B8401323610123144A2375A261134A84F8D3
S2140093C82030E261124A84F82C306262114A84F82E
S2140093D83830A26204F10C0222630F4A04F10D032E
S2140093E86263E363EA79A86802EB420300EB830151
S2140093F810344C60094C40F82340094B8B60531CD2
S214009408EB7138BD14390020E16000200800200008
S214009418BB70002000FF300001FF100102010104AC
S2140094286193000010B47024427B0D48013A01296C
S21400943804FB020006D0022908D059B95DF8044B8F
S2140094482AF018BE5DF8044B2AF017BE5DF8044BE8
S2140094582AF016BE03485DF8044B14F0B1BD00BFF1
S214009468D41C0020C8F10300B0F85C302DE9F041A8
S2140094788B4204460E4638D0437B077C8BB31C4A87
S21400948812789A422DD370251A4A013B05FB03230E
S21400949890F80F801B7B42462AF003FEB845054627
S2140094A801D1FF281FD13A463146204694F890301D
S2140094B82AF0F7FD2F460546552212216078A4F8B3
S2140094C85C602AF005FDFF2F03D039462046FFF7DB
S2140094D8A9FFFF2D09D029462046BDE8F0412AF00D
S2140094E820BEFF25DFE70746E6E7BDE8F08100BFB8
S2140094F8C7600020D41C002041688268C978D278EA
S21400950849B112B10321FFF7AFBF837B002B0CBF15
S21400951801210221F7E72AB1837B002B0CBF022129
S2140095280121F0E7014814F04BBD00BFD9F1030054
S214009538037BD3B14368DA7812B18268D278A2B9CD
S2140095481B7933B1837B002B0CBF04210521FFF761
S2140095588BBF83681B792BB1837B002B0CBF05213F
S2140095680421F4E7014814F02BBD70470BF2030002
S214009578084A437B05211370837B5370C37B937023
S214009588037CD370037B137100780E30C0B2FFF7EC
S214009598C9B800BFE360002038B5044600780C4D13
S2140095A80E302A460521C0B2FFF7ACF820B1BDE858
S2140095B83840084814F004BD2B7863736B78A3739F
S2140095C8AB78E373EB7823742B79237338BD00BF2D
S2140095D8E360002047F20300024B53F820002AF00D
S2140095E8EABD00BF44390020F8B504460B78424A65
S2140095F843700D4642F82300404E2AF0FAFDFFF766
S214009608CBFF6268A3683E483E49D6641165D465B8
S2140096185065C3E91410DE64DC654FF098730226C3
S2140096286361012304F10C01E161374910322162BC
S21400963804F10D01A16235492376E16204F10E01B9
S2140096486163334984F82430A16304F10F0121646F
S214009658304984F83030616404F11001E1642E4921
S21400966884F83C3084F84830216584F85460A26554
S214009678E879A96800EB400201EB820704F1140CB4
S214009688C7F804C04FF4817C244F41F82270C218F2
S214009698D2B202EB420241F822C001EB8207002256
S2140096A87A601F4A84F8703022661E4A84F888302A
S2140096B8A2661D4A1D4BE2661D4AC4F88C306267D6
S2140096C81C4A8319A26704F15C02C4F88020DBB246
S2140096D8194A03EB4303C4F8842084F8646084F8CA
S2140096E87C6001EB830260345460144A033041F80E
S2140096F82320E871F8BD00BF44390020019500001A
S2140097088141030039950000010020010200100184
S21400971803003001040030010500210101FC0106A8
S2140097284A002100848F040051001000868F040030
S214009738878F0400550021006F00180012000104EE
S21400974800B589B001A92AF06EFD084B10210493D4
S214009758019B04AA0593029B2C200693039B079360
S214009768FEF7E0FF09B05DF804FB00BF43574C481E
S214009778F0B54843DDE90576204C214D82EAE271D2
S214009788A1EBE271A042B0FBF5F589B225D96420B9
S21400979812FB00F26FF0630092FBF5F28242B8BF4C
S2140097A80246642AA8BF642252B205FB05F4494360
S2140097B8A14221D24FF08040641A84420FD3002180
S2140097C878B947F6FF70814228BF014603B11D806D
S2140097D807B1398006B13270F0BD0022E5E780088F
S2140097E8EBE701EB000CA4454FEA51019CBF0918B2
S2140097F8A4EB0C048008E3E70021E7E79F86010056
S214009808A086010038B50D46044600B3F9B14FF4FA
S214009818EE72002115F0F2FC0F23A3600C4B656076
S214009828A36103F16173E3614FF0011304F15C0077
S2140098382362FDF7B1FDE36DE367236EC4F880305D
S214009848636EC4F8843094F86C3084F8883038BD79
S214009858010064001FB50446B8B14368ABB16A4658
S21400986810212C20FEF74EFF78B9094B009A9A4231
S2140098780BD1DDE90223019960682AF0DCFCDDE9FA
S21400988802230199034814F09BFB04B010BD00BFE7
S21400989843574C4876F20300F0B5044685B00028D6
S2140098A800F03081002900F02D814FF4D813C0F85D
S2140098B88C3000F10803C0F89430934B0422C0F8AB
S2140098C89830022300F10C05C0F8A0508F4D80F8A0
S2140098D89020C0F8A45000F10E05C0F8AC508C4D8E
S2140098E880F89C30C0F8B05000F11005C0F8B850A9
S2140098F8884D80F8A830C0F8BC5000F11805C0F8AC
S214009908C450854D80F8B430C0F8C85000F11A0528
S214009918C0F8D050814D80F8C030C0F8D45000F15F
S2140099281C05C0F8DC507E4D80F8CC30C0F8E050FE
S21400993800F11E05C0F8E8507A4D80F8D830C0F817
S214009948EC5000F12005C0F8F450774D80F8E4306C
S214009958C0F8F85000F12205C0F80051734D80F8A1
S214009968F030C0F8045100F1240580F8FC3080F887
S2140099780821C0F80C516E4D80F81421C0F810511B
S21400998800F12C05C0F824516A4D00F12802C0F8F1
S214009998285100F12E05C0F83051674DC0F818213F
S2140099A8C0F8345100F13005C0F83C51634D644AA4
S2140099B8C0F8405100F13205C0F84851614DC0F872
S2140099C81C21C0F84C512525012280F8505100F181
S2140099D83405C0F854515C4D80F82021C0F8585121
S2140099E800F17C05C0F86051584D80F82C31C0F85D
S2140099F8645100F17E05C0F86C51554D80F8383139
S214009A08C0F8705100F18005C0F87851514D80F8C3
S214009A184431C0F87C5100F18205C0F884514E4D9F
S214009A2880F85C31C0F8885100F1840580F8683108
S214009A3880F8743180F8803180F88C31C0F8905105
S214009A48464D80F89831C0F8945100F18605C0F864
S214009A589C51434D80F8B031C0F8A05100F18805FC
S214009A68C0F8A8513F4D80F8BC3100F11403C0F887
S214009A78AC51C0F8C03100F112053B4BC0F8B451E8
S214009A883A4DC0F8C43100F1160380F8A421C0F896
S214009A98B85180F8C821C0F8CC31CA798D6802EB75
S214009AA8420305EB830600F18C077760304E45F8D5
S214009AB823606E46531CCB710B7804F15C0503706B
S214009AC82C4B1860FFF7C6FE20462AF0E9FB324604
S214009AD810213320A76EFEF715FE18B996E80F007A
S214009AE885E80F002846A7662AF002FCE36DE367C0
S214009AF8236EC4F88030636EC4F8843094F86C30F3
S214009B0884F8883005B0F0BD050521000805210059
S214009B180B05290000062100010621000206210087
S214009B2803062100040621000506210000FF230085
S214009B3801FF230010FF210111FF210112FF21015F
S214009B4802FF200020FF420130FF210131FF2101E2
S214009B5832FF210133FF210134FF210135FF2101A6
S214009B6836FF30000F052100100528000E052900D5
S214009B78040B011B743900202DE9FF414C4B1C686F
S214009B888CB1237883420ED1606860B14FF61273A9
S214009B98994241D00AD84FF6107399422CD04FF606
S214009BA81173994231D004B0BDE8F0814FF62073A6
S214009BB8994238D0D03189B20529F4D8E36F04F138
S214009BC85C00E365D4F880302366D4F88430636696
S214009BD82AF08EFB024610213320FEF7A3FDE36D24
S214009BE8E367236EC4F88030636EC4F8843094F854
S214009BF86C3084F88830D6E70021E28D2AF009FB1D
S214009C080023E3850028CED121E00121228E2AF008
S214009C1800FB00232386F5E70221628E2AF0F9FA74
S214009C2800236386EEE7002394F834504FF00A0CBE
S214009C38232D28BF2325CDE9013304F135070393E7
S214009C489D420DD8DDE9022301992AF0F4FA6068EE
S214009C58FFF776FD204604B0BDE8F0412AF020BBA9
S214009C68FA5C562A14D0572A14D0412A0DD101215D
S214009C7800220133DEB2F3B29D420DD804AE013B9A
S214009C8806EB8101DBB241F80C2C0133DBB2D7E7D7
S214009C980021EDE70221EBE717F806E00136AEF102
S214009CA83008B8F1090FE9D80CFB02E2303AE2E7CF
S214009CB87439002070B50D460646144613460A4603
S214009CC80146244814F07CF925B92046BDE87040C2
S214009CD8FFF70EB9072D05D121463046BDE870407E
S214009CE800F05CBE4FF601439D4205D12146304642
S214009CF8BDE87040FFF770BC062D05D121463046FA
S214009D08BDE8704000F0A6BBB5F5817F05D12146B9
S214009D183046BDE87040FFF7FFBA40F202739D4236
S214009D2805D121463046BDE8704000F037B940F608
S214009D3804339D4205D121463046BDE87040FFF702
S214009D481BBF202D04D12046BDE8704000F0FEB9A8
S214009D5870BD00BFA6F203000148FEF7BDBF00BFF6
S214009D68BD9C00004FF4C01330B503600123037197
S214009D78074B8C688360CA7902EB420304EB8305C1
S214009D886860044844F82300531CCB7130BD00BFFC
S214009D98888F04000400010113B5044680B10078DA
S214009DA86A4627300821C0B2FEF7ACFC50B9DDE998
S214009DB800230948C4E90223C4E9242314F000F95F
S214009DC802B010BD002200230448C4E90223C4E9F7
S214009DD8242314F0F5F8F3E7D9F2030004F303009C
S214009DE870B50D460446002858D0002956D00B7882
S214009DF804F1200603702A4B1860FFF7CDFF4FF4D6
S214009E0814132362082304F110026263254A84F8B7
S214009E182430A26304F111022264234AE318626420
S214009E280422A362214B84F84820E362012384F8C5
S214009E38542004F11802A2651D4A04F11401E265D3
S214009E4804F11C0262661B4AE164A26604F11D0264
S214009E5822671949194A84F8303084F83C3084F867
S214009E68603084F86C3084F8783004F11E0321657D
S214009E786267E367EA79A96802EB420301EB8300AD
S214009E8846600F4841F82300531CEB712978D4E943
S214009E9802230C48BDE8704014F092B870BD00BFAD
S214009EA87839002000033000010322000002180061
S214009EB803031800060318000203220000F020011E
S214009EC80207010832F3030013B5044678B1D0E957
S214009ED802230078CDE9002327306A460821C0B25D
S214009EE8FEF720FCD4E90223024814F069F802B011
S214009EF810BD00BF63F3030030B5044689B040B315
S214009F08436833B31A6822B1126812B1586801A9B7
S214009F1890479DF81030E3B10399D4F880208A4220
S214009F2807D8D4E902308A1A9B1840F10000C4E921
S214009F380230C4F8801029F071FFD4F88430064A3D
S214009F48C31A9342054604D92046FFF7BDFFC4F856
S214009F58845009B030BD00BFDF93040010B5044636
S214009F68C0B1002300220021C0E90223C0E924234F
S214009F784368C0F880102BB11A681AB152680AB143
S214009F88586890472046FFF79FFFBDE810400248F4
S214009F9814F016B810BD00BF8BF30300B1F5704F70
S214009FA8034607D1044A106820B102789A4201D1C4
S214009FB8FFF7D4BF704700BF783900200368064A09
S214009FC80C21136043685360038913814389222058
S214009FD85381FEF7A7BB00BF7C39002010B5036885
S214009FE8044686B0FBB1114813F0EAFFA37B104A7B
S214009FF88DF804304FF48273ADF806300123CDE9AE
S21400A0080223002301A804938DF81430FEF7C4FE3B
S21400A018204661892AF019FA2046FA2150F8143B9E
S21400A028594329F0F2FE06B010BD00BFACF303009A
S21400A0382000000110B5064C236843B1054813F00C
S21400A048BFFF2068BDE8104041892AF0FEB910BD60
S21400A05888390020CDF3030070B5364910460C68E1
S21400A068BDF81020002C5ED003285CD8DFE800F08E
S21400A078021E2745002B5AD0022A58D91D78B3F855
S21400A0880160291E18BF012132462B4813F098FF9D
S21400A0982DB1314620462AF0D8F9002070BDE57368
S21400A0A8FA206368584329F054FFF6E7234813F06C
S21400A0B887FFE37B002B38D00023E373F0E7002B01
S21400A0C835D0032A33D91D681D48294613F078FF72
S21400A0D81C4B2A1F9A4201D90220DFE723680BB1DE
S21400A0E89D42F9D823899D42F6D3E37B6560B3B9D0
S21400A0F8FA20684329F02DFF11E0002BCED0012A64
S21400A108CCD91D881048294613F05AFF002DE3D0F5
S21400A11863689D42E0D8E37B2581002BE8D1204682
S21400A128FFF74CFFB9E70120B8E70420B6E703209D
S21400A138B4E700BF88390020F0F3030027F40300D3
S21400A14846F40300FCFF6D0071F4030038B5154BA8
S21400A1581C6834B3F0B92168134813F031FF23683C
S21400A1683BB16268934204D2104813F029FF636833
S21400A178236004F11405284629F04CFE236823B111
S21400A188FA212846594329F040FE2046BDE83840C3
S21400A198FFF714BF032804D16189054813F010FFA0
S21400A1A8F3E738BD883900209CF40300CAF403009E
S21400A1B8FFF4030070B53E4B0D4604460978186058
S21400A1C8002A6FD101231A46A1730021E1730121E9
S21400A1D8A1814FF46151C4E900132823354E22812A
S21400A1E80C21324622206381FEF78CFA60B9D6E944
S21400A1F800230AB19A4207D3318999429FBFC4E91E
S21400A20800237389218163812B4B2C4AE363042343
S21400A21884F8403084F84C30E3182365284BA26451
S21400A2286365022304F10802E265264A84F858307A
S21400A238226604F10A02A266234A84F8643084F887
S21400A248703004F10C03E26663676464EA79A86810
S21400A25802EB420300EB830104F13C064E601B4E02
S21400A26840F82360FA261A4B1A488B60531CEB7189
S21400A278FEF738FD208904F11405704329F069FEBD
S21400A288618920462AF0E1F8134B2846C4E90534CC
S21400A298FEF74CFB216849B128467143BDE870407B
S21400A2A829F0B3BD4FF4F07302228DE770BD00BFEE
S21400A2B8883900207C390020000023010100230093
S21400A2C80200210003002101FDFF210020000105F6
S21400A2D861A000003DA00000E59F0000134B10B5EC
S21400A2E81C680CB3E37BEBB129F098FD2369C01A10
S21400A2F8002809DB0E4813F063FE0023FA20E373F8
S21400A3086368584329F025FEE37B5BB12489FA236A
S21400A3185C4329F029FEA04206D02046BDE810403E
S21400A32829F017BE6468F2E710BD00BF8839002020
S21400A3382CF5030073B5002401260A4D55F8042BA6
S21400A34852B1D36C43B105335078062100930022EE
S21400A35810230196FEF760FD01340C2CEED102B0F6
S21400A36870BD00BF8C39002038B50024044D55F860
S21400A378040B08B12AF07CF801340C2CF7D138BD50
S21400A3888C390020042908B50AD172B16BB113784C
S21400A3981BB92AF098F8002008BD2AF08AF8FAE7D0
S21400A3A8034813F00DFE0120F6E70320F4E700BF8C
S21400A3B866F5030010B4054C114654F820001A46FA
S21400A3C8BDF804305DF8044BFFF7DCBF8C3900207D
S21400A3D80229024608B50ED004D839B910462AF024
S21400A3E872F806E04029F9D0412907D110462AF02C
S21400A3F860F8002008BD2AF070F8FAE7024813F063
S21400A408DFFD0120F6E700BF86F5030010B4054C13
S21400A418114654F820001A46BDF804305DF8044B7F
S21400A428FFF7D6BF8C390020C26C094B52791A70D8
S21400A43882785A70C2789A70026D12B190F85420D9
S21400A448DA70007804210930014AC0B2FEF76AB90A
S21400A458E8600020024B53F820002AF081B800BFBD
S21400A4688C39002038B504460078084D09302A464D
S21400A4780421C0B2FEF746F930B96B78A370AB7802
S21400A488E370EB7884F8543038BD00BFE8600020ED
S21400A49838B504460078114D09302A460421C0B262
S21400A4A8FEF730F9C8B9A3782A78022B0CD004D85E
S21400A4B863B920462AF007F801E0FF2B0AD02046A9
S21400A4C8BDE8384029F0D4BF002AF2D1204629F04A
S21400A4D8F0FFF4E7002AF9D1EBE738BDE860002082
S21400A4E8F8B504460B783D4A0D4642F823004370FB
S21400A4F8FFF7B8FFE36C3A4A5C631A632046FFF737
S21400A508C7FF204629F0B4FF4FF480130126636086
S21400A518E36C26720533E360324B26752361A31C71
S21400A528A361236D002B54D02F4A84F82060E26183
S21400A538E21C62622D4A84F82C60A26204F154027E
S21400A548226393F83420002A45D093F83620204614
S21400A55884F855201B8FA4F8563029F0C8FF94F8C5
S21400A5685510206D29F06DFAB4F85610206D29F0B4
S21400A57872FA1F4B84F83860636304F15503E3638B
S21400A5881C4B06262364022384F8443004F1560341
S21400A598A3640627EA79A96802EB420321F8237028
S21400A5A801EB830001238370134B04348360531C30
S21400A5B84460DBB2114C03EB4303C67041F82340FA
S21400A5C801EB8300002343600D4B02328360EA717F
S21400A5D8F8BD0226DDE70426DBE700BF8C3900203D
S21400A5E8454503000340300101FF300102FF10011A
S21400A5F803FF200104FF210115A400000800010044
S21400A608BDA3000028B1034B1B78834234BF00204B
S21400A61801207047C960002070B500250A4C0B4E13
S21400A6283378AB4200DC70BDD4F8A42042B123795D
S21400A6381BB16079FFF7E6FF10B9104629F0D2F98A
S21400A6480135AC34ECE700BFF0210020CA600020DA
S21400A65808B5427901461046FFF7D4FFB0B1CB786B
S21400A66858210B48013A042B01FB02000ED8012B97
S21400A67808D81BB9BDE8084029F01BBFBDE808404C
S21400A68829F021BFBDE8084029F027BF08BD00BF54
S21400A698E01F002008B5427901461046FFF7B2FFD2
S21400A6A8B0B1CB7858210B48013A042B01FB0200C5
S21400A6B80ED8012B08D81BB9BDE8084029F003BFFF
S21400A6C8BDE8084029F0F5BEBDE8084029F005BFFA
S21400A6D808BD00BFE01F002010B586B00446FEF790
S21400A6E823FB012831D1E17804292ED8DFE801F0D0
S21400A6F814333503030062791046FFF783FF60B30F
S21400A7085820174B013A00FB0233DB6C03295879B3
S21400A7181DD1003818BF012063784FF480728DF879
S21400A72804304FF48273ADF806300623ADF80830CF
S21400A73801238DF80B3000238DF80A0001A8CDE917
S21400A74803238DF81430FEF727FB06B010BDB0FAC9
S21400A75880F04009E0E70020DEE70220DCE700BFE3
S21400A768E01F002010B586B00446FEF7DDFA012883
S21400A77831D1E278042A2ED8DFE802F01414330325
S21400A788030061790846FFF73DFF50B35820164B83
S21400A798013900FB0133DB6C032A5B791DD11A1ED5
S21400A7A818BF012263788DF80A208DF804304FF41C
S21400A7B88273ADF806300623ADF8083001234FF44F
S21400A7C880728DF80B30002301A8CDE903238DF89D
S21400A7D81430FEF7E1FA06B010BDB3FA83F2520958
S21400A7E8E0E70222DEE700BFE01F002010B586B0D3
S21400A7F80446FEF799FA012812D16378094A8DF8BB
S21400A80804304FF48273ADF806304FF48073CDE908
S21400A8180223002301A804938DF81430FEF7BCFA2F
S21400A82806B010BD0800070110B586B00446FEF74E
S21400A8387BFA012820D16278104B8DF804204FF45B
S21400A848827294F8A01094F8A10059701870ADF8A8
S21400A858062004934FF480720223094901A88DF854
S21400A8681430CDE90212FEF797FA94F8A130013BAE
S21400A87818BF012384F8A13006B010BDEC60002094
S21400A8880800050110B58378044686B0002B3DD035
S21400A8980379022B0BD142791046FFF7B3FE30B18D
S21400A8A858201B4B013A00FB023029F016FEA3790C
S21400A8B8022B02D12046FFF70FFF94F8A830BBB151
S21400A8C8FEF732FA012813D194F8A830114A8DF809
S21400A8D804304FF48273ADF806304FF48073CDE938
S21400A8E80223002301A804938DF81430FEF754FAC7
S21400A8F82046FFF799FF0223552212216078A4F814
S21400A9086C3006B0BDE8104029F0E2BA06B010BDBB
S21400A918E01F0020060002014388094A0821138028
S21400A9288388538083681B8A938090F8A03093713D
S21400A9388379D37100780430C0B2FDF7F3BE00BF48
S21400A948D05B002038B50D4604460178114813F050
S21400A95837FB4FF602739D420ED10F4B1B782BB96F
S21400A96863712046BDE83840FFF7D6BF62790AB162
S21400A9789342F6D20123F3E7B5F57F4FF1D120468F
S21400A98829F085FEA378022B0CBF01220022A368BB
S21400A9989A70E6E7A2F50300C9600020024B53F858
S21400A9A82000FFF7CFBF00BFBC39002038B50446EB
S21400A9B80078144D04302A460821C0B2FDF7A2FEDE
S21400A9C820B1BDE83840104813F0FABA2B886380E7
S21400A9D86B88E978A380AA88A3681A82AB7984F87A
S21400A9E8A030EB79A371094B1B780BB9637138BD9E
S21400A9F809B19942FBD9064813F0E2FA23780133E5
S21400AA08F4E700BFD05B0020BCF50300C960002057
S21400AA18E5F50300F8B504460B78474A0D4642F8B4
S21400AA2823004370FFF7C2FFA268444BD465D36483
S21400AA38434B02265365434BA11C13654FF4401342
S21400AA48E36001236161E1623F49103221632265B8
S21400AA58211D3E4AA1633E483E49626504F1A002B4
S21400AA68A061E163E265E01C611D3B4A2062616407
S21400AA783A483B492266A21D2374237784F8283077
S21400AA8884F8343084F84030A16484F84C6084F844
S21400AA98583084F864306062A266E879AA6800EBE9
S21400AAA8400102EB810704F10C0CC7F804C04FF014
S21400AAB8060C2C4F42F82170C118C9B201EB4101AF
S21400AAC842F821C002EB810700217960264F84F8FE
S21400AAD880302767254F84F89830A767244F254B82
S21400AAE8E767254F84F8746084F88C60C4F89C3057
S21400AAF804F16C06831CC4F88470C4F890601F4F79
S21400AB081F4EDBB203EB4303C4F89460C4F88870A6
S21400AB1802EB83067034746008261A4C42F8234009
S21400AB28C31CDBB203EB430302EB8304043042F896
S21400AB3823606160E871F8BDBC390020ED4503006C
S21400AB48374603008DA8000001FF300104FF2001EE
S21400AB581000300102FF200105FF300100FF300120
S21400AB6803FF2101070001084A0021008A8F04001C
S21400AB78510010008C8F04008D8F040055002100B2
S21400AB886F0018001200010400239B6AB3F5C04F3B
S21400AB9803D21968064A914203D0002303708360E3
S21400ABA87047012202709A689B694260F7E700BF07
S21400ABB807B0CD5E024B034A1A602BF04DB800BFB3
S21400ABC80000002002020FF073B5534B04461A78B3
S21400ABD81AB102221A7002B070BDCDE90022002810
S21400ABE8F9D001261E7033F0EDFC4C4D4C4B186026
S21400ABF817F0E8FB2B785BB902F062FA40B94948CF
S21400AC080823494A4949006801F0A8FE00B92E7091
S21400AC18474B5A6E62619B6E464AA3614FF40043E7
S21400AC28936603F188435968E16143499960196E50
S21400AC382160596E6160D3F87011A160196CE160EB
S21400AC48596C21613D49086C1864496C59640121A6
S21400AC5851664FF4005191661A6E560436D5384937
S21400AC68CA68D407FCD45B6E5A0434D5354AD36B0D
S21400AC7813F0430FFBD1344B1A68531C31D04FF4F2
S21400AC8800139340314A13660423304C6846236603
S21400AC984FF480632366102323664FF4005323661D
S21400ACA84FF0804323664FF4804301A9636629F07A
S21400ACB806FD009B2366019B63662B78002B8AD0D3
S21400ACC8194B1A6822665B68636684E72049CA6877
S21400ACD8D007FCD4C7E71F4AD36B13F0430FFBD14A
S21400ACE8C9E71D4B1B78002BCED14FF48072114B51
S21400ACF85A661A4A52681AB94FF40011134A11666E
S21400AD084FF400725A66164B5B68002BBCD14FF4A2
S21400AD1880020E4B1A66B7E7EF600020F06000204E
S21400AD280C3A0020646B0020103A002000710800DE
S21400AD38008000500090005055CEAC0000C0005473
S21400AD48000004400000024C306B002000900044D5
S21400AD58000004500000025CEE60002000C00550B1
S21400AD680000065070B52C4D04462E78012E02D0F1
S21400AD7801232B7070BD0028FCD029F0C5FC0130DB
S21400AD880BD029F0C1FC40F20113984205D0234BA2
S21400AD98234A5E66D368DE07FCD4224B22491B6E24
S21400ADA813F0040F4FF4005314BF1C4A1F4A93664F
S21400ADB8CA6B12F04302FBD121681A4B1966616808
S21400ADC85966A168C3F87011E16819642169596465
S21400ADD8E169C80748BF9A60154B1A6801320DD159
S21400ADE8144A127852B914494968C90748BF1A6004
S21400ADF8124A5268D20744BF01221A606269104B91
S21400AE085A66A2699A6617F0E5FA0E4B186833F088
S21400AE18D4FB0023ADE700BFEF60002000900040A1
S21400AE2800000440008000440000024C00900050DF
S21400AE38306B0020EE60002000C005500000065071
S21400AE48008000500C3A002070B50024A36AB3F5C1
S21400AE58C04F23D21A68134B9A421FD1124E33782A
S21400AE6813F0FD0518D14FF480341048FFF7ACFEF8
S21400AE78032004F0C1FD0E4B0320DC6004F0A0FDA7
S21400AE880C4B1C61AB6ADB69984704460748FFF71A
S21400AE9869FF0CB901233370204670BD4FF48174E6
S21400AEA8FAE700BF07B0CD5EEE600020EC39002060
S21400AEB800A000440090004413B5204B1B7803B94B
S21400AEC8FEE700231E4CCDE900336A4608231D49D9
S21400AED8206801F043FDF8B91B4AD2F84031D2F891
S21400AEE840211F2B4FF0010311D9203A9340019AB5
S21400AEF81A43019208236A461249206801F0B6FEF2
S21400AF08124B134A1A602AF0A7FE02B010BD9340EF
S21400AF18009A1A430092EDE72D28F1D10A4AD2F892
S21400AF284031D2F840211F2B4FF0010385BF203A4D
S21400AF3893409340019398BF0093DBE7EF600020AF
S21400AF48646B0020007108000080004400000020A8
S21400AF580B020FF038B50025AB6A0446B3F5C04FB0
S21400AF6810D21B6BB3F5C04F0CD20748FFF72CFE68
S21400AF78AB6A20461B6B5B689847BDE838400248BA
S21400AF88FFF7F0BE38BD00BF183A002013B50024FE
S21400AF98A36A0190B3F5C04F13D21B6BB3F5C04F2D
S21400AFA80FD20948FFF710FEA36A01211B6B01A800
S21400AFB89B69984704460448FFF7D4FE204602B02B
S21400AFC810BD4FF48174F9E7183A002070B50026D2
S21400AFD8B36A0446B3F5C04F0D4612D21B6BB3F5E1
S21400AFE8C04F0ED20848FFF7EFFDB36A20461B6B2A
S21400AFF829469B69984704460348FFF7B3FE204650
S21400B00870BD4FF48174FAE7183A002070B5002630
S21400B018B36A0446B3F5C04F0D4612D21B6BB3F5A0
S21400B028C04F0ED20848FFF7CFFDB36A20461B6B09
S21400B0382946DB69984704460348FFF793FE2046EF
S21400B04870BD4FF48174FAE7183A0020F8B5002767
S21400B058BB6A0446B3F5C04F0D46164611D21B6BA5
S21400B0687BB10948FFF7B0FDBB6A20461B6B32462A
S21400B07829465B6A984704460348FFF773FE20464E
S21400B088F8BD4FF40174FAE7183A002070B50026A8
S21400B098B36A0446B3F5C04F0D4612D21B6BB3F520
S21400B0A8C04F0ED20848FFF78FFDB36A20461B6BC9
S21400B0B829469B6A984704460348FFF753FE2046EE
S21400B0C870BD4FF40174FAE7183A0020F0B500276F
S21400B0D8BB6A0446B3F5C04F0D461646ADF5177D58
S21400B0E820D21B6BB3F5C04F1CD21048FFF76CFD7F
S21400B0F8BB6A20461B6B40F251225B6A01A998473F
S21400B108044630B10948FFF72DFE20460DF5177D99
S21400B118F0BD836A32461B6B2946DB6A01A898474E
S21400B1280446EFE74FF40174EFE700BF183A002033
S21400B13810B50024A36AB3F5C04F10D21B6BB3F545
S21400B148C04F0CD20748FFF73FFDA36A1B6B1B6B6B
S21400B158984704460348FFF705FE204610BD01241D
S21400B168FBE700BF183A0020F0B58FB0044601A8E8
S21400B1780E461546FFF7EEFE9DF80C30012B12D151
S21400B188B5F5002F27D8B4F5002F24D86319B3F5E2
S21400B198002F20D821462A46304614F0BFF900244E
S21400B1A820460FB0F0BD0027BB6AB3F5C04F15D2D6
S21400B1B81B6BB3F5C04F11D20A48FFF705FDBB6AF3
S21400B1C82A461B6B314620465B6B98470446054863
S21400B1D8FFF7C8FDE4E740F20244E1E740F2011455
S21400B1E8DEE700BF183A0020F0B58FB0044601A885
S21400B1F80E461546FFF7AEFE9DF80C30012B1FD104
S21400B208B5F5002F06D8B4F5002F03D86319B3F5A3
S21400B218002F13D940F2024420460FB0F0BDE25882
S21400B228013225D104339D42F9D82A4631462046B4
S21400B23800F082F80028EDD00024EDE70023F2E7BE
S21400B2480027BB6AB3F5C04F15D21B6BB3F5C04FCA
S21400B25811D20A48FFF7B8FCBB6A2A461B6B314670
S21400B26820469B6B984704460448FFF77BFDD3E7C8
S21400B27840F20344D0E740F20114CDE7183A002024
S21400B28870B58EB0044601A80D46FFF763FE9DF81C
S21400B2980C30012B22D144EA0503C3F30C03002B20
S21400B2A833D1B5F5002F04D940F2024420460EB03B
S21400B2B870BDB4F5002FF7D82544B5F5002FF3D8A0
S21400B2C8204604F5005400F029F8AC4202D00028C5
S21400B2D8F6D1E9E70028E7D00024E7E70026B36AB6
S21400B2E8B3F5C04F14D21B6BB3F5C04F10D20A4843
S21400B2F8FFF76AFCB36A29461B6B2046DB6B984748
S21400B30804460548FFF72EFDD0E740F20444CDE793
S21400B31840F20114CAE700BF183A00204FF4003282
S21400B32808B5044B9A6633F0EBFBB0FA80F0400998
S21400B33808BD00BF00900050134610B562B1034325
S21400B3489B070BD14FF40034054B9C6633F0D0FBBB
S21400B358B0FA80F0400910BD0120FCE70020FAE7AB
S21400B36800900050BFF34F8F0549064BCA6802F499
S21400B378E0621343CB60BFF34F8F00BFFDE700BF0B
S21400B38800ED00E00400FA0570B5D0B1C9B10E4E64
S21400B398431E013913F8014F2046325D02F00302BE
S21400B3A8012A11F8012F08BF04F12000B55C05F04A
S21400B3B80305012D08BF2032801A01D1002CE9D1DF
S21400B3C870BD0120FCE700BF25B704000348044A07
S21400B3D80449121A921029F0FCB900BF4061000017
S21400B3E8186300000C68002008B5154B83F30A881C
S21400B3F800F030F8FFF7EAFF124B13498B4212D3DE
S21400B4080020124B12498B4218D3FBF78BFC1868A6
S21400B41850F82240586840F8224001329868824224
S21400B428F5D30C33EAE70022F8E71C6844F8220054
S21400B43801325C68A242F8D30833E4E70022F8E752
S21400B4480800002050F304005CF304005CF30400DA
S21400B4585CF304004FF40041134B144A70B59A602D
S21400B468D3F88820124D42F47002C3F88820114A97
S21400B47805F5005491664FF0FF3222664FF6DF72EC
S21400B48862660222C3F8D020BFF34F8FBFF36F8FD8
S21400B4984FF44036032004F0AFFA0320E66004F0C9
S21400B4A88FFA2E6170BD00BF00ED00E0006000005E
S21400B4B80080004400900050054B1860054B1B6F39
S21400B4C803F00703032B01D131F0C8B9704700BF5A
S21400B4D8406B0020008000502DE9F04104464FF0F4
S21400B4E801080C250D4E0CB9BDE8F08194FAA4F0BD
S21400B4F8B0FA80F00F2808FA00F2C8BF103824EA1D
S21400B5080204CABF05FB006205FB0062B432576836
S21400B518002FE8D09168C0B2B847E4E7383A002070
S21400B52808B50C4833F06FF8192004F057FA28B11C
S21400B538192004F061FA192004F042FA1A2004F0DF
S21400B5484DFA28B11A2004F057FA1A2004F038FAEF
S21400B558002008BD909104002DE9F0410E461746DC
S21400B568054618B30F2923D80378DBB1013BDBB2B5
S21400B578022B19D8104AD35C6A78D340DB0717D554
S21400B5880E4BD3F81043ACB933F01CF880463A4655
S21400B5982846314603F06CF9404633F00EF820464C
S21400B5A8BDE8F0817F23E7E70023E5E72224F6E7F6
S21400B5B82124F4E70224F2E7E08F040000C00350D9
S21400B5C810B5044610B30378E3B1013BDBB2022B97
S21400B5D81AD8104AD35C6278D340DB0718D532F005
S21400B5E8F1FF0122617823788A4030214B4341F2EB
S21400B5F8100103F1A04303F570335A5032F0DDFF13
S21400B608002010BD7F23E6E70023E4E72220F8E7C2
S21400B6182120F6E7E08F040010B5044610B303783F
S21400B628E3B1013BDBB2022B1AD8104AD35C62782E
S21400B638D340DB0718D532F0C5FF0122617823789E
S21400B6488A4030214B4342F2100103F1A04303F530
S21400B65870335A5032F0B1FF002010BD7F23E6E762
S21400B6680023E4E72220F8E72120F6E7E08F04002D
S21400B67838B50D46044618B311B30378E3B1013B59
S21400B688DBB2022B1AD8104AD35C6278D340DB07A9
S21400B69818D532F097FF30222378534303F1A0439E
S21400B6A803F570335B696278D34003F001032B70AF
S21400B6B832F083FF002038BD7F23E6E70023E4E767
S21400B6C82220F8E72120F6E7E08F04002DE9F04174
S21400B6D80D4616469846044600284FD000294DD0F9
S21400B6E80178002940D04B1EDBB2022B3ED8254AF3
S21400B6F8D25C6378DA40D20701D4FF2940D1022E03
S21400B70801D9042E3CD132F05DFF23780746FF2B83
S21400B71805D032462046296803F0F0F828602B68E2
S21400B728013309D12378FF2B06D1174B6078D3F85D
S21400B738241429F0B4FE286029684B1C18D00C2362
S21400B748124A03FB0122069BC2F804809360237802
S21400B758FF2B04D001230E4A8B40C2F82434384607
S21400B76832F02BFF002007E07F22C2E70022C0E766
S21400B778384632F022FF2D20BDE8F0812220FBE774
S21400B7882120F9E7E08F040000C00350383A002073
S21400B79800D0035008B503F061F8054B00F05530AB
S21400B7A820F05020C3F82004BDE80840FFF794BEF8
S21400B7B800E0035008B503F051F8054B00F0AA3036
S21400B7C820F0A020C3F82004BDE80840FFF784BE98
S21400B7D800E003502DE9F04F144605460E469B46FA
S21400B7E8C36B87B001225B6902A960689847EB6B58
S21400B7F801225B6903A93046984702A829F0E8FBAE
S21400B808074648B10023A37563754FF0FF33A3605E
S21400B818002007B0BDE8F08F03A829F0E6FB012357
S21400B828A375237E04EBC303DE611F846368B342FB
S21400B8380ED1206003A829F0FAFB4FF0FF332075DD
S21400B848A360237D043B022B26D80023A375DFE7DD
S21400B85823681A1A53425341A37503A829F0E7FB35
S21400B868237D834218BFA77503A829F0C2FB0746A5
S21400B87802A829F0BEFB874218BF002303A818BFFA
S21400B888A37529F0BEFB074602A829F0BAFB874233
S21400B8981CBF0023A375D4E703A829F0AAFB80B130
S21400B8A8EB6B022230465B6904A9984704A829F086
S21400B8B8AFFB0346207D032839D8DFE800F0383888
