S01B00006275696C642F72656C656173652F7A69676265652E73333714
S21400400008100020FD950000DDDF00005D74030051
S2140040105D740300E5DF0000EDDF00005D74030063
S2140040205D7403005D7403005D7403005D7403003B
S214004030F1DF00005CC104005D7403005D740300E2
S2140040405D7403005D7403005D7403001591000049
S2140040505D7403005D7403005D7403005D7403000B
S2140040605D7403005D740300F1E40000AD670300B7
S2140040705D7403005D7403005D7403005D740300EB
S2140040805D7403005D7403005D7403005D740300DB
S2140040905D7403005D7403005D7403005D740300CB
S2140040A05D740300C5990000A99900005D740300C3
S2140040B05D7403005D7403005D7403004134020008
S2140040C079D1030075D10300A52B02008FD1030020
S2140040D07DD103000134020081D1030035180200AF
S2140040E0813402005D7403005D7403005D74030098
S2140040F05D7403005D7403005D7403005D7403006B
S2140041005D7403005D7403005D7403005D7403005A
S2140041105D7403005D7403005D7403005D7403004A
S2140041205D7403005D7403005D7403005D7403003A
S2080041305D740300B2
S214004134F0B5114A114C124E00F00105E3695F0711
S21400414413D40DB9334213D103EA00078F4207D1C3
S2140041540B4A1A40002A14BF6FF001000020F0BD7D
S214004164013AEBD16FF00200F9E74FF0FF30F6E7C3
S2140041746FF00100F3E700BF80969800000003503C
S214004184020001000B4B70B5D96911F480310DD1D2
S21400419401244FF48072084E084DF46020462C64C7
S2140041A41A61FFF7C5FF3464EC6070BD6FF0010060
S2140041B4FBE700BF0000035000100350002003502C
S2140041C438B541F6713301220C4C0021E569E363EE
S2140041D40B4B05F48035DA600223606121202361ED
S2140041E4FFF7A6FF10B92120FFF7A2FF0122054B17
S2140041F4DA600DB10023E36338BD00BF000003504E
S214004204001003500020035070B5134C6061E3693E
S2140042145B071ED40E4656F8043B8D18A361AE42C7
S2140042240BD10423002121202361FFF781FF58B915
S214004234BDE870402120FFF77BBF08210846FFF742
S21400424477FF10B10423236170BD56F8043BA361C5
S214004254E5E74FF0FF30F7E7000003502DE9F84399
S214004264154641F67132164B8946DF69DA63012238
S214004274064603F58053DFF8508007F48037DA608B
S21400428455B9284601220F4BDA601FB10022A3F568
S2140042940053DA63BDE8F88306F5005404EA08041C
S2140042A4A41BAC4228BF2C46494622463046FFF79C
S2140042B4ABFF0028E6D12644A1442D1BE0E700BF4F
S2100042C4000003500020035000E0FFFF45
S2140042D02DE9F04F4FF0FD0BC9B09A460DF11B09C2
S2140042E09DF8503108AFCDF80C90CDF808B0019786
S2140042F0059303890446009383790E4690464188C9
S2140043008288407813F0BAFD054650B10090A38825
S214004310002062883A4914F0F5F8284649B0BDE80E
S214004320F08F99F8000036F045FA38B12846A38891
S2140043306288344914F0E6F88D25EEE75A46394689
S21400434099F8000036F0DEF98346002851D0529BDB
S2140043501BB1BDF84C3198424BD8002399F8009019
S2140043600793A9F14102012A5FFA8BF123D8384658
S2140043700139254ADFF898C05FFA81FE734513DBE2
S214004380059B04210792C3B907AF18221F489FED6B
S2140043901A7B02FB060420460A460830394684ED9E
S2140043A0027B18F005FE11E010F8011F01335140A2
S2140043B00CFB01F2E2E7059B33B123464A4638463A
S2140043C0009611F083FCA8E70829DED9B8F1000FA3
S2140043D001D088F80090BAF1000F01D0AAF800B01A
S2140043E0529B002B99D05A46184608A918F0E0FDB3
S2140043F093E7012591E700BF0000000000000000E1
S2140044003A6A04006F6A0400C59D1C8118110020DA
S21400441093010001000000002DE9F04F93B0CDE9B4
S2140044200A32DDE91C530E9353EC102BCDE908013C
S214004430104619468DED060B1E9E18F043F880B107
S214004440DDE906014FF0FF32C54B18F063F840B9BE
S214004450DDE906014FF0FF326FF4801318F03CF8E8
S21400446070B1DDE908019DED060B0E9B1E96CDE9A9
S2140044701C53DDE90A3213B0BDE8F04F00F088B9EE
S2140044800022DDE90601002318F026F8002800F0D7
S2140044903381DDE906A303F1004BCBF30A5016F493
S2140044A08063A0F2FF3008BF06250F9317F038FD93
S2140044B09BA3D3E9002317F09DFD9BA3D3E900231C
S2140044C017F0E2FBCBF31304894644F07F51804695
S2140044D00022A44B504641F4401117F0D3FB94A39E
S2140044E0D3E9002317F086FD02460B4640464946B0
S2140044F017F0CAFB18F018F8044617F011FD8EA343
S214004500D3E900238046894617F074FD0022964BB7
S21400451017F0BAFB18F008F889A3D3E9002307467A
S2140045204946404617F066FD80463846894617F0ED
S214004530F7FC85A3D3E9002317F05CFD02460B4683
S2140045404046494617F09EFB02460B46CDE90C2333
S21400455017F050FDDDE90C238046894610461946C3
S21400456017F092FB0022CDE91001804B40464946E9
S21400457017F06AFE00227E4B17F086FB02460B46BB
S2140045804046494617F060FE00227A4B17F07CFB47
S21400459002460B464046494617F056FEDDE90C2318
S2140045A08046894600204FF0804117F06BFB02469C
S2140045B00B464046494617F067FB02460B46DDE9C8
S2140045C0100117F041FE07F2FF3700226A4B17F082
S2140045D05BFB00223B0517F00DFD52465B4680460E
S2140045E0894617F097FF002840F08980CDE90C89AE
S2140045F004F16303C62B8CBF0527042731051BD5A2
S21400460053A3D3E900235046594617F079FF0028F4
S2140046107FD051A3D3E900235046594617F05CFFDC
S214004620002876D00027A542C6BF2C1B04F1FF3514
S21400463000253C4646F480660E9B9F422CBF4FF0FA
S2140046400008A3EB070816F0020903D0002F18BFD6
S2140046504FF000083CB1DDE90C235046594617F0F0
S214004660F3FD82468B46DDE906010022002317F0A3
S21400467033FF10B10BF100439B46DDE9080126F439
S2140046800063CDE90183DDE90A324BEC10AB0095FF
S21400469000F07EF802465FB3DDE9091316F0200F3E
S2140046A000F10105089E0CBF65204520B047DDE9F6
S2140046B008010523002205930A23002CCDE90232C7
S2140046C007F1FF374FEAD473B8BF64422A46019316
S2140046D004970A9B009437F0C7FE0246B9F1000F14
S2140046E006D00B9BC41A0B9B1A190E9BA34245D8E7
S2140046F0104613B0BDE8F08FDDE906ABCDE600222C
S214004700404649461A4B17F09FFD013CCDE90C0187
S2140047106EE7002D90D00F9B002B8DD0013D8BE7D0
S214004720FB799F501344D33FB3C8608B288AC63F9B
S21400473061436F63A787D23F71A379094F930A40FD
S2140047401655B5BBB16B0240EF39FAFE422EE63F76
S2140047502D431CEBE2361A3F0000000080842E41F9
S214004760FFFFEF7F0000F83F0000E03F00002C4016
S21400477000002440000018400000F03F2020DDE943
S2140047800913089DA8470134ADE700BF00000000EC
S2140047902DE9F04F5BEC10AB97B0CDE90501DDE9F4
S2140047A02058CDE90723504652465B465946229F7D
S2140047B017F088FE70B90323CDE902870193AA4B50
S2140047C00093DDE90501DDE9072337F07FFD17B02B
S2140047D0BDE8F08F4FF0FF326FF480135046594615
S2140047E017F07AFE28B10423CDE9028701939F4B88
S2140047F0E6E74FF0FF32504659469D4B17F08AFECB
S21400480068B19C4A07F00403002B08BF03229A4BAA
S2140048101CBF13460422CDE902870192D0E750461A
S2140048208DA3D3E90023594617F074FE38B98CA33C
S214004830D3E900235046594617F04EFE68B1DDE92D
S2140048400723DDE905014BEC10ABCDE92187209568
S21400485017B0BDE8F04FFFF7DFBD0022002350463B
S214004860594617F039FE002800F091805B46524604
S2140048700020002117F006FA012382468B46099392
S21400488017F4806400F08580092D40F285800024AE
S21400489030210EABA5F109020134202C03F8011BD0
S2140048A0A5EB040901D09442F6D15946504617F0BC
S2140048B03BFE724B054603EBC90393ED007B8DED83
S2140048C00A7B17F02DFB02460B465046594617F05A
S2140048D0D9F9DDE90A2317F08DFB02460B46CDE930
S2140048E00C2317F049FE064617F00AFB02460B4655
S2140048F0DDE90C0117F0C6F902460B46CDE90C239C
S21400490000225F4B17F006FE002848D001363046DE
S21400491017F0F6FA02460B46DDE90A0117F0E6FD47
S21400492008B100260135B9F1000F45D1284617F029
S214004930F7FA02460B465046594617F0A3F90022EE
S2140049404F4B17F0C9FD10B9E90700D501350A210C
S2140049500EAB1A19202C0AD095FBF1F001FB10556E
S214004960303502F8015B013405460028F2D107F025
S2140049700302012A55D1B8F1000F52D0099A12B994
S21400498017F00C0F01D008F1FF38302240E00990F4
S21400499076E74FF0060988E7A946002485E7002257
S2140049A0DDE90C01364B17F097FD0028BBD10EB1A0
S2140049B0F007B8D50136B6E70A210EAB1A19202C37
S2140049C00DD0B6FBF1F001FB1063092E03F13003A6
S2140049D009F1FF3904F1010402F8013B11D8302136
S2140049E0A1440EAA202CB2D04C4504F101030AD1F2
S2140049F004F158020DEB02042E2204F8202C1C466B
S214004A00A5E70646DBE7A1541C46EBE71A5501343A
S214004A10444506D2202CF9D1CDE9028701940EAB8D
S214004A20CEE6202CF8D0099B3BB12D2204F158038A
S214004A306B4403F8202C0134EEE77A0704D504F122
S214004A4058032B226B44F4E73B07E5D504F15803E3
S214004A5020226B44EDE700BF0000000065CDCD418D
S214004A600000000065CDCDC1998804009D88040033
S214004A70FFFFEF7F908804009588040098D004001C
S214004A800000E03F0000000070B58EB02C22002130
S214004A9003A818F0FDF864234FF002320893CDE91E
S214004AA005230B2301218DF834305B4B8DF8101055
S214004AB01D880D4040F0A98008463BF093FF0A226F
S214004AC0564B574C1A704FF42873ADF812304FF00F
S214004AD0FF332360534B54491B8820460B82534BAD
S214004AE0534A1B68CD828B61524B0D621B884B82EA
S214004AF0514B1B68CB611EF039FD20B14FF41B7182
S214004B004E483DF0B0F80521206837F096FE20B1FB
S214004B1040F27D2149483DF0A6F8206817F06EF86F
S214004B20474B2068196837F04BFF0C253CF0C2FB5A
S214004B30684309903CF0BEFB68430DEB0501079007
S214004B40206818F067FF20B140F295213B483DF001
S214004B508AF8256821F0B4F800220146284637F086
S214004B60A7FF20B140F2972134483DF07CF840F290
S214004B700353344D344E2B80052396F90000AB705A
S214004B807F2801D11EF0E8FD3378EB703CF092FBF5
S214004B9000EB80008000A8803CF08CFB0023C00067
S214004BA04FF0FF31E880AB604FF0FF3018A3D3E939
S214004BB000233CF069F82549206837F032FF20686A
S214004BC002A938F04EFB20B14FF434711B483DF07B
S214004BD04AF8042220680DEB020137F0C6FE0428CE
S214004BE004D040F2D72115483DF03DF801A9012038
S214004BF037F0D1FA09F036FA01201FF03FFA33F009
S214004C00BAFA1FF065FA1EF03FFD0EB070BD00BF89
S214004C100A0020FF420300009C6B0020FC7200206C
S214004C20C8630020CAE90400CC790020D0E904005B
S214004C300D0A0400C8E90400CCE90400C8BF04005B
S214004C401C770020BC630020027D0020810A04003F
S214004C500348044B834202D0034B03B11847704706
S214004C60347D0020347D002000000000064B0749FC
S214004C70C91A891048BF0131491003D0044B0BB143
S214004C8001481847704700BF347D0020347D00205F
S214004C900000000010B5064C237843B9FFF7D8FF94
S214004CA0044B13B10448AFF300800123237010BDFA
S214004CB00017002000000000700D050008B5044B2A
S214004CC01BB104490448AFF30080BDE80840CDE7B7
S214004CD00000000004170020700D0500A3F5803AC0
S214004CE0704700BF154B002B08BF114B9D46FFF7C2
S214004CF0F5FF00218B460F461148124A121A17F08C
S214004D00C7FF0C4B002B00D098470B4B002B00D056
S214004D1098470020002104000D000B4818F0FEFA0A
S214004D2017F08EFF2000290031F0C1FD18F0E4FADC
S214004D30000008000000000000000000081000202E
S214004D40081000206073002085D3010007B50121FC
S214004D5020200DF1070201F053FE50B10121202062
S214004D600DF107028DF8071001F05AFE03B05DF84A
S214004D7004FB9DF807100129F8D00122084816F018
S214004D8075FE01210DF1070220208DF8071001F0B5
S214004D9047FE31F0F1FC4FF4FA6001F07BFCE5E7EA
S214004DA0A820040038B501F0F3FB02F025F901282D
S214004DB005D002F021F9022801D002F043F9124D85
S214004DC02B783BB902F018F90128044602D131F0DD
S214004DD065FD2C7002F010F90128044609D101F097
S214004DE0BDFB31F0DCFC094A094B117811B914708F
S214004DF0186038BD1A680749821A8A42F9D91860BD
S214004E00BDE8384003F06EBC896C0020886C00203A
S214004E101C170020DF93040010B50446008831F00C
S214004E2077FCA37884F84400834202BF0123E37032
S214004E302371074B04F11C00C4E9073401F0ECFEB3
S214004E40224620880349BDE8104001F073BD00BF2C
S214004E507F5F0300495F030070B5C37804460D46C4
S214004E601646002B34D1D1B1214816F0FFFD0123A0
S214004E70E370E36CA6600BB1E06D9847E368F61A42
S214004E8063699E4221D2217E1A480131C9B2217639
S214004E9016F0ECFDA36D13B1217EE06D9847E5702A
S214004EA031F07DFC15B3237903BBA268238A801AF0
S214004EB083421BD801231048237116F0D7FD236DBB
S214004EC0A3B1E06DBDE87040184701232376E6E7FE
S214004ED00029E4D1094816F0C9FD636DE660E57067
S214004EE02571002BDBD0E06D9847D8E770BD00BF7A
S214004EF0D0200400E12004000F210400FC20040060
S214004F0013B5C8B1C2B1012910D0022911D099B980
S214004F10C369283083B11404B4FBF3F40460084872
S214004F20009416F0A3FD002002B010BD036A2C30DA
S214004F30F0E7436A3030EDE74FF0FF30F4E700BFAC
S214004F40252104000A4604490346086810B119469C
S214004F5031F071B8704700BF2017002070B50446C6
S214004F6094F89D2094F89E30D21A4032514201F0B7
S214004F703F0102F03F0258BF4A42D2B2162A00D87A
S214004F8070BD03F03F02224492F85D20552A05D0FA
S214004F90013303F03F0384F89E30E1E700205822F7
S214004FA0191801F03F01214491F85D1001300A44C0
S214004FB01628D2B2F4D1D24303F1160101F03F0114
S214004FC0214491F85D10D2B28A42E1D101212046F7
S214004FD030F0F6FF04210546204630F0F1FF0A21A6
S214004FE00646204630F0ECFFA26AC4E90765564341
S214004FF0E26A030248BF434202FB05F5226B48BF44
S21400500023F07F4002FB00F303F500431B0C360C35
S2140050102D0C23816062A680E58031F0C0FB237EE4
S21400502033B90123237694F89E3060611733B0E7D6
S21400503042F210726369C31A9342F2D82269B4F935
S214005040081003FB01222261064A23699342E8D333
S214005050A3F55B13A3F53A532361E3680133E360DA
S214005060F3E700BF80EE360010B5044601F07AFE86
S2140050702046FFF773FF0221054801F05FFE04F1AA
S21400508034004FF47A71BDE8104031F07FBB00BFAA
S214005090CDC004002DE9F8430D4616469846044652
S2140050A010B3A8220021043017F0F2FD40F29D1242
S2140050B040F20513C4E90A236923DFF888902363C6
S2140050C04246314628461A4B25806680C9F800407D
S2140050D001F0D0FD074660B1002332462946154848
S2140050E0C9F8003016F0C2FC4FF0FF373846BDE86E
S2140050F0F88331F054FB012384F85C300E4B60617A
S214005100C4E92834032384F8A8300C4BC4E90D34D2
S2140051103434204601F080FD20464FF47A7131F099
S21400512035FB434632462946054816F09FFCDDE728
S214005130454F00005E210400D0C004006950000006
S2140051408B2104002017002058B101B1816202B102
S214005150C26203B10363816AD0E90B23014816F0EB
S21400516085BC7047BC2104002DE9F8430E4617465F
S2140051701D460446002846D092220021063017F02D
S21400518087FD224A224B3046C4E9152343F2736357
S2140051900022E365114626806780A58031F0DAFAA2
S2140051A00022A0711146384631F0D4FA00224FF0A2
S2140051B001081146E071284631F077FA284631F0AA
S2140051C093FA84F83C8031F0EAFA124B04F1600955
S2140051D0C4E91834206284F88980484601F01CFD32
S2140051E00D4B3A463146C4E923340C482B4684F826
S2140051F0948016F03BFC484641F2883131F0C6FAFE
S2140052000020BDE8F8834FF0FF30FAE7305C02007C
S21400521076CF010053610300ECC00400E1210400D6
S21400522060B1002914BF0123002380F88A30044BA4
S2140052300449054818BF194616F018BC704700BF49
S21400524015220400272204003822040058B101B1B8
S214005250416502B1826503B1C365416DD0E916238D
S214005260014816F003BC70475322040013B5C8B1BA
S214005270C2B1012910D0022911D099B9836C5430DB
S21400528083B11404B4FBF3F404600848009416F0E9
S214005290EDFB002002B010BDC36C5830F0E7036D84
S2140052A05C30EDE74FF0FF30F4E700BF79220400F2
S2140052B070B5044600F1440680F83B1030460D46B3
S2140052C031F069FA238F1BB194F83A30AB4205D11E
S2140052D029462046BDE8704030F0B8BF84F83C3020
S2140052E031F05DFA064B2064C4E91134304601F013
S2140052F093FC3046BDE87040142131F047BA00BF39
S2140053007562030070B51E46838804460D46C1804C
S21400531002810BB1868070BD443031F03CFA94F8BF
S2140053203430BBB194F83610002908BFFF21204660
S21400533030F08CFF0123E370074BA680C4E90334EA
S2140053400C34204601F068FC29462046BDE8704033
S21400535031F01CBAFF21EAE7C762030058B1064BDA
S214005360064A0749C0E90023064BC0E9021300239A
S214005370C0E90433836170471E009065C409102796
S21400538008523C00600E803E10B501790446B1FA22
S21400539081F10088490931F004F921796088B1FA71
S2140053A081F1490931F0FDF8034B1A68A24204BFA7
S2140053B000221A6010BD00BF2417002070B5437984
S2140053C00446A3B100880E4E04F10805336813B1F5
S2140053D00C4B1B786BB1217931F0E3F864210A4B52
S2140053E03460A3602846BDE8704031F0CFB94088ED
S2140053F0E9E7064816F03AFB054B3221A360F1E7D1
S214005400241700208C6C002089530000B62204006C
S214005410BD53000010B50446E0B10F4816F026FB59
S21400542001236371A37953B92179208831F0B9F843
S214005430236B7BB1606B0121BDE810401847204606
S214005440FFF7A2FF04F1080031F0A5F92046FFF7A8
S214005450B5FFEDE710BD00BFEC22040010B5044612
S214005460F8B1104816F002FB00236371A3796BB9FC
S21400547021792088B1FA81F1490931F092F8236B3D
S2140054807BB1606B0021BDE8104018472046FFF74F
S2140054907BFF04F1080031F07EF92046FFF78EFF0F
S2140054A0EDE710BDF722040010B5044668B10748C2
S2140054B016F0DCFA637920461BB1BDE81040FFF712
S2140054C0CDBFBDE81040FFF7A5BF10BD0323040005
S2140054D010B50E4C0E48214616F0C8FA82210D482B
S2140054E016F0C4FA82210220A21E01F099FA0146A3
S2140054F030B134F8022C0848BDE8104016F0B6BAB1
S2140055000648BDE8104016F0B1BA00BF1A65002084
S214005510122304002D230400382304007C230400F7
S21400552038B5104C82212246022001F069FAA51CEB
S214005530014678B122880C4816F098FA2A460B4B9A
S21400554003F1340153F8040B8B4242F8040BF9D1F3
S2140055503323238035F8021C054A0648BDE8384048
S21400556016F084BA18650020872304000724040078
S2140055701A650020E5230400034B1B781BB18B4201
S21400558001D831F0F9B87047917C0020884208B500
S21400559004D3034816F06AFA01F070F808BD00BF9D
S2140055A03B24040010B5044601460E4816F05EFA89
S2140055B0012C11D10C4B0D481A884FF6FF739A42F6
S2140055C01EBF0022094B5A7430F016FF03F06EFA25
S2140055D0BDE8104003F0A0B80448BDE8104030F025
S2140055E00DBF00BF702404003C7C0020A87600207D
S2140055F02DE9F04704460D46164600274FF06C0985
S214005600DFF82C80DFF82CA098F80030BB4206DCD0
S214005610324629462046BDE8F04702F0B3BD09FBF6
S21400562007A033462A462146FFF76CFE0137EBE714
S214005630956C00207433002008B501F0DDFC0128CD
S214005640064807D130F0D8FE03F066F8BDE80840FB
S21400565002F0C0BD30F0D2FEF6E700BFA87600200C
S21400566070B500241A4D1B4E3378A3421BDC002471
S214005670194D1A4E3378A3421BDC0024184D194EE0
S2140056803378A3421BDC01F0B7FC012816481CD176
S21400569030F0B2FE03F00AFA03F03EF8BDE87040C0
S2140056A0124801F0C9BC2846FFF7B6FB0134603546
S2140056B0DAE7284630F056FE01346C35DAE728463D
S2140056C030F074FF01343835DAE730F097FEE5E75E
S2140056D0542F0020946C002074330020956C00201A
S2140056E0242D0020936C0020A8760020A5550000ED
S2140056F02DE9F04F89B0FFF713FF984B07A80793E3
S21400570030F092FF054617F0BFF9954CC2B21F2A3B
S214005710627004D9934816F0A9F900F0AFFF294645
S214005720A01C17F045FC07A830F07EFF054617F0D2
S214005730ABF9C2B21F2A84F8212001D98A48EAE7C9
S214005740294604F1220017F033FC07A830F06CFF5E
S214005750322604464FF000082578002D2FD1834CC2
S214005760FFF77EFF2378824F0093824E824B3A7873
S2140057701B783178814816F079F9814B81489A6810
S214005780002A00F0F58490F800C0BCF1000F00F08D
S214005790ED842A467C4991F802E00132754538BF0F
S2140057A07546944501F1B801F5DC023D032D00F283
S2140057B0F485DFE815F0F005EE05EC05EA05532D57
S2140057C00FD163784C2B40F05681A378502B40F0D5
S2140057D052816E4B01221A7007A830F025FF04464E
S2140057E0BAE7322D07D16378452BF5D1A378502B35
S2140057F0F2D1674BEEE7442D13D16378303B092B8B
S214005800EAD8601C30F01DFF624B634A197800230B
S21400581086B2994202F16002DEDD22F8466C013360
S214005820F7E7422D0BD16378542B40D1A01C01F032
S214005830CFF85A4B1880184630F063FBCCE7592D4A
S2140058401FD8412DC8D9A5F14303162B00F2458475
S214005850DFE813F0C302430419034304430443047C
S214005860B2004304430451002000430443044304AD
S2140058704304590111016802430443046802A50168
S2140058800202692DA8D1601C30F0DBFE80B230F039
S2140058906FFFA1E7374B012019780023404A994251
S2140058A002F1AC0298DD02F8AA0C0133F7E7394F93
S2140058B00B213C4A3878FFF769FE601C01F088F837
S2140058C00546E01C30F035FF01210246284630F040
S2140058D0ECFE60213B7830485943421845524FF45D
S2140058E0FA6111824FF4487151612F495683116550
S2140058F001333B7070E7DFF8BC8005212B4A98F82F
S2140059000000FFF743FE601C01F062F800224FF033
S2140059106C098246114630F0C8FE254D98F8007096
S214005920E11C09FB07F307FB0957384625F803A0D7
S21400593030F060FE384630F015FD0021104A98F829
S21400594000305160012103FB09550B4415601174AA
S21400595088F800304FF001083EE700BF1A650020C7
S214005960A47500208F240400A62404008F6C002059
S214005970916C0020926C0020906C0020A5250400FD
S214005980A87600208E6C0020B42100208C6C0020AD
S2140059908B6C0020946C0020542F00203C7C002050
S2140059A0682A0020B6240400DF650300BE24040035
S2140059B074330020956C0020C74D0521C74A28780F
S2140059C0FFF7E4FD601C01F003F800224FF06C09BD
S2140059D08246114630F069FEC14F2B78E11C09FB68
S2140059E003F203FB0979484627F802A030F002FECE
S2140059F0484630F0B7FCBB4BBB491C780846002332
S214005A009C420ADD0A6D58314ABB582202FB03004D
S214005A106C232A7802FB03730365B4490023084607
S214005A20D1F8A420EAB9AC2202FB03006C232A7842
S214005A3002FB0373C0F8A430B8F1000F0BD1AC4AD8
S214005A404346114652F8040B88B96C22287800FBAE
S214005A50027241F823202B7801332B70BCE6013309
S214005A60CEE70133042B01F1AC01D9D1E4E70133D1
S214005A70042BE7D1EFE7DFF8A4929E4F99F80000D9
S214005A800B219D4AFFF782FD04219C4A3878FFF7D8
S214005A907DFD601C00F09CFF0546E01C30F049FED2
S214005AA001210246284630F000FE602099F80020CA
S214005AB0934950430B180D524FF4487018825861A2
S214005AC090485E839865E078AC24642804BF012083
S214005AD098703B78854D5C4328192B554FF400741D
S214005AE0448003240471847102EB420401EB4411E8
S214005AF0816032210133DBB20132437180F8A0109D
S214005B0089F80020F5E6804DDFF8D89128780A213C
S214005B107E4AFFF73BFD06217C4A99F80000FFF716
S214005B2035FD601C00F054FF00224FF0380B824613
S214005B30114630F0BAFD2B78754F0BFB03F327F8B0
S214005B4003A04FF0010AFA1882F804A0E378692B44
S214005B5014D100231371582299F8003062485A4332
S214005B608118835428780133C0EBC00207EBC207C4
S214005B70421CCF642A7089F800302DE6002BEAD04C
S214005B80E01C00F025FF00220446114630F08DFD93
S214005B902B780BFB03735C8083F806A0DBE7DFF84B
S214005BA07CA1DFF87C919AF800000B210130524A64
S214005BB0C0B2FFF7EBFC0321564A99F80000FFF746
S214005BC0E5FC601C00F004FF0746E01C00F000FF48
S214005BD00546601D30F0ADFD0446024601213846FC
S214005BE030F063FD22462846012130F05EFD60203D
S214005BF09AF80030424A00FB03F4111917534FF489
S214005C004874404F0C824C618F654E83591CC9B254
S214005C10484302EB000CACF81040CCF81440942437
S214005C201552981C8AF8000099F800003A4D444333
S214005C3003EB430301EB410102EB4313CCF858702E
S214005C4002EB41122F1928550130ACF81A607B6020
S214005C50BA6089F80000BFE54FF0000A1E4F052124
S214005C6038781E4A0230C0B2DFF884B0DFF87080A1
S214005C70FFF78CFC651CE31D2846049300F0A8FE85
S214005C8000221146814630F010FD6C23387802352C
S214005C9003FB00F108EB010228F80190914610463C
S214005CA0E11D039230F0A6FC039A484682F834A021
S214005CB030F058FB6C233A7802FB0381049B0132D8
S214005CC09D424BF8041B3A70D6D10122084BC3F80C
S214005CD00CA01A743EE600BF956C0020BE2404009B
S214005CE074330020916C002058280020682A002079
S214005CF0A8760020926C0020B6240400D02404006D
S214005D00542F002079550000936C0020C324040013
S214005D10242D0020CA2404009C260020946C002019
S214005D20906C0020542D14BF01270227984BDFF8F3
S214005D30A4A293F8009005214846964AFFF726FC51
S214005D409AF800000A2101383844934AC0B2FFF797
S214005D501DFCB82202FB09F3904D4FF06C0BE918BE
S214005D6005F8039002238F7003FB074113FB0743DC
S214005D7009FB02550131DFF86092039104939AF80B
S214005D800020601C531C02FB0B978AF8003005921B
S214005D9000F01EFE059A02340BFB02F209EB02032A
S214005DA029F8020000221146059330F07EFC4FF0E1
S214005DB00102059B3846039983F8342030F01AFC1C
S214005DC0384630F0CFFA049B45F8047F9C42D6D183
S214005DD06F4A137801331370FEE4DFF80092704FB9
S214005DE099F800000A2101306E4AC0B2FFF7CEFBD8
S214005DF003216D4A3878FFF7C9FB601C00F0E8FD08
S214005E000546E01C00F0E4FD002204461146284644
S214005E1030F04BFC00222046114630F046FC38207D
S214005E2099F80030614A00FB03FC02EB0C0122F8F3
S214005E300C504FF0010C002581F804C08D7103EB67
S214005E400C01C9B248431452702402EB000E981C91
S214005E5089F8000038788EF806504443544DC3EB5A
S214005E60C303C1EBC10102EBC3038EF804C002EB0F
S214005E70C10205EB040C28550130CCF80430CCF8F0
S214005E8008203870A8E46378502B40F0A98021469B
S214005E90484815F0EBFDA01C00F09AFD0546201DB5
S214005EA000F096FD0746A01D00F092FD4FF6FF732A
S214005EB09D4281463FF490AC9F423FF48DAC9842A1
S214005EC03FF48AAC03463A4629463B48FFF74CF96E
S214005ED000287FF481AC083456210490204630F028
S214005EE080FB41210390204630F07BFB5721834600
S214005EF0204630F076FB49218246204630F071FB82
S214005F0001782D48A1F1490359425941FFF788F914
S214005F10039A049B1178562933D1501C30F091FB1C
S214005F2004469BF80030412B2DD10BF1010030F0D8
S214005F3088FB83469AF80030572B27D10AF10100D8
S214005F4030F07FFB03465A4621461B48FFF77EF992
S214005F50194830F072F9194C01462060184801F0D3
S214005F60B7FD2168174830F0AAFF0123164A2946D4
S214005F701370164A164813704B463A4615F076FDCF
S214005F802AE41C46CDE74FF0000BD3E70023DAE700
S214005F908E6C0020D9240400E0240400B4210020E4
S214005FA08F6C0020C3240400EF240400242D00205E
S214005FB04C250020F6240400141A00206419002042
S214005FC088170020081000208A6C0020907C002093
S214005FD0242504008D6C00207C1D0020936C00207E
S214005FE0422B7FF4F9AB2146564815F03FFDA01C26
S214005FF000F0EEFC0546201D00F0EAFC4FF6FF73AD
S2140060009D4207463FF4E8AB98423FF4E5AB04F107
S21400601006095321484630F0E4FA03788B4254D1FF
S214006020013030F00EFB03463A4629464648FFF755
S21400603031F8044600287FF4CFAB5621484630F0AE
S214006040D0FA41218346484630F0CBFA57218246A3
S214006050484630F0C6FA9BF800308146562B04D1ED
S2140060600BF1010030F0EDFA04469AF80030412BAF
S2140060702ED10AF1010030F0E4FA824699F8003099
S214006080572B28D109F1010030F0DBFA03465246BF
S21400609021462D48FFF758F82B482FF0E6FF2B4CEB
S2140060A0014620602A4801F013FD2168294830F097
S2140060B006FF0123284A29461370284A28481370E9
S2140060C03A4615F0D3FCFFF787BB4FF49653ABE781
S2140060D04FF0000AD2E70023D9E74F2D7FF47CABC0
S2140060E063784C2B7FF478AB1B4B1B78002B3FF46C
S2140060F073AB02344321204630F073FA0746502132
S214006100204630F06EFA3B780546432B15D1781CB6
S21400611030F097FA84B22B78502B10D1681C30F0F0
S21400612090FA82B221460F4830F08AF9084B0E48A2
S214006130B3F86A20B3F85E10C3E70024EBE700224A
S214006140F0E700BFF6240400681900206419002058
S21400615088170020081000208A6C0020907C002001
S21400616053250400E4170020772504000F229A74B4
S214006170B74B327893F80090B64DB9F1000F18BFC0
S21400618091463B782D782478991800782944214444
S21400619001444944C9B20C2900F201810025034498
S2140061A02846AD4C0394AA4200F3FF80012938BF6D
S2140061B00121AA4D04912A4600232C464FF48271F1
S2140061C04FF6FF7804980133984213705180A2F876
S2140061D0048002F10C02F5DCA14BA049A148A360A3
S2140061E001F054F8E079A36800EB400003EB800070
S2140061F000F050FCE379994901339B48E37101F0C4
S2140062009BFF9A4B1B88434503D09449984801F05E
S2140062108DF94FF00008DFF840A2914C33784345E3
S21400622000F3CC80934B1B785BB1934B1B78012B10
S21400623007D18A49914801F095FC8849904802F0B8
S21400624063F94FF000084FF00C0BDFF838A2834DCF
S2140062503A78424500F3C680864B1B7823B11AB1C4
S2140062608849864830F0F5FC0C214FF000084FF0C6
S214006270940B3B7896F800A09A4401FB0A51754BA4
S2140062801878814A404500F3CD800C214FF0000A73
S21400629096F800803B789844804401FB085B7B4B73
S2140062A07B4A1878504500F301810C214FF0000B13
S2140062B03B7896F800809844664B1B789844804458
S2140062C001FB085A734A744B12785A4500F30B8147
S2140062D0684B1B78ABB1DFF8A0B19BF80010012922
S2140062E00FD94FF00C08013908FB0151634801F043
S2140062F039FC9BF800106248013908FB015102F096
S21400630003F933783A7806211344524A0126127864
S21400631013445E4A127813445E4A127813440C22E1
S21400632002FB035500231846039A994502F1AC0276
S21400633005F10C05039200F3F280049947484E4D90
S21400634000F09AFD01F046FF4A4B40F2055240F637
S214006350043128781E7800F071FD0022044640F2D1
S2140063600271287800F06AFD21460246304600F0A9
S21400637009FF079B49491A468B4240F0E38048488C
S21400638009B0BDE8F04F15F071BB0722EFE6032217
S214006390EDE60422EBE60222E9E60122E7E60C221D
S2140063A0404815F063FBFFF7B8B994F805C001350F
S2140063B09C45C4BF20716071AC34F4E6B8F1000FA0
S2140063C006D015F8053C03EB430304EB8304AC60EE
S2140063D02946504602F094FC08F101080AF1AC0A7E
S2140063E00C351BE7317811EB08010AD04A1E0BFB6F
S2140063F00252D27902EB420204EB82040BFB0152FA
S214006400946050460BFB015102F044FA317826485E
S21400641041440BFB015101F013FE08F101080AF19B
S214006420580A15E718EB0A0F18BF11F8050C059166
S2140064301EBF00EB400004EB80048C600BFB0820C2
S21400644001F038FA0599034B08F101080C3117E7FB
S2140064508B6C0020906C0020682A0020AC1A00206C
S2140064603C1B0020A4750020781700203C7C0020F0
S214006470281700208A6C0020907C002088170020B7
S21400648008100020582800209C2600208F6C002032
S2140064904C2500208E6C0020B42100201A650020B8
S2140064A032260400F5250400182D00201AEB080FEC
S2140064B018BF1BF8050C59461CBF00EB400004EB48
S2140064C080044FF0700018BFCBF8084000FB0A208D
S2140064D001F0C6F85946204801F0B2FD0AF1010A5B
S2140064E00BF10C0BDBE6B8201BEB080F18BF1AF8F5
S2140064F0052C00FB0B301CBF02EB420204EB8204AF
S214006500514618BFCAF8084001F0D0FE514612485E
S21400651001F096FD0BF1010B0AF10C0AD2E615F814
S214006520112C039F02EB420204EB820415F80C2C9C
S214006530C4E9001045F8044C05F8056C07F8042C6F
S2140065400133F1E613F8011D00297FF413AF3B2158
S21400655002F8011C0EE700BF182D002008B5094BF5
S2140065601B786BB1084830F077FB074830F0F2FB39
S214006570064802F055F8BDE80840044830F0B1BCC3
S21400658008BD00BF8A6C0020881700200810002075
S21400659008B5064B1B783BB105482FF056FEBDE804
S2140065A00840044830F058BB08BD00BF8A6C002085
S2140065B0141A00208817002007B5012121200DF1AC
S2140065C0070200F01DFA18B99DF80720024B1A7052
S2140065D003B05DF804FB00BF917C002007B5064BB6
S2140065E08DF80700187001210DF10702212000F038
S2140065F017FA03B05DF804FB917C002007B5022172
S21400660001200DF1060200F0FBF938B9044815F038
S2140066102DFABDF8060003B05DF804FB0020FAE78B
S2140066204F26040007B50221ADF806000DF106025C
S214006630012000F0F5F9014610B1034815F016FAEE
S21400664003B05DF804FB00BF7026040010B5FFF72A
S214006650D5FF04460146074815F008FA012106480A
S21400666015F004FA24B9BDE810400120FFF7DABFA0
S21400667010BD00BFA0260400B226040008B50448DA
S21400668015F0F4F900F0DCF930F076F830F071F837
S214006690C826040038B50446084D094B28462B602A
S2140066A000F0BAFA002C18BF21462846BDE838404C
S2140066B008BF4FF4967130F069B800BF90350020DF
S2140066C0616603002DE9F043384D91B008AC0746EB
S2140066D0894690460FCD0FC495E80F00002684E843
S2140066E00F0001250323324C3248CDE90366CDE97D
S2140066F005668DF80E30079602953BF05DFA2E483B
S2140067003BF05AFA32462D4920468DF8176005F0C0
S2140067101FFC334632462A498DF819000090204661
S2140067208DF82390CDF82C808DF8216005F02AFC9A
S2140067300A9020468DF8097005F08CFB204608AAC2
S21400674005A905F045FC02AA204603A931F0DAFBAC
S2140067504FF400721B4B5A62194BE560626A920551
S21400676010D46BB94FF40072164B11485A6205F0FC
S21400677071FB11483BF023FA002011B0BDE8F0830E
S214006780013BEBE7002BEDD0094908A831F0EDFB03
S2140067904FF400720B4B06485A6205F05BFB064846
S2140067A03BF00DFABDF82000E7E700BF08C1040083
S2140067B00040005ABCC30400B8C3040080841E0016
S2140067C040420F000060005A0122034B1870034B32
S2140067D01980034B1A707047976C0020447C002089
S2140067E0966C0020F8B5454B1B780BB90020F8BD19
S2140067F0434B1B78012B03D1BDE8F8402FF033BF85
S214006800404B1C884FF6FF739C42EFD03E483BF04F
S214006810D3F90023260AE4B21A462146304605F08C
S214006820D9FA012E354604F0010335D015D9B51E28
S214006830012DDBD8002B0BBF4FF480754FF0807511
S2140068404FF470614FF070610BBF01274FF4803733
S2140068500F204FF470202D4B11E0002B0BBF4FF490
S21400686080754FF080754FF470614FF070610BBF0C
S21400687001274FF480370F204FF47020244B1A68FE
S21400688002401CD0BA421AD01A680A4032D11A689E
S21400689022EA01022A4316E0002B0BBF4FF4807554
S2140068A04FF080754FF470614FF070610BBF012799
S2140068B04FF480370F204FF47020164BDFE71A682E
S2140068C022EA00023A431A602FF0CDFE0546002861
S2140068D08CD0083644EA06102A460321C0B2FFF7D9
S2140068E0F1FE40F6FF73684300F2FF70B0FBF3F072
S2140068F080B27CE795427FF479AFC8E7966C0020BB
S214006900976C0020447C0020BCC3040028C30350BE
S21400691020C3035024C3035010B5044C237823B976
S21400692003483BF049F90123237010BD996C002001
S214006930BCC304002DE9F0431F4C85B007468846CB
S2140069409146FFF7E9FF23781BB902F0F3FE012317
S21400695023707BBAADF80C3030220023174E02FBB2
S21400696003F4315DA51901BB012333554FF0FF3306
S21400697004F1100012493044AB606F80C5F8048003
S214006980C5F80C900AF08EFA04F10801042231448E
S2140069900C4B009503A802F0A3FFA96802460A481C
S2140069A015F064F805B0BDE8F0830133102BD6D19E
S2140069B0064815F05BF8F5E7986C0020B83500201F
S2140069C08B6603009D660300D5260400032704009B
S2140069D080B10278A2F14103032B0BD840783038FF
S2140069E0C0B2082806D8054B134413F8413C40EAC9
S2140069F0032070474FF6FF70704700BF28C10400A1
S214006A0008B50B4642B101460448006804F0ACF8ED
S214006A10BDE808402FF0A6BE022008BD147700206F
S214006A2008B50B4642B101460448006804F024FA53
S214006A30BDE808402FF096BE022008BD147700205F
S214006A40F0B50026124F8DB0FF2300930A2233467E
S214006A50386802A931F013F8C0B102AB1D4603EB4B
S214006A60800404E055F8043BB34228BF5E1CAC42E9
S214006A703868E9D9296804F085FB0028F2D02D286B
S214006A80F0D00DB0BDE8F0402FF06CBE0DB0F0BDFC
S214006A901477002028B1034B0360034B43600023A8
S214006AA08360704719000003BC7600202DE9F04F84
S214006AB000230746DFF828818B4698F800204249D5
S214006AC085B022FA03F0C00708D531F81300B842A3
S214006AD004D15DB2284605B0BDE8F08F0133032B24
S214006AE0EFD112F0010667D1384C75B294F80090D9
S214006AF0B9F1000F21D10F2249460DF1010016F021
S214006B00C7F83F238DF80090DFF8C89069464846DE
S214006B10ADF8023031F068FA1E2004F0CBFE4FF4D8
S214006B207A43B0FBF3F02A4B1860D9F830300123D3
S214006B30C9F81C00C9F80C3023700D2200216846E5
S214006B4016F0A6F8BBF1000B18BF4FF0010B03239D
S214006B50204C6A46314620468DF806308DF80AB03D
S214006B6031F07FFA236B00234FF0010A04EB461046
S214006B7083664FEA1729184BF9B249EA014032B248
S214006B8043F82200154A0AFA06FAD2F84C35484667
S214006B9043EA0A03C2F84C355B46042205F01AF9AC
S214006BA098F8003043EA0A0388F80030064B23F8CA
S214006BB016708FE7022697E7910795D55307F9D504
S214006BC04FF0FF3586E700BF9A6500209B6C0020DB
S214006BD0B838002000C0045050C5035000C0035011
S214006BE09A6C0020022810D8084B1B78C340DB079D
S214006BF00BD5074B1B6803FB0111FF23B1FBF3F119
S214006C00044B1A6B03EB4013196770479A6C00200D
S214006C10B838002000C00450FF2307B50021044AFE
S214006C20009308300AF0C2F803B05DF804FB00BF1A
S214006C30876703007FB50D4E0D4C33686A4600210A
S214006C401046A5692D0606D411F0FF0101D003B148
S214006C50984704B070BD656A0131102902F8015BDF
S214006C60EFD1002BEAD09847E7E700BFBC380020FA
S214006C70008005502DE9F0478A46914688B0002AE4
S214006C804DD04FF6FF72904249D0914247D0254AE8
S214006C905FFA80F8070A38460E0A13604146012359
S214006CA004225FFA8AFA204D05F094F801AC3046CB
S214006CB001230222514605F08DF80FCD0FC495E84A
S214006CC0070084E80700002401A91848CDF80C90B6
S214006CD08DF8044005F04AFC1022154B47EA084799
S214006CE046EA0A46C3F8C475C3F8BC65C3F8AC25C3
S214006CF00423104A0B209364A2F58052D36406F056
S214006D005DFF0B2006F03EFF0848052131F0E6F94E
S214006D1001222046084B1A7008B0BDE8F0874FF0F5
S214006D20FF30F9E7BC3800202CC104000080055075
S214006D3000C0035000A005509C6C002070B5074BA7
S214006D4004461B784BB141B1054E451814F8011B9B
S214006D50304631F0D2F9AC42F8D170BD9C6C0020C0
S214006D600080055010B5074B1B784BB13AF086FEF5
S214006D700446FFF75FFF2046BDE810403AF079BEB4
S214006D8010BD00BF9C6C00200B46044902460868F4
S214006D900349097808B12FF00BBD7047CC380020A6
S214006DA09E6C0020F7B50C4618B12F2119483AF012
S214006DB05AFF246823685E795F8830463946FFF7B5
S214006DC0E3FFF0B18568E5B1A089227D394690429F
S214006DD091BF0020801AA36880B294BF03469B1818
S214006DE0E27C00903046A8470138032803D8DFE845
S214006DF000F0080F0B0D0024204634F045FA20461C
S214006E0000E0812003B0F0BD8024F5E79324F3E78B
S214006E108724F1E72B27040007B50B4600920549A7
S214006E2002460548097800682FF0E4FC03B05DF8D8
S214006E3004FB00BF9E6C0020CC38002007B50B4634
S214006E400092064902460648097800682FF0D2FCF0
S214006E50003818BF012003B05DF804FB9E6C0020CC
S214006E60CC38002008B5034B1B6803B198470020B8
S214006E7008BD00BFC83800202DE9F74F04460D4670
S214006E800026454B454F1860454B197033010021CD
S214006E90F85C013610F0E0FD0C2EF7D10C2D28BF63
S214006EA00C254FF0000901953C4EDFF800A13D4D42
S214006EB0DFF8FC80019B4B4502DC03B0BDE8F08F99
S214006EC023784FF0000B337063887380A388B380F9
S214006ED0A379C6F80880B371E379C8F8005088F83B
S214006EE004304FF00003A768A8F80630E3795B4546
S214006EF00ADC012116F8100B10F0AEFD08F10808A8
S214006F0009F101090C34D5E74FF0000338886B818E
S214006F102880FB784FF0000C2B81BA78C5F804A0C7
S214006F20002A00920CBF802240222A7379680AF158
S214006F300C02634513DC03EB43030AEB830ABB68CE
S214006F4043B1009A4FF6FF71B2FA82F2164B52091D
S214006F5034F02AF914350BF1010B0C37C6E7B1F8FB
S214006F6000E00CF1010C22F80CEC91F802E00C3277
S214006F7002F816EC91F804E00C3102F815EC11F862
S214006F8009ECBEF1010F14BF4FF0100E4FF0110EBA
S214006F9002F814ECCDE700BFCC3800201C500020CF
S214006FA09E6C0020D03E0020A56D0000D03800204A
S214006FB050410020014B1860704700BFC4380020C5
S214006FC070B5128805460E46FFF726FF044670B1D8
S214006FD002790499806815F0ADFE064B1B680BB964
S214006FE0002070BD3146284622889847F8E786205C
S214006FF0F7E700BFC438002008B50FF0C9FD022827
S21400700006D0012806D0044B18784000C0B208BD50
S2140070100120FCE70220FAE79D6C0020054B10B526
S2140070201C682CB1FFF7E8FF2346BDE81040184760
S21400703010BD00BFC0380020014B1860704700BF6D
S214007040C0380020034B1A781AB901221A700BF0C8
S214007050A5BD70479D6C00200022024B1A70FFF7FA
S214007060DDBF00BF9D6C002037B50446002832D037
S2140070700FF08EFD022830D1608934F082FCE07972
S214007080237A003818BF0120012B637A08BF40F02E
S21400709008000BB140F0100063890BB140F004000B
S2140070A0257CA188A2790DB1E36873B90C4B11F069
S2140070B0AFF82178084611F027F933F06EFF002864
S2140070C014BF0320002003B030BDCDE90035054BCA
S2140070D011F09EF8EDE70220F5E70120F3E700BF88
S2140070E053770400024604002DE9F04186B00546B9
S2140070F00E4690461F469DF834400FF049FD022884
S21400710024D1082C16D8ADF80C808DF80E702CB152
S21400711022460C990DF10F0015F04AFF03AB03341D
S21400712000930A2231460820094B019411F070F8AA
S21400713018B1032006B0BDE8F0812946284611F0B4
S214007140E3F833F02AFF0028F4D0F2E70120F1E755
S2140071500246040008B50DF07FFE014630B1044833
S21400716014F084FCBDE808400EF01ABA08BD00BF53
S214007170B9270400024B187C00B11868704700BF9E
S214007180A876002050B100290CBF30213121002AFA
S2140071900CBF30223122034814F068BC2D210A4669
S2140071A0F9E700BFE6270400034B044A5B7C012195
S2140071B003201370FFF734BCA87600209F6C0020D5
S2140071C037B50446FFF7F0FFB4F57F4F27D100250B
S2140071D0204B1A8813449D70FEF77AF92846FFF76D
S2140071E059FA1D4D2A68C2B1FFF7C4FFA8B14FF681
S2140071F005739C4224D192F841102FF0D2F82B68E8
S2140072000421B3F8422093F841303220ADF806202E
S21400721001AA8DF80430FFF703FC03B030BD4FF62B
S21400722001739C4203D10D482FF0C7F8D9E74FF6FB
S21400723002739C42D5D10A4B1878FFF7CFF9D0E7F6
S2140072404FF606739C42E8D1B2F842102FF0B3F81E
S214007250D5E700BF18650020B0410020A8760020C2
S214007260917C002010B5074C012122460320FFF731
S214007270C7FB28B92378044A003B18BF0123537480
S21400728010BD00BF9F6C0020A87600207A4BF7B593
S2140072901A884FF6FF739A4218BF03234FF008026E
S2140072A00D467649044618BF0B70754B36201A708B
S2140072B030229A705A71DA713922187138201A728F
S2140072C04FF4001298716F486264E0646E480122C1
S2140072D020656E483227A0656D48A618E0656D48A3
S2140072E0E66760666C486D4EA0666D485F70206706
S2140072F06C48DF706067202084F8780084F884008B
S21400730004F12100C4F888006748C4F8806084F857
S214007310482084F8542084F8602084F86C20C4F850
S2140073208C0084F89020C4F89410C4F8B8305F4BF2
S2140073305F49C4F8BC300223C4F898105D4984F84D
S214007340C030C4F8A41010215B4B84F8A810C4F811
S214007350C4305A4B5A49C4F8C8308223C4F8AC101B
S214007360584984F8CC30C4F8B0100921564B574E13
S214007370C4F8D030564B84F89C20C4F8D430554B13
S214007380C4F8A040C4F8DC30337C84F8B41084F829
S214007390D820002B6AD0504B84F8E420C4F8E030A4
S2140073A006F11103C4F8E830FFF7E4FE90F8343035
S2140073B0002B5DD090F83630042184F84130FFF77A
S2140073C0D9FE038F01AA3846A4F84230FFF718FB0F
S2140073D038B99DF8043084F84130BDF80630A4F87A
S2140073E04230FFF7C7FE94F841102EF0DAFFFFF7A1
S2140073F0C1FEB4F842102EF0DEFF384B10211C60A0
S214007400374BC4F8EC30012384F8F03004F1410324
S214007410C4F8F430334BC4F8F830022384F8FC3058
S21400742004F14203C4F800314FF0000CEA79A86872
S21400743002EB42039F0000EB830320F807C0D970DD
S2140074400121443499705C605318EB71FFF7B4F86F
S214007450FFF708FFFFF7D0FD01280BD1337C4BB1B7
S2140074601A4803B0BDE8F0402EF0A7BF0D21DBE7B9
S2140074700E21D9E703B0F0BD3C7C0020A27C0020A2
S214007480A06C00204DC10400010020004CC1040087
S214007490020020004BC1040003002000050042004B
S2140074A04AC104000400420007003000FDFF21002E
S2140074B0120010010040420048C1040000FF4401D1
S2140074C0927C00200600420018650020A876002066
S2140074D002FF2001917C002001FF1001B041002036
S2140074E005FF200106FF210113B504460D482EF0C6
S2140074F013FD6422C0F30F43637083B2B3FBF2F351
S214007500A0782370202201212FF08FF9A078212265
S21400751001212FF08AF90449201D02B0BDE8104071
S2140075202FF034B93C7C0020E09304000B7870B553
S21400753083704CF61E0303804FF02013C3620123B2
S21400754080F8303080F83C30C3180364124B044691
S21400755043640223114A80F84830114B8263C364A7
S2140075604063CA798D6802EB420305EB830004F1A1
S2140075702C0646600B4E45F8236000238360531CA0
S214007580CB71094B201DC4E90134FFF745FB2046AB
S214007590BDE87040FFF7A8BFFDFF210021002000D6
S2140075A04EC1040001000103E9740000437B044A55
S2140075B00121137000781130C0B2FFF731BA00BF56
S2140075C0AA6C002038B504460078054D11302A46CE
S2140075D00121C0B2FFF714FA08B92B78637338BDDF
S2140075E0AA6C0020024B53F820002FF0E5B900BF2C
S2140075F0B4410020012908B506D0022907D049B9B0
S2140076002FF0D1F9002008BD2FF0D0F9FAE72FF0BF
S214007610D0F9F7E7024814F029FA0120F3E700BF93
S214007620FD27040010B4054C114654F820001A46F5
S214007630BDF804305DF8044BFFF7DCBFB441002012
S214007640002310B5044683810364A0F84430483014
S214007650FFF7E2FA014BC4E9123410BD9F6903003C
S21400766038B504460B781A4A43700D4642F8230094
S214007670FFF7E6FF2046FFF7A5FF4FF44013236110
S2140076800123144A2375A261134A84F82030E2616C
S214007690124A84F82C306262114A84F83830A262AA
S2140076A004F10C0222630F4A04F10D036263E363E4
S2140076B0EA79A86802EB420300EB830110344C60C1
S2140076C0094C40F82340094B8B60531CEB7138BDC6
S2140076D0B4410020A96C002008002000A37C0020F4
S2140076E000FF300001FF10010201010425760000B2
S2140076F010B47024427B0D48013A012904FB0200B5
S21400770006D0022908D059B95DF8044B2FF04BB9C2
S2140077105DF8044B2FF04AB95DF8044B2FF049B9D9
S21400772003485DF8044B14F0A1B900BF4C250020B7
S21400773019280400B0F85C302DE9F0418B4204466D
S2140077400E4638D0437B077C8BB31C4A12789A428D
S2140077502DD370251A4A013B05FB032390F80F80B2
S2140077601B7B42462FF036F9B845054601D1FF2867
S2140077701FD13A463146204694F890302FF02AF929
S2140077802F460546552212216078A4F85C602FF03B
S2140077904CF8FF2F03D039462046FFF7A9FFFF2DF0
S2140077A009D029462046BDE8F0412FF053B9FF2501
S2140077B0DFE70746E6E7BDE8F08100BF8F6C0020F4
S2140077C04C25002041688268C978D27849B112B148
S2140077D00321FFF7AFBF837B002B0CBF01210221E3
S2140077E0F7E72AB1837B002B0CBF02210121F0E7CB
S2140077F0014814F03BB900BF2A280400037BD3B12C
S2140078004368DA7812B18268D278A2B91B7933B1AC
S214007810837B002B0CBF04210521FFF78BBF8368F9
S2140078201B792BB1837B002B0CBF05210421F4E7C9
S214007830014814F01BB970475C280400084A437BD3
S21400784005211370837B5370C37B9370037CD370C6
S214007850037B137100780E30C0B2FFF7E1B800BFAB
S214007860AB6C002038B5044600780C4D0E302A4626
S2140078700521C0B2FFF7C4F820B1BDE8384008487B
S21400788014F0F4B82B7863736B78A373AB78E37358
S214007890EB7823742B79237338BD00BFAB6C0020C4
S2140078A098280400024B53F820002FF01DB900BFA3
S2140078B0E4410020F8B504460B78424A43700D4672
S2140078C042F82300404E2FF02DF9FFF7CBFF6268F9
S2140078D0A3683E483E49D6641165D4655065C3E941
S2140078E01410DE64DC654FF0987302266361012392
S2140078F004F10C01E16137491032216204F10D01F7
S214007900A16235492376E16204F10E0161633349D1
S21400791084F82430A16304F10F012164304984F80F
S2140079203030616404F11001E1642E4984F83C3083
S21400793084F84830216584F85460A265E879A9681F
S21400794000EB400201EB820704F1140CC7F804C0F8
S2140079504FF4817C244F41F82270C218D2B202EB59
S214007960420241F822C001EB820700227A601F4AD9
S21400797084F8703022661E4A84F88830A2661D4A53
S2140079801D4BE2661D4AC4F88C3062671C4A831998
S214007990A26704F15C02C4F88020DBB2194A03EB4C
S2140079A04303C4F8842084F8646084F87C6001EBA8
S2140079B0830260345460144A033041F82320E8718F
S2140079C0F8BD00BFE4410020C5770000AB6A0300A5
S2140079D0FD770000010020010200100103003001C5
S2140079E0040030010500210101FC01064A002100C7
S2140079F050C104005100100052C1040053C10400DD
S214007A00550021006F0018001200010400B589B06F
S214007A1001A92FF0A1F8084B10210493019B04AA9A
S214007A200593029B2C200693039B0793FEF7F8FF13
S214007A3009B05DF804FB00BF43574C48F0B5484317
S214007A40DDE90576204C214D82EAE271A1EBE27178
S214007A50A042B0FBF5F589B225D9642012FB00F2EE
S214007A606FF0630092FBF5F28242B8BF0246642ACA
S214007A70A8BF642252B205FB05F44943A14221D2B5
S214007A804FF08040641A84420FD3002178B947F63D
S214007A90FF70814228BF014603B11D8007B13980BF
S214007AA006B13270F0BD0022E5E78008EBE701EB97
S214007AB0000CA4454FEA51019CBF0918A4EB0C0426
S214007AC08008E3E70021E7E79F860100A086010023
S214007AD038B50D46044600B3F9B14FF4EE720021F6
S214007AE015F0D6F80F23A3600C4B6560A36103F175
S214007AF06173E3614FF0011304F15C002362FDF74C
S214007B002DFCE36DE367236EC4F88030636EC4F823
S214007B10843094F86C3084F8883038BD01006400F6
S214007B201FB50446B8B14368ABB16A4610212C2095
S214007B30FEF766FF78B9094B009A9A420BD1DDE949
S214007B400223019960682FF00FF8DDE902230199FE
S214007B50034813F08BFF04B010BD00BF43574C48DA
S214007B60C7280400F0B5044685B0002800F0308130
S214007B70002900F02D814FF4D813C0F88C3000F1A6
S214007B800803C0F89430934B0422C0F898300223C0
S214007B9000F10C05C0F8A0508F4D80F89020C0F87A
S214007BA0A45000F10E05C0F8AC508C4D80F89C3007
S214007BB0C0F8B05000F11005C0F8B850884D80F8F5
S214007BC0A830C0F8BC5000F11805C0F8C450854D68
S214007BD080F8B430C0F8C85000F11A05C0F8D0508C
S214007BE0814D80F8C030C0F8D45000F11C05C0F8B4
S214007BF0DC507E4D80F8CC30C0F8E05000F11E0519
S214007C00C0F8E8507A4D80F8D830C0F8EC5000F153
S214007C102005C0F8F450774D80F8E430C0F8F850EE
S214007C2000F12205C0F80051734D80F8F030C0F81E
S214007C30045100F1240580F8FC3080F80821C0F8D3
S214007C400C516E4D80F81421C0F8105100F12C052F
S214007C50C0F824516A4D00F12802C0F8285100F1FE
S214007C602E05C0F83051674DC0F81821C0F83451C1
S214007C7000F13005C0F83C51634D644AC0F84051ED
S214007C8000F13205C0F84851614DC0F81C21C0F81B
S214007C904C512525012280F8505100F13405C0F8DA
S214007CA054515C4D80F82021C0F8585100F17C05F5
S214007CB0C0F86051584D80F82C31C0F8645100F17E
S214007CC07E05C0F86C51554D80F83831C0F87051BB
S214007CD000F18005C0F87851514D80F84431C0F865
S214007CE07C5100F18205C0F884514E4D80F85C311D
S214007CF0C0F8885100F1840580F8683180F8743146
S214007D0080F8803180F88C31C0F89051464D80F86C
S214007D109831C0F8945100F18605C0F89C51434D47
S214007D2080F8B031C0F8A05100F18805C0F8A8511D
S214007D303F4D80F8BC3100F11403C0F8AC51C0F8D8
S214007D40C03100F112053B4BC0F8B4513A4DC0F8B3
S214007D50C43100F1160380F8A421C0F8B85180F8A9
S214007D60C821C0F8CC31CA798D6802EB420305EB16
S214007D70830600F18C077760304E45F823606E4628
S214007D80531CCB710B7804F15C0503702C4B186008
S214007D90FFF7C6FE20462EF01CFF32461021332089
S214007DA0A76EFEF72DFE18B996E80F0085E80F00BF
S214007DB02846A7662EF035FFE36DE367236EC4F80A
S214007DC08030636EC4F8843094F86C3084F8883061
S214007DD005B0F0BD05052100080521000B052900AA
S214007DE000062100010621000206210003062100EC
S214007DF0040621000506210000FF230001FF2300E2
S214007E0010FF210111FF210112FF210102FF2000B6
S214007E1020FF420130FF210131FF210132FF210105
S214007E2033FF210134FF210135FF210136FF3000E9
S214007E300F052100100528000E052900040B011B64
S214007E40144200202DE9FF414C4B1C688CB123786E
S214007E5083420ED1606860B14FF61273994241D0EA
S214007E600AD84FF6107399422CD04FF611739942E8
S214007E7031D004B0BDE8F0814FF62073994238D077
S214007E80D03189B20529F4D8E36F04F15C00E365CC
S214007E90D4F880302366D4F8843063662EF0C1FEB2
S214007EA0024610213320FEF7BBFDE36DE367236E29
S214007EB0C4F88030636EC4F8843094F86C3084F86C
S214007EC08830D6E70021E28D2EF03CFE0023E385C5
S214007ED00028CED121E00121228E2EF033FE002391
S214007EE02386F5E70221628E2EF02CFE00236386A1
S214007EF0EEE7002394F834504FF00A0C232D28BFE9
S214007F002325CDE9013304F1350703939D420DD8AF
S214007F10DDE9022301992EF027FE6068FFF776FD63
S214007F20204604B0BDE8F0412EF053BEFA5C562A57
S214007F3014D0572A14D0412A0DD101210022013332
S214007F40DEB2F3B29D420DD804AE013B06EB8101D2
S214007F50DBB241F80C2C0133DBB2D7E70021EDE7AA
S214007F600221EBE717F806E00136AEF13008B8F16B
S214007F70090FE9D80CFB02E2303AE2E7144200208F
S214007F8070B50E461346054614460A46014628486E
S214007F9013F06CFDB6F5817F37D00AD8082E14D8BA
S214007FA0082E12D8DFE806F01C1111111111272136
S214007FB02B0040F604339E4233D007D8B6F5407FF8
S214007FC01DD040F202739E4225D070BD4FF601438D
S214007FD09E42FAD121462846BDE87040FFF762BCB3
S214007FE02046BDE87040FFF7EBB821462846BDE8BE
S214007FF0704000F049BE2146284600F003FC2146AA
S2140080002846BDE8704000F047B921462846BDE83E
S2140080107040FFF7E7BA21462846BDE8704000F0FA
S21400802051BB21462846BDE87040FFF70BBF00BF96
S214008030F72804000148FEF7BDBF00BF817F00009F
S2140080404FF4C01330B5036001230371074B8C68EF
S2140080508360CA7902EB420304EB83056860044838
S21400806044F82300531CCB7130BD00BF54C104003C
S2140080700400010138B500250446458005482EF069
S2140080808AFBFDF7D9FA2A4620780321BDE8384056
S2140080902EF0CBBB1842002043880BB9FFF7EABF8F
S2140080A0013B9BB24380002BF8D04FF47A71014815
S2140080B02EF06CBB1842002038B5114B04461860F1
S2140080C019B9BDE83840FFF7D5BF41804FF4FA71C3
S2140080D04FF6FF7208460B4DFDF78AFA0A4B284604
S2140080E0C5E90034FEF798FD28464FF47A712EF065
S2140080F04DFB20780022BDE8384003212EF095BBCA
S21400810040420020184200209980000010B5144616
S214008110084A106850B14CB953B1BDF80820012A7E
S21400812006D91988FFF7C8FF204610BD0124FBE7D3
S2140081300324F9E7404200200B7830B503700D4B5E
S2140081401860002343800C4B436002230372C3185D
S214008150C360CA798D6802EB420305EB83040430E2
S2140081606060064845F82300054BA360531CCB719E
S21400817030BD00BF40420020000021010300010185
S2140081800D8100002DE9F84F06460F469346104C29
S21400819004F1300A54F8049BB9F1000F14D1544589
S2140081A0F8D1BDE8F88F09EB85055B463A463146BF
S2140081B06868FDF7A7F808F1010899F802305FFA39
S2140081C088F5AB42EFD8EAE74FF00008F5E700BFC6
S2140081D04442002038B50024044D55F8040B08B17D
S2140081E02EF0B9FD01340C2CF7D138BD44420020E6
S2140081F038B511F0FB050C460CD182B17BB1042CCE
S214008200117803D10B1E18BF012303732EF03CFE1A
S214008210284638BD034813F029FC0125F8E7032556
S214008220F6E700BF2A29040070B58678012E0DD91E
S2140082300A2908D162B1012B0AD91388C3812EF00E
S214008240E2FD002070BD034813F010FC0120F9E7A2
S2140082500320F7E74C29040030B40E4D0C4655F8C1
S214008260200011461A46BDF8083078B1082C07D011
S214008270B4F5407F07D0062C08D130BC2EF00DBEDA
S21400828030BCFFF7B5BF30BCFFF7CEBF012030BC17
S214008290704700BF44420020034B53F8200008B14B
S2140082A02EF0B1BD704700BF44420020F0B5724AC0
S2140082B00B78044642F823004370437B0D4685B096
S2140082C00BB9FE234373E3890BB9FA23E3814FF618
S2140082D0FF73E382012320780A213430237601AA33
S2140082E0C0B2FEF78DFB70B9BDF80630BDF80420AD
S2140082F0A382BDF8083062822382BDF80A30E3828A
S2140083009DF80C3023764FF6FD71E28A531E9BB221
S2140083108B4208D8E281A37C012B02D0022B07D027
S214008320002323730CE0A38A002BF4D0E381F2E74A
S214008330E37C002B14BF01220022227300D063735B
S21400834020462EF008FD4FF480130126E36104F169
S2140083500C036362494B84F82060A36204F11203A5
S21400836084F82C602363E879AA6800EB400302EBEC
S214008370830104F11C074F60414F04F1400E42F8A0
S21400838023704FF400133F4F8F600221236404F1E3
S2140083900D03A3643C4B84F84460E36404F11003CB
S2140083A063658319DBB203EB430302EB830C84F8AB
S2140083B05010CCF804E0DFF8DCE042F823E0431885
S2140083C0DBB2CCF80870EB7194F802C0B44550D913
S2140083D0DFF8C4C084F86810C4F864C004F10E0C5A
S2140083E0C4F86CC0DFF8B4C084F88010C4F870C05D
S2140083F0DFF8ACC084F88C10C4F878C0DFF8A4C0EE
S21400840084F89810C4F87CC0DFF89CC084F8A410E8
S214008410C4F884C0DFF894C004F11601C4F888C01C
S214008420DFF88CC0C4F8A810C4F890C0DFF884C089
S2140084301649C4F894C0DFF880C0C4F8AC10C4F87D
S2140084409CC0DFF878C004F1180103EB4303C4F8BE
S214008450B41084F87460C4F8A0C084F8B06002EB6E
S214008460830164344C600A4C033042F823408F602A
S214008470E87105B0F0BD00BF444200200340300163
S214008480060001025982000000FF21010F001801BA
S2140084900003010708000102070021000800300061
S2140084A0A47C00200B4021004A7C00200C402100C8
S2140084B0487C00200A401900467C0020104021011C
S2140084C013B5044680B100786A4627300821C0B24A
S2140084D0FEF796FA50B9DDE900230948C4E90223FD
S2140084E0C4E9242313F0C2FA02B010BD0022002310
S2140084F00448C4E90223C4E9242313F0B7FAF3E7D7
S2140085006E2904009929040070B50D46044600281B
S21400851058D0002956D00B7804F1200603702A4B59
S2140085201860FFF7CDFF4FF414132362082304F1FD
S21400853010026263254A84F82430A26304F1110213
S2140085402264234AE31862640422A362214B84F85F
S2140085504820E362012384F8542004F11802A2653F
S2140085601D4A04F11401E26504F11C0262661B4A0E
S214008570E164A26604F11D0222671949194A84F8CB
S214008580303084F83C3084F8603084F86C3084F8FE
S214008590783004F11E0321656267E367EA79A9680B
S2140085A002EB420301EB830046600F4841F82300CC
S2140085B0531CEB712978D4E902230C48BDE87040BF
S2140085C013F054BA70BD00BF7442002000033000A0
S2140085D00103220000021800030318000603180017
S2140085E00203220000F0200102070108C729040048
S2140085F013B5044678B1D0E902230078CDE900230C
S21400860027306A460821C0B2FEF70AFAD4E90223E8
S214008610024813F02BFA02B010BD00BFF829040080
S21400862030B5044689B040B3436833B31A6822B104
S214008630126812B1586801A990479DF81030E3B14E
S2140086400399D4F880208A4207D8D4E902308A1ADF
S2140086509B1840F10000C4E90230C4F880102EF0E8
S2140086609EF8D4F88430064AC31A9342054604D9C5
S2140086702046FFF7BDFFC4F8845009B030BD00BFE8
S214008680DF93040010B50446C0B100230022002189
S214008690C0E90223C0E924234368C0F880102BB148
S2140086A01A681AB152680AB1586890472046FFF710
S2140086B09FFFBDE81040024813F0D8B910BD00BFB8
S2140086C0202A0400B1F5704F034607D1044A10680B
S2140086D020B102789A4201D1FFF7D4BF704700BF9D
S2140086E07442002073B5002401260A4D55F8042B69
S2140086F052B1D36C43B10533507806210093002263
S21400870010230196FEF7F0FC01340C2CEED102B0DB
S21400871070BD00BF7842002038B50024044D55F8DF
S214008720040B08B12EF0DEFB01340C2CF7D138BD5B
S21400873078420020042908B50AD172B16BB11378CB
S2140087401BB92EF0FAFB002008BD2EF0ECFBFAE772
S214008750034813F08BF90120F6E70320F4E700BF87
S214008760412A040010B4054C114654F820001A465D
S214008770BDF804305DF8044BFFF7DCBF78420020FC
S2140087800229024608B50ED004D839B910462EF094
S214008790D4FB06E04029F9D0412907D110462EF037
S2140087A0C2FB002008BD2EF0D2FBFAE7024813F009
S2140087B05DF90120F6E700BF612A040010B4054CFD
S2140087C0114654F820001A46BDF804305DF8044BF4
S2140087D0FFF7D6BF78420020C26C094B52791A7058
S2140087E082785A70C2789A70026D12B190F854204E
S2140087F0DA70007804210930014AC0B2FEF710B9D9
S214008800B06C0020034B53F8200008B12EF0E2BBFA
S214008810704700BF7842002038B504460078084DFF
S21400882009302A460421C0B2FEF7EAF830B96B7860
S214008830A370AB78E370EB7884F8543038BD00BF93
S214008840B06C002038B504460078114D09302A4631
S2140088500421C0B2FEF7D4F8C8B9A3782A78022B50
S2140088600CD004D863B920462EF067FB01E0FF2B3E
S2140088700AD02046BDE838402EF034BB002AF2D19C
S21400888020462EF050FBF4E7002AF9D1EBE738BD7E
S214008890B06C0020F8B504460B783D4A0D4642F809
S2140088A023004370FFF7B8FFE36C3A4A5C631A6331
S2140088B02046FFF7C7FF20462EF014FB4FF4801328
S2140088C001266360E36C26720533E360324B26753F
S2140088D02361A31CA361236D002B54D02F4A84F878
S2140088E02060E261E21C62622D4A84F82C60A2627B
S2140088F004F15402226393F83420002A45D093F8FA
S2140089003620204684F855201B8FA4F856302EF0CB
S21400891028FB94F85510206D2DF043FDB4F8561042
S214008920206D2DF048FD1F4B84F83860636304F11A
S2140089305503E3631C4B06262364022384F8443065
S21400894004F15603A3640627EA79A96802EB4203FA
S21400895021F8237001EB830001238370134B04344A
S2140089608360531C4460DBB2114C03EB4303C670B8
S21400897041F8234001EB8300002343600D4B023295
S2140089808360EA71F8BD0226DDE70426DBE700BF58
S21400899078420020B16F03000340300101FF300130
S2140089A002FF100103FF200104FF2101BD87000024
S2140089B008000100658700000B4B1B7883420AD332
S2140089C058220A4B013802FB0033DB6C587900381A
S2140089D018BF01207047B822C01A054B013802FBA9
S2140089E00033187BF3E700BF916C00205828002066
S2140089F0B42100200C4B1B78834209D358220B4B22
S214008A00013802FB003009B12EF08DBA2EF095BA6F
S214008A10B822C01A431E064802FB030009B12EF016
S214008A2024BA2EF026BA00BF916C002058280020E9
S214008A30B4210020034B1878034B1B781844C0B2AF
S214008A40704700BF916C00208E6C002010B54279F4
S214008A50044610462EF0EBFAB0B9114B1B789A423A
S214008A6008D8BDE8104058200E4B013A00FB0230F3
S214008A702EF06DBAB820BDE81040D21A0A4B013A63
S214008A8000FB02302EF0F9B920462EF0DBFA80F01B
S214008A900101C9B22046BDE810402EF0EEBA00BF74
S214008AA0916C002058280020B421002070B50025C5
S214008AB00A4C0B4E3378AB4200DC70BDD4F8A410E1
S214008AC041B123791BB120462EF0F0FA10B90846C2
S214008AD02DF038FC0135AC34ECE700BF682A0020E6
S214008AE0926C002010B586B00446FEF785FA012881
S214008AF012D16378094A8DF804304FF48273ADF8CA
S214008B0006304FF48073CDE90223002301A80493B6
S214008B108DF81430FEF7A8FA06B010BD080007015D
S214008B2010B586B00446FEF767FA012820D16278B1
S214008B30104B8DF804204FF4827294F8A01094F82D
S214008B40A10059701870ADF8062004934FF4807297
S214008B500223094901A88DF81430CDE90212FEF768
S214008B6083FA94F8A130013B18BF012384F8A130A2
S214008B7006B010BDB46C00200800050110B583785F
S214008B80044686B0BBB30379022B05D12EF08EFACD
S214008B9010B12046FFF75AFFA379022B02D12046D8
S214008BA02EF0DCFA94F8A830BBB1FEF725FA0128BF
S214008BB013D194F8A830114A8DF804304FF482731C
S214008BC0ADF806304FF48073CDE90223002301A8E8
S214008BD004938DF81430FEF747FA2046FFF7A0FFFF
S214008BE00223552212216078A4F86C3006B0BDE846
S214008BF010402DF01ABE06B010BD00BF06000201E0
S214008C004388094A082113808388538083681B8A17
S214008C10938090F8A03093718379D37100780430F4
S214008C20C0B2FDF7FDBE00BFA065002038B50D46FA
S214008C3004460178134812F019FF4FF602739D425E
S214008C4011D1FFF7F7FE28B960712046BDE838401D
S214008C50FFF7D6BF6379FF2BF7D00BB19842F4D25B
S214008C6001236371F1E7B5F57F4FEED120462EF074
S214008C703DFBA378022B0CBF01220022A3689A704A
S214008C80E3E700BF7D2A0400024B53F82000FFF7FD
S214008C90CDBF00BFA842002038B504460078154D69
S214008CA004302A460821C0B2FDF7AAFE20B1BDE86E
S214008CB03840114812F0DABE2B8863806B88E9785A
S214008CC0A380AA88A3681A82AB7984F8A030EB79CF
S214008CD0A371FFF7AFFE08B9607138BDFF29FCD05D
S214008CE009B18142F9D9054812F0C0FE2378013354
S214008CF06371F2E7A0650020972A0400C02A0400EA
S214008D00F8B504460B78474A0D4642F823004370F0
S214008D10FFF7C2FFA268444BD465D364434B0226D8
S214008D205365434BA11C13654FF44013E3600123C6
S214008D306161E1623F49103221632265211D3E4A8E
S214008D40A1633E483E49626504F1A002A061E1636A
S214008D50E265E01C611D3B4A206261643A483B497B
S214008D602266A21D2374237784F8283084F83430D2
S214008D7084F84030A16484F84C6084F8583084F855
S214008D8064306062A266E879AA6800EB400102EBF4
S214008D90810704F10C0CC7F804C04FF0060C2C4FEA
S214008DA042F82170C118C9B201EB410142F821C056
S214008DB002EB810700217960264F84F88030276710
S214008DC0254F84F89830A767244F254BE767254F33
S214008DD084F8746084F88C60C4F89C3004F16C06E7
S214008DE0831CC4F88470C4F890601F4F1F4EDBB21B
S214008DF003EB4303C4F89460C4F8887002EB830660
S214008E007034746008261A4C42F82340C31CDBB248
S214008E1003EB430302EB8304043042F823606160F3
S214008E20E871F8BDA8420020D17103008D720300DE
S214008E307D8B000001FF300104FF2001100030018F
S214008E4002FF200105FF300100FF300103FF210172
S214008E50070001084A00210056C104005100100016
S214008E6058C1040059C10400550021006F001800C5
S214008E701200010400239B6AB3F5804F03D21968E1
S214008E80064A914203D00023037083607047012294
S214008E9002709A689B694260F7E700BF07B0CD5E34
S214008EA0024B034A1A602FF0DABE00BF0000002013
S214008EB002020FF073B53F4B04461A781AB102222D
S214008EC01A7002B070BDCDE900220028F9D0012644
S214008ED01E7038F0D3FD384D384B186017F0A8FBDD
S214008EE02B785BB902F0F2F940B935480823354AC9
S214008EF03549006801F038FE00B92E70334B5A68C9
S214008F00E260334A9A601A6E22605A6E6260D3F844
S214008F107021A2601B6E5C042CD52E4AD368D8073D
S214008F20FCD42D4B1A68531C29D04FF48013934061
S214008F302A4A13660423294C4FF0804223664FF4D6
S214008F4080632366102323664FF400536846236627
S214008F5001A9226663662EF0E1F9009B2366019B59
S214008F6063662B78002BACD0164B1A6822665B68BB
S214008F706366A6E71A4AD368D907FCD4D1E7194B2B
S214008F801B78002BD6D1184B5A68144B12B94FF4E5
S214008F9080121A66154A526812B94FF400121A6601
S214008FA0134B5B68002BC5D14FF480020B4B1A663F
S214008FB0C0E700BFB76C0020B86C0020E842002075
S214008FC014770020EC420020007108000080004466
S214008FD055CEAC0000000440E0760020009000442F
S214008FE000000450B66C00200080055000C00550FC
S214008FF00000065038B5224D04462B78012B02D0CF
S21400900001232B7038BD0028FCD02EF0ACF90130BF
S21400901009D02EF0A8F940F20113984203D0194A5D
S214009020D368DB07FCD42268174B1A6662685A6658
S214009030A268C3F87021E268D40744BF00229A6091
S214009040124B1A68013213D1114A127882B91149AB
S2140090504968C80748BF1A600F4A5268D10744BF1C
S21400906001221A600D4A5268D20744BF02221A60D3
S21400907017F0E6FA0A4B186838F0FBFC0023C0E746
S214009080B76C00200000044000800044E07600201A
S214009090B66C00200080055000C005500000065049
S2140090A0E842002070B50024A36AB3F5804F23D2AF
S2140090B01A68134B9A421FD1124E337813F0FD05EF
S2140090C018D14FF480341048FFF7F4FE032004F064
S2140090D075FD0E4B0320DC6004F054FD0C4B1C6148
S2140090E0AB6ADB69984704460748FFF783FF0CB96D
S2140090F001233370204670BD4FF48174FAE700BF39
S21400910007B0CD5EB66C0020D842002000A0004418
S2140091100090004413B5204B1B7803B9FEE70023EC
S2140091201E4CCDE900336A4608231D49206801F02D
S2140091301BFDF8B91B4AD2F84031D2F840211F2B4C
S2140091404FF0010311D9203A9340019A1A43019235
S21400915008236A461249206801F08EFE124B134A15
S2140091601A602FF07CFD02B010BD9340009A1A439F
S2140091700092EDE72D28F1D10A4AD2F84031D2F814
S21400918040211F2B4FF0010385BF203A93409340A8
S214009190019398BF0093DBE7B76C0020147700209C
S2140091A00071080000800044000000200B020FF051
S2140091B038B50025AB6A0446B3F5804F10D21B6B5A
S2140091C0B3F5804F0CD20748FFF774FEAB6A204613
S2140091D01B6B5B689847BDE838400248FFF70ABF3C
S2140091E038BD00BFF442002013B50024A36A0190E6
S2140091F0B3F5804F13D21B6BB3F5804F0FD20948DF
S214009200FFF758FEA36A01211B6B01A89B699847CC
S21400921004460448FFF7EEFE204602B010BD4FF4A9
S2140092208174F9E7F442002070B50026B36A04465C
S214009230B3F5804F0D4612D21B6BB3F5804F0ED29E
S2140092400848FFF737FEB36A20461B6B29469B6922
S214009250984704460348FFF7CDFE204670BD4FF4FE
S2140092608174FAE7F442002070B50026B36A04461B
S214009270B3F5804F0D4612D21B6BB3F5804F0ED25E
S2140092800848FFF717FEB36A20461B6B2946DB69C2
S214009290984704460348FFF7ADFE204670BD4FF4DE
S2140092A08174FAE7F4420020F8B50027BB6A04464A
S2140092B0B3F5804F0D46164611D21B6B7BB109489D
S2140092C0FFF7F8FDBB6A20461B6B324629465B6AF1
S2140092D0984704460348FFF78DFE2046F8BD4FF436
S2140092E00174FAE7F442002070B50026B36A04461B
S2140092F0B3F5804F0D4612D21B6BB3F5804F0ED2DE
S2140093000848FFF7D7FDB36A20461B6B29469B6AC1
S214009310984704460348FFF76DFE204670BD4FF49D
S2140093200174FAE7F4420020F0B50027BB6A044651
S214009330B3F5804F0D461646ADF5337D20D21B6B38
S214009340B3F5804F1CD21048FFF7B4FDBB6A204629
S2140093501B6B40F2C1225B6A01A99847044630B1F4
S2140093600948FFF747FE20460DF5337DF0BD836ABA
S21400937032461B6B2946DB6A01A898470446EFE78E
S2140093804FF40174EFE700BFF442002010B500244C
S214009390A36AB3F5804F10D21B6BB3F5804F0CD287
S2140093A00748FFF787FDA36A1B6B1B6B98470446AD
S2140093B00348FFF71FFE204610BD0124FBE700BF51
S2140093C0F4420020F0B58FB0044601A80E461546BC
S2140093D0FFF7EEFE9DF80C30012B12D1B5F5402FAD
S2140093E027D8B4F5402F24D86319B3F5402F20D8DA
S2140093F021462A46304613F0DBFD002420460FB0F7
S214009400F0BD0027BB6AB3F5804F15D21B6BB3F5D2
S214009410804F11D20A48FFF74DFDBB6A2A461B6BE8
S214009420314620465B6B984704460548FFF7E2FD49
S214009430E4E740F20244E1E740F20114DEE700BF51
S214009440F4420020F0B58FB0044601A80E4615463B
S214009450FFF7AEFE9DF80C30012B1FD1B5F5402F5F
S21400946006D8B4F5402F03D86319B3F5402F13D9A7
S21400947040F2024420460FB0F0BDE258013225D13A
S21400948004339D42F9D82A46314620462DF09BFFEC
S2140094900028EDD00024EDE70023F2E70027BB6AA2
S2140094A0B3F5804F15D21B6BB3F5804F11D20A4827
S2140094B0FFF700FDBB6A2A461B6B314620469B6BB6
S2140094C0984704460448FFF795FDD3E740F2034467
S2140094D0D0E740F20114CDE7F442002070B58EB01C
S2140094E0044601A80D46FFF763FE9DF80C30012BDD
S2140094F022D144EA0503C3F30C03002B33D1B5F5A0
S214009500402F04D940F2024420460EB070BDB4F598
S214009510402FF7D82544B5F5402FF3D8204604F55C
S21400952000542DF049FFAC4202D00028F6D1E9E7FE
S2140095300028E7D00024E7E70026B36AB3F5804F9B
S21400954014D21B6BB3F5804F10D20A48FFF7B2FC5B
S214009550B36A29461B6B2046DB6B984704460548D2
S214009560FFF748FDD0E740F20444CDE740F201148F
S214009570CAE700BFF4420020BFF34F8F0549064BF1
S214009580CA6802F4E0621343CB60BFF34F8F00BF9C
S214009590FDE700BF00ED00E00400FA0570B5D0B1AD
S2140095A0C9B10E4E431E013913F8014F2046325DF5
S2140095B002F00302012A11F8012F08BF04F120006F
S2140095C0B55C05F00305012D08BF2032801A01D1D5
S2140095D0002CE9D170BD0120FCE700BFB9E804000B
S2140095E00348044A0449121A92102DF038BF00BFEF
S2140095F034410000D0420000FC73002008B5154B33
S21400960083F30A8800F030F8FFF7EAFF124B13499D
S2140096108B4212D30020124B12498B4218D3FBF711
S21400962061FB186850F82240586840F82240013222
S21400963098688242F5D30C33EAE70022F8E71C6804
S21400964044F8220001325C68A242F8D30833E4E70B
S2140096500022F8E708000020780D0500840D0500BC
S214009660840D0500840D0500124B134A70B59A60F0
S214009670D3F88820114D42F47002C3F888206FF0AA
S214009680010205F50054226641F2FF72626602226C
S214009690C3F8D020BFF34F8FBFF36F8F4FF4403621
S2140096A0032004F08BFA0320E66004F06BFA2E61C8
S2140096B070BD00BF00ED00E00040000000800044E8
S2140096C0014B1860704700BFE8760020054B186015
S2140096D0054B1B6F03F00703032B01D136F080BA4E
S2140096E0704700BFF0760020008000502DE9F04162
S2140096F004464FF001080C250D4E0CB9BDE8F0816C
S21400970094FAA4F0B0FA80F00F2808FA00F2C8BF66
S214009710103824EA0204CABF05FB006205FB00629B
S214009720B4325768002FE8D09168C0B2B847E4E773
S2140097300443002008B50C4838F03EFA192004F01F
S2140097402FFA28B1192004F039FA192004F01AFA71
S2140097501A2004F025FA28B11A2004F02FFA1A204D
S21400976004F010FA002008BDBCC304002DE9F04147
S2140097700E461746054618B30F2923D80378DBB1E3
S214009780013BDBB2022B19D8104AD35C6A78D3406F
S214009790DB0717D50E4BD3F81043ACB938F06EF98B
S2140097A080463A462846314602F068FF404638F082
S2140097B060F92046BDE8F0817F23E7E70023E5E770
S2140097C02224F6E72124F4E70224F2E7ACC10400E1
S2140097D000C0035010B5044610B30378E3B1013B54
S2140097E0DBB2022B1AD8104AD35C6278D340DB0770
S2140097F018D538F043F90122617823788A40302161
S2140098004B4341F2100103F1A04303F570335A5065
S21400981038F02FF9002010BD7F23E6E70023E4E7A9
S2140098202220F8E72120F6E7ACC1040010B5044674
S21400983010B30378E3B1013BDBB2022B1AD8104A0F
S214009840D35C6278D340DB0718D538F017F90122CD
S214009850617823788A4030214B4342F2100103F1AD
S214009860A04303F570335A5038F003F9002010BDBA
S2140098707F23E6E70023E4E72220F8E72120F6E747
S214009880ACC1040038B50D46044618B311B30378CE
S214009890E3B1013BDBB2022B1AD8104AD35C6278E4
S2140098A0D340DB0718D538F0E9F830222378534345
S2140098B003F1A04303F570335B696278D34003F08D
