S01B00006275696C642F72656C656173652F7A69676265652E73333714
S214004000081000202D810000C1C800001B530300CB
S2140040101B530300C9C80000D1C800001B5303008F
S2140040201B5303001B5303001B5303001B530300C7
S214004030D5C80000A49B04001B5303001B530300B9
S2140040401B5303001B5303001B530300457C000057
S2140040501B5303001B5303001B5303001B53030097
S2140040601B5303001B530300D5CD00001B53030056
S2140040701B5303001B5303001B5303001B53030077
S2140040801B5303001B5303001B5303001B53030067
S2140040901B5303001B5303001B5303001B53030057
S2140040A01B530300F5840000D98400001B53030053
S2140040B01B5303001B5303001B530300251D020064
S2140040C00DAF030009AF03008914020023AF0300FD
S2140040D011AF0300E51C020015AF03001901020032
S2140040E0651D02001B5303001B5303001B530300F4
S2140040F01B5303001B5303001B5303001B530300F7
S2140041001B5303001B5303001B5303001B530300E6
S2140041101B5303001B5303001B5303001B530300D6
S2140041201B5303001B5303001B5303001B530300C6
S2080041301B53030015
S214004134F0B5114A114C124E00F00105E3695F0711
S21400414413D40DB9334213D103EA00078F4207D1C3
S2140041540B4A1A40002A14BF6FF001000020F0BD7D
S214004164013AEBD16FF00200F9E74FF0FF30F6E7C3
S2140041746FF00100F3E700BF80969800000003503C
S214004184020001000B4B70B5D96911F480310DD1D2
S21400419401244FF48072084E084DF46020462C64C7
S2140041A41A61FFF7C5FF3464EC6070BD6FF0010060
S2140041B4FBE700BF0000035000100350002003502C
S2140041C438B541F6713301220C4C0021E569E363EE
S2140041D40B4B05F48035DA600223606121202361ED
S2140041E4FFF7A6FF10B92120FFF7A2FF0122054B17
S2140041F4DA600DB10023E36338BD00BF000003504E
S214004204001003500020035070B5134C6061E3693E
S2140042145B071ED40E4656F8043B8D18A361AE42C7
S2140042240BD10423002121202361FFF781FF58B915
S214004234BDE870402120FFF77BBF08210846FFF742
S21400424477FF10B10423236170BD56F8043BA361C5
S214004254E5E74FF0FF30F7E7000003502DE9F84399
S214004264154641F67132164B8946DF69DA63012238
S214004274064603F58053DFF8508007F48037DA608B
S21400428455B9284601220F4BDA601FB10022A3F568
S2140042940053DA63BDE8F88306F5005404EA08041C
S2140042A4A41BAC4228BF2C46494622463046FFF79C
S2140042B4ABFF0028E6D12644A1442D1BE0E700BF4F
S2100042C4000003500020035000E0FFFF45
S2140042D02DE9F04F4FF0FD0BC9B09A460DF11B09C2
S2140042E09DF8503108AFCDF80C90CDF808B0019786
S2140042F0059303890446009383790E4690464188C9
S2140043008288407812F02CFA054650B10090A388B7
S214004310002062883A4912F067FD284649B0BDE899
S214004320F08F99F8000034F00FF938B12846A388CA
S2140043306288344912F058FD8D25EEE75A46394614
S21400434099F8000034F0A8F88346002851D0529B14
S2140043501BB1BDF84C3198424BD8002399F8009019
S2140043600793A9F14102012A5FFA8BF123D8384658
S2140043700139254ADFF898C05FFA81FE734513DBE2
S214004380059B04210792C3B907AF18221F489FED6B
S2140043901A7B02FB060420460A460830394684ED9E
S2140043A0027B17F077FA11E010F8011F0133514035
S2140043B00CFB01F2E2E7059B33B123464A4638463A
S2140043C0009610F0F5F8A8E70829DED9B8F1000F36
S2140043D001D088F80090BAF1000F01D0AAF800B01A
S2140043E0529B002B99D05A46184608A917F052FA45
S2140043F093E7012591E700BF0000000000000000E1
S214004400CD44040002450400C59D1C8118110020FF
S21400441093010001000000002DE9F04F93B0CDE9B4
S2140044200A32DDE91C530E9353EC102BCDE908013C
S214004430104619468DED060B1E9E16F0B5FC80B193
S214004440DDE906014FF0FF32C54B16F0D5FC40B94A
S214004450DDE906014FF0FF326FF4801316F0AEFC74
S21400446070B1DDE908019DED060B0E9B1E96CDE9A9
S2140044701C53DDE90A3213B0BDE8F04F00F088B9EE
S2140044800022DDE90601002316F098FC002800F063
S2140044903381DDE906A303F1004BCBF30A5016F493
S2140044A08063A0F2FF3008BF06250F9316F0AAF926
S2140044B09BA3D3E9002316F00FFA9BA3D3E90023AE
S2140044C016F054F8CBF31304894644F07F51804627
S2140044D00022A44B504641F4401116F045F894A330
S2140044E0D3E9002316F0F8F902460B464046494643
S2140044F016F03CF816F08AFC044616F083F98EA3F4
S214004500D3E900238046894616F0E6F90022964B4A
S21400451016F02CF816F07AFC89A3D3E90023074698
S2140045204946404616F0D8F980463846894616F081
S21400453069F985A3D3E9002316F0CEF902460B46A7
S2140045404046494616F010F802460B46CDE90C23C5
S21400455016F0C2F9DDE90C23804689461046194656
S21400456016F004F80022CDE91001804B404649467B
S21400457016F0DCFA00227E4B15F0F8FF02460B46DA
S2140045804046494616F0D2FA00227A4B15F0EEFF66
S21400459002460B464046494616F0C8FADDE90C23AB
S2140045A08046894600204FF0804115F0DDFF024628
S2140045B00B464046494615F0D9FF02460B46DDE954
S2140045C0100116F0B3FA07F2FF3700226A4B15F017
S2140045D0CDFF00223B0516F07FF952465B4680462B
S2140045E0894616F009FC002840F08980CDE90C8940
S2140045F004F16303C62B8CBF0527042731051BD5A2
S21400460053A3D3E900235046594616F0EBFB002887
S2140046107FD051A3D3E900235046594616F0CEFB6F
S214004620002876D00027A542C6BF2C1B04F1FF3514
S21400463000253C4646F480660E9B9F422CBF4FF0FA
S2140046400008A3EB070816F0020903D0002F18BFD6
S2140046504FF000083CB1DDE90C235046594616F0F1
S21400466065FA82468B46DDE906010022002316F035
S214004670A5FB10B10BF100439B46DDE9080126F4CB
S2140046800063CDE90183DDE90A324BEC10AB0095FF
S21400469000F07EF802465FB3DDE9091316F0200F3E
S2140046A000F10105089E0CBF65204520B047DDE9F6
S2140046B008010523002205930A23002CCDE90232C7
S2140046C007F1FF374FEAD473B8BF64422A46019316
S2140046D004970A9B009435F091FD0246B9F1000F4D
S2140046E006D00B9BC41A0B9B1A190E9BA34245D8E7
S2140046F0104613B0BDE8F08FDDE906ABCDE600222C
S214004700404649461A4B16F011FA013CCDE90C0119
S2140047106EE7002D90D00F9B002B8DD0013D8BE7D0
S214004720FB799F501344D33FB3C8608B288AC63F9B
S21400473061436F63A787D23F71A379094F930A40FD
S2140047401655B5BBB16B0240EF39FAFE422EE63F76
S2140047502D431CEBE2361A3F0000000080842E41F9
S214004760FFFFEF7F0000F83F0000E03F00002C4016
S21400477000002440000018400000F03F2020DDE943
S2140047800913089DA8470134ADE700BF00000000EC
S2140047902DE9F04F5BEC10AB97B0CDE90501DDE9F4
S2140047A02058CDE90723504652465B465946229F7D
S2140047B016F0FAFA70B90323CDE902870193AA4BE3
S2140047C00093DDE90501DDE9072335F049FC17B064
S2140047D0BDE8F08F4FF0FF326FF480135046594615
S2140047E016F0ECFA28B10423CDE9028701939F4B1B
S2140047F0E6E74FF0FF32504659469D4B16F0FCFA5E
S21400480068B19C4A07F00403002B08BF03229A4BAA
S2140048101CBF13460422CDE902870192D0E750461A
S2140048208DA3D3E90023594616F0E6FA38B98CA3CF
S214004830D3E900235046594616F0C0FA68B1DDE9C0
S2140048400723DDE905014BEC10ABCDE92187209568
S21400485017B0BDE8F04FFFF7DFBD0022002350463B
S214004860594616F0ABFA002800F091805B46524697
S2140048700020002115F078FE012382468B4609931E
S21400488017F4806400F08580092D40F285800024AE
S21400489030210EABA5F109020134202C03F8011BD0
S2140048A0A5EB040901D09442F6D15946504616F0BD
S2140048B0ADFA724B054603EBC90393ED007B8DED15
S2140048C00A7B15F09FFF02460B465046594615F0E8
S2140048D04BFEDDE90A2315F0FFFF02460B46CDE945
S2140048E00C2316F0BBFA064615F07CFF02460B4674
S2140048F0DDE90C0115F038FE02460B46CDE90C2327
S21400490000225F4B16F078FA002848D00136304671
S21400491015F068FF02460B46DDE90A0116F058FA64
S21400492008B100260135B9F1000F45D1284615F02B
S21400493069FF02460B465046594615F015FE002202
S2140049404F4B16F03BFA10B9E90700D501350A219E
S2140049500EAB1A19202C0AD095FBF1F001FB10556E
S214004960303502F8015B013405460028F2D107F025
S2140049700302012A55D1B8F1000F52D0099A12B994
S21400498017F00C0F01D008F1FF38302240E00990F4
S21400499076E74FF0060988E7A946002485E7002257
S2140049A0DDE90C01364B16F009FA0028BBD10EB132
S2140049B0F007B8D50136B6E70A210EAB1A19202C37
S2140049C00DD0B6FBF1F001FB1063092E03F13003A6
S2140049D009F1FF3904F1010402F8013B11D8302136
S2140049E0A1440EAA202CB2D04C4504F101030AD1F2
S2140049F004F158020DEB02042E2204F8202C1C466B
S214004A00A5E70646DBE7A1541C46EBE71A5501343A
S214004A10444506D2202CF9D1CDE9028701940EAB8D
S214004A20CEE6202CF8D0099B3BB12D2204F158038A
S214004A306B4403F8202C0134EEE77A0704D504F122
S214004A4058032B226B44F4E73B07E5D504F15803E3
S214004A5020226B44EDE700BF0000000065CDCD418D
S214004A600000000065CDCDC12C6304003063040057
S214004A70FFFFEF7F2363040028630400E0AA04001E
S214004A800000E03F0000000070B58EB02C22002130
S214004A9003A816F06FFD64234FF002320893CDE9A9
S214004AA005230B2301218DF834305B4B8DF8101055
S214004AB01D880D4040F0A980084639F05DFE0A22A8
S214004AC0564B574C1A704FF42873ADF812304FF00F
S214004AD0FF332360534B54491B8820460B82534BAD
S214004AE0534A1B68CD828B61524B0D621B884B82EA
S214004AF0514B1B68CB611DF0ABF920B14FF41B7115
S214004B004E483AF07AFF0521206835F060FD20B166
S214004B1040F27D2149483AF070FF206815F0E0FC2D
S214004B20474B2068196835F015FE0C253AF08CFACC
S214004B30684309903AF088FA68430DEB0501079040
S214004B40206817F0D9FB20B140F295213B483AF097
S214004B5054FF25681FF026FD00220146284635F042
S214004B6071FE20B140F2972134483AF046FF40F2F9
S214004B700353344D344E2B80052396F90000AB705A
S214004B807F2801D11DF05AFA3378EB703AF05CFAC0
S214004B9000EB80008000A8803AF056FA0023C000A0
S214004BA04FF0FF31E880AB604FF0FF3018A3D3E939
S214004BB0002339F033FF2549206835F0FCFD2068D6
S214004BC002A936F018FA20B14FF434711B483AF0B7
S214004BD014FF042220680DEB020135F090FD042836
S214004BE004D040F2D72115483AF007FF01A901206A
S214004BF035F09BF907F0A8FE01201DF0B1FE31F05C
S214004C0084F91DF0D7FE1DF0B1F90EB070BD00BFDF
S214004C100A0020FF42030000625E0020BB65002001
S214004C209456002012C40400746C002018C40400BB
S214004C30A1E7030010C4040014C404005B9A040037
S214004C40C469002088560020A76F002015E80300DE
S214004C500348044B834202D0034B03B11847704706
S214004C60DC6F0020DC6F002000000000064B0749C8
S214004C70C91A891048BF0131491003D0044B0BB143
S214004C8001481847704700BFDC6F0020DC6F00202B
S214004C900000000010B5064C237843B9FFF7D8FF94
S214004CA0044B13B10448AFF300800123237010BDFA
S214004CB00017002000000000B8E7040008B5044B09
S214004CC01BB104490448AFF30080BDE80840CDE7B7
S214004CD00000000004170020B8E70400A3F5803A9F
S214004CE0704700BF154B002B08BF114B9D46FFF7C2
S214004CF0F5FF00218B460F461148124A121A16F08D
S214004D0039FC0C4B002B00D098470B4B002B00D0E7
S214004D1098470020002104000D000B4816F070FF95
S214004D2016F000FC200029002FF0F5FF16F056FFC5
S214004D30000008000000000000000000081000202E
S214004D40081000202066002069BC010007B501217C
S214004D5020200DF1070201F09DF950B1012120201D
S214004D600DF107028DF8071001F0A4F903B05DF805
S214004D7004FB9DF807100129F8D00122084815F019
S214004D80E7FA01210DF1070220208DF8071001F047
S214004D9091F92FF027FF4FF4FA6000F0C5FFE5E722
S214004DA048FE030038B500F045FF01F00FFB012870
S214004DB005D001F00BFB022801D001F02DFB0A4DB7
S214004DC02B783BB901F002FB0128044602D12FF0F4
S214004DD099FF2C7001F0FAFA012803D1BDE838409B
S214004DE000F00EBF38BD00BF4E5F002010B5044671
S214004DF000882FF0C3FEA37884F84400834202BFE5
S214004E000123E3702371074B04F11C00C4E9073447
S214004E1001F096F9224620880349BDE8104001F0CB
S214004E20D3B800BF634803002D48030070B5C378AD
S214004E3004460D461646002B34D1D1B1214815F054
S214004E4087FA0123E370E36CA6600BB1E06D984728
S214004E50E368F61A63699E4221D2217E1A48013120
S214004E60C9B2217615F074FAA36D13B1217EE06DF8
S214004E709847E5702FF0C9FE15B3237903BBA268E7
S214004E80238A801A83421BD801231048237115F009
S214004E905FFA236DA3B1E06DBDE8704018470123AB
S214004EA02376E6E70029E4D1094815F051FA636D48
S214004EB0E660E5702571002BDBD0E06D9847D8E7FB
S214004EC070BD00BF70FE030081FE0300AFFE03004E
S214004ED09CFE03002DE9F8430E4617461D46044681
S214004EE000283FD076220021063016F043FB002231
S214004EF03046114626806780A5802FF061FE00228E
S214004F00A071114638462FF05BFE00224FF00108D4
S214004F101146E07128462FF0FEFD28462FF01AFEB7
S214004F2084F838802FF071FE104B04F14409C4E970
S214004F301134206284F86D80484601F001F90C4B6C
S214004F403A463146C4E91C340A482B4684F8788031
S214004F5015F0FEF9484641F288312FF04DFE00204C
S214004F60BDE8F8834FF0FF30FAE700BF794F000046
S214004F70609B0400C5FE030070B50446002849D0B7
S214004F8090F86D30002B45D02FF03FFE064694F982
S214004F9006002FF087FC054694F907002FF082FCE8
S214004FA0C82202FB05F142430346E1632264EDB9E1
S214004FB0658694F86C1039B194F8382022B313B192
S214004FC0154A53431B0CE38501231944204684F8F5
S214004FD06C1084F8393026622FF08AFC04F1440005
S214004FE041F28831BDE870402FF006BE0B4A6A4396
S214004FF0120C62860A4A55434FF06162B5FBF2F521
S214005000626B2A446263D4E713B1064A53431B0C0F
S2140050102386D9E770BD00BF70332500083495019C
S214005020A90602009892020070B51E4683880446C0
S2140050300D46C18002810BB1868070BD81780088E4
S2140050402FF088FC0123E370064BA680C4E90334E6
S2140050500C34204601F074F829462046BDE870401E
S2140050602FF0CABD5F49030010B501790446B1FAB6
S21400507081F1008849092FF0E4FC21796088B1FAB3
S21400508081F149092FF0DDFC034B1A68A24204BFE8
S21400509000221A6010BD00BF1C17002070B54379AF
S2140050A00446A3B100880E4E04F10805336813B118
S2140050B00C4B1B786BB121792FF0C3FC64210A4B93
S2140050C03460A3602846BDE870402FF095BD408848
S2140050D0E9E7064815F03CF9054B3221A360F1E7F5
S2140050E01C170020505F002069500000F9FE0300E6
S2140050F09D50000010B50446E0B10F4815F028F9A1
S21400510001236371A37953B9217920882FF099FC84
S214005110236B7BB1606B0121BDE810401847204629
S214005120FFF7A2FF04F108002FF06BFD2046FFF703
S214005130B5FFEDE710BD00BF2FFF030010B5044616
S214005140F8B1104815F004F900236371A3796BB920
S21400515021792088B1FA81F149092FF072FC236B7E
S2140051607BB1606B0021BDE8104018472046FFF772
S2140051707BFF04F108002FF044FD2046FFF78EFF6A
S214005180EDE710BD3AFF030010B5044668B10748C6
S21400519015F0DEF8637920461BB1BDE81040FFF736
S2140051A0CDBFBDE81040FFF7A5BF10BD46FF03000A
S2140051B010B50E4C0E48214615F0CAF882210D484F
S2140051C015F0C6F882210220A21E00F073FF0146E9
S2140051D030B134F8022C0848BDE8104015F0B8B8D5
S2140051E00648BDE8104015F0B3B800BFE6570020EB
S2140051F055FF030070FF03007BFF0300BFFF0300A3
S21400520038B5104C82212246022000F043FFA51C30
S214005210014678B122880C4815F09AF82A460B4BBE
S21400522003F1340153F8040B8B4242F8040BF9D116
S2140052303323238035F8021C054A0648BDE838406B
S21400524015F086B8E4570020CAFF03004A000400A1
S214005250E657002028000400034B1B781BB18B4246
S21400526001D82FF0BFBC7047336F002010B504463E
S21400527001460E4815F06CF8012C11D10C4B0D4868
S2140052801A884FF6FF739A421EBF0022094B5A74C3
S2140052902FF0BDFB02F0F8F8BDE8104001F0CABFE1
S2140052A00448BDE810402FF0B4BB00BF7E000400E9
S2140052B0E46E00205069002070B500241A4D1B4E85
S2140052C03378A3421BDC0024194D1A4E3378A342D0
S2140052D01BDC0024184D194E3378A3421BDC01F06A
S2140052E075F8012816481CD12FF091FB02F0CCF877
S2140052F001F0A0FFBDE87040124801F087B82846CC
S214005300FFF774FD01346035DAE728462FF065FBB9
S21400531001343435DAE728462FF098FB0134383567
S214005320DAE72FF076FBE5E7C8230020565F00207B
S214005330E8270020575F002098210020555F0020B6
S214005340506900206D5200002DE9F04F87B0FFF73E
S21400535057FFBA4B05A805932FF09CFB054616F0A1
S21400536005F8B74CC2B21F2A627004D9B54814F0CB
S214005370EFFF00F0CDFC2946A01C16F08BFA05A81E
S2140053802FF088FB054615F0F1FFC2B21F2A84F8FD
S214005390212001D9AC48EAE7294604F1220016F09C
S2140053A079FA05A82FF076FB3226044600272578E2
S2140053B0002D40F0CC80A54CFFF77EFF2378DFF869
S2140053C0D4B2DFF8D4A2A24E00939BF800309AF82D
S2140053D0002031789F4814F0BBFF32789AF800100E
S2140053E09BF80000531803449B4F20782C46034438
S2140053F03846DBB2AA4200F37A83012B38BF01237A
S214005400DFF85C8202934246002345464FF48271E1
S2140054104FF6FF74029801338342137051809480D4
S21400542002F10C02F6DB8D4B8D498548AB6001F02E
S214005430F9F8E879AB6800EB400003EB800000F079
S21400544073FEEB790133EB71864B1B88A34203D0C6
S2140054508349854801F0E8F94FF000097F4C33781E
S2140054604B4500F34D83814B1B785BB1804B1B781B
S214005470012B07D17A497F4801F05EFC78497E48C7
S21400548001F028FE00274FF00C087C4BDFF8D09187
S2140054909AF800203178BA4200F3478302EB0108FD
S2140054A00C21002701FB08919BF800009423B842CA
S2140054B0734A00F3588337780C269AF800304FF07A
S2140054C000081F44074406FB07964FF07009DFF8F4
S2140054D0CCA15E4B1B78434500F35983634E644C66
S2140054E0337883B1217801290DD90C27013907FBC0
S2140054F00151604801F020FC21785F48013907FB24
S214005500015101F0E7FD0299554800F09FFE40F278
S214005510055240F604312078367800F079FE0022F5
S214005520054640F20271207800F072FE29460246D7
S214005530304601F009F8059B40491A468B4240F078
S2140055403B83504807B0BDE8F04F14F001BF532D21
S2140055500FD163784C2B40F04E81A378502B40F04F
S2140055604A810122484B1A7005A82FF093FA044688
S2140055701DE7442D13D16378303B092BF4D8601C0B
S2140055802FF095FA414B424A1978002386B2994289
S21400559002F16002E8DD22F8466C0133F7E7422D9F
S2140055A00CD16378542B40F08980A01C00F05AFD83
S2140055B02C4B188018462FF016F9D5E7582D33D8FF
S2140055C0412DD1D9433D152DCED801A353F825F052
S2140055D0D559000069550000675A0000695500005B
S2140055E069550000695500004957000069550000DC
S2140055F069550000FB560000A156000069550000E2
S2140056006955000069550000695500007B58000088
S214005610F7570000695500006955000069550000FD
S21400562069550000F1580000692D9DD1601C2FF0CF
S2140056303EFA80B22FF0D2FA96E700BFE657002077
S214005640646800209D000400B4000400515F002040
S214005650545F002021010400EC1E00206019002089
S214005660E8180020E46E0020201700204F5F00207E
S214005670326F00207017002008100020EC1D00205C
S214005680301C002071010400505F0020565F00208F
S214005690C8230020525F0020535F0020E01A00203D
S2140056A0BD4B012019780023BC4A994202F1A8029A
S2140056B07FF75AAF02F8A60C0133F6E7601C00F03D
S2140056C0D1FC0546E01C2FF06AFA01210246284666
S2140056D02FF021FA6021B248B24C03785943621881
S2140056E065524FF4FA6111824FF448715161AE4928
S2140056F0568311650133037036E7601C00F0B2FC78
S21400570000224FF034088146A84F11462FF003FAC6
S2140057103878A74D08FB00F325F80390EA18E378DD
S2140057201046693B18BF012393702FF056F90021ED
S214005730A04A3B785160012103FB08550B443B709F
S21400574015600F4611740FE7601C00F08BFC0022FA
S214005750114681462FF0DFF93422944DDFF850824F
S214005760287802FB00F328F8039008EB0301E3789F
S2140057700846693B18BF01238B702FF02EF98E4A1E
S21400578000231046916B31BB00EB831034232A783C
S21400579002FB03838363814A00231046D2F8A410D9
S2140057A0F9B9A82202FB030034232A7802FB0383FC
S2140057B0C0F8A4305FB97F4A3B46114652F8040B46
S2140057C0A8B93422287800FB028241F823202B78DF
S2140057D001332B70C8E60133042B02F14002D1D10D
S2140057E0D9E70133042B02F1A802D7D1E2E701334F
S2140057F0042BE3D1EBE7601C00F034FC8046E01C91
S2140058002FF0CDF90121024640462FF084F96021A1
S2140058106348644D0278DFF880C151436B1825F861
S21400582001804FF448711982596164495E83996515
S214005830E178A824642904BF012199709CF80030FF
S214005840DFF858E15C430EEB04010EF804304FF429
S21400585000744C8003240C718C7102EB420405EB3F
S214005860441532240133DBB201324B718D6081F86E
S214005870A04002708CF8003076E6601C00F0F2FB68
S21400588000224FF0380A8146DFF8408111462FF09B
S21400589042F998F800304A4D0AFB03F325F80390C6
S2140058A04FF00109EA1882F80490E37873B1E01C1F
S2140058B000F0D8FB0022044611462FF02CF998F889
S2140058C000300AFB03535C8083F806903D483A4A52
S2140058D003789901535498F8001002EB8314C1EB37
S2140058E0C10205EBC2054A1C656388F8002001E783
S2140058F0601C00F0B7FB8046E01C00F0B3FB0546DA
S214005900601D2FF04CF904460246012140462FF058
S21400591002F92246284601212FF0FDF860204FF4B8
S214005920487CDFF87CE01F4A9EF8003000FB03F45A
S21400593022F80480DFF884801119A1F810C0C1F89D
S21400594014C04E83C1F85880591CC9B24843141875
S214005950A4F810C0C4F814C06683C4F85880942411
S2140059601552194D981C8EF800002878DFF860C094
S214005970444303EB430301EB41010CEB040E02EB43
S214005980431302EB41120CF80400CEF80430CEF8B4
S214005990082001302870E7E5545F0020EC1E002048
S2140059A0565F0020C82300207F4A0300575F002070
S2140059B0E827002050690020EC1D00205952000006
S2140059C098210020535F0020525F0020555F002082
S2140059D0301C0020601C00F045FB8046E01C00F0F8
S2140059E041FB00220546114640462FF094F800225F
S2140059F03824114628462FF08EF87448744A0378E7
S214005A004FF0000E04FB03FC22F80C804FF0010858
S214005A1002EB0C0181F806E081F8048003EB080134
S214005A20C9B24C4302EB040C15539C1C0470702442
S214005A30684D8CF806E028788CF804804443DFF83C
S214005A40B8C1C3EBC303C1EBC1010CEB040E02EB00
S214005A50C30302EBC1020CF80400CEF80430CEF803
S214005A600820404496E76378502B7FF47DAD2146AE
S214005A70594814F06DFCA01C00F0F4FA0546201DF1
S214005A8000F0F0FA8046A01D00F0ECFA4FF6FF7327
S214005A909D4204463FF468AD98453FF465AD984294
S214005AA03FF462AD0346424629464C48FFF712FAD9
S214005AB000287FF459AD49482EF043FFDFF83C91AB
S214005AC00146C9F80000464801F01EF9D9F8001052
S214005AD044482FF08AFA0123434A29461370434A62
S214005AE0434813702346424614F032FC3CE590F8D7
S214005AF005C001358C4584BF04714471A83079E433
S214005B00B9F1000F07D018F8053C03EB430304EB8C
S214005B108304C8F808404146384601F089FE09F17A
S214005B200109A83708F10C0899E479180AD04A1E2A
S214005B3008FB0292D27902EB420204EB820408FBD5
S214005B4001929460184608FB0151039301F02EFC65
S214005B5031782848394408FB015101F03FFA039B8D
S214005B600137403394E417EB080F18BF11F8050C03
S214005B7003911EBF00EB400004EB80048C6003FB27
S214005B80072001F015F8039901370C318CE418EB67
S214005B90070F18BF16F8053C31461CBF03EB43033E
S214005BA004EB830409FB08A018BFB46000F0D6FE1F
S214005BB008F101080C368CE413F8011D00297FF467
S214005BC0BBAC3B2102F8011CB6E400BF555F0020C9
S214005BD098210020515F0020C40004006C180020AB
S214005BE070170020081000204F5F0020326F002042
S214005BF0F20004008C210020E01A00206818002023
S214005C0008B5094B1B786BB108482FF0CFF9074849
S214005C1001F02EF9064801F0DBFABDE8084004481A
S214005C2001F0F6B908BD00BF4F5F002070170020D6
S214005C3008100020034B1B7813B103482EF089BED2
S214005C40704700BF4F5F00206C18002007B5012189
S214005C5021200DF1070200F01DFA18B99DF8072063
S214005C60024B1A7003B05DF804FB00BF336F0020D0
S214005C7007B5064B8DF80700187001210DF10702D5
S214005C80212000F017FA03B05DF804FB336F002004
S214005C9007B5022101200DF1060200F0FBF938B924
S214005CA0044814F055FBBDF8060003B05DF804FB8D
S214005CB00020FAE78E01040007B50221ADF80600C1
S214005CC00DF10602012000F0F5F9014610B1034877
S214005CD014F03EFB03B05DF804FB00BFAF01040008
S214005CE010B5FFF7D5FF04460146074814F030FB11
S214005CF00121064814F02CFB24B9BDE81040012011
S214005D00FFF7DABF10BD00BFDF010400F101040099
S214005D1008B5044814F01CFB00F0DCF92EF062FF16
S214005D202EF05DFF0702040038B50446084D094B07
S214005D3028462B6000F004FA002C18BF214628469F
S214005D40BDE8384008BF4FF496712EF055BF00BF2F
S214005D50EC280020CD4A03002DE9F043384D91B0E1
S214005D6008AC0746894690460FCD0FC495E80F004D
S214005D70002684E80F0001250323324C3248CDE983
S214005D800366CDE905668DF80E300796029539F064
S214005D90DDFD2E4839F0DAFD32462D4920468DF8D5
S214005DA0176004F06DFE334632462A498DF8190016
S214005DB0009020468DF82390CDF82C808DF8216039
S214005DC004F078FE0A9020468DF8097004F0DAFD9B
S214005DD0204608AA05A904F093FE02AA204603A9B5
S214005DE02FF0EFFF4FF400721B4B5A62194BE56021
S214005DF0626A920510D46BB94FF40072164B1148C4
S214005E005A6204F0BFFD114839F0A3FD002011B01E
S214005E10BDE8F083013BEBE7002BEDD0094908A86D
S214005E2030F002F84FF400720B4B06485A6204F04A
S214005E30A9FD064839F08DFDBDF82000E7E700BF54
S214005E406C9B04000040005A049E0400009E040060
S214005E5080841E0040420F000060005A0122034B5F
S214005E601870034B1980034B1A707047595F002057
S214005E70EC6E0020585F0020F8B5454B1B780BB938
S214005E800020F8BD434B1B78012B03D1BDE8F8403A
S214005E902EF01FBE404B1C884FF6FF739C42EFD07F
S214005EA03E4839F053FD0023260AE4B21A4621463E
S214005EB0304604F027FD012E354604F0010335D0A8
S214005EC015D9B51E012DDBD8002B0BBF4FF48075FE
S214005ED04FF080754FF470614FF070610BBF012773
S214005EE04FF480370F204FF470202D4B11E0002B1D
S214005EF00BBF4FF480754FF080754FF470614FF014
S214005F0070610BBF01274FF480370F204FF47020CD
S214005F10244B1A6802401CD0BA421AD01A680A40AB
S214005F2032D11A6822EA01022A4316E0002B0BBF80
S214005F304FF480754FF080754FF470614FF07061CC
S214005F400BBF01274FF480370F204FF47020164BFD
S214005F50DFE71A6822EA00023A431A602EF0B9FD1B
S214005F60054600288CD0083644EA06102A46032147
S214005F70C0B2FFF7F1FE40F6FF73684300F2FF7011
S214005F80B0FBF3F080B27CE795427FF479AFC8E7C8
S214005F90585F0020595F0020EC6E0020049E04002D
S214005FA028C3035020C3035024C3035010B5044C29
S214005FB0237823B9034839F0C9FC0123237010BDA8
S214005FC05B5F0020049E04002DE9F0431F4C85B063
S214005FD0074688469146FFF7E9FF23781BB902F08B
S214005FE041F9012323707BBAADF80C303022002330
S214005FF0174E02FB03F4315DA51901BB012333558F
S2140060004FF0FF3304F1100012493044AB606F804C
S214006010C5F80480C5F80C9009F0B6FB04F1080139
S214006020042231440C4B009503A802F0F1F9A9684C
S21400603002460A4814F08CF905B0BDE8F083013337
S214006040102BD6D1064814F083F9F5E75A5F0020E6
S21400605014290020F74A0300094B03001402040029
S2140060604202040080B10278A2F14103032B0BD850
S21400607040783038C0B2082806D8054B134413F8C9
S214006080413C40EA032070474FF6FF70704700BF60
S2140060908C9B040008B50B4642B1014604480068D4
S2140060A003F0FAFABDE808402EF092BD022008BDC3
S2140060B0BC69002008B50B4642B10146044800689A
S2140060C003F072FCBDE808402EF082BD022008BD39
S2140060D0BC690020F0B50026124F8DB0FF23009358
S2140060E00A223346386802A92FF028FCC0B102AB5A
S2140060F01D4603EB800404E055F8043BB34228BF7A
S2140061005E1CAC423868E9D9296803F0D3FD002844
S214006110F2D02D28F0D00DB0BDE8F0402EF058BDDE
S2140061200DB0F0BDBC69002028B1034B0360034BE3
S21400613043600023836070471900000364690020F1
S214006140FF2307B50021044A0093083009F0A0FA9F
S21400615003B05DF804FB00BFF34B03000B46044995
S214006160024608680349097808B12EF055BD704705
S214006170202C00205D5F0020F7B50C4618B12F21BB
S214006180194839F03AFC246823685E795F883046FF
S2140061903946FFF7E3FFF0B18568E5B1A089227DB7
S2140061A03946904291BF0020801AA36880B294BFFF
S2140061B003469B18E27C00903046A8470138032827
S2140061C003D8DFE800F0080F0B0D0024204632F05D
S2140061D025FF204600E0812003B0F0BD8024F5E7CF
S2140061E09324F3E78724F1E76A02040007B50B4619
S2140061F00092054902460548097800682EF02EFDF3
S21400620003B05DF804FB00BF5D5F0020202C00207B
S21400621007B50B460092064902460648097800680C
S2140062202EF01CFD003818BF012003B05DF804FBFB
S2140062305D5F0020202C002008B5034B1B6803B1CF
S2140062409847002008BD00BF1C2C00202DE9F74F02
S21400625004460D460026454B454F1860454B1970C1
S21400626033010021F85C013610F068F80C2EF7D1E7
S2140062700C2D28BF0C254FF0000901953C4EDFF889
S21400628000A13D4DDFF8FC80019B4B4502DC03B0CE
S214006290BDE8F08F23784FF0000B3370638873806F
S2140062A0A388B380A379C6F80880B371E379C8F8E9
S2140062B0005088F804304FF00003A768A8F80630AE
S2140062C0E3795B450ADC012116F8100B10F036F86E
S2140062D008F1080809F101090C34D5E74FF000036E
S2140062E038886B812880FB784FF0000C2B81BA78B9
S2140062F0C5F804A0002A00920CBF802240222A7310
S21400630079680AF10C02634513DC03EB43030AEBDE
S214006310830ABB6843B1009A4FF6FF71B2FA82F265
S214006320164B520932F00AFE14350BF1010B0C37EE
S214006330C6E7B1F800E00CF1010C22F80CEC91F87D
S21400634002E00C3202F816EC91F804E00C3102F888
S21400635015EC11F809ECBEF1010F14BF4FF0100E4A
S2140063604FF0110E02F814ECCDE700BF202C0020F1
S214006370E84200205D5F00202432002079610000A2
S214006380242C0020A4340020014B1860704700BF66
S214006390182C002070B5128805460E46FFF726FF1B
S2140063A0044670B102790499806815F035F9064BF9
S2140063B01B680BB9002070BD3146284622889847D6
S2140063C0F8E78620F7E700BF182C002008B50FF086
S2140063D051F8022806D0012806D0044B1878400051
S2140063E0C0B208BD0120FCE70220FAE75C5F00208F
S2140063F0054B10B51C682CB1FFF7E8FF2346BDE837
S2140064001040184710BD00BF142C0020014B186028
S214006410704700BF142C0020034B1A781AB90122CB
S2140064201A700BF02DB870475C5F00200022024BFC
S2140064301A70FFF7DDBF00BF5C5F002037B504466B
S214006440002832D00FF016F8022830D1608933F0D9
S21400645062F9E079237A003818BF0120012B637AAD
S21400646008BF40F008000BB140F0100063890BB184
S21400647040F00400257CA188A2790DB1E36873B9C9
S2140064800C4B10F037FB2178084610F0AFFB32F0CB
S2140064904EFC002814BF0320002003B030BDCDE919
S2140064A00035054B10F026FBEDE70220F5E701204E
S2140064B0F3E700BFE6510400952004002DE9F04103
S2140064C086B005460E4690461F469DF834400EF0B0
S2140064D0D1FF022824D1082C16D8ADF80C808DF8F0
S2140064E00E702CB122460C990DF10F0015F0D2F962
S2140064F003AB033400930A2231460820094B01946B
S21400650010F0F8FA18B1032006B0BDE8F08129466D
S214006510284610F06BFB32F00AFC0028F4D0F2E7B5
S2140065200120F1E79520040008B50DF007F90146B3
S21400653030B1044813F00CFFBDE808400DF0A2BCD3
S21400654008BD00BFF802040030B5C0B100290CBF7A
S21400655030203120002A0CBF30243124132200239F
S214006560084911F8015F3F2D06D1002B14BF2546C0
S214006570054601330D70DBB2013AF2D130BD2D2055
S2140065800446EBE7346F0020034B044A5B7C012192
S21400659003201370FFF78EBD506900205E5F002059
S2140065A010B50446FFF7F0FFB4F57F4F0BD100247B
S2140065B00F4B1A8813449C70FEF7FAFD2046BDE880
S2140065C01040FFF7B1BB4FF601739C4204D1BDE803
S2140065D0104008482EF003BA4FF602739C4205D1CD
S2140065E0BDE81040044B1878FFF742BB10BD00BF53
S2140065F0E457002050690020336F002010B5074C88
S214006600012122460320FFF745FD28B92378044AD6
S214006610003B18BF0123537410BD00BF5E5F00200F
S21400662050690020F8B5564B564C1A884FF6FF7343
S2140066309A4218BF03234FF0080218BF2370524B2C
S21400664036251A7032225A70DA70DA7137221A72C8
S2140066504FF400121D719D714C4D3026C5644C4D93
S214006660426405654B4D012285654B4D9E70C565A0
S2140066704A4D5E7145664A4D86188566494DC66721
S2140066800567494D494E4567202580F8785080F8C3
S214006690845000F12105C0F88850454D80F8482008
S2140066A0C0F88C5080F8542080F8602080F86C2069
S2140066B0C0F8806080F89020C0F89440C0F8B830E9
S2140066C03C4B3D4CC0F8BC300223C0F898403B4CD5
S2140066D080F8C030C0F8A4401424394B80F8A84095
S2140066E0C0F8C430374B384CC0F8C8308223C0F8E6
S2140066F0AC40364C80F8CC30C0F8B0400924344B5F
S214006700344DC0F8D030344B80F8B440C0F8D430A4
S2140067102C7C324B80F89C20C0F8A00080F8D82053
S214006720C0F8DC3044B12E4B80F8E420C0F8E030EE
S21400673005F11103C0F8E8304FF0000CCA798E68F6
S21400674002EB42039F00443006EB830326F807C0A3
S214006750586001200D349870DC701318CB71FFF769
S21400676075FAFFF74BFFFFF731FE012806D12B7CA9
S21400677023B1BDE8F84017482EF031B9F8BD00BF88
S214006780E46E0020486F00205F5F0020959B0400A9
S21400679001002000949B040002002000939B04004C
S2140067A003002000929B0400040042000500420003
S2140067B007003000FDFF21001200100100404200DB
S2140067C0909B040000FF4401346F00200600420046
S2140067D0E45700205069002002FF2001336F00209C
S2140067E001FF100113B504460D482EF007F8642289
S2140067F0C0F30F43637083B2B3FBF2F3A078237049
S214006800202201212EF045FAA078212201212EF027
S21400681040FA0449201D02B0BDE810402EF0ECB945
S214006820E46E0020E09304000B7870B583704CF69D
S2140068301E0303804FF02013C362012380F830301C
S21400684080F83C30C3180364124B044643640223AA
S214006850114A80F84830114B8263C3644063CA799A
S2140068608D6802EB420305EB830004F12C064660BC
S2140068700B4E45F8236000238360531CCB71094BF5
S214006880201DC4E90134FFF75BFC2046BDE87040DC
S214006890FFF7A8BFFDFF210021002000969B040003
S2140068A001000103E5670000437B044A01211370E1
S2140068B000781130C0B2FFF7FDBB00BF695F002053
S2140068C038B504460078054D11302A460121C0B27D
S2140068D0FFF7E0FB08B92B78637338BD695F0020CB
S2140068E0024B53F820002EF09BBA00BF0435002060
S2140068F0012908B506D0022907D049B92EF087FA33
S214006900002008BD2EF086FAFAE72EF086FAF7E7A2
S214006910024813F01DFD0120F3E700BF2503040025
S21400692010B4054C114654F820001A46BDF8043041
S2140069305DF8044BFFF7DCBF04350020002310B5DC
S214006940044683810364A0F844304830FFF7F8FB20
S214006950014BC4E9123410BD074E030038B5044697
S2140069600B781A4A43700D4642F82300FFF7E6FFFD
S2140069702046FFF7A5FF4FF4401323610123144A76
S2140069802375A261134A84F82030E261124A84F823
S2140069902C306262114A84F83830A26204F10C028C
S2140069A022630F4A04F10D036263E363EA79A86881
S2140069B002EB420300EB830110344C60094C40F8B4
S2140069C02340094B8B60531CEB7138BD0435002007
S2140069D0685F002008002000496F002000FF30009C
S2140069E001FF1001020101042169000010B47024A7
S2140069F0427B0D48013A012904FB020006D0022919
S214006A0008D059B95DF8044B2EF001BA5DF8044B76
S214006A102EF000BA5DF8044B2EF0FFB903485DF87F
S214006A20044B13F095BC00BFE01A0020410304009D
S214006A30B0F85C302DE9F0418B4204460E4638D063
S214006A40437B077C8BB31C4A12789A422DD3702561
S214006A501A4A013B05FB032390F80F801B7B424636
S214006A602EF0ECF9B845054601D1FF281FD13A466D
S214006A703146204694F890302EF0E0F92F46054631
S214006A80552212216078A4F85C602EF002F9FF2FE0
S214006A9003D039462046FFF7A9FFFF2D09D0294627
S214006AA02046BDE8F0412EF009BAFF25DFE707468D
S214006AB0E6E7BDE8F08100BF515F0020E01A002045
S214006AC041688268C978D27849B112B10321FFF7CC
S214006AD0AFBF837B002B0CBF01210221F7E72AB151
S214006AE0837B002B0CBF02210121F0E7014813F045
S214006AF02FBC00BF52030400037BD3B14368DA788F
S214006B0012B18268D278A2B91B7933B1837B002B8D
S214006B100CBF04210521FFF78BBF83681B792BB1BF
S214006B20837B002B0CBF05210421F4E7014813F0FA
S214006B300FBC704784030400084A437B052113708A
S214006B40837B5370C37B9370037CD370037B13717A
S214006B5000780E30C0B2FFF7ADBA00BF6A5F002003
S214006B6038B5044600780C4D0E302A460521C0B2D2
S214006B70FFF790FA20B1BDE83840084813F0E8BBAC
S214006B802B7863736B78A373AB78E373EB7823741B
S214006B902B79237338BD00BF6A5F0020C003040052
S214006BA0024B53F820002EF0D3B900BF2C3500203E
S214006BB0F8B504460B78424A43700D4642F8230067
S214006BC0404E2EF0E3F9FFF7CBFF6268A3683E481D
S214006BD03E49D6641165D4655065C3E91410DE6479
S214006BE0DC654FF0987302266361012304F10C0103
S214006BF0E16137491032216204F10D01A162354985
S214006C002376E16204F10E016163334984F824308F
S214006C10A16304F10F012164304984F830306164C7
S214006C2004F11001E1642E4984F83C3084F84830C1
S214006C30216584F85460A265E879A96800EB4002F3
S214006C4001EB820704F1140CC7F804C04FF4817CF2
S214006C50244F41F82270C218D2B202EB420241F829
S214006C6022C001EB820700227A601F4A84F8703047
S214006C7022661E4A84F88830A2661D4A1D4BE266CC
S214006C801D4AC4F88C3062671C4A8319A26704F157
S214006C905C02C4F88020DBB2194A03EB4303C4F855
S214006CA0842084F8646084F87C6001EB830260349E
S214006CB05460144A033041F82320E871F8BD00BF41
S214006CC02C350020C16A0000134F0300F96A00004B
S214006CD00100200102001001030030010400300111
S214006CE00500210101FC01064A002100989B0400D2
S214006CF0510010009A9B04009B9B04005500210045
S214006D006F0018001200010438B50D46044678B12D
S214006D1071B1F822002114F02DFC0923A360012391
S214006D20044A6560626102F561726382A261A383B0
S214006D3038BD00BF6400010070B500287CD0002973
S214006D407AD04FF4D813C36200F1080343633B4B79
S214006D5004228363022300F10C040464384C80F898
S214006D603C30446400F10E04C464364C80F848306D
S214006D70046500F110048465334C80F85430C46513
S214006D8000F112044466314C80F86030846600F1ED
S214006D90140404672E4C80F86C30446700F1160427
S214006DA0C4672C4C80F87830C0F8804000F1180496
S214006DB0C0F88840284C80F8843080F8903080F8FE
S214006DC09C3000F11C03C0F88C40C0F8A03000F1E5
S214006DD01A04224BC0F89440214CC0F8A43000F1AD
S214006DE0200380F83020C0F8984080F8A820C0F82B
S214006DF0AC301C4B80F8B420C0F8B03000F124034F
S214006E00C0F8B830184B00F12C06C0F8BC3001238F
S214006E1080F8C03000F12803C0F8C430CA798C6806
S214006E2002EB420304EB83056E60104D44F82350DA
S214006E30531CCB710B78037070BD00BF0505210095
S214006E40080521000B052900000621000106210087
S214006E5002062100030621000406210000FF23008D
S214006E600506210001FF230002FF2000040B010D90
S214006E702DE9F7430446002838D02DF0C6FED4F896
S214006E80EC508046451BB5F57A7F2FD3B4F8F0005A
S214006E90B4F80C90B4F8F210B4F80EE0A9EB0003C6
S214006EA01BB2B4F8F420002BB4F810C0AEEB010708
S214006EB03FB2B8BFA0EB0900ACEB0206B8BF03B206
S214006EC0002F36B2BCBFA1EB0E010FB2002EBCBF26
S214006ED0A2EB0C0216B2224A95420AD8042B08DC12
S214006EE0312F19DC042E2ADCC4F8EC8003B0BDE890
S214006EF0F0832346022213F80C0B40F60431CDE94A
S214006F000032212340F20552FFF7D8FAA389A4F8ED
S214006F10F030134B9D42E3D92346022213F80E0BA2
S214006F2040F60431CDE9003221234FF4A162FFF789
S214006F30C5FAE389A4F8F230094B9D42D2D923461C
S214006F40022213F8100B40F60431CDE90032292353
S214006F5040F20B52FFF7B2FA238AA4F8F430C3E7E4
S214006F60DF93040070B50D460646144613460A46DF
S214006F700146164813F0ECF925B92046BDE87040E6
S214006F80FFF70EBB072D05D121463046BDE8704001
S214006F9000F012BC4FF601439D4205D12146304613
S214006FA0BDE87040FFF7FCBD062D05D121463046F2
S214006FB0BDE8704000F0B4B9B5F5817F05D1214633
S214006FC03046BDE87040FFF78BBC70BDEF03040091
S214006FD00148FFF7D9B900BF656F00004FF4C01332
S214006FE030B5036001230371074B8C688360CA7950
S214006FF002EB420304EB83056860044844F8230070
S214007000531CCB7130BD00BF9C9B040004000101E3
S214007010F0B5044685B090B32DF0F7FD42F20F733D
S214007020D4F888200546821A9A4228D9D4E9026301
S214007030D4E92401864273EB0107134F21D3BA42E9
S21400704006D8301A63EB01010A2871F1000116D345
S2140070508DF80C301B0A8DF80D300623019302AB19
S21400706000930022252340F2027120780296FFF753
S21400707025FAD4E90223C4E92423C4F8885005B0CD
S214007080F0BDBA42FBD9E3E7DF93040013B504462C
S21400709080B100786A4627300821C0B2FEF7FAFFB2
S2140070A050B9DDE900230948C4E90223C4E92423D2
S2140070B013F04EF902B010BD002200230448C4E9C4
S2140070C00223C4E9242313F043F9F3E7220404005F
S2140070D04D04040070B50D46044600284FD0002924
S2140070E04DD00B7804F120060370FFF7CFFF4FF466
S2140070F014132362082304F110026263204A84F802
S2140071002430A26304F1110222641E4AE31862646A
S2140071100422A3621C4B84F84820E362012384F80F
S214007120542004F11802A265184A04F11401E2651D
S21400713004F11C02E16462661549164A84F8303090
S21400714084F83C3084F8603084F86C3004F11D0319
S2140071502165A2662367EA79A96802EB420301EB80
S214007160830046600C4841F82300531CEB712978D5
S214007170D4E902230948BDE8704013F0E9B870BDB1
S2140071800003300001032200000218000303180069
S2140071900203220006031800020701077B0404000E
S2140071A013B5044678B1D0E902230078CDE9002370
S2140071B027306A460821C0B2FEF77CFFD4E90223D6
S2140071C0024813F0C5F802B010BD00BFAC040400BE
S2140071D030B5044689B040B3436833B31A6822B169
S2140071E0126812B1586801A990479DF81030E3B1B3
S2140071F00399D4F880208A4207D8D4E902308A1A44
S2140072009B1840F10000C4E90230C4F880102DF04D
S214007210FCFCD4F88430064AC31A9342054604D9C7
S2140072202046FFF7BDFFC4F8845009B030BD00BF4C
S214007230DF93040038B50024044D55F8040B08B15C
S2140072402DF0E5FE01340A2CF7D138BD5435002068
S214007250042908B50AD172B16BB113781BB92DF0A9
S21400726001FF002008BD2DF0F3FEFAE7034813F0F7
S2140072706FF80120F6E70320F4E700BFD40404000B
S21400728010B4054C114654F820001A46BDF80430D8
S2140072905DF8044BFFF7DCBF543500200229024698
S2140072A008B50ED004D839B910462DF0DBFE06E03E
S2140072B04029F9D0412907D110462DF0C9FE0020FB
S2140072C008BD2DF0D9FEFAE7024813F041F8012078
S2140072D0F6E700BFF404040010B4054C114654F859
S2140072E020001A46BDF804305DF8044BFFF7D6BF01
S2140072F054350020426B094B52791A7082785A70C6
S214007300C2789A70826B12B190F83C20DA700078DE
S21400731004210930014AC0B2FEF7CCBE6F5F0020E0
S214007320024B53F820002DF0C3BE00BF543500209A
S21400733038B504460078084D09302A460421C0B204
S214007340FEF7A8FE30B96B78A370AB78E370EB78E5
S21400735084F83C3038BD00BF6F5F002038B5044667
S2140073600078114D09302A460421C0B2FEF792FE7D
S214007370C8B9A3782A78022B0CD004D863B9204663
S2140073802DF070FE01E0FF2B0AD02046BDE8384005
S2140073902DF03DBE002AF2D120462DF059FEF4E72E
S2140073A0002AF9D1EBE738BD6F5F0020F8B5044638
S2140073B00B78284A0D4642F823004370FFF7B8FFC3
S2140073C0636B254A5C631A632046FFF7C7FF2046B7
S2140073D02DF01DFE4FF4801363600123626BA66BD5
S2140073E00532E2601D4A23722261A21C2375A26147
S2140073F066B11B4A84F82030E261E21C6262194AD8
S21400740084F82C3004F13C03A26223630627EA7951
S214007410A96802EB4203002E21F8237001EB8300DB
S2140074200CBF02230423C370012383700E4B043465
S2140074308360531C4460DBB20C4C03EB430341F8FF
S214007440234001EB830000234360094B0232836034
S214007450EA71F8BD543500208D500300034030011A
S21400746001FF300102FF1001D97200000800010080
S2140074708172000028B1034B1B78834234BF002082
S21400748001207047535F002070B500250A4C0B4E54
S2140074903378AB4200DC70BDD4F8A42042B1237927
S2140074A01BB16079FFF7E6FF10B910462DF088FA99
S2140074B00135A834ECE700BFEC1E0020545F002026
S2140074C008B5427901461046FFF7D4FFA8B1CB783D
S2140074D00A48013A042B00EB82100ED8012B08D87C
S2140074E01BB9BDE808402DF0B3BDBDE808402DF03F
S2140074F0B9BDBDE808402DF0BFBD08BDEC1D00209D
S21400750008B5427901461046FFF7B4FFA8B1CB781C
S2140075100A48013A042B00EB82100ED8012B08D83B
S2140075201BB9BDE808402DF09DBDBDE808402DF014
S2140075308FBDBDE808402DF09FBD08BDEC1D0020A6
S21400754010B586B00446FEF741FF012830D1E27838
S214007550042A2DD8DFE802F01332340303006179E1
S2140075600846FFF787FF58B31648032A00EB81103A
S21400757050F80C3C58791DD1003818BF01206378AC
S2140075804FF480728DF804304FF48273ADF80630F5
S2140075900623ADF8083001238DF80B3000238DF854
S2140075A00A0001A8CDE903238DF81430FEF746FF44
S2140075B006B010BDB0FA80F04009E0E70020DEE734
S2140075C00220DCE7EC1D002010B586B00446FEF76E
S2140075D0FDFE012830D1E278042A2DD8DFE802F03B
S2140075E013133203030061790846FFF743FF48B3DD
S2140075F01548032A00EB811050F80C3C5B791DD12E
S2140076001A1E18BF012263788DF80A208DF8043000
S2140076104FF48273ADF806300623ADF80830012328
S2140076204FF480728DF80B30002301A8CDE90323B8
S2140076308DF81430FEF702FF06B010BDB3FA83F2E1
S2140076405209E0E70222DEE7EC1D002010B586B006
S2140076500446FEF7BBFE012812D16378094A8DF86E
S21400766004304FF48273ADF806304FF48073CDE9E2
S2140076700223002301A804938DF81430FEF7DEFEE3
S21400768006B010BD0800070110B586B00446FEF728
S2140076909DFE012820D16278104B8DF804204FF40F
S2140076A0827294F8A01094F8A10059701870ADF882
S2140076B0062004934FF480720223094901A88DF82E
S2140076C01430CDE90212FEF7B9FE94F8A130013B62
S2140076D018BF012384F8A13006B010BD735F0020E8
S2140076E00800050110B58378044603B30379022B1E
S2140076F00AD142791046FFF7BDFE28B10C48013A80
S21400770000EB82102DF0B8FCA379022B02D12046A4
S214007710FFF716FF2046FFF7B7FF02236078A4F8AE
S2140077206C305522BDE8104012212DF0B2BA10BDC3
S214007730EC1D00204388094A082113808388538063
S21400774083681B8A938090F8A03093718379D371F5
S21400775000780430C0B2FEF7ADBC00BF665800200B
S21400776038B50D4604460178114812F0F1FD4FF683
S21400777002739D420ED10F4B1B782BB963712046C6
S214007780BDE83840FFF7D6BF62790AB19342F6D219
S2140077900123F3E7B5F57F4FF1D120462DF005FD27
S2140077A0A378022B0CBF01220022A3689A70E6E79A
S2140077B010050400535F0020024B53F82000FFF72B
S2140077C0CFBF00BF7C35002038B504460078144D86
S2140077D004302A460821C0B2FEF75CFC20B1BDE8A2
S2140077E03840104812F0B4BD2B8863806B88E97867
S2140077F0A380AA88A3681A82AB7984F8A030EB79B4
S214007800A371094B1B780BB9637138BD09B1994256
S214007810FBD9064812F09CFD23780133F4E700BF3D
S214007820665800202A050400535F00205305040014
S214007830F8B504460B78474A0D4642F823004370D5
S214007840FFF7C2FFA268444BD465D364434B0226BD
S2140078505365434BA11C13654FF44013E3600123AB
S2140078606161E1623F49103221632265211D3E4A73
S214007870A1633E483E49626504F1A002A061E1634F
S214007880E265E01C611D3B4A206261643A483B4960
S2140078902266A21D2374237784F8283084F83430B7
S2140078A084F84030A16484F84C6084F8583084F83A
S2140078B064306062A266E879AA6800EB400102EBD9
S2140078C0810704F10C0CC7F804C04FF0060C2C4FCF
S2140078D042F82170C118C9B201EB410142F821C03B
S2140078E002EB810700217960264F84F880302767F5
S2140078F0254F84F89830A767244F254BE767254F18
S21400790084F8746084F88C60C4F89C3004F16C06CB
S214007910831CC4F88470C4F890601F4F1F4EDBB2FF
S21400792003EB4303C4F89460C4F8887002EB830644
S2140079307034746008261A4C42F82340C31CDBB22D
S21400794003EB430302EB8304043042F823606160D8
S214007950E871F8BD7C350020015103004B5103004F
S214007960E576000001FF300104FF20011000300121
S21400797002FF200105FF300100FF300103FF210157
S214007980070001084A0021009E9B040051001000D9
S214007990A09B0400A19B0400550021006F00180066
S2140079A01200010400239B6AB3F5804F03D21968C6
S2140079B0064A914203D00023037083607047012279
S2140079C002709A689B694260F7E700BF07B0CD5E19
S2140079D0024B034A1A602FF00CB800BF00000020CC
S2140079E002020FF073B53F4B04461A781AB1022212
S2140079F01A7002B070BDCDE900220028F9D0012629
S214007A001E7037F005FF384D384B186017F082FAB5
S214007A102B785BB902F0F2F940B935480823354AAD
S214007A203549006801F038FE00B92E70334B5A68AD
S214007A30E260334A9A601A6E22605A6E6260D3F829
S214007A407021A2601B6E5C042CD52E4AD368D80722
S214007A50FCD42D4B1A68531C29D04FF48013934046
S214007A602A4A13660423294C4FF0804223664FF4BB
S214007A7080632366102323664FF40053684623660C
S214007A8001A9226663662DF0A8FB009B2366019B76
S214007A9063662B78002BACD0164B1A6822665B68A0
S214007AA06366A6E71A4AD368D907FCD4D1E7194B10
S214007AB01B78002BD6D1184B5A68144B12B94FF4CA
S214007AC080121A66154A526812B94FF400121A66E6
S214007AD0134B5B68002BC5D14FF480020B4B1A6624
S214007AE0C0E700BF765F0020775F0020B435002037
S214007AF0BC690020B83500200071080000800044F2
S214007B0055CEAC0000000440886900200090004478
S214007B1000000450755F00200080055000C005502E
S214007B200000065038B5224D04462B78012B02D0B3
S214007B3001232B7038BD0028FCD02DF073FB0130DC
S214007B4009D02DF06FFB40F20113984203D0194A7A
S214007B50D368DB07FCD42268174B1A6662685A663D
S214007B60A268C3F87021E268D40744BF00229A6076
S214007B70124B1A68013213D1114A127882B9114990
S214007B804968C80748BF1A600F4A5268D10744BF01
S214007B9001221A600D4A5268D20744BF02221A60B8
S214007BA017F0C0F90A4B186837F02DFE0023C0E71F
S214007BB0765F0020000004400080004488690020B2
S214007BC0755F00200080055000C00550000006507C
S214007BD0B435002070B50024A36AB3F5804F23D2D5
S214007BE01A68134B9A421FD1124E337813F0FD05D4
S214007BF018D14FF480341048FFF7F4FE032004F049
S214007C004FFC0E4B0320DC6004F02EFC0C4B1C617A
S214007C10AB6ADB69984704460748FFF783FF0CB951
S214007C2001233370204670BD4FF48174FAE700BF1D
S214007C3007B0CD5E755F0020A435002000A000448C
S214007C400090004413B5204B1B7803B9FEE70023D1
S214007C501E4CCDE900336A4608231D49206801F012
S214007C601BFDF8B91B4AD2F84031D2F840211F2B31
S214007C704FF0010311D9203A9340019A1A4301921A
S214007C8008236A461249206801F08EFE124B134AFA
S214007C901A602EF0AEFE02B010BD9340009A1A4352
S214007CA00092EDE72D28F1D10A4AD2F84031D2F8F9
S214007CB040211F2B4FF0010385BF203A934093408D
S214007CC0019398BF0093DBE7765F0020BC69002035
S214007CD00071080000800044000000200B020FF036
S214007CE038B50025AB6A0446B3F5804F10D21B6B3F
S214007CF0B3F5804F0CD20748FFF774FEAB6A2046F8
S214007D001B6B5B689847BDE838400248FFF70ABF20
S214007D1038BD00BFC035002013B50024A36A01900B
S214007D20B3F5804F13D21B6BB3F5804F0FD20948C3
S214007D30FFF758FEA36A01211B6B01A89B699847B1
S214007D4004460448FFF7EEFE204602B010BD4FF48E
S214007D508174F9E7C035002070B50026B36A044682
S214007D60B3F5804F0D4612D21B6BB3F5804F0ED283
S214007D700848FFF737FEB36A20461B6B29469B6907
S214007D80984704460348FFF7CDFE204670BD4FF4E3
S214007D908174FAE7C035002070B50026B36A044641
S214007DA0B3F5804F0D4612D21B6BB3F5804F0ED243
S214007DB00848FFF717FEB36A20461B6B2946DB69A7
S214007DC0984704460348FFF7ADFE204670BD4FF4C3
S214007DD08174FAE7C0350020F8B50027BB6A044670
S214007DE0B3F5804F0D46164611D21B6B7BB1094882
S214007DF0FFF7F8FDBB6A20461B6B324629465B6AD6
S214007E00984704460348FFF78DFE2046F8BD4FF41A
S214007E100174FAE7C035002070B50026B36A044640
S214007E20B3F5804F0D4612D21B6BB3F5804F0ED2C2
S214007E300848FFF7D7FDB36A20461B6B29469B6AA6
S214007E40984704460348FFF76DFE204670BD4FF482
S214007E500174FAE7C0350020F0B50027BB6A044677
S214007E60B3F5804F0D461646ADF5337D20D21B6B1D
S214007E70B3F5804F1CD21048FFF7B4FDBB6A20460E
S214007E801B6B40F2C1225B6A01A99847044630B1D9
S214007E900948FFF747FE20460DF5337DF0BD836A9F
S214007EA032461B6B2946DB6A01A898470446EFE773
S214007EB04FF40174EFE700BFC035002010B5002472
S214007EC0A36AB3F5804F10D21B6BB3F5804F0CD26C
S214007ED00748FFF787FDA36A1B6B1B6B9847044692
S214007EE00348FFF71FFE204610BD0124FBE700BF36
S214007EF0C0350020F0B58FB0044601A80E461546E2
S214007F00FFF7EEFE9DF80C30012B12D1B5F5402F91
S214007F1027D8B4F5402F24D86319B3F5402F20D8BE
S214007F2021462A46304613F0B5FC002420460FB002
S214007F30F0BD0027BB6AB3F5804F15D21B6BB3F5B7
S214007F40804F11D20A48FFF74DFDBB6A2A461B6BCD
S214007F50314620465B6B984704460548FFF7E2FD2E
S214007F60E4E740F20244E1E740F20114DEE700BF36
S214007F70C0350020F0B58FB0044601A80E46154661
S214007F80FFF7AEFE9DF80C30012B1FD1B5F5402F44
S214007F9006D8B4F5402F03D86319B3F5402F13D98C
S214007FA040F2024420460FB0F0BDE258013225D11F
S214007FB004339D42F9D82A46314620462DF062F910
S214007FC00028EDD00024EDE70023F2E70027BB6A87
S214007FD0B3F5804F15D21B6BB3F5804F11D20A480C
S214007FE0FFF700FDBB6A2A461B6B314620469B6B9B
S214007FF0984704460448FFF795FDD3E740F203444C
S214008000D0E740F20114CDE7C035002070B58EB041
S214008010044601A80D46FFF763FE9DF80C30012BC1
S21400802022D144EA0503C3F30C03002B33D1B5F584
S214008030402F04D940F2024420460EB070BDB4F57D
S214008040402FF7D82544B5F5402FF3D8204604F541
S21400805000542DF010F9AC4202D00028F6D1E9E722
S2140080600028E7D00024E7E70026B36AB3F5804F80
S21400807014D21B6BB3F5804F10D20A48FFF7B2FC40
S214008080B36A29461B6B2046DB6B984704460548B7
S214008090FFF748FDD0E740F20444CDE740F2011474
S2140080A0CAE700BFC0350020BFF34F8F0549064B17
S2140080B0CA6802F4E0621343CB60BFF34F8F00BF81
S2140080C0FDE700BF00ED00E00400FA0570B5D0B192
S2140080D0C9B10E4E431E013913F8014F2046325DDA
S2140080E002F00302012A11F8012F08BF04F1200054
S2140080F0B55C05F00305012D08BF2032801A01D1BA
S214008100002CE9D170BD0120FCE700BF01C30400CC
S2140081100348044A0449121A92102DF0FFB800BF13
S21400812034410000D0420000BC66002008B5154B64
S21400813083F30A8800F030F8FFF7EAFF124B134982
S2140081408B4212D30020124B12498B4218D3FCF7F5
S214008150C9FD186850F82240586840F8224001329D
S21400816098688242F5D30C33EAE70022F8E71C68E9
S21400817044F8220001325C68A242F8D30833E4E7F0
S2140081800022F8E708000020C0E70400CCE704005F
S214008190CCE70400CCE70400124B134A70B59A6093
S2140081A0D3F88820114D42F47002C3F888206FF08F
S2140081B0010205F50054226641F2FF726266022251
S2140081C0C3F8D020BFF34F8FBFF36F8F4FF4403606
S2140081D0032004F065F90320E66004F045F92E61FB
S2140081E070BD00BF00ED00E00040000000800044CD
S2140081F0014B1860704700BF90690020054B18605F
S214008200054B1B6F03F00703032B01D135F0B2BB00
S214008210704700BF98690020008000502DE9F041AB
S21400822004464FF001080C250D4E0CB9BDE8F08150
S21400823094FAA4F0B0FA80F00F2808FA00F2C8BF4B
S214008240103824EA0204CABF05FB006205FB006280
S214008250B4325768002FE8D09168C0B2B847E4E758
S214008260D035002008B50C4837F070FB192004F014
S21400827009F928B1192004F013F9192004F0F4F8CC
S2140082801A2004F0FFF828B11A2004F009F91A2081
S21400829004F0EAF8002008BD049E04002DE9F04131
S2140082A00E461746054618B30F2923D80378DBB1C8
S2140082B0013BDBB2022B19D8104AD35C6A78D34054
S2140082C0DB0717D50E4BD3F81043ACB937F0A0FA3E
S2140082D080463A462846314602F042FE404637F08F
S2140082E092FA2046BDE8F0817F23E7E70023E5E722
S2140082F02224F6E72124F4E70224F2E7F49B0400A4
S21400830000C0035010B5044610B30378E3B1013B38
S214008310DBB2022B1AD8104AD35C6278D340DB0754
S21400832018D537F075FA0122617823788A40302113
S2140083304B4341F2100103F1A04303F570335A504A
S21400834037F061FA002010BD7F23E6E70023E4E75C
S2140083502220F8E72120F6E7F49B040010B5044637
S21400836010B30378E3B1013BDBB2022B1AD8104AF4
S214008370D35C6278D340DB0718D537F049FA012280
S214008380617823788A4030214B4342F2100103F192
S214008390A04303F570335A5037F035FA002010BD6D
S2140083A07F23E6E70023E4E72220F8E72120F6E72C
S2140083B0F49B040038B50D46044618B311B3037891
S2140083C0E3B1013BDBB2022B1AD8104AD35C6278C9
S2140083D0D340DB0718D537F01BFA302223785343F7
S2140083E003F1A04303F570335B696278D34003F072
S2140083F001032B7037F007FA002038BD7F23E6E72D
S2140084000023E4E72220F8E72120F6E7F49B0400A7
S2140084102DE9F0410D4616469846044600284FD0F2
S21400842000294DD00178002940D04B1EDBB2022B2C
S2140084303ED8254AD25C6378DA40D20701D4FF29B9
S21400844040D1022E01D9042E3CD137F0E1F9237831
S2140084500746FF2B05D032462046296802F0C6FDA7
S21400846028602B68013309D12378FF2B06D1174BE0
S2140084706078D3F824142DF02CFD286029684B1C56
S21400848018D00C23124A03FB0122069BC2F8048074
S21400849093602378FF2B04D001230E4A8B40C2F84A
S2140084A02434384637F0AFF9002007E07F22C2E7D1
S2140084B00022C0E7384637F0A6F92D20BDE8F08147
S2140084C02220FBE72120F9E7F49B040000C00350BC
S2140084D0D035002000D0035008B502F037FD044B1D
S2140084E000F05530C3F82004BDE80840FFF796BEFC
S2140084F000E0035008B502F029FD044B00F0AA3056
S214008500C3F82004BDE80840FFF788BE00E003502B
S2140085102DE9F04F144605460E469B46C36B87B0C2
S21400852001225B6902A960689847EB6B01225B69D0
S21400853003A93046984702A82DF0EFFA074648B13F
S2140085400023A37563754FF0FF33A360002007B0C8
S214008550BDE8F08F03A82DF0EDFA0123A375237E66
S21400856004EBC303DE611F846368B3420ED1206050
S21400857003A82DF001FB4FF0FF332075A360237D89
S214008580043B022B26D80023A375DFE723681A1ABC
S21400859053425341A37503A82DF0EEFA237D834280
S2140085A018BFA77503A82DF0C9FA074602A82DF034
S2140085B0C5FA874218BF002303A818BFA3752DF07D
S2140085C0C5FA074602A82DF0C1FA87421CBF002351
S2140085D0A375D4E703A82DF0B1FA80B1EB6B0222A5
S2140085E030465B6904A9984704A82DF0B6FA0346FE
S2140085F0207D032839D8DFE800F03838040903A8BE
S214008600F3E7CC22237E04EBC3031A8401F06EFC4E
S214008610109B187003A8277E2DF084FA04EBC7077A
S21400862087F82200237E03A804EBC303B3F8209048
S21400863093F822702DF082FA804603A82DF086FA71
S2140086408246B8F1000F15D0EB6B022230465B690C
S21400865004A9984704A82DF045FA6075637D6BB9A8
S2140086600023A3754FF0000838E0227E04EBC20218
S2140086701384CBE703A82DF020FAEEE794F81680D3
S214008680B8F1000FEED0B9F1000F09D1DFB1012328
S214008690E375637E002B4FD1012F42D1677614E03D
S2140086A06B6C06EB0A015A4286EA010010421CBFB8
S2140086B00022A2755A1E0A409B1A9945D0D8A37D5F
S2140086C0002BE3D1CEE7E37D43B94FF000084B46DD
S2140086D05246314628462CF06BFFA060A27D12B1B0
S2140086E023694B4423611A49237E097899422AD983
S2140086F001332376BBF1000F27D032B3E37D23B3DB
S214008700B8F1000F21D1032F1FD0A1684B1C1CD03D
S214008710109B2246009328460123FFF7F9FEA0751A
S21400872013E095F8343063B9EB6A0133CFD1032FE9
S214008730CDD10123A376C8E7012FCFD0032FC4D114
S214008740F7E79846C3E70023A375A07DFFE600BFC2
S214008750189C04002DE9F04F0E46984600238BB077
S21400876004464FF0FF31104617468DF8133001F0DF
S214008770A7FBB6F5801F20D2314605AA04F10800F3
S2140087802DF01DF9451C014603D1237CBBB92D20D5
S21400879010E0384601F094FB0122394620460DF1E0
S2140087A013032CF057FF0028EFD09DF8133088F8FD
S2140087B0003000200BB0BDE8F08FB01CE5D1E56AB4
S2140087C0691C36D12046616A2CF038FE0546B31C7B
S2140087D018BF0123DFF8CC900193636A626C0293A2
S2140087E0236805A902FB053AE36B05225B69504640
S2140087F0984705A82DF02CFA2DF04FFA50462DF08C
S21400880057FA4FF0000B824601464B1C05D0636CAE
S21400881081EA0A025B42134211D0294620462CF018
S2140088200DFE029BAB422CD0BBF1000F2CD10546AF
S214008830D3E72368ED1A636CB5FBF3F5C7E7484644
S21400884001F03EFB0DF1130349462046019A2CF039
S21400885001FF034690B1B21C03D0D9F80020B24203
S2140088600CD19DF8132003930D4B88F80020494641
S2140088701A68384613F00EF8039B9B46D9F8081082
S214008880C3E7BBF1000F82D0B6F5801F91D2314608
S21400889098F800307A6804F1080001F03FFA88E79B
S2140088A0149C0400AC3D00202DE9F3410446174615
S2140088B098460E46184D816AE36A8B4201D04B1CDF
S2140088C002D102B0BDE8F081284601F0F9FA012293
S2140088D0294620460DF107032CF0BCFE38B143466E
S2140088E0294620469DF80720B8470028E9D0A96801
S2140088F04A1C04D1696820462CF02DFE0146012E44
S214008900DAD16B6881EA0302636C5B421A4218BFD5
S2140089104FF0FF31D0E700BF803D00202DE9F04F3B
S2140089204FF0FF334FF6FF720025044600F10806AD
S214008930C0E909238BB0C3620562056330468846EA
S2140089402DF00EF820462CF049FD60BB204641462F
S2140089502CF0C4FD20462CF041FD60BB5E200BB021
S214008960BDE8F08F2368E26B606C576900FB05304A
S214008970052205A9B84705A82DF06AF9012807467B
S2140089800CD1294620462CF07AFD012F024600D154
S2140089900132294620462CF040FD03E02DF082F9F6
S2140089A00028EED10135E3699D42DBD320462CF04A
S2140089B015FD0028CAD000254FF0FF394FF6FF738B
S2140089C0CA46A846C4E90853E36998450AD3A5EB06
S2140089D00905012D2CD84FF6FF72636A93423CD1ED
S2140089E06720BCE72368E26B606C576900FB0830C1
S2140089F0052205A9B84705A82DF02AF9834605A83B
S214008A002DF0FDF8074658462DF047F968B1574552
S214008A1038BFC4F82480B94528BFB946BD4238BF20
S214008A203D46BA46236A0133236208F10108CBE7C4
S214008A304FF6FF7300256362E3699D42CBD2676CF5
S214008A402068E36B052207FB05005B6905A99847CC
S214008A5005A82DF0D4F80135EEE7E26B676C2068C8
S214008A60694607FB030055690522A84768462DF0AE
S214008A70C6F8626A2368606C4B4D00FB02302DF02E
S214008A8017F94FF0FF33A062E3622A466FF0010148
S214008A90204605ABFFF75EFE002846D1AD682946A6
S214008AA02046E5622CF076FC206320B92046E16A79
S214008AB02CF051FDE062294620462CF04CFD054680
S214008AC0A36A9D4233D120462CF037FC002780460F
S214008AD0B946E36999453CD3B84559D92046616AF9
S214008AE02CF0ACFC0026054604F1400AB74212D82A
S214008AF0626C2368694602FB0539E36B05225B69F5
S214008B004846984768462DF07AF853460246494646
S214008B10E06B2DF0CFF8294620462CF08FFC01366E
S214008B20B0450546E2D1642019E7A56AB7E72946AD
S214008B3020462CF02FFC236B29460344074623636C
S214008B4020462CF008FD0546002FB9D1C4E90B07D6
S214008B50B6E7636C2568052203FB0955E36B05A998
S214008B605B692846984705A82DF072F82DF095F811
S214008B7058B128462DF09CF8014620462CF00AFCF9
S214008B80636C143B984208BF013709F10109A0E75E
S214008B9030462CF0E5FE002320461946034AFFF730
S214008BA083FE0020DBE600BFD83D002043560300CE
S214008BB02DE9F041036B9046826B07689A4288BFA6
S214008BC08363426C436A90B002FB0377C36B0E4626
S214008BD0052201A95B6904463846984701A82DF08E
S214008BE037F801280146307057D0656CE26B236871
S214008BF0606AD2F814C005FB0030052206A9E047DB
S214008C0006A82DF025F801284FF0000523D0D4E95A
S214008C100A3201219342CDE90B458DF834800E953A
S214008C208DF83C102AD1194620462CF094FC236B74
S214008C30626C14339B1AE06223630C9B53B99DF855
S214008C403C303BB1626A616C2368E06B01FB023129
S214008C502CF0B6FF0C9DE36B05225B6901A9384634
S214008C60984701A82CF0F4FF30702846236BA26BBF
S214008C709A4288BFA36310B0BDE8F081237C33B965
S214008C801C490BAA04F1080001F096F8D5E7204627
S214008C90194A0BABFFF708FECFE7237C23BB22461F
S214008CA0164904F1080001F087F8616A20462CF0A6
S214008CB0E6FB616A421C20462CF0AFFB054620B955
S214008CC0236B626C1344143B23632046A16A2CF08A
S214008CD042FC2368A062C01A636CB0FBF3F06062CB
S214008CE020462CF07BFCB6E700232046044AFFF71C
S214008CF0DBFDDAE755940000D1930000DD56030053
S214008D007956030073B50D46D11E4A421C461B7E9B
S214008D104A419A4226D129682368994222D3636839
S214008D2099421FD8114E0DF107033246FFF712FD88
S214008D30C0B972686B689A4214D19DF80730DA1E83
S214008D4053425341227E93420CD1636901336361DF
S214008D50D4E90323934205D22968A26842F8231077
S214008D6001332361012002B070BD00BFD83D002052
S214008D702DE9F04F9B4689B09DF848309046514A01
S214008D800193136907465B450D46C0F09580D946AA
S214008D9053680093B9F1000F7BD0FB6B01225B692F
S214008DA005A90098984705A82CF0C4FE454B1B68FB
S214008DB0984240F0848005A82CF0C8FE0428064699
S214008DC015D105A82CF0C9FE009B04461E44019B45
S214008DD0002B3ED1804512D91C46A8EB0008384629
S214008DE000992CF0B8FBA9EB04090090D2E7FB6BC6
S214008DF002225B69009806A9984706A8E2E7A0EB5E
S214008E0008045C4528BF5C46032C4644ABEB040BC9
S214008E101DD9FB6B294630465B69A208984724F0AB
S214008E20030304F0030A1E441D44DDF80480BAF16F
S214008E30000FD4D0FB6B012206A930465B69984729
S214008E405246284606A912F025FD5544C7E7A24615
S214008E50EBE7824600F0030302932B1803930644C5
S214008E60039BA6EB0A00A3EB0A05029B9A4514D1C6
S214008E70BAF1000FB3D0FB6B012206A95B699847D5
S214008E805246284606A912F0C1FE0028DDD04FF053
S214008E903609484609B0BDE8F08FFB6B012206A9EB
S214008EA05B6998470422284606A912F0AFFE002800
S214008EB0EDD1AAF1040AD3E74FF06309E9E74FF0D2
S214008EC06F09E6E7043E00202DE9F0410F461646FE
S214008ED09846044688B060B390F83450FDB101213E
S214008EE02CF071FA00210E9BCDE90511CDE9023771
S214008EF09DF83C30CDF804808DF81C30237C049619
S214008F008BB90D4901AA04F1080000F055FFDDE910
S214008F100553E06B002E08BF1D462CF0EDFB2846DF
S214008F2008B0BDE8F0812046044A01ABFFF7BCFC60
S214008F30EDE70546F3E700BFA7560300058D0000E2
S214008F407FB590F84260044601920DF10B030A4685
S214008F50304611492CF0D8FB012E0546E36B17D19D
S214008F6032465B6903A998479DF80B10039B019A4C
S214008F7059B19BB243EA0243012228460393E36BAE
S214008F8003A99B69984704B070BD62F30F03F3E72B
S214008F9001229B6901A9F5E7043E00202DE9F04F68
S214008FA099B00E460D920A69416C0B931439D31D85
S214008FB0B3FBF1F3013302EBC302036B04469342A7
S214008FC0C0F001820023DFF804940893E36A484661
S214008FD01946059300F074FFD6E9033707930B9BF9
S214008FE0022B4DD1CC2F40F0D7810D9B3BB13146A3
S214008FF020462CF0DFFB656C1490012044E0012035
S214009000079B656C1B68149300F0010000280CBFDA
S21400901004230823782F0E9349D8059A6B1E134015
S214009020ED1A3B1D9D423CD2002F3DD0082D3ED868
S2140090300023042506934FF0040A336806990B981C
S214009040C9F80030C9F810702CF09AFD4FEA9A0360
S2140090500F93059B89F814000393002309930C9340
S21400906004930A93616C039B4A1E1A408B1A27B31B
S2140090705544AB4223D8236B5B1A134423632FE17A
S214009080782F656CB9D8F07D0D9B002BBCD0E36BB8
S21400909001225B69706816A9984716A82CF04EFD49
S2140090A0B4E700250695C6E704250697C3E701231F
S2140090B000254FF0080A0693BFE75345DBD3A3EB22
S2140090C00A029742039BB84628BF904697425344ED
S2140090D028D90122D9F8101089F817208F4226D1F6
S2140090E00399C9F80410049299F817200AB399F85E
S2140090F018100398CA1C09EBC2025060049801318C
S214009100A2F80880907289F81810B8F1000F07D0FE
S2140091100B9A022A40F08180099A72B101220992C4
S2140091209B46ABE0049A002A18BF0322DBE7022224
S214009130D9E7039AC9F80420E7E70C9A4244032AC1
S214009140EED9E26B1846956914A901220993A8473F
S214009150099B05460028E1D03D2D40F01E8104F114
S214009160080303932368059A606CA2EB030ABAFB14
S214009170F0FA00FB0A302CF09BFDE16A80462046A0
S2140091802CF0E9F9A26A824200F00F81626CD9F8ED
S2140091900830511E0B40216B2768891A0B44236345
S2140091A0089BE062DF1BB7FBF2F7BA4540F0FA8097
S2140091B0059BB3EB080A12D0E36B4FEA9A024146CE
S2140091C09B6998478346E36A059A5344E362236B98
S2140091D003989B1A434423632CF0C2FBDA462368A9
S2140091E0616CE06B01FB07312CF0D7FC20462CF0BD
S2140091F0F5F820462CF0F2F92063BAF1000F00F0E3
S214009200D4803269616CD31D1439B3FBF1F301339A
S21400921002EBC3029042A5D2BFE00D9A002A77D196
S214009220B8F1030F4FEA98026ED9E16B18468D69C4
S21400923007991093A847109B0546C0B918F0030578
S21400924015D0079A28F0030B02EB0B019B444FF056
S214009250FF3215A815922A46109312F01BFBE26BFC
S2140092605846956915A90122A8470546109B9B46B6
S214009270079A42440792002D40F08B80049B16A864
S2140092800193069B009399F814204346316800F03A
S214009290CDFDE36B0F9A9B69039816A99847039A2E
S2140092A0051E089B18BF13460893434652462046A1
S2140092B003992CF07DF9236B08F10302A3EB0A0354
S2140092C022F003029B1AC9F808002363002D7FF4DE
S2140092D043AF0C9BA7EB080743440C93CDF80CB0A8
S2140092E0204603992CF037F900250390002F7FF4D1
S2140092F0B9AE364A3168936804F10800E3625268F2
S2140093000B9B00F00BFD49E09B46454607999EE700
S2140093109B4606F120021092F27D7068A2B10022F0
S21400932096F818C00A99D5B2AC4511D9109D02F12D
S214009330010E35F832508D4228D90E9806EBC2023F
S2140093400144D069084403E00E9A0A990A4410447E
S214009350E26B15A9556901221193A847159A0A9B35
S2140093601392E26B043395695846012213A90A93B7
S214009370A847119B054603EB0802A2EB0B02042A42
S2140093807FF679AF28B90BF1040BC5E77246491B87
S214009390C9E7CDF820B088E770252F46384619B0C3
S2140093A0BDE8F08F4FF0000A19E73269616CD31DF3
S2140093B01439B3FBF1F3013302EBC302236B934280
S2140093C0BFF404AEE9E71C27E8E700BFAC3D002089
S2140093D0032A2DE9F34106460D4617461C4606D1DC
S2140093E0237A012B23D0012002B0BDE8F081DFF8FC
S2140093F06080096842460DF10703FFF7ABF960602D
S2140094000028EDD19DF80720237A032AE8D0D8F863
S21400941004106A689142E3D1012B2969D4F80CC084
S21400942007D172690CEB0103934202D92074207CA9
S214009430DAE708316144E1603B46012229463046BE
S214009440FFF7ACFD60600028CAD00020CCE700BF64
S214009450D83D00202DE9F341089C032A17462668CC
S21400946006D1237A012B24D0012002B0BDE8F0817A
S214009470DFF89080304642460DF10703FFF76AF9A1
S21400948060600028EDD12568D8F80400A96AD5F8F0
S21400949044C04840CCF100031840227AE1D1012AAA
S2140094A009D1E268D8F8103013447269934202D9A1
S2140094B02074207CD9E72868EB6A1B1A081AB3FBCD
S2140094C0FCF3B0FBFCF083420BD1706CF36A421ED7
S2140094D01340326B121A1344284633632CF03BF8C1
S2140094E0E862D8F81020E36808321344E3600122EB
S2140094F03B4604492068FFF751FD60600028B0D065
S2140095000020B2E7D83D00202DE9F0410025604B51
S2140095100E46D3F8008004461D6018B9212528465B
S214009520BDE8F08190F8347007B30A6803689A4281
S21400953040F0A3804A6843689A4240F09E808A685A
S21400954083689A4240F09980CA68C3689A4240F09D
S21400955094800A6943699A4240F08F808A69C36B97
S2140095609A4240F08A804B698361D8E76822394680
S214009570856B11F0FFFFD6E90212336804F108008C
S21400958023607368A5636360336963617369A3616D
S2140095902CF0F8F9B36904F14000E3639B68984740
S2140095A020B9676C17B16368B3FBF7F794F84330DC
S2140095B0E761002BB2D00023656C2366002D64D0D3
S2140095C0002F62D02368B3FBF5F205FB1233002BA5
S2140095D055D16668B6FBF5F305FB1363002B4ED139
S2140095E020462BF0C7FEA369043303449E4248D3AB
S2140095F040F634726369CC3B934244D8B5F5805F3D
S21400960043D3032120462BF0DEFED4E90001E36BB2
S2140096101B6898470546E36B0220DB689847CDB980
S21400962041462046FFF77AF96428054604D14146AC
S2140096302046FFF773F90546666C5DB9236A204637
S214009640143E5E432BF096FEA369043303449E4209
S21400965038BF5A25002D0CBF0123002384F8343070
S21400966007D1D4E900010B4A1368013313602CF0CC
S21400967023FAE06B2CF040F851E75D254FE75925BB
S2140096804DE75A254BE75F2549E75B2547E700BFCF
S2140096903C370020383700202DE9FF410C4616469F
S2140096A01F46054680B390F834307BB3B1F5801F73
S2140096B02ED2DFF8608001212BF085FE214642463F
S2140096C028460DF10F03FFF745F8044670B99DF8DC
S2140096D00F30012B11D1D8F81030BB4212D1024600
S2140096E0009031462846FFF743FB0446E86B2CF013
S2140096F003F8204604B0BDE8F081022B14BF2D24E9
S2140097006024F3E76324F1E72124F2E71124F0E76D
S2140097102924EEE7043E00202DE9F04385B00C46F0
S21400972017461E460546DDF8308098B390F834306C
S21400973093B3B1F5801F31D2DFF8649001212BF08E
S21400974042FE21464A4628460DF10F03FFF702F86F
S214009750044688B99DF80F30012B14D1D9F8102093
S21400976006EB08039A4213D3009043463246394626
S2140097702846FFF7FDFA0446E86B2BF0BDFF2046AF
S21400978005B0BDE8F083022B14BF2D246024F3E758
S2140097906324F1E72124F2E71124F0E72924EEE719
S2140097A0043E002073B50C461646054630B390F8C6
S2140097B034302BB3B1F5801F24D201212BF003FEE9
S2140097C021462846104A0DF10703FEF7C3FF04465C
S2140097D080B99DF80730032B0CD0022B0CD12846FD
S2140097E009492BF0E7FF3060E86B2BF085FF204639
S2140097F002B070BD2D24F7E76124F5E72124F6E7D3
S2140098001124F4E72924F2E7043E00202DE9F34171
S2140098101E4600230C4617460546336050B390F8A4
S21400982034304BB3B1F5801F28D2DFF854800121C5
S2140098302BF0C9FD2146424628460DF10703FEF7E8
S21400984089FF0446A0B99DF80730032B10D0022BE1
S21400985003BF01233B600423D8F8103018BF3860DC
S2140098603360E86B2BF048FF204602B0BDE8F0817D
S2140098702D24F6E72124F7E71124F5E72924F3E75A
S214009880043E002073B50446056B2BF073FD636E33
S21400989003449D422CBF00230123854294BF00252C
S2140098A02D1A207C84F85030656584F85800A8B1DD
S2140098B000230C4E1A461946204600962CF03EF819
